:020000041000EA
:10000000002008205B0100101B0100101D010010E2
:100010001101001011010010110100101101001058
:100020001901001019010010190100101F01001022
:10003000110100101901001021010010230100100E
:100040001101001011010010110100101101001028
:100050001101001011010010110100101101001018
:100060001101001011010010110100101101001008
:1000700011010010110100101101001011010010F8
:1000800011010010110100101101001011010010E8
:1000900011010010110100101101001011010010D8
:1000A00011010010110100101101001011010010C8
:1000B00011010010110100101101001011010010B8
:1000C00011010010110100101101001011010010A8
:1000D0001101001011010010110100101101001098
:1000E0001101001011010010110100101101001088
:1000F0001101001011010010110100101101001078
:100100001101001011010010110100101101001067
:10011000EFF30580103800BE00BE00BE00BE00BE7A
:1001200000BE00BEF2EB8871089B0A10289B0A10E3
:100130009C01001090A31AE7D3DEFFFF42012110BB
:10014000FF010000B0CE0A00793512AB00201E4935
:10015000086006C881F3088810474FF050400068D7
:1001600008B10020F3E70DA40ECC002902D000F066
:1001700012F8F9E71549164A002000E001C1914242
:10018000FCD114498847144988471449884700BE60
:10019000FDE701C901C29A42FBD37047289B0A10B0
:1001A00010010020D0350020E8CF0A100000082000
:1001B00000000820E8CF0A100010082000100820D6
:1001C000000000007047000008ED00E0D03500207E
:1001D000E8EB002051B90010F117001049B90010E8
:1001E000704700BF00B5042183B0019009F0CAFF39
:1001F000019803B000BD00BF2DE9F04FF7B00746EE
:10020000369030200C4609F0B9FF00F13005064663
:1002100038602F220021BD60013060F0D5F8022344
:1002200094F800907D60B9F1030F337000F087827D
:1002300090229946D0235027CDE90632B0234FF0C3
:10024000F00BCDE904377023CDE9023B102388275A
:100250000193C8234822CDE91537A823E827CDE923
:10026000133268232822CDE911379823D827CDE906
:100270000F325823B822CDE90D37F8237827CDE97E
:100280000B323823CDE90937182384220893C4237D
:10029000CDE93432A4234422CDE932326423E4226E
:1002A000CDE9303294232422CDE92E325423D422B6
:1002B000CDE92C32F423B422CDE92A32342374223E
:1002C000CDE928328C231422CDE926324C23CC22CE
:1002D000CDE92432EC23AC22CDE922322C236C224E
:1002E000CDE92032DC239C22CDE91E32BC235C22E6
:1002F000CDE91C327C23FC22CDE91A321C233C229E
:10030000CDE918320423179382237593C223749383
:1003100042237393A2237293E22371936223709317
:1003200022236F9392236E93D2236D9352236C9367
:10033000B2236B93F2236A937223699332236893F7
:10034000122367938A236693CA2365934A2364938F
:10035000AA233B93EA2360936A235B932A233A936D
:100360009A233D93DA2361935A236293BA233C93F1
:10037000FA2358937A235A933A2359931A235F9373
:100380000A235E9386235D93C6235C93462363937F
:10039000A6234093E6233F9366234293262341936B
:1003A00096234493D623439356234693B6234593EB
:1003B000F6234793762339933623489316233893AD
:1003C0008E234993CE2337934E234A93AE234C93E7
:1003D000EE234B936E234E932E234D939E235093E7
:1003E000DE234F935E235293BE235193FE235493F7
:1003F0007E2353933E2356931E2355930E235793E8
:1004000006234FF0800AC02140204FF0A00E4FF08D
:10041000E00C60254FF020084FF0300B08270C222D
:100420003E936379002B75D0DDE96E38DDE9741AEF
:10043000DDE972E0DDE9705C07936D9B86F8019061
:1004400006936C9B05936B9B04936A9B0393699B38
:100450000293DDE9673B0193669B1693659B1593B9
:10046000649B14933B9B1393609B12935B9B119330
:100470003A9B10933D9B0F93619B0E93629B0D9350
:100480003C9B0C93589B0B935A9B0A93599B099343
:100490005F9B0893DDE95D3735935C9B3493639BE9
:1004A0003393409B32933F9B3193429B3093419BCC
:1004B0002F93449B2E93439B2D93469B2C93459BBC
:1004C0002B93479B2A93399B2993489B2893389BCE
:1004D0002793499B2693379B25934A9B24934C9BB8
:1004E00023934B9B22934E9B21934D9B2093509B98
:1004F000579A1F934F9B1E93529B1D93519B1C9386
:10050000549B1B93539B1A93569B1993559B18937B
:100510003E9B1793A379002B36D0DDE92E78DDE9D9
:1005200032E0DDE9305C07972D9F179906972C9FE5
:10053000717005972B9FDDE9341A04972A9F039762
:10054000299F0297DDE9277B0197269F1697259F14
:100550001597249F1497239F1397229F1297219FEB
:100560001197209F10971F9F0F971E9F0E971D9FFB
:100570000D971C9F0C971B9F0B971A9F0A97199F0B
:100580000997189F089717466278B2B1DDE90F28DE
:10059000DDE9151ADDE913E0DDE9115C07920E9A39
:1005A000777006920D9A05920C9A04920B9A039218
:1005B0000A9A0292DDE9082B0192A27842B1DDE9A4
:1005C000061ADDE904E0DDE9025CD846019A7270A2
:1005D000E27822B1F2466146284686F80180227907
:1005E0000AB18A467070E2790AB186F801A0002B40
:1005F00000F09D80D4E90423C6F80630238BC6F8AA
:1006000002207381228F94F83A303282002B40F01E
:100610009280022294F83B1009B11346B27494F808
:100620003C2012B143F00403B37494F83D2012B19E
:1006300043F00803B37494F82C2012B143F0100374
:10064000B37494F8322012B143F02003B374002540
:10065000AE46AC4628462A462946B4F91C30A77E49
:10066000019367F30705019FB4F91EB067F30F25E7
:10067000C7F3072767F317456BF31F65C6F81350D9
:10068000CBF3072565F3070EB4F92050B4F922A087
:1006900065F30F2EC5F3072565F3174ECAF307253B
:1006A00065F3070CB4F92450B4F9269065F30F2CC8
:1006B000C5F30725A36A65F3174C6AF31F6E69F348
:1006C0001F6CC6F817E0C6F81BC04FEA136EB4F8EB
:1006D0002EC06EF30700B4F830806CF30F204FEAA1
:1006E0001C2C6CF31740C9F3072568F31F6065F3F2
:1006F0000702C6F82300A58E4FEA182060F3070111
:10070000E48E65F30F212D0A65F3174164F31F6131
:1007100063F30F22C6F82710190A61F317421B0C66
:10072000240A63F31F6286F82B40C6F81F20369810
:1007300077B0BDE8F08F01230322B3746AE7012389
:10074000D122912773707123CDE906274FF0510B09
:10075000B12202931123CDE9042B8927F1220193C1
:10076000C9230392CDE915374922A923E927CDE909
:10077000133269232922CDE911379923D927CDE9ED
:100780000F325923B922CDE90D37F9237927CDE965
:100790000B323923CDE90937192385220893C52364
:1007A000CDE93432A5234522CDE932326523E52255
:1007B000CDE9303295232522CDE92E325523D5229D
:1007C000CDE92C32F523B522CDE92A323523752225
:1007D000CDE928328D231522CDE926324D23CD22B5
:1007E000CDE92432ED23AD22CDE922322D236D2235
:1007F000CDE92032DD239D22CDE91E32BD235D22CD
:10080000CDE91C327D23FD22CDE91A321D233D2284
:10081000CDE918320523179383237593C32374936B
:1008200043237393A3237293E323719363237093FE
:1008300023236F9393236E93D3236D9353236C934E
:10084000B3236B93F3236A937323699333236893DE
:10085000132367938B236693CB2365934B23649376
:10086000AB233B93EB2360936B235B932B233A9354
:100870009B233D93DB2361935B236293BB233C93D8
:10088000FB2358937B235A933B2359931B235F935A
:100890000B235E9387235D93C7235C934723639366
:1008A000A7234093E7233F93672342932723419352
:1008B00097234493D723439357234693B7234593D2
:1008C000F723479377233993372348931723389394
:1008D0008F234993CF2337934F234A93AF234C93CE
:1008E000EF234B936F234E932F234D939F235093CE
:1008F000DF234F935F235293BF235193FF235493DE
:100900007F2353933F2356931F2355930F235793CE
:1009100007234FF0810AC12141204FF0A10E4FF073
:10092000E10C61254FF021084FF0310B09270D2212
:100930003E9376E5012904D8D2E900031B1A402B27
:1009400001D00020704710B50C46C2B00192FF21C3
:100950004FF4807202A85FF037FD019B02A8D3E933
:100960000012521A5FF0F8FC04F2FB3000034FF45F
:10097000805101905FF010FD01984FF4807202A940
:100980005FF0BAFC012042B010BD00BF2DE9F0417C
:100990001F4D07462E6807F0D9FA99B34FF47A72C3
:1009A00000235FF0D5FCDFF8788006EB46063401C3
:1009B00048F8040038465EF0A1FF2822904228BF84
:1009C0001046631D08EB06160021307103EB08008A
:1009D0005FF0FAFC394632795FF0BEFC0D480E4BF1
:1009E0000268511C0C2928BF0C212A6801600132C1
:1009F000A3FB0243DB0803EB4303A2EB83022A6061
:100A0000BDE8F081054BA3FB00308009CBE700BFB8
:100A1000183900205C390020ABAAAAAAD34D621075
:100A2000603900209C46002300B58BB08E46CDE98E
:100A30000633CDE90833012342F00102ADF8160078
:100A40008DF81520DCE90010421A8DF818E08DF8B9
:100A5000143022D105A902A8089204F0DDFDDDE9D9
:100A60000212521A402A049B08D089B9079818B17B
:100A70000999091A09F086FB0BB000BD0E48CDE9B3
:100A800000135FF085FCDDE9001301200B4A1070B4
:100A90000846591A09F076FBE8E7104601910092E2
:100AA00009F06CFBDDE900215FF056FC009A07902D
:100AB00002440992CEE700BF1C390020B0EB0020B1
:100AC0002DE9F041804684B0104616460F465EF090
:100AD00015FF0446D8B1302828BF3024204609F03D
:100AE0004DFB0546314622460619009002965FF0FE
:100AF00033FC3946404602226B460196FFF792FFCF
:100B00002146284604B0BDE8F04109F03BBB9FED0B
:100B1000087B3946404602226B468DED007B0294ED
:100B2000FFF780FF04B0BDE8F08100BFAFF30080A5
:100B300000000000000000002DE9F04FD1E9005353
:100B40008B46DBF808909D42A9EB050383B018BFE4
:100B50004D603F2BDFF8448174D8DBF80060AC1B9C
:100B600004F1004340333F2B40F29080402C2CBFD7
:100B7000271904F140076FF000439F4228BF1F462A
:100B8000384609F0FBFAAE4282467DD0621E052A45
:100B900033466FD9811B0139022902466AD924F0F4
:100BA000030C4FEA940E06EB0C0053F8041B83422F
:100BB00042F8041BF9D1644510D01A4612F8011B03
:100BC000D44495420AF82E1008D05A788CF80120A7
:100BD0009A1C95421CBF9B788CF8023054442346E3
:100BE000C6469C4608F14004019375460CF1100C72
:100BF0000FCDA5420EF1100E4CF8100C4CF80C1C49
:100C00004CF8082C4CF8043CEFD1019B03F1400553
:100C100026B13046A9EB060109F0B4FACBE900A5EC
:100C20005744CBF808701B4B984503D1012003B003
:100C3000BDE8F08FDBF80890DFF85880A9EB0503DA
:100C40003F2B8AD9464608F14007344610350FCC71
:100C5000BC4206F1100645F8100C45F80C1C45F88E
:100C6000082C45F8043CF0D1DBF804504035CBF8B3
:100C70000450D8E753465444721E12F8011F03F87B
:100C8000011B9C42F9D1AAE70346A9E7024854F0A8
:100C900029FF00BF00C03F103804061000B03F100D
:100CA0002DE9F0410446B8B0402009F067FA234628
:100CB000024600F1400C0790CDF824C004F1400139
:100CC0001D685C68D3F808E0D86810338B42156063
:100CD0005460C2F808E0D06002F11002F0D107A918
:100CE0000DA8CDF820C004F07DFD0D9BBDF83A4065
:100CF0009DF83C10BBB94B1E112B00F2FE84DFE8BF
:100D000013F03000470060008500C20005010A01B1
:100D100031012D021E02B9029F02AF028102900230
:100D2000DB02ED0225002046804AFFF7C9FE10983D
:100D300018B11299091A09F025FA079818B10999FA
:100D4000091A09F01FFA38B0BDE8F081DDE9102377
:100D50009A4200F0288312212046754AFFF7B0FE20
:100D6000E5E7042009F00AFA0546724B05F1040C88
:100D70001868002228600121204622ABCDE923CC4F
:100D80002295FFF74FFE0421284609F0FBF9CEE734
:100D90000C2009F0F3F90546674B05F10C0C07CB65
:100DA00022AB286069602046AA6002210022CDE9BA
:100DB00023CC2295FFF736FE0C21284609F0E2F9F4
:100DC000B5E75E4922A804F0ABFF182009F0D6F978
:100DD00005460DF1880C00F11803CDE91B331A907C
:100DE000BCE80F0028606960AA60BCE80300EB6003
:100DF0002861696120469DF83C1000221AABFFF77C
:100E000011FE1821284609F0BDF990E7DFF850C11E
:100E100013ADBCE80F000FC59CE8070085E807008C
:100E200013AA10A91AA804F0C7FF9DF86830002B78
:100E300000F0AF83424913AA22A805F017FA9DF8E3
:100E40008830002B00F0E0833E48FFF79FFD002232
:100E500020469DF83C100AABCDE90A220C92FFF720
:100E6000E1FD239825AB984203D02599013109F083
:100E700089F91B981DAB98423FF459AF1D99013178
:100E800009F080F953E72E4D284605F013FA0028A3
:100E900000F07783281D01F037FE281D02F03AFE8E
:100EA000287D00F055FF284A2B7F1178003B18BFA2
:100EB0000123FF29E87E06D0884200F001844FF02C
:100EC000000545EC4410214DFF2810702B700CD00C
:100ED00005F00EFF1C4A4FF00101137841EC44303D
:100EE000FF2B02D02A7842EC40300122184B1948DF
:100EF0001A70FFF74BFD002220469DF83C1022ABF4
:100F0000CDE922222492FFF78DFD10E70C4805F071
:100F1000E5FA1148EDE7DDE910239A4200F022825C
:100F2000072120460D4AFFF7CBFD00E750040610CD
:100F300000060610784F06106C4F0610A43B0020E8
:100F4000A03B002060040610282E0020B7EB0020F4
:100F5000B2EB002094040610AC04061054060610F0
:100F6000944F061022A803F093F81AA801F040FF4E
:100F7000CB4B1E780BF05CFA9DF888309DF88B20E7
:100F8000A3F10303B3FA83F35B099DF88C10059377
:100F900001929DF88A30BDF88D2080460A209DF888
:100FA000897002930491039209F0E8F8029B0546C8
:100FB0000371059B019AC371042342710499039A3A
:100FC000467080F80280C77081712B702A811420CE
:100FD000329E09F0D3F82A68867202606A680A2194
:100FE00042602A8901900281284609F0CBF8019BD2
:100FF0009DF86810320A99749DF89110DA72D974CC
:10100000339A310C1973310E5973110A9A73D973CB
:10101000110C120E19745A7428201C9E09F0AEF897
:10102000019B05461A68067502605A6814214260E1
:101030009A688260DA68C2601A690261184609F02B
:10104000A1F800239DF8D0C01D9985F81CC09DF81B
:10105000D1C0320A85F81DC04FEA164C85F816C07B
:101060004FEA166C6A7585F817C0359A4FEA112C4D
:10107000297685F819C04FEA114C090EAB77EB774A
:10108000E976369B110A85F8202085F82110110C8D
:10109000120E85F823201A0A85F8243085F82520B9
:1010A0001A0C1B0E85F8221085F8262085F82730AB
:1010B000502085F81AC0379E09F060F8374602467E
:1010C00080462B4680F8286005F120011868D3F887
:1010D00004E00646D3F808C0D86810338B42166087
:1010E000C2F804E0C2F808C0D06002F11002EDD1ED
:1010F00019685B68284611605360282109F042F89E
:101100000821002220463C0C88F82A403C0E27FA91
:1011100001F388F82B4008F1300488F82930239433
:1011200022ABC8F82C2008F15004CDF88880249414
:10113000FFF778FC5021404609F024F8F7E5DDE997
:1011400010239B1A042B03D11378522B00F02F820B
:101150000A212046534AFFF7B3FCE8E5DDE91032E7
:10116000D11A012900F31C829A4218BF1D784FF052
:1011700003000ABF00252E46002608F0FFFF0123CA
:1011800045704FF0000548490370096885708E422C
:10119000C0F070810190062008F0F0FF0346019A2C
:1011A00003211088DD7018809078019398701046A4
:1011B00008F0E8FF4FF00002019B0C209A8008F035
:1011C000DDFF4FF000060546019BAE711A68184618
:1011D0002A609B880621AB8008F0D4FF05F10C073C
:1011E000EE7105F1080600222046092113AB159780
:1011F000CDE91356FFF716FC7F1B3946284608F049
:10120000C1FF94E5DDE910031B1A052B03D1037818
:10121000012B00F02E820E212046244AFFF750FCBD
:1012200085E5DDE910031B1A052B03D10378012B9B
:1012300000F030820F2120461D4AFFF741FC76E581
:1012400003F04CFE9DF83C10002800F09481002231
:10125000204622ABCDE922222492FFF7E3FB66E58C
:10126000DDE910239A4248D00D212046114AFFF7AC
:1012700027FC5CE522A802F00BFF22A91AA8FEF7C2
:10128000BBFF204600220B211AABFFF7CBFB1A98BD
:1012900000283FF44CAD1C99091A08F073FF46E58D
:1012A000B2EB0020A00606105C390020E80406100E
:1012B00028050610C8040610DDE910239B1A022B2E
:1012C00006D11378012B03D15078012840F2FC811C
:1012D00010212046D04AFFF7F3FB28E5DDE9100393
:1012E0001B1A302B03D10378012B00F0B38111219D
:1012F0002046CA4AFFF7E4FB19E522A802F0C8FE1F
:101300009DF898200820019208F038FF019A0546C0
:10131000A2F1310200210120B2FA82F205F10803A4
:10132000CDE91B339DF88E30C5F801105209696074
:101330001A952870002B40F05A81AA7040F6B83CEC
:101340009DF89020204643EA42132B7100220D2184
:101350001AABA5F806C0FFF765FB0821284608F080
:1013600011FFE4E4AE48FFF711FB0122AD4B1A7008
:1013700006F0ECFD002900F042814FF47A72002360
:101380005EF0E6FF0022A84DFA302860204642F1C8
:101390000004CDE922229DF83C10249222AB6C601F
:1013A000FFF740FBC3E41AA801F022FD22A802F0D7
:1013B0006FFE01238DF84C309DF891309DF8682028
:1013C0008DF84E309DF8903004208DF84F308DF818
:1013D0004D2008F0D3FE02461399082011601C9D91
:1013E000CDE9012108F0CAFE034602990160019887
:1013F00004211D71019308F0C5FE1020019B2A0AEB
:101400005A7125FA00F22D0E9A71DD711D9E08F0B9
:10141000B5FE0546019B06721A68082102605A68EB
:101420004260184608F0AEFE20464FEA164C259C56
:1014300085F80AC04FEA166C85F80BC04FEA142CE9
:10144000330A2C7385F80DC04FEA144C240E6B72CE
:10145000EC73002212211AAB85F80EC005F11004BE
:10146000CDE91B441A95FFF7DDFA1021284608F054
:1014700089FE5CE483706D4B6D4A19686D4B0B31CE
:10148000A3FB01C5ED0805EB4505A1EB85010C317A
:10149000891BA3FB0153DB0803EB4303A1EB83038D
:1014A00003EB43031901039002EB03130620575883
:1014B000CDE9011308F062FE0546039AC770108853
:1014C000032128809078A870104608F05BFE3A0A45
:1014D0002A713A0C6A710C2008F050FE06463A0E4A
:1014E00082712A6880460260AA8806218280284686
:1014F00008F048FE029B06F108001A7906F10C0775
:10150000F2710646002A00F0EE800199484B4D1D0D
:10151000042A1D4440F2E980082A114638BF0821F8
:101520006FF00043019201F108029A4228BF1A4667
:101530001046174608F022FED8F80030294603600E
:10154000D8F804300546019A436008305EF004FF85
:10155000019A0C2183184046019308F013FE019B69
:1015600009211493EB1915930022204613AB139510
:10157000FFF758FA41E620462F4AFFF7A1FAFFF796
:10158000D6BB20462D4A9DF83C10FFF799FAFFF78D
:10159000CEBB20461B9A9DF83C10FFF791FA68E4F9
:1015A00009212046264AFFF78BFAFFF7C0BB537884
:1015B0000132432B7FF4CCAD12F8013F562B7FF460
:1015C000C7AD5378312B7FF4C3AD1E48FFF7DEF96A
:1015D00001221D4B1A7006F0B9FC00296BD04FF4A4
:1015E0007A7200235EF0B4FE0022184DCCE69DF81E
:1015F000C2306870E870AA7043F0DE039EE6144BB8
:10160000A3FB00308009BDE62046239A9DF83C10DC
:10161000FFF756FA25E400BF68050610B00506106E
:1016200074060610B5EB0020F035002018390020B4
:1016300060390020ABAAAAAA20060610780406107A
:10164000380606108C060610B1EB0020E0350020AD
:10165000D34D62102F21013002F02CFC9DF83C107C
:1016600000287FF4F4AD2046274AFFF729FAFFF758
:101670005EBB8178B0F80320407802F0F3FA9DF861
:101680003C1000287FF4E3AD2046204AFFF718FA0B
:10169000FFF74DBB81780379C278407802F064FB94
:1016A0009DF83C1000287FF4D2AD2046184AFFF781
:1016B00007FAFFF73CBB174BA3FB0030800993E709
:1016C000154D10702B7003E400F0010002F0A6FB32
:1016D0009DF83C1000287FF4BAAD20460F4AFFF772
:1016E000EFF9FFF724BB45467DE5294601925EF000
:1016F00033FE019A4546164475E52046084AFFF731
:10170000DFF9FFF714BB00BFD8050610040506106B
:1017100044050610D34D6210B7EB00208805061073
:10172000C806061010B5032ABDF808C001D1022969
:1017300001D0002010BD0F4A10780028FAD0BCF16B
:101740003F0FF6D99C460C4CA6460CF1100CBEE897
:101750000F004CF8043C094B10349E454CF8100C1B
:101760004CF80C1C4CF8082CEED10023014A402008
:10177000137010BDB0EB00201C3900205C39002034
:10178000022ABDF800C00DD0032A0DD101290BD1CA
:101790000BB3BCF1410F14D0BCF1400F14D118466B
:1017A000FFF77EBA112900D07047002BFCD0BCF1A6
:1017B000300F14D0BCF12F0FF6D12F21184602F0B4
:1017C00079BB1A78012A04D001210020064AFFF7CC
:1017D00077B90133E3E71846044AFFF771B91A787D
:1017E000112AE1D10133E8E70C070610F8060610CC
:1017F0002DE98048A14FA3B00CF050FF00F020FE6F
:10180000384604F05BFC9E4C2070381D01F07CF9DA
:10181000381D02F07FF9387D00F09AFA994BF87E76
:101820001A783B7F003B18BF0123FF2A06D0904265
:1018300000F058824FF0000141EC4420914AFF280B
:101840001070914A019213700DD005F051FA8D4B32
:101850004FF001021B7842EC4430FF2B03D0019A79
:10186000127842EC40302378002B00F03982874810
:10187000FFF78CF800230822854E73603360B27145
:10188000C6F807300CF01AFF002800F031824AF643
:101890000123002003A9ADF80C304FF000090CF033
:1018A00041FCDFF820B2DFF820A200214FF0FF302A
:1018B0000AF078FE00F09CFE03F0F6FB0CA802F0A4
:1018C000E7FB9DF8324024B99DF833400CB99DF8F0
:1018D000344006F03BFB002900F086814FF47A7219
:1018E00000235EF035FD9DF83020FB7C032A00F0DC
:1018F0008581002B40F09C81002C00F0C681AAFB62
:1019000000306FEA101000F001000CF0C9FE5D4BD2
:101910001B78FF2B04D0019A1278544044EC4030DD
:101920000CA802F0B5FB9DF83630002B40F0D080BB
:10193000584A1278002A40F0AA813B7C002B00F024
:101940004C81012B00F05E8106F000FB04460D4641
:10195000DFF8788198F8003023B10AF069FD00289B
:1019600040F0A8810CA802F093FB4B4B1B782BB1E5
:101970004A4B1C9A1B689A4200F05C810AF058FDA1
:1019800030B300200CF0CEF910B30B2301240CA9C6
:1019900004A8CDE90743FEF72FFC059B04A80A9392
:1019A000069B07A90B93049B099303F035FEDDE921
:1019B00004239B1A402B35D022B106991046891A70
:1019C00008F0E0FB099818B10B99091A08F0DAFB46
:1019D00006F0BCFA00294DD04FF47A7200235EF075
:1019E000B7FC2F4B1B7833B1DBE90023904279EB36
:1019F000030380F080812B4B1A78002A3FF455AF07
:101A0000294AD2E90012884279EB0202FFF44DAF75
:101A100083F800900AF03AFD322006F06BF90AF0E4
:101A20003FFD42E7032100200CF098F9049A0028BA
:101A3000C2D0194B1C991C70184B19601B4B9DF898
:101A4000361019701A4B9DF835101970194B9DF806
:101A500031101970184B9DF832101970174B9DF802
:101A6000331019709DF83410154B19700699002A1F
:101A7000A4D1A7E7AAFB00308009B2E7A03B002071
:101A8000B2EB0020282E0020B7EB00204007061004
:101A9000F03B0020B4EB0020B3EB0020083C00201A
:101AA000B1EB0020B5EB0020F0350020B9EB0020B1
:101AB000BDEB0020BBEB0020BCEB0020B8EB00200E
:101AC000BAEB0020E0350020D34D6210B6EB0020C9
:101AD0008C4C1C9D23689D423FF42FAF6FF07E0E0F
:101AE0009DF841C09DF84200ACF1800C9DF8431078
:101AF0008038F445A1F18001B8BFF4467045B8BF05
:101B000070467145B8BF71469DF844309DF8472036
:101B1000803B7345B8BF7346B17002F00F010729CF
:101B200028BF0721F370BDF8453070700131900671
:101B3000B380C2F3001348BF43F00203B1715106F2
:101B400048BF43F0040312069DF8482048BF43F005
:101B5000080302F0010143EA0113900748BF43F074
:101B60002003510748BF43F04003100748BF43F02C
:101B70008003510648BF43F4807310069DF8492046
:101B800048BF43F40073D10648BF43F48063900616
:101B900002F0010148BF43F4006343EA01339107B7
:101BA00048BF43F40053520748BF43F48043F371E6
:101BB0001B0A33724FF00003A6F809303B7E86F80B
:101BC00000C0002B6FD101234F4A504913700B7096
:101BD0003B7C2560002B7FF4B4AE06F0B7F94FF4E0
:101BE0007A6C04460D4613E0AAFB00309DF83020C5
:101BF000FB7C032A4FEA90107FF47BAE012483EA3A
:101C0000040082E606F0A2F94FF4FA6C04460D4691
:101C10003F4BD3E9002352EA03013FF499AEA21AE5
:101C200065EB0303624573F10003BFF491AE99E6DF
:101C300000206AE6374B9DF836201B789A427FF4E5
:101C40009DAE354B9DF835201B789A427FF496AEB9
:101C5000324B9DF831201B789A427FF48FAE304B87
:101C60009DF832201B789A427FF488AE2D4B9DF868
:101C700033201B789A427FF481AE2B4B9DF83420A1
:101C80001B789A427FF47AAEA2E620463DE61F49D1
:101C900008220B700121C6E90033C6F807301A4B41
:101CA000B271197049E60AF0CBFB00288BD00AF01C
:101CB000CFFB88E700200CF035F800283FF452AE47
:101CC0000B2310210020194A0CF048F800283FF49B
:101CD00049AE002388F800300D4BC3E9004541E6CA
:101CE0001348C5E5134A1070134A01921370ACE50E
:101CF00001F0E2FECBE50021104B084683F800908E
:101D000006F062FA0C3C0020B6EB0020B4EB002099
:101D1000E8350020B9EB0020BDEB0020BBEB002034
:101D2000BCEB0020B8EB0020BAEB0020F03B002019
:101D300028070610282E0020B7EB0020B1EB00206A
:101D40000149024804F0A8B92C2E0020A03B002035
:101D5000014B1870704700BFBEEB0020044B0548D4
:101D60001B78002B0CBF002303230374704700BFB4
:101D7000BEEB0020302E002000487047C8500610EF
:101D800000487047C04F061030B58DB058B940F2CA
:101D900009434FF4417E264D6B802549A5F800E0AC
:101DA00008460DB030BD032822D03FD8214B53F850
:101DB00020100029F4D0084601915DF09FFD2028F5
:101DC000044628BF202404F1010E4FEA4E0E01996B
:101DD000174D4EF4407E0028DFD028464A1E931C43
:101DE0005B1A12F801CF9C4220F802CFF7D8D4E753
:101DF0002122002102A85EF0E7FA212102A809F0C1
:101E0000E1FF02A85DF07AFD094D40B12A4602AB20
:101E10001C1813F8011B9C4222F8021FF9D100F193
:101E2000010E4FEA4E0E4EF4407EB6E70021B7E7B2
:101E3000C8380020B04F061049B100B54A7985B0C6
:101E4000042A06D0022A15D0002005B000BD08469D
:101E5000704791F803C0BCF1010F33D0BCF1020F01
:101E6000F2D14B78012BEFD16A468DF800300BF0A0
:101E7000A5FEEAE78A78042AE6D891F803C0BCF107
:101E8000010F12D0BCF1020FDED14B78012B38D0FC
:101E9000022BD9D14FF0807C1F4A082300926A465A
:101EA000CDF804C00BF08AFECFE74B78012BCBD1E5
:101EB000DFF868C01CF802C06A468DF800C00BF05D
:101EC0007DFEC2E74B78012B12D0022BBCD14BF622
:101ED000803EADF800C04FF0000C0E236A46CDF8EE
:101EE00002E0CDF80AC0CDF806E00BF067FEACE7E3
:101EF0004BF6803C13466A46CDF800C00BF05EFE00
:101F0000A3E7DFF81CE063463EF812C06A46ADF86E
:101F100000C00BF053FE98E7010000A6E83B00204C
:101F2000FC3B002011B14B79022B01D000207047FF
:101F3000002AFBD04B78012BF8D18B78042BF5D8F5
:101F400010B5C87882B0012804D002281DD0002026
:101F500002B010BDC9880129F9D192F90010214AB7
:101F6000003918BF0121D1541378517892780B436E
:101F7000134314BF0120002000F0A8FD1A4BB3F951
:101F8000000000F0A9FD0120E2E7C9880229DED1A6
:101F9000CDE9003200F026FEDDE900320028F2D162
:101FA00011785278114841EA022212B28242B8BF37
:101FB00002460C4802EAE27290F801C0017880788B
:101FC00041EA0C010143084918BF01200C4608BF33
:101FD000002021F8132000F079FDB4F9000000F092
:101FE0007BFDD0E7E83B0020FC3B002000A6FFFF84
:101FF000C1B108B58B884888DBB2012BC0B203D0D1
:10200000022B08D0012008BD003818BF012000F0C5
:1020100033FD012008BD003818BF012000F044FD49
:10202000012008BD0120704769B108B58B88DBB27B
:10203000012B0AD0022B01D0012008BD002000F0A6
:1020400033FD012008BD01207047002000F014FD81
:10205000012008BD10B50C46E2B04FF4C472002157
:1020600068465EF0B1F9B4F5C47F2246694628BFE0
:102070004FF4C47200200BF039F90146684600F0B5
:102080005BFB012062B010BD00B59BB00021622255
:1020900001A85EF099F9602101A800F0A9FD10B92E
:1020A00001201BB000BD82B201A900200BF02AF96B
:1020B00001201BB000BD00BF2DE9F04FD44BADF6A1
:1020C0009C0D1D68002D00F098810026DFF850A3BC
:1020D0004FF4F062002146A85EF076F90AF1020B97
:1020E0000DF58D790395CB4B40F2DF12A3FB06353E
:1020F000731B05EB530540F2FF132D0A05F1010890
:10210000984528BF9846C5EB05143AF93800C5EB49
:102110004414341B80FB04013AF935C0C4F5EF7751
:1021200001370023C7FB0C015EF0D6F829F8020C3A
:102130003BF938003BF9353080FB040140F2DF12F7
:10214000C7FB030100235EF0C7F8B34B06F2FF168E
:102150009E4229F8040BC6D1C824039D14AE002169
:10216000224630465EF030F928464FF4F07233468E
:1021700046A9009423F02EFAA042054600F23D81C4
:102180000021402204A85EF01FF9A44BA4494FF09F
:10219000FF3E4FF0800A1888DFF898C2DFF8988277
:1021A00001F5805904AF03957DE0002B03DA14EBB1
:1021B000080443F10003240D44EA0334802C4FEA61
:1021C000235373F1000300DB7F24B1F90EB0B1F9A2
:1021D0000620B1F916501BEB02033C704FEAE27285
:1021E000B1F91E4042EBEB72EB1842EBE572E318DB
:1021F00042EBE472B1F92640E51842EBE473B1F921
:102200002E40621943EBE473B1F93640A21843EB58
:10221000E473B1F93E40A21843EBE473B1F94640D0
:10222000A21843EBE473B1F94E40A21843EBE473F8
:10223000B1F95640A21843EBE473B1F95E40A2181D
:1022400043EBE473B1F96640A21843EBE473B1F9D0
:102250006E40A21843EBE473B1F97640A21843EB49
:10226000E473B1F97E40A21843EBE473A2FB004291
:1022700000FB0323A4457EEB03026FDA002B03DA95
:1022800014EB080443F10003240D44EA0334802CCA
:102290004FEA235373F10003A8BF7F24803189459F
:1022A0007C7060D00237B1F90CB0B1F90420B1F9FB
:1022B0001450B1F91C401BEB02034FEAE27242EBEF
:1022C000EB72EB1842EBE572E31842EBE472B1F902
:1022D0002440E31842EBE472B1F92C40E31842EBDE
:1022E000E472B1F93440E31842EBE472B1F93C40D6
:1022F000E31842EBE472B1F94440E31842EBE472B4
:10230000B1F94C40E31842EBE472B1F95440E318E0
:1023100042EBE472B1F95C40E31842EBE472B1F9CC
:102320006440E31842EBE472B1F96C40E31842EB0D
:10233000E472B1F97440E31842EBE472B1F97C4005
:10234000E31842EBE472A3FB004300FB0233A44515
:102350007EEB0302FFF629AF802436E78031494542
:1023600087F801A09ED12F4C4FF4C7720021204660
:10237000039D5EF029F8362323703F2390222373B8
:1023800044F2920328482949E2720278A4F84C30BA
:102390000B78A272013202705A1C1B0104AF0A7042
:1023A000637004F14E0EBC460EF1100EBCE80F0037
:1023B000B44507F110074EF8100C4EF80C1C4EF8FF
:1023C000082C4EF8043CEED11323012D84F88F50D5
:1023D00084F88E3016DD2A46314615485DF0BCFF84
:1023E0004FF4C7710F4804F0CDFBC0B2B0FA80F0D3
:1023F00040090DF69C0DBDE8F08F00200DF69C0DF8
:10240000BDE8F08F04BF337884F89030E8E700BF70
:10241000188C00209B01A31120BE0300482E002031
:102420001C8C00201C9C0020C4EB0020C1EB002071
:10243000AC9C00200000F0F7FFFF0F000000000040
:1024400030B5002483B04FF48042002146485DF04F
:10245000BBFF4649464B474D0C604FF48052214626
:1024600045482C601C605DF0AFFF9FED3D7B43490C
:1024700047F6FF730C6042494FF480720C6041498B
:102480004FF400700C604049404D0C6040490C60B6
:1024900040490C6040490C6040490C60404981ED66
:1024A000007B40490C7040490C7040490C70404919
:1024B0000C7040490C7040490C7040490C70404908
:1024C0000B8040490B8040490B804049404B0A80BB
:1024D0001A804049404A414B0860147021464FF42D
:1024E00080523F481C705DF06FFF21464FF4C77269
:1024F0003C485DF069FF40F6010202214BF6803056
:1025000001AB2C70019420F0EDFF374C206008B136
:10251000019D1DB10023236003B030BD40F6A271C0
:10252000324A23F021F92A4640F6A671206823F0AA
:102530001BF9052240F6AA71206823F015F940F630
:10254000BA3240F6B871206823F00EF9102240F636
:10255000C471206823F008F903B030BDAFF30080E8
:102560000000000000000000103C0020147C00204F
:10257000AC9D0020107C0020187C0020B89D00201D
:10258000BC9D0020C49D0020B09D0020C3EB002016
:10259000C09D0020B49D0020C89D0020CC9D00203F
:1025A000F8350020BFEB0020C8EB0020C7EB00206F
:1025B000C2EB0020C5EB0020C6EB0020C0EB0020E2
:1025C000502E00204E2E00204C2E00204A2E00209F
:1025D000482E0020442E0020C1EB0020C4EB002038
:1025E0001C8C00201C9C0020188C00200071020014
:1025F000F0B5444C97B023780BB917B0F0BD05F097
:10260000A5FC414AD2E90035C01A4FF000033F4A09
:1026100061EB0501824273EB010169D32378002B42
:10262000EBD03B4B1B68002BE7D0684601F030FD38
:1026300038490B78002B50D1374E38493268096839
:102640008A42DAD39DF808100029D6D0DFF8D8C026
:102650009E46334C334F0CF6F875A2B12368013A0D
:10266000591CC1F30A0107EBC303AC45216032607A
:1026700093E803008CE803001AD00EF1010E0CF170
:10268000080C002AEAD1AC45CCE9002210D0264B38
:102690000EF1010E03EBCE03CEF5007E03EBCE0E62
:1026A0000EF1080E083343E9022208339E45FAD1A1
:1026B000FFF702FDF8B10123164A13704FF4C771FA
:1026C0001A4801F06BFC002897D00021184A1368C3
:1026D000013313600F4B19708FE79DF80830002B02
:1026E000ECD1144A0B70136803F50073136084E790
:1026F000237017B0F0BD0F4A136803F50073136021
:102700007BE700BFBFEB0020F8350020F049020056
:10271000188C0020C3EB0020AC9D0020442E00202C
:10272000107C0020103C00201C8C00201C9C0020F1
:10273000B49D0020C09D0020002800F029810729B9
:1027400040F226812DE9F04F9B4B91B01A789B4BBC
:1027500004461B6802920393CB089949D1F800B054
:102760009849096804919849D1F800809749096807
:1027700005919749086897490D68002A40F009813A
:10278000CDE90D22944A04EBC30312780793069215
:10279000924A934B12881B880C92924ADFF85CE2B3
:1027A0001288DFF85CC28246CDE908CE0A920B930C
:1027B00097E062782378029E43EA02230C9A1BB2C8
:1027C00083FB0203A77800FB06F1E27847EA0227C1
:1027D0000A9A3FB202FB0313A0FB0201194474A33F
:1027E000D3E900235DF078FD00FB06F30B9A02FBB2
:1027F0000133A0FB020213447B4A90424FF0FF32A8
:1028000073EB0202C0F29780002B02DAFF3043F133
:102810000003000A40EA0366B6F5004F4FEA23239F
:1028200073F10003A8BF47F6FF760F960C9B0A9939
:1028300087FB0372029B07FB03F301FB0233A7FB39
:10284000010119445AA3D3E900235DF045FD029B21
:102850000B9A00FB03F302FB0133A0FB02021344BB
:10286000614A90424FF0FF3273EB020260DB1A1EA6
:1028700002DAFF3042F10002000A40EA0263B3F5D7
:10288000004F4FEA222272F10002A8BF47F6FF7301
:102890001A460F99BBF5006F0A4402EBD2724FEA59
:1028A000620232D00BF1010B099908F10100BAF56F
:1028B000006F01EBC801C0F30A0831D00AF1010A28
:1028C0004B80019B0898CB80079B083420F815208B
:1028D000A34205F101050E80A1F80490C5F30A0595
:1028E0002DD0637994F80490E27949EA0329A37919
:1028F00043EA02230193069B002B3FF45AAF0022C8
:10290000BBF5006F16461346CCD103990131C1F3D4
:102910000A01039104990131049101210D91C3E74A
:1029200005980130C0F30A00059001200E90C7E71A
:102930002E4A1346ADE72D4B1E460F9376E75046C1
:10294000244B1D60224B18601F4BC3F800801C4BAA
:10295000C3F800B00E9B13B11C4B059A1A600D9B77
:102960002BB1184B049A1A60144B039A1A60204A30
:1029700013680133136005F0E9FA01220D4604469D
:102980001C491D4BC1E900451A7011B0BDE8F08F1C
:102990007047002604EBC30392460746DFF85CE06D
:1029A000DFF85CC00E960D96019344E0AFF3008013
:1029B0000100FF3F00000000C2EB0020107C00205F
:1029C000AC9D0020C09D0020147C0020B89D0020FC
:1029D000C49D0020BC9D0020C5EB0020502E00208F
:1029E0004A2E00204E2E002001FF7FFF0080FFFFB7
:1029F000B09D0020F8350020BFEB0020103C0020E7
:102A0000187C00200BF1010B08F10109B7F5006FEC
:102A10000EEBC802C9F30A0823D00137019B083422
:102A20002CF815609C4205F101059080D18016605C
:102A3000C5F30A051ED062792079A17940EA022007
:102A4000E279BBF5006F41EA0221DBD1039ACDF8B0
:102A500034A00132C2F30A020392049A01320492B2
:102A6000D2E7059BCDF838A003F10109C9F30A03A9
:102A70000593D3E7384663E7064B187048B9064A12
:102A8000DFF820C00549064B12688CF8000008608A
:102A90001A607047C8EB0020147C0020AC9D002019
:102AA000107C0020BFEB0020044B187028B9044AAA
:102AB0000449054B126808601A607047C7EB002094
:102AC000BC9D0020C49D0020B89D0020014B1870C3
:102AD000704700BFC2EB00200849094B8842B8BFCD
:102AE000084600EAE07000F5B44000B2C0EBC03028
:102AF000400AA3FB0030034A1080704700A6FFFF86
:102B0000115BB005502E0020D0ED017AB0EE677A4F
:102B1000BEEECC7A2DE9F041C27C284BDFF8BCC078
:102B20001A70027A90F809E0C2EBC232ACFB0215CF
:102B3000CEEBCE3EACFB0E1C521B437B05EB520290
:102B40001F4D9209AEEB0C0E102B2A800CEB5E0C85
:102B50001C4A38BF10234FEA9C1CA2F800C017EE95
:102B6000102A7F2B28BF7F23B2F5807FB8BF4FF498
:102B70008072B2F5007FA8BF4FF40072857A1249C7
:102B800008356D01103B0D80104E857CDFF85080BC
:102B9000807D03EB43035B023070A8FB03015B1AEB
:102BA00001EB53010A4F0B4C0B4B890901F50071E6
:102BB0003D7021601A80BDE8F08100BFC5EB0020A8
:102BC0004E2E00204C2E00204A2E0020C0EB00206C
:102BD000C6EB0020442E0020482E002011080402DD
:102BE000890B3527014B1878704700BFC0EB0020D8
:102BF000002800F0D9802DE9F04F01290C4683B060
:102C00002DD96E4B93F800C0BCF1000F27D06C4B50
:102C1000650819786B4B1B6829B3012D00F0CC8037
:102C200002464FF0000C24F003010144A40842F8CE
:102C300004CB9142FBD1B5EB440F4FEA440203D0E1
:102C40004FF0000120F81210EF185E4B1F605E4A33
:102C5000680013680133136003B0BDE8F08F0020F3
:102C600003B0BDE8F08F8E46E346584A00F10109F3
:102C7000B2F800A0564A1468564AD2F80080002CD8
:102C800041D15F1C0EF101039D4200F81E4009F87E
:102C90001E402ED00EF1020E75452CBF01260026D7
:102CA000A5EB0302B246914615D3012A13D0002E9C
:102CB00014BF16460126A64600EB43024FEA560C07
:102CC00002EB8C0C42F804EB9445FBD1F20706D5DD
:102CD00026F0010213444FF0000220F81320BAF14D
:102CE000000F09F1FF3E08BF4FF0000E0EF1010E7C
:102CF00077440029A9D0374BC3F80080314B1F60BF
:102D0000334B1C60A3E7344A344932F9182082FB64
:102D10000A268A424FF0FF3176EB010149DB4FF67C
:102D2000ED77910F41EA860121F0404C22F04041BD
:102D3000614401EB167107EAE67C294F6144A7FB69
:102D4000017C284F07EAE6770197A1EB0C070CEB13
:102D5000570C4FEA9C3CCCEBCC37C91B019F394444
:102D6000521A66EBE171204E204F06FB02F607FB7C
:102D70000161A2FB07263144B2F5004F71F1000159
:102D8000A8BF47F6FF72110A00F81E2009F81E10AE
:102D90000EF1010E08F1010C7545CCF30A0804F19F
:102DA000FF3402D059466AE770470A4BC3F80080E7
:102DB000A6E780210022E7E7002241E7C7EB0020D9
:102DC000C6EB0020CC9D0020C89D00204C2E00208A
:102DD000C49D0020B89D0020187C0020020000C087
:102DE000050002000280FFFFFFDFFFEFFF7FFFBF54
:102DF000DFF880C01649174B174A9CF800C00978C5
:102E00001B78127880F800C0417083700AB9134BA8
:102E10001A78134BC2701B68DFF85CC0003B18BF08
:102E200001231049104ADCF800C009681268C0F894
:102E300008C0C0E90312DFF844C00C490C4ADCF8B2
:102E400000C009681268C0E905C1C261037170471A
:102E5000C8EB0020C7EB0020C2EB0020C5EB002030
:102E6000188C0020C09D0020AC9D0020C89D002033
:102E7000CC9D0020BFEB0020B09D0020B49D002021
:102E8000124B1968EFF3108272B6D1E8CFCF012050
:102E9000BCF1000FF9D1C1E84C0FBCF1000FF4D127
:102EA000BFF35F8F0A495A60088840B109494879E1
:102EB00028B10878A0F10300B0FA80F040090021A1
:102EC0001B68C3E88F1F82F310887047DC9D0020C9
:102ED0008EEB0020602E002038B54FF44C7200219C
:102EE0001A485DF071FA4FF0FF30002300220021F4
:102EF000174C184D20602860174C1848C4E900236F
:102F00000170174C1748C4E90023C0E900233F2291
:102F100015485DF059FA154B1868EFF3108272B638
:102F2000D0E8CF5F0124002DFAD1C0E8454F002D35
:102F3000F6D1BFF35F8F00210D485A6001811B68F5
:102F4000C160C3E88F1F82F3108838BDE49D002064
:102F50005C2E0020582E002030360020D2EB0020BE
:102F6000203600200836002018A10020DC9D00201B
:102F7000602E00201A4A1368032B24D90268194BCB
:102F8000C3F812208288DA82174B1968EFF3108297
:102F900072B6D1E8CFCF0120BCF1000FF9D1C1E862
:102FA0004C0FBCF1000FF4D1BFF35F8F4FF0010C59
:102FB0000E485A6000211B6880F807C0C3E88F1FC5
:102FC00082F31088704703EB430C0133054913600B
:102FD000036841F81C30838801EB4C018B80D3E7F8
:102FE00070A1002058A10020DC9D0020602E002050
:102FF0002DE9F0414F4D2C68002C5BDBFFF740FFC3
:10300000002857D04C4E3368002B5BDB04F09EFF4A
:10301000002951D1494BA3FB003080090021484BC6
:10302000D3E90042A04271EB020243D34FF4CC74C7
:103030004FF0FF303268434F306004FB02720020D3
:1030400082F894110021C3E900012C684FF4CC7878
:1030500008FB04F23C4BB9181888D1F890310132C2
:10306000013B91F88E113A449BB21DF0C7FC08BB9E
:10307000336834608342A4BF08FB037383F8940170
:103080004FF0FF332B6004F061FFE9B14FF47A7227
:1030900000235DF05DF94FF4CC73002203FB047351
:1030A00093F88E310430264942F10002362B086035
:1030B0004A600ED0BDE8F0814FF47A7200235DF0D3
:1030C00047F9ABE71F4FC1E71C4BA3FB003080095A
:1030D000E1E71E4C2368EFF3108272B6D3E8CF0FFE
:1030E00001210028FAD1C3E8401F0028F6D1BFF320
:1030F0005F8F40F20111164B6260DA68198101326C
:10310000DA6004F023FF79B14FF47A7200235DF0A6
:103110001FF900230F4A2168C2E90003C1E88F3F6D
:10312000636883F31088C5E7044BA3FB0030800974
:10313000EFE700BF582E00205C2E0020D34D621018
:1031400030360020E49D00208EEB0020DC9D002026
:10315000602E0020083600203F4BF0B51B68002190
:10316000002B0CBF4FF4CC75002506463B4C95B0A8
:103170004FF4C77205EB040014BF0F4601275DF042
:1031800023F9374B68461A78511C197002F00F0268
:10319000314603F063FB4E22694628195DF0DCF8E6
:1031A0004FF4CC73312001214E2203FB07432D4DF8
:1031B00083F88E012F60C3F8902183F8941104F0F6
:1031C000C5FE00293ED04FF47A7200235DF0C0F8AE
:1031D0000023254A254CF17A10605360237039B1E1
:1031E0002F22012A06F10C0131DD21485DF0D0F8D3
:1031F0003378EBB11E4D0DF103040DF13306AC46EF
:1032000020686168A268E3681034B442ACE80F003B
:1032100005F11005F3D120686168A268A689A37B37
:1032200007C52E80AB70FFF7E3FE012015B0F0BD9F
:10323000F378002BDED1F379002BDBD1737A002BEE
:10324000F1D0D7E70B4BA3FB00308009C0E7CFD10B
:10325000074B327B1A70CBE75C2E0020E49D0020E8
:10326000CEEB0020582E002000360020CBEB0020B3
:1032700018A10020D34D6210A44BF0B51B78002B91
:1032800000F07081A24A1368EFF3108472B6D3E89D
:10329000CF6F0125002EFAD1C3E8465F002EF6D18C
:1032A000BFF35F8F9B4B156854601B780022C5E805
:1032B0008F2F84F31088012B00F02E81002B40F01B
:1032C000B680002800F0B280082940F2AE800546A2
:1032D0000346A1F10806064413F8012B02F120046D
:1032E000A2F1410CE4B2BCF1190F98BF2246642A46
:1032F00040F06A811A7802F12004A2F1410CE4B294
:10330000BCF1190F98BF2246752A40F05D815A78AA
:1033100002F12004A2F1410CE4B2BCF1190F98BFF4
:103320002246612A40F050819A7802F12004A2F1ED
:10333000410CE4B2BCF1190F98BF22466C2A40F050
:103340004381DA7802F12004A2F1410CE4B2BCF12D
:10335000190F98BF2246732A40F036811A7902F17C
:103360002004A2F1410CE4B2BCF1190F98BF22462F
:10337000652A40F029815A7902F12004E4B2A2F1D1
:10338000410CBCF1190F98BF22466E2A40F01C81F7
:103390009A7902F12004E4B2A2F1410CBCF1190FB8
:1033A00098BF2246732A40F00F81DA7902F1200497
:1033B000E4B2A2F1410CBCF1190F98BF2246652A74
:1033C00040F002810339014415F8013B03F120026A
:1033D000A3F14100D2B2192898BF1346652B40F0E3
:1033E000EB802B7803F12002A3F14100D2B219281F
:1033F00098BF1346642B40F0DF806B7803F1200206
:10340000A3F14100D2B2192898BF1346672B40F0B0
:10341000D380AB7803F12002A3F14100D2B2192886
:1034200098BF1346652B40F0C7800020F0BD0028F0
:10343000FCD00829F9D90346A1F10805054413F881
:10344000012B02F12004A2F14106E4B2192E98BF2B
:103450002246642A40F089801A7802F12004A2F101
:103460004106E4B2192E98BF2246752A7DD15A78BA
:1034700002F12004A2F14106E4B2192E98BF2246BF
:10348000612A72D19A7802F12004A2F14106E4B2D5
:10349000192E98BF22466C2A67D1DA7802F12004EF
:1034A000A2F14106E4B2192E98BF2246732A5CD1DC
:1034B0001A7902F12004A2F14106E4B2192E98BF54
:1034C0002246652A51D15A7902F12004A2F141061F
:1034D000E4B2192E98BF22466E2A46D19A7902F19B
:1034E0002004A2F14106E4B2192E98BF2246732AA5
:1034F0003BD1DA7902F12004A2F14106E4B2192E9F
:1035000098BF2246652A30D10120F0BDCAEB0020C9
:10351000DC9D0020522E0020002887D00D2984D960
:1035200000F10D064718DFF8BCC0A6F10E0E9CF89E
:1035300000201EF8013F02F1200103F12000A3F159
:103540004105C0B2A2F14104C9B2192D98BF03468A
:10355000192C98BF0A469A420CF1010C30D17645DD
:10356000E5D1D1E71D4B1B78A5E69D427FF467AFFF
:1035700012297FF65AAF00F1120E4718184CAEF11F
:103580001305227815F8013F02F1200103F1200014
:10359000A3F1410CC0B2A2F14106C9B2BCF1190FAE
:1035A00098BF0346192E98BF0A469A4204F10104B7
:1035B0000ED1AE45E5D1A7E7A9427FF405AFA3E759
:1035C0000136B742AFD130E79E427FF485AE2CE79B
:1035D0000EF1010E7745D1D127E700BF522E002012
:1035E0008C0706107C0706104B4B1B78002B4CD029
:1035F0004A4B1B78002B48D0494B1B78002B44D1F9
:10360000484B1B78002B40D1474B1B88002B3CD1EB
:10361000464A10B5D2E9003213430ED004F096FCAE
:10362000002967D1424BA3FB0030800900233F4AA9
:10363000D2E900128842934126D3082016F054FFA5
:103640003C4B1A6810BB9FED327B384981ED007B03
:10365000EFF3108172B6D2E8CFEF5FF0010CBEF14C
:10366000000FF8D1C2E84ECFBEF1000FF3D1BFF387
:103670005F8F0122304C5960E270294C1B68227028
:10368000C3E88F0F81F3108810BD70474FF0010C15
:103690002A4981F800C0EFF3108172B6D2E8CF4F0B
:1036A0005FF0010E002CF9D1C2E844EF002CF5D1F7
:1036B000BFF35F8FD3F800E059601F4B1A6D83F89A
:1036C00048C0624483F849001A650023CEE88F3F62
:1036D00081F3108804F03AFC91B9154BA3FB00303C
:1036E00080090023114A10F57A7043F1000310603D
:1036F000536010BD4FF47A7200235CF029FE95E709
:103700004FF47A7200235CF023FEEAE7AFF3008007
:103710000000000000000000D0EB0020C9EB0020FA
:10372000CCEB0020D1EB00208EEB002028360020CF
:10373000D34D6210DC9D0020602E0020D3EB0020D2
:103740006E4B1B78002B40F0A3802DE9F0416C4BB1
:1037500088461C78064682B07CB96A4F3B687BB1CC
:10376000694D02E03B689C420AD22946304610F07F
:103770003BFB013406350028F4D1644F3B781BB184
:10378000002002B0BDE8F081614D2B78002B40F0A5
:10379000AC80604C2368EFF3108272B6D3E8CF0F91
:1037A00001210028FAD1C3E8401F0028F6D1BFF359
:1037B0005F8F00232B70584D21686260EB70C1E869
:1037C0008F3F82F31088554A30681380B288544E78
:1037D00000903370ADF804202368EFF3108272B6C6
:1037E000D3E8CF0F01210028FAD1C3E8401F0028F9
:1037F000F6D1BFF35F8FEB6C62600133EB64B8F11D
:10380000000F02D06B6D01336B6500232168C1E8A6
:103810008F3F82F3108801216846404A1CF05EFA0F
:103820000023002836D1002000213E4BC3E90001CF
:1038300004F08CFB00295BD04FF47A7200235CF01B
:1038400087FD42F21073384AC0184FF00003106031
:103850004FF0010043EB0306216838705660EFF328
:10386000108272B6D1E8CF7F0126002FFAD1C1E8CD
:10387000476F002FF6D1BFF35F8F21686260287118
:103880002870C1E88F3F82F3108802B0BDE8F08154
:1038900000207047012232702268EFF3108172B667
:1038A000D2E8CF7F0126002FFAD1C2E8476F002F60
:1038B000F6D1BFF35F8F022285F848202A6D85F884
:1038C00049000132206861602A65C0E88F3F81F3BA
:1038D00010880B49154A0978C2E900339360002922
:1038E0003FF44EAFFFF780FE4AE716F01BFE50E7AD
:1038F0000F4BA3FB00308009A3E700BFCBEB0020F8
:10390000D0EB002070A1002058A10020D1EB0020B6
:10391000CCEB0020DC9D0020602E00208EEB0020F0
:10392000D3EB00201036002018360020D09D002058
:10393000D34D62102DE9F0410022002300255249A9
:103940005248534E534FC0E90023C6E900230D707F
:10395000FFF7C2FA3B68EFF3108272B6D3E8CF0FDD
:1039600001210028FAD1C3E8401F0028F6D1BFF397
:103970005F8F494B494CDFF83C811D807A60D4E968
:1039800000321343A8F8045088F806501BD188F879
:103990000250042388F800303A680023C2E88F3FC1
:1039A0007A6882F310883E4A3E49C2E90033936048
:1039B0000B70D4E90032134328D13B4B1B78002B0A
:1039C00046D0BDE8F08104F0C1FAB1BB374BA3FB90
:1039D000003080090021236862689842914134BF19
:1039E00001210021134388F80210D2D004F0AEFA6E
:1039F00049B34FF47A7200235CF0AAFCD4E90012B8
:103A0000002388429341C4D20223C3E704F09EFA04
:103A100069B9264BA3FB003080090023D4E90012CA
:103A200088429341C9D2BDE8F041FFF7DDBD4FF4B4
:103A30007A7200235CF08CFCEFE74FF47A7200237B
:103A40005CF086FCC6E7194BA3FB00308009D5E784
:103A5000174B1B689BB104F079FA51B9134BA3FBC8
:103A6000003080090023FA3043F1000330607360B6
:103A7000A7E74FF47A7200235CF06AFCF2E70022B9
:103A80000023C6E900239CE7D1EB00201836002074
:103A900010360020DC9D00208EEB00203836002000
:103AA000D09D0020D3EB0020CBEB0020D34D621043
:103AB00070A10020602E002008B5104B1A7802B1CA
:103AC00008BD0F4803F05EFD01220C4B0D491A7032
:103AD0000A8017F0B5FE4FF400610B481CF078F82F
:103AE0000A481CF095F80A48084B436012F08AF81F
:103AF000BDE80840012016F09BB900BFCAEB0020CA
:103B0000DC9D0020602E00207CA1002029410010B7
:103B100074A10020D0ED017AB0EE677ABEEECC7AC7
:103B200038B5444BC27A197817EE103AB3F5807F56
:103B3000B8BF4FF48073B3F5007FA8BF4FF4007394
:103B4000002957D0002A2ED04FF0000E3A4AD2F862
:103B500000C0EFF3108172B6DCE8CF5F0124002DC6
:103B6000FAD1CCE8454F002DF6D1BFF35F8FDFF8D7
:103B7000F0C05160ACF8003090F80EC02F4B1268C6
:103B800083F800C090F815C02D4BC07A83F800C0B0
:103B90002C4B18700023C2E88F3F81F31088BEF1D0
:103BA000000F04D138BD284A92F800E0CEE7264A3B
:103BB000137004F0CBF951BB244BA3FB00308009F8
:103BC0000023234A2349C2E9000309681E4A1370EF
:103BD00049B3214A136004F0B9F9F1B91B4BA3FBB7
:103BE0000030800900231D4AFA3043F100031060C1
:103BF000536038BD1A49DFF844C00B80837B1049FD
:103C0000407D8CF800300F4B08701A7038BD4FF4AF
:103C10007A7200235CF09CFBD2E74FF47A720023A7
:103C20005CF096FBDEE7002000210C4BC3E90001AD
:103C300038BD00BFCAEB0020DC9D0020522E0020C2
:103C4000CDEB0020CFEB0020CBEB0020D34D62105A
:103C50000036002070A1002014A1002010360020A2
:103C6000542E002070B540F6B734531E9BB2A342C9
:103C700092B003D90024204612B070BD334B1B789C
:103C8000002B60D0324B1C68EFF3108C72B6D4E876
:103C9000CF5F5FF0010E002DF9D1C4E845EF002D94
:103CA000F5D1BFF35F8FD3F800E0C3F804C0294B10
:103CB0001C880023CEE88F3F8CF3108805460191C5
:103CC0001646002138220DF10F005CF07DFB019BB0
:103CD00004FB05F004FB03F18030000A8031090A7F
:103CE000FF2828BFFF20FF2928BFFF214FF0010533
:103CF0008DF80D008DF80C508DF80E10FFF7C0F800
:103D000004460028B6D0144B1B68002BB2DA03A877
:103D1000FFF722FA114B1D7004F018F969B9104B26
:103D2000A3FB003080090F4930184FF000020860F3
:103D3000204652414A6012B070BD4FF47A7200239F
:103D40005CF006FBEFE7034B1C88B7E7CAEB0020EB
:103D5000DC9D0020542E0020582E0020D2EB0020A5
:103D6000D34D62102036002070B592B006460D4645
:103D7000144600213B2203A801935CF025FB019B24
:103D8000224A03F01F038DF81430012311688DF8C7
:103D900010608DF811508DF812408DF80F308DF8AD
:103DA0001330EFF3108372B6D1E8CFCF0120BCF10E
:103DB000000FF9D1C1E84C0FBCF1000FF4D1BFF3F3
:103DC0005F8F134811680088536010B11148427921
:103DD00042B90022C1E88F2F83F3108800221046D9
:103DE00012B070BD00780328F3D10020C1E88F0F16
:103DF00083F31088084B1B688342EFDA03A8019213
:103E0000FFF7AAF9019A104612B070BDDC9D0020A0
:103E10008EEB0020602E0020582E002010B592B0AE
:103E200004463B22002103A85CF0CEFA01221D4B80
:103E30008DF8164019688DF81520EFF3108272B6D0
:103E4000D1E8CFCF0120BCF1000FF9D1C1E84C0F70
:103E5000BCF1000FF4D1BFF35F8F134819680088DD
:103E60005A6010B11148437943B90023C1E88F3F2C
:103E700082F310880023184612B010BD0078032882
:103E8000F3D10020C1E88F0F82F31088084A12682E
:103E90008242EFDA03A80193FFF75EF9019B18460F
:103EA00012B010BDDC9D00208EEB0020602E0020A3
:103EB000582E002008B12F2902D000231846704741
:103EC00000230122844630B593B0CDE90333059336
:103ED00006AC8DF8172000F12005A646DCF800009E
:103EE000DCF80410DCF80820DCF80C300CF1100CC5
:103EF000AC45AEE80F0004F11004EED1DCF8082068
:103F0000DCF80000DCF80410AEE80700BCF80C3068
:103F1000AEF800301D4B9CF80E201B788EF8022066
:103F2000002B30D01A4B1968EFF3108272B6D1E82B
:103F3000CFCF0120BCF1000FF9D1C1E84C0FBCF18B
:103F4000000FF4D1BFF35F8F124918685A600978E7
:103F50000023C0E88F3F82F3108806A802F010FD0E
:103F6000FEF78EFF58B10C4A1268002A07DA01905A
:103F700003A8FFF7F1F8019B184613B030BD0023EA
:103F8000184613B030BD034B1978E6E7CAEB0020A2
:103F9000DC9D0020CDEB0020582E0020F0B583B032
:103FA0000D46044602F0EEFDC1B211B1002003B08F
:103FB000F0BD0191FEF764FF0028F7D02F4B1B687E
:103FC000002BF3DA2E4B2F481B684FF4C772002BDF
:103FD0000CBF4FF4CC730023019918440CBF012689
:103FE00000261F465CF0F0F9012D03462A463FDD0E
:103FF00021465CF0CDF90346234C03F10D0CA64697
:104000000CF1100CBEE80F004CF8043C1F4B1034B0
:104010009E454CF8100C4CF80C1C4CF8082CEED1BA
:104020004FF4CC73174A03FB0623BEE80700CCF815
:104030000000CCF80410CCF808209EF80220BEF84E
:1040400000108CF80E204FF03602ACF80C1083F8FC
:104050008E214FF00102C3F89051084D83F894214E
:104060002E60FEF7C5FF2868801B18BF01209EE761
:10407000C2D122780349CA55BEE700BF582E00209E
:104080005C2E0020E49D002018A1002048A1002003
:104090002DE9F0411F4C05462368EFF3108672B6F8
:1040A000D3E8CF1F01220029FAD1C3E8412F00290C
:1040B000F6D1BFF35F8F5822174966605CF04CF968
:1040C000164B2268D3E900100023C2E88F3F86F325
:1040D00010886B7A23B151EA000304D100236B727C
:1040E0002846BDE8F0810F46804603F02FFF61B1FE
:1040F0004FF47A7200235CF02BF9C01B68EB480385
:10410000FB2873F10003E9D2EAE7054BA3FB00307B
:104110008009F2E7DC9D0020602E00200836002098
:10412000D34D621000000000042800D07047002A20
:10413000FCD02DE9F047144612789CB0602A66D076
:1041400010D8162A00F02381332A00F0F980072ABC
:1041500005D1984A1546927A002A40F072811CB027
:10416000BDE8F087DD2A00F0B580EF2A00F09080EE
:10417000DC2AF4D1904B1B78002BF0D08F4B1B78AE
:10418000002BECD18E4B1B78002B00F013858D4B50
:104190001968EFF3108272B6D1E8CFCF0120BCF1DD
:1041A000000FF9D1C1E84C0FBCF1000FF4D1BFF3FF
:1041B0005F8F85495A600E781B680021C3E88F1F06
:1041C00082F31088237C002B40F0F884637E002B60
:1041D00040F02E85774B9B7A002BC0D109212046D9
:1041E0000FF012FE00F4F853B3F5A06FB7D1A01C86
:1041F000062270490FF04CFE237A20466D4C0C21AC
:10420000A3710FF0FBFD012320816381A7E7A47850
:10421000022C00F05681002CA1D1002200236B4912
:104220006B480C706449C0E900230C70634969480D
:104230000C706949C0E900230C8068490C8068490A
:10424000C1E900236749C1E90023FEF745FE594A49
:104250005C4BC2E9004419689460EFF3108272B6B7
:10426000D1E8CFCF0120BCF1000FF9D1C1E84C0F4C
:10427000BCF1000FF4D1BFF35F8F5B4918685A603F
:10428000C1F801400C70C0E88F4F82F3108866E7D8
:10429000A378013B0C2B3FF662AF01A252F823F04A
:1042A0001D4800100D470010774600105F410010B8
:1042B0005F4100105F4100105F4100105F4100103E
:1042C0005F4100105F41001007460010814A001056
:1042D0002D4A00103B4A1368EFF3108172B6D3E801
:1042E000CF4F0120002CFAD1C3E8440F002CF6D1A7
:1042F000BFF35F8F00233D4C3B4851602370126831
:10430000C370C2E88F3F81F310882B4B1B78002BC2
:104310003FF425AF294B1B78002B7FF420AF254AB3
:10432000937A15461BB1D37A002B00F06F840023DB
:10433000C5E90033AB601CB0BDE8F047FFF754B9E6
:10434000A01C234C062206A90FF0A2FDD4E90032DE
:10435000134306AF40F0A380254C2368002B00F0E8
:10436000CB830023234903E02268934280F0C48377
:104370003846CDE900130FF037FD019B009901335A
:1043800006310028F0D1384616F072F9E7E6A01C95
:104390000F4C062206A90FF07BFDD4E9003213432F
:1043A00006AF3DD1124C2368002B00F0A083002300
:1043B000104925E0D09D0020D0EB0020D1EB00205B
:1043C000CAEB0020DC9D0020522E0020C9EB00200B
:1043D00038360020183600208EEB00208CEB0020B1
:1043E0001036002028360020602E0020CCEB002064
:1043F00070A1002058A100202268934280F07783AA
:104400003846CDE900130FF0EFFC019B0099013312
:1044100006310028F0D13846A94916F0E3F89EE6A7
:1044200003F094FD002900F089834FF47A72002391
:104430005BF08EFFD4E90012002388429341B1D291
:10444000E9E706A9E01C062200930FF021FD2946AA
:1044500006A80FF0C9FC00287FF481AEA278BAB993
:10446000009B092B14D9A3F10901034604F1090C9F
:1044700004F1080212F8010F002800F03284013321
:104480008B42F7D16046FEF7F7FE002840F07584B6
:104490000023C5E90033AB60FFF7A6F85FE603F041
:1044A00055FD002900F04F834FF47A7200235BF032
:1044B0004FFFD4E90012002388429341FFF463AF19
:1044C0004AE701240021002300227E487E4D04702B
:1044D0007E48C5E9002301707D48C0E900237D487E
:1044E000C0E900237C48C0E900237C4B197003F02D
:1044F0002DFD002900F033834FF47A7200235BF026
:1045000027FF00237649774A08600120C2E900337B
:1045100093604B6015F0D4FD002015F097FD7248B4
:1045200015F09EFF42F2085015F066FC052015F0CC
:1045300071FC002016F0D0F8032011F00BFF0020D2
:1045400011F010FF694A1068EFF3108172B6D0E8DD
:10455000CFCF0124BCF1000FF9D1C0E84C4FBCF122
:10456000000FF4D1BFF35F8F4FF0010C04241068EB
:1045700051605F4A0023C2F801C01470C0E88F3F49
:1045800081F310885B4A5C4CC2E90033C2E9023314
:10459000C2E90433594A03A823600393136011F05E
:1045A0003DF8002800F0B0820023CDE907330693E0
:1045B0000493ADF80A30ADF81430099306AF2368C0
:1045C000032B00F29E823A460DF10A0304A903A8C8
:1045D00011F030F8002800F0948223687BB10023AA
:1045E000444904A8CDE900130FF0FEFB019B00999C
:1045F000013306310028E2D022689A42F1D804A89B
:10460000FEF7B8FCDBE76379002B3FF4A8AD3C4A2A
:10461000118800293FF4A3AD4FF0010C394C334809
:1046200084F800C00168EFF3108472B6D1E8CFEFD0
:104630005FF0010CBEF1000FF8D1C1E84ECFBEF122
:10464000000FF3D1BFF35F8F4FF0050C2849446092
:1046500081F849300B6D006801330B6581F848C063
:104660000023C0E88F3F84F3108810881CB0BDE899
:10467000F0471BF0B5BB032120460FF0BFFB224BD8
:104680001A88824200F0D0821D4B1B8813B19842D9
:104690007FF465AD06A8FFF7FBFC1A4B9A461B7822
:1046A0004BB99DF81C30002B40F080839DF81830EA
:1046B000012B00F07B831CB0BDE8F047FFF73AB94F
:1046C000A0070610C9EB002038360020D0EB0020F0
:1046D000103600201836002028360020CBEB0020B2
:1046E00000360020D09D002068070610DC9D0020C9
:1046F000602E002058A1002070A1002014A10020ED
:104700008EEB0020D3EB00208CEB00206379002B94
:1047100040F02A8203F01AFC002900F0DD824FF4F9
:104720007A7200235BF014FE01460023DFF864C2B6
:104730008D4ACCF8001020460321CCF804301370C9
:104740000FF05CFB0622844600238849A018A1F8DC
:1047500000C0874C06A906938B800FF099FB226856
:10476000002306AF002A00F06C82824903E0226831
:10477000934280F066823846CDE900130FF034FB97
:10478000019B0099013306310028F0D1002000215F
:10479000794BC3E9000103F0D9FB002900F09682B0
:1047A0004FF47A7200235BF0D3FD8446002342F27B
:1047B0001070724A7249734D734C13701CEB0002F7
:1047C00043EB03000A604860A84629682360EFF3C2
:1047D000108272B6D1E8CF4F0120002CFAD1C1E887
:1047E000440F002CF6D1BFF35F8F6849684C0E462A
:1047F0000B71D4E9001001436A6040F07E82002111
:10480000B3700123D8F80000A6F805103370C0E893
:104810008F1F82F31088FEF75FFBA0E40321204680
:104820000FF0ECFA637B8146002B7FF498AC06A96D
:10483000601D574C069306228B800F460FF028FB15
:10484000D4E90032134340F09E82494C2368002B88
:1048500000F0D2820023474903E02268934280F0AF
:10486000CB823846CDE900130FF0BEFA019B0099C8
:10487000013306310028F0D103F068FB4FF47A725F
:10488000002900F0778200235BF062FD0346414A75
:104890004148136000233449007853600B700028AE
:1048A00040F0A7823748054680460368EFF3108240
:1048B00072B6D3E8CFCF0120BCF1000FF9D1C3E825
:1048C0004C0FBCF1000FF4D1BFF35F8F00233249CE
:1048D0002E4E0B706A602968F370C1E88F3F82F337
:1048E00010882E4A924613702A68EFF3108172B630
:1048F000D2E8CFCF0120BCF1000FF9D1C2E84C0FB4
:10490000BCF1000FF4D1BFF35F8FF26C696001322C
:10491000F2642A68C2E88F3F81F310880121134AAC
:104920002868A2F80090154A1170EFF3108272B651
:10493000D0E8CFEF5FF0010CBEF1000FF8D1C0E876
:104940004ECFBEF1000FF3D1BFF35F8F31716A60BC
:104950002968C1E88F3F82F310882268002A00F09E
:10496000C881044920E000BFCBEB00208EEB002083
:1049700070A1002058A1002010360020D1EB0020AB
:1049800018360020DC9D002014A10020602E00209D
:104990003836002000360020CCEB0020D3EB00207E
:1049A0002268934280F0A5813846CDE900130FF0CC
:1049B0001BFA019B0099013306310028F0D1012137
:1049C00048461BF02BF9002840F0AC8103F0BEFAFA
:1049D0004FF47A72002900F0148200235BF0B8FCD7
:1049E000034642F21071002298485B18036042EBC4
:1049F0000203D8F800104360EFF3108372B6D1E8D9
:104A0000CF4F0120002CFAD1C1E8440F002CF6D181
:104A1000BFF35F8F0120D8F80010C8F80430307061
:104A2000C1E88F2F83F31088FFF799BB6379002BC0
:104A300040F01E81DFF81C82854ED8F80030EFF37D
:104A4000108272B6D3E8CF0F01210028FAD1C3E853
:104A5000401F0028F6D1BFF35F8FC8F804206379A8
:104A60000021B3FA83F35B09D8F800007371C0E842
:104A70008F1F82F310881CB0BDE8F047FEF7B8BA6C
:104A8000052120460FF0BAF900283FF468ABE3791E
:104A9000A12B00F02981312B7FF461ABE11D6D4C1E
:104AA000024606A801F060FEA0462368EFF31082DC
:104AB00072B6D3E8CF0F01210028FAD1C3E8401F16
:104AC0000028F6D1BFF35F8F069B6260002B00F0D9
:104AD0009B815F4A536C013353640023D8F8002054
:104AE000C2E88F3FD8F8043083F31088C3E7384614
:104AF00015F0A4FDFFF733BB384615F0D3FDFFF7E3
:104B00002EBB03A810F0AAFD534B1B7803BB2268F1
:104B1000F2B1524A136003F019FA002900F0D18073
:104B20004FF47A7200235BF013FC00234C4AFA30F6
:104B300043F1000310605360FFF711BB494BA3FB27
:104B40000030800976E4474BA3FB00308009B0E4D5
:104B5000002200234249C1E90023FFF700BB414B7B
:104B6000A3FB00308009CCE401243F48394904709C
:104B70000A68EFF3108072B6D2E8CFCF0124BCF1FF
:104B8000000FF9D1C2E84C4FBCF1000FF4D1BFF3D4
:104B90005F8F04242E4A486082F84930136D0968FB
:104BA0000133136582F848400023C1E88F3F80F34A
:104BB000108880E52D4B1E78FFF704BB132120469B
:104BC0000FF01CF91521054620460FF017F940F2A9
:104BD0004C539D427FF4FAAA002E00F04F81012E23
:104BE00000F0568140F6E643984204D040F6F25376
:104BF00098427FF4EFAA06A9A01C06220FF048F9FC
:104C0000002106A8FEF79CFDFFF7A9BA012312892F
:104C10002846A97942F40042EB7215F0C1FC002845
:104C20003FF49DAAFFF783BB00221A80FFF797BAD3
:104C3000A17E04F11B00FEF71FFB0028DBD1FFF76C
:104C4000C9BA3846FEF796F9A0E500BF183600202D
:104C5000602E0020DC9D0020CBEB002014A1002062
:104C600010360020D34D6210D3EB0020522E0020CE
:104C70000120914D914AA84629681070EFF31082E7
:104C800072B6D1E8CFCF0120BCF1000FF9D1C1E855
:104C90004C0FBCF1000FF4D1BFF35F8F88496A60FD
:104CA00081F849300B6D084601330B650E4606212D
:104CB000002380F848102968C1E88F3F82F31088EC
:104CC000BBE6804BA3FB003080092EE77D4BA3FBA6
:104CD00000324FEA921C69E57A4BA3FB003291093E
:104CE00023E51946FFF7CEBB01283FF438AA237A03
:104CF000D1E63846FEF73EF961E603F027F94FF4B6
:104D00007A72002972D000235BF022FB0346002157
:104D1000226893426368D8F80420994134BF012384
:104D200000236CE50122D8F800308AF80020EFF368
:104D3000108272B6D3E8CF4F0121002CFAD1C3E81C
:104D4000441F002CF6D1BFF35F8F0324336DD8F8D6
:104D5000001001333365C8F80420002386F84900A9
:104D600086F84840C1E88F3F82F31088FEF7E2FDE5
:104D7000FFF7F5B9B0FBF2F389E500215248FEF7E1
:104D8000DFFCFFF7ECB903F0E1F84FF47A72002989
:104D900071D000235BF0DCFA0346D4E90001002265
:104DA00083428A41BFF451AD484C65E50122424936
:104DB0008AF800200B68EFF3108072B6D3E8CF4F6B
:104DC0000122002CFAD1C3E8442F002CF6D1BFF306
:104DD0005F8F08243A4B48601A6D096801321A65E2
:104DE000A3F848400022C1E88F2FE0E6B0FBF2F3C1
:104DF0008DE715F097FB55E548461AF035FFFFF7AC
:104E0000AEB9B0FBF2F3ECE503F0A0F84FF47A7220
:104E1000002947D000235BF09BFA034600220320C1
:104E20004FF001059FED227B2949DFF894E00B60EC
:104E3000284B0EF110040DF11C0C8EF800004A6096
:104E40001A70BCE80F000FC4BCE80F000FC49CE848
:104E50000F0007C424F8023B1B0C2370DEF840301F
:104E60008EF806500133CEF840301B4B8EF80850B8
:104E700083ED007B31E6B0FBF2F38EE740F6E643CC
:104E8000C21A5042504100287FF4B5AEFFF7A2B9D4
:104E900040F6F253C31A5842584100287FF4ABAE93
:104EA000FFF798B9B0FBF2F3B8E700BFAFF30080AB
:104EB0000000000000000000DC9D0020D3EB00207B
:104EC000602E0020D34D6210D09D002070A10020E4
:104ED00000360020CBEB00201836002030B5604BA8
:104EE00097B01C7814B15F4B1C7814B9204617B0EA
:104EF00030BD03F02BF8002974D15B4BA3FB0030CD
:104F000080090023594A5A49C2E900030B7003F093
:104F10001DF800296CD000234FF47A725BF018FA68
:104F2000034600225349DFF874C15B18CCF8003007
:104F3000514B4FF00100C3E901221A6042F1000217
:104F40000023CCF8042000224C4D4D4928704D4DD3
:104F5000C1E90023C5E9002315F0B2F8012015F0DE
:104F600075F86846FFF794F84749088840B19DF8FE
:104F700000C0BCF1030F03D09DF80650002D3CD0BB
:104F8000424B434AD3F800C0EFF3108072B6DCE81E
:104F9000CF5F5FF0010E002DF9D1CCE845EF002D79
:104FA000F5D1BFF35F8F4FF0010C82F802C092F889
:104FB00000C05860BCF1030F18BF4FF0020C1B6813
:104FC00018BF82F800C00022C3E88F2F80F310883A
:104FD0000B88002B8AD12F4B1B78002B86D1FEF734
:104FE00003FB83E74FF47A7200235BF0B1F988E7A3
:104FF0001D4BA3FB0030830993E7DFF8A4C0ACF896
:1050000000001AF0EDFE0022002322481E49057020
:1050100021480D80C0E90023FDF75EFF1B4B1A6895
:10502000EFF3108072B6D2E8CFEF5FF0010CBEF163
:10503000000FF8D1C2E84ECFBEF1000FF3D1BFF39D
:105040005F8F4FF0020C124A196858609580957175
:1050500082F800C0C1E88F5F80F310880A4991E7A9
:10506000CAEB0020C9EB0020D34D621000360020AF
:10507000CBEB0020E0930400D09D0020D0EB00207B
:1050800028360020103600208EEB0020DC9D00200A
:10509000602E0020D1EB002018360020383600208A
:1050A0008CEB0020000000008D4B1B7803B970478B
:1050B000F0B58C4C99B02268EFF3108372B6D2E849
:1050C000CF0F01210028FAD1C2E8401F0028F6D1F5
:1050D000BFF35F8F84490022097820686360C0E8CD
:1050E0008F2F83F31088814D2B7873BB11B1804BC8
:1050F0001B88EBB97F4DD5E90032134327D17E4D94
:10510000D5E90032134340F03B817C4DD5E90032B4
:10511000134378D17A4B1B782BB17A4DD5E9003205
:10512000134340F08D8019B0BDE8F040FDF760BF3B
:1051300002A80191FEF7ACFF9DF808300199032BFE
:1051400000F0B3812B78002BD4D019B0F0BD02F061
:10515000FDFE002940F0B4806B4BA3FB00308009BA
:105160000023D5E90012884273EB0202C0F0D6801A
:105170009FED597B654A6649C2E900339360654AF1
:1051800085ED007B13700B78002B40F0578123686E
:10519000EFF3108272B6D3E8CF5F0120002DFAD171
:1051A000C3E8450F002DF6D1BFF35F8F00255A4BA2
:1051B000206862600D70DD70C0E88F5F82F3108838
:1051C000284614F043FF2168EFF3108272B6D1E84D
:1051D000CFCF0120BCF1000FF9D1C1E84C0FBCF1D9
:1051E000000FF4D1BFF35F8F4B4B626019789D7055
:1051F000022904BF0421197000232168C1E88F3FF0
:1052000082F3108881E702F0A1FE002953D04FF409
:105210007A7200235BF09CF8D5E9001200238842E3
:105220009341FFF477AF02A8FEF732FF9DF80E30EE
:10523000002B00F0078100220023C5E9002369E765
:1052400002F084FE002941D12F4BA3FB00308009DE
:10525000D5E9002390424FF0000272EB0303FFF404
:1052600062AF3A2200210DF109005BF0ADF8012395
:1052700022688DF80830EFF3108372B6D2E8CF0FB2
:1052800001210028FAD1C2E8401F0028F6D1BFF35F
:105290005F8F174922680988636031B11E494879D8
:1052A00018B10978032900F037810021C2E88F1F67
:1052B00083F3108837E7144BA3FB00308009ABE77A
:1052C0004FF47A7200235BF043F849E74FF47A72A7
:1052D00000235BF03DF8BBE7000000000000000089
:1052E000CAEB0020DC9D0020CFEB0020CBEB0020A0
:1052F0008EEB0020383600201036002018360020B3
:10530000D2EB002020360020D34D6210D09D00202B
:10531000CCEB0020D0EB0020602E002002F016FE27
:1053200021B34FF47A7200235BF012F8D5E9002123
:10533000002390428B4112D30A433FF4E0AE02F0C7
:1053400005FEC1B14FF47A7200235BF001F8D5E994
:105350000012002388429341BFF4D1AED5E67E4BC4
:105360001B78002BEBD1FEF73FF9CEE67B4BA3FB7E
:1053700000308009DAE7794BA3FB00308009E6E7CB
:1053800002F0E4FD002900F08B804FF47A720023D4
:105390005AF0DEFFD5E90012002388429341FFF462
:1053A000B4AE6D4B1B78002B7FF4AFAE6C4B1B88FB
:1053B000002B7FF4AAAE002000216A4BC5E9000152
:1053C0001B78002B3FF4A1AE674B1B78002B7FF4BA
:1053D0009CAE664B664A1B6812689A4219D96548AA
:1053E00003EB430200EB420150F812005F4E8A8843
:1053F00002900133012102A8ADF80C203360FEF7C2
:105400009FF900287FF481AE594A336812689342AD
:10541000E5D302F09BFD002900F0998000234FF4B2
:105420007A725AF095FF0346002213F5FA632B6057
:105430004E4B1A6042F100026A6066E615F072F89F
:105440004D49A4E6464A118800293FF463AE002086
:105450000021C5E900010125484821680570EFF3E6
:10546000108572B6D1E8CFCF0120BCF1000FF9D181
:10547000C1E84C0FBCF1000FF4D1BFF35F8F0720E0
:105480003F496560A1F84800086D01300865216852
:10549000C1E88F3F85F3108810881AF0A1FC39E627
:1054A0002E4BA3FB0030800974E79DF80E30002BD3
:1054B0003FF448AE334AD2E9003213433FF442AEE0
:1054C0004EF66023A1FB033217461E4602F03EFD56
:1054D000002937D000234FF47A725AF039FF03467F
:1054E00028490A689B1A4A684FF0000162EB4202A1
:1054F000B342BA41FFF426AE0122234C2A70217038
:10550000002500241648214B0088C3E9004519B046
:10551000BDE8F0401AF064BC0021C2E88F1F83F39D
:1055200010881B4B1B688B42BFF6FDAD02A8FDF730
:1055300013FE002200234FF000001349C5E90023A9
:105540000870F0E5054BA3FB00239B09C8E74FF467
:105550007A72B0FBF2F367E7D1EB0020D34D621013
:105560008EEB0020C9EB0020D0EB002014A100201E
:1055700070A1002058A10020CCEB0020D3EB00202C
:10558000602E002000360020D2EB002010360020D4
:10559000582E0020D0E90010884239D04FF0FF3358
:1055A00000B51C4A1944184411F801EF8EEA030EA5
:1055B0004EF300034EF3400C134083EA5E030CEA03
:1055C000020C8CEA530C43F340034CF3400E13409F
:1055D00083EA5C030EEA020E8EEA530E43F34003A5
:1055E0004EF3400C134083EA5E030CEA020C8CEA93
:1055F000530C43F3400313404CF3400E83EA5C0327
:1056000081420EEA020C8CEA5303CDD1D84300BD8F
:10561000002070472083B8ED2DE9F043D1E9023234
:10562000D61A302E054683B007DD0023C0E90033CB
:105630008360284603B0BDE8F08340200F46019305
:1056400004F09CFD3E220446002102305AF0BCFECC
:1056500044F64D4222803A68019BC4F802203A7910
:10566000E671A271002E46D0721E052A40F2A78074
:10567000C3F108022244022A40F2A1801A68C4F849
:105680000920B208012A00F0A5805968022AC4F84E
:105690000D1000F082809968032AC4F811107CD0A4
:1056A000D968042AC4F8151077D01969052AC4F8F6
:1056B000191072D05969062AC4F81D106DD0996965
:1056C000072AC4F8211068D0D969082AC4F825101F
:1056D00063D0196A092AC4F829105ED0596A0A2AC7
:1056E000C4F82D1059D0996A0C2AC4F8311054D13D
:1056F000DB6AC4F8353006F10907384604F03EFD90
:10570000214606463A4681465AF026FE4FF0FF33C0
:1057100006EB070C32499C44F01810F8016F5E400C
:1057200046F3000E0EEA010E46F340038EEA560ED3
:105730000B4083EA5E034EF3400E0EEA010E8EEA42
:10574000530E43F340030B4083EA5E034EF3400ED7
:105750000EEA010E8EEA530E43F340030B4083EA38
:105760005E034EF3400E0EEA010E8EEA530E43F333
:1057700040030B40604583EA5E03CED1DB434846DD
:10578000E351394604F0FEFC284604F14003C5E924
:1057900001332C6003B0BDE8F083B10726F00302AB
:1057A000A9D0985CA1184872501C8642A3D9185CF5
:1057B0000232964288729ED99B5CCB729BE7013B7A
:1057C00004F10802F01813F8011F834202F8011FC8
:1057D000F9D190E71A79052062730422A118E6E74F
:1057E0002083B8ED0346002201202DE9F04182B06C
:1057F000C3E90122C3E903221A605A611871D1E991
:105800000042121B3F2A187204DC1860184602B0CE
:10581000BDE8F081402A05D0052218461A6002B082
:10582000BDE8F08122784D2A05D0022218461A6080
:1058300002B0BDE8F08162784C2AF6D1A278012A44
:1058400002D003221A60E1E7B4F80720302A174695
:1058500002D904221A60D9E7A118887A4A7A0093FB
:1058600042EA0022C87A097B42EA004207F10900B5
:1058700042EA016804F082FC07F10902064621466B
:105880005AF06AFD4FF0FF3207F1090306EB030EF1
:105890003248009B964406EB020C1CF8011F514055
:1058A00041F30002024082EA510241F3400101400B
:1058B00081EA520142F34002024082EA510241F37E
:1058C0004001014081EA520142F34002024082EA73
:1058D000510241F34001014081EA520142F340028A
:1058E000024082EA510241F340010140F44581EA5D
:1058F0005202D2D1304607F10901CDE9002304F06C
:1059000041FC009A019BD243904502D006221A60C6
:105910007CE704F10C0139440A4611F8010F002814
:105920007FF47AAF3E3AA242F6D1E2785A71A28869
:10593000DA80A2791A72002F3FF468AF38460093DC
:1059400004F01CFC06463A4604F109015AF004FD35
:10595000009BF219C3E903625A6157E72083B8ED4F
:1059600010B50446A446DFF818E0BEE80F00ACE826
:105970000F009EE807008CE80700204610BD00BF1E
:105980005851061070B50B780446012B3ED1D1ED6D
:10599000017A9FEDD47AF0EEE76AF4EE476AF1EE11
:1059A00010FA0DD8B7EE007AF4EEC77AF1EE10FADD
:1059B00006D4B0EE007AF4EEC77AF1EE10FA2FDDDD
:1059C00000222120227004F0D9FB20238646DFF834
:1059D00030C300228EF82020C4E90233BCE80F0057
:1059E000C4F804E0CEF80000CEF80410CEF8082089
:1059F000CEF80C30BCE80F00CEF81000CEF8141032
:105A0000CEF81820CEF81C30204670BD0022212090
:105A1000227004F0B3FB20238646DFF8E8C2D8E703
:105A200091F90830002B2DDB91F90930002B29DB8F
:105A30008B7A072B45D8CB7A3C2B63D80B7B022B78
:105A400000F285804B7B103B6F2B00F2A7808B7B95
:105A5000022B00F2CB804B7D0A2B00F2EC80CB7D39
:105A6000173BDBB2E72B40F211810B7E012B00F2DA
:105A70002F8103460121002203F80C1BC0E90132EB
:105A80000273C1E700221920227004F077FB18236B
:105A900086460022DFF870C20276C4E902336060F5
:105AA000BCE80F00CEF80000CEF80410CEF80820B5
:105AB000BCE80300CEF80C30CEF81000CEF814107D
:105AC000A2E700221D20227004F058FB1C2386460A
:105AD0000022DFF838C20277C4E902336060BCE814
