:020000041000EA
:10000000002008205B0100101B0100101D010010E2
:100010001101001011010010110100101101001058
:100020001901001019010010190100101F01001022
:10003000110100101901001021010010230100100E
:100040001101001011010010110100101101001028
:100050001101001011010010110100101101001018
:100060001101001011010010110100101101001008
:1000700011010010110100101101001011010010F8
:1000800011010010110100101101001011010010E8
:1000900011010010110100101101001011010010D8
:1000A00011010010110100101101001011010010C8
:1000B00011010010110100101101001011010010B8
:1000C00011010010110100101101001011010010A8
:1000D0001101001011010010110100101101001098
:1000E0001101001011010010110100101101001088
:1000F0001101001011010010110100101101001078
:100100001101001011010010110100101101001067
:10011000EFF30580103800BE00BE00BE00BE00BE7A
:1001200000BE00BEF2EB887148830A1068830A1093
:100130009C01001090A31AE7D3DEFFFF42012110BB
:10014000FF010000E8B60A00793512AB00201E4915
:10015000086006C881F3088810474FF050400068D7
:1001600008B10020F3E70DA40ECC002902D000F066
:1001700012F8F9E71549164A002000E001C1914242
:10018000FCD114498847144988471449884700BE60
:10019000FDE701C901C29A42FBD3704768830A1088
:1001A00010010020C835002020B80A1000000820E7
:1001B0000000082020B80A100010082000100820B5
:1001C000000000007047000008ED00E0C835002086
:1001D00084E10020B9B10010F9180010B1B100108D
:1001E000704700BF00B5042183B0019009F0FEFB09
:1001F000019803B000BD00BF2DE9F04FF7B00746EE
:10020000369030200C4609F0EDFB00F13005064633
:1002100038602F220021BD6001305EF029FD0223ED
:1002200094F800907D60B9F1030F337000F087827D
:1002300090229946D0235027CDE90632B0234FF0C3
:10024000F00BCDE904377023CDE9023B102388275A
:100250000193C8234822CDE91537A823E827CDE923
:10026000133268232822CDE911379823D827CDE906
:100270000F325823B822CDE90D37F8237827CDE97E
:100280000B323823CDE90937182384220893C4237D
:10029000CDE93432A4234422CDE932326423E4226E
:1002A000CDE9303294232422CDE92E325423D422B6
:1002B000CDE92C32F423B422CDE92A32342374223E
:1002C000CDE928328C231422CDE926324C23CC22CE
:1002D000CDE92432EC23AC22CDE922322C236C224E
:1002E000CDE92032DC239C22CDE91E32BC235C22E6
:1002F000CDE91C327C23FC22CDE91A321C233C229E
:10030000CDE918320423179382237593C223749383
:1003100042237393A2237293E22371936223709317
:1003200022236F9392236E93D2236D9352236C9367
:10033000B2236B93F2236A937223699332236893F7
:10034000122367938A236693CA2365934A2364938F
:10035000AA233B93EA2360936A235B932A233A936D
:100360009A233D93DA2361935A236293BA233C93F1
:10037000FA2358937A235A933A2359931A235F9373
:100380000A235E9386235D93C6235C93462363937F
:10039000A6234093E6233F9366234293262341936B
:1003A00096234493D623439356234693B6234593EB
:1003B000F6234793762339933623489316233893AD
:1003C0008E234993CE2337934E234A93AE234C93E7
:1003D000EE234B936E234E932E234D939E235093E7
:1003E000DE234F935E235293BE235193FE235493F7
:1003F0007E2353933E2356931E2355930E235793E8
:1004000006234FF0800AC02140204FF0A00E4FF08D
:10041000E00C60254FF020084FF0300B08270C222D
:100420003E936379002B75D0DDE96E38DDE9741AEF
:10043000DDE972E0DDE9705C07936D9B86F8019061
:1004400006936C9B05936B9B04936A9B0393699B38
:100450000293DDE9673B0193669B1693659B1593B9
:10046000649B14933B9B1393609B12935B9B119330
:100470003A9B10933D9B0F93619B0E93629B0D9350
:100480003C9B0C93589B0B935A9B0A93599B099343
:100490005F9B0893DDE95D3735935C9B3493639BE9
:1004A0003393409B32933F9B3193429B3093419BCC
:1004B0002F93449B2E93439B2D93469B2C93459BBC
:1004C0002B93479B2A93399B2993489B2893389BCE
:1004D0002793499B2693379B25934A9B24934C9BB8
:1004E00023934B9B22934E9B21934D9B2093509B98
:1004F000579A1F934F9B1E93529B1D93519B1C9386
:10050000549B1B93539B1A93569B1993559B18937B
:100510003E9B1793A379002B36D0DDE92E78DDE9D9
:1005200032E0DDE9305C07972D9F179906972C9FE5
:10053000717005972B9FDDE9341A04972A9F039762
:10054000299F0297DDE9277B0197269F1697259F14
:100550001597249F1497239F1397229F1297219FEB
:100560001197209F10971F9F0F971E9F0E971D9FFB
:100570000D971C9F0C971B9F0B971A9F0A97199F0B
:100580000997189F089717466278B2B1DDE90F28DE
:10059000DDE9151ADDE913E0DDE9115C07920E9A39
:1005A000777006920D9A05920C9A04920B9A039218
:1005B0000A9A0292DDE9082B0192A27842B1DDE9A4
:1005C000061ADDE904E0DDE9025CD846019A7270A2
:1005D000E27822B1F2466146284686F80180227907
:1005E0000AB18A467070E2790AB186F801A0002B40
:1005F00000F09D80D4E90423C6F80630238BC6F8AA
:1006000002207381228F94F83A303282002B40F01E
:100610009280022294F83B1009B11346B27494F808
:100620003C2012B143F00403B37494F83D2012B19E
:1006300043F00803B37494F82C2012B143F0100374
:10064000B37494F8322012B143F02003B374002540
:10065000AE46AC4628462A462946B4F91C30A77E49
:10066000019367F30705019FB4F91EB067F30F25E7
:10067000C7F3072767F317456BF31F65C6F81350D9
:10068000CBF3072565F3070EB4F92050B4F922A087
:1006900065F30F2EC5F3072565F3174ECAF307253B
:1006A00065F3070CB4F92450B4F9269065F30F2CC8
:1006B000C5F30725A36A65F3174C6AF31F6E69F348
:1006C0001F6CC6F817E0C6F81BC04FEA136EB4F8EB
:1006D0002EC06EF30700B4F830806CF30F204FEAA1
:1006E0001C2C6CF31740C9F3072568F31F6065F3F2
:1006F0000702C6F82300A58E4FEA182060F3070111
:10070000E48E65F30F212D0A65F3174164F31F6131
:1007100063F30F22C6F82710190A61F317421B0C66
:10072000240A63F31F6286F82B40C6F81F20369810
:1007300077B0BDE8F08F01230322B3746AE7012389
:10074000D122912773707123CDE906274FF0510B09
:10075000B12202931123CDE9042B8927F1220193C1
:10076000C9230392CDE915374922A923E927CDE909
:10077000133269232922CDE911379923D927CDE9ED
:100780000F325923B922CDE90D37F9237927CDE965
:100790000B323923CDE90937192385220893C52364
:1007A000CDE93432A5234522CDE932326523E52255
:1007B000CDE9303295232522CDE92E325523D5229D
:1007C000CDE92C32F523B522CDE92A323523752225
:1007D000CDE928328D231522CDE926324D23CD22B5
:1007E000CDE92432ED23AD22CDE922322D236D2235
:1007F000CDE92032DD239D22CDE91E32BD235D22CD
:10080000CDE91C327D23FD22CDE91A321D233D2284
:10081000CDE918320523179383237593C32374936B
:1008200043237393A3237293E323719363237093FE
:1008300023236F9393236E93D3236D9353236C934E
:10084000B3236B93F3236A937323699333236893DE
:10085000132367938B236693CB2365934B23649376
:10086000AB233B93EB2360936B235B932B233A9354
:100870009B233D93DB2361935B236293BB233C93D8
:10088000FB2358937B235A933B2359931B235F935A
:100890000B235E9387235D93C7235C934723639366
:1008A000A7234093E7233F93672342932723419352
:1008B00097234493D723439357234693B7234593D2
:1008C000F723479377233993372348931723389394
:1008D0008F234993CF2337934F234A93AF234C93CE
:1008E000EF234B936F234E932F234D939F235093CE
:1008F000DF234F935F235293BF235193FF235493DE
:100900007F2353933F2356931F2355930F235793CE
:1009100007234FF0810AC12141204FF0A10E4FF073
:10092000E10C61254FF021084FF0310B09270D2212
:100930003E9376E5012904D8D2E900031B1A402B27
:1009400001D00020704710B50C46C2B00192FF21C3
:100950004FF4807202A85EF08BF9019B02A8D3E9E4
:100960000012521A5EF074F904F2FB3000034FF4E7
:10097000805101905EF08CF901984FF4807202A9C9
:100980005EF09AF9012042B010BD00BF2DE9F041A0
:100990001F4D07462E6806F00DFF99B34FF47A728B
:1009A00000235EF0B5F9DFF8788006EB46063401E7
:1009B00048F8040038465DF03DFC2822904228BFEC
:1009C0001046631D08EB06160021307103EB08008A
:1009D0005EF04EF9394632795EF03AF90D480E4B29
:1009E0000268511C0C2928BF0C212A6801600132C1
:1009F000A3FB0243DB0803EB4303A2EB83022A6061
:100A0000BDE8F081054BA3FB00308009CBE700BFB8
:100A1000B0380020F4380020ABAAAAAAD34D621047
:100A2000F83800209C46002300B58BB08E46CDE9F7
:100A30000633CDE90833012342F00102ADF8160078
:100A40008DF81520DCE90010421A8DF818E08DF8B9
:100A5000143022D105A902A8089204F011FADDE9A8
:100A60000212521A402A049B08D089B9079818B17B
:100A70000999091A08F0BAFF0BB000BD0E48CDE97C
:100A800000135EF001F9DDE9001301200B4A10703C
:100A90000846591A08F0AAFFE8E7104601910092AB
:100AA00008F0A0FFDDE900215EF0D2F8009A07907F
:100AB00002440992CEE700BFB438002049E100208B
:100AC0006FF07E0310B5447890F802C0803C9C42E1
:100AD000B8BF1C463B4AACF1800C1470C4789C45EE
:100AE000B8BF9C46803C9C42B8BF1C4682F801C0FF
:100AF00090F804C09470ACF1800C44799C45A4F14A
:100B00008004B8BF9C469C42B8BF1C4690F806E0E3
:100B1000C179AEF1800E9E4582F803C001F00F0C42
:100B2000B8BF9E46BCF1070FC1F30013147128BF74
:100B30004FF0070C8C0648BF43F002034C0648BF39
:100B400043F004030906017A48BF43F0080301F0AB
:100B5000010443EA04138C0748BF43F020034C0709
:100B600048BF43F040030C0748BF43F080034C06E6
:100B700048BF43F480730C06417A48BF43F40073C6
:100B8000C80648BF43F480638C0601F0010048BFEB
:100B900043F4006343EA0033880748BF43F400533B
:100BA00049074FF0000148BF43F480430CF1010CAA
:100BB000180A82F805E082F806C0D3711072A2F814
:100BC000091010BD803B00202DE9F041804684B023
:100BD000104616460F465DF02DFB0446D8B130286E
:100BE00028BF3024204608F0FDFE05463146224647
:100BF0000619009002965EF02BF839464046022214
:100C00006B460196FFF70EFF2146284604B0BDE86B
:100C1000F04108F0EBBE9FED087B394640460222CA
:100C20006B468DED007B0294FFF7FCFE04B0BDE83F
:100C3000F08100BFAFF30080000000000000000062
:100C40002DE9F04FD1E900538B46DBF808909D4227
:100C5000A9EB050383B018BF4D603F2BDFF844813B
:100C600074D8DBF80060AC1B04F1004340333F2B29
:100C700040F29080402C2CBF271904F140076FF000
:100C800000439F4228BF1F46384608F0ABFEAE42E5
:100C900082467DD0621E052A33466FD9811B0139F9
:100CA000022902466AD924F0030C4FEA940E06EB9F
:100CB0000C0053F8041B834242F8041BF9D164452D
:100CC00010D01A4612F8011BD44495420AF82E108F
:100CD00008D05A788CF801209A1C95421CBF9B784A
:100CE0008CF8023054442346C6469C4608F1400422
:100CF000019375460CF1100C0FCDA5420EF1100EAC
:100D00004CF8100C4CF80C1C4CF8082C4CF8043C1B
:100D1000EFD1019B03F1400526B13046A9EB060156
:100D200008F064FECBE900A55744CBF808701B4BD4
:100D3000984503D1012003B0BDE8F08FDBF808909F
:100D4000DFF85880A9EB05033F2B8AD9464608F106
:100D50004007344610350FCCBC4206F1100645F86A
:100D6000100C45F80C1C45F8082C45F8043CF0D153
:100D7000DBF804504035CBF80450D8E753465444D0
:100D8000721E12F8011F03F8011B9C42F9D1AAE759
:100D90000346A9E7024853F041FB00BF00C03F10E3
:100DA00070ED051000B03F102DE9F0410446B8B0D9
:100DB000402008F017FE2346024600F1400C079041
:100DC000CDF824C004F140011D685C68D3F808E048
:100DD000D86810338B4215605460C2F808E0D060C8
:100DE00002F11002F0D107A90DA8CDF820C004F03F
:100DF0002DF90D9BBDF83A409DF83C10BBB94B1E38
:100E0000112B00F2FE84DFE813F030004700600091
:100E10008500C20005010A0131012D021E02B9023E
:100E20009F02AF0281029002DB02ED022500204604
:100E3000804AFFF7C9FE109818B11299091A08F0F4
:100E4000D5FD079818B10999091A08F0CFFD38B0F7
:100E5000BDE8F081DDE910239A4200F028831221D9
:100E60002046754AFFF7B0FEE5E7042008F0BAFD1A
:100E70000546724B05F1040C186800222860012118
:100E8000204622ABCDE923CC2295FFF7CBFD0421F0
:100E9000284608F0ABFDCEE70C2008F0A3FD054680
:100EA000674B05F10C0C07CB22AB2860696020462C
:100EB000AA6002210022CDE923CC2295FFF7B2FDE2
:100EC0000C21284608F092FDB5E75E4922A804F0FF
:100ED0005BFB182008F086FD05460DF1880C00F13B
:100EE0001803CDE91B331A90BCE80F002860696035
:100EF000AA60BCE80300EB602861696120469DF8A8
:100F00003C1000221AABFFF78DFD1821284608F08F
:100F10006DFD90E7DFF850C113ADBCE80F000FC5C1
:100F20009CE8070085E8070013AA10A91AA804F096
:100F300077FB9DF86830002B00F0AF83424913AA7D
:100F400022A804F0C7FD9DF88830002B00F0E08354
:100F50003E48FFF71BFD002220469DF83C100AABDF
:100F6000CDE90A220C92FFF75DFD239825AB98424C
:100F700003D02599013108F039FD1B981DAB98422B
:100F80003FF459AF1D99013108F030FD53E72E4D64
:100F9000284604F0C3FD002800F07783281D01F0E7
:100FA000EBFA281D02F0EAF9287D00F033FF284A09
:100FB0002B7F1178003B18BF0123FF29E87E06D064
:100FC000884200F001844FF0000545EC4410214DAB
:100FD000FF2810702B700CD005F0BEFA1C4A4FF0A1
:100FE0000101137841EC4430FF2B02D02A7842EC07
:100FF00040300122184B19481A70FFF7C7FC002235
:1010000020469DF83C1022ABCDE922222492FFF726
:1010100009FD10E70C4804F095FE1148EDE7DDE905
:1010200010239A4200F02282072120460D4AFFF742
:10103000CBFD00E788ED051038EF0510B838061035
:10104000AC3806103C3B0020383B002098ED0510E2
:10105000202E002050E100204BE10020CCED0510B7
:10106000E4ED05108CEF0510D438061022A802F02C
:1010700043FC1AA801F0EEFACB4B1E780AF084FD6F
:101080009DF888309DF88B20A3F10303B3FA83F316
:101090005B099DF88C10059301929DF88A30BDF88C
:1010A0008D2080460A209DF8897002930491039256
:1010B00008F098FC029B05460371059B019AC371D9
:1010C000042342710499039A467080F80280C77025
:1010D00081712B702A811420329E08F083FC2A68CB
:1010E000867202606A680A2142602A890190028140
:1010F000284608F07BFC019B9DF86810320A997421
:101100009DF89110DA72D974339A310C1973310E3B
:101110005973110A9A73D973110C120E19745A74F7
:1011200028201C9E08F05EFC019B05461A68067587
:1011300002605A68142142609A688260DA68C2606C
:101140001A690261184608F051FC00239DF8D0C0CE
:101150001D9985F81CC09DF8D1C0320A85F81DC0C4
:101160004FEA164C85F816C04FEA166C6A7585F87A
:1011700017C0359A4FEA112C297685F819C04FEA25
:10118000114C090EAB77EB77E976369B110A85F89F
:10119000202085F82110110C120E85F823201A0A40
:1011A00085F8243085F825201A0C1B0E85F82210AE
:1011B00085F8262085F82730502085F81AC0379EFC
:1011C00008F010FC3746024680462B4680F828601F
:1011D00005F120011868D3F804E00646D3F808C0EA
:1011E000D86810338B421660C2F804E0C2F808C019
:1011F000D06002F11002EDD119685B6828461160D9
:101200005360282108F0F2FB0821002220463C0C04
:1012100088F82A403C0E27FA01F388F82B4008F1A1
:10122000300488F82930239422ABC8F82C2008F128
:101230005004CDF888802494FFF7F4FB50214046F9
:1012400008F0D4FBF7E5DDE910239B1A042B03D14A
:101250001378522B00F02F820A212046534AFFF7C1
:10126000B3FCE8E5DDE91032D11A012900F31C8254
:101270009A4218BF1D784FF003000ABF00252E4682
:10128000002608F0AFFB012345704FF000054849E8
:101290000370096885708E42C0F07081019006204D
:1012A00008F0A0FB0346019A03211088DD70188026
:1012B000907801939870104608F098FB4FF0000268
:1012C000019B0C209A8008F08DFB4FF0000605462C
:1012D000019BAE711A6818462A609B880621AB8074
:1012E00008F084FB05F10C07EE7105F108060022F9
:1012F0002046092113AB1597CDE91356FFF792FB52
:101300007F1B3946284608F071FB94E5DDE91003A0
:101310001B1A052B03D10378012B00F02E820E211E
:101320002046244AFFF750FC85E5DDE910031B1A2F
:10133000052B03D10378012B00F030820F212046CA
:101340001D4AFFF741FC76E502F0E4FB9DF83C10F6
:10135000002800F094810022204622ABCDE9222211
:101360002492FFF75FFB66E5DDE910239A4248D03F
:101370000D212046114AFFF727FC5CE522A802F068
:10138000BBFA22A91AA8FEF737FF204600220B213C
:101390001AABFFF747FB1A9800283FF44CAD1C9995
:1013A000091A08F023FB46E54BE10020D8EF0510B1
:1013B000F438002020EE051060EE051000EE051058
:1013C000DDE910239B1A022B06D11378012B03D1E0
:1013D0005078012840F2FC8110212046D04AFFF7C6
:1013E000F3FB28E5DDE910031B1A302B03D103784A
:1013F000012B00F0B38111212046CA4AFFF7E4FB1C
:1014000019E522A802F078FA9DF8982008200192A8
:1014100008F0E8FA019A0546A2F131020021012004
:10142000B2FA82F205F10803CDE91B339DF88E3044
:10143000C5F80110520969601A952870002B40F018
:101440005A81AA7040F6B83C9DF89020204643EAA5
:1014500042132B7100220D211AABA5F806C0FFF72D
:10146000E1FA0821284608F0C1FAE4E4AE48FFF7A3
:101470008DFA0122AD4B1A7006F09CF9002900F09C
:1014800042814FF47A7200235DF042FC0022A84DA5
:10149000FA302860204642F10004CDE922229DF86E
:1014A0003C10249222AB6C60FFF7BCFAC3E41AA88C
:1014B00001F0D0F822A802F01FFA01238DF84C3079
:1014C0009DF891309DF868208DF84E309DF8903051
:1014D00004208DF84F308DF84D2008F083FA024635
:1014E0001399082011601C9DCDE9012108F07AFABA
:1014F000034602990160019804211D71019308F0CF
:1015000075FA1020019B2A0A5A7125FA00F22D0E55
:101510009A71DD711D9E08F065FA0546019B067201
:101520001A68082102605A684260184608F05EFA9C
:1015300020464FEA164C259C85F80AC04FEA166CE7
:1015400085F80BC04FEA142C330A2C7385F80DC0B4
:101550004FEA144C240E6B72EC73002212211AAB6A
:1015600085F80EC005F11004CDE91B441A95FFF76C
:1015700059FA1021284608F039FA5CE483706D4B63
:101580006D4A19686D4B0B31A3FB01C5ED0805EBE6
:101590004505A1EB85010C31891BA3FB0153DB0839
:1015A00003EB4303A1EB830303EB43031901039014
:1015B00002EB031306205758CDE9011308F012FA85
:1015C0000546039AC7701088032128809078A87078
:1015D000104608F00BFA3A0A2A713A0C6A710C208C
:1015E00008F000FA06463A0E82712A6880460260C8
:1015F000AA8806218280284608F0F8F9029B06F1A5
:1016000008001A7906F10C07F2710646002A00F06C
:10161000EE800199484B4D1D042A1D4440F2E9809B
:10162000082A114638BF08216FF00043019201F1EA
:1016300008029A4228BF1A461046174608F0D2F907
:10164000D8F8003029460360D8F804300546019ADE
:10165000436008305DF0FCFA019A0C218318404683
:10166000019308F0C3F9019B09211493EB19159319
:101670000022204613AB1395FFF7D4F941E620462C
:101680002F4AFFF7A1FAFFF7D6BB20462D4A9DF857
:101690003C10FFF799FAFFF7CEBB20461B9A9DF846
:1016A0003C10FFF791FA68E409212046264AFFF72B
:1016B0008BFAFFF7C0BB53780132432B7FF4CCADDC
:1016C00012F8013F562B7FF4C7AD5378312B7FF4CE
:1016D000C3AD1E48FFF75AF901221D4B1A7006F0E0
:1016E00069F800296BD04FF47A7200235DF010FB8B
:1016F0000022184DCCE69DF8C2306870E870AA70E0
:1017000043F0DE039EE6144BA3FB00308009BDE6E8
:101710002046239A9DF83C10FFF756FA25E400BFB7
:10172000A0EE0510E8EE0510ACEF05104EE100202C
:10173000E8350020B0380020F8380020ABAAAAAA6B
:1017400058EF0510B0ED051070EF0510C4EF05104F
:101750004AE10020D8350020D34D62102F210130FE
:1017600001F0DCFF9DF83C1000287FF4F4AD20462A
:10177000274AFFF729FAFFF75EBB8178B0F803200C
:10178000407801F0A3FE9DF83C1000287FF4E3AD03
:101790002046204AFFF718FAFFF74DBB81780379FE
:1017A000C278407801F014FF9DF83C1000287FF4C7
:1017B000D2AD2046184AFFF707FAFFF73CBB174B9C
:1017C000A3FB0030800993E7154D10702B7003E4E4
:1017D00000F0010001F056FF9DF83C1000287FF456
:1017E000BAAD20460F4AFFF7EFF9FFF724BB454695
:1017F0007DE5294601925DF02BFA019A4546164493
:1018000075E52046084AFFF7DFF9FFF714BB00BF74
:1018100010EF05103CEE05107CEE0510D34D621064
:1018200050E10020C0EE051000F0051010B5032AAD
:10183000BDF808C001D1022901D0002010BD0F4A17
:1018400010780028FAD0BCF13F0FF6D99C460C4C1A
:10185000A6460CF1100CBEE80F004CF8043C094BF6
:1018600010349E454CF8100C4CF80C1C4CF8082C0D
:10187000EED10023014A4020137010BD49E1002041
:10188000B4380020F4380020022ABDF800C00DD082
:10189000032A0DD101290BD10BB3BCF1410F14D098
:1018A000BCF1400F14D11846FFF77EBA112900D0C1
:1018B0007047002BFCD0BCF1300F14D0BCF12F0FBF
:1018C000F6D12F21184601F029BF1A78012A04D039
:1018D00001210020064AFFF777B90133E3E71846F4
:1018E000044AFFF771B91A78112AE1D10133E8E708
:1018F00044F0051030F005102DE980489C4CA5B04F
:101900000BF0C8FA00F0BCFC204604F00BF8994D2F
:101910002870201D00F030FE201D01F02FFD207DDD
:1019200000F078FA944BE07E1A78237F003B18BFD2
:101930000123FF2A06D0904200F030824FF00001D0
:1019400041EC44208C4AFF2810708C4A029213709C
:101950000DD004F001FE884B4FF001021B7842ECE1
:101960004430FF2B03D0029A127842EC40302B789F
:10197000002B00F011828248FFF708F801250023B0
:101980000822DFF828A27F4FCAF80430CAF80030D6
:10199000CAF807308AF806203D700BF093FA7A4BAC
:1019A0000193002800F000824AF60123002005A9D7
:1019B000ADF814304FF000080BF008F9DFF8F0B183
:1019C000724E00214FF0FF300AF096F900F030FD22
:1019D00002F09EFF0EA801F08FFF9DF83A5025B946
:1019E0009DF83B500DB99DF83C5005F0E3FE0029F1
:1019F00000F0348100234FF47A725DF089F90346D8
:101A00009DF83810019A03291078E27C00F01A81C1
:101A1000002A40F01A81002D00F09D815C49A1FB55
:101A20000313DB0640F16381002840F0B2810BF024
:101A300033FA514B1B78FF2B04D0029A1278554091
:101A400045EC40300EA801F057FF05F0B3FE9DF8BD
:101A50003E3005468946002B40F0D9804D4A11782A
:101A6000002940F07D813B78B3B9D6E9002352EAE2
:101A7000030108D0AA1A69EB0303B2F57A5F73F188
:101A80000003C0F001810823CAE90088CAF8078072
:101A90008AF8063001233B70237C002B00F0CF80B6
:101AA000012B00F0F7800AF06FF8002840F00A815F
:101AB0000EA801F021FF384B1B782BB1374B1E9A33
:101AC0001B689A4200F018810AF05EF830B30020DB
:101AD0000AF07CFE10B30B2301250EA906A8CDE960
:101AE0000953FEF789FB079B06A80C93089B09A9DD
:101AF0000D93069B0B9303F0C3F9DDE906239B1AB4
:101B0000402B57D022B108991046891A07F06EFF72
:101B10000B9818B10D99091A07F068FF05F04AFEF5
:101B200000296FD04FF47A7200235DF0F1F81C4B5E
:101B30001B7833B1DBE90023904278EB030380F09C
:101B40003781184B1A78002A3FF43BAF164AD2E986
:101B50000012884278EB0202FFF433AF83F8008072
:101B60000AF040F8322005F0F9FC0AF045F828E7C1
:101B7000383B00204BE10020202E002050E10020C7
:101B800078F005104FE1002048E10020E03500200A
:101B9000D34D62104DE100204CE100208C3B002031
:101BA0004AE100204EE10020E8350020803B002083
:101BB000D8350020032100200AF024FE069A0028D0
:101BC000A0D07F4B1E991D707E4B19607E4B9DF8F7
:101BD0003E1019707D4B9DF83D1019707C4B9DF89F
:101BE000391019707B4B9DF83A1019707A4B9DF89B
:101BF0003B1019709DF83C10784B19700899002A19
:101C000082D185E7764BA3FB003080098FE7754BC7
:101C10001E9A19688A4226D012A80392FEF750FF36
:101C2000217E039A6F4B002940F0A5801A600123A2
:101C30006D4A3B701370237C002B7FF431AF4FF45F
:101C40007A6129E0002A52D0154600283FF4EFAE11
:101C50000020014600200BF027F9EAE6604BA3FBC9
:101C600000308309CCE63B78002B7FF415AFD6E932
:101C7000002352EA03016AD0AA1A69EB0303B2F502
:101C80007A5F73F1000362D2237C002BD7D0012B43
:101C90007FF40EAF4FF4FA61D6E9002352EA030055
:101CA00007D0AA1A69EB03038A4273F10003FFF419
:101CB000FFAE3B78002B3FF4FBAE09F065FF002838
:101CC0003FF4F6AE00200AF081FD00283FF4F0AEAC
:101CD0000B2310210020454A0AF094FD00283FF410
:101CE000E7AE00233B70424BC3E90059E0E6002811
:101CF0004DD1012005469AE6334B9DF83E201B78D6
:101D00009A427FF4E1AE314B9DF83D201B789A4218
:101D10007FF4DAAE2E4B9DF839201B789A427FF47F
:101D2000D3AE2C4B9DF83A201B789A427FF4CCAE70
:101D3000294B9DF83B201B789A427FF4C5AE274B78
:101D40009DF83C201B789A427FF4BEAEE6E612A8CE
:101D5000FEF7B6FE9EE600283FF469AE284678E717
:101D6000CAE900331370CAF8073008238AF806302E
:101D700001233B7090E609F00FFF039A194B0028EE
:101D80003FF454AF09F010FF164B039A4EE7054697
:101D90005FE7054610465CE71648EDE5164A107009
:101DA000164A02921370D4E51D7001F0B9FAFBE5F2
:101DB0000021134B084683F8008005F039FE00BF70
:101DC0004CE100208C3B002052E1002056E1002035
:101DD00054E1002055E1002051E1002053E10020B2
:101DE000D34D6210903B00204DE10020803B00204D
:101DF000E035002060F00510202E002050E100208A
:101E00004AE100200149024803F07ABD242E002057
:101E1000383B0020014B1870704700BF57E100208D
:101E2000044B05481B78002B0CBF002303230374CD
:101E3000704700BF57E10020282E0020004870475F
:101E400024390610004870470039061030B58DB0AF
:101E500058B940F209434FF4417E264D6B80254925
:101E6000A5F800E008460DB030BD032822D03FD8C9
:101E7000214B53F820100029F4D0084601915CF062
:101E8000D9F92028044628BF202404F1010E4FEA86
:101E90004E0E0199174D4EF4407E0028DFD02846A3
:101EA0004A1E931C5B1A12F801CF9C4220F802CF05
:101EB000F7D8D4E72122002102A85CF0D9FE212125
:101EC00002A809F0B3FB02A85CF0B4F9094D40B1D7
:101ED0002A4602AB1C1813F8011B9C4222F8021F71
:101EE000F9D100F1010E4FEA4E0E4EF4407EB6E7F6
:101EF0000021B7E760380020F03806102DE9F04FD8
:101F0000D44BADF69C0D1D68002D00F09881002685
:101F1000DFF850A34FF4F062002146A85CF0A8FE61
:101F20000AF1020B0DF58D790395CB4B40F2DF12D0
:101F3000A3FB0635731B05EB530540F2FF132D0A77
:101F400005F10108984528BF9846C5EB05143AF9F4
:101F50003800C5EB4414341B80FB04013AF935C04A
:101F6000C4F5EF7701370023C7FB0C015CF0B8FE26
:101F700029F8020C3BF938003BF9353080FB0401AD
:101F800040F2DF12C7FB030100235CF0A9FEB34B54
:101F900006F2FF169E4229F8040BC6D1C824039D01
:101FA00014AE0021224630465CF062FE28464FF413
:101FB000F072334646A9009421F0A8FFA0420546DE
:101FC00000F23D810021402204A85CF051FEA44BA8
:101FD000A4494FF0FF3E4FF0800A1888DFF898C2FE
:101FE000DFF8988201F5805904AF03957DE0002B5E
:101FF00003DA14EB080443F10003240D44EA03342C
:10200000802C4FEA235373F1000300DB7F24B1F9E6
:102010000EB0B1F90620B1F916501BEB02033C706B
:102020004FEAE272B1F91E4042EBEB72EB1842EB61
:10203000E572E31842EBE472B1F92640E51842EB91
:10204000E473B1F92E40621943EBE473B1F9364001
:10205000A21843EBE473B1F93E40A21843EBE473DA
:10206000B1F94640A21843EBE473B1F94E40A2180F
:1020700043EBE473B1F95640A21843EBE473B1F9B2
:102080005E40A21843EBE473B1F96640A21843EB3B
:10209000E473B1F96E40A21843EBE473B1F97640F2
:1020A000A21843EBE473B1F97E40A21843EBE4734A
:1020B000A2FB004200FB0323A4457EEB03026FDA80
:1020C000002B03DA14EB080443F10003240D44EA67
:1020D0000334802C4FEA235373F10003A8BF7F24FD
:1020E000803189457C7060D00237B1F90CB0B1F90C
:1020F0000420B1F91450B1F91C401BEB02034FEA64
:10210000E27242EBEB72EB1842EBE572E31842EB42
:10211000E472B1F92440E31842EBE472B1F92C40C7
:10212000E31842EBE472B1F93440E31842EBE47295
:10213000B1F93C40E31842EBE472B1F94440E318D2
:1021400042EBE472B1F94C40E31842EBE472B1F9AE
:102150005440E31842EBE472B1F95C40E31842EBFF
:10216000E472B1F96440E31842EBE472B1F96C40F7
:10217000E31842EBE472B1F97440E31842EBE47205
:10218000B1F97C40E31842EBE472A3FB004300FB8F
:102190000233A4457EEB0302FFF629AF802436E725
:1021A0008031494587F801A09ED12F4C4FF4C7726A
:1021B00000212046039D5CF05BFD362323703F2306
:1021C0009022237344F2920328482949E27202784C
:1021D000A4F84C300B78A272013202705A1C1B0119
:1021E00004AF0A70637004F14E0EBC460EF1100E7F
:1021F000BCE80F00B44507F110074EF8100C4EF87C
:102200000C1C4EF8082C4EF8043CEED11323012D83
:1022100084F88F5084F88E3016DD2A4631461548F2
:102220005CF016FD4FF4C7710F4804F0DFF8C0B240
:10223000B0FA80F040090DF69C0DBDE8F08F00204B
:102240000DF69C0DBDE8F08F04BF337884F8903014
:10225000E8E700BF9C8B00209B01A31120BE030078
:10226000402E0020A08B0020A09B00205DE10020DC
:102270005AE10020309C00200000F0F7FFFF0F0023
:1022800030B5002483B04FF48042002146485CF012
:10229000EFFC4649464B474D0C604FF480522146B7
:1022A00045482C601C605CF0E3FC9FED3D7B43499E
:1022B00047F6FF730C6042494FF480720C6041494D
:1022C0004FF400700C604049404D0C6040490C6078
:1022D00040490C6040490C6040490C60404981ED28
:1022E000007B40490C7040490C7040490C704049DB
:1022F0000C7040490C7040490C7040490C704049CA
:102300000B8040490B8040490B804049404B0A807C
:102310001A804049404A414B0860147021464FF4EE
:1023200080523F481C705CF0A3FC21464FF4C772FA
:102330003C485CF09DFC40F6010202214BF68030E7
:1023400001AB2C7001941FF069FD374C206008B17F
:10235000019D1DB10023236003B030BD40F6A27182
:10236000324A21F09DFE2A4640F6A671206821F0EF
:1023700097FE052240F6AA71206821F091FE40F6F2
:10238000BA3240F6B871206821F08AFE102240F679
:10239000C471206821F084FE03B030BDAFF300802B
:1023A0000000000000000000943B0020987B00200B
:1023B000309D0020947B00209C7B00203C9D0020D1
:1023C000409D0020489D0020349D00205CE10020BD
:1023D000449D0020389D00204C9D0020509D0020F1
:1023E000F035002058E1002061E1002060E100208C
:1023F0005BE100205EE100205FE1002059E1002068
:10240000482E0020462E0020442E0020422E002080
:10241000402E00203C2E00205AE100205DE10020EB
:10242000A08B0020A09B00209C8B0020007102004C
:10243000F0B5444C97B023780BB917B0F0BD05F058
:10244000B9F9414AD2E90035C01A4FF000033F4ABA
:1024500061EB0501824273EB010169D32378002B04
:10246000EBD03B4B1B68002BE7D0684601F044FAE9
:1024700038490B78002B50D1374E384932680968FB
:102480008A42DAD39DF808100029D6D0DFF8D8C0E8
:102490009E46334C334F0CF6F875A2B12368013ACF
:1024A000591CC1F30A0107EBC303AC45216032603C
:1024B00093E803008CE803001AD00EF1010E0CF132
:1024C000080C002AEAD1AC45CCE9002210D0264BFA
:1024D0000EF1010E03EBCE03CEF5007E03EBCE0E24
:1024E0000EF1080E083343E9022208339E45FAD163
:1024F000FFF704FDF8B10123164A13704FF4C771BA
:102500001A4801F07FF9002897D00021184A136873
:10251000013313600F4B19708FE79DF80830002BC3
:10252000ECD1144A0B70136803F50073136084E751
:10253000237017B0F0BD0F4A136803F500731360E2
:102540007BE700BF58E10020F0350020F049020091
:102550009C8B00205CE10020309D00203C2E002060
:10256000947B0020943B0020A08B0020A09B0020A7
:10257000389D0020449D0020D0ED017AB0EE677AAE
:10258000BEEECC7A2DE9F041C27C284BDFF8BCC00E
:102590001A70027A90F809E0C2EBC232ACFB021565
:1025A000CEEBCE3EACFB0E1C521B437B05EB520226
:1025B0001F4D9209AEEB0C0E102B2A800CEB5E0C1B
:1025C0001C4A38BF10234FEA9C1CA2F800C017EE2B
:1025D000102A7F2B28BF7F23B2F5807FB8BF4FF42E
:1025E0008072B2F5007FA8BF4FF40072857A12495D
:1025F00008356D01103B0D80104E857CDFF8508052
:10260000807D03EB43035B023070A8FB03015B1A80
:1026100001EB53010A4F0B4C0B4B890901F500717B
:102620003D7021601A80BDE8F08100BF5EE10020AE
:10263000462E0020442E0020422E002059E100208A
:102640005FE100203C2E0020402E002011080402F3
:10265000890B3527DFF880C01649174B174A9CF8BD
:1026600000C009781B78127880F800C04170837030
:102670000AB9134B1A78134BC2701B68DFF85CC0A1
:10268000003B18BF01231049104ADCF800C009685C
:102690001268C0F808C0C0E90312DFF844C00C4952
:1026A0000C4ADCF800C009681268C0E905C1C261C3
:1026B0000371704761E1002060E100205BE10020D0
:1026C0005EE100209C8B0020449D0020309D002076
:1026D0004C9D0020509D002058E10020349D00209A
:1026E000389D0020124B1968EFF3108272B6D1E8C2
:1026F000CFCF0120BCF1000FF9D1C1E84C0FBCF1E4
:10270000000FF4D1BFF35F8F0A495A60088840B1C7
:102710000949487928B10878A0F10300B0FA80F09F
:10272000400900211B68C3E88F1F82F3108870479F
:10273000609D002026E10020582E002038B54FF47F
:102740004C7200211A485CF093FA4FF0FF300023DE
:1027500000220021174C184D20602860174C1848A3
:10276000C4E900230170174C1748C4E90023C0E9ED
:1027700000233F2215485CF07BFA154B1868EFF3F5
:10278000108272B6D0E8CF5F0124002DFAD1C0E8E4
:10279000454F002DF6D1BFF35F8F00210D485A60E1
:1027A00001811B68C160C3E88F1F82F3108838BDA8
:1027B000689D0020542E0020502E00202836002036
:1027C0006BE1002018360020003600209CA000207D
:1027D000609D0020582E00201A4A1368032B24D92C
:1027E0000268194BC3F812208288DA82174B1968E5
:1027F000EFF3108272B6D1E8CFCF0120BCF1000F09
:10280000F9D1C1E84C0FBCF1000FF4D1BFF35F8FD9
:102810004FF0010C0E485A6000211B6880F807C079
:10282000C3E88F1F82F31088704703EB430C01331A
:1028300005491360036841F81C30838801EB4C01A3
:102840008B80D3E7F4A00020DCA00020609D002056
:10285000582E00202DE9F0414F4D2C68002C5BDBF9
:10286000FFF740FF002857D04C4E3368002B5BDB4E
:1028700004F0A0FF002951D1494BA3FB003080098F
:102880000021484BD3E90042A04271EB020243D33E
:102890004FF4CC744FF0FF303268434F306004FB8C
:1028A0000272002082F894110021C3E900012C6813
:1028B0004FF4CC7808FB04F23C4BB9181888D1F8D7
:1028C00090310132013B91F88E113A449BB21CF0D9
:1028D00031FD08BB336834608342A4BF08FB037337
:1028E00083F894014FF0FF332B6004F063FFE9B1EC
:1028F0004FF47A7200235CF00BFA4FF4CC73002291
:1029000003FB047393F88E310430264942F1000230
:10291000362B08604A600ED0BDE8F0814FF47A7221
:1029200000235CF0F5F9ABE71F4FC1E71C4BA3FB9D
:1029300000308009E1E71E4C2368EFF3108272B685
:10294000D3E8CF0F01210028FAD1C3E8401F0028A7
:10295000F6D1BFF35F8F40F20111164B6260DA6867
:1029600019810132DA6004F025FF79B14FF47A72EF
:1029700000235CF0CDF900230F4A2168C2E900036F
:10298000C1E88F3F636883F31088C5E7044BA3FB5E
:1029900000308009EFE700BF502E0020542E0020A9
:1029A000D34D621028360020689D002026E10020CB
:1029B000609D0020582E0020003600203F4BF0B5CF
:1029C0001B680021002B0CBF4FF4CC750025064678
:1029D0003B4C95B04FF4C77205EB040014BF0F4693
:1029E00001275CF045F9374B68461A78511C19707D
:1029F00002F00F02314603F065FB4E2269462819AA
:102A00005CF026F94FF4CC73312001214E2203FBF8
:102A100007432D4D83F88E012F60C3F8902183F872
:102A2000941104F0C7FE00293ED04FF47A720023BF
:102A30005CF06EF90023254A254CF17A1060536052
:102A4000237039B12F22012A06F10C0131DD214812
:102A50005CF01AF93378EBB11E4D0DF103040DF162
:102A60003306AC4620686168A268E3681034B4425B
:102A7000ACE80F0005F11005F3D120686168A26889
:102A8000A689A37B07C52E80AB70FFF7E3FE01206C
:102A900015B0F0BDF378002BDED1F379002BDBD13C
:102AA000737A002BF1D0D7E70B4BA3FB00308009E2
:102AB000C0E7CFD1074B327B1A70CBE7542E0020F2
:102AC000689D002067E10020502E0020F83500208E
:102AD00064E100209CA00020D34D6210A44BF0B50F
:102AE0001B78002B00F07081A24A1368EFF310846A
:102AF00072B6D3E8CF6F0125002EFAD1C3E8465F46
:102B0000002EF6D1BFF35F8F9B4B156854601B7886
:102B10000022C5E88F2F84F31088012B00F02E814E
:102B2000002B40F0B680002800F0B280082940F267
:102B3000AE8005460346A1F10806064413F8012BB2
:102B400002F12004A2F1410CE4B2BCF1190F98BFCC
:102B50002246642A40F06A811A7802F12004A2F128
:102B6000410CE4B2BCF1190F98BF2246752A40F01F
:102B70005D815A7802F12004A2F1410CE4B2BCF16B
:102B8000190F98BF2246612A40F050819A7802F1CD
:102B90002004A2F1410CE4B2BCF1190F98BF224607
:102BA0006C2A40F04381DA7802F12004A2F1410C52
:102BB000E4B2BCF1190F98BF2246732A40F0368167
:102BC0001A7902F12004A2F1410CE4B2BCF1190F10
:102BD00098BF2246652A40F029815A7902F12004E3
:102BE000E4B2A2F1410CBCF1190F98BF22466E2A43
:102BF00040F01C819A7902F12004E4B2A2F1410C68
:102C0000BCF1190F98BF2246732A40F00F81DA7980
:102C100002F12004E4B2A2F1410CBCF1190F98BFFB
:102C20002246652A40F002810339014415F8013B30
:102C300003F12002A3F14100D2B2192898BF134634
:102C4000652B40F0EB802B7803F12002A3F14100CB
:102C5000D2B2192898BF1346642B40F0DF806B78FE
:102C600003F12002A3F14100D2B2192898BF134604
:102C7000672B40F0D380AB7803F12002A3F1410031
:102C8000D2B2192898BF1346652B40F0C7800020A8
:102C9000F0BD0028FCD00829F9D90346A1F10805A8
:102CA000054413F8012B02F12004A2F14106E4B21D
:102CB000192E98BF2246642A40F089801A7802F1C2
:102CC0002004A2F14106E4B2192E98BF2246752ACB
:102CD0007DD15A7802F12004A2F14106E4B2192E06
:102CE00098BF2246612A72D19A7802F12004A2F19B
:102CF0004106E4B2192E98BF22466C2A67D1DA78D1
:102D000002F12004A2F14106E4B2192E98BF224636
:102D1000732A5CD11A7902F12004A2F14106E4B2CF
:102D2000192E98BF2246652A51D15A7902F1200402
:102D3000A2F14106E4B2192E98BF22466E2A46D16E
:102D40009A7902F12004A2F14106E4B2192E98BF4B
:102D50002246732A3BD1DA7902F12004A2F141061E
:102D6000E4B2192E98BF2246652A30D10120F0BD69
:102D700063E10020609D00204A2E0020002887D0BB
:102D80000D2984D900F10D064718DFF8BCC0A6F163
:102D90000E0E9CF800201EF8013F02F1200103F105
:102DA0002000A3F14105C0B2A2F14104C9B2192D1E
:102DB00098BF0346192C98BF0A469A420CF1010CA1
:102DC00030D17645E5D1D1E71D4B1B78A5E69D4274
:102DD0007FF467AF12297FF65AAF00F1120E471841
:102DE000184CAEF11305227815F8013F02F12001CD
:102DF00003F12000A3F1410CC0B2A2F14106C9B217
:102E0000BCF1190F98BF0346192E98BF0A469A4283
:102E100004F101040ED1AE45E5D1A7E7A9427FF444
:102E200005AFA3E70136B742AFD130E79E427FF44A
:102E300085AE2CE70EF1010E7745D1D127E700BF13
:102E40004A2E0020C4F00510B4F005100000000068
:102E50004B4B1B78002B4CD04A4B1B78002B48D097
:102E6000494B1B78002B44D1484B1B78002B40D199
:102E7000474B1B88002B3CD1464A10B5D2E90032A3
:102E800013430ED004F096FC002967D1424BA3FBFC
:102E90000030800900233F4AD2E900128842934162
:102EA00026D3082015F0BCFF3C4B1A6810BB9FEDE1
:102EB000327B384981ED007BEFF3108172B6D2E8A6
:102EC000CFEF5FF0010CBEF1000FF8D1C2E84ECF9A
:102ED000BEF1000FF3D1BFF35F8F0122304C596078
:102EE000E270294C1B682270C3E88F0F81F31088B1
:102EF00010BD70474FF0010C2A4981F800C0EFF374
:102F0000108172B6D2E8CF4F5FF0010E002CF9D1DC
:102F1000C2E844EF002CF5D1BFF35F8FD3F800E097
:102F200059601F4B1A6D83F848C0624483F849000A
:102F30001A650023CEE88F3F81F3108804F03AFC35
:102F400091B9154BA3FB003080090023114A10F5FD
:102F50007A7043F100031060536010BD4FF47A7231
:102F600000235BF0D5FE95E74FF47A7200235BF007
:102F7000CFFEEAE7AFF30080000000000000000091
:102F800069E1002062E1002065E100206AE10020A3
:102F900026E1002020360020D34D6210609D0020E5
:102FA000582E00206CE100206E4B1B78002B40F067
:102FB000A3802DE9F0416C4B88461C78064682B010
:102FC0007CB96A4F3B687BB1694D02E03B689C422B
:102FD0000AD2294630460FF0A3FB013406350028FB
:102FE000F4D1644F3B781BB1002002B0BDE8F08102
:102FF000614D2B78002B40F0AC80604C2368EFF3E0
:10300000108272B6D3E8CF0F01210028FAD1C3E8AD
:10301000401F0028F6D1BFF35F8F00232B70584D5F
:1030200021686260EB70C1E88F3F82F31088554AD7
:1030300030681380B288544E00903370ADF804208D
:103040002368EFF3108272B6D3E8CF0F0121002876
:10305000FAD1C3E8401F0028F6D1BFF35F8FEB6CB5
:1030600062600133EB64B8F1000F02D06B6D013385
:103070006B6500232168C1E88F3F82F3108801212E
:103080006846404A1BF0C6FA0023002836D10020CB
:1030900000213E4BC3E9000104F08CFB00295BD00A
:1030A0004FF47A7200235BF033FE42F21073384A19
:1030B000C0184FF0000310604FF0010043EB03060F
:1030C000216838705660EFF3108272B6D1E8CF7F76
:1030D0000126002FFAD1C1E8476F002FF6D1BFF3C8
:1030E0005F8F2168626028712870C1E88F3F82F38A
:1030F000108802B0BDE8F0810020704701223270D4
:103100002268EFF3108172B6D2E8CF7F0126002F3C
:10311000FAD1C2E8476F002FF6D1BFF35F8F0222CA
:1031200085F848202A6D85F84900013220686160E1
:103130002A65C0E88F3F81F310880B49154A09784A
:10314000C2E90033936000293FF44EAFFFF780FEE1
:103150004AE715F083FE50E70F4BA3FB00308009D0
:10316000A3E700BF64E1002069E10020F4A0002093
:10317000DCA000206AE1002065E10020609D0020C5
:10318000582E002026E100206CE1002008360020A7
:1031900010360020549D0020D34D62102DE9F041DF
:1031A00000220023002552495248534E534FC0E994
:1031B0000023C6E900230D70FFF7C0FA3B68EFF368
:1031C000108272B6D3E8CF0F01210028FAD1C3E8EC
:1031D000401F0028F6D1BFF35F8F494B494CDFF801
:1031E0003C811D807A60D4E900321343A8F8045072
:1031F00088F806501BD188F80250042388F8003064
:103200003A680023C2E88F3F7A6882F310883E4A0A
:103210003E49C2E9003393600B70D4E90032134396
:1032200028D13B4B1B78002B46D0BDE8F08104F041
:10323000C1FAB1BB374BA3FB0030800900212368E2
:1032400062689842914134BF01210021134388F8FC
:103250000210D2D004F0AEFA49B34FF47A720023D0
:103260005BF056FDD4E90012002388429341C4D29A
:103270000223C3E704F09EFA69B9264BA3FB003092
:1032800080090023D4E9001288429341C9D2BDE8E5
:10329000F041FFF7DDBD4FF47A7200235BF038FD9B
:1032A000EFE74FF47A7200235BF032FDC6E7194B6B
:1032B000A3FB00308009D5E7174B1B689BB104F0D6
:1032C00079FA51B9134BA3FB003080090023FA307F
:1032D00043F1000330607360A7E74FF47A72002374
:1032E0005BF016FDF2E700220023C6E900239CE70D
:1032F0006AE100201036002008360020609D002082
:1033000026E1002030360020549D00206CE1002092
:1033100064E10020D34D6210F4A00020582E00205C
:1033200008B5104B1A7802B108BD0F4803F05EFDD6
:1033300001220C4B0D491A700A8016F01DFF4FF444
:1033400000610B481BF0E0F80A481BF0FDF80A4842
:10335000084B436011F0F2F8BDE80840012015F079
:1033600003BA00BF63E10020609D0020582E0020BA
:1033700000A10020313B0010F8A00020D0ED017A20
:10338000B0EE677ABEEECC7A38B5444BC27A197883
:1033900017EE103AB3F5807FB8BF4FF48073B3F5E2
:1033A000007FA8BF4FF40073002957D0002A2ED009
:1033B0004FF0000E3A4AD2F800C0EFF3108172B617
:1033C000DCE8CF5F0124002DFAD1CCE8454F002D79
:1033D000F6D1BFF35F8FDFF8F0C05160ACF800307A
:1033E00090F80EC02F4B126883F800C090F815C0FB
:1033F0002D4BC07A83F800C02C4B18700023C2E814
:103400008F3F81F31088BEF1000F04D138BD284AE8
:1034100092F800E0CEE7264A137004F0CBF951BBD6
:10342000244BA3FB003080090023234A2349C2E92F
:10343000000309681E4A137049B3214A136004F05F
:10344000B9F9F1B91B4BA3FB0030800900231D4AD9
:10345000FA3043F100031060536038BD1A49DFF8B9
:1034600044C00B80837B1049407D8CF800300F4BAB
:1034700008701A7038BD4FF47A7200235BF048FC74
:10348000D2E74FF47A7200235BF042FCDEE70020C3
:1034900000210C4BC3E9000138BD00BF63E10020EF
:1034A000609D00204A2E002066E1002068E1002097
:1034B00064E10020D34D6210F8350020F4A0002014
:1034C00098A00020083600204C2E002070B540F651
:1034D000B734531E9BB2A34292B003D900242046B6
:1034E00012B070BD334B1B78002B60D0324B1C6880
:1034F000EFF3108C72B6D4E8CF5F5FF0010E002DB1
:10350000F9D1C4E845EF002DF5D1BFF35F8FD3F8B3
:1035100000E0C3F804C0294B1C880023CEE88F3F8D
:103520008CF31088054601911646002138220DF1D2
:103530000F005BF09DFB019B04FB05F004FB03F116
:103540008030000A8031090AFF2828BFFF20FF29A8
:1035500028BFFF214FF001058DF80D008DF80C50AC
:103560008DF80E10FFF7BEF804460028B6D0144BB5
:103570001B68002BB2DA03A8FFF720FA114B1D706D
:1035800004F018F969B9104BA3FB003080090F490A
:1035900030184FF000020860204652414A6012B0D5
:1035A00070BD4FF47A7200235BF0B2FBEFE7034B80
:1035B0001C88B7E763E10020609D00204C2E0020AE
:1035C000502E00206BE10020D34D621018360020F1
:1035D00070B592B006460D46144600213B2203A862
:1035E00001935BF045FB019B224A03F01F038DF81A
:1035F0001430012311688DF810608DF811508DF88A
:1036000012408DF80F308DF81330EFF3108372B63F
:10361000D1E8CFCF0120BCF1000FF9D1C1E84C0FA8
:10362000BCF1000FF4D1BFF35F8F1348116800881D
:10363000536010B11148427942B90022C1E88F2F7E
:1036400083F310880022104612B070BD0078032862
:10365000F3D10020C1E88F0F83F31088084B1B685B
:103660008342EFDA03A80192FFF7A8F9019A104606
:1036700012B070BD609D002026E10020582E002071
:10368000502E002010B592B004463B22002103A822
:103690005BF0EEFA01221D4B8DF8164019688DF88B
:1036A0001520EFF3108272B6D1E8CFCF0120BCF124
:1036B000000FF9D1C1E84C0FBCF1000FF4D1BFF3FA
:1036C0005F8F1348196800885A6010B11148437918
:1036D00043B90023C1E88F3F82F3108800231846C6
:1036E00012B010BD00780328F3D10020C1E88F0F7D
:1036F00082F31088084A12688242EFDA03A8019325
:10370000FFF75CF9019B184612B010BD609D0020C8
:1037100026E10020582E0020502E002008B12F292D
:1037200002D000231846704700230122844630B59A
:1037300093B0CDE90333059306AC8DF8172000F163
:103740002005A646DCF80000DCF80410DCF80820B0
:10375000DCF80C300CF1100CAC45AEE80F0004F1B5
:103760001004EED1DCF80820DCF80000DCF80410CE
:10377000AEE80700BCF80C30AEF800301D4B9CF8EA
:103780000E201B788EF80220002B30D01A4B1968BF
:10379000EFF3108272B6D1E8CFCF0120BCF1000F59
:1037A000F9D1C1E84C0FBCF1000FF4D1BFF35F8F2A
:1037B000124918685A6009780023C0E88F3F82F3E5
:1037C000108806A802F010FDFEF78CFF58B10C4AD5
:1037D0001268002A07DA019003A8FFF7EFF8019BAF
:1037E000184613B030BD0023184613B030BD034B4C
:1037F0001978E6E763E10020609D002066E1002083
:10380000502E0020F0B583B00D46044602F0EEFDC8
:10381000C1B211B1002003B0F0BD0191FEF762FF0B
:103820000028F7D02F4B1B68002BF3DA2E4B2F48C4
:103830001B684FF4C772002B0CBF4FF4CC730023EE
:10384000019918440CBF012600261F465BF010FAB0
:10385000012D03462A463FDD21465BF015FA03465B
:10386000234C03F10D0CA6460CF1100CBEE80F0022
:103870004CF8043C1F4B10349E454CF8100C4CF88F
:103880000C1C4CF8082CEED14FF4CC73174A03FBF8
:103890000623BEE80700CCF80000CCF80410CCF8F2
:1038A00008209EF80220BEF800108CF80E204FF081
:1038B0003602ACF80C1083F88E214FF00102C3F8E9
:1038C0009051084D83F894212E60FEF7C3FF2868BD
:1038D000801B18BF01209EE7C2D122780349CA5538
:1038E000BEE700BF502E0020542E0020689D00200F
:1038F0009CA00020CCA000202DE9F0411F4C0546E3
:103900002368EFF3108672B6D3E8CF1F0122002997
:10391000FAD1C3E8412F0029F6D1BFF35F8F5822B7
:10392000174966605BF094F9164B2268D3E90010E2
:103930000023C2E88F3F86F310886B7A23B151EAE7
:10394000000304D100236B722846BDE8F0810F46C6
:10395000804603F02FFF61B14FF47A7200235BF0D1
:10396000D7F9C01B68EB4803FB2873F10003E9D2C9
:10397000EAE7054BA3FB00308009F2E7609D0020D9
:10398000582E002000360020D34D621070B596B03E
:1039900003F010FF00296BD04FF47A7200235BF024
:1039A000B7F900234C4A4D49C2E900030B7003F0FC
:1039B00001FF002957D000234FF47A725BF0A8F979
:1039C000034600220120002400254549454E5B188E
:1039D000454930700B60454BC3E900229A6042F1C3
:1039E00000024A60424B434AC3E90045C2E9004530
:1039F00015F002F8012014F0C5FF6846FFF77CFFC0
:103A00003D49088838B19DF80030032B03D09DF85C
:103A10000660002E36D0394B394A1C68EFF310800F
:103A200072B6D4E8CF6F0125002EFAD1C4E8465F04
:103A3000002EF6D1BFF35F8F14780125032C18BF39
:103A400002245860957018BF14701B680022C3E8E8
:103A50008F2F80F310880B8813B92A4B1B7863B122
:103A6000012016B070BD284BA3FB00308309A8E7E6
:103A7000254BA3FB0030800993E7FFF7E9F901200C
:103A800016B070BD214B18801AF046FE1D4B204A1F
:103A90001949C2E900451E700E80FEF74FFE174B14
:103AA0001A68EFF3108072B6D2E8CF5F0124002DC0
:103AB000FAD1C2E8454F002DF6D1BFF35F8F022443
:103AC0000F4A5860147096801C689671C4E88F6F16
:103AD00080F310880849A0E7F835002064E1002051
:103AE000E093040069E1002030360020549D00205E
:103AF000203600200836002026E10020609D0020AE
:103B0000582E00206AE10020D34D621024E10020ED
:103B100010360020044B1B7813B1044B1B780BB9F3
:103B200018467047FFF732BF63E1002062E10020D2
:103B3000042800D07047002AFCD02DE9F047144635
:103B400012789CB0602A66D010D8162A00F0238123
:103B5000332A00F0F980072A05D1984A1546927A4F
:103B6000002A40F072811CB0BDE8F087DD2A00F029
:103B7000B580EF2A00F09080DC2AF4D1904B1B78BE
:103B8000002BF0D08F4B1B78002BECD18E4B1B7889
:103B9000002B00F01F858D4B1968EFF3108272B671
:103BA000D1E8CFCF0120BCF1000FF9D1C1E84C0F13
:103BB000BCF1000FF4D1BFF35F8F85495A600E78D6
:103BC0001B680021C3E88F1F82F31088237C002B21
:103BD00040F00485637E002B40F03A85774B9B7A5A
:103BE000002BC0D1092120460EF0AAFD00F4F853A5
:103BF000B3F5A06FB7D1A01C062270490EF0E4FD0A
:103C0000237A20466D4C0C21A3710EF093FD012305
:103C100020816381A7E7A478022C00F05681002C54
:103C2000A1D1002200236B496B480C706449C0E9A4
:103C300000230C70634969480C706949C0E900238E
:103C40000C8068490C806849C1E900236749C1E9D3
:103C50000023FEF773FD594A5C4BC2E90044196822
:103C60009460EFF3108272B6D1E8CFCF0120BCF19F
:103C7000000FF9D1C1E84C0FBCF1000FF4D1BFF334
:103C80005F8F5B4918685A60C1F801400C70C0E84A
:103C90008F4F82F3108866E7A378013B0C2B3FF629
:103CA00062AF01A252F823F0254200101541001026
:103CB0007F400010673B0010673B0010673B00101F
:103CC000673B0010673B0010673B0010673B00102C
:103CD0000F40001089440010354400103B4A13681F
:103CE000EFF3108172B6D3E8CF4F0120002CFAD148
:103CF000C3E8440F002CF6D1BFF35F8F00233D4C87
:103D00003B48516023701268C370C2E88F3F81F353
:103D100010882B4B1B78002B3FF425AF294B1B78C9
:103D2000002B7FF420AF254A937A15461BB1D37A36
:103D3000002B00F07B840023C5E90033AB601CB08E
:103D4000BDE8F047FFF784B8A01C234C062206A963
:103D50000EF03AFDD4E90032134306AF40F0A380E1
:103D6000254C2368002B00F0CB830023234903E07C
:103D70002268934280F0C4833846CDE900130EF0E8
:103D8000CFFC019B0099013306310028F0D1384661
:103D900015F00AF9E7E6A01C0F4C062206A90EF062
:103DA00013FDD4E90032134306AF3DD1124C236812
:103DB000002B00F0A0830023104925E0549D002033
:103DC00069E100206AE1002063E10020609D00209D
:103DD0004A2E002062E100203036002010360020FC
:103DE00026E1002024E100200836002020360020B3
:103DF000582E002065E10020F4A00020DCA0002067
:103E00002268934280F077833846CDE900130EF0A4
:103E100087FC019B0099013306310028F0D1384618
:103E2000A94915F07BF89EE603F0C4FC002900F0D8
:103E300081834FF47A7200235AF06AFFD4E90012AA
:103E4000002388429341B1D2E9E706A9E01C06228B
:103E500000930EF0B9FC294606A80EF061FC00287C
:103E60007FF481AEA278BAB9009B092B14D9A3F1D3
:103E70000901034604F1090C04F1080212F8010FCC
:103E8000002800F03D8401338B42F7D16046FEF7F5
:103E900025FE002840F05F840023C5E90033AB60B5
:103EA000FEF7D6FF5FE603F085FC002900F04783AC
:103EB0004FF47A7200235AF02BFFD4E9001200234A
:103EC00088429341FFF463AF4AE7002300220120B8
:103ED00000217E4CC4E900237D4C20707D48017098
:103EE0007D48C0E900237D48C0E900237C48C0E943
:103EF00000237C4B197003F05DFC002900F0248343
:103F00004FF47A7200235AF003FF00237649774A70
:103F100008600120C2E9003393604B6014F06CFD2F
:103F2000002014F02FFD724814F036FF42F20850C2
:103F300014F0FEFB052014F009FC002015F068F8D1
:103F4000032010F0A3FE002010F0A8FE694A1068BC
:103F5000EFF3108172B6D0E8CFCF0124BCF1000F8F
:103F6000F9D1C0E84C4FBCF1000FF4D1BFF35F8F23
:103F70004FF0010C0424106851605F4A0023C2F81E
:103F800001C01470C0E88F3F81F310885B4A5C4C1D
:103F9000C2E90033C2E90233C2E90433594A03A833
:103FA0000393236013600FF0D5FF002800F0B08268
:103FB0000023CDE9073306930493ADF80A30ADF83A
:103FC0001430099306AF2368032B00F29E823A4611
:103FD0000DF10A0304A903A80FF0C8FF002800F0A0
:103FE000948223687BB10023444904A8CDE90013DF
:103FF0000EF096FB019B0099013306310028E2D0B8
:1040000022689342F1D304A8FEF7E6FBDBE763796D
:10401000002B3FF4A8AD3C4A118800293FF4A3AD22
:104020004FF0010C394C334884F800C00168EFF3BD
:10403000108472B6D1E8CFEF5FF0010CBEF1000F33
:10404000F8D1C1E84ECFBEF1000FF3D1BFF35F8FBF
:104050004FF0050C2849446081F849300B6D006829
:1040600001330B6581F848C00023C0E88F3F84F31B
:10407000108810881CB0BDE8F0471AF04DBB032132
:1040800020460EF057FB224B1A88824200F0DC8259
:104090001D4B1B8813B198427FF465AD06A8FFF74E
:1040A0002BFC1A4B9A461B784BB99DF81C30002B01
:1040B00040F092839DF81830012B00F08D831CB0E6
:1040C000BDE8F047FFF76AB8D8F005103036002099
:1040D00062E1002069E1002008360020103600204F
:1040E0002036002064E10020F8350020549D002097
:1040F000A0F00510609D0020582E0020DCA00020BC
:10410000F4A0002098A0002026E100206CE100200F
:1041100024E100206379002B40F01B8203F04AFB6E
:10412000002900F0E8824FF47A7200235AF0F0FD83
:1041300001460023DFF864C28D4ACCF80010204607
:104140000321CCF8043013700EF0F4FA06228446F2
:1041500000238849A018A1F800C0874C06A906933F
:104160008B800EF031FB2268002306AF002A00F09E
:104170007882824903E02268934280F07282384656
:10418000CDE900130EF0CCFA019B00990133063102
:104190000028F0D100200021794BC3E9000103F091
:1041A00009FB002900F0A1824FF47A7200235AF033
:1041B000AFFD8446002342F21070724A7249734D7B
:1041C000734C13701CEB000243EB03000A60486061
:1041D000A84629682360EFF3108272B6D1E8CF4F6A
:1041E0000120002CFAD1C1E8440F002CF6D1BFF316
:1041F0005F8F6849684C0E460B71D4E9001001438B
:104200006A6040F089820021B3700123D8F8000071
:10421000A6F805103370C0E88F1F82F31088FEF7F0
:104220008DFAA0E4032120460EF084FA637B8146D8
:10423000002B7FF498AC06A9601D574C069306220C
:104240008B800F460EF0C0FAD4E90032134340F0E1
:10425000B082494C2368002B00F0EA8200234749D2
:1042600003E02268934280F0E3823846CDE90013F0
:104270000EF056FA019B0099013306310028F0D167
:1042800003F098FA4FF47A72002900F0618200235B
:104290005AF03EFD0346414A414813600023344929
:1042A000007853600B70002840F0BC823748054608
:1042B00080460368EFF3108272B6D3E8CFCF0120B7
:1042C000BCF1000FF9D1C3E84C0FBCF1000FF4D1E1
:1042D000BFF35F8F002332492E4E0B706A6029684E
:1042E000F370C1E88F3F82F310882E4A9246137014
:1042F0002A68EFF3108172B6D2E8CFCF0120BCF16B
:10430000000FF9D1C2E84C0FBCF1000FF4D1BFF39C
:104310005F8FF26C69600132F2642A68C2E88F3FF5
:1043200081F310880121134A2868A2F80090154AE9
:104330001170EFF3108272B6D0E8CFEF5FF0010C8E
:10434000BEF1000FF8D1C0E84ECFBEF1000FF3D19F
:10435000BFF35F8F31716A602968C1E88F3F82F3D4
:1043600010882268002A00F0D381044920E000BFB1
:1043700064E1002026E10020F4A00020DCA0002061
:10438000083600206AE1002010360020609D0020E1
:1043900098A00020582E002030360020F83500204C
:1043A00065E100206CE100202268934280F0B0813A
:1043B0003846CDE900130EF0B3F9019B00990133A3
:1043C00006310028F0D1012148461AF0C3F8002830
:1043D00040F0C78103F0EEF94FF47A72002900F043
:1043E000248200235AF094FC034642F2107100220A
:1043F0009E485B18036042EB0203D8F8001043604C
:10440000EFF3108372B6D1E8CF4F0120002CFAD120
:10441000C1E8440F002CF6D1BFF35F8F0120D8F81C
:104420000010C8F804303070C1E88F2F83F3108873
:10443000FFF799BB6379002B40F02E81DFF83482BF
:104440008B4ED8F80030EFF3108272B6D3E8CF0F5E
:1044500001210028FAD1C3E8401F0028F6D1BFF39C
:104460005F8FC8F8042063790021B3FA83F35B09F6
:10447000D8F800007371C0E88F1F82F310881CB059
:10448000BDE8F047FEF7E6B9052120460EF052F9E7
:1044900000283FF468ABE379A12B00F03481312B85
:1044A0007FF461ABE11D734C024606A801F090FD5C
:1044B000A0462368EFF3108272B6D3E8CF0F012134
:1044C0000028FAD1C3E8401F0028F6D1BFF35F8F60
:1044D000069B6260002B00F0B381654A536C013388
:1044E00053640023D8F80020C2E88F3FD8F8043086
:1044F00083F31088C3E7384614F03CFDFFF733BB65
:10450000384614F06BFDFFF72EBB03A80FF042FDF9
:104510002368002B43D1584B1B78002B3FF423AB6F
:10452000564B1B78002B3FF41EAB1CB0BDE8F04788
:10453000FFF72CBA524BA3FB003080097EE4504BAE
:10454000A3FB00308009B8E44D4BA3FB0030800989
:10455000DBE401244B48474904700A68EFF31080FC
:1045600072B6D2E8CFCF0124BCF1000FF9D1C2E876
:104570004C4FBCF1000FF4D1BFF35F8F04243C4AD1
:10458000486082F84930136D09680133136582F879
:1045900048400023C1E88F3F80F310888FE53A4BF5
:1045A0001B78002B40F0CD80384A136003F002F9ED
:1045B0004FF47A72002900F02F8100235AF0A8FBF3
:1045C000034600223249FA3342F100020B604A608E
:1045D000FFF7C9BA2F4B1E78FFF7F8BA1321204610
:1045E0000EF0A8F81521054620460EF0A3F840F27B
:1045F0004C539D427FF4EEAA002E00F05881012E0C
:1046000000F05F8140F6E643984204D040F6F25352
:1046100098427FF4E3AA06A9A01C06220EF0D4F863
:10462000002106A8FEF7C0FCFFF79DBA01231289FE
:104630002846A97942F40042EB7214F04DFC0028A0
:104640003FF491AAFFF777BB00221A80FFF78BBADD
:10465000A17E04F11B00FEF741FA0028DBD1FFF731
:10466000BDBA3846FEF7B8F894E500BF1036002012
:10467000582E0020609D002063E1002062E10020B0
:10468000D34D62106CE1002064E1002098A000206E
:10469000083600204A2E00200120934D934AA84658
:1046A00029681070EFF3108272B6D1E8CFCF0120E5
:1046B000BCF1000FF9D1C1E84C0FBCF1000FF4D1EF
:1046C000BFF35F8F8A496A6081F849300B6D0846F5
:1046D00001330B650E460621002380F84810296837
:1046E000C1E88F3F82F31088ABE6824BA3FB003218
:1046F0004FEA921C5EE57F4BA3FB0032910918E55F
:104700001946FFF7C3BB01283FF42DAA237AC6E65A
:104710003846FEF761F856E603F04CF84FF47A722B
:1047200000297CD000235AF0F3FA034600212268C6
:1047300093426368D8F80420994134BF01230023D1
:1047400061E5002200236C49C1E90023FFF70BBAA1
:10475000B0FBF2F39FE500216848FEF725FCFFF768
:1047600002BA0122D8F800308AF80020EFF3108254
:1047700072B6D3E8CF4F0121002CFAD1C3E8441F11
:10478000002CF6D1BFF35F8F0324336DD8F80010EF
:1047900001333365C8F80420002386F8490086F801
:1047A0004840C1E88F3F82F31088FEF7F7FCFFF71F
:1047B000DAB902F0FFFF4FF47A7200293DD00023EE
:1047C0005AF0A6FA0346D4E90001002283428A4146
:1047D000BFF43FAD4A4C53E5012243498AF800201B
:1047E0000B68EFF3108072B6D3E8CF4F0122002C94
:1047F000FAD1C3E8442F002CF6D1BFF35F8F082411
:104800003B4B48601A6D096801321A65A3F84840AD
:104810000022C1E88F2FBFE6B0FBF2F3D1E6B0FB78
:10482000F2F383E714F01AFB40E5B0FBF2F3DCE5AA
:10483000484619F0B5FEFFF796B9B0FBF2F3C2E7B0
:1048400002F0B8FF4FF47A72002944D000235AF0E6
:104850005FFA0346002203204FF001059FED207B05
:104860002849DFF88CE00B60274B0EF110040DF1A6
:104870001C0C8EF800004A601A70BCE80F000FC4D0
:10488000BCE80F000FC49CE80F0007C424F8023BEB
:104890001B0C2370DEF840308EF806500133CEF842
:1048A00040301A4B8EF8085083ED007B19E640F635
:1048B000E643C21A5042504100287FF4ACAEFFF7E5
:1048C0008DB940F6F253C31A5842584100287FF47C
:1048D000A2AEFFF783B9B0FBF2F3BBE7AFF3008002
:1048E0000000000000000000609D00206CE100203E
:1048F000582E0020D34D621008360020549D002011
:10490000F4A00020F835002064E1002010360020DB
:104910008D4B1B7803B97047F0B58C4C99B0226869
:10492000EFF3108372B6D2E8CF0F01210028FAD13D
:10493000C2E8401F0028F6D1BFF35F8F84490022F0
:10494000097820686360C0E88F2F83F31088814D59
:104950002B7873BB11B1804B1B88EBB97F4DD5E928
:104960000032134327D17E4DD5E90032134340F086
:104970003B817C4DD5E90032134378D17A4B1B78CB
:104980002BB17A4DD5E90032134340F08D8019B038
:10499000BDE8F040FDF75EBF02A80191FEF7ACFF55
:1049A0009DF808300199032B00F0B3812B78002B80
:1049B000D4D019B0F0BD02F0FDFE002940F0B48063
:1049C0006B4BA3FB003080090023D5E9001288421D
:1049D00073EB0202C0F0D6809FED597B654A6649B1
:1049E000C2E900339360654A85ED007B13700B7854
:1049F000002B40F057812368EFF3108272B6D3E8A2
:104A0000CF5F0120002DFAD1C3E8450F002DF6D16C
:104A1000BFF35F8F00255A4B206862600D70DD7018
:104A2000C0E88F5F82F31088284613F0ABFF21683F
:104A3000EFF3108272B6D1E8CFCF0120BCF1000FA6
:104A4000F9D1C1E84C0FBCF1000FF4D1BFF35F8F77
:104A50004B4B626019789D70022904BF04211970C4
:104A600000232168C1E88F3F82F3108881E702F0BC
:104A7000A1FE002953D04FF47A7200235AF048F96E
:104A8000D5E90012002388429341FFF477AF02A8D2
:104A9000FEF732FF9DF80E30002B00F00781002258
:104AA0000023C5E9002369E702F084FE002941D113
:104AB0002F4BA3FB00308009D5E9002390424FF033
:104AC000000272EB0303FFF462AF3A2200210DF102
:104AD00009005AF0CDF8012322688DF80830EFF371
:104AE000108372B6D2E8CF0F01210028FAD1C2E8B4
:104AF000401F0028F6D1BFF35F8F1749226809884D
:104B0000636031B11E49487918B10978032900F072
:104B100037810021C2E88F1F83F3108837E7144BD9
:104B2000A3FB00308009ABE74FF47A7200235AF000
:104B3000EFF849E74FF47A7200235AF0E9F8BBE73F
:104B4000000000000000000063E10020609D0020E4
:104B500068E1002064E1002026E1002030360020DA
:104B600008360020103600206BE1002018360020A7
:104B7000D34D6210549D002065E1002069E10020C2
:104B8000582E002002F016FE21B34FF47A72002353
:104B90005AF0BEF8D5E90021002390428B4112D390
:104BA0000A433FF4E0AE02F005FEC1B14FF47A7261
:104BB00000235AF0ADF8D5E9001200238842934152
:104BC000BFF4D1AED5E67E4B1B78002BEBD1FEF7C0
:104BD0003FF9CEE67B4BA3FB00308009DAE7794B47
:104BE000A3FB00308009E6E702F0E4FD002900F0B5
:104BF0008B804FF47A7200235AF08AF8D5E90012BC
:104C0000002388429341FFF4B4AE6D4B1B78002B18
:104C10007FF4AFAE6C4B1B88002B7FF4AAAE002054
:104C200000216A4BC5E900011B78002B3FF4A1AEBF
:104C3000674B1B78002B7FF49CAE664B664A1B6863
:104C400012689A4219D9654803EB430200EB42010E
:104C500050F812005F4E8A8802900133012102A8A9
:104C6000ADF80C203360FEF79FF900287FF481AE89
:104C7000594A336812689342E5D302F09BFD00293C
:104C800000F0998000234FF47A725AF041F80346FD
:104C9000002213F5FA632B604E4B1A6042F10002BA
:104CA0006A6066E614F0DAF84D49A4E6464A1188CF
:104CB00000293FF463AE00200021C5E90001012571
:104CC000484821680570EFF3108572B6D1E8CFCF60
:104CD0000120BCF1000FF9D1C1E84C0FBCF1000F6D
:104CE000F4D1BFF35F8F07203F496560A1F848000A
:104CF000086D013008652168C1E88F3F85F3108891
:104D0000108819F009FD39E62E4BA3FB003080090D
:104D100074E79DF80E30002B3FF448AE334AD2E9D9
:104D2000003213433FF442AE4EF66023A1FB033240
:104D300017461E4602F03EFD002937D000234FF4EF
:104D40007A7259F0E5FF034628490A689B1A4A68B7
:104D50004FF0000162EB4202B342BA41FFF426AECB
:104D60000122234C2A702170002500241648214B73
:104D70000088C3E9004519B0BDE8F04019F0CCBC8B
:104D80000021C2E88F1F83F310881B4B1B688B42E6
:104D9000BFF6FDAD02A8FDF711FE002200234FF083
:104DA00000001349C5E900230870F0E5054BA3FB9B
:104DB00000239B09C8E74FF47A72B0FBF2F367E770
:104DC0006AE10020D34D621026E1002062E100205C
:104DD00069E1002098A00020F4A00020DCA00020C1
:104DE00065E100206CE10020582E0020F8350020FD
:104DF0006BE1002008360020502E0020D0E9001082
:104E0000884239D04FF0FF3300B51C4A194418448A
:104E100011F801EF8EEA030E4EF300034EF3400C3F
:104E2000134083EA5E030CEA020C8CEA530C43F352
:104E300040034CF3400E134083EA5C030EEA020E7B
:104E40008EEA530E43F340034EF3400C134083EAC3
:104E50005E030CEA020C8CEA530C43F3400313404C
:104E60004CF3400E83EA5C0381420EEA020C8CEAAA
:104E70005303CDD1D84300BD002070472083B8ED47
:104E80002DE9F043D1E90232D61A302E054683B01F
:104E900007DD0023C0E900338360284603B0BDE886
:104EA000F08340200F46019304F09CFD3E2204460F
:104EB0000021023059F0DCFE44F64D4222803A686F
:104EC000019BC4F802203A79E671A271002E46D007
:104ED000721E052A40F2A780C3F108022244022A6A
:104EE00040F2A1801A68C4F80920B208012A00F033
:104EF000A5805968022AC4F80D1000F082809968D4
:104F0000032AC4F811107CD0D968042AC4F81510FB
:104F100077D01969052AC4F8191072D05969062A80
:104F2000C4F81D106DD09969072AC4F8211068D003
:104F3000D969082AC4F8251063D0196A092AC4F867
:104F400029105ED0596A0A2AC4F82D1059D0996ADE
:104F50000C2AC4F8311054D1DB6AC4F8353006F19C
:104F60000907384604F03EFD214606463A4681468A
:104F700059F06EFE4FF0FF3306EB070C32499C44AC
:104F8000F01810F8016F5E4046F3000E0EEA010EB5
:104F900046F340038EEA560E0B4083EA5E034EF35F
:104FA000400E0EEA010E8EEA530E43F340030B400F
:104FB00083EA5E034EF3400E0EEA010E8EEA530EB4
:104FC00043F340030B4083EA5E034EF3400E0EEAC8
:104FD000010E8EEA530E43F340030B40604583EA13
:104FE0005E03CED1DB434846E351394604F0FEFC74
:104FF000284604F14003C5E901332C6003B0BDE845
:10500000F083B10726F00302A9D0985CA11848727A
:10501000501C8642A3D9185C0232964288729ED9EF
:105020009B5CCB729BE7013B04F10802F01813F87C
:10503000011F834202F8011FF9D190E71A79052078
:1050400062730422A118E6E72083B8ED034600222C
:1050500001202DE9F04182B0C3E90122C3E9032216
:105060001A605A611871D1E90042121B3F2A187266
:1050700004DC1860184602B0BDE8F081402A05D073
:10508000052218461A6002B0BDE8F08122784D2A48
:1050900005D0022218461A6002B0BDE8F08162789D
:1050A0004C2AF6D1A278012A02D003221A60E1E745
:1050B000B4F80720302A174602D904221A60D9E72B
:1050C000A118887A4A7A009342EA0022C87A097BBA
:1050D00042EA004207F1090042EA016804F082FC5A
:1050E00007F109020646214659F0B2FD4FF0FF32A2
:1050F00007F1090306EB030E3248009B964406EBCA
:10510000020C1CF8011F514041F30002024082EAE8
:10511000510241F34001014081EA520142F3400251
:10512000024082EA510241F34001014081EA52010A
:1051300042F34002024082EA510241F34001014041
:1051400081EA520142F34002024082EA510241F3F5
:1051500040010140F44581EA5202D2D1304607F1C4
:105160000901CDE9002304F041FC009A019BD243E0
:10517000904502D006221A607CE704F10C01394404
:105180000A4611F8010F00287FF47AAF3E3AA24296
:10519000F6D1E2785A71A288DA80A2791A72002FC9
:1051A0003FF468AF3846009304F01CFC06463A46CC
:1051B00004F1090159F04CFD009BF219C3E90362A7
:1051C0005A6157E72083B8ED10B50446A446DFF8CE
:1051D00018E0BEE80F00ACE80F009EE807008CE87E
:1051E0000700204610BD00BFB439061070B50B781B
:1051F0000446012B3ED1D1ED017A9FEDD47AF0EE39
:10520000E76AF4EE476AF1EE10FA0DD8B7EE007ACD
:10521000F4EEC77AF1EE10FA06D4B0EE007AF4EEAE
:10522000C77AF1EE10FA2FDD00222120227004F05F
:10523000D9FB20238646DFF830C300228EF82020D9
:10524000C4E90233BCE80F00C4F804E0CEF8000063
:10525000CEF80410CEF80820CEF80C30BCE80F00D1
:10526000CEF81000CEF81410CEF81820CEF81C306E
:10527000204670BD00222120227004F0B3FB2023C1
:105280008646DFF8E8C2D8E791F90830002B2DDB1D
:1052900091F90930002B29DB8B7A072B45D8CB7A83
:1052A0003C2B63D80B7B022B00F285804B7B103BA1
:1052B0006F2B00F2A7808B7B022B00F2CB804B7D03
:1052C0000A2B00F2EC80CB7D173BDBB2E72B40F2E0
:1052D00011810B7E012B00F22F8103460121002258
:1052E00003F80C1BC0E901320273C1E70022192048
:1052F000227004F077FB182386460022DFF870C284
:105300000276C4E902336060BCE80F00CEF800000A
:10531000CEF80410CEF80820BCE80300CEF80C301C
:10532000CEF81000CEF81410A2E700221D20227043
:1053300004F058FB1C2386460022DFF838C20277AF
:10534000C4E902336060BCE80F00CEF80000CEF87C
:105350000410CEF80820CEF80C30BCE80700CEF8D8
:105360001000CEF81410CEF8182081E70023222078
:10537000237004F037FB212306468646744D606097
:10538000E360AC460EF1100EBCE80F004EF8043C92
:10539000704B10359C454EF8100C4EF80C1C4EF816
:1053A000082CEED12B7821228EF800300023A26049
:1053B00086F821305CE700221C20227004F012FBEA
:1053C0001B2386460022DFF8B0C1C276C4E902334F
:1053D0006060BCE80F00CEF80000CEF80410CEF8F4
:1053E0000C30BCE80300BCF80030CEF80820AEF862
:1053F00018309CF80230CEF81000CEF814108EF859
:105400001A3035E700232720237004F0EBFA262317
:1054100006468646504D6060E360AC460EF1100EC5
:10542000BCE80F004EF8043C4C4B10359C454EF840
:10543000100C4EF80C1C4EF8082CEED1AB8826222E
:10544000AEF8043000232868CEF80000A26086F889
:1054500026300DE700221F20227004F0C3FA1E231D
:1054600086460022DFF814C18277C4E90233606007
:10547000BCE80F00CEF80000CEF80410CEF80820EB
:10548000CEF80C30BCE80700BCF80030CEF81000B5
:10549000CEF81410CEF81820AEF81C30E8E6002242
:1054A0002020227004F09EFA1F238646DFF8D0C029
:1054B00000228EF81F20C4E90233BCE80F00C4F8B4
:1054C00004E0CEF80000CEF80410CEF80820CEF8A4
:1054D0000C30BCE80700BCF80030CEF81000AEF885
:1054E0001C309CF80230CEF81410CEF818208EF83C
:1054F0001E30BDE600233120237004F073FA302300
:1055000006468646164D6060E360AC460EF1100E0E
:10551000BCE80F004EF8043C124B10359C454EF889
:10552000100C4EF80C1C4EF8082CEED13022002343
:10553000A26086F830309BE600222020227004F022
:1055400051FA1F238646DFF83CC0B1E7FFFF7F7F9B
:1055500064F1051084F10510A4F10510C4F10510E3
:105560000CF205103CF2051004F10510E0F00510F6
:1055700028F1051044F1051088F10510CCF1051053
:10558000ECF1051040F205109FED247AD1ED017A7F
:1055900067EE877A0023FCFEE77A91F810C04A7C18
:1055A0004FEA4C0C4CEA820CCA7B00B542EA0C0272
:1055B00091F800C0C0F80B30C0F80F30C0F81330BD
:1055C000C3756CF3070391F812C091F816E042EA34
:1055D000CC0291F813C042EA0C1291F814C042EACE
:1055E0004C1242EA8E128272D1F8092091F808C05A
:1055F0004260B1F80D2002814A7D0273CA7D427378
:105600000A7E827317EE902A62F30F23C2F30722F9
:1056100062F317436CF31F63036000BD0000C842D0
:105620002DE9F041D1E900E3A3EB0E030E2B074671
:1056300088B026DC002323203B7004F0D3F922231A
:10564000844605464D4E786006F1200EFB603446D8
:1056500010350FCC744506F1100645F8100C45F8CE
:105660000C1C45F8082C45F8043CF0D13388222264
:105670002B8038460023BA608CF8223008B0BDE891
:10568000F08101AD94462C463D4EDFED3E6A0FCED3
:105690000FC596E8070085E807000FCCCCF800009E
:1056A000CCF80410CCF80C3003CC2378CCF80820CC
:1056B000CCF81000CCF814108CF818309EF800309C
:1056C0004FF000088CF80030BEF80130384607EE85
:1056D000903AF8EEE77A87EEA67A8CED017A9EF89A
:1056E000033061468CF808309EF804308CF809309D
:1056F0009EF805308CF80A309EF806308CF80B3096
:105700009EF807308CF80C309EF808308CF80D307D
:105710009EF809308CF80E30BEF80A3003F0010212
:1057200062F30708C3F3400262F30F28C3F3800259
:1057300062F31748C3F3C00262F31F68C3F3001299
:105740008CF81320C3F34012C3F38013CCF80F80FE
:105750008CF814208CF816309EF80C308CF815302C
:105760009EF80D308CF817309EF80E308CF81830FB
:10577000FFF73CFD384608B0BDE8F08160F2051047
:10578000B43906100000C842F0B5D0E90034A4EBEB
:10579000030CBCF13F0F91B068DD93F800C0BCF181
:1057A0004D0F63D193F801C0BCF14C0F5ED193F85B
:1057B00002C0BCF1430F59D193F803C0BCF1460FAE
:1057C00054D104460646202015460F46019304F0A6
:1057D00009F9CDE90200019B00F120020492D3F8FF
:1057E00000E0D3F804C099680392DA68C0F800E0DA
:1057F000C0F804C08160C2609969DA69D3F810E02A
:10580000D3F814C0C0F810E0C0F814C08161C261C0
:1058100093F8222093F82110120442EA012293F80F
:10582000201093F823300A4342EA036302A801934D
:10583000FFF7E4FA019B83420BD00023029828B1C2
:1058400004990193091A04F0D1F8019B184611B08C
:10585000F0BD216801F1230301F13F0201E0934211
:1058600008D013F8010F0028F9D0E6E70023184606
:1058700011B0F0BD1820019104F0B4F8019900F1C5
:10588000180ECDF820E00690D1F808C0CB680C695E
:10589000CDF81CE0D1F814E0C0F800C0436084608B
:1058A000C0F80CE0CB69D1F818C02A464361C0F8B3
:1058B00010C006A909A8FFF7B3FE9DF824305BB11C
:1058C00031684A798879120242EA00420879C97936
:1058D000024342EA01623A600A980CAA904205D05B
:1058E0000C990193013104F081F8019B069800287E
:1058F000A4D008990193091A04F078F8019B9DE758
:1059000010B5044640F8041BFFF75EFC04F12000CC
:10591000FFF75AFC0023C4E91033204684F83C30DA
:1059200010BD00BF2DE9F04300250446006899B082
:105930000368CDE904559B6804A90695984720B1F2
:10594000DDE904239B1A7F2B2DDC11A8FFF73CFC1B
:1059500000230DF1440C84F83C30BCE80F0060607B
:10596000A16061682361A3682162E260BCE8030072
:105970009CF8002063626061A1610026E3682069F1
:105980006169A362A36921632277E062636384F89B
:105990003820049818B10699091A04F027F83046FF
:1059A00019B0BDE8F0830AA8FFF70EFCA9462E4601
:1059B000049B402003EB8513009304F013F8074683
:1059C0000246009B00F140010790099103F1400855
:1059D00018681033009053F80C0C103201900098A6
:1059E00053F808EC53F804CC42F8100C01984345E6
:1059F00042F80C0C42F808EC42F804CCE8D1002341
:105A0000DFF8CCE00DF1440C08910393BEE80F00E1
:105A1000ACE80F009EE807008CE8070011AA03A974
:105A200007A8FFF7B1FE28BB3846402103F0DEFF90
:105A30006B1C022B4FF00105BAD196B300230AADBF
:105A40002F4684F83C300FCD6060A160236103CD08
:105A50002B78E2606061A161237784F83830C4F864
:105A600044900FCF20626162A26203CFE3622063A1
:105A700061638EE7039B8EB90DF1280C0DF1440E86
:105A800099460646BEE80F00ACE80F009EE8070006
:105A9000ACE8030025648CF80020C5E74B45C3D96A
:105AA000EAE711A811ADFFF78FFB0FCD6060A16091
:105AB00023616168A3682162E26003CDC4E91066D6
:105AC0002A7884F83C6063626061A16155E700BF99
:105AD000D039061030B50C4683B0114600900192C3
