:020000041000EA
:10000000002008205B0100101B0100101D010010E2
:100010001101001011010010110100101101001058
:100020001901001019010010190100101F01001022
:10003000110100101901001021010010230100100E
:100040001101001011010010110100101101001028
:100050001101001011010010110100101101001018
:100060001101001011010010110100101101001008
:1000700011010010110100101101001011010010F8
:1000800011010010110100101101001011010010E8
:1000900011010010110100101101001011010010D8
:1000A00011010010110100101101001011010010C8
:1000B00011010010110100101101001011010010B8
:1000C00011010010110100101101001011010010A8
:1000D0001101001011010010110100101101001098
:1000E0001101001011010010110100101101001088
:1000F0001101001011010010110100101101001078
:100100001101001011010010110100101101001067
:10011000EFF30580103800BE00BE00BE00BE00BE7A
:1001200000BE00BEF2EB8871B0A50A10D0A50A107F
:100130009C01001090A31AE7D3DEFFFF42012110BB
:10014000FF010000F8D70A00793512AB00201E49E4
:10015000086006C881F3088810474FF050400068D7
:1001600008B10020F3E70DA40ECC002902D000F066
:1001700012F8F9E71549164A002000E001C1914242
:10018000FCD114498847144988471449884700BE60
:10019000FDE701C901C29A42FBD37047D0A50A10FE
:1001A000200100208034002030D90A1000000820EF
:1001B0000000082030D90A10001008200010082084
:1001C000000000007047000008ED00E080340020CF
:1001D00018E5002049D10010FD16001041D1001093
:1001E000704700BF00B5042183B001900BF0C6FB3F
:1001F000019803B000BD00BF10B504464FF4805114
:10020000006860F071FDD4E90001BDE810404FF4D2
:10021000807260F0CDBD00BF70B50D460646C2B01D
:1002200002AC4FF48072FF21204660F065FDD5E9F5
:1002300000122046521A60F067FD06F2FB331B03E2
:100240004FF47A72694605480093019409F006FC60
:10025000B0FA80F0400942B070BD00BFF901001053
:100260000129084604D8D2E900135B1A402B01D0BB
:10027000002070471146FFF7CFBF00BF10B51948E7
:10028000194C02F0C5F9174803F0C8F9A07C01F039
:1002900039FD207D01F042FD144A237F1178003B97
:1002A00018BF0123FF29E07E05D0884216D04FF009
:1002B000000444EC44100E4CFF28107023700CD046
:1002C00008F0AEF9094A4FF00101137841EC4430CF
:1002D000FF2B02D0227842EC403010BD044C10704D
:1002E0002370EDE7403A00203C3A0020B02C00207B
:1002F000DBE4002070B58AB00C4642F00102ADF894
:100300001600D3E9001000238DF815200122CDE955
:1003100006331F4D8DF818401E4C8DF81420421ADC
:10032000CDE908339DF8386023702B7021D105A9E1
:1003300002A8089206F03EFB02A90EC9521A402AF2
:1003400008D089B9079818B10999091A0BF016FB5A
:100350000AB070BD1048CDE9001360F015FDDDE96D
:10036000001301222E7022700846591A0BF006FB6A
:10037000E8E71046019100920BF0FCFADDE900215C
:1003800060F0C2FC009A079002440992CFE700BFD8
:10039000DDE40020D5E40020B83700200000000094
:1003A0002DE9F041804686B0104616460F465FF0B4
:1003B000B1FF0446E8B1302828BF302420460BF0B6
:1003C000D9FA31462246061905460290049660F095
:1003D0009BFC0023394640460093022202AB039661
:1003E000FFF788FF2146284606B0BDE8F0410BF034
:1003F000C5BA9FED077B394640460222009402AB06
:100400008DED027B0494FFF775FF06B0BDE8F08127
:1004100000000000000000002DE9F04FD1E900537A
:100420008B46DBF808909D42A9EB050383B018BF0B
:100430004D603F2BDFF8448174D8DBF80060AC1BC3
:1004400004F1004340333F2B40F29080402C2CBFFE
:10045000271904F140076FF000439F4228BF1F4651
:1004600038460BF087FAAE4282467DD0621E052ADE
:1004700033466FD9811B0139022902466AD924F01B
:10048000030C4FEA940E06EB0C0053F8041B834256
:1004900042F8041BF9D1644510D01A4612F8011B2A
:1004A000D44495420AF82E1008D05A788CF80120CE
:1004B0009A1C95421CBF9B788CF80230544423460A
:1004C000C6469C4608F14004019375460CF1100C99
:1004D0000FCDA5420EF1100E4CF8100C4CF80C1C70
:1004E0004CF8082C4CF8043CEFD1019B03F140057B
:1004F00026B13046A9EB06010BF040FACBE900A586
:100500005744CBF808701B4B984503D1012003B02A
:10051000BDE8F08FDBF80890DFF85880A9EB050301
:100520003F2B8AD9464608F14007344610350FCC98
:10053000BC4206F1100645F8100C45F80C1C45F8B5
:10054000082C45F8043CF0D1DBF804504035CBF8DA
:100550000450D8E753465444721E12F8011F03F8A2
:10056000011B9C42F9D1AAE70346A9E7024855F0CE
:10057000C5FF00BF00C03F10380E061000B03F108E
:100580002DE9F0470446B8B040200BF0F3F92346BC
:10059000024600F1400425460994079003F1400407
:1005A0001968D3F804E0D3F808C0D8681033A34220
:1005B0001160C2F804E0C2F808C0D06002F1100275
:1005C000EED107A90DA8089506F0DAFA0D9BBDF843
:1005D0003A409DF83C10BBB94B1E112B00F26C87C2
:1005E000DFE813F03000480063008C001401BE0106
:1005F000FF01200225031603D8039B03AC037D03F0
:100600008C03B703E90425002046744AFFF7C8FEAF
:10061000109818B11299091A0BF0B0F9079818B18F
:100620000999091A0BF0AAF938B0BDE8F087DDE99D
:1006300010239A4200F04D8512212046684AFFF7A8
:10064000AFFEE5E704200BF095F900220546654B67
:1006500005F1040C18680121286022AB20460092A5
:10066000CDE923CC2295FFF745FE042128460BF067
:1006700085F9CDE70C200BF07DF95B4B054607CBE8
:10068000002328606960AA6020461A4605F10C0C18
:100690000093022122ABCDE923CC2295FFF72AFE5D
:1006A0000C2128460BF06AF9B2E7504922A806F05F
:1006B00005FD18200BF05EF94FF0000E05460DF118
:1006C000880C00F11803CDE91B331A90BCE80F0029
:1006D00028606960AA60BCE80300EB60286169617A
:1006E00020469DF83C107246CDF800E01AABFFF7AB
:1006F00001FE182128460BF041F989E7DFF808E1EF
:100700000DF14C0CBEE80F00ACE80F009EE80700AE
:100710008CE8070013AA10A91AA806F01BFD9DF883
:100720006830002B00F0CC85314913AA22A807F0CD
:1007300003F89DF88830002B00F068862D4D2E4E72
:100740002B68029308F0D8FF029B4FF47A7203EBF8
:1007500043031F0106EB03130293002360F008FB21
:1007600014227B1DF0519819029E0021327128221B
:1007700060F0C2FA2149327960F0C6FA20480022BE
:100780000168204B01310C2928BF0C210160296828
:1007900020460131A3FB0143DB0803EB4303A1EB3C
:1007A000830100920AAB29609DF83C10CDE90A2232
:1007B0000C92FFF79FFD239825AB984203D0259913
:1007C00001310BF0DBF81B981DAB98423FF420AFD2
:1007D0001D9901310BF0D2F81AE700BF500E061038
:1007E00034100610D85A0610CC5A0610403A002091
:1007F0003C3A0020B4370020FC370020600E061081
:10080000F8370020ABAAAAAAF45A0610DFF810E2C3
:100810000DF1880CBEE80F00ACE80F009EE8070061
:100820008CE80700AEF1140006F0AAFF002800F0E3
:100830005B85FFF723FD01216F4D704A2B68117016
:10084000029308F059FF029B6D4E03EB43031F0117
:1008500006EB03134FF47A720293002360F088FAD8
:1008600017227B1DF0519819029E00213271282217
:1008700060F042FA6349327960F046FA6249634BAC
:100880000A6801320C2A28BF0C220A602A68013249
:10089000A3FB0213DB089DF8961003EB4303A2EBC6
:1008A00083035B4A0129927C2B6000F0AA85012A10
:1008B00006D0574A9DF89810127D914200F0F085BD
:1008C000029308F019FF029B4D4D03EB430305EB28
:1008D00003171E014FF47A72002360F049FA2822B0
:1008E000731DA851002158193A7160F005FA494961
:1008F0003A7960F009FA4FF0010C43483E4D016827
:100900002A6861440C2928BF0C21404B62440160D5
:10091000A3FB0213DB0803EB4303A2EB83022A6071
:1009200001239DF83C10022002918DF84DC08DF8F6
:100930004C300BF01FF80022054600F1020C204657
:10094000BDF84C4002992C801AAB0092CDE91BCC2B
:100950001A95FFF7CFFC022128460BF00FF857E657
:10096000254D2B4807F020F82B68254E029308F000
:10097000C3FE029B4FF47A7203EB43031F0106EBA5
:1009800003130293002360F0F3F91A227B1DF05148
:100990009819029E00213271282260F0ADF9327957
:1009A0001D4960F0B1F9184800220168174B013168
:1009B0000C2928BF0C210160296820460131A3FBC6
:1009C0000143DB0803EB4303A1EB8301009222AB5D
:1009D00029609DF83C10CDE922222492FFF78AFC81
:1009E00016E6DDE910239A4200F033830721204602
:1009F0000A4AFFF7D5FC0BE6B4370020D7E4002005
:100A0000FC370020940E0610F8370020ABAAAAAAE3
:100A10003C3A0020AC0E0610E00E061088100610BE
:100A2000403A002022A803F0FFFA1AA801F05EFE67
:100A3000D14B1D780DF0F0F99DF888209DF88C10B1
:100A4000A2F10302B2FA82F29DF88B300291BDF856
:100A50008D10804652090A209DF889609DF88A70A1
:100A60000592039304910AF085FF039A03464271AD
:100A7000059A0299C271042281710499457080F827
:100A80000280C670077119811A701420329D02937A
:100A90000AF070FF0246029B857218680A211060F6
:100AA00058680292506018892646108118460AF04C
:100AB00065FF029A9DF868102B0A91749DF89110B9
:100AC000D372D174339B290C1173290E5173190AF7
:100AD0009373D173190C1B0E1174537428201C9D31
:100AE0000AF048FF0346029A057510681421186041
:100AF00050680293586090689860D068D860106918
:100B0000186110460AF03AFF0022029B9DF8D0C0FF
:100B10009A7783F81CC09DF8D1C0DA7783F81DC09E
:100B20001D9A4FEA154C290A83F816C04FEA156C36
:100B3000597583F817C035994FEA122C1A7683F845
:100B400019C04FEA124C120EDDF8D8E0DA760A0A24
:100B500083F821200A0C83F822204FEA1E2283F812
:100B600025204FEA1E4283F8201083F82620090E24
:100B70004FEA1E6283F8231083F8272083F824E0CD
:100B800083F81AC05020379D0AF0F4FE029B0146FC
:100B900007461A46984680F8285003F12004136847
:100BA0005068D2F808E0D2F80CC01032A2420B60B4
:100BB0004860C1F808E0C1F80CC001F11001EED1A5
:100BC000D2F800C053684046C1F800C04B602821ED
:100BD0000AF0D4FE082100222C0C87F82A402C0EA3
:100BE00025FA01F387F82B4007F1300487F8293004
:100BF0003046FA62239422AB009207F15004229708
:100C00002494FFF777FB502138460AF0B7FEFFE443
:100C1000DDE910239B1A042B03D11378522B00F02B
:100C200087830A212046554AFFF7BAFBF0E4DDE945
:100C30001032D11A012900F35F839A420CBF0023BE
:100C40001B7803201E4602930AF094FE4FF0000525
:100C5000024601214A48029B006853708642117087
:100C60009570C0F0A582062002920AF083FE03462A
:100C7000029A03211088DD70188090780293987092
:100C800010460AF07BFE4FF00002029B0C209A8077
:100C90000AF070FE4FF000060546029BAE711A681E
:100CA00080462A6018469B880621AB800AF066FEC3
:100CB00005F10C09EE7105F108030022CDE913835B
:100CC0002046092113AB0092CDF85490FFF712FB98
:100CD000A9EB0807394640460AF050FE98E4DDE9E2
:100CE00010031B1A052B03D10378012B00F0968308
:100CF0000E212046234AFFF753FB89E4DDE9100368
:100D00001B1A052B03D10378012B00F098830F21C8
:100D100020461D4AFFF744FB7AE402F0F7FC9DF8F9
:100D20003C10002800F0D4820022204622AB009222
:100D3000CDE922222492FFF7DDFA69E4DDE91023F0
:100D40009A4200F04F810D212046104AFFF728FB00
:100D50005EE4DDE910239B1A022B06D11378012BE8
:100D600003D15078012840F28A8310212046084A96
:100D7000FFF716FB4CE400BFD7E40020E410061098
:100D8000F83700201C0F06105C0F0610FC0E061032
:100D90009C0F061022A803F047F930200AF0EAFD64
:100DA0002F2200F13003054600211A9080460130C1
:100DB0001C9302935FF0A0FF02219DF88820029B04
:100DC000032A1B93297000F0898204204FF0060C3F
:100DD0000A4600239DF88D1019B16046134688F825
:100DE00001209DF88E2012B1034688F801009DF87D
:100DF000891019B143F0080388F801309DF88A1072
:100E000019B143F0100388F801309DF88B1019B127
:100E100043F0200388F801309DF88C1019B143F09D
:100E2000400388F801309DF88F1019B163F07F03FB
:100E300088F80130002A00F0CE80DDE92623BDF8D5
:100E4000A010C8F80220C8F80630BDF8C0209DF8F0
:100E5000C230A8F80A10A8F81020002B00F0538226
:100E600001220321134688F812209DF8C32012B1F5
:100E70000B4688F812109DF8C4201AB143F0040301
:100E800088F812309DF8C5201AB143F0080388F89D
:100E900012309DF8B4201AB143F0100388F81230D4
:100EA0009DF8BA201AB143F0200388F8123020468A
:100EB00000242246A646A44623462146BDF9A65054
:100EC000BDF9A4600295BDF9AE50BDF9AA700395B5
:100ED000BDF8B85004959DF8A25065F3070466F379
:100EE0000F24C6F3072666F31744029E66F31F64B9
:100EF000C8F81340C6F3072464F30702BDF9A840FD
:100F00002C9E64F30F22C4F3072464F3174267F3A3
:100F10001F62C8F81720C7F3072262F3070EBDF956
:100F2000AC20BDF8B64062F30F2EC2F3072262F385
:100F3000174E039A62F31F6EC8F81BE04FEA166E55
:100F40006EF3070CC2F3072264F30F2C240A62F33A
:100F5000070364F3174C2C9A049C62F30F2364F389
:100F60001F6CBDF8BC20240A64F3070162F30F2153
:100F7000120A62F31741BDF8BE20C8F823C062F31D
:100F80001F61120A88F82B20320A62F31743320CD1
:100F900062F31F63C8F81F300023C8F827101A46F1
:100FA00000930B211AABFFF7A5F9302140460AF058
:100FB000E5FCFFF72DBBDDE910031B1A302B03D135
:100FC0000378012B00F04C8211212046CF4AFFF715
:100FD000E7F9FFF71DBB0B21204600921AABFFF784
:100FE00089F9E2E722A803F01FF89DF8982008206D
:100FF00002920AF0BFFC029A0546A2F131020021DA
:101000000120B2FA82F205F10803CDE91B339DF805
:101010008E30C5F80110520969601A952870002BAE
:1010200040F0E781AA70002240F6B83C9DF890108D
:10103000204643EA41132B71A5F806C00D211AABD7
:101040000092FFF757F9082128460AF097FCFFF7AE
:10105000DFBAAF4DAF4E2B68029308F04DFB029BF9
:101060004FF47A7203EB43031F0106EB0313029361
:1010700000235FF07DFE26227B1DF0519819029E11
:101080000021327128225FF037FE3279A2495FF0E9
:101090003BFEA248A24B0168002201310C2928BF67
:1010A0000C210160296820460131A3FB0143012482
:1010B000DB0803EB4303A1EB8301296022AB9DF81E
:1010C0003C100094CDE922222492FFF713F9FFF798
:1010D0009FBA1AA801F00AFB22A802F0A5FF01237B
:1010E0008DF84C309DF891309DF868208DF84E3089
:1010F0009DF8903004208DF84F308DF84D200AF087
:1011000039FC054613991C9A296008200391029224
:101110000AF030FC03460399029A016028461A71CE
:101120000421CDE902320AF029FC1020039A029B27
:10113000110A597122FA00F1120EDA711D9A997191
:10114000039302920AF016FC0546039B029A0821BB
:101150000272186828605868686018460AF00EFC29
:101160004FF0000E029A2046259C4FEA124C85F85B
:101170000AC0130A4FEA126C220A2C736A73220CFB
:10118000240E6B72AA73EC7385F80BC012217246A1
:101190001AABCDF800E005F11004CDE91B441A9517
:1011A000FFF7A8F8102128460AF0E8FBFFF730BA4D
:1011B000574B917019685A4B0B31A3FB01EC4FEA66
:1011C000DC0C0CEB4C0CA1EB8C010C31891BA3FB50
:1011D00001C3DB0803EB4303A1EB83034D4F03EB98
:1011E0004303049206201A0107EB0313BD58CDE90F
:1011F00002230AF0BFFB0346049AC570108803213E
:10120000188090780493987010460AF0B7FB049BFE
:101210002A0A1A712A0C5A710C200AF0ABFB2A0E0A
:101220000546049B82711A68824602609A880621EC
:10123000828018460AF0A2FB039B05F10C091A797B
:1012400005F10803EA71002A00F028810299042AB6
:1012500001F10501394440F22781082A104638BFC0
:1012600008206FF00043029200F108029A4228BF62
:101270001A461046174603910AF07CFBDAF8003054
:1012800005460360DAF804300399029A4360804609
:1012900008305FF039FD029A0C2183185046029302
:1012A0000AF06CFB00231A460093029B0921149359
:1012B000EB191593204613AB1395FFF71BF809E5BF
:1012C00020461B9A9DF83C10FFF76AF8FFF77BBA9F
:1012D0002046144AFFF764F8FFF79AB90123052066
:1012E0004FF0070C6B7075E520460F4A9DF83C10D7
:1012F000FFF756F8FFF78CB9092120460B4AFFF794
:101300004FF8FFF785B90221AFE500BFE40F0610E3
:10131000B4370020FC370020A8100610F837002052
:10132000ABAAAAAA54100610780E06106C1006106C
:1013300053780132432B7FF474AC12F8013F562BE3
:101340007FF46FAC5378312B7FF46BAC5D4D2B6821
:10135000029308F0D1F9029B5B4A03EB43031F01A0
:1013600002EB0313164602934FF47A7200235FF0E8
:10137000FFFC12227B1DF0519819029E0021327150
:1013800028225FF0B9FC327950495FF0BDFC0121A1
:101390004F48504B02680A440C2A28BF0C220260B6
:1013A0002A680A44A3FB0203DB0803EB4303A2EB16
:1013B0008302494B2A60197008F09EF94FF47A7243
:1013C00000235FF0D5FC10F1FA0320464FF0000433
:1013D000424A41F100010094C2E9003122469DF8E1
:1013E0003C1022ABCDE922442494FEF783FFFFF7A3
:1013F0000FB99DF8C2306870E870AA7043F0DE0340
:1014000011E6012A7FF45CAAFFF753BA2046239A1B
:101410009DF83C10FEF7C4FFFFF7CDB98178B0F816
:101420000320407802F080F99DF83C1000287FF4FA
:101430007BAC20462A4AFEF7B3FFFFF7E9B8817874
:101440000379C278407802F0E1F99DF83C10002859
:101450007FF46AAC2046234AFEF7A2FFFFF7D8B814
:101460002F21013002F064FC9DF83C1000287FF42D
:101470005BAC20461C4AFEF793FFFFF7C9B800F0AB
:10148000010002F013FB9DF83C1000287FF44CACE7
:101490002046164AFEF784FFFFF7BAB8A8460CE4C8
:1014A0004FF0000CFFF73CBA184602925FF02CFC9C
:1014B000029AA846831800E420460D4AFEF770FF02
:1014C000FFF7A6B8B4370020FC370020D010061074
:1014D000F8370020ABAAAAAAD6E400209034002056
:1014E000380F0610780F06100C100610BC0F0610EF
:1014F0000C110610F0B583B0BDF820E0002870D1C3
:10150000002B6ED0012A6FD0032A68D1712940F0D8
:1015100092804E4A1278002A00F09580BEF13F0F6B
:101520005DD99C464A4CA6460CF1100CBEE80F0053
:101530004CF8043C474B10349E454CF8100C4CF8CA
:101540000C1C4CF8082CEED14FF00001424B1A78DD
:101550001970002A42D0414C414D2368019308F094
:10156000CBF8019B4FF47A7203EB43031E0105EBAA
:10157000031700235FF0FCFB1722731D0021A85105
:101580003A71581928225FF0B7FB36493A795FF073
:10159000BBFB4FF0010C3448344B026802EB0C01EA
:1015A0000C2928BF0C21324A016082F800C0226851
:1015B0006244A3FB02C3DB0803EB4303A2EB8302F9
:1015C000226008F099F800234FF47A725FF0D0FBA4
:1015D000284BFA3041F10001C3E90001402003B07B
:1015E000F0BD002003B0F0BD0129F8D1BEF13E0FDF
:1015F000F5D9214A02F130011468D2F804E0D2F89A
:1016000008C0D06810328A421C60C3F804E0C3F8F6
:1016100008C0D86003F11003EED150689168D2F889
:1016200000C05860C3F800C099609189927B3F2048
:1016300099819A73D3E772460846194600F074FB05
:1016400080B203B0F0BD1046C9E700BFD5E400206A
:10165000B8370020F8370020DDE40020B437002040
:10166000FC3700203C110610F8370020ABAAAAAACC
:10167000D9E40020A0340020853A002010B58CB0B9
:10168000BDF838E020B9022A9C4612D0032A01D0C6
:101690000CB010BD7029FBD143B3BEF1410F1FD078
:1016A000BEF1400F14D160460CB0BDE81040FEF70B
:1016B00067BF73466246684606F0D0FA9DF8003070
:1016C000002BE5D02F210DF1010002F031FBDFE707
:1016D00001210020074A0CB0BDE81040FEF760BEB3
:1016E0001B78702BF4D10CF1010CDCE70121024ACC
:1016F000F1E700BF68110610541106102DE980486B
:10170000B9B00DF00FFD00F007FE9A4805F03CFF60
:10171000994C2070FEF7B2FD2378002B00F0278152
:10172000964F974EDFF89882346807F0E5FF4FF444
:101730007A7200235FF01CFB142204EB44042501A1
:101740006B1D08EB041448F80500227103EB080038
:10175000282200218B4D5FF0CFFA227939465FF0C5
:10176000D3FA296830684C1C0C2C28BF0C24864BFB
:1017700001302C60A3FB0043DB0803EB4303A0EB29
:1017800083032C22002123A833605FF0B5FA802167
:101790000822FF237D4C7E48246822908DF88C100F
:1017A00004A822A928948DF88F208DF8B03006F077
:1017B000BFFA784E04AC3546E36820686168A268D9
:1017C00010340FC514AB9C4206F11006F3D101246E
:1017D000714BDFF8F0911C700DF0C6FC18B989F858
:1017E000004001F0EDFE4AF60123002015A9ADF8F6
:1017F00054300DF033FBDFF87CB1DFF8CCA10021D1
:101800004FF0FF300CF0C0FB99F800300BB10DF039
:10181000A1FC00F059FE02F06BFC22A802F004FCCF
:101820009DF88A4024B99DF88B400CB99DF88C40F6
:1018300007F062FF9DF888309BF81360032B99F83E
:10184000005000F03881002E40F03A81002C00F06A
:10185000C0810023514A5FF08BFAC30740F19A819F
:10186000002D40F0318128460DF05EFC4C4B1B787A
:10187000FF2B04D04B4A1278544044EC403022A84D
:1018800002F0D2FB07F038FFCDE900019DF88E1081
:10189000002940F09B80444F3B78002B40F09E8114
:1018A0003D4B1B787BBB414AD2E9003253EA020030
:1018B00040F076812C22002117A85FF01DFA8023CA
:1018C0008DF85C30324B04A8169308238DF85F30F6
:1018D000FF238DF880302D4B16A91B682D4E1C93CD
:1018E00006F026FA04AC3546E36820686168A26811
:1018F00010340FC514AB9C4206F11006F3D14FF023
:101900000102254B1A709BF81030002B00F0C080AC
:10191000012B00F0E0800CF07FFA002840F0ED8011
:1019200007F0EAFE00234FF47A725FF021FA204BB1
:101930001B7833B1DAE90023904271EB030380F0A6
:10194000CC811C4B1A78002A3FF459AF1A4AD2E9CD
:101950000042A0429141FFF452AF00221A700CF0F5
:1019600089FA322007F09CFD0CF08EFA47E7134FFE
:10197000D7E600BF3C3A0020D7E400209C110610B7
:10198000B4370020F8370020ABAAAAAACC3A00202E
:1019900001808080843A0020DAE4002090D00300A7
:1019A000B02C0020DBE40020D8E400209834002094
:1019B000D6E40020D9E40020A034002084110610D1
:1019C000FC370020D4E4002090340020DFF8D882D7
:1019D000329AD8F800309A4200F0A780DFF8CCE2C3
:1019E000A74F9EF800203B7816AC26AD02920393D9
:1019F0000FCD0FC40FCD0FC495E80F0084E80F0082
:101A0000029ADDF8B0C0002A40F015814FF00103C2
:101A10008EF800309B4B1A609B4B16A904A8CDF89A
:101A200070C0C3F800C006F083F9984E04AC354688
:101A3000E36820686168A26810340FC514AB9C424B
:101A400006F11006F3D10CF0EFF9914D04462B7816
:101A5000002B40F0FF804FF001038E4C2B7026AD21
:101A60000FCD0FC40FCD0FC495E80F0007C424F8A5
:101A7000023B1B0C23704FF00102874B3A701A7027
:101A8000329BC8F800309BF81030002B7FF440AF39
:101A9000824A4FF47A61D2E9003253EA020022D03E
:101AA0000098C31A019860EB02028B4272F10002A7
:101AB000FFF436AF17E0002E6CD02DB93446D2E6D5
:101AC000002D3FF4D0AE25460024214600200DF025
:101AD00033FB2C46CAE6714A4FF4FA61D2E9003270
:101AE00053EA0200DCD16C4B1B78002B3FF418AF9B
:101AF0000CF092F900283FF413AF00200CF0AEFF79
:101B000000283FF40DAF3F2301210020644A0CF070
:101B1000C1FF00283FF404AF00235F4A13705F4BFE
:101B2000009A1A60019A5A60FAE65B4B1B78002B08
:101B30007FF4E9AE594AD2E9003253EA02002FD1CC
:101B400016AC26AD0FCD0FC40FCD0FC495E80F0016
:101B5000DFF858C184E80F009CF80070002F71D0A6
:101B6000484B1B682C9A16A91344474A04A81C9397
:101B7000136006F0DDF8454E04AC3546E368206896
:101B80006168A26810340FC514AB9C4206F11006C0
:101B9000F3D1B4E6002D40F09B8001252C4662E68F
:101BA0000098C41A019860EB0200B4F57A5F70F1F6
:101BB00000000AD29BF81010002900F08B80012948
:101BC0007FF4AEAE4FF4FA616AE700293FF472AEDB
:101BD000B6E7002D3FF447AE254676E72C2217A83E
:101BE0005FF08AF880238DF85C302E4B04A81693A2
:101BF00008238DF85F30FF238DF88030224B16A923
:101C00001B68224E1C9306F093F804AC3546E3683B
:101C100020686168A26810340FC514AB9C4206F1BD
:101C20001006F3D14FF001021B4B1A700023184A23
:101C30003B70137067E6039B002B39D0114B1B6878
:101C40009C44E9E64FF001030E4A8CF8003017601F
:101C50003B4687E70F4826A906F0FCF880B39BF8BF
:101C600018306BB3002C3FF4F6AE0CF0E5F82B788F
:101C7000002B3FF4F0AE00287FF4EDAEFBE600BF92
:101C8000D8E40020C43A0020CC3A0020843A002056
:101C9000DCE40020B42C0020DAE40020983400209A
:101CA000853A002001808080C83A0020DEE40020D0
:101CB0000D4B1B68A3EB0C029C460C4B1A60ABE669
:101CC0002B78002B3FF4C7AE002C7FF4D4AEC2E6D5
:101CD0002C46FAE64FF47A61E2E60021044B08460E
:101CE000197007F047FE00BFCC3A0020C43A00202C
:101CF000D6E400200149024805F034BCE42C002061
:101D00003C3A002040F6E64340F6F251012808BF75
:101D10000B46014A13807047FA2C0020014B1870C3
:101D2000704700BFDFE4002070B509288CB023D0D5
:101D300020281AD005281BD12824C9B1944217D8CD
:101D400001900D460846224600215EF0D5FF019B1A
:101D5000052B26D0092B11D02046354A354BC5F826
:101D60001720C5F81B300CB070BD3F240029E5D109
:101D7000002420460CB070BD1324DEE72E4B1B78E8
:101D8000002B37D12D4B1A784AB3062228462C490E
:101D90005EF0FAFF6B7923F0030343F002036B71EB
:101DA000E7E702A805F0A0FFAE4602AEB4460EF18A
:101DB000100EBCE80F004EF8043C0AAB9C4506F13F
:101DC00010064EF8100C4EF80C1C4EF8082CEDD1F5
:101DD000BCE80300CEF80000CEF80410C9E70BF011
:101DE00085FD0122154B1A70154B0A0A18601971EE
:101DF0005A71CAE7002302A8CDE902330BF0D6FBE3
:101E00000298104BDDF80A1043404B409DF80C201F
:101E10009DF80E102B604A409DF80F309DF80D1074
:101E200082F04C024B4083F06B032A716B71B1E777
:101E300001004C4D0033004DDFE40020E0E40020C1
:101E4000D03A00204D697261054B064A1B7806485E
:101E5000002B0CBF002303231288037442817047B8
:101E6000DFE40020FA2C0020E82C002008B902480A
:101E700070470020704700BF505B06100048704755
:101E8000245B061058B940F209434FF44171DFF862
:101E9000E8C03948ACF80230ACF80010704730B5F3
:101EA00002288BB025D003283ED004283AD8334BE3
:101EB00053F82040B4B320465EF02CFA3F28034686
:101EC00028BF3F23591C49001D46DFF8ACC041F430
:101ED000407148B16046621E931C1B1B12F801EF53
:101EE0009D4220F802EFF7D82348ACF800100BB061
:101EF00030BD40F6F253224A12889A4235D04FF450
:101F00004F714FF01D0E1F48DFF86CC00EF1FF3E01
:101F10006246431E864413F8010F9E4522F8020FC5
:101F2000F9D1E1E70020E2E7174B1B78002BF9D04D
:101F30002122002168465EF0DFFE212168460BF079
:101F40003DFB68465EF0E6F9DFF82CC040B16B4619
:101F500062461C1813F8011BA34222F8021FF9D194
:101F6000411C490041F44071BEE740F246314FF058
:101F7000220E0648C8E700BF28370020105B061075
:101F8000FA2C0020D8110610DFE40020B41106104E
:101F90002DE9F04FD44BADF69C0D1D68002D00F0DF
:101FA00098810026DFF850A34FF4F062002146A884
:101FB0005EF0A2FE0AF1020B0DF58D790395CB4B75
:101FC00040F2DF12A3FB0635731B05EB530540F20D
:101FD000FF132D0A05F10108984528BF9846C5EB67
:101FE00005143AF93800C5EB4414341B80FB040196
:101FF0003AF935C0C4F5EF7701370023C7FB0C0170
:102000005EF07EFE29F8020C3BF938003BF93530D2
:1020100080FB040140F2DF12C7FB030100235EF0E6
:102020006FFEB34B06F2FF169E4229F8040BC6D191
:10203000C824039D14AE0021224630465EF05CFEAB
:1020400028464FF4F072334646A9009423F0CEFFA1
:10205000A042054600F23D810021402204A85EF026
:102060004BFEA44BA4494FF0FF3E4FF0800A188866
:10207000DFF898C2DFF8988201F5805904AF039524
:102080007DE0002B03DA14EB080443F10003240D78
:1020900044EA0334802C4FEA235373F1000300DB3E
:1020A0007F24B1F90EB0B1F90620B1F916501BEB3F
:1020B00002033C704FEAE272B1F91E4042EBEB7250
:1020C000EB1842EBE572E31842EBE472B1F92640FB
:1020D000E51842EBE473B1F92E40621943EBE47367
:1020E000B1F93640A21843EBE473B1F93E40A218AF
:1020F00043EBE473B1F94640A21843EBE473B1F942
:102100004E40A21843EBE473B1F95640A21843EBDA
:10211000E473B1F95E40A21843EBE473B1F9664091
:10212000A21843EBE473B1F96E40A21843EBE473D9
:10213000B1F97640A21843EBE473B1F97E40A218DE
:1021400043EBE473A2FB004200FB0323A4457EEBB8
:1021500003026FDA002B03DA14EB080443F10003E7
:10216000240D44EA0334802C4FEA235373F1000317
:10217000A8BF7F24803189457C7060D00237B1F9D7
:102180000CB0B1F90420B1F91450B1F91C401BEBAB
:1021900002034FEAE27242EBEB72EB1842EBE5729C
:1021A000E31842EBE472B1F92440E31842EBE47225
:1021B000B1F92C40E31842EBE472B1F93440E31872
:1021C00042EBE472B1F93C40E31842EBE472B1F93E
:1021D0004440E31842EBE472B1F94C40E31842EB9F
:1021E000E472B1F95440E31842EBE472B1F95C4097
:1021F000E31842EBE472B1F96440E31842EBE47295
:10220000B1F96C40E31842EBE472B1F97440E318A1
:1022100042EBE472B1F97C40E31842EBE472A3FBB9
:10222000004300FB0233A4457EEB0302FFF629AF17
:10223000802436E78031494587F801A09ED12F4C94
:102240004FF4C77200212046039D5EF055FD3623F2
:1022500023703F239022237344F292032848294994
:10226000E2720278A4F84C300B78A272013202704C
:102270005A1C1B0104AF0A70637004F14E0EBC4679
:102280000EF1100EBCE80F00B44507F110074EF830
:10229000100C4EF80C1C4EF8082C4EF8043CEED1F5
:1022A0001323012D84F88F5084F88E3016DD2A46D2
:1022B000314615485EF028FD4FF4C7710F4806F00F
:1022C000F9F8C0B2B0FA80F040090DF69C0DBDE8F7
:1022D000F08F00200DF69C0DBDE8F08F04BF337821
:1022E00084F89030E8E700BFE08A00209B01A3114A
:1022F00020BE0300002D0020E48A0020E49A002084
:10230000E6E40020E3E40020749B00200000F0F7E6
:10231000FFFF0F000000000030B5002483B04FF431
:102320008042002146485EF0E7FC4649464B474D57
:102330000C604FF48052214645482C601C605EF0D2
:10234000DBFC9FED3D7B434947F6FF730C60424940
:102350004FF480720C6041494FF400700C604049AA
:10236000404D0C6040490C6040490C6040490C6095
:1023700040490C60404981ED007B40490C70404968
:102380000C7040490C7040490C7040490C70404939
:102390000C7040490C7040490B8040490B8040490B
:1023A0000B804049404B0A801A804049404A414BCB
:1023B0000860147021464FF480523F481C705EF054
:1023C0009BFC21464FF4C7723C485EF095FC40F6FA
:1023D000010202214BF6803001AB2C70019421F0F8
:1023E0008DFD374C206008B1019D1DB10023236095
:1023F00003B030BD40F6A271324A23F0C1FE2A4636
:1024000040F6A671206823F0BBFE052240F6AA71B3
:10241000206823F0B5FE40F6BA3240F6B871206865
:1024200023F0AEFE102240F6C471206823F0A8FE0F
:1024300003B030BDAFF300800000000000000000DA
:10244000D83A0020DC7A0020749C0020D87A002042
:10245000E07A0020809C0020849C00208C9C00203E
:10246000789C0020E5E40020889C00207C9C0020D3
:10247000909C0020949C0020A8340020E1E40020DF
:10248000EAE40020E9E40020E4E40020E7E400209E
:10249000E8E40020E2E40020082D0020062D0020C2
:1024A000042D0020022D0020002D0020FC2C0020F7
:1024B000E3E40020E6E40020E48A0020E49A00201F
:1024C000E08A002000710200F0B5444C97B02378F8
:1024D0000BB917B0F0BD07F00FF9414AD2E900354A
:1024E000C01A4FF000033F4A61EB0501824273EBD3
:1024F000010169D32378002BEBD03B4B1B68002BE9
:10250000E7D0684601F090FD38490B78002B50D198
:10251000374E3849326809688A42DAD39DF8081084
:102520000029D6D0DFF8D8C09E46334C334F0CF686
:10253000F875A2B12368013A591CC1F30A0107EBEF
:10254000C303AC452160326093E803008CE80300CC
:102550001AD00EF1010E0CF1080C002AEAD1AC459C
:10256000CCE9002210D0264B0EF1010E03EBCE0376
:10257000CEF5007E03EBCE0E0EF1080E083343E9D4
:10258000022208339E45FAD1FFF702FDF8B101237C
:10259000164A13704FF4C7711A4801F02DFC002839
:1025A00097D00021184A1368013313600F4B19703C
:1025B0008FE79DF80830002BECD1144A0B7013689C
:1025C00003F50073136084E7237017B0F0BD0F4A62
:1025D000136803F5007313607BE700BFE1E400209C
:1025E000A8340020F0490200E08A0020E5E4002041
:1025F000749C0020FC2C0020D87A0020D83A0020BF
:10260000E48A0020E49A00207C9C0020889C002022
:10261000D0ED017AB0EE677ABEEECC7A2DE9F041CA
:10262000C27C284BDFF8BCC01A70027A90F809E02F
:10263000C2EBC232ACFB0215CEEBCE3EACFB0E1CA5
:10264000521B437B05EB52021F4D9209AEEB0C0E61
:10265000102B2A800CEB5E0C1C4A38BF10234FEA6B
:102660009C1CA2F800C017EE102A7F2B28BF7F23E6
:10267000B2F5807FB8BF4FF48072B2F5007FA8BF7B
:102680004FF40072857A124908356D01103B0D80B8
:10269000104E857CDFF85080807D03EB43035B02A6
:1026A0003070A8FB03015B1A01EB53010A4F0B4C7E
:1026B0000B4B890901F500713D7021601A80BDE85E
:1026C000F08100BFE7E40020062D0020042D00204B
:1026D000022D0020E2E40020E8E40020FC2C002091
:1026E000002D002011080402890B3527DFF880C077
:1026F0001649174B174A9CF800C009781B781278C6
:1027000080F800C0417083700AB9134B1A78134BDC
:10271000C2701B68DFF85CC0003B18BF0123104982
:10272000104ADCF800C009681268C0F808C0C0E9A7
:102730000312DFF844C00C490C4ADCF800C00968F9
:102740001268C0E905C1C26103717047EAE4002064
:10275000E9E40020E4E40020E7E40020E08A00202F
:10276000889C0020749C0020909C0020949C002059
:10277000E1E40020789C00207C9C00200000000008
:1027800008B54FF4CC62002123485EF0B5FA4FF053
:10279000FF3300219FED1E7B204A2148C2E9003310
:1027A000C2E9023303601F4B1F4A19601F4B1160BF
:1027B0001F4A83ED007B1F4B11601F4A83ED007B96
:1027C0001E4B11701E483F2283ED007B5EF094FA91
:1027D0001C4B1868EFF3108272B6D0E8CFEF5FF0B1
:1027E000010CBEF1000FF8D1C0E84ECFBEF1000FD2
:1027F000F3D1BFF35F8F002113485A6001811B683A
:10280000C160C3E88F1F82F3108808BDAFF300805A
:102810000000000000000000C49C0020B49C0020C8
:102820000C2D00208CA3002088A30020E034002081
:1028300090A30020C8340020F5E40020B834002024
:1028400024A30020A49C0020142D002010B5214CAE
:102850002368EFF3108272B6D3E8CF0F012100286E
:10286000FAD1C3E8401F0028F6D1BFF35F8F1A4B9F
:102870006260188830B1194B587918B11B78032B56
:1028800007D0002000232168C1E88F3F82F3108821
:1028900010BD134B1B78002BF3D112490978062980
:1028A00001D01846EEE71049D1E900310B43E9D0D9
:1028B00006F022FF4FF47A7200235EF059FA0A4ABA
:1028C000136898425368626899412CBF0120002028
:1028D000D8E700BFA49C0020B2E40020142D002003
:1028E000F9E400207CA30020103500201A4A136868
:1028F000032B24D90268194BC3F812208288DA828C
:10290000174B1968EFF3108272B6D1E8CFCF0120D0
:10291000BCF1000FF9D1C1E84C0FBCF1000FF4D1AC
:10292000BFF35F8F4FF0010C0E485A6000211B6807
:1029300080F807C0C3E88F1F82F31088704703EB4D
:10294000430C013305491360036841F81C30838848
:1029500001EB4C018B80D3E794A3002064A30020FB
:10296000A49C0020142D0020F0B54B4D85B0AA7911
:1029700012B1EA79002A61D0002600270024474BD3
:10298000474AC3E90067474B54601460C2F80740E8
:10299000454A1C70454BC2E900674549454A1C70D1
:1029A000454BC2E900670C704E2221464348C3E9FB
:1029B0000067C5E900442C725EF09EF9404B214649
:1029C0008E224048C3E900675EF096F93E4B3F49CE
:1029D000C3E900673E4A3F4B3F4E1C700C701470B9
:1029E000FFF7CEFE3368EFF3108272B6D3E8CF0F55
:1029F00001210028FAD1C3E8401F0028F6D1BFF317
:102A00005F8F364B364D374F1C807260D5E90032F0
:102A10001343BC80BC711DD1BC7004233B70326871
:102A20000023C2E88F3F726882F310882E4A2F4934
:102A3000C2E9003393600B7005B0F0BD2A7A002A1A
:102A40009AD195E80300029002A8ADF80C1013F09B
:102A500015FA91E706F050FE2C6800234FF47A72C5
:102A600001945EF085F9019A6C689042A14134BFEF
:102A7000012300231443BB70CFD006F03DFE4FF47A
:102A80007A7200235EF074F9D5E9002390429941EF
:102A9000C3D20223C2E700BFF0AB0020F034002015
:102AA0007CA30020F7E40020D0340020F6E40020CE
:102AB000F4E40020F8340020C0340020A0AB002053
:102AC00010350020FCAB002018350020FBE400206E
:102AD000FCE40020F9E40020A49C0020B2E40020E3
:102AE000E8340020142D0020989C0020FAE40020F7
:102AF0002DE9F041864B94B01B78FBB1854D2B68D6
:102B0000EFF3108272B6D3E8CF4F0121002CFAD137
:102B1000C3E8441F002CF6D1BFF35F8F7E4B6A6081
:102B20001B8883B17D4B5C799CB11B78032B16D03D
:102B300000232968C1E88F3F82F3108800242046D3
:102B400014B0BDE8F0812968C1E88F3F82F3108896
:102B5000F4E72B68C3E88F4F82F31088EEE7704BE1
:102B60001B789846002BE3D16E4B1B78062B05D0C3
:102B70002B68C3E88F8F82F31088DFE76A49074626
:102B8000D1E900310B4340F0A9802B68C3E88F8F57
:102B900082F31088654B68461A78511C197002F050
:102BA0000F02394605F094FA614B1D68032DC5D814
:102BB000604B614A196892F89431002B68D1002962
:102BC0006FD192F82C33002B67D101231E464FF4AE
:102BD000CC7101FB03204FF4C77200215EF08CF82A
:102BE0004E2269465EF090F84E22C0F89021504A7D
:102BF000013515603122012180F88E214F4A80F87D
:102C0000941113684E494F4D41F82360013303F08E
:102C10000303136006F070FD4FF47A7200235EF038
:102C2000A7F80022484BC5E900011A70FB7A3BB1B6
:102C30002F22012A07F10C014BDD44485EF0A4F875
:102C40003B783BB9FB782BB9FB791BB97B7A002B1E
:102C50003FF475AFDFF8F4C00DF10305E646EB680D
:102C600028686968AA681035AEE80F000DF13303D3
:102C70009D420CF1100CF1D1AA6828686968ACE893
:102C80000700AA89AB7BACF800208CF8023056E72D
:102C900092F82C333BB9012997D192F8C4343BB94F
:102CA00002231E4693E792F8C4344BB90229F7D1A8
:102CB00092F85C36002B7FF441AF03231E4686E773
:102CC00092F85C36002B7FF439AF03293FF436AF1E
:102CD000F3E7B5D11D4B3A7B1A70B1E706F00CFD56
:102CE000D5E900654FF47A7200235EF041F80E4B8F
:102CF000D3E900239042994104D2C6E88F8F85F32F
:102D000010881BE7C6E88F8F85F3108842E700BF65
:102D1000ECE40020A49C0020B2E40020142D00204C
:102D2000F9E400207CA3002010350020F0E400200E
:102D300090A300200C2D0020C49C00208CA3002018
:102D4000B49C0020B0340020EDE4002024A3002037
:102D50002B4AF8B5137863B3002400260027294BCB
:102D6000294AC3E90044C3F80740284B1588C3E942
:102D70000067274B274AC3E90067274B21461C7091
:102D8000264BC2E9006726484E221C705DF0B4FF56
:102D9000244B8E2221462448C3E900675DF0ACFF36
:102DA000224B234A1C70234B1470C3E900670DBBF0
:102DB000F8BD0125204C15702668EFF3108572B61A
:102DC000D6E8CF7F0122002FFAD1C6E8472F002F87
:102DD000F6D1BFF35F8F194A656082F84910116D13
:102DE0002468013182F848001165C4E88F3F85F3FB
:102DF0001088B1E72846BDE8F8401EF0DBB900BFF7
:102E0000FAE400207CA30020B2E40020F03400208B
:102E1000F8340020D0340020F7E40020F6E400204D
:102E2000A0AB002010350020FCAB0020FBE400200C
:102E3000FCE4002018350020A49C0020142D002064
:102E400038B5494CD4E90032134300D138BD474B63
:102E50001D7806F051FC4FF47A7200235DF088FF74
:102E6000D4E9002390429941F0D2002DEED0404C9D
:102E70002378002BEAD13F4B1B78002BE6D13E4B49
:102E80001B88002BE2D13D4AD2E9003213430CD01B
:102E900006F032FC4FF47A7200235DF069FF374B85
:102EA000D3E9002390429941D0D3082017F086FF40
:102EB000334B1A6800BB9FED2A7B304981ED007BC4
:102EC000EFF3108172B6D2E8CFEF5FF0010CBEF1E4
:102ED000000FF8D1C2E84ECFBEF1000FF3D1BFF31F
:102EE0005F8F0122274D5960EA701B682270C3E88A
:102EF0008F0F81F3108838BD012423490C70EFF344
:102F0000108172B6D2E8CFEF5FF0010CBEF1000F76
:102F1000F8D1C2E84ECFBEF1000FF3D1BFF35F8FFF
:102F2000D3F800C05960174B1A6D83F8484022440B
:102F300083F849001A650023CCE88F3F81F310889D
:102F400006F0DAFB00234FF47A725DF011FF0B4BB1
:102F500010F57A7041F10001C3E9000138BD00BFEE
:102F60000000000000000000E8340020EBE4002036
:102F7000EEE40020F4E40020B2E40020D834002085
:102F8000A49C0020142D0020FAE400200000000082
:102F90002DE9F043AFB006F0AFFB4FF47A72002397
:102FA0005DF0E6FE00259E4B9E4C1D70C4E90001BD
:102FB00006F0A2FB4FF47A7200235DF0D9FE0346BF
:102FC00001249948994E1B18994F41F100017160F5
:102FD00033603C7000260027964A974B2046C3E991
:102FE0000067C2E90055956017F0D4FC204617F041
:102FF00097FC924B1978002938D1582202A85DF02D
:103000007BFE8F4C8F4E904F388838B19DF808303A
:10301000032B03D09DF80E50002D5FD02268EFF3F4
:10302000108372B6D2E8CF0F01210028FAD1C2E88E
:10303000401F0028F6D1BFF35F8F32780121032AA9
:1030400018BF0222B17018BF32702168002263607D
:10305000C1E88F2F83F310883B881BB97B4B1B780B
:10306000002B35D001202FB0BDE8F083744C2268CE
:10307000EFF3108372B6D2E8CF0F01210028FAD106
:10308000C2E8401F0028F6D1BFF35F8F6D4E582273
:10309000314618A8636001935DF036FE6C4A777A7A
:1030A00011685068884681462268C2E88F5F019B9C
:1030B00083F3108827B151EA000340F0978000277E
:1030C000582218A902A88DF869705DF01DFE9AE7D4
:1030D000FFF7B6FE01202FB0BDE8F0835D4B1880EE
:1030E0001EF068F85B4B1B88002B00F0908006F008
:1030F00003FB4FF47A7200235DF03AFE42F2107245
:103100000125821841F100084FF0000EDFF890C150
:10311000514BCCE900015149C1E90028504A1570D2
:10312000504A82F800E09A7962B1DA7952B91A7A93
:1031300042B993E80300189018A8ADF8641012F093
:103140009DFE454B00259FED347BC3E900551D7264
:10315000454B464A83ED007B454B15605560C2F8F0
:103160000750444A83ED007B434B15703748434A70
:1031700083ED007B424B29460570157041484E2275
:1031800083ED007B3D805DF0B7FD9FED237B3E4BE3
:103190008E2229463D4883ED007B5DF0ADFD9FED1D
:1031A0001E7B3B4B1D703B4B1D703B4B83ED007BEF
:1031B0003A4B1D70FFF7E4FA2268EFF3108372B602
:1031C000D2E8CF1F01200029FAD1C2E8410F00291F
:1031D000F6D1BFF35F8F022263603270B580226840
:1031E000B571C2E88F5F83F3108817E706F084FAA1
:1031F0004FF47A7200235DF0BBFDB0EB080061EB89
:103200000901FB2871F10001BFF459AF58E72846C6
:1032100029462A46A84677E7000000000000000083
:10322000EDE40020B0340020E0930400E8340020F6
:10323000F3E40020989C0020D8340020ECE4002027
:10324000A49C0020142D0020B2E40020F4E400200F
:10325000B8340020B0E40020F0AB00200835002096
:10326000FDE40020FEE40020C03400207CA3002008
:10327000D0340020F7E40020F0340020F6E40020F1
:10328000F8340020A0AB002010350020FCAB00205B
:10329000FBE40020FCE4002018350020F9E40020C5
:1032A00000350020000000007F4B1B7803B1704701
:1032B000F0B57E4C87B0D4E90032134301D107B09A
:1032C000F0BD7B4B06461D7806F016FA4FF47A7275
:1032D00000235DF04DFDD4E90023904299412F4633
:1032E000EDD2002DEBD0734B1B78002BE7D1724B46
:1032F0001B88002BE3D1714B9B79002B40F04A8156
:1033000000234FF0010C6D4D6D4CC5E900332B725D
:10331000306822682860B18885F806C0A980002A34
:1033200000F0BB80674903E02268934280F0B580DB
:103330003046CDE9001311F087F9019B0099013364
:1033400006310028F0D15D4BDF715F490B78002B0F
:1033500040F028815D4C2368EFF3108272B6D3E809
:10336000CF0F5FF0010C0028F9D1C3E840CF00284F
:10337000F5D1BFF35F8F0023554D0B70626021685C
:10338000EB70C1E88F3F82F310889FED457BB288D8
:103390003068ADF80C204F4A1946C2E90033C2F834
:1033A00007304D4A029013704C4A4D4813704D4BF4
:1033B0004E2283ED007B4C4B83ED007B4B4B83ED2A
:1033C000007B5DF099FC9FED367B494A002182ED40
:1033D000007B48488E225DF08FFC00239FED307B00
:1033E000354A1380444A1370444A1370444A82EDAC
:1033F000007B444A1370444A13702268EFF3108133
:1034000072B6D2E8CFCF0120BCF1000FF9D1C2E8EB
:103410004C0FBCF1000FF4D1BFF35F8FEA6C616019
:103420000132EA642268C2E88F3F81F310880121EB
:10343000214A02A81DF03CFE00230646002867D161
:1034400006F05AF94FF47A7200235DF091FC42F2D3
:103450001073C0182D4B41F1000159601860012311
:10346000144A21681370EFF3108272B6D1E8CFCFFF
:103470000120BCF1000FF9D1C1E84C0FBCF1000FE5
:10348000F4D1BFF35F8F124962600B710B70236838
:10349000C3E88F6F82F3108811E7002753E700BF5E
:1034A0000000000000000000EDE40020E8340020EF
:1034B000EBE40020F4E40020B2E40020F0AB0020B4
:1034C00094A3002064A30020EEE40020A49C00202C
:1034D000142D00207CA30020F7E40020F6E4002057
:1034E000A0AB0020D0340020F0340020F8340020BD
:1034F00010350020FCAB0020FBE40020FCE40020A1
:1035000018350020F9E40020FAE40020C03400203F
:10351000012226490A702268EFF3108172B6D2E8C0
:10352000CFCF0120BCF1000FF9D1C2E84C0FBCF1A4
:10353000000FF4D1BFF35F8F022285F848202A6D77
:103540002068013285F8496061602A65C0E88F3FD4
:1035500081F31088164A93795BB1D3794BB9137A0A
:103560003BB992E80300049004A8ADF8141012F0DF
:1035700085FC00230F49104A0D480978C0E9003343
:10358000C2E900330372936000293FF498AEFFF75D
:1035900057FC94E63046064911F056F800287FF4AF
:1035A000AFAED2E617F028FC0449D3E6FAE40020D7
:1035B000F0AB0020F3E40020989C0020EEE4002013
:1035C00008B5104B1A7802B108BD0F4805F026FC6B
:1035D00001220C4B0D491A700A8018F0B9FD4FF406
:1035E00000610B481DF0DEFC0A481DF0FBFC0A4898
:1035F000084B436012F070FFBDE80840012017F04F
:1036000081B800BFECE40020A49C0020142D002011
:10361000A0A30020894D001098A30020D0ED017ACE
:10362000B0EE677ABEEECC7A38B52F4BC27A1978F5
:1036300017EE103AB3F5807FB8BF4FF48073B3F53F
:10364000007FA8BF4FF40073002943D0002A29D07F
:103650004FF0000E254AD2F800C0EFF3108172B689
:10366000DCE8CF5F0124002DFAD1CCE8454F002DD6
:10367000F6D1BFF35F8FDFF890C05160ACF8003037
:1036800090F815C01A4BC07A83F800C0194B126825
:1036900018700023C2E88F3F81F31088BEF1000F3D
:1036A00004D138BD144A92F800E0D3E74FF000058A
:1036B000114C257006F020F84FF47A7200235DF06B
:1036C00057FB0E4B25701A780D4B1A700D4BC3E942
:1036D000000138BDDFF830C00549407DACF800304E
:1036E000044B08701A7038BDECE40020A49C002044
:1036F000EFE40020F1E40020EDE40020EBE4002002
:10370000F8E40020B03400200A2D0020044B1B7880
:1037100013B1044B1B780BB918467047FFF738BC40
:10372000ECE40020EBE4002070B540F6B734531E03
:103730009BB2A34292B003D90024204612B070BDC0
:103740002D4B1B78002B54D02C4B1C68EFF3108CA6
:1037500072B6D4E8CF5F5FF0010E002DF9D1C4E856
:1037600045EF002DF5D1BFF35F8FD3F800E0C3F82C
:1037700004C0234B1C880023CEE88F3F8CF31088B5
:10378000054601911646002138220DF10F005DF02B
:10379000B3FA019B04FB05F204FB03F102F1800381
:1037A0001B0A8031090AFF2B28BFFF23FF2928BFEE
:1037B000FF214FF0010503A88DF80C508DF80D3056
:1037C0008DF80E10FFF794F904460028B4D00D4B85
:1037D0001D7005F091FF4FF47A7200235DF0C8FA76
:1037E000094B801941F10001C3E90001204612B0E4
:1037F00070BD034B1C88C3E7ECE40020A49C0020B0
:103800000A2D0020F5E40020C8340020F0B5A7B050
:1038100006460D46144600213B2203A801935DF0A5
:103820006BFA019B914A03F01F038DF814300123BA
:1038300012788DF810608DF811508DF812408DF8C7
:103840000F308DF81330FAB1894D2B68EFF31082E9
:1038500072B6D3E8CF0F01210028FAD1C3E8401F88
:103860000028F6D1BFF35F8F824B6A601B887BB163
:10387000814B5C7994B11B78032B15D00023296808
:10388000C1E88F3F82F310880024204627B0F0BDA6
:103890002968C1E88F3F82F31088F5E72B68C3E8F9
:1038A0008F4F82F31088EFE7744B1B781F46002B75
:1038B000E4D1734B1B78062B05D02B68C3E88F7FB0
:1038C00082F31088E0E76F49D1E900310B4340F003
:1038D000B3802B68C3E88F7F82F310886A4B03A9FB
:1038E0001A78501C187002F00F0212A804F0F0FBB6
:1038F000664B1D68032DC7D8654B664A196892F858
:103900009431002B77D100297ED192F82C33002BF3
:1039100076D101231E464FF4CC7101FB03204FF4F6
:10392000C77200215DF0E8F94E2212A95DF0ECF9B2
:103930004E220346C0F890210120544A01351560FB
:1039400031255549DFF860C10A6883F88E514CF87B
:103950002260024402F003020A6083F8940105F039
:10396000CBFE4FF47A7200235DF002FA00224B4B3B
:103970004B4D1A709DF81730C5E900017BB1494DD8
:103980000DF1180CBCE80F000FC5BCE80F000FC507
:103990009CE80F0007C51A0C25F8023B2A709DF819
:1039A0000C3053B99DF80F303BB99DF8133023B953
:1039B0009DF81530002B3FF468AFDFF8E8C00DF13B
:1039C0004B05E646EB6828686968AA681035AEE8DA
:1039D0000F000DF17B039D420CF1100CF1D1AA6890
:1039E00028686968ACE80700AA89AB7BACF80020BE
:1039F0008CF8023049E792F82C333BB9012988D181
:103A000092F8C4343BB902231E4684E792F8C434CA
:103A10004BB90229F7D192F85C36002B7FF434AF12
:103A200003231E4677E792F85C36002B7FF42CAF19
:103A300003293FF429AFF3E705F05EFED5E9005610
:103A40004FF47A7200235DF093F90E4BD3E9002313
:103A50009042994104D2C5E88F7F86F3108813E71E
:103A6000C5E88F7F86F3108838E700BFECE40020BC
:103A7000A49C0020B2E40020142D0020F9E40020D2
:103A80007CA3002010350020F0E4002090A300204B
:103A90000C2D0020C49C00208CA30020EDE400200D
:103AA000B034002024A30020B49C0020F0B5A5B0C1
:103AB00004463B22002101A85DF01EF901228C4B37
:103AC0008DF80E401B788DF80D20FBB1894D2B68C9
:103AD000EFF3108272B6D3E8CF0F01210028FAD19C
:103AE000C3E8401F0028F6D1BFF35F8F824B6A60A6
:103AF0001B887BB1814B5C7994B11B78032B15D06B
:103B000000232968C1E88F3F82F3108800242046F3
:103B100025B0F0BD2968C1E88F3F82F31088F5E732
:103B20002B68C3E88F4F82F31088EFE7744B1B7844
:103B30001F46002BE4D1734B1B78062B05D02B6856
:103B4000C3E88F7F82F31088E0E76F49D1E9003145
:103B50000B4340F0B3802B68C3E88F7F82F310885B
:103B60006A4B01A91A78501C187002F00F0210A8B5
:103B700004F0AEFA664B1D68032DC7D8654B664A44
:103B8000196892F89431002B77D100297ED192F8F0
:103B90002C33002B76D101231E464FF4CC7101FB50
:103BA00003204FF4C77200215DF0A6F84E2210A941
:103BB0005DF0AAF84E220346C0F890210120544A35
:103BC0000135156031255549DFF860C10A6883F871
:103BD0008E514CF82260024402F003020A6083F81E
:103BE000940105F089FD4FF47A7200235DF0C0F86E
:103BF00000224B4B4B4D1A709DF80F30C5E9000168
:103C00007BB1494D0DF1100CBCE80F000FC5BCE8AD
:103C10000F000FC59CE80F0007C51A0C25F8023BE2
:103C20002A709DF8043053B99DF807303BB99DF8D0
:103C30000B3023B99DF80D30002B3FF468AFDFF84F
:103C4000E8C00DF14305E646EB6828686968AA6894
:103C50001035AEE80F000DF173039D420CF1100C0E
:103C6000F1D1AA6828686968ACE80700AA89AB7B2B
:103C7000ACF800208CF8023049E792F82C333BB9BD
:103C8000012988D192F8C4343BB902231E4684E747
:103C900092F8C4344BB90229F7D192F85C36002B64
:103CA0007FF434AF03231E4677E792F85C36002B8F
:103CB0007FF42CAF03293FF429AFF3E705F01CFD97
:103CC000D5E900564FF47A7200235DF051F80E4B9F
:103CD000D3E900239042994104D2C5E88F7F86F34F
:103CE000108813E7C5E88F7F86F3108838E700BF98
:103CF000ECE40020A49C0020B2E40020142D00205D
:103D0000F9E400207CA3002010350020F0E400201E
:103D100090A300200C2D0020C49C00208CA3002028
:103D2000EDE40020B034002024A30020B49C002047
:103D300018B12F2902D000207047704700230122BC
:103D4000844630B591B0CDE90133039304AC8DF8CE
:103D50000F2000F12005A646DCF80000DCF8041076
:103D6000DCF80820DCF80C300CF1100CAC45AEE8A7
:103D70000F0004F11004EED1DCF80820DCF800009C
:103D8000DCF80410AEE80700BCF80C30AEF80030E8
:103D9000164B9CF80E201B788EF8022013B3144BA0
:103DA0001968EFF3108272B6D1E8CFCF0120BCF1D1
:103DB000000FF9D1C1E84C0FBCF1000FF4D1BFF3F3
:103DC0005F8F0C4918685A6009780023C0E88F3F5C
:103DD00082F3108804A804F06BFA01A8FEF788FEAD
:103DE00011B030BD034B1978F4E700BFECE40020BC
:103DF000A49C0020EFE400202DE9F047E6B00C463B
:103E00000E46054604F056FBC1B231B97E4B1B7815
:103E10001BB10191FEF71AFD20B90023184666B0C8
:103E2000BDE8F0874FF4C7720199019002A85CF0D9
:103E300063FF012C2246019B40F38C80294602A897
:103E40005CF062FF714C9DF80870019D0DF1150C3E
:103E5000A6460CF1100CBEE80F004CF8043C6C4B6D
:103E600010349E454CF8100C4CF80C1C4CF8082CE7
:103E7000EED1BEE80700CCF80000CCF80410CCF876
:103E80000820BEF80020B6F5C77FACF80C209EF8DD
:103E900002202B468CF80E20BFD85E4A1268032AF7
:103EA0001546BAD85C485D4A90F89411126800290A
:103EB00045D0594890F82C13002976D1012A44D1D5
:103EC00090F8C424002A76D14FF002084FF002097E
:103ED0004FF4CC70019300FB08F34F484FF4C772C6
:103EE000C418002120469A465CF006FF012E324697
:103EF000019B00F08480204602A98DF808705CF0D8
:103F000003FF019B43496A1C0A604FF4CC714FF0D8
:103F1000010C4FF0360E404A414801FB082104686D
:103F2000404AC1F8906142F8249004EB0C0202F080
:103F30000302026081F88EE181F894C16EE7002AE5
:103F40005AD190F82C23002A3FD14FF001084FF0AE
:103F50000109BDE77FF461AF29781D460F462B4C60
:103F60000DF1150CA6460CF1100CBEE80F004CF834
:103F7000043C274B10349E454CF8100C4CF80C1C9C
:103F80004CF8082CEED1BEE80700CCF80000CCF8C5
:103F90000410CCF80820BEF800202B46ACF80C200A
:103FA0009EF802208CF80E2077E71B4890F8C41486
:103FB000C1B9022A88D190F85C26002A7FF42DAF7F
:103FC0004FF003084FF0030982E7134A92F8C42424
:103FD000002A3FF479AF104A92F85C26002A7FF459
:103FE0001CAFEDE70C4991F85C1600297FF415AF82
:103FF000032A3FF412AFE3E78846894668E7064A9A
:1040000002F80A707EE700BFECE4002024A3002041
:1040100054A3002090A30020C49C00200C2D00205D
:104020008CA30020B49C00202DE9F0412A4B0446CB
:10403000197896B069B958225CF05EFEFF232046DD
:104040002649274A84F83830C4E9041216B0BDE87E
:10405000F081244B1A68EFF3108572B6D2E8CF0FC7
:1040600001210028FAD1C2E8401F0028F6D1BFF391
:104070005F8F582268461C495D605CF045FE1B4A14
:104080001949D2E90067174B4A7A002090461B680D
:10409000C3E88F0F85F3108822B156EA07030CD1CD
:1040A0004FF000085822694620468DF809805CF0E0
:1040B0002BFE204616B0BDE8F08105F01DFB4FF445
:1040C0007A7200235CF054FE801B61EB0701FB2831
:1040D00071F10001E4D2E5E7ECE40020018080808A
:1040E00080000008A49C0020142D0020B83400207B
:1040F0002DE9F04F584CADB0237813B92DB0BDE881
:10410000F08F564D2B781BB1554B1B88002B6BD174
:10411000544D554B2A781B88002A00F02F82534AB1
:10412000117800294CD1524EDFF85C814E4B327829
:104130001B8898F80010002B00F04582002A00F040
:104140001586002940F094824A4D2B78FBB14A4BEA
:104150001E78002E40F0A68005F0CEFA4FF47A7259
:1041600000235CF005FE0F46444B8146D3E9001264
:104170003D4B884277EB02021B8805D3404A1278F8
:10418000022A40F2B6832E70002B00F08B803A4B4F
:104190001B78002B40F0868005F0AEFA00234FF428
:1041A0007A725CF0E5FD374B89461B788246013B0D
:1041B000032B77D8DFE813F00E036903450373027E
:1041C0002B490E460978002966D02F498846097880
:1041D000002940F04A82002B40F02084FEF7C4FB07
:1041E0000023224A1370A1E705F086FA274B1B78BB
:1041F000272B1F462CD84FF47A7200235CF0B8FDB1
:10420000234BD3E90023904271EB030320D2214AD0
:10421000D2E90063B04271EB0303FFF479AF10F110
:10422000FA030F4E1948136007F101030370308839
:1042300041F10001009051601CF0BCFF33880098F0
:1042400083427FF465AF114B1B78272B7FF660AF5D
:1042500000232B705CE700BFECE40020FDE40020AD
:10426000B0E40020F8E40020B2E4002000E50020E3
:10427000EBE40020FBE40020F9E4002018350020E6
:10428000FCE400207CA30020EDE40020FEE40020FC
:104290000835002000350020002B40F0F481DFF8C5
:1042A00030822B702378002B00F06581784B1968E1
:1042B000EFF3108272B6D1E8CF5F0120002DFAD162
:1042C000C1E8450F002DF6D1BFF35F8F19685A6022
:1042D000704B1E780023C1E88F3F82F3108898F856
:1042E0000050002D7FF40AAF26B16B4B1B88002BCA
:1042F00040F02683694DD5E90032134319D005F00B
:10430000FBF94FF47A7200235CF032FDD5E900230B
:104310009042994180F0DE8005F0EEF94FF47A7218
:1043200000235CF025FDD5E9002390429941C0F0BF
:10433000A7805B4DD5E90032134340F02A81594BE9
:104340001B782BB1584DD5E90032134340F06981F9
:10435000564D2B68002B3FF4D1AE2378002B3FF451
:10436000CDAEFEF773FA00283FF4C8AE504C236878
:10437000002B0DDB05F0C0F94FF47A7200235CF0DE
:10438000F7FC4C4BD3E9002390429941FFF4B6AEC1
:10439000414B494A1888494B1B6852F823304FF467
:1043A000CC7202FB03F21E46454B991801321A44A7
:1043B000D1F8903191F88E11013B9BB21DF034FD84
:1043C000022800F0B18300287FF498AE236883426E
:1043D00006DB4FF4CC713A4A01FB032383F89401C6
:1043E0004FF0FF32354934480B68266040F82320EF
:1043F000013303F003030B602B6813442B6005F0BB
:104400007BF94FF47A7200235CF0B2FC4FF4CC736A
:104410002B4A043003FB062494F88E31254D41F1DC
:104420000001362B286069607FF468AE184C236861
:10443000EFF3108272B6D3E8CF0F01210028FAD132
:10444000C3E8401F0028F6D1BFF35F8F40F201118F
:104450001C4B6260DA6819810132DA6005F04CF9B0
:104460004FF47A7200235CF083FC174D0023C5E9FA
:1044700000012268C2E88F3F636883F310883DE63D
:10448000124B1B78002B7FF454AFFEF7D9FC50E79A
:10449000A49C0020F1E40020B2E40020E8340020D5
:1044A000C0340020F5E40020C834002090A3002090
:1044B0000C2D0020E0340020B49C002088A30020B4
:1044C000C49C0020142D0020B8340020F4E4002007
:1044D000EDE4002000239FEDA47BA54AA549A64852
:1044E000C2E90033037093600B7885ED007B002BED
:1044F00040F02082A14D2B68EFF3108272B6D3E812
:10450000CFCF0120BCF1000FF9D1C3E84C0FBCF1B3
:10451000000FF4D1BFF35F8F0020994B08706A60E1
:104520002968D870C1E88F0F82F3108816F0F8F967
:104530002968EFF3108272B6D1E8CFEF5FF0010C7B
:10454000BEF1000FF8D1C1E84ECFBEF1000FF3D19C
:10455000BFF35F8F8A4B002019789870022908BF3B
:1045600004216A6008BF197000232968C1E88F3FE1
:1045700082F31088DDE6834B1E78B0E6DFF85082C8
:10458000814D2A78002A3FF4FFAD002B7FF4DFAD88
:1045900088E605F0B1F84FF47A7200235CF0E8FB8E
:1045A000D5E9002390429941FFF4C9AE16A8FFF760
:1045B0003BFD9DF85E30002B00F0D08100220023EF
:1045C000C5E90023BBE6002A00F0B88100297FF48A
:1045D00068AE6E4B1B78002B7FF464AE1221084648
:1045E0002B70009316F034FD012016F041FD009869
:1045F00016F0D0F9664D012016F0CCF9D5E900325D
:10460000317813430F4640F00E82002900F0DA8122
:1046100098F8000080F0010016F082F95D4B1B88CD
:10462000AEE705F069F84FF47A7200235CF0A0FB66
:10463000D5E9002390429941FFF48AAE3A22002145
:104640000DF159005CF058FB012316A88DF8583085
:10465000FEF74EFA00283FF47BAE00234E4A13705B
:1046600000220023C5E9002372E6002B3FF419AEB7
:1046700000222A70444D2A78002A7FF468AD002B6E
:104680007FF485AD0EE629703F4DDFF844812A782E
:10469000002A7FF45CAD002B7FF479AD02E63F4B3E
:1046A0000093D3E90023904271EB0303FFF4FAADCA
:1046B0003B4B19789B46002900F020823548013198
:1046C0008BF800104D233121364A00881DF0ACFBD9
:1046D000002800F0F381344B0228187000F0828229
:1046E0000C2800F0488231490A78042A04BF0522C8
:1046F0000A702F490A78002A00F04B8200219FEDB2
:104700001A7B1970009F294B87ED007BC3E90011CC
:10471000204EC3F80710274F274B4E22274883ED22
:10472000007B87ED007B8BF8001036885CF0E4FAA4
:104730009FED0D7B224B00218E22224883ED007BD2
:104740005CF0DAFA00219FED087B1F4B297019708D
:104750001E4B83ED007B002E3FF4A4AD30461CF0D1
:1047600029FD9FE5AFF3008000000000000000007D
:10477000989C0020EEE40020F3E40020A49C00209C
:10478000142D0020F1E40020FBE40020F4E40020DC
:10479000E8340020B2E40020F5E40020D03400200A
:1047A000F7E40020A1AB0020F6E400207CA3002069
:1047B000FAE40020F0340020F8340020A0AB002000
:1047C00010350020FCAB0020FCE400201835002050
:1047D000EDE40020A84B0093D3E90023904271EB55
:1047E0000303FFF45FADA54B5B68022B3FF65AADA8
:1047F000A34DEA5C002A3FF455ADA24901920B7823
:104800008B4601330B70A04B032118881DF0E0FA92
:10481000019A002800F058829C4B0228187000F082
:10482000E1811AF1190C49F1000E0C2840F00C82BC
:104830009BF80030032B00F20782009BC3E900CEF7
:1048400030E5934AD2E9001351EA03053FF42AAD5B
:10485000884279EB0303FFF425AD9FED857B874903
:1048600082ED007B8B7A002B40F0E2814A680B726C
:104870000132022A4A608CBF042201220A707E4A59
:10488000C2E900097F4A13700CE5824DD5E9002387
:1048900052EA03013FF406AD904279EB0303FFF4C3
:1048A00001AD794B754E1888377A1DF0F5FA00285E
:1048B00040F0D68108229FED6E7B744B85ED007B26
:1048C0001A703378022B09D1337ABB4206D1737A3E
:1048D0003072002B00F02782062333700022664BD3
:1048E0001AF1190049F10001C3E90001654B1A7082
:1048F000D8E4694901320A70184632218D23674A8B
:104900001DF092FA002800F0A480022800F0B08187
:10491000614B1B78022B00F2A380614A19F1190345
:10492000136047F100035360574B1B88002B7FF443
:104930002EACB7E416F060FA5A49DBE52A70B1E410
:1049400016A8FFF771FB9DF85830032B3CD098F860
:104950000030002B3FF4CEACFFF7D0BB4A4A1288A0
:10496000002A3FF4ECAC00200021C5E9000101253C
:104970004D484E4A05701168EFF3108072B6D1E8C9
:10498000CFCF0125BCF1000FF9D1C1E84C5FBCF1DC
:10499000000FF4D1BFF35F8F072115685060444AC0
:1049A000A2F84810116D01311165C5E88F3F80F301
:1049B0001088354B18881CF0FDFBC0E43378002BC1
:1049C0007FF426AE002027E69DF85E30002BBED097
:1049D000384AD2E900321343B9D004F08DFE4FF4C7
:1049E0007A7200235CF0C4F94EF66023A6FB033212
:1049F000304E3768D6F804C0C01B61EB0C019842FA
:104A00009141A4D3012320492B4A0888157088F8C6
:104A100000302DB0BDE8F04F1CF0CCBB18461DF0A7
:104A20005FFAFFF7DBBB04F067FE4FF47A720023F6
:104A30005CF09EF9D5E9002390429941BED2002F47
:104A4000BCD0012015F06CFFFEF7FAF90E4B1B8865
:104A500096E50D4B28701B88002B7FF498AB21E462
:104A6000094B2E701B88002B7FF491AB1AE400BF1A
:104A70000000000000000000D03400207CA30020D3
:104A80001C5C0610F7E40020B2E40020F6E40020ED
:104A9000F8340020F0340020FCE40020FDAB0020BE
:104AA00018350020EEE40020FAE40020A49C002049
:104AB000142D0020B0340020F5E400209F4A137824
:104AC000042B03D1012393720323137000239C4A08
:104AD0008BF800301AF57A7349F100011360994B95
:104AE00051601AF104021A6049F100025A60002272
:104AF00000230099C1E90023FFF7D4BB3B2216A88D
:104B00005CF0FAF8904B02A81A78511C197002F068
:104B10000F0216A903F0DCFA02A94E228B485CF0C2
:104B2000F3F89BF80010C9E501208949894A08700B
:104B30001368EFF3108072B6D3E8CF4F0121002C39
:104B4000FAD1C3E8441F002CF6D1BFF35F8F40F2C7
:104B50000525814B5060196D0024013112681965DB
:104B6000A3F84850C2E88F4F80F310882DB0BDE8FD
:104B7000F04FFDF7F9BE9BF80020032A3FF6B3ADD6
:104B8000009A1AF11903136049F100035360FFF70B
:104B900089BB4FF0010C81F800C06E49D1F800E0EC
:104BA000EFF3108C72B6DEE8CF7F0126002FFAD12A
:104BB000CEE8476F002FF6D1BFF35F8F0E68C1F8C4
:104BC00004C00521DFF890E18EF84810DEF850109F
:104BD0008EF849000131CEF85010C6E88F2F8CF3C3
:104BE00010888BE501205A495A4B08701A68EFF378
:104BF000108172B6D2E8CF5F0120002DFAD1C2E851
:104C0000450F002DF6D1BFF35F8F40F205221868E3
:104C10005960514BA3F848201A6D01321A650023E0
:104C2000C0E88F3F81F31088FDF79EFEFFF73ABB87
:104C300000220520494B1978494B1A703F4B1870D8
:104C4000FEF786F8FFF72EBB3C4B1B78012B4FD0AD
:104C5000009BC3E900CE00238BF80030FFF722BB96
:104C60000228BFD039460720FEF772F8FFF71ABBBB
:104C70000122374B1A70374B1A68EFF3108172B666
:104C8000D2E8CFCF0120BCF1000FF9D1C2E84C0F20
:104C9000BCF1000FF4D1BFF35F8F40F2052218681A
:104CA00059602D4BA3F848201A6D01321A65C0E8EF
:104CB0008F6F81F31088FDF757FE2A4B1B88002B5E
:104CC0007FF465AAFFF7EEBA1C4B1B78012B1FD0AF
:104CD00040F2DC53244A1AEB030349F10001C2E914
:104CE0000031002200230099C1E90023FFF7DABA5E
:104CF000124E71680229ABD8685C9042A8D101318C
:104D0000032908BF042333700023716033729FE7C7
:104D10000A494B68022BDBD8EB5C9342D8D10B726B
:104D200002230B70D4E7054A53680133022B53600A
:104D30008CBF042301231370D0E500BF7CA30020A7
:104D4000F834002010350020F0E40020A0AB002053
:104D5000FAE40020A49C0020142D0020F6E400209A
:104D6000F7E40020B2E40020F03400202A70054D62
:104D70002A78002A7FF4EBA9002B7FF408AAFFF71A
:104D800091BA00BFFBE40020042800D07047002A3D
:104D9000FCD02DE9F043117816463329C3B000F05A
:104DA0006D8739D80339CAB2132A32D8132930D8BB
:104DB000DFE811F089012F001400E80240022F0003
:104DC0002F002F002F002F002F002F002F002F006B
:104DD0002F002F002F002F002F00C401604B1C78E4
:104DE00024B1604A1178002901F0EC8100242146A9
:104DF00000234FF6FF7C5C485C4A04705C485D4CC5
:104E000001705D485D492370A0F800C01360938075
:104E10000B7043B0BDE8F083DD2900F056870446EF
:104E200000F2F782602900F0AF80DC29F1D1544B09
:104E30001B78002BEDD0534B1B78002BE9D1137C52
:104E4000002B41F0EA81737E002B00F0FB87B07EDF
:104E5000082840F2F78706F11B04234606F1130CDD
:104E6000844413F8012B02F12001C9B2A2F1410ED2
:104E7000BEF1190F98BF0A46642A40F085871A7858
:104E800002F12001C9B2A2F1410EBEF1190F98BF83
:104E90000A46752A40F078875A7802F12001C9B293
:104EA000A2F1410EBEF1190F98BF0A46612A40F0E7
:104EB0006B879A7802F12001C9B2A2F1410EBEF1CE
:104EC000190F98BF0A466C2A40F05E87DA7802F123
:104ED0002001C9B2A2F1410EBEF1190F98BF0A46D6
:104EE000732A40F051871A7902F12001C9B2A2F168
:104EF000410EBEF1190F98BF0A46652A40F044875B
:104F00005A7902F12001C9B2A2F1410EBEF1190F86
:104F100098BF0A466E2A40F037879A7902F120013D
:104F2000C9B2A2F1410EBEF1190F98BF0A46732A09
:104F300040F02A87DA7902F12001C9B2A2F1410ECC
:104F4000BEF1190F98BF0A46652A40F01D87B01CB4
:104F500006222CA90FF0CCFB2CA8FEF7A5F958E7E8
:104F6000EBE40020EDE4002000E50020AC9C0020F4
:104F7000F8E40020FFE40020102D0020F2E40020DF
:104F8000F3E40020F4E400209178022900F0BA87CD
:104F900000297FF43EAF9FED7E7B7F4B4FF6FF7085
:104FA000196099807D4B7E4A19707E4B1170197083
:104FB0007D4B4E2219807D4B019119707C4B1970ED
:104FC0007C4B83ED007B7C4B83ED007B7B4B83ED47
:104FD000007B7B4B83ED007B7A4BC3E90011C3F868
:104FE0000710794B83ED007B784B83ED007B784B8A
:104FF00083ED007B774B1970774B1970774B1970E5
:10500000774B83ED007B774B1970774B1970774B9B
:105010001980774B1970774B188077485BF06CFEDE
:105020009FED5B7B754B8E220199754883ED007B6C
:105030005BF062FE9FED567B0199724A72481170D7
:10504000724B734A017082ED007B72489A7901704D
:105050006AB1DA795AB91A7A4AB993E803002C90FE
:105060002CA80193ADF8B41010F008FF019B0024A8
:10507000694AC3E900441C721470FDF781FB674B59
:10508000674AC3E9004410689C60EFF3108172B670
:10509000D0E8CFCF0123BCF1000FF9D1C0E84C3FDD
:1050A000BCF1000FF4D1BFF35F8F5E4B106851600D
:1050B000C3F80140A3F805401C811C70C0E88F4F65
:1050C00081F31088A5E6B378002B40F033860321E6
:1050D000304601930FF0C2FA731D06461846019B35
:1050E0002CA92C9306228B800D460FF001FB4FF06C
:1050F000010C294A3F4929484B4C80F800C00E80DA
:10510000D5E90001106091802268019B002A00F01F
:10511000B886464903E02268934280F0B28628466A
:10512000CDE901130FF090FA029B0199013306318A
:105130000028F0D101221B4B1A706AE6284C062287
:105140002CA9B01C0FF0D4FAD4E9003213432CADD3
:1051500040F00B86344C2368002B00F0C9860023F6
:10516000324903E02268934280F0C2862846CDE9A6
:1051700001130FF069FA029B0199013306310028EF
:10518000F0D128462A4915F097FE42E6AFF3008099
:105190000000000000000000AC9C0020F2E40020B1
:1051A000EBE40020FFE40020B0E40020FDE4002058
:1051B000FEE400200035002008350020C034002027
:1051C000D83400207CA30020D0340020F03400200C
:1051D000F8340020F7E40020F6E40020EEE400209C
:1051E000E8340020F3E40020F4E40020B2E40020DE
:1051F00000E50020102D0020A0AB0020103500207D
:10520000FCAB0020FBE40020FCE40020F0AB00201D
:1052100018350020F9E40020F8E40020989C0020D4
:10522000A49C0020142D002094A3002064A300203F
:10523000441206108B4CA27A002A3FF4EAAD2CA946
:10524000F01C062201930FF053FA21462CA80FF010
:10525000FBF900287FF4DDADB278002A40F04086EB
:10526000019B092B40F23C8606F10801093B11F82D
:10527000010F002801F0318001329A42F7D1082B4A
:1052800040F22E8606F10902174606F1010C9C44F5
:1052900012F8011B01F1200E5FFA8EFEA1F1410010
:1052A000192898BF7146642940F0EE85117801F104
:1052B000200E5FFA8EFEA1F14100192898BF7146B9
:1052C000752940F0E185517801F1200E5FFA8EFEDC
:1052D000A1F14100192898BF7146612940F0D48599
:1052E000917801F1200E5FFA8EFEA1F1410019289C
:1052F00098BF71466C2940F0C785D17801F1200E26
:105300005FFA8EFEA1F14100192898BF71467329FA
:1053100040F0BA85117901F1200E5FFA8EFEA1F1FD
:105320004100192898BF7146652940F0AD85517933
:1053300001F1200E5FFA8EFEA1F14100192898BFFD
:1053400071466E2940F0A085917901F1200E5FFA37
:105350008EFEA1F14100192898BF7146732940F0D3
:105360009385D17901F1200E5FFA8EFEA1F1410003
:10537000192898BF7146652940F086853948FDF7A0
:1053800093FF46E5B3780321304699460FF066F95E
:105390004FF6FF72344B1B8893423FF43AAD98426C
:1053A0007FF437ADB9F1000F3FF433AD2F4B1B78CD
:1053B0003BB12F4B1A7A22B92E490978002940F0C7
:1053C000C087DFF8BC802C4C01212C4AD8F8003073
:1053D0001170EFF3108272B6D3E8CF0F01210028CD
:1053E000FAD1C3E8401F0028F6D1BFF35F8F042035
:1053F000236DD8F8001001332365C8F8042000237A
:1054000084F8499084F84800C1E88F3F82F31088FF
:10541000FFE4EF297FF4FDAC9278531E0C2B0ED8DD
:10542000DFE813F0E701F600CC000D000D000D00E1
:105430000D007A000D000D00F60386033000083AD7
:10544000052A3FF6E6AC01A353F822F02D550010D3
:10545000134E0010134E0010255C0010455B001029
:1054600099540010989C0020102D0020FFE400208B
:10547000F0AB0020F2E40020142D0020FAE400201C
:10548000A49C0020032130460FF0E8F87F4B1B88D6
:1054900013B198423FF4BDAC7279002A40F0F78610
:1054A000DFF824827A4CD8F80010EFF3108372B63C
:1054B000D1E8CFCF0120BCF1000FF9D1C1E84C0FEA
:1054C000BCF1000FF4D1BFF35F8FB2FA82FC4FEA58
:1054D0005C1C0021D8F80000C8F8043084F805C02E
:1054E000C0E88F1F83F31088002A7FF492AC694BC9
:1054F000597A002940F0C28701215A601A729A72C3
:10550000197004F0F9F84FF47A7200235BF030FC64
:10551000614CC4E900017CE4032130460FF09EF8A1
:105520005A4B1B8813B198423FF473AC03213046A9
:105530000FF094F8594B1B8883427FF46AAC554BAB
:105540001A78022A17467FF464AC717900200D4660
:105550000021534A012DC2E9000193F8088041F06F
:10556000A280597A4F4A19B91078032841F2A381D1
:1055700030460621CDE901230FF070F8DDE9012363
:105580002F4649490F7000211878022841F06680A3
:10559000187A404541F045814FF0000C587A83F865
:1055A00008C0002801F04081062182F800C019706F
:1055B000002000213D4BC3E900012AE403213046CD
:1055C0000FF04CF8314B1A8812B1904200F046832C
:1055D000032130460FF042F8304B1B8813B198423C
:1055E0007FF417AC2CA8FEF71FFD314B99461B78B2
:1055F0004BB99DF8B430002B40F079879DF8B0305E
:10560000012B00F0748743B0BDE8F043FDF7ACB95F
:10561000032130460FF022F81C4B74791A8812B11E
:10562000904200F01883002C40F0098604F064F8E2
:105630004FF47A7200235BF09BFB1E4B2CAD1C7069
:105640001D4BC3E90001032130460FF007F8062285
:105650000146124BB01819802C942946AC800FF0EB
:1056600047F8164B9A79002A40F08087D5E9000167
:10567000002218600120124C99802168A3F80720AD
:105680009871002900F05A860E4923E0B0E400200A
:10569000142D00207CA30020D0340020B2E4002090
:1056A000F0340020F7E40020F6E40020F834002075
:1056B000FAE40020EDE40020B0340020F0AB00203C
:1056C00094A3002064A30020A49C002020688242B0
:1056D00080F034862846CDE9022301910EF0B4FF14
:1056E000029A0199039B013206310028EED1012272
:1056F000DA7104F001F84FF47A7200235BF038FBA2
:1057000042F210720023664D80182B70654C664D76
:1057100041F10001A846C4E900012A68EFF31080B6
:1057200072B6D2E8CF4F0121002CFAD1C2E8441F53
:10573000002CF6D1BFF35F8F5C495D4CD1E90021AD
:105740000A436860237140F0C08600224FF00107D1
:10575000A370A4F805202770D8F800301446C3E8D9
:105760008F2F80F31088FDF70BF89FED4B7B4FF0E8
:105770000006504B504AC3E90044C3F807404F4B62
:1057800082ED007B83ED007B4D4B214683ED007B5A
:105790004C4B4E221E704C4B4C481E705BF0ACFACA
:1057A0009FED3D7B4A4B21468E224A4883ED007B8C
:1057B0005BF0A2FA9FED387B474B484C484D04A85C
:1057C00084ED007B1E702E7002F014FD8E2204A961
:1057D00040485BF099FA404B2F701E7003F08CFF2D
:1057E0004FF47A7200235BF0C3FAC4E90001FFF7BB
:1057F00010BB032130460EF031FF3A4B1B8813B12A
:1058000098423FF406AB032130460EF027FF737B2E
:105810000746002B7FF4FDAA2CA9334C2C93701D56
:105820008B80062201930D460EF062FF23681E4610
:10583000002B01F00080019B2C4903E02268934279
:1058400080F078862846CDE901130EF0FDFE029B1C
:105850000199013306310028F0D1144A9046D2E96B
:105860000032134341F01B800126214B9A79002A14
:1058700040F0E986012100229971D5E90001998063
:105880002168A3F807201860002900F07A861749DC
:1058900034E000BFAFF30080000000000000000013
:1058A000F4E40020C0340020A49C0020E834002050
:1058B000142D00207CA30020D0340020F0340020E0
:1058C000F8340020F7E40020F6E40020A0AB00202C
:1058D00010350020FCAB0020FCE40020183500202F
:1058E000FBE40020B0E4002094A3002064A3002087
:1058F000F0AB00202068824280F043862846CDE944
:10590000022301910EF0A0FE029A0199039B01323D
:1059100006310028EED10122DA7103F0EDFE4FF4DA
:105920007A7200235BF024FA4FF0000C6A4B6B4A4A
:105930006B4C83F800C01378C4E90001002B40F0E1
:105940007C866848054680460368EFF3108172B68E
:10595000D3E8CF4F0120002CFAD1C3E8440F002C2C
:10596000F6D1BFF35F8F00235F4C137069602A6824
:10597000E370C2E88F3F81F310885C4A1370914650
:105980002B68EFF3108272B6D3E8CF0F0121002805
:10599000FAD1C3E8401F0028F6D1BFF35F8FE36C54
:1059A0006A600133E36416B1636D013363650023FC
:1059B000D8F80010C1E88F3F82F310884C4A3E4669
:1059C000C2E90033C2F807304A4A9FED417B178095
:1059D0004FF00107484A19461770484A4848137063
:1059E000484A1370484B4E2283ED007B474B83EDB2
:1059F000007B474B83ED007B5BF07EF99FED347BB2
:105A0000444A002182ED007B43488E225BF074F90A
:105A100000239FED2F7B414AD8F800001370404AC5
:105A20001370404A82ED007B3F4A1370EFF3108100
:105A300072B6D0E8CFCF5FF0010EBCF1000FF8D105
:105A4000C0E84CEFBCF1000FF3D1BFF35F8FD8F883
:105A50000000C8F804102771C0E88F3F81F3108858
:105A6000012130461BF0C4FA00230646002840F00E
:105A70008B852D4A177003F03FFE4FF47A72002396
:105A80005BF076F942F21073C018284B41F1000127
:105A9000D8F8002018605960EFF3108372B6D2E88E
:105AA000CF0F01210028FAD1C2E8401F0028F6D10B
:105AB000BFF35F8FD8F80020C8F804302770C2E821
:105AC0008F6F83F31088FFF7A4B900BFAFF3008096
:105AD0000000000000000000EDE40020EEE40020E3
