:020000041000EA
:10000000002008205B0100101B0100101D010010E2
:100010001101001011010010110100101101001058
:100020001901001019010010190100101F01001022
:10003000110100101901001021010010230100100E
:100040001101001011010010110100101101001028
:100050001101001011010010110100101101001018
:100060001101001011010010110100101101001008
:1000700011010010110100101101001011010010F8
:1000800011010010110100101101001011010010E8
:1000900011010010110100101101001011010010D8
:1000A00011010010110100101101001011010010C8
:1000B00011010010110100101101001011010010B8
:1000C00011010010110100101101001011010010A8
:1000D0001101001011010010110100101101001098
:1000E0001101001011010010110100101101001088
:1000F0001101001011010010110100101101001078
:100100001101001011010010110100101101001067
:10011000EFF30580103800BE00BE00BE00BE00BE7A
:1001200000BE00BEF2EB8871C07D0610E07D0610B7
:100130009C01001090A31AE7D3DEFFFF42012110BB
:10014000FF01000000AD0600793512AB00201E490A
:10015000086006C881F3088810474FF050400068D7
:1001600008B10020F3E70DA40ECC002902D000F066
:1001700012F8F9E71549164A002000E001C1914242
:10018000FCD114498847144988471449884700BE60
:10019000FDE701C901C29A42FBD37047E07D06101A
:1001A000100100206831002038AE06100000082041
:1001B0000000082038AE06100010082000100820AB
:1001C000000000007047000008ED00E068310020EA
:1001D000D0740020E17D001011150010D97D0010B1
:1001E000704700BF00B5042183B0019006F014FAF7
:1001F000019803B000BD00BF2DE9F04FF7B00746EE
:10020000369030200C4606F003FA00F13005064621
:1002100038602F220021BD60013026F0C9FF022383
:1002200094F800907D60B9F1030F337000F087827D
:1002300090229946D0235027CDE90632B0234FF0C3
:10024000F00BCDE904377023CDE9023B102388275A
:100250000193C8234822CDE91537A823E827CDE923
:10026000133268232822CDE911379823D827CDE906
:100270000F325823B822CDE90D37F8237827CDE97E
:100280000B323823CDE90937182384220893C4237D
:10029000CDE93432A4234422CDE932326423E4226E
:1002A000CDE9303294232422CDE92E325423D422B6
:1002B000CDE92C32F423B422CDE92A32342374223E
:1002C000CDE928328C231422CDE926324C23CC22CE
:1002D000CDE92432EC23AC22CDE922322C236C224E
:1002E000CDE92032DC239C22CDE91E32BC235C22E6
:1002F000CDE91C327C23FC22CDE91A321C233C229E
:10030000CDE918320423179382237593C223749383
:1003100042237393A2237293E22371936223709317
:1003200022236F9392236E93D2236D9352236C9367
:10033000B2236B93F2236A937223699332236893F7
:10034000122367938A236693CA2365934A2364938F
:10035000AA233B93EA2360936A235B932A233A936D
:100360009A233D93DA2361935A236293BA233C93F1
:10037000FA2358937A235A933A2359931A235F9373
:100380000A235E9386235D93C6235C93462363937F
:10039000A6234093E6233F9366234293262341936B
:1003A00096234493D623439356234693B6234593EB
:1003B000F6234793762339933623489316233893AD
:1003C0008E234993CE2337934E234A93AE234C93E7
:1003D000EE234B936E234E932E234D939E235093E7
:1003E000DE234F935E235293BE235193FE235493F7
:1003F0007E2353933E2356931E2355930E235793E8
:1004000006234FF0800AC02140204FF0A00E4FF08D
:10041000E00C60254FF020084FF0300B08270C222D
:100420003E936379002B75D0DDE96E38DDE9741AEF
:10043000DDE972E0DDE9705C07936D9B86F8019061
:1004400006936C9B05936B9B04936A9B0393699B38
:100450000293DDE9673B0193669B1693659B1593B9
:10046000649B14933B9B1393609B12935B9B119330
:100470003A9B10933D9B0F93619B0E93629B0D9350
:100480003C9B0C93589B0B935A9B0A93599B099343
:100490005F9B0893DDE95D3735935C9B3493639BE9
:1004A0003393409B32933F9B3193429B3093419BCC
:1004B0002F93449B2E93439B2D93469B2C93459BBC
:1004C0002B93479B2A93399B2993489B2893389BCE
:1004D0002793499B2693379B25934A9B24934C9BB8
:1004E00023934B9B22934E9B21934D9B2093509B98
:1004F000579A1F934F9B1E93529B1D93519B1C9386
:10050000549B1B93539B1A93569B1993559B18937B
:100510003E9B1793A379002B36D0DDE92E78DDE9D9
:1005200032E0DDE9305C07972D9F179906972C9FE5
:10053000717005972B9FDDE9341A04972A9F039762
:10054000299F0297DDE9277B0197269F1697259F14
:100550001597249F1497239F1397229F1297219FEB
:100560001197209F10971F9F0F971E9F0E971D9FFB
:100570000D971C9F0C971B9F0B971A9F0A97199F0B
:100580000997189F089717466278B2B1DDE90F28DE
:10059000DDE9151ADDE913E0DDE9115C07920E9A39
:1005A000777006920D9A05920C9A04920B9A039218
:1005B0000A9A0292DDE9082B0192A27842B1DDE9A4
:1005C000061ADDE904E0DDE9025CD846019A7270A2
:1005D000E27822B1F2466146284686F80180227907
:1005E0000AB18A467070E2790AB186F801A0002B40
:1005F00000F09D80D4E90223C6F80630238AC6F8AD
:1006000002207381228E94F832303282002B40F027
:100610009280022294F8331009B11346B27494F810
:10062000342012B143F00403B37494F8352012B1AE
:1006300043F00803B37494F8242012B143F010037C
:10064000B37494F82A2012B143F02003B374002548
:10065000AE46AC4628462A462946B4F91430A77C53
:10066000019367F30705019FB4F916B067F30F25EF
:10067000C7F3072767F317456BF31F65C6F81350D9
:10068000CBF3072565F3070EB4F91850B4F91AA097
:1006900065F30F2EC5F3072565F3174ECAF307253B
:1006A00065F3070CB4F91C50B4F91E9065F30F2CD8
:1006B000C5F30725236A65F3174C6AF31F6E69F3C8
:1006C0001F6CC6F817E0C6F81BC04FEA136EB4F8EB
:1006D00026C06EF30700B4F828806CF30F204FEAB1
:1006E0001C2C6CF31740C9F3072568F31F6065F3F2
:1006F0000702C6F82300A58D4FEA182060F3070112
:10070000E48D65F30F212D0A65F3174164F31F6132
:1007100063F30F22C6F82710190A61F317421B0C66
:10072000240A63F31F6286F82B40C6F81F20369810
:1007300077B0BDE8F08F01230322B3746AE7012389
:10074000D122912773707123CDE906274FF0510B09
:10075000B12202931123CDE9042B8927F1220193C1
:10076000C9230392CDE915374922A923E927CDE909
:10077000133269232922CDE911379923D927CDE9ED
:100780000F325923B922CDE90D37F9237927CDE965
:100790000B323923CDE90937192385220893C52364
:1007A000CDE93432A5234522CDE932326523E52255
:1007B000CDE9303295232522CDE92E325523D5229D
:1007C000CDE92C32F523B522CDE92A323523752225
:1007D000CDE928328D231522CDE926324D23CD22B5
:1007E000CDE92432ED23AD22CDE922322D236D2235
:1007F000CDE92032DD239D22CDE91E32BD235D22CD
:10080000CDE91C327D23FD22CDE91A321D233D2284
:10081000CDE918320523179383237593C32374936B
:1008200043237393A3237293E323719363237093FE
:1008300023236F9393236E93D3236D9353236C934E
:10084000B3236B93F3236A937323699333236893DE
:10085000132367938B236693CB2365934B23649376
:10086000AB233B93EB2360936B235B932B233A9354
:100870009B233D93DB2361935B236293BB233C93D8
:10088000FB2358937B235A933B2359931B235F935A
:100890000B235E9387235D93C7235C934723639366
:1008A000A7234093E7233F93672342932723419352
:1008B00097234493D723439357234693B7234593D2
:1008C000F723479377233993372348931723389394
:1008D0008F234993CF2337934F234A93AF234C93CE
:1008E000EF234B936F234E932F234D939F235093CE
:1008F000DF234F935F235293BF235193FF235493DE
:100900007F2353933F2356931F2355930F235793CE
:1009100007234FF0810AC12141204FF0A10E4FF073
:10092000E10C61254FF021084FF0310B09270D2212
:100930003E9376E5012904D8D2E900031B1A402B27
:1009400001D00020704710B50C46C2B00192FF21C3
:100950004FF4807202A826F02BFC019B02A8D3E979
:100960000012521A26F0D8FB04F2FB3000034FF4B9
:100970008051019026F050FC01984FF4807202A93A
:1009800026F022FC012042B010BD00BF2DE9F0414D
:100990001F4D07462E6805F0E5F999B34FF47A72BA
:1009A000002326F0F5FBDFF8788006EB46063401DD
:1009B00048F80400384625F0C5FE2822904228BF9A
:1009C0001046631D08EB06160021307103EB08008A
:1009D00026F0EEFB3946327926F09EFB0D480E4B91
:1009E0000268511C0C2928BF0C212A6801600132C1
:1009F000A3FB0243DB0803EB4303A2EB83022A6061
:100A0000BDE8F081054BA3FB00308009CBE700BFB8
:100A10002034002064340020ABAAAAAAD34D62106F
:100A2000683400209C46002300B58BB08E46CDE98B
:100A30000633CDE90833012342F00102ADF8160078
:100A40008DF81520DCE90010421A8DF818E08DF8B9
:100A5000143022D105A902A8089202F057FEDDE960
:100A60000212521A402A049B08D089B9079818B17B
:100A70000999091A05F0D0FD0BB000BD0E48CDE96B
:100A8000001326F051FBDDE9001301200B4A107022
:100A90000846591A05F0C0FDE8E71046019100929A
:100AA00005F0B6FDDDE9002126F036FB009A07903F
:100AB00002440992CEE700BF24340020A87400202D
:100AC0002DE9F041804684B0104616460F4625F0C9
:100AD00039FE0446D8B1302828BF3024204605F01E
:100AE00097FD05463146224606190090029626F0EB
:100AF00013FB3946404602226B460196FFF792FFF0
:100B00002146284604B0BDE8F04105F085BD9FEDC3
:100B1000087B3946404602226B468DED007B0294ED
:100B2000FFF780FF04B0BDE8F08100BFAFF30080A5
:100B300000000000000000002DE9F04FD1E9005353
:100B40008B46DBF808909D42A9EB050383B018BFE4
:100B50004D603F2BDFF8448174D8DBF80060AC1B9C
:100B600004F1004340333F2B40F29080402C2CBFD7
:100B7000271904F140076FF000439F4228BF1F462A
:100B8000384605F045FDAE4282467DD0621E052AFC
:100B900033466FD9811B0139022902466AD924F0F4
:100BA000030C4FEA940E06EB0C0053F8041B83422F
:100BB00042F8041BF9D1644510D01A4612F8011B03
:100BC000D44495420AF82E1008D05A788CF80120A7
:100BD0009A1C95421CBF9B788CF8023054442346E3
:100BE000C6469C4608F14004019375460CF1100C72
:100BF0000FCDA5420EF1100E4CF8100C4CF80C1C49
:100C00004CF8082C4CF8043CEFD1019B03F1400553
:100C100026B13046A9EB060105F0FEFCCBE900A5A4
:100C20005744CBF808701B4B984503D1012003B003
:100C3000BDE8F08FDBF80890DFF85880A9EB0503DA
:100C40003F2B8AD9464608F14007344610350FCC71
:100C5000BC4206F1100645F8100C45F80C1C45F88E
:100C6000082C45F8043CF0D1DBF804504035CBF8B3
:100C70000450D8E753465444721E12F8011F03F87B
:100C8000011B9C42F9D1AAE70346A9E702481BF0E1
:100C90004DFE00BF00C03F107072021000B03F1048
:100CA0002DE9F0410446AEB0402005F0B1FC2346EA
:100CB000024600F1400C0490CDF818C004F1400148
:100CC0001D685C68D3F808E0D86810338B42156063
:100CD0005460C2F808E0D06002F11002F0D104A91B
:100CE0000AA8CDF814C002F0F7FD0A9BBDF82E400B
:100CF0009DF83010ABB94B1E0F2B00F2A883DFE834
:100D000013F035004C0065008A00C700DE00E300E8
:100D1000EE00C00174011402590169018301B1019F
:100D200023002046C04AFFF7CBFE0D9818B10F995B
:100D3000091A05F071FC049818B10699091A05F012
:100D40006BFC2EB0BDE8F081DDE90D239B1A022B70
:100D500006D11378012B03D15078012840F25F832C
:100D600010212046B14AFFF7ABFEDEE7042005F074
:100D70004FFC0546AE4B05F1040C186800222860B4
:100D8000012120461EABCDE91FCC1E95FFF74AFE80
:100D90000421284605F040FCC7E70C2005F038FC8C
:100DA0000546A44B05F10C0C07CB1EAB286069600F
:100DB0002046AA6002210022CDE91FCC1E95FFF734
:100DC00031FE0C21284605F027FCAEE79A491EA803
:100DD00002F0F4FF182005F01BFC05460DF1780C1D
:100DE00000F11803CDE918331790BCE80F00286014
:100DF0006960AA60BCE80300EB6028616961204675
:100E00009DF83010002217ABFFF70CFE1821284682
:100E100005F002FC89E7DFF848C210ADBCE80F001E
:100E20000FC59CE8070085E8070010AA0DA917A8C0
:100E300003F010F89DF85C30002B00F065827F49CC
:100E400010AA1EA803F060FA9DF87830002B00F07D
:100E50009B827B48FFF79AFD002220469DF83010C8
:100E600007ABCDE907220992FFF7DCFD1F9821AB04
:100E7000984203D02199013105F0CEFB18981AABA6
:100E800098423FF452AF1A99013105F0C5FB4CE787
:100E90006A4803F05DFA002800F03D820122694BA8
:100EA00069481A70FFF772FD002220469DF8301045
:100EB0001EABCDE91E222092FFF7B4FD35E75F4857
:100EC00003F05AFB6148EDE7DDE90D239A4200F09B
:100ED0007981072120465E4AFFF7F2FD25E71EA82B
:100EE00002F0A0FB574B1E7807F056FC9DF87B10D4
:100EF0009DF87A30BDF87D2001919DF87C108046E8
:100F00000A209DF879709DF8785000930391029221
:100F100005F07EFBA5F10305B5FA85F50346009AB9
:100F2000019902714171029A03996D09467080F826
:100F30000280C7708171C5711A81022214201A7053
:100F40002C9E009305F064FB009B05461A68867290
:100F500002605A680A2142601A890281184605F027
:100F60005BFB082120464FEA164C2D9C85F80CC0EF
:100F70004FEA166C85F80DC024FA01FCAC7385F8B5
:100F80000FC04FEA144C240E26FA01F36C7405F1DD
:100F90001204EB721F9400221EAB85F810C005F1FD
:100FA00014041E952094FFF73DFD1421284605F0FA
:100FB00033FBBAE601F07CFE9DF83010002800F00B
:100FC000B181002220461EABCDE91E222092FFF700
:100FD00029FDAAE6DDE90D239A4200F0BC800D212F
:100FE00020461C4AFFF76CFD9FE6DDE90D239B1AA6
:100FF000042B03D11378522B00F09F810A21204645
:10100000154AFFF75DFD90E6DDE90D031B1A052B80
:1010100003D10378012B00F0DD810E2120460F4A19
:10102000FFF74EFD81E600BF88720210A073021028
:1010300048BC02103CBC0210AC360020A836002090
:1010400098720210AA740020CC720210E47202108E
:101050001C740210007302106874021020730210D6
:1010600064BC0210DDE90D031B1A052B03D10378C4
:10107000012B00F0BF810F212046C74AFFF720FD5A
:1010800053E6DDE90D32D11A012900F350819A426D
:1010900018BF1D784FF003000ABF00252E4600261A
:1010A00005F0B6FA012345704FF00005BB49037007
:1010B00009688570B14200F2A6800090062005F014
:1010C000A7FA0346009A03211088DD7018809078F3
:1010D00000939870104605F09FFA4FF00002009BB5
:1010E0000C209A8005F094FA4FF000060546009B0C
:1010F000AE711A6818462A609B880621AB8005F0FD
:101100008BFA05F10C07EE7105F108060022204666
:10111000092117AB1997CDE91756FFF783FC7F1B01
:101120003946284605F078FAFFE51EA802F07AFA5B
:101130001EA917A8FFF760F8204600220B2117AB65
:10114000FFF770FC179800283FF4EFAD1999091AC2
:1011500005F062FAE9E51EA802F064FA9DF8802025
:101160000820009205F054FA009A0546A2F13102D7
:1011700000210120B2FA82F205F10803CDE918330B
:101180009DF87E30C5F801105209696017952870E6
:10119000002B00F0F7809DF8AA306870E870AA7004
:1011A00043F05E0340F6B83C20462B7100220D212F
:1011B00017ABA5F806C0FFF735FC0821284605F057
:1011C0002BFAB2E57648FFF7E1FB0122754B1A7066
:1011D00004F0C8FD002900F0D0804FF47A7200239B
:1011E00025F0D6FF0022704DFA302860204642F1EB
:1011F0000004CDE91E229DF8301020921EAB6C60D9
:10120000FFF710FC91E58370684B694A1968694BD8
:101210000B31A3FB01C5ED0805EB4505A1EB8501ED
:101220000C31891BA3FB0153DB0803EB4303A1EB48
:10123000830303EB43031901029002EB031306201F
:101240005758CDE9001305F0E3F90546029AC77037
:101250001088032128809078A870104605F0DCF9EA
:101260003A0A2A713A0C6A710C2005F0D1F9064647
:101270003A0E82712A6880460260AA88062182801E
:10128000284605F0C9F9019B06F108001A7906F114
:101290000C07F2710646002A00F0CF800099444BFB
:1012A0004D1D042A1D4440F2CA80082A114638BF49
:1012B00008216FF00043009201F108029A4228BF12
:1012C0001A461046174605F0A3F9D8F8003029460B
:1012D0000360D8F804300546009A4360083025F0D2
:1012E0001BFF009A0C2183184046009305F094F9E7
:1012F000009B09211893EB1919930022204617AB84
:101300001795FFF78FFB0BE72046189A9DF83010D2
:10131000FFF7D6FBB2E52046274A9DF83010FFF7CD
:10132000CFFB02E52046254AFFF7CAFBFDE4092171
:101330002046234AFFF7C4FBF7E453780132432BDE
:101340007FF45CAE12F8013F562B7FF457AE537812
:10135000312B7FF453AE1B48FFF718FB01221A4BC9
:101360001A7004F0FFFC002954D04FF47A72002365
:1013700025F00EFF0022154D36E7154BA3FB00307C
:1013800080092FE7AA700DE720461F9A9DF83010BC
:10139000FFF796FB6AE500BF60730210643400201B
:1013A0003C740210AD7400208031002020340020F5
:1013B00068340020ABAAAAAAB0720210E873021027
:1013C0000074021054740210A974002078310020B7
:1013D000D34D62108178B0F80320407801F060FDB1
:1013E0009DF8301000287FF4ECAD20461A4AFFF734
:1013F00067FB9AE481780379C278407801F0ECFDCC
:101400009DF8301000287FF4DCAD2046134AFFF72A
:1014100057FB8AE4124BA3FB00308009AAE700F0D7
:10142000010001F053FE9DF8301000287FF4C9AD93
:1014300020460C4AFFF744FB77E4454666E629461A
:10144000009225F069FE009A454616445EE6204665
:10145000054AFFF735FB68E43C7302107C73021009
:10146000D34D6210C07302109074021010B5032A9D
:10147000BDF808C001D1022901D0002010BD0F4ADB
:1014800010780028FAD0BCF13F0FF6D99C460C4CDE
:10149000A6460CF1100CBEE80F004CF8043C094BBA
:1014A00010349E454CF8100C4CF80C1C4CF8082CD1
:1014B000EED10023014A4020137010BDA874002013
:1014C0002434002064340020032ABDF800C00BD16E
:1014D000012909D19BB1BCF1410F06D0BCF1400FED
:1014E00006D11846FFF7DCBB70471A78012A04D0F2
:1014F00001210020044AFFF7E3BA0133F1E718465F
:10150000024AFFF7DDBA00BFD4740210C0740210A3
:101510002DE980489BB008F0A7FAB84802F01CFEFD
:10152000B74B1870002800F0C681B648FFF72EFAB6
:1015300000230822B44CC4E90033C4F80730A27178
:1015400008F0A0FA002800F0B8814AF60123002034
:1015500001A9ADF80430002508F022F9AB4EAC4FDC
:10156000DFF8E082DFF8E09200214FF0FF3007F073
:10157000ADF901F01DFE0AA802F054F89DF82E30D6
:10158000002B40F09780A34A1178002940F0898110
:101590003378002B40F01B810AA802F043F83B7817
:1015A0002BB19D4B189A1B689A4200F04F8107F0AF
:1015B000F3F838B3002007F0F3FE18B30B234FF015
:1015C000010A0AA902A8CDE905A3FEF715FE039BAF
:1015D000029A0893049B02A805A90792099302F0B6
:1015E00095F8DDE902239B1A402B32D022B10499F1
:1015F0001046891A05F010F8079818B10999091AC8
:1016000005F00AF804F0AEFB00294ED04FF47A72D0
:10161000002325F0BDFD98F8003033B1D9E900234F
:10162000904275EB030380F04B817C4B1A78002AC3
:101630009AD07B4AD2E90012884275EB020293D31A
:101640001D7007F0B9F8322004F060FA07F0BEF818
:101650008AE70321002007F0BFFE029A0028C5D0C8
:101660006D4B1898049918606E4B9DF82E0087F802
:1016700000A018706C4B9DF82D0018706B4B9DF8F6
:10168000290018706A4B9DF82A001870694B9DF864
:101690002B001870684B9DF82C001870002AABD0F6
:1016A0001046891A04F0B8FFA6E7644BA3FB00308C
:1016B0008009B0E7624918980B6898423FF468AF18
:1016C0006FF07E0B9DF831309DF832A0803B9DF885
:1016D00033E0AAF1800A5B459DF834C0B8BF5B4691
:1016E000AEF1800EDA45ACF1800CB8BFDA46DE45CB
:1016F000B8BFDE46DC45B8BFDC469DF8372084F82D
:1017000003C002F00F0CBCF1070F28BF4FF0070C0D
:101710002370BDF8353012F0200FA380C2F3001300
:1017200018BF43F0020312F0400F18BF43F0040348
:1017300012069DF838200CF1010C48BF43F0080355
:1017400084F806C002F0010C43EA0C1312F0020FF9
:1017500018BF43F0200312F0040F18BF43F04003FA
:1017600012F0080F18BF43F0800312F0400F18BFAB
:1017700043F4807312069DF8392048BF43F4007388
:1017800012F0100F18BF43F4806312F0200F02F024
:10179000010C18BF43F4006343EA0C3312F0020F4C
:1017A00018BF43F40053520748BF43F480431A0A5A
:1017B0004FF0000CE37101232272164A84F801A055
:1017C00084F802E008603370A4F809C0137006F0D2
:1017D000E3FF00283FF4E0AE002007F0E1FD002821
:1017E0003FF4DAAE0B2310210020074A07F0F4FD86
:1017F00000283FF4D1AE3570CEE600BFA8360020F9
:10180000AA74002008750210F0360020AE74002083
:10181000AB740020AC740020FC360020AD740020B6
:1018200080310020B0740020B4740020B274002015
:10183000B3740020AF740020B1740020D34D621047
:1018400000370020A9740020783100201F4B9DF83C
:101850002E201B789A427FF4AAAE1D4B9DF82D20B6
:101860001B789A427FF4A3AE1A4B9DF829201B786F
:101870009A427FF49CAE184B9DF82A201B789A421E
:101880007FF495AE154B9DF82B201B789A427FF480
:101890008EAE134B9DF82C201B789A427FF487AEB6
:1018A000B0E608200121C4E900331370C4F8073002
:1018B000A07131708BE70B4838E601F0CBF944E6B4
:1018C0000021084688F8005004F08AFBB07400201C
:1018D000B4740020B2740020B3740020AF740020F0
:1018E000B1740020F07402100149024802F022BCD9
:1018F000082A0020A836002000487047B4BC021017
:1019000000487047C8BC02100048704790BC0210E5
:1019100030B58DB058B940F209434FF4417E264DA1
:101920006B802549A5F800E008460DB030BD0328BE
:1019300022D03FD8214B53F820100029F4D008467C
:10194000019124F0FFFE2028044628BF202404F142
:10195000010E4FEA4E0E0199174D4EF4407E0028BD
:10196000DFD028464A1E931C5B1A12F801CF9C4216
:1019700020F802CFF7D8D4E72122002102A825F0D1
:1019800017FC212102A806F065FC02A824F0DAFE6B
:10199000094D40B12A4602AB1C1813F8011B9C42AA
:1019A00022F8021FF9D100F1010E4FEA4E0E4EF45B
:1019B000407EB6E70021B7E7D033002080BC02109C
:1019C0001A4A1368032B24D90268194BC3F8122052
:1019D0008288DA82174B1968EFF3108272B6D1E869
:1019E000CFCF0120BCF1000FF9D1C1E84C0FBCF101
:1019F000000FF4D1BFF35F8F4FF0010C0E485A6017
:101A000000211B6880F807C0C3E88F1F82F310888D
:101A1000704703EB430C013305491360036841F839
:101A20001C30838801EB4C018B80D3E7D437002036
:101A3000BC37002010370020142A00201B4B1B78D5
:101A400093B11B4B1B787BB11A4B1A7862B91A4AB7
:101A500012784AB9194A128832B9082010B513F021
:101A600027FF144B08B110BD7047154AD2F800C0CB
:101A7000EFF3108172B6DCE8CF4F5FF0010E002C5F
:101A8000F9D1CCE844EF002CF5D1BFF35F8F4FF0D4
:101A9000010C0C4C516084F803C0126883F800C03C
:101AA000C2E88F0F81F3108810BD00BFB974002009
:101AB000B5740020B7740020BA740020867400202A
:101AC00010370020142A002038B5284C2368002B3A
:101AD00024DB274B1968EFF3108272B6D1E8CFCF21
:101AE0000120BCF1000FF9D1C1E84C0FBCF1000F8F
:101AF000F4D1BFF35F8F1F4918685A600B8843B158
:101B00001D4B93F805C0BCF1000F02D01B78032BCE
:101B100005D00023C0E88F3F82F3108838BD002332
:101B2000C0E88F3F82F310882368088803EB8302A4
:101B3000C3EB02121D46114B01321A4431214D23D1
:101B40001AF040F90028E9D10D4A1368834207DBF7
:101B500003EB8301C3EB011308490B4483F84E00E8
:101B60004FF0FF331560236038BD00BF0C2A002002
:101B70001037002086740020142A00201837002017
:101B8000102A00202DE9F041DFF84881064698F838
:101B9000004082B07CB9444F3B687BB1434D02E0CA
:101BA0003B689C420AD2294630460DF001FB0134C5
:101BB00006350028F4D13E4B1B781BB1002002B043
:101BC000BDE8F0813B4C2378002B65D13A4F3A6851
:101BD000EFF3108372B6D2E8CF0F01210028FAD1BB
:101BE000C2E8401F0028F6D1BFF35F8F00252570A3
:101BF000324C3A687B60E570C2E88F5F83F31088EF
:101C00003068B3880090012168462D4AADF8043051
:101C100019F048FA50B12B4B98F80020C3E9005551
:101C20009D60002ACAD0FFF709FFC7E70020002106
:101C3000254BC3E9000104F095F800292FD04FF49B
:101C40007A72002325F0A4FA42F210731F4AC018DA
:101C500010604FF000034FF00100154D39682870F7
:101C600043EB03055560EFF3108272B6D1E8CF6FF6
:101C70000125002EFAD1C1E8465F002EF6D1BFF350
:101C80005F8F39687A6020712070C1E88F3F82F3DE
:101C9000108802B0BDE8F08113F028FE96E70C4BE7
:101CA000A3FB00308009CFE7D4370020BC370020E9
:101CB000BA740020B774002010370020142A0020C6
:101CC00086740020043700208831002090310020E5
:101CD000D34D6210B97400202DE9F843002100268D
:101CE0000027734B734D744C9E227448C3E9006700
:101CF0002970C4E9006725F05BFA4FF0FF3300213B
:101D00006F4ADFF8EC8113606E4A13606E4B1970F6
:101D10006E4BC3E90067D8F80030EFF3108272B65B
:101D2000D3E8CF6F0120002EFAD1C3E8460F002E72
:101D3000F6D1BFF35F8F664FDFF8B891654EC8F8F4
:101D40000420D7E9003213433180A9F8041089F840
:101D500006106CD189F80210042389F80030D8F8F5
:101D600000200023C2E88F3FD8F8042082F31088B7
:101D7000594AC2E900339360D7E90032134314D1C2
:101D8000564B1B68002B00F0888003F0EBFF002906
:101D90007DD1534BA3FB003080090023FA3043F17F
:101DA000000320606360BDE8F88303F0DBFF0029D7
:101DB00067D14B4BA3FB003080090023D7E9001209
:101DC00088429341DCD2474B1B78002BEBD0464B2B
:101DD0001B78002BE7D0454C2378002BE3D12B78E0
:101DE000002BE0D13388002BDDD1082013F060FDFB
:101DF0000028D8D1D8F80020EFF3108372B6D2E8CB
:101E0000CF5F0121002DFAD1C2E8451F002DF6D188
:101E1000BFF35F8F0122D8F80010C8F80430227099
:101E200089F80320C1E88F0F83F31088BBE703F024
:101E300099FF01BB2A4BA3FB0030800900213B68BE
:101E40007A689842914134BF01210021134389F8F7
:101E5000021081D003F086FF29B34FF47A72002379
:101E600025F096F9D7E90012002388429341BFF488
:101E700073AF022371E74FF47A72002325F088F9DB
:101E8000DCE74FF47A72002325F082F995E74FF4EE
:101E90007A72002325F07CF97FE700220023C4E951
:101EA0000023BDE8F8830E4BA3FB00308009D9E77F
:101EB00090310020BA7400208831002018370020AB
:101EC000102A00200C2A0020BB740020983100202A
:101ED000A03100208674002004370020D437002071
:101EE000D34D6210B9740020B5740020B77400207F
:101EF00010370020142A0020042800D07047002A40
:101F0000FCD02DE9F0431C461346127895B0602AA8
:101F100000F0B38010D8162A00F0A381332A00F015
:101F20007981072A05D1AA4A1546927A002A40F0FB
:101F3000D08115B0BDE8F083DD2A00F00F81EF2AD3
:101F400000F0EA80DC2AF4D1A24A1278002AF0D00C
:101F5000A14A1278002AECD11A7C002A40F0F385BD
:101F60005A7E002A00F052859C7E082C40F24E8555
:101F700003F11B02164603F1130EA64412F8011BCF
:101F800001F12000C0B2A1F1410CBCF1190F98BFC2
:101F90000146642940F0FA84117801F12000C0B2B2
:101FA000A1F1410CBCF1190F98BF0146752940F011
:101FB000ED84517801F12000C0B2A1F1410CBCF1D7
:101FC000190F98BF0146612940F0E084917801F132
:101FD0002000C0B2A1F1410CBCF1190F98BF01461D
:101FE0006C2940F0D384D17801F12000C0B2A1F176
:101FF000410CBCF1190F98BF0146732940F0C6840B
:10200000117901F12000C0B2A1F1410CBCF1190F0E
:1020100098BF0146652940F0B984517901F120004B
:10202000C0B2A1F1410CBCF1190F98BF01466E2955
:1020300040F0AC84917901F12000C0B2A1F1410CD3
:10204000BCF1190F98BF0146732940F09F84D179E4
:1020500001F12000C0B2A1F1410CBCF1190F98BFF1
:102060000146652940F09284981C062207A90DF0CC
:10207000F3F807A8FFF786FD5BE79C78022C00F0D9
:10208000E981002C7FF455AF9FED4F7B534B544AB1
:102090001C70504B82ED007B1C704F4B21461C7016
:1020A000504B9E221C80504B50481C80504B83ED5F
:1020B000007B504B83ED007B25F07AF84FF0FF3228
:1020C0009FED417B4C494D48414B0A6002604C4AB0
:1020D000C3E9004414709C604A4A4B4B82ED007B7C
:1020E0001968EFF3108272B6D1E8CFCF0120BCF1AE
:1020F000000FF9D1C1E84C0FBCF1000FF4D1BFF3D0
:102100005F8F424918685A60C1F801400C70C0E8FE
:102110008F4F82F310880CE79A78013A0C2A3FF629
:1021200008AF01A151F822F019270010B7250010BF
:102130008F250010331F0010331F0010331F0010B5
:10214000331F0010331F0010331F0010331F001007
:1021500073250010DF280010972800102A4A136802
:10216000EFF3108172B6D3E8CF4F0120002CFAD1E3
:10217000C3E8440F002CF6D1BFF35F8F0023244C3B
:102180002248516023701268C370C2E88F3F81F308
:102190001088104B1B78002B3FF4CBAE0E4B1B78F6
:1021A000002B7FF4C6AE0A4A937A15461BB1D37A48
:1021B000002B00F0BA840023C5E90033AB6015B0F2
:1021C000BDE8F043FFF73ABC00000000000000004B
:1021D00004370020B9740020BA740020B5740020C0
:1021E000A03100208674002084740020183700205D
:1021F0008831002090310020102A00200C2A002075
:10220000BB7400209831002010370020142A0020D1
:10221000B77400208A4C062207A9981C0F460DF0BF
:102220001BF8D4E90032134340F0F780854C236853
:10223000002B00F045840023834903E02268934289
:1022400080F03E843846CDE900130CF0B1FF019BCD
:102250000099013306310028F0D1384613F0ECFB29
:1022600067E6774C062207A9981C0F460CF0F4FF8E
:10227000D4E9003213431BD1724C2368002B00F0C9
:102280001A840023704903E02268934280F013848B
:102290003846CDE900130CF08BFF019B0099013308
:1022A00006310028F0D13846684913F07FFB40E63C
:1022B00003F058FD002900F021844FF47A720023C6
:1022C00024F066FFD4E90012002388429341D3D260
:1022D000E9E707A9D81C062200930CF0BDFF2946A8
:1022E00007A80CF065FF00287FF423AE009B9A78C6
:1022F000002A40F0D883092C40F2D58303F108016D
:10230000A4F1090011F8014F002C00F046840132BD
:102310008242F7D1082840F2C68303F1090216462B
:1023200003F1010C844412F8011B01F1200E5FFA45
:102330008EFEA1F14104192C98BF7146642940F02A
:102340008783117801F1200E5FFA8EFEA1F141041E
:10235000192C98BF7146752940F07A83517801F1A4
:10236000200E5FFA8EFEA1F14104192C98BF714630
:10237000612940F06D83917801F1200E5FFA8EFEA5
:10238000A1F14104192C98BF71466C2940F060837B
:10239000D17801F1200E5FFA8EFEA1F14104192CD3
:1023A00098BF7146732940F05383117901F1200ED3
:1023B0005FFA8EFEA1F14104192C98BF7146652980
:1023C00040F04683517901F1200E5FFA8EFEA1F1B3
:1023D0004104192C98BF71466E2940F039839179D8
:1023E00001F1200E5FFA8EFEA1F14104192C98BF75
:1023F0007146732940F02C83D17901F1200E5FFAE8
:102400008EFEA1F14104192C98BF7146652940F058
:102410001F830F48FFF7B6FB8BE503F0A3FC0029F1
:1024200000F072834FF47A72002324F0B1FED4E9F5
:102430000012002388429341FFF40FAFF6E600BF7D
:10244000A0310020D4370020BC3700204475021092
:1024500004370020002301249FED997B9A4A0090C5
:10246000C2E900339360994A99489A4913709A4B8C
:102470009A4A0470204682ED007B81ED007B83ED5B
:10248000007B13F001F8002012F0C4FF944813F011
:10249000CBF942F2085012F093FE052012F09EFE96
:1024A000002013F0FDFA03200FF038F900200FF0A0
:1024B0003DF98C4AD2F800C0EFF3108072B6DCE828
:1024C000CF3F5FF0010E002BF9D1CCE843EF002B9A
:1024D000F5D1BFF35F8FD2F800C050600099824AF7
:1024E0000023C2F801401170CCE88F3F80F31088C0
:1024F0007E4A7F4CC2E90033C2E90233C2E90433A9
:102500007C4A04A82360136004930EF06BFA002841
:1025100000F0DE820023CDE9083307930593ADF880
:102520000E30ADF818300A9307AF2368032B00F282
:10253000CC823A460DF10E0305A904A80EF05EFA0E
:10254000002800F0C28223687BB10023674905A8F8
:10255000CDE900130CF02CFE019B009901330631EC
:102560000028E2D022689342F1D305A8FFF728FAA9
:10257000DBE75B79002B3FF4DCAC5F4B188800286D
:102580003FF4D7AC15B0BDE8F04318F00DBE1846C7
:1025900003210CF017FE594B1A88824200F0EF829B
:1025A000554B1B8813B198427FF4C3AC15B0BDE8FE
:1025B000F043FFF791BB5D79002DF7D10321184659
:1025C00000930CF0FFFD044606224B49009B0C8053
:1025D000474C981807A90795ADF820500CF03CFE21
:1025E000236807AF002B00F0CE822B463F4903E063
:1025F0002268934280F0C7823846CDE900130CF080
:10260000D7FD019B0099013306310028F0D100204D
:102610000021314BC3E9000103F0A4FB002900F0C5
:10262000B6824FF47A72002324F0B2FD8446002370
:1026300042F21070324A29492A4D2E4C13701CEB7D
:10264000000243EB03000A604860A8462968236043
:10265000EFF3108272B6D1E8CF4F0120002CFAD1EF
:10266000C1E8440F002CF6D1BFF35F8F1E49194C0F
:102670000E460B71D4E9001001436A6040F0958268
:1026800000240121B370A6F80540D8F8003031705D
:10269000C3E88F4F82F310889E222146194824F008
:1026A00087FD4FF0FF3300200021174A174D1360BC
:1026B0002B60174A174B1470C3E9000139E400BFBF
:1026C000000000000000000004370020B974002062
:1026D000B5740020A0310020883100209031002006
:1026E0003075021010370020142A0020BC3700205B
:1026F000D4370020B837002086740020847400206E
:10270000BA74002018370020102A00200C2A00205C
:10271000BB740020983100200321184600930CF070
:1027200051FD009B8146597B00297FF402AC9D4CF2
:102730000622581D0791ADF8201007A90CF08CFD5A
:10274000D4E90032134307AF40F04B82964C236824
:10275000002B00F064820023944903E02268934236
:1027600080F05D823846CDE900130CF021FD019B1D
:102770000099013306310028F0D18D490B78002BE8
:1027800040F046828B48054680460368EFF310828E
:1027900072B6D3E8CFCF0120BCF1000FF9D1C3E866
:1027A0004C0FBCF1000FF4D1BFF35F8F0023824EBA
:1027B0000B706A602968F370C1E88F3F82F310885C
:1027C00001217E4A2868A2F800907D4A1170EFF33B
:1027D000108272B6D0E8CFEF5FF0010CBEF1000FAF
:1027E000F8D1C0E84ECFBEF1000FF3D1BFF35F8F39
:1027F00031716A602968C1E88F3F82F310882268CE
:10280000002A00F0E681694903E02268934280F0E3
:10281000E0813846CDE900130CF0CAFC019B009919
:10282000013306310028F0D10121484618F0DAFBC7
:10283000002840F0D28103F095FA4FF47A72002913
:1028400000F0F281002324F0A3FC034642F2107151
:1028500000225C485B18036042EB0203D8F80010CA
:102860004360EFF3108372B6D1E8CF4F0120002C04
:10287000FAD1C1E8440F002CF6D1BFF35F8F0120DD
:10288000D8F80010C8F804303070C1E88F2F83F3F7
:102890001088FFF74EBB474A1068EFF3108172B6FD
:1028A000D0E8CFCF0124BCF1000FF9D1C0E84C4FE4
:1028B000BCF1000FF4D1BFF35F8F51605B793E4CE8
:1028C000B3FA83F35B09002012686371C2E88F0FCB
:1028D00081F3108815B0BDE8F043FFF7F5B8052186
:1028E000184600930CF06EFC00283FF422AB009BCE
:1028F000DA79A12A00F05481312A7FF41AAB02461A
:10290000D91D07A801F07EFF2A4880460368EFF32F
:10291000108472B62546D3E8CF1F01220029FAD1D0
:10292000C3E8412F0029F6D1BFF35F8F079B4460B6
:10293000002B40F068810123DFF87CE000208EF856
:102940000630032300218EF800301E4B0DF1200CC1
:102950000EF10804C3E90001BCE80F000FC4BCE895
:102960000F000FC49CE80F0007C424F8023B1B0CA7
:102970002370DEF838300133CEF838300023D8F831
:102980000020C2E88F3F85F31088A3E796457FF4C7
:10299000F5AA122C3AD903F12D0526440A4CA5F1CB
:1029A000130C16E0A0310020D4370020BC370020E3
:1029B000B774002010370020142A002086740020ED
:1029C000BA740020903100204C75021065453FF428
:1029D0004BAB1CF8012F217802F12000A2F1410E2F
:1029E000C0B2BEF1190F98BF024601F12000A1F15B
:1029F000410EC0B2BEF1190F98BF0146914204F1D9
:102A00000104E3D06A1C96421546C7D1894CA27ACC
:102A1000002A7FF48EAA1846092100930CF0D8FBF7
:102A200000F4F852B2F5A06F009B7FF482AA981CC4
:102A3000062221460CF010FC009B0C211A7A184645
:102A4000A2710CF0BFFB012320816381FFF771BAF3
:102A500094457FF468AC122825D903F11B02064483
:102A6000754BA2F1130C02E094453FF4D2AC1CF874
:102A7000011F187801F12004A1F1410EE4B2BEF16A
:102A8000190F98BF214600F12004A0F1410EE4B2D5
:102A9000BEF1190F98BF2046884203F10103E3D02D
:102AA0000132B242DCD10023C5E90033AB60FEF74E
:102AB000C5FFFFF73EBA384612F0A4FFFFF739BA58
:102AC000384612F0D3FFFFF734BA04A80DF0AAFF7E
:102AD0002368F3B10023594A136003F043F9F9B1B5
:102AE0004FF47A72002324F053FB0023544AFA3047
:102AF00043F1000310605360FFF71BBA514BA3FB77
:102B000000308009FFF7DEBB4E4BA3FB003080098D
:102B10008DE4002200234A49C1E90023FFF709BAE6
:102B2000484BA3FB00308009DFE7012312892846C8
:102B3000A97942F40042EB7212F016FF00283FF42C
:102B4000F8A9FFF738BB1846132100930CF03AFBA5
:102B50001521044600980CF035FB40F24C5294428B
:102B6000009B7FF4FDA940F6E64290423FF47CAA28
:102B700040F6F25290427FF4F3A9FFF775BA0022B3
:102B80001A80FFF7D6B93846FEF71AFF3FE52D4BFE
:102B9000A3FB00324FEA921C49E51046FFF7BABB8F
:102BA00001283FF4C6A91A7AA6E603F0DBF84FF431
:102BB0007A7289B3002324F0EBFA034600212268DD
:102BC00093426368D8F80420994134BF012300235D
:102BD00056E53846FEF7F4FE26E6FFF77DF8FFF7E8
:102BE000A8B903F0BFF84FF47A7201B3002324F0C0
:102BF000CFFA0346D4E90001002283428A41BFF4A0
:102C0000A5AD114CB9E5114AD36B0133D363B5E6D9
:102C100012F06CFE0E49B5E5B0FBF2F3CEE7484684
:102C200018F006FAFFF785B9B0FBF2F30EE6B0FB39
:102C3000F2F3DFE7043700204C750210B8370020AC
:102C400088310020D34D6210D4370020142A002090
:102C5000B774002008B5104B1A7802B108BD0F48B0
:102C600002F09EFB01220C4B0D491A700A8013F0F2
:102C7000CBFF4FF400610B4818F08EF90A4818F0AA
:102C8000ABF90A48084B43600EF0A0F9BDE80840D4
:102C9000012012F0B1BA00BFB67400201037002036
:102CA000142A0020E0370020F91E0010D837002039
:102CB0002DE9F041674B92B01C7814B1664B1C783B
:102CC0001CB9204612B0BDE8F08103F04BF8002992
:102CD0007CD1624BA3FB0030830900266049614A26
:102CE0005B181360604B4FF00105C3E901661E607D
:102CF00046F100035360002200235C485C490570E4
:102D00002846C1E9002312F0BFFB2846594D12F0B6
:102D100081FB2B68EFF3108772B6D3E8CF1F012237
:102D20000029FAD1C3E8412F0029F6D1BFF35F8F04
:102D3000DFF848E10DF1080CBEE80F00ACE80F0029
:102D4000BEE80F00ACE80F00BEE80F00ACE80F00D3
:102D50009EE80F006F608CE80F002B68C3E88F6F50
:102D600087F31088444E308838B19DF80830032B23
:102D700003D09DF80E1000292FD02A68EFF310839E
:102D800072B6D2E8CF0F01210028FAD1C2E8401F65
:102D90000028F6D1BFF35F8F012238496B608A703B
:102DA0000A78032A1CBF02220A7000222968C1E89F
:102DB0008F2F83F310883388002B82D1304B1B7800
:102DC000002B7FF47EAFFEF739FE7AE700234FF445
:102DD0007A7224F0DDF903467FE700274FF0000800
:102DE000284B0191188018F0DFF90199244B9E229D
:102DF0001970254B2548C3E90078318024F0D8F9B3
:102E00004FF0FF32224B01991A60224B1A60224B7D
:102E10002A681970214BC3E90078EFF3108372B66A
:102E2000D2E8CFCF0120BCF1000FF9D1C2E84C0F9E
:102E3000BCF1000FF4D1BFF35F8F02220F486B602B
:102E4000027081802A688171C2E88F1F83F3108825
:102E500093E700BFB6740020B5740020D34D621014
:102E6000E0930400A031002004370020B974002052
:102E7000883100201037002086740020142A00209A
:102E8000BA7400208474002090310020183700208C
:102E9000102A00200C2A0020BB740020983100204A
:102EA00070B540F6B734531E9BB2A3429AB003D913
:102EB000002420461AB070BD4FF0000C8DF80E10A3
:102EC0004FF001013A4B8DF80D00CDF80FC0186896
:102ED000CDF813C08DF80C10EFF3108172B6D0E866
:102EE000CFEF0124BEF1000FF9D1C0E84E4FBEF183
:102EF000000FF4D1BFF35F8F2E48596000881B6824
:102F000028B12D48447914B10078032805D0002257
:102F1000C3E88F2F81F31088CAE7C3E88FCF81F30E
:102F20001088264B1B686345C2DA254B25491B6870
:102F30001646B3FA83F30A785B0902F1010C81F8B3
:102F400000C006A802F00F0203A9019301F0D4FC0F
:102F5000019B1D4803EB830CC3EB0C1C00EB0C0521
:102F60004E22284606A924F0D7F82B464FF001053B
:102F7000124A83F84E50019B1360FEF7A5FD134BD8
:102F80001D7002F0EFFE71B14FF47A72002324F04D
:102F9000FFF80F4930184FF00003086020465B41EE
:102FA0004B601AB070BD0B4BA3FB00308009F0E7FB
:102FB0001037002086740020142A00200C2A0020DC
:102FC000102A0020B874002018370020BB7400209D
:102FD00098310020D34D6210F0B59BB001248DF8DC
:102FE000122000228DF81000314803F01F03CDF8A5
:102FF00013208DF81110039201688DF814308DF8AC
:1030000013408DF80F40EFF3108372B6D1E8CF6F05
:103010000125002EFAD1C1E8465F002EF6D1BFF39C
:103020005F8F016843602348008810B122484579CA
:1030300045B90022C1E88F2F83F310880025284668
:103040001BB0F0BD00780328F3D1C1E88F2F83F3C4
:1030500010881A4E33689342F0DA194BDFF868C0D3
:103060001B689CF80020B3FA83F302F1010E03A958
:1030700006A85B0902F00F028CF800E0019301F052
:103080003BFC019B0F4803EB830CC3EB0C1C00EBD8
:103090000C074E2206A9384624F03EF8019B87F81B
:1030A0004E403360FEF710FD28461BB0F0BD00BF58
:1030B0001037002086740020142A00200C2A0020DB
:1030C000102A002018370020B8740020F0B5002323
:1030D00001242F4A9BB0166803938DF816008DF8D3
:1030E000154004938DF81430EFF3108172B6D6E8D2
:1030F000CF5F0120002DFAD1C6E8450F002DF6D193
:10310000BFF35F8F234851600088126810B12248D6
:10311000457945B90023C2E88F3F81F31088002527
:1031200028461BB0F0BD00780328F3D1C2E88F3FDA
:1031300081F31088194E3368002BF0DA184BDFF852
:1031400068C01B689CF80020B3FA83F302F1010EFB
:1031500003A906A85B0902F00F028CF800E00193B6
:1031600001F0CAFB019B0F4803EB830CC3EB0C1C63
:1031700000EB0C074E2206A9384623F0CDFF019B39
:1031800087F84E403360FEF79FFC28461BB0F0BD29
:103190001037002086740020142A00200C2A0020FA
:1031A000102A002018370020B8740020000000000A
:1031B000834B1B78002B00F0E0802DE9F041814C1F
:1031C00098B0D4E90032134300F0BF8002F0CAFD8A
:1031D000002900F0B7814FF47A72002323F0D8FF62
:1031E000D4E900120023884273EB0202C0F0CC80C5
:1031F0009FED717B744A75497548C2E900330370CD
:1032000093600B7884ED007B002B40F0B081714C13
:103210002368EFF3108272B6D3E8CF5F0120002D50
:10322000FAD1C3E8450F002DF6D1BFF35F8F00251B
:10323000694B206862600D70DD70C0E88F5F82F3BB
:103240001088284612F0E6F82168EFF3108272B673
:10325000D1E8CFCF0120BCF1000FF9D1C1E84C0F6C
:10326000BCF1000FF4D1BFF35F8F5B4B6260197844
:103270009D70022901D10421197000232168C1E841
:103280008F3F82F31088554CD4E90032134367D046
:1032900002F068FD002971D1514BA3FB0030800979
:1032A0000025D4E90023904275EB030358D3494825
:1032B0000368EFF3108772B6D3E8CF1F012200290D
:1032C000FAD1C3E8412F0029F6D1BFF35F8F06463C
:1032D000DFF804E10DF1100C4760BEE80F00ACE828
:1032E0000F00BEE80F00ACE80F00BEE80F00ACE82E
:1032F0000F009EE80F008CE80F003368C3E88F5F73
:1033000087F310889DF81630002B40F02581354B4F
:10331000188828B300220023C4E9002317F044FFD3
:103320001EE0314B1B78002B40D002F01BFD002922
:1033300000F0AA804FF47A72002323F029FFD4E929
:10334000001200238842934105D3284CD4E900326F
:10335000134340F09E80214CD4E90032134397D1AF
:10336000234C237823B1234DD5E90032134343D1B5
:1033700018B0BDE8F041FEF7A7BB70474FF47A7272
:10338000002323F005FF8BE702F0ECFC002976D048
:103390004FF47A72002323F0FBFED4E900210023CE
:1033A00090428B41BDD30A43CFD0BEE7FEF746FB28
:1033B000D1E700BFAFF30080000000000000000074
:1033C000B6740020A031002004370020B77400201C
:1033D000B974002010370020142A002090310020FA
:1033E000D34D621086740020BA740020883100200A
:1033F000BB7400209831002002F0B4FC002900F0DA
:10340000A6804FF47A72002323F0C2FED5E90012A1
:103410000023884273EB0202AAD34FF00101724AE3
:10342000CDF805301068CDF80930ADF80D308DF8C5
:103430000410EFF3108172B6D0E8CFEF5FF0010C0B
:10344000BEF1000FF8D1C0E84ECFBEF1000FF3D1AE
:10345000BFF35F8F654851600088126848B16448C7
:1034600090F805C0BCF1000F03D00078032800F0ED
:1034700082800023C2E88F3F81F3108878E75D4B9C
:10348000A3FB0030800988E75A4BA3FB003080097A
:1034900055E702F067FC002963D1564BA3FB0030CF
:1034A00080090023D4E9001288429341FFF453AF0E
:1034B000514B1B78002B7FF44EAF4C4B1B88002BDD
:1034C0007FF449AF002000214C4BC4E900011B7878
:1034D000002B3FF440AF4A4B1B78002B7FF43BAFEF
:1034E000484D49492B680A68934218D2474903EB73
:1034F000430251F8120001EB420CBCF80420049086
:10350000013304A8ADF814202B60FEF73BFB002824
:103510007FF421AF3C492B680A689342E6D302F05E
:1035200021FC00295BD000234FF47A7223F030FE97
:103530000346002213F5FA63236042F1000363603F
:103540002A6008E72B4BA3FB0030800948E6294B93
:10355000A3FB0030800959E700220023C4E90023BF
:10356000FEE64FF47A72002323F012FE99E712F080
:10357000BDF927494BE6C2E88F3F81F31088254FFC
:103580003A68002ABFF6F4AE234A2449126804A818
:10359000B2FA82F60A78760902F1010C81F800C0CD
:1035A00002F00F0201A901F0A7F91D4806EB860CF5
:1035B000C6EB0C1C00EB0C0804A94E22404623F07D
:1035C000ABFD4FF001023E6088F84E20FEF77CFA1A
:1035D000002000210023C5E900012370C8E64FF454
:1035E0007A72B0FBF2F3A4E7103700208674002053
:1035F000142A0020D34D6210BA740020B574002044
:10360000B9740020B8370020D4370020BC37002020
:10361000B77400200C2A0020102A0020B874002063
:1036200018370020F0B5164C05462368EFF31086D6
:1036300072B6D3E8CF1F01220029FAD1C3E8412F87
:103640000029F6D1BFF35F8F8446DFF838E066606B
:10365000BEE80F00ACE80F00BEE80F00ACE80F00BA
:10366000BEE80F00ACE80F009EE80F0000278CE8D2
:103670000F002368C3E88F7F86F310882846F0BDCB
:1036800010370020142A0020D0E90010884239D0D9
:103690004FF0FF3300B51C4A1944184411F801EFEC
:1036A0008EEA030E4EF300034EF3400C134083EA00
:1036B0005E030CEA020C8CEA530C43F340034CF318
:1036C000400E134083EA5C030EEA020E8EEA530EAC
:1036D00043F340034EF3400C134083EA5E030CEACD
:1036E000020C8CEA530C43F3400313404CF3400E9E
:1036F00083EA5C0381420EEA020C8CEA5303CDD1CB
:10370000D84300BD002070472083B8ED2DE9F04379
:10371000D1E90232D61A302E054683B007DD0023E8
:10372000C0E900338360284603B0BDE8F083402041
:103730000F46019302F06CFF3E2204460021023046
:1037400023F036FD44F64D4222803A68019BC4F8CE
:1037500002203A79E671A271002E46D0721E052A27
:1037600040F2A780C3F108022244022A40F2A1805D
:103770001A68C4F80920B208012A00F0A580596827
:10378000022AC4F80D1000F082809968032AC4F858
:1037900011107CD0D968042AC4F8151077D01969A3
:1037A000052AC4F8191072D05969062AC4F81D10E8
:1037B0006DD09969072AC4F8211068D0D969082A00
:1037C000C4F8251063D0196A092AC4F829105ED0FC
:1037D000596A0A2AC4F82D1059D0996A0C2AC4F8DB
:1037E000311054D1DB6AC4F8353006F10907384688
:1037F00002F00EFF214606463A46814623F08CFC35
:103800004FF0FF3306EB070C32499C44F01810F8D8
:10381000016F5E4046F3000E0EEA010E46F34003D0
:103820008EEA560E0B4083EA5E034EF3400E0EEA1C
:10383000010E8EEA530E43F340030B4083EA5E030E
:103840004EF3400E0EEA010E8EEA530E43F3400390
:103850000B4083EA5E034EF3400E0EEA010E8EEA41
:10386000530E43F340030B40604583EA5E03CED121
:10387000DB434846E351394602F0CEFE284604F1C8
:103880004003C5E901332C6003B0BDE8F083B10704
:1038900026F00302A9D0985CA1184872501C8642F9
:1038A000A3D9185C0232964288729ED99B5CCB7277
:1038B0009BE7013B04F10802F01813F8011F834253
:1038C00002F8011FF9D190E71A79052062730422EA
:1038D000A118E6E72083B8ED0346002201202DE978
:1038E000F04182B0C3E90122C3E903221A605A61A0
:1038F0001871D1E90042121B3F2A187204DC1860CB
:10390000184602B0BDE8F081402A05D005221846CD
:103910001A6002B0BDE8F08122784D2A05D002225B
:1039200018461A6002B0BDE8F08162784C2AF6D1E0
:10393000A278012A02D003221A60E1E7B4F8072036
:10394000302A174602D904221A60D9E7A118887ACA
:103950004A7A009342EA0022C87A097B42EA00428E
:1039600007F1090042EA016802F052FE07F109027C
:103970000646214623F0D0FB4FF0FF3207F1090342
:1039800006EB030E3248009B964406EB020C1CF833
:10399000011F514041F30002024082EA510241F30B
:1039A0004001014081EA520142F34002024082EAB2
:1039B000510241F34001014081EA520142F34002C9
:1039C000024082EA510241F34001014081EA520182
:1039D00042F34002024082EA510241F340010140B9
:1039E000F44581EA5202D2D1304607F10901CDE90E
:1039F000002302F011FE009A019BD243904502D0B1
:103A000006221A607CE704F10C0139440A4611F8D9
:103A1000010F00287FF47AAF3E3AA242F6D1E27855
:103A20005A71A288DA80A2791A72002F3FF468AF27
:103A30003846009302F0ECFD06463A4604F10901CF
:103A400023F06AFB009BF219C3E903625A6157E74E
:103A50002083B8ED10B50446A446DFF818E0BEE8B0
:103A60000F00ACE80F009EE807008CE80700204636
:103A700010BD00BF50BD021070B50B780446012B7D
:103A80003ED1D1ED017A9FEDC07AF0EEE76AF4EE17
:103A9000476AF1EE10FA0DD8B7EE007AF4EEC77A65
:103AA000F1EE10FA06D4B0EE007AF4EEC77AF1EE39
:103AB00010FA2FDD00222120227002F0A9FD202320
:103AC0008646DFF8D8C200228EF82020C4E90233EF
:103AD000BCE80F00C4F804E0CEF80000CEF80410F3
:103AE000CEF80820CEF80C30BCE80F00CEF810005D
:103AF000CEF81410CEF81820CEF81C30204670BD39
:103B000000222120227002F083FD20238646DFF868
:103B100090C2D8E791F90830002B26DB91F90930E3
:103B2000002B22DB8B7A072B3ED8CB7A3C2B5CD840
:103B30000B7B022B7ED84B7B103B6F2B00F2A180BE
:103B40008B7B022B00F2C5804B7D0A2B00F2E680B6
:103B50000B7E012B00F20D8103460121002203F8A8
:103B60000C1BC0E901320273C8E700221920227041
:103B700002F04EFD182386460022DFF828C20276A6
:103B8000C4E902336060BCE80F00CEF80000CEF854
:103B90000410CEF80820BCE80300CEF80C30CEF8B4
:103BA0001000CEF81410A9E700221D20227002F0A8
:103BB0002FFD1C2386460022DFF8ECC10277C4E902
:103BC00002336060BCE80F00CEF80000CEF80410AD
:103BD000CEF80820CEF80C30BCE80700CEF8100074
:103BE000CEF81410CEF8182088E700232220237086
:103BF00002F00EFD212306468646644D6060E360B8
:103C0000AC460EF1100EBCE80F004EF8043C604BC1
:103C100010359C454EF8100C4EF80C1C4EF8082C34
:103C2000EED12B7821228EF800300023A26086F896
:103C3000213063E700221C20227002F0E9FC1B23E4
:103C400086460022DFF864C1C276C4E902336060B0
:103C5000BCE80F00CEF80000CEF80410CEF80C300F
:103C6000BCE80300BCF80030CEF80820AEF81830ED
:103C70009CF80230CEF81000CEF814108EF81A30EE
:103C80003CE700232720237002F0C2FC26230646CF
:103C90008646404D6060E360AC460EF1100EBCE815
:103CA0000F004EF8043C3C4B10359C454EF8100C70
:103CB0004EF80C1C4EF8082CEED1AB882622AEF83C
:103CC000043000232868CEF80000A26086F8263071
:103CD00014E700221F20227002F09AFC1E23864661
:103CE0000022DFF8CCC08277C4E902336060BCE810
:103CF0000F00CEF80000CEF80410CEF80820CEF861
:103D00000C30BCE80700BCF80030CEF81000CEF84C
:103D10001410CEF81820AEF81C30EFE60022202058
:103D2000227002F075FC1F238646DFF888C000224F
:103D30008EF81F20C4E90233BCE80F00C4F804E089
:103D4000CEF80000CEF80410CEF80820CEF80C30E3
:103D5000BCE80700BCF80030CEF81000AEF81C300C
:103D60009CF80230CEF81410CEF818208EF81E30D1
:103D7000C4E600222020227002F04AFC1F2386465F
:103D8000DFF834C0D3E700BFFFFF7F7FE475021088
:103D90000476021024760210447602108475021014
:103DA00060750210A8750210C47502100876021022
:103DB0004C7602106C7602108C7602109FED247AFD
:103DC000D1ED017A67EE877A0023FCFEE77A91F85D
:103DD00010C04A7C4FEA4C0C4CEA820CCA7B00B5FE
:103DE00042EA0C0291F800C0C0F80B30C0F80F3066
:103DF000C0F81330C3756CF3070391F812C091F843
:103E000016E042EACC0291F813C042EA0C1291F893
:103E100014C042EA4C1242EA8E128272D1F8092092
:103E200091F808C04260B1F80D2002814A7D02730A
:103E3000CA7D42730A7E827317EE902A62F30F23C3
:103E4000C2F3072262F317436CF31F63036000BDE4
:103E50000000C8422DE9F041D1E900E3A3EB0E03D5
:103E60000E2B074688B026DC002323203B7002F08F
:103E7000CFFB2223844605464D4E786006F1200E86
:103E8000FB60344610350FCC744506F1100645F83A
:103E9000100C45F80C1C45F8082C45F8043CF0D1F2
:103EA000338822222B8038460023BA608CF82230D7
:103EB00008B0BDE8F08101AD94462C463D4EDFEDE3
:103EC0003E6A0FCE0FC596E8070085E807000FCCC5
:103ED000CCF80000CCF80410CCF80C3003CC2378DC
:103EE000CCF80820CCF81000CCF814108CF818305E
:103EF0009EF800304FF000088CF80030BEF801301A
:103F0000384607EE903AF8EEE77A87EEA67A8CED1F
:103F1000017A9EF8033061468CF808309EF8043030
:103F20008CF809309EF805308CF80A309EF806307F
:103F30008CF80B309EF807308CF80C309EF8083067
:103F40008CF80D309EF809308CF80E30BEF80A302F
:103F500003F0010262F30708C3F3400262F30F2883
:103F6000C3F3800262F31748C3F3C00262F31F6811
:103F7000C3F300128CF81320C3F34012C3F3801371
:103F8000CCF80F808CF814208CF816309EF80C308A
:103F90008CF815309EF80D308CF817309EF80E30E6
:103FA0008CF81830FFF768FD384608B0BDE8F0819E
:103FB000AC76021050BD02100000C842F0B5D0E946
:103FC0000034A4EB030CBCF13F0F91B068DD93F813
:103FD00000C0BCF14D0F63D193F801C0BCF14C0F90
:103FE0005ED193F802C0BCF1430F59D193F803C0DE
:103FF000BCF1460F54D104460646202015460F4614
:10400000019302F005FBCDE90200019B00F12002C3
:104010000492D3F800E0D3F804C099680392DA68F8
:10402000C0F800E0C0F804C08160C2609969DA6934
:10403000D3F810E0D3F814C0C0F810E0C0F814C0F2
:104040008161C26193F8222093F82110120442EAA0
:10405000012293F8201093F823300A4342EA0363C5
:1040600002A80193FFF710FB019B83420BD00023B2
:10407000029828B104990193091A02F0CDFA019B24
:10408000184611B0F0BD216801F1230301F13F0290
:1040900001E0934208D013F8010F0028F9D0E6E7B9
:1040A0000023184611B0F0BD1820019102F0B0FABB
:1040B000019900F1180ECDF820E00690D1F808C063
:1040C000CB680C69CDF81CE0D1F814E0C0F800C052
:1040D00043608460C0F80CE0CB69D1F818C02A4670
:1040E0004361C0F810C006A909A8FFF7B3FE9DF808
:1040F00024305BB131684A798879120242EA004281
:104100000879C979024342EA01623A600A980CAA26
:10411000904205D00C990193013102F07DFA019B88
:1041200006980028A4D008990193091A02F074FA9D
:10413000019B9DE710B5044640F8041BFFF78AFC7D
:1041400004F12000FFF786FC0023C4E91033204669
:1041500084F83C3010BD00BF2DE9F0430025044633
:10416000006899B00368CDE904559B6804A90695D9
:10417000984720B1DDE904239B1A7F2B2DDC11A881
:10418000FFF768FC00230DF1440C84F83C30BCE8D8
:104190000F006060A16061682361A3682162E26032
:1041A000BCE803009CF8002063626061A161002606
:1041B000E36820696169A362A36921632277E062F1
:1041C000636384F83820049818B10699091A02F03C
:1041D00023FA304619B0BDE8F0830AA8FFF73AFC8D
:1041E000A9462E46049B402003EB8513009302F062
:1041F0000FFA07460246009B00F140010790099123
:1042000003F1400818681033009053F80C0C10327A
:104210000190009853F808EC53F804CC42F8100CC5
:104220000198434542F80C0C42F808EC42F804CCE3
:10423000E8D10023DFF8CCE00DF1440C08910393A2
:10424000BEE80F00ACE80F009EE807008CE807000E
:1042500011AA03A907A8FFF7B1FE28BB38464021E1
:1042600002F0DAF96B1C022B4FF00105BAD196B3BC
:1042700000230AAD2F4684F83C300FCD6060A1606A
:10428000236103CD2B78E2606061A161237784F81C
:104290003830C4F844900FCF20626162A26203CF2D
:1042A000E362206361638EE7039B8EB90DF1280CF6
:1042B0000DF1440E99460646BEE80F00ACE80F002B
:1042C0009EE80700ACE8030025648CF80020C5E7F1
:1042D0004B45C3D9EAE711A811ADFFF7BBFB0FCDE2
:1042E0006060A16023616168A3682162E26003CD20
:1042F000C4E910662A7884F83C6063626061A16159
:1043000055E700BF6CBD021030B50C4683B01146B6
:1043100000900192FFF7B0FB00980378ABB14FF02B
:10432000010C019A116853689568D2F80CE021627B
:104330006362A562C4F82CE0536911696363216369
:10434000137E84F83CC084F8383003B030BD00BF21
:104350002DE9F04390F83C30A9B023B90124204660
:1043600029B0BDE8F08300F12001054600F12007E7
:104370000AA8FFF781FB9DF82840002C00F0E78099
:104380006B6C2022002120A85C1C22F011FF784BCE
:1043900005F1200111A8CDE91834FFF70FFD1AAC83
:1043A0000DF1440CBCE80F000FC49CE8030084E846
:1043B0000300202002F02CF9844600F1200318AC01
:1043C000CDE9083307900FCCCCF80000CCF80410EE
:1043D000CCF80820CCF80C300FCCCCF81000CCF87E
:1043E0001410CCF81820CCF81C3007A8FFF74CF9B3
:1043F0002090079818B10999091A02F00DF92B6C51
:104400004020013303F0010802F002F900F14003FB
:1044100084461E46019003930DF1600E74460CF124
:10442000100C0FCC4CF8043C28AB9C420EF1100E43
:104430004CF8100C4CF80C1C4CF8082CEED12868E9
:10444000414603680296DB6801AA984704460028A3
:1044500077D00022286804A903689B68CDE904226C
:1044600006929847049B0446002864D00599C91A0F
:104470007F2979DD402003EB881402F0C9F8234638
:1044800000F14001814602460790099104F1400085
:104490001C68D3F804E02646D3F808C0DC68103363
:1044A00083421660C2F804E0C2F808C0D46002F18A
:1044B0001002EDD10023DFF8BCC011AC08910093CD
:1044C000BCE80F000FC49CE8070084E807006946B9
:1044D00007A811AAFFF772FD044638B36B6C5E1C87
:1044E000009B9E4242D10DF1440CE646BCE80F0011
:1044F0006860A960BCE803009CF800C0EA602B611A
:104500006861A96185F81CC0BEE80F002862FB60E5
:104510004FF000037960BA6087F818C0BEE8030066
:1045200038617961C5E9108685F83C3040214846FC
:1045300002F072F8049B23B106991846C91A02F0DA
:104540006BF8019818B10399091A02F065F80B98F5
:104550000DAB98423FF403AF0D99013102F05CF8C6
:10456000204629B0BDE8F0830024E4E70024DDE71D
:104570004D4C43466CBD021010B588B0044601A8EE
:10458000FFF768FA01230DF1040C84F83C30BCE815
:104590000F0020626162A262BCE803009CF8002068
:1045A000E3622063616384F8382008B010BD00BF67
:1045B000F0B50D4683B016460021342204469DF81E
:1045C0002070019322F0F4FD80222272FF2284F8F1
:1045D0002C20624A626025B1019B03F13F02B24286
:1045E00004D903232046236003B0F0BDE95CEA1838
:1045F000617191781389E1711179A3816172917967
:104600005078A173C3F3402184F83210D37B117C1E
:10461000A07143EA01232382917C537CD07843EA42
:1046200001236382117DD37CD57943EA0123A382E0
:10463000917D537D2072507943EA01232771A07246
:10464000E572507AE38292F81DC092F81CE04FEABE
:104650000C4C4CEA0E2C92F81BE0117E4CEA0E0E2C
:1046600092F820C0D37D8CF0FF0C4FEADC1C84F85C
:1046700020C092F824C0957E8CF0FF0C4FEADC1C21
:1046800084F826C092F819C043EA01234CEA0525B4
:10469000238392F8223092F823606583957F92F805
:1046A00026101F021B094EEA056543EA0613E56161
:1046B000A38492F825500B0203F470632B4392F805
:1046C00021C092F827E0238592F8343007F4706710
:1046D000090941EA0E114CEA070C1F2B618592F87B
:1046E0003520A4F822C04FEA131122D9022919D08B
:1046F0000A39012905D84FF480610123A18584F886
:104700002E3040EA0203204602F00101C3F3800389
:10471000C2F3400284F82F1084F8302084F831303E
:1047200003B0F0BD4FF459710123A18584F82E30F8
:10473000E7E703F00F0303EB83035B000533642B10
:1047400028BF6423012914BF01210221012584F817
:104750002C3084F82E5084F82D10D2E70180808010
:1047600090F800C0ACF1A10CBCFA8CFC4FEA5C1CC8
:104770000CF14E0399423ED110F80C30312B3AD156
:1047800000B5411E1D4B49301D4A6144604411F87B
:1047900001CF8CEA030C4CF300034CF3400E1340A2
:1047A00083EA5C030EEA020E8EEA530E43F34003E3
:1047B0004EF3400C134083EA5E030CEA020C8CEAD1
:1047C000530C43F340034CF3400E134083EA5C0365
:1047D0000EEA020E8EEA530E43F3400313404EF3EB
:1047E000400C83EA5E030CEA020C88428CEA530315
:1047F000CDD1D84300BD0020704700BF0C832C8C66
:104800002083B8EDF0B50D4693B00446164600215E
:10481000342205A822F0CCFC05B1FEB9012280218A
:10482000FF23A44633480DF1140E06908DF81C109A
:1048300005928DF84030BEE80F00ACE80F00BEE8EE
:104840000F00ACE80F00BEE80F00ACE80F00DEF888
:104850000030CCF80030204613B0F0BD2B78A3F127
:10486000A103B3FA83F35B0903F14E02964201D030
:104870000222D4E7EA5C312A1746F9D1E91891F807
:104880004C2091F84B00120442EA002291F84A00B1
:1048900091F84D10024342EA0162284631460393E3
:1048A0000292FFF75DFF029A039B824219D0042215
:1048B0008021FF2325460F480DF1140C06908DF83A
:1048C0001C1005928DF84030BCE80F000FC5BCE805
:1048D0000F000FC5BCE80F000FC5DCF800302B60DF
:1048E000B9E732462946204600970233FFF760FEBB
:1048F000B1E700BF0180808070B5164604460D46C2
:104900004B220021033022F053FC312110223301CD
:1049100063702B782170A2702BB10323A9786A7879
:104920006171A271E370EB78002B55D0A988AA7948
:104930000423A4F82F1084F8312017200722142113
:104940002371EB7933B102462B7A217103F01F03F7
:1049500084F82E306B7A1BB1AB7A2271002B3FD1D9
:10496000224B234A611E04F1490011F801EF8EEA3F
:10497000030E4EF300034EF3400C134083EA5E0334
:104980000CEA020C8CEA530C43F340034CF3400E48
:10499000134083EA5C030EEA020E8EEA530E43F3E1
:1049A00040034EF3400C134083EA5E030CEA020C12
:1049B0008CEA530C43F3400313404CF3400E83EA5C
:1049C0005C0388420EEA020C8CEA5303CDD1DB4330
:1049D000C4F84A30204670BD032213201021B0E7EE
:1049E00041F20103A4F80B30BAE700BFB6D2251597
:1049F0002083B8ED4FF4807C0C4B00B553F8202099
:104A000003EB8003C00082F0400200F1804003F518
:104A1000805E02F0C00200F5203003F54053CEF86E
:104A200000204160C3F800C000BD00BF0480034007
:104A3000DFF81CC0C90041EA82015CF820200CEBC1
:104A40008003514003F5805301F00C011960704759
:104A500004800340064B022203EB800319B103F5E7
:104A600000531A60704703F540531A60704700BF47
:104A7000048003404FF0504CC308DCF800C000F045
:104A8000070000B58000DFF82CE081400CEBCC0C77
:104A900003F18C009B004EF8201003EBCC0312B105
:104AA000024AD15000BD024AD15000BD48A2024086
:104AB00048B202400080024008B54FF05043DFF892
:104AC00024C0D3F800E05CF82E30034207D1034342
:104AD0004CF82E301520BDE8084000F0ADB901F0CB
:104AE000FFFA00BF0074002010B50446152000F046
:104AF00085FA4FF05043044A196852F8213023EAEE
:104B0000040342F8213010BD007400204FF0000370
:104B100000B543EC440043EC40004FF0050E4FF469
:104B2000807C0C4BC20053F8201003EB800081F016
:104B3000400102F1804303F5203301F0C00200F58B
:104B4000805100F540500A60C3F804E0C0F800C08E
:104B500000BD00BF048003400FB400B5084883B017
:104B600003F0CEFA049B3BB105A91846019103F06E
:104B7000CBF8044803F0C4FA012003F0DDF800BFCD
:104B8000D076021034AB0210EFF3108072B6064BF1
:104B9000D3E8CF1F01220029FAD1C3E8412F002911
:104BA000F6D1BFF35F8F7047A74200200023034A6E
:104BB000C2E88F3F80F31088704700BFA7420020F3
:104BC00070B51646EFF3108472B6DFF848E0DEE801
:104BD000CF2F0123002AFAD1CEE8423F002AF6D196
:104BE000BFF35F8F012301F0070CCA0803FA0CF32F
:104BF00010F802C01CEA030508D14CEA030C00F8C7
:104C000002C0CEE88F5F84F3108870BD3046FFF796
:104C1000A3FF00BFA7420020F8B50F461946EFF3E7
:104C2000108672B61C4DD5E8CF4F0123002CFAD167
:104C3000C5E8443F002CF6D1BFF35F8F8A421BD8F2
:104C4000012402E00132914222D3D30810F803E09C
:104C500002F0070C04FA0CFC1EEA0C0FF2D14EEA2B
:104C60000C0E00F803E010460023C5E88F3F86F3E2
:104C70001088984207DBF8BD0023C5E88F3F86F314
:104C800010884FF0FF30002FF5D00698FFF764FF33
:104C90004FF0FF30E8E700BFA742002000B5EFF378
:104CA000108E72B6104BD3E8CFCF0122BCF1000FAB
:104CB000F9D1C3E84C2FBCF1000FF4D1BFF35F8FE3
:104CC00001224FEAD10C01F0070102FA01F110F8BC
:104CD0000C2022EA010200F80C200022C3E88F2FEA
:104CE0008EF3108800BD00BFA7420020044A107850
:104CF000431CDBB2182B28BF10231370704700BF72
:104D0000542A002000B5DFF81CC083B001461F23E1
:104D10001822CDF800C00248FFF77EFF03B000BDA7
:104D2000A0450020E07602104FF0E022936843F0A7
:104D300000539360704700BF0021044B03F1200231
:104D4000C3E88F1F01339342FAD170479C42002081
:104D50004FF0E0234FF08032C3F80024C3F804245E
:104D6000C3F80824C3F80C24C3F81024C3F814248F
:104D7000C3F81824C3F81C24C3F82024C3F824243F
:104D8000C3F82824C3F82C24C3F8302462B6704733
:104D9000012300F01F029340400941B1800000F15F
:104DA000604000F56140C0F8803103607047024AFE
:104DB000203042F82030704700E100E00122430932
:104DC000034900F01F008240403341F82320704720
:104DD00000E100E008B5EFF3108E72B6134BD3E894
:104DE000CFCF0122BCF1000FF9D1C3E84C2FBCF1A9
:104DF000000FF4D1BFF35F8F0D4A10309268DFF8D7
:104E000034C052F82020624501D091420BD1084AAB
:104E1000926842F82010BFF35F8F0022C3E88F2F03
:104E20008EF3108808BD01F05BF900BFA542002099
:104E300000ED00E0110100102DE9F84F8B461146FE
:104E4000EFF3108872B6664FD7E8CF2F0123002A00
:104E5000FAD1C7E8423F002AF6D1BFF35F8F614B1A
:104E600093F90040002CC0F2B88000F110055E48B4
:104E700004EB440900EB890296794FEA89091E7018
:104E80005A4B9B6853F82560331A2F2B35D826F0E0
:104E9000010E9EF807308B4209D86FE00CEB4C03F3
:104EA00000EB830393F807A08A4551D99E469EF9EB
:104EB00006C0BCF1000FF1DA4BF601590EF1040AFD
:104EC000131FA3EB0A03C3F34A036FEAC3436FEA5A
:104ED000D3438EF80640DFF820A104EB440400EB36
:104EE0008402AEF8043040F824A0A2F8049082F8BE
:104EF00006C0D171C2F808B01DE03D4B9E426CD196
:104F00003C4BD17109F102010144043B5B1AC3F32C
:104F10004A036FEAC3434FF421416FEAD34320F8B9
:104F200009105380FF214BF60153C2F808B091716C
:104F3000938042F001062D4B9B6843F82560BFF338
:104F40005F8F0023C7E88F3F88F31088BDE8F88F94
:104F5000F2466FF00703A3EB09033AF8049F1B1A0C
:104F600049F30A0909F102090AEB49099944C9F30D
:104F70004A096FEAC9496FEAD949A1E76FF0070307
:104F8000D1711C4909F1020404440439091BA3EB43
:104F90000903C1F34A011B1A6FEAC1417344C3F309
:104FA0004A036FEAC3436FEAD1414FF421466FEAE7
:104FB000D3435180104920F8096093804AF6AA240F
:104FC00073461B1A5B415C43240DC2F808B0947110
:104FD00042F00106CEF80010ADE701F081F800BF05
:104FE000A5420020C3740020582A002000ED00E0F4
:104FF00011010010882A0020014880472DE9F04760
:1050000082B0EFF3108572B6DFF8A8C1DCE8CF2FCD
:105010000123002AFAD1CCE8423F002AF6D1BFF39F
:105020005F8F5E4B00F110049B6853F824205C4BAB
:105030009A423DD08A4249D0DFF87CE1A2EB0E03D0
:105040002F2B35D8012743099B0000F01F0003F1E7
:10505000604303F5614387401E689A46B946C3F82A
:105060008070BFF35F8FEFF30583DBB21F467BBB1E
:105070000123834022F0010003EA06088668B1425A
:1050800008D181E003EB43030EEB83039E68B1423A
:1050900025D0184690F90630002BF3DAB1424ED0F5
:1050A0005346B8F1000F17D0C3F88091C3F80090B1
:1050B0003A4B9B6843F82420BFF35F8F0023CCE872
:1050C0008F3F85F3108802B0BDE8F0871A46EFE7FE
:1050D0009C42CDD001F004F8C3F88090E8E793F942
:1050E0000660002E2CDB06EB46000EEB80018000F4
:1050F0000190C8798F68D87191F906009F600028E7
:1051000098714FEA46072EDB8988019841F30A011E
:1051100000EB41016FF0070008317144C01A0144EF
:10512000C1F34A016FEAC1416FEAD14199801D493B
:10513000BB1908780EEB83030E709871B0E7034635
:105140009FB9FF2181714BF601518180154E1846A0
:1051500037784AF6AA219F717346C01A40414143ED
:10516000090D31709CE71049E0E71049104EC91A4B
:105170000839C1F30A306FEA00506FEA105046EA6E
:105180005101D98098808BE790F906600346002E84
:10519000A9DA002FE9D1024AD8E700BF00ED00E00C
:1051A00011010010C374002001BDFFFF922A0020EE
:1051B00000F8FFFFA5420020582A00204FF0FF0C06
:1051C00020F0030303F1604303F5644300F00300A0
:1051D0001A68C0000CFA00FC22EA0C0281400A4363
:1051E0001A6070472DE9F041EFF30583DBB29E466C
:1051F000EFF3108572B62949D1E8CF2F0123002A99
:10520000FAD1C1E8423F002AF6D1BFF35F8FDFF841
:105210009C8040F00106D8F808704AF6AA2357F897
:105220002E7004461E4AA41A644163431B0DB74204
:105230005BB21ED092F906409C4220D092F91240F7
:105240009C4227D092F91E409C4225D092F92A40D8
:105250009C4208BF032413D0124A002492F800C0D5
:10526000137080F806C0C1E88F4F85F31088BDE841
:10527000F081D8F808200C4C42F82E40ECE70024CE
:1052800004EB440402EB8402FF2494714BF60154B6
:105290009480E1E70124F3E70224F1E7A54200202E
:1052A000582A0020C37400201101001000ED00E016
:1052B000C0F133010148FFF7F1BC00BFCF740020FB
:1052C00000B5DFF824C083B0014605230022CDF8E5
:1052D00000C00448FFF7A0FC0028A8BFC0F13300BD
:1052E00003B000BDCF740020FC76021030B583B04F
:1052F00004460D460192FFF7F9FC0146204600F0F6
:1053000007F8019AA580E280BFF35F8F03B030BD3C
:10531000014B0B44036070479C42002070B5104C59
:10532000104DAC420ED2FF26236863B1FFF7DEFCBE
:1053300001462046FFF7ECFFA680BFF35F8F0834DD
:10534000AC42F1D370BDFFF7D1FC01462046FFF718
:10535000DFFF2671BFF35F8F0834AC42E4D370BD2A
:10536000603100206831002010B50446FFF7BEFC14
:1053700001462046FFF7CCFFFF232371BFF35F8F69
:1053800010BD00BF10B50446FFF7B0FC0146204633
:10539000FFF7BEFFFF23A380BFF35F8F10BD00BFE9
:1053A00010B504460120FFF7ADFC034B0344236016
:1053B000BFF35F8F10BD00BF9C42002010490B68F7
:1053C000EFF3108072B6D3E8CFCF0122BCF1000F0B
:1053D000F9D1C3E84C2FBCF1000FF4D1BFF35F8FBC
:1053E000084A4FF0000C1378096801331370C1E8C4
:1053F0008FCF80F3108840BF00200021704700BF8E
:1054000068740020C77400202DE9F04F2DED028B49
:1054100085B0EFF30583DBB2103B9A0818BF012279
:105420004FF0010103F0030B18BFA94CA94B08BFB3
:10543000A94C0BEB820253F8225001FA0BF204F54F
:1054400041539FEDA18B02925A602FE0AB88190463
:1054500040F19480AB79002B40F0DE80B5F9086014
:10546000002EC0F21C816B6906EB460603EBC603F7
:10547000D3E90267B7F1FF3F08BFB6F1FF3F0ED097
:1054800004EB8B01A36A0A69D21AF31A934205D37B
:105490000123226A03FA0BF3134200D10E61204666
:1054A00000F058FCB042B941C0F2F980B5F908608B
:1054B000029B002EE363C9DBD5F8149006EB460A85
:1054C00009EBCA07BB682046D7F80C80019300F0AF
:1054D00041FC019B984271EB0801B7DBB8F1000F6A
:1054E000C0F2C080D7E904317C4A934200F0F880D2
:1054F0007A88B5F9080092B242EA0040984702461D
:105500000B4652EA030100F0AD80002B80F2CD8003
:105510000199B1EB020E68EB030839F93A30C7E99B
:1055200002E8002B92DB686903EB430200EBC20246
:10553000D2E90271BE4578EB010C4FEA430285DBEC
:10554000AC462CF8083F06E003EB430100EBC10139
:105550005A00D1E90271BE4578EB01011A4405DB1E
:1055600030F9323000EBC20C002BEDDA29F83A307A
:10557000ACF80060AB8819043FF56CAF2B69EFF312
:10558000108272B6D3E8CF0F01210028FAD1C3E808
:10559000401F0028F6D1BFF35F8F4FF6FF76A88833
:1055A0000023296900B2AE80C1E88F3F82F31088E2
:1055B0009842FFF64FAF0746A1466E6905F108080D
:1055C000B5F9083007EB470E002BC44606EBCE02B8
:1055D00015DBD2E90240AA46019704E036F93530DE
:1055E0009446002B09DB03EB430506EBC502D2E929
:1055F0000271BC4270EB0101F0DA5546019FACF834
:10560000007036F93E7026F83E30002FD8DAAB79BC
:105610004C46002B3FF422AF0023AB71B5F9086074
:10562000721C33463BD0686905F1080E03E08E46D4
:105630005A1C3FF415AF03EB430200EBC2014F8845
:105640009C463F0430F93230F1D5664581ED028B3E
:10565000EED0AEF800302989664620F83210A5F861
:1056600008C0E5E739F83A302B812B69EFF3108257
:1056700072B6D3E8CF0F01210028FAD1C3E8401F4A
:105680000028F6D1BFF35F8F6B88296929F83A307B
:1056900000236E80C1E88F3F82F31088D6E640BFBA
:1056A00005B0BDEC028BBDE8F08F2046039301925C
:1056B00000F050FB019A039B10EB020E43EB010834
:1056C0002BE700BFAFF30080FFFFFFFFFFFFFFFFEF
:1056D00000800B40DC73002000000B4009540010D8
:1056E00008460B69039198470028BBD00399D1E97C
:1056F000002306E738B5384B1C692CB1BDE83840AB
:105700000A213648FFF704BE0321354800F010FB9C
:10571000334D314BDD60FFF7E9FA324A4FF0504E1E
:10572000024403202C4B4FF00F0C18701A61DEF866
:1057300000204FF6FF715A705A69A3F802C0148313
:105740004FF00204A2F848404FF00404A2F8784059
:105750004FF00504A2F890404FF00604A2F8A840CC
:105760004FF00704A2F8C0404FF00904A2F8F0403F
:105770004FF00A04A2F808414FF00B04A2F82041B0
:105780004FF00C04A2F838414FF0010414864FF09A
:105790000804A2F8D840144C4FF00D0E4FF00E0C38
:1057A0009C6008249980A2F850E1A2F868C1A2F890
:1057B000600011800D4A2C620D49D360FFF70AFB8F
:1057C00001210320FFF7E4FA0A4B0A211C64034875
:1057D000BDE83840FFF79CBDA82A0020687400206F
:1057E00000000B409C420020FFFF1000DC730020F3
:1057F0000954001000200B4000487047A82A0020E0
:10580000F0B583B09DF828401D46034654B9CDE954
:10581000000200F0A7FA019A009B824265EB0101A9
:10582000A1425BDB1969EFF3108072B6D1E8CF6F4C
:105830000124002EFAD1C1E8464F002EF6D1BFF365
:105840005F8FB3F902401F69002C3EDBD3F814C010
:1058500004EB440E3CF83E10002659800CEBCE01C0
:10586000C7E88F6F80F310884888C1E902250130AE
:10587000C0F30E00012838BF0120089A48800A6151
:10588000099A40EA04404A611A69EFF3108172B63E
:10589000D2E8CF7F0125002FFAD1C2E8475F002F61
:1058A000F6D1BFF35F8F9A882CF83E201A699C804E
:1058B000C2E88F6F81F3108801211C78DA68A1405B
:1058C00002F50153596003B0F0BD0023C7E88F3FD4
:1058D00080F310884FF0FF3003B0F0BD204603B0D6
:1058E000F0BD00BFF0B516461F4602690346EFF350
:1058F000108072B6D2E8CF4F0121002CFAD1C2E855
:10590000441F002CF6D1BFF35F8FB3F902101D695D
:10591000002945DBD3F814E001EB41023EF83240A8
:105920000EEBC20C5C800024C5E88F4F80F310881A
:1059300005983546CCF8100006983E46CCF8140081
:10594000BCF80200CCE902560130C0F30E00012879
:1059500038BF0120ACF8020040EA0140D3F810C083
:10596000EFF3108572B6DCE8CF7F0126002FFAD165
:10597000CCE8476F002FF6D1BFF35F8FB3F804C0B8
:105980002EF832C099801A69C2E88F4F85F31088CB
:1059900001211C78DA68A14002F501535960F0BD7D
:1059A0000023C5E88F3F80F310884FF0FF30F0BD33
:1059B00003464089B0EB214F3ADD58690A1402EBE7
:1059C000420210B5D3F810C000EBC200EFF3108E06
:1059D00072B6DCE8CF4F0122002CFAD1CCE8442F7C
:1059E000002CF6D1BFF35F8F428889B292B28A420F
:1059F00007D000221B69C3E88F2F8EF31088002088
:105A000010BD6FEA42426FEA5242428001210022F9
:105A100018699971C0E88F2F8EF3108893F800C031
:105A2000DA68084602F5015301FA0CF1596010BD1D
:105A3000002070472DE9F043841F61F10006A04269
:105A400071EB060338BF002483B038BF26460546F5
:105A50000F4600F087F9201A66EB0101012871F169
:105A6000000106DA2846394603B0BDE8F04300F0ED
:105A7000B3B900F077F9844266EB010100290ADB33
:105A800000211D4B224600931C4833460191FFF72D
:105A900029FF0130E6D04FF0000E194ADFF868C048
:105AA0001849536A9E4204D8906AA042DAD29E42B4
:105AB000D8D1DCF80030EFF3108072B6D3E8CF9F76
:105AC0005FF00108B9F1000FF8D1C3E8498FB9F1CF
:105AD000000FF3D1BFF35F8F0B785FFA83F8DCF828
