:020000041000EA
:10000000002008205B0100101B0100101D010010E2
:100010001101001011010010110100101101001058
:100020001901001019010010190100101F01001022
:10003000110100101901001021010010230100100E
:100040001101001011010010110100101101001028
:100050001101001011010010110100101101001018
:100060001101001011010010110100101101001008
:1000700011010010110100101101001011010010F8
:1000800011010010110100101101001011010010E8
:1000900011010010110100101101001011010010D8
:1000A00011010010110100101101001011010010C8
:1000B00011010010110100101101001011010010B8
:1000C00011010010110100101101001011010010A8
:1000D0001101001011010010110100101101001098
:1000E0001101001011010010110100101101001088
:1000F0001101001011010010110100101101001078
:100100001101001011010010110100101101001067
:10011000EFF30580103800BE00BE00BE00BE00BE7A
:1001200000BE00BEF2EB887178790610987906104F
:100130009C01001090A31AE7D3DEFFFF42012110BB
:10014000FF010000B8A80600793512AB00201E4957
:10015000086006C881F3088810474FF050400068D7
:1001600008B10020F3E70DA40ECC002902D000F066
:1001700012F8F9E71549164A002000E001C1914242
:10018000FCD114498847144988471449884700BE60
:10019000FDE701C901C29A42FBD370479879061066
:1001A0001001002068310020F0A90610000008208E
:1001B00000000820F0A906100010082000100820F8
:1001C000000000007047000008ED00E068310020EA
:1001D000C06E0020517A0010F1140010497A00100E
:1001E000704700BF00B5042183B0019006F04CF8C1
:1001F000019803B000BD00BF2DE9F04FF7B00746EE
:10020000369030200C4606F03BF800F130050646EB
:1002100038602F220021BD60013026F099FD0223B5
:1002200094F800907D60B9F1030F337000F087827D
:1002300090229946D0235027CDE90632B0234FF0C3
:10024000F00BCDE904377023CDE9023B102388275A
:100250000193C8234822CDE91537A823E827CDE923
:10026000133268232822CDE911379823D827CDE906
:100270000F325823B822CDE90D37F8237827CDE97E
:100280000B323823CDE90937182384220893C4237D
:10029000CDE93432A4234422CDE932326423E4226E
:1002A000CDE9303294232422CDE92E325423D422B6
:1002B000CDE92C32F423B422CDE92A32342374223E
:1002C000CDE928328C231422CDE926324C23CC22CE
:1002D000CDE92432EC23AC22CDE922322C236C224E
:1002E000CDE92032DC239C22CDE91E32BC235C22E6
:1002F000CDE91C327C23FC22CDE91A321C233C229E
:10030000CDE918320423179382237593C223749383
:1003100042237393A2237293E22371936223709317
:1003200022236F9392236E93D2236D9352236C9367
:10033000B2236B93F2236A937223699332236893F7
:10034000122367938A236693CA2365934A2364938F
:10035000AA233B93EA2360936A235B932A233A936D
:100360009A233D93DA2361935A236293BA233C93F1
:10037000FA2358937A235A933A2359931A235F9373
:100380000A235E9386235D93C6235C93462363937F
:10039000A6234093E6233F9366234293262341936B
:1003A00096234493D623439356234693B6234593EB
:1003B000F6234793762339933623489316233893AD
:1003C0008E234993CE2337934E234A93AE234C93E7
:1003D000EE234B936E234E932E234D939E235093E7
:1003E000DE234F935E235293BE235193FE235493F7
:1003F0007E2353933E2356931E2355930E235793E8
:1004000006234FF0800AC02140204FF0A00E4FF08D
:10041000E00C60254FF020084FF0300B08270C222D
:100420003E936379002B75D0DDE96E38DDE9741AEF
:10043000DDE972E0DDE9705C07936D9B86F8019061
:1004400006936C9B05936B9B04936A9B0393699B38
:100450000293DDE9673B0193669B1693659B1593B9
:10046000649B14933B9B1393609B12935B9B119330
:100470003A9B10933D9B0F93619B0E93629B0D9350
:100480003C9B0C93589B0B935A9B0A93599B099343
:100490005F9B0893DDE95D3735935C9B3493639BE9
:1004A0003393409B32933F9B3193429B3093419BCC
:1004B0002F93449B2E93439B2D93469B2C93459BBC
:1004C0002B93479B2A93399B2993489B2893389BCE
:1004D0002793499B2693379B25934A9B24934C9BB8
:1004E00023934B9B22934E9B21934D9B2093509B98
:1004F000579A1F934F9B1E93529B1D93519B1C9386
:10050000549B1B93539B1A93569B1993559B18937B
:100510003E9B1793A379002B36D0DDE92E78DDE9D9
:1005200032E0DDE9305C07972D9F179906972C9FE5
:10053000717005972B9FDDE9341A04972A9F039762
:10054000299F0297DDE9277B0197269F1697259F14
:100550001597249F1497239F1397229F1297219FEB
:100560001197209F10971F9F0F971E9F0E971D9FFB
:100570000D971C9F0C971B9F0B971A9F0A97199F0B
:100580000997189F089717466278B2B1DDE90F28DE
:10059000DDE9151ADDE913E0DDE9115C07920E9A39
:1005A000777006920D9A05920C9A04920B9A039218
:1005B0000A9A0292DDE9082B0192A27842B1DDE9A4
:1005C000061ADDE904E0DDE9025CD846019A7270A2
:1005D000E27822B1F2466146284686F80180227907
:1005E0000AB18A467070E2790AB186F801A0002B40
:1005F00000F09D80D4E90223C6F80630238AC6F8AD
:1006000002207381228E94F832303282002B40F027
:100610009280022294F8331009B11346B27494F810
:10062000342012B143F00403B37494F8352012B1AE
:1006300043F00803B37494F8242012B143F010037C
:10064000B37494F82A2012B143F02003B374002548
:10065000AE46AC4628462A462946B4F91430A77C53
:10066000019367F30705019FB4F916B067F30F25EF
:10067000C7F3072767F317456BF31F65C6F81350D9
:10068000CBF3072565F3070EB4F91850B4F91AA097
:1006900065F30F2EC5F3072565F3174ECAF307253B
:1006A00065F3070CB4F91C50B4F91E9065F30F2CD8
:1006B000C5F30725236A65F3174C6AF31F6E69F3C8
:1006C0001F6CC6F817E0C6F81BC04FEA136EB4F8EB
:1006D00026C06EF30700B4F828806CF30F204FEAB1
:1006E0001C2C6CF31740C9F3072568F31F6065F3F2
:1006F0000702C6F82300A58D4FEA182060F3070112
:10070000E48D65F30F212D0A65F3174164F31F6132
:1007100063F30F22C6F82710190A61F317421B0C66
:10072000240A63F31F6286F82B40C6F81F20369810
:1007300077B0BDE8F08F01230322B3746AE7012389
:10074000D122912773707123CDE906274FF0510B09
:10075000B12202931123CDE9042B8927F1220193C1
:10076000C9230392CDE915374922A923E927CDE909
:10077000133269232922CDE911379923D927CDE9ED
:100780000F325923B922CDE90D37F9237927CDE965
:100790000B323923CDE90937192385220893C52364
:1007A000CDE93432A5234522CDE932326523E52255
:1007B000CDE9303295232522CDE92E325523D5229D
:1007C000CDE92C32F523B522CDE92A323523752225
:1007D000CDE928328D231522CDE926324D23CD22B5
:1007E000CDE92432ED23AD22CDE922322D236D2235
:1007F000CDE92032DD239D22CDE91E32BD235D22CD
:10080000CDE91C327D23FD22CDE91A321D233D2284
:10081000CDE918320523179383237593C32374936B
:1008200043237393A3237293E323719363237093FE
:1008300023236F9393236E93D3236D9353236C934E
:10084000B3236B93F3236A937323699333236893DE
:10085000132367938B236693CB2365934B23649376
:10086000AB233B93EB2360936B235B932B233A9354
:100870009B233D93DB2361935B236293BB233C93D8
:10088000FB2358937B235A933B2359931B235F935A
:100890000B235E9387235D93C7235C934723639366
:1008A000A7234093E7233F93672342932723419352
:1008B00097234493D723439357234693B7234593D2
:1008C000F723479377233993372348931723389394
:1008D0008F234993CF2337934F234A93AF234C93CE
:1008E000EF234B936F234E932F234D939F235093CE
:1008F000DF234F935F235293BF235193FF235493DE
:100900007F2353933F2356931F2355930F235793CE
:1009100007234FF0810AC12141204FF0A10E4FF073
:10092000E10C61254FF021084FF0310B09270D2212
:100930003E9376E5012904D8D2E900031B1A402B27
:1009400001D00020704710B50C46C2B00192FF21C3
:100950004FF4807202A826F0FBF9019B02A8D3E9AC
:100960000012521A26F03CFA04F2FB3000034FF456
:100970008051019026F01CFA01984FF4807202A970
:1009800026F00AFA012042B010BD00BF2DE9F04167
:100990001F4D07462E6805F01DF899B34FF47A7283
:1009A000002326F0BDF9DFF8788006EB4606340117
:1009B00048F80400384625F0ADFC2822904228BFB4
:1009C0001046631D08EB06160021307103EB08008A
:1009D00026F0BEF93946327926F002FA0D480E4B60
:1009E0000268511C0C2928BF0C212A6801600132C1
:1009F000A3FB0243DB0803EB4303A2EB83022A6061
:100A0000BDE8F081054BA3FB00308009CBE700BFB8
:100A10001034002054340020ABAAAAAAD34D62108F
:100A2000583400209C46002300B58BB08E46CDE99B
:100A30000633CDE90833012342F00102ADF8160078
:100A40008DF81520DCE90010421A8DF818E08DF8B9
:100A5000143022D105A902A8089202F08FFCDDE92A
:100A60000212521A402A049B08D089B9079818B17B
:100A70000999091A05F008FC0BB000BD0E48CDE934
:100A8000001326F055F9DDE9001301200B4A107020
:100A90000846591A05F0F8FBE8E710460191009264
:100AA00005F0EEFBDDE9002126F09AF9009A0790A7
:100AB00002440992CEE700BF14340020966E002055
:100AC0002DE9F041804684B0104616460F4625F0C9
:100AD00021FC0446D8B1302828BF3024204605F038
:100AE000CFFB05463146224606190090029626F0B5
:100AF00077F93946404602226B460196FFF792FF8E
:100B00002146284604B0BDE8F04105F0BDBB9FED8D
:100B1000087B3946404602226B468DED007B0294ED
:100B2000FFF780FF04B0BDE8F08100BFAFF30080A5
:100B300000000000000000002DE9F04FD1E9005353
:100B40008B46DBF808909D42A9EB050383B018BFE4
:100B50004D603F2BDFF8448174D8DBF80060AC1B9C
:100B600004F1004340333F2B40F29080402C2CBFD7
:100B7000271904F140076FF000439F4228BF1F462A
:100B8000384605F07DFBAE4282467DD0621E052AC6
:100B900033466FD9811B0139022902466AD924F0F4
:100BA000030C4FEA940E06EB0C0053F8041B83422F
:100BB00042F8041BF9D1644510D01A4612F8011B03
:100BC000D44495420AF82E1008D05A788CF80120A7
:100BD0009A1C95421CBF9B788CF8023054442346E3
:100BE000C6469C4608F14004019375460CF1100C72
:100BF0000FCDA5420EF1100E4CF8100C4CF80C1C49
:100C00004CF8082C4CF8043CEFD1019B03F1400553
:100C100026B13046A9EB060105F036FBCBE900A56D
:100C20005744CBF808701B4B984503D1012003B003
:100C3000BDE8F08FDBF80890DFF85880A9EB0503DA
:100C40003F2B8AD9464608F14007344610350FCC71
:100C5000BC4206F1100645F8100C45F80C1C45F88E
:100C6000082C45F8043CF0D1DBF804504035CBF8B3
:100C70000450D8E753465444721E12F8011F03F87B
:100C8000011B9C42F9D1AAE70346A9E702481BF0E1
:100C900035FC00BF00C03F10406E021000B03F1096
:100CA0002DE9F0410446AEB0402005F0E9FA2346B4
:100CB000024600F1400C0490CDF818C004F1400148
:100CC0001D685C68D3F808E0D86810338B42156063
:100CD0005460C2F808E0D06002F11002F0D104A91B
:100CE0000AA8CDF814C002F02FFC0A9BBDF82E40D4
:100CF0009DF83010ABB94B1E0F2B00F2A483DFE838
:100D000013F035004C0065008A00C700DB00E000EE
:100D1000EB00BC0171011002560166018001AD01BA
:100D200023002046BE4AFFF7CBFE0D9818B10F995D
:100D3000091A05F0A9FA049818B10699091A05F0DC
:100D4000A3FA2EB0BDE8F081DDE90D239B1A022B3A
:100D500006D11378012B03D15078012840F25B8330
:100D600010212046AF4AFFF7ABFEDEE7042005F076
:100D700087FA0546AC4B05F1040C18680022286080
:100D8000012120461EABCDE91FCC1E95FFF74AFE80
:100D90000421284605F078FAC7E70C2005F070FA20
:100DA0000546A24B05F10C0C07CB1EAB2860696011
:100DB0002046AA6002210022CDE91FCC1E95FFF734
:100DC00031FE0C21284605F05FFAAEE798491EA8CF
:100DD00002F02CFE182005F053FA05460DF1780CB0
:100DE00000F11803CDE918331790BCE80F00286014
:100DF0006960AA60BCE80300EB6028616961204675
:100E00009DF83010002217ABFFF70CFE1821284682
:100E100005F03AFA89E7DFF840C210ADBCE80F00F0
:100E20000FC59CE8070085E8070010AA0DA917A8C0
:100E300002F048FE9DF85C30002B00F061827D4995
:100E400010AA1EA803F098F89DF87830002B00F047
:100E500097827948FFF79AFD002220469DF83010CE
:100E600007ABCDE907220992FFF7DCFD1F9821AB04
:100E7000984203D02199013105F006FA18981AAB6F
:100E800098423FF452AF1A99013105F0FDF94CE751
:100E9000684803F095F8002800F039826748FFF7AA
:100EA00075FD002220469DF830101EABCDE91E22B4
:100EB0002092FFF7B7FD38E75E4803F095F96048E8
:100EC000EDE7DDE90D239A4200F078810721204605
:100ED0005C4AFFF7F5FD28E71EA802F0DBF95A4B44
:100EE0001E7807F091FA9DF87B109DF87A30BDF8D6
:100EF0007D2001919DF87C1080460A209DF8797034
:100F00009DF8785000930391029205F0B9F9A5F18C
:100F10000305B5FA85F50346009A019902714171FE
:100F2000029A03996D09467080F80280C77081713A
:100F3000C5711A81022214201A702C9E009305F0AC
:100F40009FF9009B05461A68867202605A680A215A
:100F500042601A890281184605F096F90821204658
:100F60004FEA164C2D9C85F80CC04FEA166C85F89C
:100F70000DC024FA01FCAC7385F80FC04FEA144C85
:100F8000240E26FA01F36C7405F11204EB721F941F
:100F900000221EAB85F810C005F114041E952094A4
:100FA000FFF740FD1421284605F06EF9BDE601F07B
:100FB000B9FD9DF83010002800F0B08100222046D5
:100FC0001EABCDE91E222092FFF72CFDADE6DDE938
:100FD0000D239A4200F0BB800D2120461B4AFFF7EB
:100FE0006FFDA2E6DDE90D239B1A042B03D11378D4
:100FF000522B00F09E810A212046154AFFF760FD22
:1010000093E6DDE90D031B1A052B03D10378012BB1
:1010100000F0DC810E2120460E4AFFF751FD84E6E8
:10102000586E0210706F0210FCB70210F0B7021079
:101030009C36002098360020686E02109C6E0210CC
:10104000B46E0210EC6F0210986E0020D06E021089
:1010500038700210F06E021018B80210DDE90D03AE
:101060001B1A052B03D10378012B00F0BF810F2140
:101070002046C74AFFF724FD57E6DDE90D32D11AB5
:10108000012900F350819A4218BF1D784FF00300E8
:101090000ABF00252E46002605F0F2F80123457010
:1010A0004FF00005BB49037009688570B14200F23A
:1010B000A6800090062005F0E3F80346009A03217D
:1010C0001088DD701880907800939870104605F0B5
:1010D000DBF84FF00002009B0C209A8005F0D0F85E
:1010E0004FF000060546009BAE711A6818462A604C
:1010F0009B880621AB8005F0C7F805F10C07EE715F
:1011000005F1080600222046092117AB1997CDE901
:101110001756FFF787FC7F1B3946284605F0B4F8C1
:1011200003E61EA802F0B6F81EA917A8FFF764F898
:10113000204600220B2117ABFFF774FC17980028FC
:101140003FF4F3AD1999091A05F09EF8EDE51EA8D4
:1011500002F0A0F89DF880200820009205F090F899
:10116000009A0546A2F1310200210120B2FA82F272
:1011700005F10803CDE918339DF87E30C5F801105C
:101180005209696017952870002B00F0F7809DF8D0
:10119000AA306870E870AA7043F07E0340F6B83C4D
:1011A00020462B7100220D2117ABA5F806C0FFF7D2
:1011B00039FC0821284605F067F8B6E57648FFF7C0
:1011C000E5FB0122754B1A7004F004FC002900F0C5
:1011D000D0804FF47A72002325F0A2FD0022704DDA
:1011E000FA302860204642F10004CDE91E229DF825
:1011F000301020921EAB6C60FFF714FC95E58370F5
:10120000684B694A1968694B0B31A3FB01C5ED08AE
:1012100005EB4505A1EB85010C31891BA3FB0153AF
:10122000DB0803EB4303A1EB830303EB4303190147
:10123000029002EB031306205758CDE9001305F086
:101240001FF80546029AC7701088032128809078FD
:10125000A870104605F018F83A0A2A713A0C6A711B
:101260000C2005F00DF806463A0E82712A68804679
:101270000260AA8806218280284605F005F8019BB5
:1012800006F108001A7906F10C07F2710646002AE9
:1012900000F0CF800099444B4D1D042A1D4440F2BC
:1012A000CA80082A114638BF08216FF00043009217
:1012B00001F108029A4228BF1A461046174604F068
:1012C000DFFFD8F8003029460360D8F8043005461F
:1012D000009A4360083025F083FD009A0C218318A2
:1012E0004046009304F0D0FF009B09211893EB19AE
:1012F00019930022204617AB1795FFF793FB0BE7D6
:101300002046189A9DF83010FFF7DAFBB6E5204624
:10131000274A9DF83010FFF7D3FB06E52046254A03
:10132000FFF7CEFB01E509212046234AFFF7C8FB62
:10133000FBE453780132432B7FF45DAE12F8013F9A
:10134000562B7FF458AE5378312B7FF454AE1B48A4
:10135000FFF71CFB01221A4B1A7004F03BFB00291B
:1013600054D04FF47A72002325F0DAFC0022154D98
:1013700036E7154BA3FB003080092FE7AA700DE775
:1013800020461F9A9DF83010FFF79AFB6EE500BFCC
:10139000306F0210543400200C7002109B6E00203D
:1013A000803100201034002058340020ABAAAAAAB3
:1013B000806E0210B86F0210D06F021024700210FD
:1013C000976E002078310020D34D62108178B0F8FC
:1013D0000320407801F048FC9DF8301000287FF48D
:1013E000EDAD20461A4AFFF76BFB9EE48178037946
:1013F000C278407801F0D4FC9DF8301000287FF4CA
:10140000DDAD2046134AFFF75BFB8EE4124BA3FBD6
:1014100000308009AAE700F0010001F03BFD9DF8D3
:10142000301000287FF4CAAD20460C4AFFF748FB75
:101430007BE4454666E62946009225F0D1FC009AF9
:10144000454616445EE62046054AFFF739FB6CE444
:101450000C6F02104C6F0210D34D6210906F02108F
:101460006070021010B5032ABDF808C001D102292E
:1014700001D0002010BD0F4A10780028FAD0BCF12E
:101480003F0FF6D99C460C4CA6460CF1100CBEE85A
:101490000F004CF8043C094B10349E454CF8100CDE
:1014A0004CF80C1C4CF8082CEED10023014A4020CB
:1014B000137010BD966E00201434002054340020A8
:1014C00000B5032ABDF804E001D1012900D000BD18
:1014D000BEF1400F05D00020044A5DF804EBFFF791
:1014E000EFBA18465DF804EBFFF7DABB9070021014
:1014F0002DE980489BB008F0EFF8B84802F064FC92
:10150000B74B1870002800F0C681B648FFF73EFAC6
:1015100000230822B44CC4E90033C4F80730A27198
:1015200008F0E8F8002800F0B8814AF6012300200E
:1015300001A9ADF80430002507F06AFFAB4EAC4FAF
:10154000DFF8E082DFF8E09200214FF0FF3006F094
:10155000F5FF01F011FD0AA801F09CFE9DF82E3068
:10156000002B40F09780A34A1178002940F0898130
:101570003378002B40F01B810AA801F08BFE3B78EA
:101580002BB19D4B189A1B689A4200F04F8106F0D0
:101590003BFF38B3002007F03BFD18B30B234FF09F
:1015A000010A0AA902A8CDE905A3FEF725FE039BBF
:1015B000029A0893049B02A805A90792099301F0D7
:1015C000DDFEDDE902239B1A402B32D022B10499C3
:1015D0001046891A04F058FE079818B10999091A9B
:1015E00004F052FE04F0F6F900294ED04FF47A725E
:1015F000002325F095FB98F8003033B1D9E900239A
:10160000904275EB030380F04B817C4B1A78002AE3
:101610009AD07B4AD2E90012884275EB020293D33A
:101620001D7006F001FF322004F0A8F806F006FF56
:101630008AE70321002007F007FD029A0028C5D0A1
:101640006D4B1898049918606E4B9DF82E0087F822
:1016500000A018706C4B9DF82D0018706B4B9DF816
:10166000290018706A4B9DF82A001870694B9DF884
:101670002B001870684B9DF82C001870002AABD016
:101680001046891A04F000FEA6E7644BA3FB003065
:101690008009B0E7624918980B6898423FF468AF38
:1016A0006FF07E0B9DF831309DF832A0803B9DF8A5
:1016B00033E0AAF1800A5B459DF834C0B8BF5B46B1
:1016C000AEF1800EDA45ACF1800CB8BFDA46DE45EB
:1016D000B8BFDE46DC45B8BFDC469DF8372084F84D
:1016E00003C002F00F0CBCF1070F28BF4FF0070C2E
:1016F0002370BDF8353012F0200FA380C2F3001321
:1017000018BF43F0020312F0400F18BF43F0040368
:1017100012069DF838200CF1010C48BF43F0080375
:1017200084F806C002F0010C43EA0C1312F0020F19
:1017300018BF43F0200312F0040F18BF43F040031A
:1017400012F0080F18BF43F0800312F0400F18BFCB
:1017500043F4807312069DF8392048BF43F40073A8
:1017600012F0100F18BF43F4806312F0200F02F044
:10177000010C18BF43F4006343EA0C3312F0020F6C
:1017800018BF43F40053520748BF43F480431A0A7A
:101790004FF0000CE37101232272164A84F801A075
:1017A00084F802E008603370A4F809C0137006F0F2
:1017B0002BFE00283FF4E0AE002007F029FC0028B3
:1017C0003FF4DAAE0B2310210020074A07F03CFC5F
:1017D00000283FF4D1AE3570CEE600BF9836002029
:1017E000986E0020C4700210E03600209C6E00202D
:1017F000996E00209A6E0020EC3600209B6E00202F
:10180000803100209E6E0020A26E0020A06E00207D
:10181000A16E00209D6E00209F6E0020D34D6210AF
:10182000F0360020976E0020783100201F4B9DF885
:101830002E201B789A427FF4AAAE1D4B9DF82D20D6
:101840001B789A427FF4A3AE1A4B9DF829201B788F
:101850009A427FF49CAE184B9DF82A201B789A423E
:101860007FF495AE154B9DF82B201B789A427FF4A0
:101870008EAE134B9DF82C201B789A427FF487AED6
:10188000B0E608200121C4E900331370C4F8073022
:10189000A07131708BE70B4838E601F015F944E68A
:1018A0000021084688F8005004F0D2F99E6E00200E
:1018B000A26E0020A06E0020A16E00209D6E002070
:1018C0009F6E0020AC7002100149024802F06ABA13
:1018D000082A0020983600200048704768B8021097
:1018E000004870477CB802100048704744B80210A6
:1018F00030B58DB058B940F209434FF4417E264DC2
:101900006B802549A5F800E008460DB030BD0328DE
:1019100022D03FD8214B53F820100029F4D008469C
:10192000019124F0F7FC2028044628BF202404F16C
:10193000010E4FEA4E0E0199174D4EF4407E0028DD
:10194000DFD028464A1E931C5B1A12F801CF9C4236
:1019500020F802CFF7D8D4E72122002102A825F0F1
:10196000F7F9212102A806F0ADFA02A824F0D2FC72
:10197000094D40B12A4602AB1C1813F8011B9C42CA
:1019800022F8021FF9D100F1010E4FEA4E0E4EF47B
:10199000407EB6E70021B7E7C033002034B802101C
:1019A0001A4A1368032B24D90268194BC3F8122072
:1019B0008288DA82174B1968EFF3108272B6D1E889
:1019C000CFCF0120BCF1000FF9D1C1E84C0FBCF121
:1019D000000FF4D1BFF35F8F4FF0010C0E485A6037
:1019E00000211B6880F807C0C3E88F1F82F31088AE
:1019F000704703EB430C013305491360036841F85A
:101A00001C30838801EB4C018B80D3E7C437002066
:101A1000AC37002000370020142A00201B4B1B7815
:101A200093B11B4B1B787BB11A4B1A7862B91A4AD7
:101A300012784AB9194A128832B9082010B513F041
:101A40004BFD144B08B110BD7047154AD2F800C0C9
:101A5000EFF3108172B6DCE8CF4F5FF0010E002C7F
:101A6000F9D1CCE844EF002CF5D1BFF35F8F4FF0F4
:101A7000010C0C4C516084F803C0126883F800C05C
:101A8000C2E88F0F81F3108810BD00BFA76E002041
:101A9000A36E0020A56E0020A86E0020746E0020AA
:101AA00000370020142A002038B5284C2368002B6A
:101AB00024DB274B1968EFF3108272B6D1E8CFCF41
:101AC0000120BCF1000FF9D1C1E84C0FBCF1000FAF
:101AD000F4D1BFF35F8F1F4918685A600B8843B178
:101AE0001D4B93F805C0BCF1000F02D01B78032BEF
:101AF00005D00023C0E88F3F82F3108838BD002353
:101B0000C0E88F3F82F310882368088803EB8302C4
:101B1000C3EB02121D46114B01321A4431214D23F1
:101B200019F038FF0028E9D10D4A1368834207DB1A
:101B300003EB8301C3EB011308490B4483F84E0008
:101B40004FF0FF331560236038BD00BF0C2A002022
:101B500000370020746E0020142A0020083700206F
:101B6000102A00202DE9F041DFF80481064698F89C
:101B7000004082B07CB9364F3B687BB1354D02E006
:101B80003B689C420AD2294630460DF049F901349F
:101B900006350028F4D1304B1B781BB1002002B071
:101BA000BDE8F0812D4D2B78002B4DD12C4C2268B7
:101BB000EFF3108372B6D2E8CF0F01210028FAD1DB
:101BC000C2E8401F0028F6D1BFF35F8F00272F70B7
:101BD000244D22686360EF70C2E88F7F83F3108822
:101BE0003068B3880090012168461F4AADF8043080
:101BF00019F040F8E8B90123174A21681370EFF390
:101C0000108272B6D1E8CF7F0126002FFAD1C1E849
:101C1000476F002FF6D1BFF35F8F216862602B7191
:101C20002B70C1E88F0F82F31088184602B0BDE810
:101C3000F0810E4B98F80020C3E900779F60002ADE
:101C4000ACD0FFF7EBFEA9E713F064FCAEE700BFF2
:101C5000C4370020AC370020A86E0020A56E0020FD
:101C600000370020142A0020746E0020F436002073
:101C7000A76E00200000000000212DE9F041764D04
:101C800082B09E227548297025F062F84FF0FF332C
:101C900000219FED6F7B724A72481360724C734A49
:101CA000734F036082ED007B3B682170EFF310827D
:101CB00072B6D3E8CF4F0120002CFAD1C3E8440F0D
:101CC000002CF6D1BFF35F8F6A4CDFF8D0816A4EEB
:101CD0007A60D4E9003213433180A8F8041088F800
:101CE00006107DD188F80210042388F800303A6885
:101CF0000023C2E88F3F7A6882F310885F4AC2E906
:101D000000339360D4E90032134329D15C4B1B7834
:101D10001BB35C4B1B7803BB2B78F3B93388E3B957
:101D2000594C5A4E236832689A4216D9584D03E0EE
:101D300023683268934210D203EB430255F8120035
:101D400005EB42018A88009001336846ADF8042013
:101D50002360FFF707FF0028EAD002B0BDE8F0815A
:101D600003F038FE002966D04FF47A72002324F085
:101D7000D7FFD4E90012002388429341C6D2414BD9
:101D80001B78002BE9D03E4B1B78002BE5D0414C53
:101D90002378002BE1D12B78002BDED13388002B68
:101DA000DBD1082013F098FB0028D6D13A68EFF376
:101DB000108372B6D2E8CF5F0121002DFAD1C2E8BC
:101DC000451F002DF6D1BFF35F8F012239687B607C
:101DD000227088F80320C1E88F0F83F31088BCE7D6
:101DE00003F0F8FD09BB2C4BA3FB00308009002158
:101DF000236862689842914134BF01210021134356
:101E000088F802103FF470AF03F0E4FDC1B14FF465
:101E10007A72002324F084FFD4E900120023884260
:101E20009341BFF461AF02235FE74FF47A7200235E
:101E300024F076FFDBE7184BA3FB0030800998E71E
:101E4000154BA3FB00308009E6E700BFAFF300802D
:101E50000000000000000000A86E002008370020ED
:101E60000C2A0020102A0020A96E002088310020B2
:101E70000037002090310020746E0020F4360020DE
:101E8000A36E0020A76E0020A8370020C4370020D2
:101E9000AC370020A56E0020D34D6210142A00201C
:101EA000042800D07047002AFCD02DE9F0471C46DA
:101EB0001346127894B0602A00F0B58010D8162A24
:101EC00000F08681332A00F07381072A05D1AA4ADF
:101ED0001546927A002A40F0988114B0BDE8F08748
:101EE000DD2A00F00D81EF2A00F0E880DC2AF4D131
:101EF000A24A1278002AF0D0A14A1278002AECD126
:101F00001A7C002A40F05A855A7E002A00F0B084DC
:101F1000987E0828044640F2AB8403F11B02164663
:101F200003F1130101EB000E12F8011B01F1200077
:101F3000C0B2A1F1410CBCF1190F98BF0146642950
:101F400040F06A84117801F12000C0B2A1F1410C87
:101F5000BCF1190F98BF0146752940F05D84517896
:101F600001F12000C0B2A1F1410CBCF1190F98BFE2
:101F70000146612940F05084917801F12000C0B2FF
:101F8000A1F1410CBCF1190F98BF01466C2940F03A
:101F90004384D17801F12000C0B2A1F1410CBCF121
:101FA000190F98BF0146732940F03684117901F169
:101FB0002000C0B2A1F1410CBCF1190F98BF01463D
:101FC000652940F02984517901F12000C0B2A1F1C6
:101FD000410CBCF1190F98BF01466E2940F01C84DA
:101FE000917901F12000C0B2A1F1410CBCF1190FAF
:101FF00098BF0146732940F00F84D17901F1200088
:10200000C0B2A1F1410CBCF1190F98BF014665297E
:1020100040F00284981C062207A90CF055FF07A87F
:10202000FFF7A0FD59E79B78022B00F09D81002B64
:102030007FF453AF9FED4E7B524A534913704F4A82
:1020400081ED007B13704E4A194613704F4A504879
:1020500013809E22009324F07BFE4FF0FF319FED12
:10206000447B4C4B4C48444A1960009B01604B49EF
:10207000C2E900330B70936049494A4A81ED007B05
:102080001068EFF3108172B6D0E8CFEF5FF0010C6B
:10209000BEF1000FF8D1C0E84ECFBEF1000FF3D172
:1020A000BFF35F8F4048D2F800C05160C0F80130E4
:1020B0000370CCE88F3F81F310880EE79A78013ADD
:1020C0000C2A3FF60AAF01A151F822F03526001084
:1020D000512500106D240010DB1E0010DB1E0010C7
:1020E000DB1E0010DB1E0010DB1E0010DB1E0010CC
:1020F000DB1E0010DB1E0010A5240010D3270010EB
:10210000284A1368EFF3108172B6D3E8CFCF0120CD
:10211000BCF1000FF9D1C3E84C0FBCF1000FF4D1B2
:10212000BFF35F8F00232048204C5160237012685A
:10213000C370C2E88F3F81F31088104B1B78002BCF
:102140003FF4CBAE0E4B1B78002B7FF4C6AE0A4A91
:10215000937A15461BB1D37A002B00F0218400231B
:10216000C5E90033AB6014B0BDE8F047FFF756BCDB
:102170000000000000000000F4360020A76E0020E0
:10218000A86E0020A36E002090310020746E002005
:10219000083700200C2A0020102A0020A96E0020F9
:1021A0008831002000370020142A0020A56E00206E
:1021B000062207A9981C0F460CF086FEB04A154669
:1021C000D2E9003213430CD1384613F037FA84E6D3
:1021D000981C062207A90CF077FE07A813F0FAF95D
:1021E0007BE603F0F7FB002900F0D1834FF47A720D
:1021F000002324F095FDD5E9001200238842934185
:10220000E2D2384613F000FA67E607A9D81C062286
:1022100000930CF059FE294607A80CF001FE002897
:102220007FF45BAE009B9A78002A40F07083092C03
:1022300040F26D8303F10801A4F1090011F801CF08
:10224000BCF1000F00F0EF8301328242F6D1082882
:1022500040F25D8303F10902164603F1010E0EEB15
:10226000000412F8011B01F1200C5FFA8CFCA1F1B3
:10227000410EBEF1190F98BF6146642940F01B83DF
:10228000117801F1200C5FFA8CFCA1F1410EBEF136
:10229000190F98BF6146752940F00D83517801F1FF
:1022A000200C5FFA8CFCA1F1410EBEF1190F98BF12
:1022B0006146612940F0FF82917801F1200C5FFABC
:1022C0008CFCA1F1410EBEF1190F98BF61466C293B
:1022D00040F0F182D17801F1200C5FFA8CFCA1F181
:1022E000410EBEF1190F98BF6146732940F0E38299
:1022F000117901F1200C5FFA8CFCA1F1410EBEF1C5
:10230000190F98BF6146652940F0D582517901F1D6
:10231000200C5FFA8CFCA1F1410EBEF1190F98BFA1
:1023200061466E2940F0C782917901F1200C5FFA75
:102330008CFCA1F1410EBEF1190F98BF61467329C3
:1023400040F0B982D17901F1200C5FFA8CFCA1F147
:10235000410EBEF1190F98BF6146652940F0AB826E
:102360004848FFF7FFFBB8E59FED437B4FF00101C5
:102370000023434A009082ED007B434A414811709C
:10238000424AC0E9003383600120137012F0A6FEB8
:10239000052012F04DFD002013F06AF903200EF025
:1023A000F5FF00200EF0FAFF3948D0F800E0EFF317
:1023B000108C72B6DEE8CF2F0123002AFAD1CEE8C6
:1023C000423F002AF6D1BFF35F8F0123D0F800E02F
:1023D000C0F804C000992F48C0F8013001700023F4
:1023E000CEE88F3F8CF310882B4A2C49C2E900338A
:1023F000C2E90233C2E90433294A04A80E460B603D
:10240000049313600EF026F9002800F08B8200235D
:10241000CDE9083307930593ADF80E30ADF81830C9
:102420000A9307AF3368032B00F279823A460DF125
:102430000E0305A904A80EF019F9002800F06F8218
:1024400033687BB10023144905A8CDE900130CF0D3
:10245000E7FC019B0099013306310028E2D0326885
:102460009342F1D305A8FFF79BFADBE714B0BDE870
:10247000F047FFF701BC00BF0000000000000000B3
:1024800090310020F4360020A36E0020A76E0020BB
:1024900000370020142A0020AC370020C437002069
:1024A000A83700200521184600930CF0C3FC002833
:1024B0003FF413AD009BDA79A12A00F09582312A0E
:1024C0007FF40BAD0246D91D07A801F0D3FF9A484F
:1024D00080460368EFF3108472B62546D3E8CF1F19
:1024E00001220029FAD1C3E8412F0029F6D1BFF318
:1024F0005F8F079B4460002B40F0B58201238F4A19
:102500000DF1200E93710323144602F1080C137091
:10251000BEE80F00ACE80F00BEE80F00ACE80F000B
:102520009EE80F00ACE807002CF8023B1B0C8CF86F
:102530000030A36B0133A3630023D8F80020C2E866
:102540008F3F85F3108814B0BDE8F047FFF7ACBAB1
:102550005C79002C8AD10321184600930CF06AFCA8
:1025600006228446009B76499818A1F800C007A966
:102570000794ADF820400CF0A7FC724B07AF1E4645
:102580001B68002B00F0088223466F4903E0326885
:10259000934280F001823846CDE900130CF040FCF4
:1025A000019B0099013306310028F0D10022624CD2
:1025B00066493068664B0860A04621681A70EFF3E0
:1025C000108372B6D1E8CFCF0120BCF1000FF9D152
:1025D000C1E84C0FBCF1000FF4D1BFF35F8F574837
:1025E0006360027182465B48D0E90010014340F00D
:1025F0000482002101208AF80220AAF80510D8F8E8
:1026000000208AF80000C2E88F1F83F310889E2202
:10261000514824F09DFB4FF0FF339FED457B002197
:102620004E4A4F48136003604E4A4F4B117083ED82
:10263000007B52E40321184600930CF0FBFB009B47
:102640008146597B00297FF448AC0622581D07912A
:10265000ADF8201007A90CF037FC3E4A07AF15462D
:10266000D2E90032134340F0E081364B1E461B682E
:10267000002B00F004820023334903E032689342C8
:1026800080F0FD813846CDE900130CF0C9FB019BB9
:102690000099013306310028F0D134490B78002B22
:1026A00040F0E681244CA0462368EFF3108272B616
:1026B000D3E8CFCF0120BCF1000FF9D1C3E84C0F14
:1026C000BCF1000FF4D1BFF35F8F00231B4D0B70E3
:1026D000AA4621686260EB70C1E88F3F82F31088E0
:1026E0000121174A2068A2F80090194A1170EFF3EF
:1026F000108272B6D0E8CFEF5FF0010CBEF1000F90
:10270000F8D1C0E84ECFBEF1000FF3D1BFF35F8F19
:10271000297162602168C1E88F3F82F310883268B6
:10272000002A00F06681084926E000BFAFF3008070
:10273000000000000000000000370020142A0020E4
:10274000746E0020C4370020AC370020A83700206A
:10275000A86E00209031002008370020102A0020A9
:102760000C2A0020A96E002088310020A56E0020D0
:102770003268934280F03D813846CDE900130CF079
:102780004FFB019B0099013306310028F0D1012154
:10279000484618F00FFAD8F80020EFF3108372B60D
:1027A000D2E8CF0F01210028FAD1C2E8401F00284B
:1027B000F6D1BFF35F8F01200022D8F80010C8F8CF
:1027C00004308AF80000C1E88F2F83F31088FFF7E8
:1027D00084BBAF4A1068EFF3108172B6D0E8CFEF38
:1027E0005FF0010CBEF1000FF8D1C0E84ECFBEF192
:1027F000000FF3D1BFF35F8F51605B79DFF8C0C288
:10280000B3FA83F35B09002012688CF80530C2E844
:102810008F0F81F3108896E696457FF485AB122CD6
:1028200026D903F12D052644DFF86CC2A5F1130E5D
:1028300002E075453FF4EEAB1EF8012F9CF8001046
:1028400002F12000A2F14104C0B2192C98BF024647
:1028500001F12000A1F14104C0B2192C98BF01463A
:1028600091420CF1010CE4D06A1C96421546DBD172
:10287000884A927A002A7FF430AB184609210093E7
:102880000CF0DEFA00F4F852B2F5A06F009B7FF472
:1028900024AB981C06227F490CF016FB009B7D4C54
:1028A0001A7A18460C21A2710CF0C4FA0123208177
:1028B0006381FFF712BB94427FF4D3AC122826D970
:1028C00003F11B040644744BA4F1130E02E0A64569
:1028D0003FF446AD1EF8011F187801F1200CA1F15C
:1028E00041025FFA8CFC192A98BF614600F1200C66
:1028F000A0F141025FFA8CFC192A98BF6046884219
:1029000003F10103E3D0631C9E421C46DBD100238C
:10291000C5E90033AB60FFF781F8FFF7DEBA04A822
:102920000DF0B8FE5D4B1B78002B3FF4D6AA5C4B34
:102930001B78002B7FF4D1AA5A4B1B78002B7FF415
:10294000CCAA594B1B88002B7FF4C7AA574B32687F
:102950001B689342BFF4C1AA07AF04E02368326842
:102960009342BFF4BAAA524803EB430200EB420180
:1029700050F812008A884D4C386001333846BA80CE
:102980002360FFF7EFF80028E8D0FFF7A6BA494B1D
:10299000A3FB003080092EE43846FFF701F805E676
:1029A000012312892846A97942F40042EB7212F001
:1029B000EFFD00283FF491AAFFF7D1BB1846132181
:1029C00000930CF037FA1521019000980CF032FAC0
:1029D00040F24C51019A009B8A4238D0024392B295
:1029E000002A3FF491AA43E701283FF476AA1A7A15
:1029F00065E53846FEF7D4FFC9E602F0EBFF4FF479
:102A00007A72002938D0002324F08AF90346002284
:102A1000294801688B424168D8F804308A4134BFA4
:102A200001220022E5E5104611E402F0D3FF4FF445
:102A30007A7249B3002324F073F90346D5E9000103
:102A4000002283428A41BFF410AE1C4E25E640F6B8
:102A5000E64290423FF4DEAA40F6F25290427FF402
:102A600007AFFFF7D7BA164AD36B0133D36363E5D9
:102A700012F050FD134915E6B0FBF2F3C7E74846E4
:102A800018F0BEF8FFF729BAB0FBF2F3D6E700BFA3
:102A900000370020F436002000710210A36E0020E1
:102AA000A76E0020A86E0020746E0020A8370020BA
:102AB000AC370020D34D621090310020C437002085
:102AC000142A0020A56E002008B5104B1A7802B118
:102AD00008BD0F4802F09CFA01220C4B0D491A70F8
:102AE0000A8013F079FE4FF400710B4818F03CF89F
:102AF0000A4818F059F80A48084B43600EF09EF84F
:102B0000BDE80840012012F0A1B900BFA46E00206A
:102B100000370020142A0020D0370020A11E00100A
:102B2000C8370020444B70B51C7814B1434B1C7857
:102B30000CB9204670BD02F04DFF002976D1404B04
:102B4000A3FB003080093F4ADFF818C180184FF01E
:102B50000003CCF800004FF001003B4A3B49C2E9BA
:102B60000033936043F10003CCF80430087012F096
:102B7000B5FA012012F078FA354B1A68EFF3108C91
:102B800072B6D2E8CF1F5FF0010E0029F9D1C2E87A
:102B900041EF0029F5D1BFF35F8F01202D4A2B496A
:102BA000907010781D68032818BF0220C3F804C075
:102BB00018BF10700020C5E88F0F8CF310880978BB
:102BC0000029B6D01D4909780029B2D022490878D9
:102BD0000028AED1214800780028AAD120480088DA
:102BE0000028A6D1082012F077FC1B49184B194A7F
:102BF00000289ED1D3F800E0EFF3108C72B6DEE827
:102C0000CF6F0125002EFAD1CEE8465F002EF6D117
:102C1000BFF35F8FD3F800E0C3F804C001230B704B
:102C2000D370CEE88F0F8CF3108882E74FF47A725E
:102C3000002324F075F886E7A46E0020A36E002020
:102C4000D34D6210E0930400F4360020A76E0020FC
:102C500000370020142A0020A56E0020A86E002056
:102C6000746E00209031002070B540F6B734531ECA
:102C70009BB2A3429AB003D9002420461AB070BD7B
:102C80004FF0000C8DF80E104FF001013A4B8DF80B
:102C90000D00CDF80FC01868CDF813C08DF80C10DA
:102CA000EFF3108172B6D0E8CFEF0124BEF1000F30
:102CB000F9D1C0E84E4FBEF1000FF4D1BFF35F8FE2
:102CC0002E48596000881B6828B12D48447914B1FA
:102CD0000078032805D00022C3E88F2F81F31088E5
:102CE000CAE7C3E88FCF81F31088264B1B68634582
:102CF000C2DA254B25491B681646B3FA83F30A78D6
:102D00005B0902F1010C81F800C006A802F00F0275
:102D100003A9019301F028FC019B1D4803EB830CE0
:102D2000C3EB0C1C00EB0C054E22284606A924F030
:102D300057F82B464FF00105124A83F84E50019B7D
:102D40001360FEF7B1FE134B1D7002F043FE71B12C
:102D50004FF47A72002323F0E3FF0F4930184FF04D
:102D60000003086020465B414B601AB070BD0B4BFE
:102D7000A3FB00308009F0E700370020746E0020CC
:102D8000142A00200C2A0020102A0020A66E002001
:102D900008370020A96E002088310020D34D621032
:102DA000F0B59BB001248DF8122000228DF81000A0
:102DB000314803F01F03CDF813208DF81110039252
:102DC00001688DF814308DF813408DF80F40EFF343
:102DD000108372B6D1E8CF6F0125002EFAD1C1E879
:102DE000465F002EF6D1BFF35F8F01684360234832
:102DF000008810B12248457945B90022C1E88F2FDB
:102E000083F31088002528461BB0F0BD0078032806
:102E1000F3D1C1E88F2F83F310881A4E33689342A1
:102E2000F0DA194BDFF868C01B689CF80020B3FA91
:102E300083F302F1010E03A906A85B0902F00F0259
:102E40008CF800E0019301F08FFB019B0F4803EB2E
:102E5000830CC3EB0C1C00EB0C074E2206A9384672
:102E600023F0BEFF019B87F84E403360FEF71CFE47
:102E700028461BB0F0BD00BF00370020746E002054
:102E8000142A00200C2A0020102A002008370020D5
:102E9000A66E0020F0B5002301242F4A9BB01668CF
:102EA00003938DF816008DF8154004938DF81430B7
:102EB000EFF3108172B6D6E8CF5F0120002DFAD172
:102EC000C6E8450F002DF6D1BFF35F8F2348516050
:102ED0000088126810B12248457945B90023C2E83C
:102EE0008F3F81F31088002528461BB0F0BD007885
:102EF0000328F3D1C2E88F3F81F31088194E33685D
:102F0000002BF0DA184BDFF868C01B689CF8002033
:102F1000B3FA83F302F1010E03A906A85B0902F0DC
:102F20000F028CF800E0019301F01EFB019B0F489B
:102F300003EB830CC3EB0C1C00EB0C074E2206A921
:102F4000384623F04DFF019B87F84E403360FEF773
:102F5000ABFD28461BB0F0BD00370020746E00208A
:102F6000142A00200C2A0020102A002008370020F4
:102F7000A66E002000000000954B1B78002B00F08F
:102F8000D48070B5934C98B0D4E9003213435CD030
:102F900002F020FD002900F00F814FF47A72002327
:102FA00023F0BEFED4E900120023884273EB020234
:102FB000C0F0E1809FED847B874A88498848C2E958
:102FC0000033037093600B7884ED007B002B40F09E
:102FD0001D81844C2368EFF3108272B6D3E8CF5F73
:102FE0000120002DFAD1C3E8450F002DF6D1BFF323
:102FF0005F8F00257C4B206862600D70DD70C0E83B
:103000008F5F82F31088284612F02EF82168EFF3C4
:10301000108272B6D1E8CFCF0120BCF1000FF9D1F8
:10302000C1E84C0FBCF1000FF4D1BFF35F8F6E4BC2
:10303000626019789D70022901D104211970002362
:103040002168C1E88F3F82F31088684B1B78002B02
:1030500026D1674B1E461B68002B1FDB614C654960
:103060002268EFF3108372B6D2E8CF5F0120002D03
:10307000FAD1C2E8450F002DF6D1BFF35F8F088863
:103080002268636028B15848447914B10078032855
:103090004CD00021C2E88F1F83F3108818B070BD98
:1030A000554DD5E900321343D3D002F093FC0029EB
:1030B0007DD04FF47A72002323F032FED5E900234D
:1030C00090424FF0000272EB0303C2D30023CDF80D
:1030D0000530CDF80930ADF80D304FF00103414C0B
:1030E0008DF804302268EFF3108372B6D2E8CF0F68
:1030F00001210028FAD1C2E8401F0028F6D1BFF311
:103100005F8F3C4922680888636040B1364890F878
:1031100005C0BCF1000F02D0007803287AD000214E
:10312000C2E88F1F83F3108893E770470020C2E83E
:103130008F0F83F310883468304D04EB8402C4EBA6
:103140000212013208884D2331212A4418F022FC52
:103150000028A3D12A4A1368834206DB03EB8301CC
:10316000C3EB01131D4485F84E004FF0FF3314608C
:10317000336018B070BD02F02DFC99B14FF47A7233
:10318000002323F0CDFDD4E90012002388429341AF
:10319000BFF45BAF1B4B1B78002B7FF456AFFEF7E1
:1031A0003DFC52E7184BA3FB00308009EBE7164BC0
:1031B000A3FB0030800981E7134BA3FB003080099B
:1031C000F0E600BFAFF30080000000000000000048
:1031D000A46E002090310020F4360020A56E00205F
:1031E000A76E002000370020142A0020A96E0020BE
:1031F0000C2A0020746E002088310020083700203F
:10320000102A0020A86E0020D34D621012F082F91F
:103210001A49DEE60020C2E88F0F83F31088184EAB
:1032200033688342BFF61CAF164B04A81C68164BCC
:10323000B4FA84F41A786409511C197002F00F0270
:1032400001A901F091F9114B04EB8400C4EB0010CB
:1032500004A918184E2223F0C3FD4FF00102346078
:1032600080F84E20FEF720FC002200234FF00001E2
:10327000C5E90023064A33681170EDE6A56E00200B
:103280000C2A0020102A0020A66E002008370020FB
:10329000A96E0020F0B5164C05462368EFF31086A2
:1032A00072B6D3E8CF1F01220029FAD1C3E8412F1B
:1032B0000029F6D1BFF35F8F8446DFF838E06660FF
:1032C000BEE80F00ACE80F00BEE80F00ACE80F004E
:1032D000BEE80F00ACE80F009EE80F0000278CE866
:1032E0000F002368C3E88F7F86F310882846F0BD5F
:1032F00000370020142A0020D0E90010884239D07D
:103300004FF0FF3300B51C4A1944184411F801EF7F
:103310008EEA030E4EF300034EF3400C134083EA93
:103320005E030CEA020C8CEA530C43F340034CF3AB
:10333000400E134083EA5C030EEA020E8EEA530E3F
:1033400043F340034EF3400C134083EA5E030CEA60
:10335000020C8CEA530C43F3400313404CF3400E31
:1033600083EA5C0381420EEA020C8CEA5303CDD15E
:10337000D84300BD002070472083B8ED2DE9F0430D
:10338000D1E90232D61A302E054683B007DD00237C
:10339000C0E900338360284603B0BDE8F0834020D5
:1033A0000F46019302F06CFF3E22044600210230DA
:1033B00023F0CEFC44F64D4222803A68019BC4F8CB
:1033C00002203A79E671A271002E46D0721E052ABB
:1033D00040F2A780C3F108022244022A40F2A180F1
:1033E0001A68C4F80920B208012A00F0A5805968BB
:1033F000022AC4F80D1000F082809968032AC4F8EC
:1034000011107CD0D968042AC4F8151077D0196936
:10341000052AC4F8191072D05969062AC4F81D107B
:103420006DD09969072AC4F8211068D0D969082A93
:10343000C4F8251063D0196A092AC4F829105ED08F
:10344000596A0A2AC4F82D1059D0996A0C2AC4F86E
:10345000311054D1DB6AC4F8353006F1090738461B
:1034600002F00EFF214606463A46814623F0B8FC9C
:103470004FF0FF3306EB070C32499C44F01810F86C
:10348000016F5E4046F3000E0EEA010E46F3400364
:103490008EEA560E0B4083EA5E034EF3400E0EEAB0
:1034A000010E8EEA530E43F340030B4083EA5E03A2
:1034B0004EF3400E0EEA010E8EEA530E43F3400324
:1034C0000B4083EA5E034EF3400E0EEA010E8EEAD5
:1034D000530E43F340030B40604583EA5E03CED1B5
:1034E000DB434846E351394602F0CEFE284604F15C
:1034F0004003C5E901332C6003B0BDE8F083B10798
:1035000026F00302A9D0985CA1184872501C86428C
:10351000A3D9185C0232964288729ED99B5CCB720A
:103520009BE7013B04F10802F01813F8011F8342E6
:1035300002F8011FF9D190E71A790520627304227D
:10354000A118E6E72083B8ED0346002201202DE90B
:10355000F04182B0C3E90122C3E903221A605A6133
:103560001871D1E90042121B3F2A187204DC18605E
:10357000184602B0BDE8F081402A05D00522184661
:103580001A6002B0BDE8F08122784D2A05D00222EF
:1035900018461A6002B0BDE8F08162784C2AF6D174
:1035A000A278012A02D003221A60E1E7B4F80720CA
:1035B000302A174602D904221A60D9E7A118887A5E
:1035C0004A7A009342EA0022C87A097B42EA004222
:1035D00007F1090042EA016802F052FE07F1090210
:1035E0000646214623F0FCFB4FF0FF3207F10903AA
:1035F00006EB030E3248009B964406EB020C1CF8C7
:10360000011F514041F30002024082EA510241F39E
:103610004001014081EA520142F34002024082EA45
:10362000510241F34001014081EA520142F340025C
:10363000024082EA510241F34001014081EA520115
:1036400042F34002024082EA510241F3400101404C
:10365000F44581EA5202D2D1304607F10901CDE9A1
:10366000002302F011FE009A019BD243904502D044
:1036700006221A607CE704F10C0139440A4611F86D
:10368000010F00287FF47AAF3E3AA242F6D1E278E9
:103690005A71A288DA80A2791A72002F3FF468AFBB
:1036A0003846009302F0ECFD06463A4604F1090163
:1036B00023F096FB009BF219C3E903625A6157E7B6
:1036C0002083B8ED10B50446A446DFF818E0BEE844
:1036D0000F00ACE80F009EE807008CE807002046CA
:1036E00010BD00BF04B9021070B50B780446012B61
:1036F0003ED1D1ED017A9FEDC07AF0EEE76AF4EEAB
:10370000476AF1EE10FA0DD8B7EE007AF4EEC77AF8
:10371000F1EE10FA06D4B0EE007AF4EEC77AF1EECC
:1037200010FA2FDD00222120227002F0A9FD2023B3
:103730008646DFF8D8C200228EF82020C4E9023382
:10374000BCE80F00C4F804E0CEF80000CEF8041086
:10375000CEF80820CEF80C30BCE80F00CEF81000F0
:10376000CEF81410CEF81820CEF81C30204670BDCC
:1037700000222120227002F083FD20238646DFF8FC
:1037800090C2D8E791F90830002B26DB91F9093077
:10379000002B22DB8B7A072B3ED8CB7A3C2B5CD8D4
:1037A0000B7B022B7ED84B7B103B6F2B00F2A18052
:1037B0008B7B022B00F2C5804B7D0A2B00F2E6804A
:1037C0000B7E012B00F20D8103460121002203F83C
:1037D0000C1BC0E901320273C8E7002219202270D5
:1037E00002F04EFD182386460022DFF828C202763A
:1037F000C4E902336060BCE80F00CEF80000CEF8E8
:103800000410CEF80820BCE80300CEF80C30CEF847
:103810001000CEF81410A9E700221D20227002F03B
:103820002FFD1C2386460022DFF8ECC10277C4E995
:1038300002336060BCE80F00CEF80000CEF8041040
:10384000CEF80820CEF80C30BCE80700CEF8100007
:10385000CEF81410CEF8182088E700232220237019
:1038600002F00EFD212306468646644D6060E3604B
:10387000AC460EF1100EBCE80F004EF8043C604B55
:1038800010359C454EF8100C4EF80C1C4EF8082CC8
:10389000EED12B7821228EF800300023A26086F82A
:1038A000213063E700221C20227002F0E9FC1B2378
:1038B00086460022DFF864C1C276C4E90233606044
:1038C000BCE80F00CEF80000CEF80410CEF80C30A3
:1038D000BCE80300BCF80030CEF80820AEF8183081
:1038E0009CF80230CEF81000CEF814108EF81A3082
:1038F0003CE700232720237002F0C2FC2623064663
:103900008646404D6060E360AC460EF1100EBCE8A8
:103910000F004EF8043C3C4B10359C454EF8100C03
:103920004EF80C1C4EF8082CEED1AB882622AEF8CF
:10393000043000232868CEF80000A26086F8263004
:1039400014E700221F20227002F09AFC1E238646F4
:103950000022DFF8CCC08277C4E902336060BCE8A3
:103960000F00CEF80000CEF80410CEF80820CEF8F4
:103970000C30BCE80700BCF80030CEF81000CEF8E0
:103980001410CEF81820AEF81C30EFE600222020EC
:10399000227002F075FC1F238646DFF888C00022E3
:1039A0008EF81F20C4E90233BCE80F00C4F804E01D
:1039B000CEF80000CEF80410CEF80820CEF80C3077
:1039C000BCE80700BCF80030CEF81000AEF81C30A0
:1039D0009CF80230CEF81410CEF818208EF81E3065
:1039E000C4E600222020227002F04AFC1F238646F3
:1039F000DFF834C0D3E700BFFFFF7F7F987102106C
:103A0000B8710210D8710210F871021038710210EA
:103A1000147102105C71021078710210BC710210F6
:103A20000072021020720210407202109FED247A80
:103A3000D1ED017A67EE877A0023FCFEE77A91F8F0
:103A400010C04A7C4FEA4C0C4CEA820CCA7B00B591
:103A500042EA0C0291F800C0C0F80B30C0F80F30F9
:103A6000C0F81330C3756CF3070391F812C091F8D6
:103A700016E042EACC0291F813C042EA0C1291F827
:103A800014C042EA4C1242EA8E128272D1F8092026
:103A900091F808C04260B1F80D2002814A7D02739E
:103AA000CA7D42730A7E827317EE902A62F30F2357
:103AB000C2F3072262F317436CF31F63036000BD78
:103AC0000000C8422DE9F041D1E900E3A3EB0E0369
:103AD0000E2B074688B026DC002323203B7002F023
:103AE000CFFB2223844605464D4E786006F1200E1A
:103AF000FB60344610350FCC744506F1100645F8CE
:103B0000100C45F80C1C45F8082C45F8043CF0D185
:103B1000338822222B8038460023BA608CF822306A
:103B200008B0BDE8F08101AD94462C463D4EDFED76
:103B30003E6A0FCE0FC596E8070085E807000FCC58
:103B4000CCF80000CCF80410CCF80C3003CC23786F
:103B5000CCF80820CCF81000CCF814108CF81830F1
:103B60009EF800304FF000088CF80030BEF80130AD
:103B7000384607EE903AF8EEE77A87EEA67A8CEDB3
:103B8000017A9EF8033061468CF808309EF80430C4
:103B90008CF809309EF805308CF80A309EF8063013
:103BA0008CF80B309EF807308CF80C309EF80830FB
:103BB0008CF80D309EF809308CF80E30BEF80A30C3
:103BC00003F0010262F30708C3F3400262F30F2817
:103BD000C3F3800262F31748C3F3C00262F31F68A5
:103BE000C3F300128CF81320C3F34012C3F3801305
:103BF000CCF80F808CF814208CF816309EF80C301E
:103C00008CF815309EF80D308CF817309EF80E3079
:103C10008CF81830FFF768FD384608B0BDE8F08131
:103C20006072021004B902100000C842F0B5D0E979
:103C30000034A4EB030CBCF13F0F91B068DD93F8A6
:103C400000C0BCF14D0F63D193F801C0BCF14C0F23
:103C50005ED193F802C0BCF1430F59D193F803C071
:103C6000BCF1460F54D104460646202015460F46A7
:103C7000019302F005FBCDE90200019B00F1200257
:103C80000492D3F800E0D3F804C099680392DA688C
:103C9000C0F800E0C0F804C08160C2609969DA69C8
:103CA000D3F810E0D3F814C0C0F810E0C0F814C086
:103CB0008161C26193F8222093F82110120442EA34
:103CC000012293F8201093F823300A4342EA036359
:103CD00002A80193FFF710FB019B83420BD0002346
:103CE000029828B104990193091A02F0CDFA019BB8
:103CF000184611B0F0BD216801F1230301F13F0224
:103D000001E0934208D013F8010F0028F9D0E6E74C
:103D10000023184611B0F0BD1820019102F0B0FA4E
:103D2000019900F1180ECDF820E00690D1F808C0F6
:103D3000CB680C69CDF81CE0D1F814E0C0F800C0E5
:103D400043608460C0F80CE0CB69D1F818C02A4603
:103D50004361C0F810C006A909A8FFF7B3FE9DF89B
:103D600024305BB131684A798879120242EA004214
:103D70000879C979024342EA01623A600A980CAABA
:103D8000904205D00C990193013102F07DFA019B1C
:103D900006980028A4D008990193091A02F074FA31
:103DA000019B9DE710B5044640F8041BFFF78AFC11
:103DB00004F12000FFF786FC0023C4E910332046FD
:103DC00084F83C3010BD00BF2DE9F04300250446C7
:103DD000006899B00368CDE904559B6804A906956D
:103DE000984720B1DDE904239B1A7F2B2DDC11A815
:103DF000FFF768FC00230DF1440C84F83C30BCE86C
:103E00000F006060A16061682361A3682162E260C5
:103E1000BCE803009CF8002063626061A161002699
:103E2000E36820696169A362A36921632277E06284
:103E3000636384F83820049818B10699091A02F0CF
:103E400023FA304619B0BDE8F0830AA8FFF73AFC20
:103E5000A9462E46049B402003EB8513009302F0F5
:103E60000FFA07460246009B00F1400107900991B6
:103E700003F1400818681033009053F80C0C10320E
:103E80000190009853F808EC53F804CC42F8100C59
:103E90000198434542F80C0C42F808EC42F804CC77
:103EA000E8D10023DFF8CCE00DF1440C0891039336
:103EB000BEE80F00ACE80F009EE807008CE80700A2
:103EC00011AA03A907A8FFF7B1FE28BB3846402175
:103ED00002F0DAF96B1C022B4FF00105BAD196B350
:103EE00000230AAD2F4684F83C300FCD6060A160FE
:103EF000236103CD2B78E2606061A161237784F8B0
:103F00003830C4F844900FCF20626162A26203CFC0
:103F1000E362206361638EE7039B8EB90DF1280C89
:103F20000DF1440E99460646BEE80F00ACE80F00BE
:103F30009EE80700ACE8030025648CF80020C5E784
:103F40004B45C3D9EAE711A811ADFFF7BBFB0FCD75
:103F50006060A16023616168A3682162E26003CDB3
:103F6000C4E910662A7884F83C6063626061A161EC
:103F700055E700BF20B9021030B50C4683B011469A
:103F800000900192FFF7B0FB00980378ABB14FF0BF
:103F9000010C019A116853689568D2F80CE021620F
:103FA0006362A562C4F82CE05369116963632163FD
:103FB000137E84F83CC084F8383003B030BD00BFB5
:103FC0002DE9F04390F83C30A9B023B901242046F4
:103FD00029B0BDE8F08300F12001054600F120077B
:103FE0000AA8FFF781FB9DF82840002C00F0E7802D
:103FF0006B6C2022002120A85C1C22F0A9FE784BCB
:1040000005F1200111A8CDE91834FFF70FFD1AAC16
:104010000DF1440CBCE80F000FC49CE8030084E8D9
:104020000300202002F02CF9844600F1200318AC94
:10403000CDE9083307900FCCCCF80000CCF8041081
:10404000CCF80820CCF80C300FCCCCF81000CCF811
:104050001410CCF81820CCF81C3007A8FFF74CF946
:104060002090079818B10999091A02F00DF92B6CE4
:104070004020013303F0010802F002F900F140038F
:1040800084461E46019003930DF1600E74460CF1B8
:10409000100C0FCC4CF8043C28AB9C420EF1100ED7
:1040A0004CF8100C4CF80C1C4CF8082CEED128687D
:1040B000414603680296DB6801AA98470446002837
:1040C00077D00022286804A903689B68CDE9042200
:1040D00006929847049B0446002864D00599C91AA3
:1040E0007F2979DD402003EB881402F0C9F82346CC
:1040F00000F14001814602460790099104F1400019
:104100001C68D3F804E02646D3F808C0DC681033F6
:1041100083421660C2F804E0C2F808C0D46002F11D
:104120001002EDD10023DFF8BCC011AC0891009360
:10413000BCE80F000FC49CE8070084E8070069464C
:1041400007A811AAFFF772FD044638B36B6C5E1C1A
:10415000009B9E4242D10DF1440CE646BCE80F00A4
:104160006860A960BCE803009CF800C0EA602B61AD
:104170006861A96185F81CC0BEE80F002862FB6079
:104180004FF000037960BA6087F818C0BEE80300FA
:1041900038617961C5E9108685F83C304021484690
:1041A00002F072F8049B23B106991846C91A02F06E
:1041B0006BF8019818B10399091A02F065F80B9889
:1041C0000DAB98423FF403AF0D99013102F05CF85A
:1041D000204629B0BDE8F0830024E4E70024DDE7B1
:1041E0004D4C434620B9021010B588B0044601A8D2
:1041F000FFF768FA01230DF1040C84F83C30BCE8A9
:104200000F0020626162A262BCE803009CF80020FB
:10421000E3622063616384F8382008B010BD00BFFA
:10422000F0B50D4683B016460021342204469DF8B1
:104230002070019322F08CFD80222272FF2284F8EC
:104240002C20624A626025B1019B03F13F02B24219
:1042500004D903232046236003B0F0BDE95CEA18CB
:10426000617191781389E1711179A38161729179FA
:104270005078A173C3F3402184F83210D37B117CB2
:10428000A07143EA01232382917C537CD07843EAD6
:1042900001236382117DD37CD57943EA0123A38274
:1042A000917D537D2072507943EA01232771A072DA
:1042B000E572507AE38292F81DC092F81CE04FEA52
:1042C0000C4C4CEA0E2C92F81BE0117E4CEA0E0EC0
:1042D00092F820C0D37D8CF0FF0C4FEADC1C84F8F0
:1042E00020C092F824C0957E8CF0FF0C4FEADC1CB5
:1042F00084F826C092F819C043EA01234CEA052548
:10430000238392F8223092F823606583957F92F898
:1043100026101F021B094EEA056543EA0613E561F4
:10432000A38492F825500B0203F470632B4392F898
:1043300021C092F827E0238592F8343007F47067A3
:10434000090941EA0E114CEA070C1F2B618592F80E
:104350003520A4F822C04FEA131122D9022919D01E
:104360000A39012905D84FF480610123A18584F819
:104370002E3040EA0203204602F00101C3F380031D
:10438000C2F3400284F82F1084F8302084F83130D2
:1043900003B0F0BD4FF459710123A18584F82E308C
:1043A000E7E703F00F0303EB83035B000533642BA4
:1043B00028BF6423012914BF01210221012584F8AB
:1043C0002C3084F82E5084F82D10D2E701808080A4
:1043D00090F800C0ACF1A10CBCFA8CFC4FEA5C1C5C
:1043E0000CF14E0399423ED110F80C30312B3AD1EA
:1043F00000B5411E1D4B49301D4A6144604411F80F
:1044000001CF8CEA030C4CF300034CF3400E134035
:1044100083EA5C030EEA020E8EEA530E43F3400376
:104420004EF3400C134083EA5E030CEA020C8CEA64
:10443000530C43F340034CF3400E134083EA5C03F8
:104440000EEA020E8EEA530E43F3400313404EF37E
:10445000400C83EA5E030CEA020C88428CEA5303A8
:10446000CDD1D84300BD0020704700BF0C832C8CF9
:104470002083B8EDF0B50D4693B0044616460021F2
:10448000342205A822F064FC05B1FEB90122802186
:10449000FF23A44633480DF1140E06908DF81C102E
:1044A00005928DF84030BEE80F00ACE80F00BEE882
:1044B0000F00ACE80F00BEE80F00ACE80F00DEF81C
:1044C0000030CCF80030204613B0F0BD2B78A3F1BB
:1044D000A103B3FA83F35B0903F14E02964201D0C4
:1044E0000222D4E7EA5C312A1746F9D1E91891F89B
:1044F0004C2091F84B00120442EA002291F84A0045
:1045000091F84D10024342EA016228463146039376
:104510000292FFF75DFF029A039B824219D00422A8
:104520008021FF2325460F480DF1140C06908DF8CD
:104530001C1005928DF84030BCE80F000FC5BCE898
:104540000F000FC5BCE80F000FC5DCF800302B6072
:10455000B9E732462946204600970233FFF760FE4E
:10456000B1E700BF0180808070B5164604460D4655
:104570004B220021033022F0EBFB312110223301CA
:1045800063702B782170A2702BB10323A9786A780D
:104590006171A271E370EB78002B55D0A988AA79DC
:1045A0000423A4F82F1084F83120172007221421A7
:1045B0002371EB7933B102462B7A217103F01F038B
:1045C00084F82E306B7A1BB1AB7A2271002B3FD16D
:1045D000224B234A611E04F1490011F801EF8EEAD3
:1045E000030E4EF300034EF3400C134083EA5E03C8
:1045F0000CEA020C8CEA530C43F340034CF3400EDC
:10460000134083EA5C030EEA020E8EEA530E43F374
:1046100040034EF3400C134083EA5E030CEA020CA5
:104620008CEA530C43F3400313404CF3400E83EAEF
:104630005C0388420EEA020C8CEA5303CDD1DB43C3
:10464000C4F84A30204670BD032213201021B0E781
:1046500041F20103A4F80B30BAE700BFB6D225152A
:104660002083B8ED4FF4807C0C4B00B553F820202C
:1046700003EB8003C00082F0400200F1804003F5AC
:10468000805E02F0C00200F5203003F54053CEF802
:1046900000204160C3F800C000BD00BF048003409B
:1046A000DFF81CC0C90041EA82015CF820200CEB55
:1046B0008003514003F5805301F00C0119607047ED
:1046C00004800340064B022203EB800319B103F57B
:1046D00000531A60704703F540531A60704700BFDB
:1046E000048003404FF0504CC308DCF800C000F0D9
:1046F000070000B58000DFF82CE081400CEBCC0C0B
:1047000003F18C009B004EF8201003EBCC0312B198
:10471000024AD15000BD024AD15000BD48A2024019
:1047200048B202400080024008B54FF05043DFF825
:1047300024C0D3F800E05CF82E30034207D10343D5
:104740004CF82E301520BDE8084000F0ADB901F05E
:10475000FFFA00BFF06D002010B50446152000F0F0
:1047600085FA4FF05043044A196852F8213023EA81
:10477000040342F8213010BDF06D00204FF000031B
:1047800000B543EC440043EC40004FF0050E4FF4FD
:10479000807C0C4BC20053F8201003EB800081F0AA
:1047A000400102F1804303F5203301F0C00200F51F
:1047B000805100F540500A60C3F804E0C0F800C022
:1047C00000BD00BF048003400FB400B5084883B0AB
:1047D00003F0CEFA049B3BB105A91846019103F002
:1047E000CBF8044803F0C4FA012003F0DDF800BF61
:1047F00084720210E8A60210EFF3108072B6064B26
:10480000D3E8CF1F01220029FAD1C3E8412F0029A4
:10481000F6D1BFF35F8F7047973C00200023034A17
:10482000C2E88F3F80F31088704700BF973C00209C
:1048300070B51646EFF3108472B6DFF848E0DEE894
:10484000CF2F0123002AFAD1CEE8423F002AF6D129
:10485000BFF35F8F012301F0070CCA0803FA0CF3C2
:1048600010F802C01CEA030508D14CEA030C00F85A
:1048700002C0CEE88F5F84F3108870BD3046FFF72A
:10488000A3FF00BF973C0020F8B50F461946EFF391
:10489000108672B61C4DD5E8CF4F0123002CFAD1FB
:1048A000C5E8443F002CF6D1BFF35F8F8A421BD886
:1048B000012402E00132914222D3D30810F803E030
:1048C00002F0070C04FA0CFC1EEA0C0FF2D14EEABF
:1048D0000C0E00F803E010460023C5E88F3F86F376
:1048E0001088984207DBF8BD0023C5E88F3F86F3A8
:1048F00010884FF0FF30002FF5D00698FFF764FFC7
:104900004FF0FF30E8E700BF973C002000B5EFF321
:10491000108E72B6104BD3E8CFCF0122BCF1000F3E
:10492000F9D1C3E84C2FBCF1000FF4D1BFF35F8F76
:1049300001224FEAD10C01F0070102FA01F110F84F
:104940000C2022EA010200F80C200022C3E88F2F7D
:104950008EF3108800BD00BF973C0020044A1078F9
:10496000431CDBB2182B28BF10231370704700BF05
:10497000542A002000B5DFF81CC083B001461F2375
:104980001822CDF800C00248FFF77EFF03B000BD3B
:10499000903F0020947202104FF0E022936843F0A1
:1049A00000539360704700BF0021044B03F12002C5
:1049B000C3E88F1F01339342FAD170478C3C00202B
:1049C0004FF0E0234FF08032C3F80024C3F80424F2
:1049D000C3F80824C3F80C24C3F81024C3F8142423
:1049E000C3F81824C3F81C24C3F82024C3F82424D3
:1049F000C3F82824C3F82C24C3F8302462B67047C7
:104A0000012300F01F029340400941B1800000F1F2
:104A1000604000F56140C0F8803103607047024A91
:104A2000203042F82030704700E100E001224309C5
:104A3000034900F01F008240403341F823207047B3
:104A400000E100E008B5EFF3108E72B6134BD3E827
:104A5000CFCF0122BCF1000FF9D1C3E84C2FBCF13C
:104A6000000FF4D1BFF35F8F0D4A10309268DFF86A
:104A700034C052F82020624501D091420BD1084A3F
:104A8000926842F82010BFF35F8F0022C3E88F2F97
:104A90008EF3108808BD01F05BF900BF953C002043
:104AA00000ED00E0110100102DE9F84F8B46114692
:104AB000EFF3108872B6664FD7E8CF2F0123002A94
:104AC000FAD1C7E8423F002AF6D1BFF35F8F614BAE
:104AD00093F90040002CC0F2B88000F110055E4848
:104AE00004EB440900EB890296794FEA89091E70AC
:104AF0005A4B9B6853F82560331A2F2B35D826F074
:104B0000010E9EF807308B4209D86FE00CEB4C0386
:104B100000EB830393F807A08A4551D99E469EF97E
:104B200006C0BCF1000FF1DA4BF601590EF1040A90
:104B3000131FA3EB0A03C3F34A036FEAC3436FEAED
:104B4000D3438EF80640DFF820A104EB440400EBC9
:104B50008402AEF8043040F824A0A2F8049082F851
:104B600006C0D171C2F808B01DE03D4B9E426CD129
:104B70003C4BD17109F102010144043B5B1AC3F3C0
:104B80004A036FEAC3434FF421416FEAD34320F84D
:104B900009105380FF214BF60153C2F808B0917100
:104BA000938042F001062D4B9B6843F82560BFF3CC
:104BB0005F8F0023C7E88F3F88F31088BDE8F88F28
:104BC000F2466FF00703A3EB09033AF8049F1B1AA0
:104BD00049F30A0909F102090AEB49099944C9F3A1
:104BE0004A096FEAC9496FEAD949A1E76FF007039B
:104BF000D1711C4909F1020404440439091BA3EBD7
:104C00000903C1F34A011B1A6FEAC1417344C3F39C
:104C10004A036FEAC3436FEAD1414FF421466FEA7A
:104C2000D3435180104920F8096093804AF6AA24A2
:104C300073461B1A5B415C43240DC2F808B09471A3
:104C400042F00106CEF80010ADE701F081F800BF98
:104C5000953C0020B16E0020582A002000ED00E0B5
:104C600011010010882A0020014880472DE9F047F3
:104C700082B0EFF3108572B6DFF8A8C1DCE8CF2F61
:104C80000123002AFAD1CCE8423F002AF6D1BFF333
:104C90005F8F5E4B00F110049B6853F824205C4B3F
:104CA0009A423DD08A4249D0DFF87CE1A2EB0E0364
:104CB0002F2B35D8012743099B0000F01F0003F17B
:104CC000604303F5614387401E689A46B946C3F8BE
:104CD0008070BFF35F8FEFF30583DBB21F467BBBB2
:104CE0000123834022F0010003EA06088668B142EE
:104CF00008D181E003EB43030EEB83039E68B142CE
:104D000025D0184690F90630002BF3DAB1424ED088
:104D10005346B8F1000F17D0C3F88091C3F8009044
:104D20003A4B9B6843F82420BFF35F8F0023CCE805
:104D30008F3F85F3108802B0BDE8F0871A46EFE791
:104D40009C42CDD001F004F8C3F88090E8E793F9D5
:104D50000660002E2CDB06EB46000EEB8001800087
:104D60000190C8798F68D87191F906009F6000287A
:104D700098714FEA46072EDB8988019841F30A01B2
:104D800000EB41016FF0070008317144C01A014483
:104D9000C1F34A016FEAC1416FEAD14199801D49CF
:104DA000BB1908780EEB83030E709871B0E70346C9
:104DB0009FB9FF2181714BF601518180154E184634
:104DC00037784AF6AA219F717346C01A4041414381
:104DD000090D31709CE71049E0E71049104EC91ADF
:104DE0000839C1F30A306FEA00506FEA105046EA02
:104DF0005101D98098808BE790F906600346002E18
:104E0000A9DA002FE9D1024AD8E700BF00ED00E09F
:104E100011010010B16E002001BDFFFF922A002099
:104E200000F8FFFF953C0020582A00204FF0FF0CAF
:104E300020F0030303F1604303F5644300F0030033
:104E40001A68C0000CFA00FC22EA0C0281400A43F6
:104E50001A6070472DE9F041EFF30583DBB29E46FF
:104E6000EFF3108572B62949D1E8CF2F0123002A2C
:104E7000FAD1C1E8423F002AF6D1BFF35F8FDFF8D5
:104E80009C8040F00106D8F808704AF6AA2357F82B
:104E90002E7004461E4AA41A644163431B0DB74298
:104EA0005BB21ED092F906409C4220D092F912408B
:104EB0009C4227D092F91E409C4225D092F92A406C
:104EC0009C4208BF032413D0124A002492F800C069
:104ED000137080F806C0C1E88F4F85F31088BDE8D5
:104EE000F081D8F808200C4C42F82E40ECE7002462
:104EF00004EB440402EB8402FF2494714BF601544A
:104F00009480E1E70124F3E70224F1E7953C0020D7
:104F1000582A0020B16E00201101001000ED00E0C1
:104F2000C0F133010148FFF7F1BC00BFBD6E0020A6
:104F300000B5DFF824C083B0014605230022CDF878
:104F400000C00448FFF7A0FC0028A8BFC0F1330050
:104F500003B000BDBD6E0020B072021030B583B04A
:104F600004460D460192FFF7F9FC0146204600F089
:104F700007F8019AA580E280BFF35F8F03B030BDD0
:104F8000014B0B44036070478C3C002070B5104C03
:104F9000104DAC420ED2FF26236863B1FFF7DEFC52
:104FA00001462046FFF7ECFFA680BFF35F8F083471
:104FB000AC42F1D370BDFFF7D1FC01462046FFF7AC
:104FC000DFFF2671BFF35F8F0834AC42E4D370BDBE
:104FD000603100206831002010B50446FFF7BEFCA8
:104FE00001462046FFF7CCFFFF232371BFF35F8FFD
:104FF00010BD00BF10B50446FFF7B0FC01462046C7
:10500000FFF7BEFFFF23A380BFF35F8F10BD00BF7C
:1050100010B504460120FFF7ADFC034B03442360A9
:10502000BFF35F8F10BD00BF8C3C002010490B68A0
:10503000EFF3108072B6D3E8CFCF0122BCF1000F9E
:10504000F9D1C3E84C2FBCF1000FF4D1BFF35F8F4F
:10505000084A4FF0000C1378096801331370C1E857
:105060008FCF80F3108840BF00200021704700BF21
:10507000586E0020B56E00202DE9F04F2DED028B0B
:1050800085B0EFF30583DBB2103B9A0818BF01220D
:105090004FF0010103F0030B18BFA94CA94B08BF47
:1050A000A94C0BEB820253F8225001FA0BF204F5E3
:1050B00041539FEDA18B02925A602FE0AB881904F7
:1050C00040F19480AB79002B40F0DE80B5F90860A8
:1050D000002EC0F21C816B6906EB460603EBC6038B
:1050E000D3E90267B7F1FF3F08BFB6F1FF3F0ED02B
:1050F00004EB8B01A36A0A69D21AF31A934205D30F
:105100000123226A03FA0BF3134200D10E612046F9
:1051100000F058FCB042B941C0F2F980B5F908601E
:10512000029B002EE363C9DBD5F8149006EB460A18
:1051300009EBCA07BB682046D7F80C80019300F042
:1051400041FC019B984271EB0801B7DBB8F1000FFD
:10515000C0F2C080D7E904317C4A934200F0F88065
:105160007A88B5F9080092B242EA004098470246B0
:105170000B4652EA030100F0AD80002B80F2CD8097
:105180000199B1EB020E68EB030839F93A30C7E92F
:1051900002E8002B92DB686903EB430200EBC202DA
:1051A000D2E90271BE4578EB010C4FEA430285DB80
:1051B000AC462CF8083F06E003EB430100EBC101CD
:1051C0005A00D1E90271BE4578EB01011A4405DBB2
:1051D00030F9323000EBC20C002BEDDA29F83A300E
:1051E000ACF80060AB8819043FF56CAF2B69EFF3A6
:1051F000108272B6D3E8CF0F01210028FAD1C3E89C
:10520000401F0028F6D1BFF35F8F4FF6FF76A888C6
:105210000023296900B2AE80C1E88F3F82F3108875
:105220009842FFF64FAF0746A1466E6905F10808A0
:10523000B5F9083007EB470E002BC44606EBCE024B
:1052400015DBD2E90240AA46019704E036F9353071
:105250009446002B09DB03EB430506EBC502D2E9BC
:105260000271BC4270EB0101F0DA5546019FACF8C7
:10527000007036F93E7026F83E30002FD8DAAB7950
:105280004C46002B3FF422AF0023AB71B5F9086008
:10529000721C33463BD0686905F1080E03E08E4668
:1052A0005A1C3FF415AF03EB430200EBC2014F88D9
:1052B0009C463F0430F93230F1D5664581ED028BD2
:1052C000EED0AEF800302989664620F83210A5F8F5
:1052D00008C0E5E739F83A302B812B69EFF31082EB
:1052E00072B6D3E8CF0F01210028FAD1C3E8401FDE
:1052F0000028F6D1BFF35F8F6B88296929F83A300F
:1053000000236E80C1E88F3F82F31088D6E640BF4D
:1053100005B0BDEC028BBDE8F08F204603930192EF
:1053200000F050FB019A039B10EB020E43EB0108C7
:105330002BE700BFAFF30080FFFFFFFFFFFFFFFF82
:1053400000800B40CC6D002000000B407950001015
:1053500008460B69039198470028BBD00399D1E90F
:10536000002306E738B5384B1C692CB1BDE838403E
:105370000A213648FFF704BE0321354800F010FB30
:10538000334D314BDD60FFF7E9FA324A4FF0504EB2
:10539000024403202C4B4FF00F0C18701A61DEF8FA
:1053A00000204FF6FF715A705A69A3F802C01483A7
:1053B0004FF00204A2F848404FF00404A2F87840ED
:1053C0004FF00504A2F890404FF00604A2F8A84060
:1053D0004FF00704A2F8C0404FF00904A2F8F040D3
:1053E0004FF00A04A2F808414FF00B04A2F8204144
:1053F0004FF00C04A2F838414FF0010414864FF02E
:105400000804A2F8D840144C4FF00D0E4FF00E0CCB
:105410009C6008249980A2F850E1A2F868C1A2F823
:10542000600011800D4A2C620D49D360FFF70AFB22
:1054300001210320FFF7E4FA0A4B0A211C64034808
:10544000BDE83840FFF79CBDA82A0020586E002018
:1054500000000B408C3C0020FFFF1000CC6D0020B2
:105460007950001000200B4000487047A82A002007
:10547000F0B583B09DF828401D46034654B9CDE9E8
:10548000000200F0A7FA019A009B824265EB01013D
:10549000A1425BDB1969EFF3108072B6D1E8CF6FE0
:1054A0000124002EFAD1C1E8464F002EF6D1BFF3F9
:1054B0005F8FB3F902401F69002C3EDBD3F814C0A4
:1054C00004EB440E3CF83E10002659800CEBCE0154
:1054D000C7E88F6F80F310884888C1E90225013042
:1054E000C0F30E00012838BF0120089A48800A61E5
:1054F000099A40EA04404A611A69EFF3108172B6D2
:10550000D2E8CF7F0125002FFAD1C2E8475F002FF4
:10551000F6D1BFF35F8F9A882CF83E201A699C80E1
:10552000C2E88F6F81F3108801211C78DA68A140EE
:1055300002F50153596003B0F0BD0023C7E88F3F67
:1055400080F310884FF0FF3003B0F0BD204603B069
:10555000F0BD00BFF0B516461F4602690346EFF3E3
:10556000108072B6D2E8CF4F0121002CFAD1C2E8E8
:10557000441F002CF6D1BFF35F8FB3F902101D69F1
:10558000002945DBD3F814E001EB41023EF832403C
:105590000EEBC20C5C800024C5E88F4F80F31088AE
:1055A00005983546CCF8100006983E46CCF8140015
:1055B000BCF80200CCE902560130C0F30E0001280D
:1055C00038BF0120ACF8020040EA0140D3F810C017
:1055D000EFF3108572B6DCE8CF7F0126002FFAD1F9
:1055E000CCE8476F002FF6D1BFF35F8FB3F804C04C
:1055F0002EF832C099801A69C2E88F4F85F310885F
:1056000001211C78DA68A14002F501535960F0BD10
:105610000023C5E88F3F80F310884FF0FF30F0BDC6
:1056200003464089B0EB214F3ADD58690A1402EB7A
:10563000420210B5D3F810C000EBC200EFF3108E99
:1056400072B6DCE8CF4F0122002CFAD1CCE8442F0F
:10565000002CF6D1BFF35F8F428889B292B28A42A2
:1056600007D000221B69C3E88F2F8EF3108800201B
:1056700010BD6FEA42426FEA52424280012100228D
:1056800018699971C0E88F2F8EF3108893F800C0C5
:10569000DA68084602F5015301FA0CF1596010BDB1
:1056A000002070472DE9F043841F61F10006A042FD
:1056B00071EB060338BF002483B038BF2646054689
:1056C0000F4600F087F9201A66EB0101012871F1FD
:1056D000000106DA2846394603B0BDE8F04300F081
:1056E000B3B900F077F9844266EB010100290ADBC7
:1056F00000211D4B224600931C4833460191FFF7C1
:1057000029FF0130E6D04FF0000E194ADFF868C0DB
:105710001849536A9E4204D8906AA042DAD29E4247
:10572000D8D1DCF80030EFF3108072B6D3E8CF9F09
:105730005FF00108B9F1000FF8D1C3E8498FB9F162
:10574000000FF3D1BFF35F8F0B785FFA83F8DCF8BB
:105750000030C3E88FEF80F310880878404500D10F
:1057600020BF20BFD5E700BF2D500010A82A002081
:1057700000000B40B56E0020586E00202DE9F0436C
:1057800083B0064600F026F94FF47A7304464FF0D2
:10579000FF306FF00042E6FB0341A04272EB0103D1
:1057A0003ABF044615460D46A61F45F1FF37B442E1
:1057B00075EB07033CBF0026374600F00BF9301AA3
:1057C00067EB0101012871F1000106DA2046294644
:1057D00003B0BDE8F04300F037B900F0FBF88642B3
:1057E00067EB010100290ADB00211D4B32460093C3
:1057F0001C483B460191FFF7ADFE0130E6D04FF06B
:10580000000E194ADFF868C01849536A9F4204D84D
:10581000906AB042DAD29F42D8D1DCF80030EFF380
:10582000108072B6D3E8CF9F5FF00108B9F1000F86
:10583000F8D1C3E8498FB9F1000FF3D1BFF35F8FFF
:105840000B785FFA83F8DCF80030C3E88FEF80F361
:1058500010880878804500D120BF20BFD5E700BF61
:105860002D500010A82A002000000B40B56E00202B
:10587000586E0020F0B5024685B0EFF30585EDB215
:10588000002D61D10B46424CD4E90001994208BF7A
:1058900090424AD0CDE902233E4BDF681E7838465D
:1058A00000F090F806F1040C57F82CC0029A039B04
:1058B000ACEB000C101A63EB0101604571F10001C3
:1058C00033DACDE9022300F085F8029A039B824285
:1058D00063EB0101002949DB2F492E480091019516
:1058E000CDE90232FFF736FEDDE90232011E3DDD71
:1058F0002A48C4E90023446A9C4246D3806A904205
:1059000041D32448CDE90232FFF78AFE2349029BA6
:10591000486A98421CD314BF012000208B6A039A66
:10592000934228BF40F001000CE020BF1B49486AA9
:1059300098420DD314BF012000208B6A934228BFE8
:1059400040F0010005B0F0BD1448436A8B4202D21A
:10595000002005B0F0BD14BF01230023816A9142ED
:1059600034BF184643F0010005B0F0BD0B49486A4A
:105970009842EDD3C01A18BF01208B6A934228BF0A
:1059800040F00100DEE79C42BBD120BFB9E700BF79
:10599000A02A0020A82A00202D50001000000B4053
:1059A00010B4054B054C064AA04214BF1846581CBB
:1059B00010BCFEF73DBF00BF943F002000800B40AD
:1059C000CC7202100346416A0A46986A596A8A42B2
:1059D000FAD17047034B596A0A46986A596A91424C
:1059E000FAD1704700000B4000B58E46154A536A45
:1059F0009C46916A536A6345FAD1401853EB0E03F3
:105A00004FF0000228BF0122BAB10E4B5A6A531C54
:105A100008BF104608D04FF0FF33184609494A6ABC
:105A20009A42FCD39A4207D1064B02E0596A91424E
:105A300002D1996A8142F9D300BD024A526A934267
:105A4000ECD8EFE700000B40074A536A9942FCD8B4
:105A5000994207D1044B02E05A6A914202D19A6AF4
:105A60009042F9D8704700BF00000B4000EB400C9B
:105A70004FEA8C0C0CF1804C0CF5803C70B51E4646
:105A8000DCF80430041FB3F5803F38BF4FF4803397
:105A9000E4B238BFCCF80430012C2ED94FF40065A5
:105AA000284B0CF5405ECEF8005053F820E0BEF1D4
:105AB000000F17D1DCF800E0012C8EEA421202F050
:105AC000E0020CF5805ECEF800202BD94FF4006187
:105AD00043F820604FF480330CF500521160CCF88D
