:020000041000EA
:10000000002008205B0100101B0100101D010010E2
:100010001101001011010010110100101101001058
:100020001901001019010010190100101F01001022
:10003000110100101901001021010010230100100E
:100040001101001011010010110100101101001028
:100050001101001011010010110100101101001018
:100060001101001011010010110100101101001008
:1000700011010010110100101101001011010010F8
:1000800011010010110100101101001011010010E8
:1000900011010010110100101101001011010010D8
:1000A00011010010110100101101001011010010C8
:1000B00011010010110100101101001011010010B8
:1000C00011010010110100101101001011010010A8
:1000D0001101001011010010110100101101001098
:1000E0001101001011010010110100101101001088
:1000F0001101001011010010110100101101001078
:100100001101001011010010110100101101001067
:10011000EFF30580103800BE00BE00BE00BE00BE7A
:1001200000BE00BEF2EB887150A10A1070A10A1047
:100130009C01001090A31AE7D3DEFFFF42012110BB
:10014000FF01000098D30A00793512AB00201E4948
:10015000086006C881F3088810474FF050400068D7
:1001600008B10020F3E70DA40ECC002902D000F066
:1001700012F8F9E71549164A002000E001C1914242
:10018000FCD114498847144988471449884700BE60
:10019000FDE701C901C29A42FBD3704770A10A1062
:1001A0002001002080340020D0D40A100000082054
:1001B00000000820D0D40A100010082000100820E9
:1001C000000000007047000008ED00E080340020CF
:1001D00080E40020E9CC0010FD160010E1CC0010F6
:1001E000704700BF00B5042183B001900BF096F971
:1001F000019803B000BD00BF10B504464FF4805114
:10020000006860F079FBD4E90001BDE810404FF4CC
:10021000807260F065BB00BF70B50D460646C2B087
:1002200002AC4FF48072FF21204660F03DFBD5E91F
:1002300000122046521A60F087FB06F2FB331B03C4
:100240004FF47A72694605480093019409F0D6F993
:10025000B0FA80F0400942B070BD00BFF901001053
:100260000129084604D8D2E900135B1A402B01D0BB
:10027000002070471146FFF7CFBF00BF10B51948E7
:10028000194C02F0C5F9174803F078F9A07C01F089
:1002900039FD207D01F042FD144A237F1178003B97
:1002A00018BF0123FF29E07E05D0884216D04FF009
:1002B000000444EC44100E4CFF28107023700CD046
:1002C00007F080FF094A4FF00101137841EC4430F8
:1002D000FF2B02D0227842EC403010BD044C10704D
:1002E0002370EDE7383A0020343A0020B02C00208B
:1002F00043E4002070B58AB00C4642F00102ADF82C
:100300001600D3E9001000238DF815200122CDE955
:1003100006331F4D8DF818401E4C8DF81420421ADC
:10032000CDE908339DF8386023702B7021D105A9E1
:1003300002A8089206F06EF902A90EC9521A402AC4
:1003400008D089B9079818B10999091A0BF0E6F88D
:100350000AB070BD1048CDE9001360F0A9FADDE9DC
:10036000001301222E7022700846591A0BF0D6F89D
:10037000E8E71046019100920BF0CCF8DDE900218E
:1003800060F0E2FA009A079002440992CFE700BFBA
:1003900045E400203DE40020B037002000000000CC
:1003A0002DE9F041804686B0104616460F465FF0B4
:1003B00081FD0446E8B1302828BF302420460BF0E8
:1003C000A9F831462246061905460290049660F0C7
:1003D000BBFA0023394640460093022202AB039643
:1003E000FFF788FF2146284606B0BDE8F0410BF034
:1003F00095B89FED077B394640460222009402AB38
:100400008DED027B0494FFF775FF06B0BDE8F08127
:1004100000000000000000002DE9F04FD1E900537A
:100420008B46DBF808909D42A9EB050383B018BF0B
:100430004D603F2BDFF8448174D8DBF80060AC1BC3
:1004400004F1004340333F2B40F29080402C2CBFFE
:10045000271904F140076FF000439F4228BF1F4651
:1004600038460BF057F8AE4282467DD0621E052A10
:1004700033466FD9811B0139022902466AD924F01B
:10048000030C4FEA940E06EB0C0053F8041B834256
:1004900042F8041BF9D1644510D01A4612F8011B2A
:1004A000D44495420AF82E1008D05A788CF80120CE
:1004B0009A1C95421CBF9B788CF80230544423460A
:1004C000C6469C4608F14004019375460CF1100C99
:1004D0000FCDA5420EF1100E4CF8100C4CF80C1C70
:1004E0004CF8082C4CF8043CEFD1019B03F140057B
:1004F00026B13046A9EB06010BF010F8CBE900A5B8
:100500005744CBF808701B4B984503D1012003B02A
:10051000BDE8F08FDBF80890DFF85880A9EB050301
:100520003F2B8AD9464608F14007344610350FCC98
:10053000BC4206F1100645F8100C45F80C1C45F8B5
:10054000082C45F8043CF0D1DBF804504035CBF8DA
:100550000450D8E753465444721E12F8011F03F8A2
:10056000011B9C42F9D1AAE70346A9E7024855F0CE
:1005700095FD00BF00C03F10D809061000B03F1025
:100580002DE9F0470446B8B040200AF0C3FF2346E7
:10059000024600F1400425460994079003F1400407
:1005A0001968D3F804E0D3F808C0D8681033A34220
:1005B0001160C2F804E0C2F808C0D06002F1100275
:1005C000EED107A90DA8089506F00AF90D9BBDF814
:1005D0003A409DF83C10BBB94B1E112B00F26C87C2
:1005E000DFE813F03000480063008C001401BE0106
:1005F000FF01200225031603D8039B03AC037D03F0
:100600008C03B703E90425002046744AFFF7C8FEAF
:10061000109818B11299091A0AF080FF079818B1BA
:100620000999091A0AF07AFF38B0BDE8F087DDE9C8
:1006300010239A4200F04D8512212046684AFFF7A8
:10064000AFFEE5E704200AF065FF00220546654B92
:1006500005F1040C18680121286022AB20460092A5
:10066000CDE923CC2295FFF745FE042128460AF068
:1006700055FFCDE70C200AF04DFF5B4B054607CB3D
:10068000002328606960AA6020461A4605F10C0C18
:100690000093022122ABCDE923CC2295FFF72AFE5D
:1006A0000C2128460AF03AFFB2E7504922A806F08A
:1006B00035FB18200AF02EFF4FF0000E05460DF115
:1006C000880C00F11803CDE91B331A90BCE80F0029
:1006D00028606960AA60BCE80300EB60286169617A
:1006E00020469DF83C107246CDF800E01AABFFF7AB
:1006F00001FE182128460AF011FF89E7DFF808E11A
:100700000DF14C0CBEE80F00ACE80F009EE80700AE
:100710008CE8070013AA10A91AA806F04BFB9DF855
:100720006830002B00F0CC85314913AA22A806F0CE
:1007300033FE9DF88830002B00F068862D4D2E4E3C
:100740002B68029308F0A8FD029B4FF47A7203EB2A
:1007500043031F0106EB03130293002360F000F92B
:1007600014227B1DF0519819029E0021327128221B
:1007700060F09AF82149327960F0E6F820480022CA
:100780000168204B01310C2928BF0C210160296828
:1007900020460131A3FB0143DB0803EB4303A1EB3C
:1007A000830100920AAB29609DF83C10CDE90A2232
:1007B0000C92FFF79FFD239825AB984203D0259913
:1007C00001310AF0ABFE1B981DAB98423FF420AFFD
:1007D0001D9901310AF0A2FE1AE700BFF0090610C8
:1007E000D40B0610785606106C560610383A0020C6
:1007F000343A0020AC370020F4370020000A0610FD
:10080000F0370020ABAAAAAA94560610DFF810E22F
:100810000DF1880CBEE80F00ACE80F009EE8070061
:100820008CE80700AEF1140006F0DAFD002800F0B5
:100830005B85FFF723FD01216F4D704A2B68117016
:10084000029308F029FD029B6D4E03EB43031F0149
:1008500006EB03134FF47A720293002360F080F8E2
:1008600017227B1DF0519819029E00213271282217
:1008700060F01AF86349327960F066F86249634BB8
:100880000A6801320C2A28BF0C220A602A68013249
:10089000A3FB0213DB089DF8961003EB4303A2EBC6
:1008A00083035B4A0129927C2B6000F0AA85012A10
:1008B00006D0574A9DF89810127D914200F0F085BD
:1008C000029308F0E9FC029B4D4D03EB430305EB5B
:1008D00003171E014FF47A72002360F041F82822BA
:1008E000731DA851002158193A715FF0DDFF494985
:1008F0003A7960F029F84FF0010C43483E4D016809
:100900002A6861440C2928BF0C21404B62440160D5
:10091000A3FB0213DB0803EB4303A2EB83022A6071
:1009200001239DF83C10022002918DF84DC08DF8F6
:100930004C300AF0EFFD0022054600F1020C204683
:10094000BDF84C4002992C801AAB0092CDE91BCC2B
:100950001A95FFF7CFFC022128460AF0DFFD57E683
:10096000254D2B4806F050FE2B68254E029308F0CB
:1009700093FC029B4FF47A7203EB43031F0106EBD7
:100980000313029300235FF0EBFF1A227B1DF0514B
:100990009819029E0021327128225FF085FF32797A
:1009A0001D495FF0D1FF184800220168174B013143
:1009B0000C2928BF0C210160296820460131A3FBC6
:1009C0000143DB0803EB4303A1EB8301009222AB5D
:1009D00029609DF83C10CDE922222492FFF78AFC81
:1009E00016E6DDE910239A4200F033830721204602
:1009F0000A4AFFF7D5FC0BE6AC3700203FE40020A5
:100A0000F4370020340A0610F0370020ABAAAAAA57
:100A1000343A00204C0A0610800A0610280C0610F2
:100A2000383A002022A803F0AFFA1AA801F05EFEBF
:100A3000D14B1D780CF0C0FF9DF888209DF88C10DC
:100A4000A2F10302B2FA82F29DF88B300291BDF856
:100A50008D10804652090A209DF889609DF88A70A1
:100A60000592039304910AF055FD039A03464271DF
:100A7000059A0299C271042281710499457080F827
:100A80000280C670077119811A701420329D02937A
:100A90000AF040FD0246029B857218680A21106028
:100AA00058680292506018892646108118460AF04C
:100AB00035FD029A9DF868102B0A91749DF89110EB
:100AC000D372D174339B290C1173290E5173190AF7
:100AD0009373D173190C1B0E1174537428201C9D31
:100AE0000AF018FD0346029A057510681421186073
:100AF00050680293586090689860D068D860106918
:100B0000186110460AF00AFD0022029B9DF8D0C031
:100B10009A7783F81CC09DF8D1C0DA7783F81DC09E
:100B20001D9A4FEA154C290A83F816C04FEA156C36
:100B3000597583F817C035994FEA122C1A7683F845
:100B400019C04FEA124C120EDDF8D8E0DA760A0A24
:100B500083F821200A0C83F822204FEA1E2283F812
:100B600025204FEA1E4283F8201083F82620090E24
:100B70004FEA1E6283F8231083F8272083F824E0CD
:100B800083F81AC05020379D0AF0C4FC029B01462E
:100B900007461A46984680F8285003F12004136847
:100BA0005068D2F808E0D2F80CC01032A2420B60B4
:100BB0004860C1F808E0C1F80CC001F11001EED1A5
:100BC000D2F800C053684046C1F800C04B602821ED
:100BD0000AF0A4FC082100222C0C87F82A402C0ED5
:100BE00025FA01F387F82B4007F1300487F8293004
:100BF0003046FA62239422AB009207F15004229708
:100C00002494FFF777FB502138460AF087FCFFE475
:100C1000DDE910239B1A042B03D11378522B00F02B
:100C200087830A212046554AFFF7BAFBF0E4DDE945
:100C30001032D11A012900F35F839A420CBF0023BE
:100C40001B7803201E4602930AF064FC4FF0000557
:100C5000024601214A48029B006853708642117087
:100C60009570C0F0A582062002920AF053FC03465C
:100C7000029A03211088DD70188090780293987092
:100C800010460AF04BFC4FF00002029B0C209A80A9
:100C90000AF040FC4FF000060546029BAE711A6850
:100CA00080462A6018469B880621AB800AF036FCF5
:100CB00005F10C09EE7105F108030022CDE913835B
:100CC0002046092113AB0092CDF85490FFF712FB98
:100CD000A9EB0807394640460AF020FC98E4DDE914
:100CE00010031B1A052B03D10378012B00F0968308
:100CF0000E212046234AFFF753FB89E4DDE9100368
:100D00001B1A052B03D10378012B00F098830F21C8
:100D100020461D4AFFF744FB7AE402F0A7FC9DF849
:100D20003C10002800F0D4820022204622AB009222
:100D3000CDE922222492FFF7DDFA69E4DDE91023F0
:100D40009A4200F04F810D212046104AFFF728FB00
:100D50005EE4DDE910239B1A022B06D11378012BE8
:100D600003D15078012840F28A8310212046084A96
:100D7000FFF716FB4CE400BF3FE40020840C061094
:100D8000F0370020BC0A0610FC0A06109C0A061068
:100D90003C0B061022A803F0F7F830200AF0BAFB4B
:100DA0002F2200F13003054600211A9080460130C1
:100DB0001C9302935FF078FD02219DF88820029B2E
:100DC000032A1B93297000F0898204204FF0060C3F
:100DD0000A4600239DF88D1019B16046134688F825
:100DE00001209DF88E2012B1034688F801009DF87D
:100DF000891019B143F0080388F801309DF88A1072
:100E000019B143F0100388F801309DF88B1019B127
:100E100043F0200388F801309DF88C1019B143F09D
:100E2000400388F801309DF88F1019B163F07F03FB
:100E300088F80130002A00F0CE80DDE92623BDF8D5
:100E4000A010C8F80220C8F80630BDF8C0209DF8F0
:100E5000C230A8F80A10A8F81020002B00F0538226
:100E600001220321134688F812209DF8C32012B1F5
:100E70000B4688F812109DF8C4201AB143F0040301
:100E800088F812309DF8C5201AB143F0080388F89D
:100E900012309DF8B4201AB143F0100388F81230D4
:100EA0009DF8BA201AB143F0200388F8123020468A
:100EB00000242246A646A44623462146BDF9A65054
:100EC000BDF9A4600295BDF9AE50BDF9AA700395B5
:100ED000BDF8B85004959DF8A25065F3070466F379
:100EE0000F24C6F3072666F31744029E66F31F64B9
:100EF000C8F81340C6F3072464F30702BDF9A840FD
:100F00002C9E64F30F22C4F3072464F3174267F3A3
:100F10001F62C8F81720C7F3072262F3070EBDF956
:100F2000AC20BDF8B64062F30F2EC2F3072262F385
:100F3000174E039A62F31F6EC8F81BE04FEA166E55
:100F40006EF3070CC2F3072264F30F2C240A62F33A
:100F5000070364F3174C2C9A049C62F30F2364F389
:100F60001F6CBDF8BC20240A64F3070162F30F2153
:100F7000120A62F31741BDF8BE20C8F823C062F31D
:100F80001F61120A88F82B20320A62F31743320CD1
:100F900062F31F63C8F81F300023C8F827101A46F1
:100FA00000930B211AABFFF7A5F9302140460AF058
:100FB000B5FAFFF72DBBDDE910031B1A302B03D167
:100FC0000378012B00F04C8211212046CF4AFFF715
:100FD000E7F9FFF71DBB0B21204600921AABFFF784
:100FE00089F9E2E722A802F0CFFF9DF898200820B7
:100FF00002920AF08FFA029A0546A2F1310200210C
:101000000120B2FA82F205F10803CDE91B339DF805
:101010008E30C5F80110520969601A952870002BAE
:1010200040F0E781AA70002240F6B83C9DF890108D
:10103000204643EA41132B71A5F806C00D211AABD7
:101040000092FFF757F9082128460AF067FAFFF7E0
:10105000DFBAAF4DAF4E2B68029308F01DF9029B2B
:101060004FF47A7203EB43031F0106EB0313029361
:1010700000235FF075FC26227B1DF0519819029E1B
:101080000021327128225FF00FFC3279A2495FF013
:101090005BFCA248A24B0168002201310C2928BF49
:1010A0000C210160296820460131A3FB0143012482
:1010B000DB0803EB4303A1EB8301296022AB9DF81E
:1010C0003C100094CDE922222492FFF713F9FFF798
:1010D0009FBA1AA801F00AFB22A802F055FF0123CB
:1010E0008DF84C309DF891309DF868208DF84E3089
:1010F0009DF8903004208DF84F308DF84D200AF087
:1011000009FA054613991C9A296008200391029256
:101110000AF000FA03460399029A016028461A7100
:101120000421CDE902320AF0F9F91020039A029B5A
:10113000110A597122FA00F1120EDA711D9A997191
:10114000039302920AF0E6F90546039B029A0821EE
:101150000272186828605868686018460AF0DEF95C
:101160004FF0000E029A2046259C4FEA124C85F85B
:101170000AC0130A4FEA126C220A2C736A73220CFB
:10118000240E6B72AA73EC7385F80BC012217246A1
:101190001AABCDF800E005F11004CDE91B441A9517
:1011A000FFF7A8F8102128460AF0B8F9FFF730BA7F
:1011B000574B917019685A4B0B31A3FB01EC4FEA66
:1011C000DC0C0CEB4C0CA1EB8C010C31891BA3FB50
:1011D00001C3DB0803EB4303A1EB83034D4F03EB98
:1011E0004303049206201A0107EB0313BD58CDE90F
:1011F00002230AF08FF90346049AC5701088032170
:10120000188090780493987010460AF087F9049B30
:101210002A0A1A712A0C5A710C200AF07BF92A0E3C
:101220000546049B82711A68824602609A880621EC
:10123000828018460AF072F9039B05F10C091A79AD
:1012400005F10803EA71002A00F028810299042AB6
:1012500001F10501394440F22781082A104638BFC0
:1012600008206FF00043029200F108029A4228BF62
:101270001A461046174603910AF04CF9DAF8003086
:1012800005460360DAF804300399029A4360804609
:1012900008305FF059FB029A0C21831850460293E4
:1012A0000AF03CF900231A460093029B092114938B
:1012B000EB191593204613AB1395FFF71BF809E5BF
:1012C00020461B9A9DF83C10FFF76AF8FFF77BBA9F
:1012D0002046144AFFF764F8FFF79AB90123052066
:1012E0004FF0070C6B7075E520460F4A9DF83C10D7
:1012F000FFF756F8FFF78CB9092120460B4AFFF794
:101300004FF8FFF785B90221AFE500BF840B061047
:10131000AC370020F4370020480C0610F0370020CE
:10132000ABAAAAAAF40B0610180A06100C0C061099
:1013300053780132432B7FF474AC12F8013F562BE3
:101340007FF46FAC5378312B7FF46BAC5D4D2B6821
:10135000029307F0A1FF029B5B4A03EB43031F01CB
:1013600002EB0313164602934FF47A7200235FF0E8
:10137000F7FA12227B1DF0519819029E002132715A
:1013800028225FF091FA327950495FF0DDFA0121AD
:101390004F48504B02680A440C2A28BF0C220260B6
:1013A0002A680A44A3FB0203DB0803EB4303A2EB16
:1013B0008302494B2A60197007F06EFF4FF47A726E
:1013C00000235FF0CDFA10F1FA0320464FF000043D
:1013D000424A41F100010094C2E9003122469DF8E1
:1013E0003C1022ABCDE922442494FEF783FFFFF7A3
:1013F0000FB99DF8C2306870E870AA7043F0DE0340
:1014000011E6012A7FF45CAAFFF753BA2046239A1B
:101410009DF83C10FEF7C4FFFFF7CDB98178B0F816
:101420000320407802F030F99DF83C1000287FF44A
:101430007BAC20462A4AFEF7B3FFFFF7E9B8817874
:101440000379C278407802F091F99DF83C100028A9
:101450007FF46AAC2046234AFEF7A2FFFFF7D8B814
:101460002F21013002F014FC9DF83C1000287FF47D
:101470005BAC20461C4AFEF793FFFFF7C9B800F0AB
:10148000010002F0C3FA9DF83C1000287FF44CAC38
:101490002046164AFEF784FFFFF7BAB8A8460CE4C8
:1014A0004FF0000CFFF73CBA184602925FF04CFA7E
:1014B000029AA846831800E420460D4AFEF770FF02
:1014C000FFF7A6B8AC370020F4370020700C0610E8
:1014D000F0370020ABAAAAAA3EE4002090340020F6
:1014E000D80A0610180B0610AC0B06105C0B061081
:1014F000AC0C0610F0B583B0BDF820E0002870D128
:10150000002B6ED0012A6FD0032A68D1712940F0D8
:1015100092804E4A1278002A00F09580BEF13F0F6B
:101520005DD99C464A4CA6460CF1100CBEE80F0053
:101530004CF8043C474B10349E454CF8100C4CF8CA
:101540000C1C4CF8082CEED14FF00001424B1A78DD
:101550001970002A42D0414C414D2368019307F095
:101560009BFE019B4FF47A7203EB43031E0105EBD4
:10157000031700235FF0F4F91722731D0021A8510F
:101580003A71581928225FF08FF936493A795FF09D
:10159000DBF94FF0010C3448344B026802EB0C01CC
:1015A0000C2928BF0C21324A016082F800C0226851
:1015B0006244A3FB02C3DB0803EB4303A2EB8302F9
:1015C000226007F069FE00234FF47A725FF0C8F9D9
:1015D000284BFA3041F10001C3E90001402003B07B
:1015E000F0BD002003B0F0BD0129F8D1BEF13E0FDF
:1015F000F5D9214A02F130011468D2F804E0D2F89A
:1016000008C0D06810328A421C60C3F804E0C3F8F6
:1016100008C0D86003F11003EED150689168D2F889
:1016200000C05860C3F800C099609189927B3F2048
:1016300099819A73D3E772460846194600F074FB05
:1016400080B203B0F0BD1046C9E700BF3DE4002002
:10165000B0370020F037002045E40020AC370020F0
:10166000F4370020DC0C0610F0370020ABAAAAAA41
:1016700041E40020A03400207D3A002010B58CB059
:10168000BDF838E020B9022A9C4612D0032A01D0C6
:101690000CB010BD7029FBD143B3BEF1410F1FD078
:1016A000BEF1400F14D160460CB0BDE81040FEF70B
:1016B00067BF73466246684606F000F99DF8003041
:1016C000002BE5D02F210DF1010002F0E1FADFE758
:1016D00001210020074A0CB0BDE81040FEF760BEB3
:1016E0001B78702BF4D10CF1010CDCE70121024ACC
:1016F000F1E700BF080D0610F40C06102DE9804834
:10170000B9B00DF0DFFA00F007FE9A4805F06CFD65
:10171000994C2070FEF7B2FD2378002B00F0278152
:10172000964F974EDFF89882346807F0B5FD4FF476
:101730007A7200235FF014F9142204EB44042501AB
:101740006B1D08EB041448F80500227103EB080038
:10175000282200218B4D5FF0A7F8227939465FF0EF
:10176000F3F8296830684C1C0C2C28BF0C24864BDD
:1017700001302C60A3FB0043DB0803EB4303A0EB29
:1017800083032C22002123A833605FF08DF8802191
:101790000822FF237D4C7E48246822908DF88C100F
:1017A00004A822A928948DF88F208DF8B03006F077
:1017B000EFF8784E04AC3546E36820686168A268AB
:1017C00010340FC514AB9C4206F11006F3D101246E
:1017D000714BDFF8F0911C700DF096FA18B989F88A
:1017E000004001F09DFE4AF60123002015A9ADF846
:1017F00054300DF003F9DFF87CB1DFF8CCA1002103
:101800004FF0FF300CF090F999F800300BB10DF06B
:1018100071FA00F059FE02F01BFC22A802F0B4FBA2
:101820009DF88A4024B99DF88B400CB99DF88C40F6
:1018300007F032FD9DF888309BF81360032B99F870
:10184000005000F03881002E40F03A81002C00F06A
:10185000C0810023514A5FF083F8C30740F19A81A9
:10186000002D40F0318128460DF02EFA4C4B1B78AC
:10187000FF2B04D04B4A1278544044EC403022A84D
:1018800002F082FB07F008FDCDE900019DF88E1003
:10189000002940F09B80444F3B78002B40F09E8114
:1018A0003D4B1B787BBB414AD2E9003253EA020030
:1018B00040F076812C22002117A85EF0F5FF8023EE
:1018C0008DF85C30324B04A8169308238DF85F30F6
:1018D000FF238DF880302D4B16A91B682D4E1C93CD
:1018E00006F056F804AC3546E36820686168A268E3
:1018F00010340FC514AB9C4206F11006F3D14FF023
:101900000102254B1A709BF81030002B00F0C080AC
:10191000012B00F0E0800CF04FF8002840F0ED8043
:1019200007F0BAFC00234FF47A725FF019F8204BED
:101930001B7833B1DAE90023904271EB030380F0A6
:10194000CC811C4B1A78002A3FF459AF1A4AD2E9CD
:101950000042A0429141FFF452AF00221A700CF0F5
:1019600059F8322007F06CFB0CF05EF847E7134F94
:10197000D7E600BF343A00203FE400203C0D0610BB
:10198000AC370020F0370020ABAAAAAAC43A002046
:10199000018080807C3A002042E4002090D0030047
:1019A000B02C002043E4002040E4002098340020C4
:1019B0003EE4002041E40020A0340020240D061065
:1019C000F43700203CE4002090340020DFF8D88277
:1019D000329AD8F800309A4200F0A780DFF8CCE2C3
:1019E000A74F9EF800203B7816AC26AD02920393D9
:1019F0000FCD0FC40FCD0FC495E80F0084E80F0082
:101A0000029ADDF8B0C0002A40F015814FF00103C2
:101A10008EF800309B4B1A609B4B16A904A8CDF89A
:101A200070C0C3F800C005F0B3FF984E04AC354653
:101A3000E36820686168A26810340FC514AB9C424B
:101A400006F11006F3D10BF0BFFF914D04462B7841
:101A5000002B40F0FF804FF001038E4C2B7026AD21
:101A60000FCD0FC40FCD0FC495E80F0007C424F8A5
:101A7000023B1B0C23704FF00102874B3A701A7027
:101A8000329BC8F800309BF81030002B7FF440AF39
:101A9000824A4FF47A61D2E9003253EA020022D03E
:101AA0000098C31A019860EB02028B4272F10002A7
:101AB000FFF436AF17E0002E6CD02DB93446D2E6D5
:101AC000002D3FF4D0AE25460024214600200DF025
:101AD00003F92C46CAE6714A4FF4FA61D2E90032A2
:101AE00053EA0200DCD16C4B1B78002B3FF418AF9B
:101AF0000BF062FF00283FF413AF00200CF07EFDD6
:101B000000283FF40DAF3F2301210020644A0CF070
:101B100091FD00283FF404AF00235F4A13705F4B30
:101B2000009A1A60019A5A60FAE65B4B1B78002B08
:101B30007FF4E9AE594AD2E9003253EA02002FD1CC
:101B400016AC26AD0FCD0FC40FCD0FC495E80F0016
:101B5000DFF858C184E80F009CF80070002F71D0A6
:101B6000484B1B682C9A16A91344474A04A81C9397
:101B7000136005F00DFF454E04AC3546E368206860
:101B80006168A26810340FC514AB9C4206F11006C0
:101B9000F3D1B4E6002D40F09B8001252C4662E68F
:101BA0000098C41A019860EB0200B4F57A5F70F1F6
:101BB00000000AD29BF81010002900F08B80012948
:101BC0007FF4AEAE4FF4FA616AE700293FF472AEDB
:101BD000B6E7002D3FF447AE254676E72C2217A83E
:101BE0005EF062FE80238DF85C302E4B04A81693C5
:101BF00008238DF85F30FF238DF88030224B16A923
:101C00001B68224E1C9305F0C3FE04AC3546E36806
:101C100020686168A26810340FC514AB9C4206F1BD
:101C20001006F3D14FF001021B4B1A700023184A23
:101C30003B70137067E6039B002B39D0114B1B6878
:101C40009C44E9E64FF001030E4A8CF8003017601F
:101C50003B4687E70F4826A905F02CFF80B39BF889
:101C600018306BB3002C3FF4F6AE0BF0B5FE2B78BA
:101C7000002B3FF4F0AE00287FF4EDAEFBE600BF92
:101C800040E40020BC3A0020C43A00207C3A002006
:101C900044E40020B42C002042E4002098340020CA
:101CA0007D3A002001808080C03A002046E4002078
:101CB0000D4B1B68A3EB0C029C460C4B1A60ABE669
:101CC0002B78002B3FF4C7AE002C7FF4D4AEC2E6D5
:101CD0002C46FAE64FF47A61E2E60021044B08460E
:101CE000197007F017FC00BFC43A0020BC3A00206E
:101CF0003EE400200149024805F064BAE42C0020CB
:101D0000343A002040F6E64340F6F251012808BF7D
:101D10000B46014A13807047FA2C0020014B1870C3
:101D2000704700BF47E4002070B509288CB023D06D
:101D300020281AD005281BD12824C9B1944217D8CD
:101D400001900D460846224600215EF0ADFD019B44
:101D5000052B26D0092B11D02046354A354BC5F826
:101D60001720C5F81B300CB070BD3F240029E5D109
:101D7000002420460CB070BD1324DEE72E4B1B78E8
:101D8000002B37D12D4B1A784AB3062228462C490E
:101D90005EF08EFD6B7923F0030343F002036B7159
:101DA000E7E702A805F0D0FDAE4602AEB4460EF15C
:101DB000100EBCE80F004EF8043C0AAB9C4506F13F
:101DC00010064EF8100C4EF80C1C4EF8082CEDD1F5
:101DD000BCE80300CEF80000CEF80410C9E70BF011
:101DE00055FB0122154B1A70154B0A0A1860197120
:101DF0005A71CAE7002302A8CDE902330BF0A6F915
:101E00000298104BDDF80A1043404B409DF80C201F
:101E10009DF80E102B604A409DF80F309DF80D1074
:101E200082F04C024B4083F06B032A716B71B1E777
:101E300001004C4D0032004D47E4002048E40020F2
:101E4000C83A00204D697261054B064A1B78064866
:101E5000002B0CBF002303231288037442817047B8
:101E600047E40020FA2C0020E82C002008B90248A2
:101E700070470020704700BFF056061000487047BA
:101E8000C456061058B940F209434FF44171DFF8C7
:101E9000E8C03948ACF80230ACF80010704730B5F3
:101EA00002288BB025D003283ED004283AD8334BE3
:101EB00053F82040B4B320465DF0FCFF3F280346B2
:101EC00028BF3F23591C49001D46DFF8ACC041F430
:101ED000407148B16046621E931C1B1B12F801EF53
:101EE0009D4220F802EFF7D82348ACF800100BB061
:101EF00030BD40F6F253224A12889A4235D04FF450
:101F00004F714FF01D0E1F48DFF86CC00EF1FF3E01
:101F10006246431E864413F8010F9E4522F8020FC5
:101F2000F9D1E1E70020E2E7174B1B78002BF9D04D
:101F30002122002168465EF0B7FC212168460BF0A3
:101F40000DF968465DF0B6FFDFF82CC040B16B4676
:101F500062461C1813F8011BA34222F8021FF9D194
:101F6000411C490041F44071BEE740F246314FF058
:101F7000220E0648C8E700BF20370020B0560610E2
:101F8000FA2C0020780D061047E40020540D0610AE
:101F90002DE9F04FD44BADF69C0D1D68002D00F0DF
:101FA00098810026DFF850A34FF4F062002146A884
:101FB0005EF07AFC0AF1020B0DF58D790395CB4B9F
:101FC00040F2DF12A3FB0635731B05EB530540F20D
:101FD000FF132D0A05F10108984528BF9846C5EB67
:101FE00005143AF93800C5EB4414341B80FB040196
:101FF0003AF935C0C4F5EF7701370023C7FB0C0170
:102000005EF09EFC29F8020C3BF938003BF93530B4
:1020100080FB040140F2DF12C7FB030100235EF0E6
:102020008FFCB34B06F2FF169E4229F8040BC6D173
:10203000C824039D14AE0021224630465EF034FCD5
:1020400028464FF4F072334646A9009423F09EFDD3
:10205000A042054600F23D810021402204A85EF026
:1020600023FCA44BA4494FF0FF3E4FF0800A188890
:10207000DFF898C2DFF8988201F5805904AF039524
:102080007DE0002B03DA14EB080443F10003240D78
:1020900044EA0334802C4FEA235373F1000300DB3E
:1020A0007F24B1F90EB0B1F90620B1F916501BEB3F
:1020B00002033C704FEAE272B1F91E4042EBEB7250
:1020C000EB1842EBE572E31842EBE472B1F92640FB
:1020D000E51842EBE473B1F92E40621943EBE47367
:1020E000B1F93640A21843EBE473B1F93E40A218AF
:1020F00043EBE473B1F94640A21843EBE473B1F942
:102100004E40A21843EBE473B1F95640A21843EBDA
:10211000E473B1F95E40A21843EBE473B1F9664091
:10212000A21843EBE473B1F96E40A21843EBE473D9
:10213000B1F97640A21843EBE473B1F97E40A218DE
:1021400043EBE473A2FB004200FB0323A4457EEBB8
:1021500003026FDA002B03DA14EB080443F10003E7
:10216000240D44EA0334802C4FEA235373F1000317
:10217000A8BF7F24803189457C7060D00237B1F9D7
:102180000CB0B1F90420B1F91450B1F91C401BEBAB
:1021900002034FEAE27242EBEB72EB1842EBE5729C
:1021A000E31842EBE472B1F92440E31842EBE47225
:1021B000B1F92C40E31842EBE472B1F93440E31872
:1021C00042EBE472B1F93C40E31842EBE472B1F93E
:1021D0004440E31842EBE472B1F94C40E31842EB9F
:1021E000E472B1F95440E31842EBE472B1F95C4097
:1021F000E31842EBE472B1F96440E31842EBE47295
:10220000B1F96C40E31842EBE472B1F97440E318A1
:1022100042EBE472B1F97C40E31842EBE472A3FBB9
:10222000004300FB0233A4457EEB0302FFF629AF17
:10223000802436E78031494587F801A09ED12F4C94
:102240004FF4C77200212046039D5EF02DFB36231C
:1022500023703F239022237344F292032848294994
:10226000E2720278A4F84C300B78A272013202704C
:102270005A1C1B0104AF0A70637004F14E0EBC4679
:102280000EF1100EBCE80F00B44507F110074EF830
:10229000100C4EF80C1C4EF8082C4EF8043CEED1F5
:1022A0001323012D84F88F5084F88E3016DD2A46D2
:1022B000314615485EF048FB4FF4C7710F4805F0F2
:1022C000CBFEC0B2B0FA80F040090DF69C0DBDE81F
:1022D000F08F00200DF69C0DBDE8F08F04BF337821
:1022E00084F89030E8E700BFD88A00209B01A31152
:1022F00020BE0300002D0020DC8A0020DC9A002094
:102300004EE400204BE400206C9B00200000F0F71E
:10231000FFFF0F000000000030B5002483B04FF431
:102320008042002146485EF0BFFA4649464B474D81
:102330000C604FF48052214645482C601C605EF0D2
:10234000B3FA9FED3D7B434947F6FF730C6042496A
:102350004FF480720C6041494FF400700C604049AA
:10236000404D0C6040490C6040490C6040490C6095
:1023700040490C60404981ED007B40490C70404968
:102380000C7040490C7040490C7040490C70404939
:102390000C7040490C7040490B8040490B8040490B
:1023A0000B804049404B0A801A804049404A414BCB
:1023B0000860147021464FF480523F481C705EF054
:1023C00073FA21464FF4C7723C485EF06DFA40F64E
:1023D000010202214BF6803001AB2C70019421F0F8
:1023E0005DFB374C206008B1019D1DB100232360C7
:1023F00003B030BD40F6A271324A23F091FC2A4668
:1024000040F6A671206823F08BFC052240F6AA71E5
:10241000206823F085FC40F6BA3240F6B871206897
:1024200023F07EFC102240F6C471206823F078FC73
:1024300003B030BDAFF300800000000000000000DA
:10244000D03A0020D47A00206C9C0020D07A002062
:10245000D87A0020789C00207C9C0020849C00205E
:10246000709C00204DE40020809C0020749C002083
:10247000889C00208C9C0020A834002049E4002087
:1024800052E4002051E400204CE400204FE40020FE
:1024900050E400204AE40020082D0020062D0020F2
:1024A000042D0020022D0020002D0020FC2C0020F7
:1024B0004BE400204EE40020DC8A0020DC9A00205F
:1024C000D88A002000710200F0B5444C97B0237800
:1024D0000BB917B0F0BD06F0DFFE414AD2E9003576
:1024E000C01A4FF000033F4A61EB0501824273EBD3
:1024F000010169D32378002BEBD03B4B1B68002BE9
:10250000E7D0684601F040FD38490B78002B50D1E8
:10251000374E3849326809688A42DAD39DF8081084
:102520000029D6D0DFF8D8C09E46334C334F0CF686
:10253000F875A2B12368013A591CC1F30A0107EBEF
:10254000C303AC452160326093E803008CE80300CC
:102550001AD00EF1010E0CF1080C002AEAD1AC459C
:10256000CCE9002210D0264B0EF1010E03EBCE0376
:10257000CEF5007E03EBCE0E0EF1080E083343E9D4
:10258000022208339E45FAD1FFF702FDF8B101237C
:10259000164A13704FF4C7711A4801F0DDFB00288A
:1025A00097D00021184A1368013313600F4B19703C
:1025B0008FE79DF80830002BECD1144A0B7013689C
:1025C00003F50073136084E7237017B0F0BD0F4A62
:1025D000136803F5007313607BE700BF49E4002034
:1025E000A8340020F0490200D88A00204DE40020E1
:1025F0006C9C0020FC2C0020D07A0020D03A0020D7
:10260000DC8A0020DC9A0020749C0020809C002042
:10261000D0ED017AB0EE677ABEEECC7A2DE9F041CA
:10262000C27C284BDFF8BCC01A70027A90F809E02F
:10263000C2EBC232ACFB0215CEEBCE3EACFB0E1CA5
:10264000521B437B05EB52021F4D9209AEEB0C0E61
:10265000102B2A800CEB5E0C1C4A38BF10234FEA6B
:102660009C1CA2F800C017EE102A7F2B28BF7F23E6
:10267000B2F5807FB8BF4FF48072B2F5007FA8BF7B
:102680004FF40072857A124908356D01103B0D80B8
:10269000104E857CDFF85080807D03EB43035B02A6
:1026A0003070A8FB03015B1A01EB53010A4F0B4C7E
:1026B0000B4B890901F500713D7021601A80BDE85E
:1026C000F08100BF4FE40020062D0020042D0020E3
:1026D000022D00204AE4002050E40020FC2C0020C1
:1026E000002D002011080402890B3527DFF880C077
:1026F0001649174B174A9CF800C009781B781278C6
:1027000080F800C0417083700AB9134B1A78134BDC
:10271000C2701B68DFF85CC0003B18BF0123104982
:10272000104ADCF800C009681268C0F808C0C0E9A7
:102730000312DFF844C00C490C4ADCF800C00968F9
:102740001268C0E905C1C2610371704752E40020FC
:1027500051E400204CE400204FE40020D88A0020FF
:10276000809C00206C9C0020889C00208C9C002079
:1027700049E40020709C0020749C002000000000B0
:1027800008B54FF4CC62002123485EF08DF84FF07D
:10279000FF3300219FED1E7B204A2148C2E9003310
:1027A000C2E9023303601F4B1F4A19601F4B1160BF
:1027B0001F4A83ED007B1F4B11601F4A83ED007B96
:1027C0001E4B11701E483F2283ED007B5EF06CF8BB
:1027D0001C4B1868EFF3108272B6D0E8CFEF5FF0B1
:1027E000010CBEF1000FF8D1C0E84ECFBEF1000FD2
:1027F000F3D1BFF35F8F002113485A6001811B683A
:10280000C160C3E88F1F82F3108808BDAFF300805A
:102810000000000000000000BC9C0020AC9C0020D8
:102820000C2D002084A3002080A30020E034002091
:1028300088A30020C83400205DE40020B8340020C4
:102840001CA300209C9C0020142D002010B5214CBE
:102850002368EFF3108272B6D3E8CF0F012100286E
:10286000FAD1C3E8401F0028F6D1BFF35F8F1A4B9F
:102870006260188830B1194B587918B11B78032B56
:1028800007D0002000232168C1E88F3F82F3108821
:1028900010BD134B1B78002BF3D112490978062980
:1028A00001D01846EEE71049D1E900310B43E9D0D9
:1028B00006F0F2FC4FF47A7200235EF051F80A4AF7
:1028C000136898425368626899412CBF0120002028
:1028D000D8E700BF9C9C00201AE40020142D0020A3
:1028E00061E4002074A30020103500201A4A136808
:1028F000032B24D90268194BC3F812208288DA828C
:10290000174B1968EFF3108272B6D1E8CFCF0120D0
:10291000BCF1000FF9D1C1E84C0FBCF1000FF4D1AC
:10292000BFF35F8F4FF0010C0E485A6000211B6807
:1029300080F807C0C3E88F1F82F31088704703EB4D
:10294000430C013305491360036841F81C30838848
:1029500001EB4C018B80D3E78CA300205CA300200B
:102960009C9C0020142D0020F0B5454D85B0AA791F
:1029700012B1EA79002A55D0002600270024414BE5
:10298000414AC3E90067414B54601460C2F80740F4
:102990003F4A1C703F4BC2E900673F493F4A1C70E9
:1029A0003F4BC2E900670C704E2221463D48C3E907
:1029B0000067C5E900442C725DF076FF3A4A3B4B54
:1029C000C2E900673A4E1C70FFF7DAFE3368EFF396
:1029D000108272B6D3E8CF0F01210028FAD1C3E8E4
:1029E000401F0028F6D1BFF35F8F324B324D334F7B
:1029F0001C807260D5E900321343BC80BC711DD1CC
:102A0000BC7004233B7032680023C2E88F3F7268B9
:102A100082F310882A4A2B49C2E9003393600B7075
:102A200005B0F0BD2A7A002AA6D195E803000290ED
:102A300002A8ADF80C1012F0F1FF9DE706F02CFC97
:102A40002C6800234FF47A7201945DF089FF019A9B
:102A50006C689042A14134BF012300231443BB7032
:102A6000CFD006F019FC4FF47A7200235DF078FFA6
:102A7000D5E9002390429941C3D20223C2E700BFA7
:102A8000E8AB0020F034002074A300205FE40020B5
:102A9000D03400205EE400205CE40020F834002004
:102AA000C034002098AB00201035002061E40020E5
:102AB0009C9C00201AE40020E8340020142D002003
:102AC000909C002062E400202DE9F041864B94B0F8
:102AD0001B78FBB1854D2B68EFF3108272B6D3E8FB
:102AE000CF4F0121002CFAD1C3E8441F002CF6D1AE
:102AF000BFF35F8F7E4B6A601B8883B17D4B5C792F
:102B00009CB11B78032B16D000232968C1E88F3FA6
:102B100082F310880024204614B0BDE8F0812968B3
:102B2000C1E88F3F82F31088F4E72B68C3E88F4F2A
:102B300082F31088EEE7704B1B789846002BE3D1A8
:102B40006E4B1B78062B05D02B68C3E88F8F82F362
:102B50001088DFE76A490746D1E900310B4340F0AE
:102B6000A9802B68C3E88F8F82F31088654B684675
:102B70001A78511C197002F00F02394605F0D8F886
:102B8000614B1D68032DC5D8604B614A196892F8E6
:102B90009431002B68D100296FD192F82C33002B8F
:102BA00067D101231E464FF4CC7101FB03204FF483
:102BB000C77200215DF078FE4E2269465DF0C4FECA
:102BC0004E22C0F89021504A013515603122012172
:102BD00080F88E214F4A80F8941113684E494F4D6A
:102BE00041F82360013303F00303136006F054FB44
:102BF0004FF47A7200235DF0B3FE0022484BC5E922
:102C000000011A70FB7A3BB12F22012A07F10C0157
:102C10004BDD44485DF04CFE3B783BB9FB782BB96B
:102C2000FB791BB97B7A002B3FF475AFDFF8F4C05A
:102C30000DF10305E646EB6828686968AA68103557
:102C4000AEE80F000DF133039D420CF1100CF1D1F1
:102C5000AA6828686968ACE80700AA89AB7BACF869
:102C600000208CF8023056E792F82C333BB901294A
:102C700097D192F8C4343BB902231E4693E792F8E9
:102C8000C4344BB90229F7D192F85C36002B7FF49B
:102C900041AF03231E4686E792F85C36002B7FF493
:102CA00039AF03293FF436AFF3E7B5D11D4B3A7B7B
:102CB0001A70B1E706F0F0FAD5E900654FF47A72C0
:102CC00000235DF04DFE0E4BD3E900239042994165
:102CD00004D2C6E88F8F85F310881BE7C6E88F8F74
:102CE00085F3108842E700BF54E400209C9C00203C
:102CF0001AE40020142D002061E4002074A30020B9
:102D00001035002058E4002088A300200C2D00205E
:102D1000BC9C002084A30020AC9C0020B034002088
:102D200055E400201CA30020254A70B51378FBB1A0
:102D3000002100240025234B234AC3E90011C3F8D6
:102D40000710224B1688C3E90045214B214AC3E9ED
:102D50000045214BC2E900451970204B4E22204806
:102D600019705DF0A1FD1F4BC3E900451EBB70BD8E
:102D700001251D4C15702668EFF3108572B6D6E854
:102D8000CFCF0122BCF1000FF9D1C6E84C2FBCF126
:102D9000000FF4D1BFF35F8F144A656082F84910C9
:102DA000116D2468013182F848001165C4E88F3F35
:102DB00085F31088BCE73046BDE870401DF0CABFFF
:102DC00062E4002074A300201AE40020F034002004
:102DD000F8340020D03400205FE400205EE40020BE
:102DE00098AB0020103500209C9C0020142D002062
:102DF00038B5494CD4E90032134300D138BD474BB4
:102E00001D7806F049FA4FF47A7200235DF0A8FDB0
:102E1000D4E9002390429941F0D2002DEED0404CED
:102E20002378002BEAD13F4B1B78002BE6D13E4B99
:102E30001B88002BE2D13D4AD2E9003213430CD06B
:102E400006F02AFA4FF47A7200235DF089FD374BC1
:102E5000D3E9002390429941D0D3082017F07EFD9A
:102E6000334B1A6800BB9FED2A7B304981ED007B14
:102E7000EFF3108172B6D2E8CFEF5FF0010CBEF134
:102E8000000FF8D1C2E84ECFBEF1000FF3D1BFF36F
:102E90005F8F0122274D5960EA701B682270C3E8DA
:102EA0008F0F81F3108838BD012423490C70EFF394
:102EB000108172B6D2E8CFEF5FF0010CBEF1000FC7
:102EC000F8D1C2E84ECFBEF1000FF3D1BFF35F8F50
:102ED000D3F800C05960174B1A6D83F8484022445C
:102EE00083F849001A650023CCE88F3F81F31088EE
:102EF00006F0D2F900234FF47A725DF031FD0B4BEE
:102F000010F57A7041F10001C3E9000138BD00BF3E
:102F10000000000000000000E834002053E400201E
:102F200056E400205CE400201AE40020D83400209D
:102F30009C9C0020142D002062E400200000000072
:102F40002DE9F043AFB006F0A7F94FF47A720023F1
:102F50005DF006FD0025984B984C1D70C4E90001FA
:102F600006F09AF94FF47A7200235DF0F9FC0346FB
:102F700001249348934E1B18934F41F10001716057
:102F800033603C7000260027904A914B2046C3E9ED
:102F90000067C2E90055956017F0CCFA204617F09B
:102FA0008FFA8C4B1978002938D1582202A85DF08D
:102FB0007BFC894C894E8A4F388838B19DF808309F
:102FC000032B03D09DF80E50002D5FD02268EFF345
:102FD000108372B6D2E8CF0F01210028FAD1C2E8DF
:102FE000401F0028F6D1BFF35F8F32780121032AFA
:102FF00018BF0222B17018BF3270216800226360CE
:10300000C1E88F2F83F310883B881BB9754B1B7861
:10301000002B35D001202FB0BDE8F0836E4C226824
:10302000EFF3108372B6D2E8CF0F01210028FAD156
:10303000C2E8401F0028F6D1BFF35F8F674E5822C9
:10304000314618A8636001935DF07EFC664A777A8A
:1030500011685068884681462268C2E88F5F019BEC
:1030600083F3108827B151EA000340F089800027DC
:10307000582218A902A88DF869705DF065FC9AE7DE
:10308000FFF7B6FE01202FB0BDE8F083574B188044
:103090001DF060FE554B1B88002B00F0828006F06F
:1030A000FBF84FF47A7200235DF05AFC42F2107282
:1030B0000125821841F100084FF0000EDFF868C1C9
:1030C0004B4BCCE900014B49C1E900284A4A157035
:1030D0004A4A82F800E09A7962B1DA7952B91A7AEA
:1030E00042B993E80300189018A8ADF8641012F0E4
:1030F00095FC3F4B00259FED2E7BC3E900551D72CB
:103100003F4B404A83ED007B3F4B15605560C2F852
:1031100007503E4A83ED007B3D4B157031483D4AD8
:1031200083ED007B3C4B2946057015703B484E22D1
:1031300083ED007B3D805DF0B7FB9FED1D7B384B41
:1031400083ED007B374B1D70FFF71AFB2268EFF30E
:10315000108372B6D2E8CF1F01200029FAD1C2E84D
:10316000410F0029F6D1BFF35F8F022263603270F6
:10317000B5802268B571C2E88F5F83F3108825E7B8
:1031800006F08AF84FF47A7200235DF0E9FBB0EBA9
:10319000080061EB0901FB2871F10001BFF467AF82
:1031A00066E7284629462A46A84685E7AFF3008009
:1031B000000000000000000055E40020B0340020B2
:1031C000E0930400E83400205BE40020909C0020A1
:1031D000D834002054E400209C9C0020142D0020B2
:1031E0001AE400205CE40020B834002018E4002039
:1031F000E8AB00200835002063E4002064E40020F0
:10320000C034002074A30020D03400205FE40020EC
:10321000F03400205EE40020F834002098AB002059
:103220001035002061E4002000350020000000007F
:10323000794B1B7803B17047F0B5784C87B0D4E96F
:103240000032134301D107B0F0BD754B06461D781F
:1032500006F022F84FF47A7200235DF081FBD4E986
:103260000023904299412F46EDD2002DEBD06D4BBB
:103270001B78002BE7D16C4B1B88002BE3D16B4BE9
:103280009B79002B40F0368100234FF0010C674DF5
:10329000674CC5E900332B72306822682860B1881A
:1032A00085F806C0A980002A00F0AD80614903E0DE
:1032B0002268934280F0A7803046CDE9001310F0D9
:1032C00093FF019B0099013306310028F0D1574B41
:1032D000DF7159490B78002B40F01481574C23685B
:1032E000EFF3108272B6D3E8CF0F5FF0010C002825
:1032F000F9D1C3E840CF0028F5D1BFF35F8F002399
:103300004F4D0B7062602168EB70C1E88F3F82F314
:1033100010889FED3F7BB2883068ADF80C20494A99
:103320001946C2E90033C2F80730474A02901370C9
:10333000464A47481370474B4E2283ED007B464B6D
:1033400083ED007B454B83ED007B5DF0ADFA002300
:103350009FED2F7B344A1380414A82ED007B414A26
:103360001370414A13702268EFF3108172B6D2E8ED
:10337000CFCF0120BCF1000FF9D1C2E84C0FBCF156
:10338000000FF4D1BFF35F8FEA6C61600132EA6431
:103390002268C2E88F3F81F310880121224A02A8E7
:1033A0001DF056FC00230646002861D105F074FF8D
:1033B0004FF47A7200235DF0D3FA42F21073C01812
:1033C0002A4B41F10001596018600123154A216818
:1033D0001370EFF3108272B6D1E8CFCF0120BCF1A9
:1033E000000FF9D1C1E84C0FBCF1000FF4D1BFF3CD
:1033F0005F8F134962600B710B702368C3E88F6F96
:1034000082F310881FE7002761E700BFAFF3008059
:10341000000000000000000055E40020E834002017
:1034200053E400205CE400201AE40020E8AB002014
:103430008CA300205CA3002056E400209C9C00206C
:10344000142D002074A300205FE400205EE400201F
:1034500098AB0020D0340020F0340020F834002055
:103460001035002061E4002062E40020C034002018
:10347000012226490A702268EFF3108172B6D2E861
:10348000CFCF0120BCF1000FF9D1C2E84C0FBCF145
:10349000000FF4D1BFF35F8F022285F848202A6D18
:1034A0002068013285F8496061602A65C0E88F3F75
:1034B00081F31088164A93795BB1D3794BB9137AAB
:1034C0003BB992E80300049004A8ADF8141012F080
:1034D000A5FA00230F49104A0D480978C0E90033C6
:1034E000C2E900330372936000293FF4ACAEFFF7EA
:1034F0007FFCA8E63046064910F076FE00287FF4EF
:10350000C3AEE6E617F048FA0449E7E662E40020B5
:10351000E8AB00205BE40020909C002056E40020F3
:1035200008B5104B1A7802B108BD0F4805F048FAEB
:1035300001220C4B0D491A700A8018F0D9FB4FF488
:1035400000610B481DF0FEFA0A481DF01BFB0A48FB
:10355000084B436012F090FDBDE80840012016F0D2
:10356000A1BE00BF54E400209C9C0020142D00202C
:1035700098A30020294B001090A30020D0ED017AE1
:10358000B0EE677ABEEECC7A38B52F4BC27A197896
:1035900017EE103AB3F5807FB8BF4FF48073B3F5E0
:1035A000007FA8BF4FF40073002943D0002A29D020
:1035B0004FF0000E254AD2F800C0EFF3108172B62A
:1035C000DCE8CF5F0124002DFAD1CCE8454F002D77
:1035D000F6D1BFF35F8FDFF890C05160ACF80030D8
:1035E00090F815C01A4BC07A83F800C0194B1268C6
:1035F00018700023C2E88F3F81F31088BEF1000FDE
:1036000004D138BD144A92F800E0D3E74FF000052A
:10361000114C257005F040FE4FF47A7200235DF0E6
:103620009FF90E4B25701A780D4B1A700D4BC3E99C
:10363000000138BDDFF830C00549407DACF80030EE
:10364000044B08701A7038BD54E400209C9C002084
:1036500057E4002059E4002055E4002053E4002002
:1036600060E40020B03400200A2D0020044B1B78B9
:1036700013B1044B1B780BB918467047FFF760BCB9
:1036800054E4002053E4002070B540F6B734531ED4
:103690009BB2A34292B003D90024204612B070BD61
:1036A0002D4B1B78002B54D02C4B1C68EFF3108C47
:1036B00072B6D4E8CF5F5FF0010E002DF9D1C4E8F7
:1036C00045EF002DF5D1BFF35F8FD3F800E0C3F8CD
:1036D00004C0234B1C880023CEE88F3F8CF3108856
:1036E000054601911646002138220DF10F005DF0CC
:1036F000DBF8019B04FB05F204FB03F102F18003FC
:103700001B0A8031090AFF2B28BFFF23FF2928BF8E
:10371000FF214FF0010503A88DF80C508DF80D30F6
:103720008DF80E10FFF7D0F904460028B4D00D4BE9
:103730001D7005F0B1FD4FF47A7200235DF010F9B1
:10374000094B801941F10001C3E90001204612B084
:1037500070BD034B1C88C3E754E400209C9C0020F0
:103760000A2D00205DE40020C8340020F0B5A7B089
:1037700006460D46144600213B2203A801935DF046
:1037800093F8019B914A03F01F038DF81430012335
:1037900012788DF810608DF811508DF812408DF868
:1037A0000F308DF81330FAB1894D2B68EFF310828A
:1037B00072B6D3E8CF0F01210028FAD1C3E8401F29
:1037C0000028F6D1BFF35F8F824B6A601B887BB104
:1037D000814B5C7994B11B78032B15D000232968A9
:1037E000C1E88F3F82F310880024204627B0F0BD47
:1037F0002968C1E88F3F82F31088F5E72B68C3E89A
:103800008F4F82F31088EFE7744B1B781F46002B15
:10381000E4D1734B1B78062B05D02B68C3E88F7F50
:1038200082F31088E0E76F49D1E900310B4340F0A3
:10383000B3802B68C3E88F7F82F310886A4B03A99B
:103840001A78501C187002F00F0212A804F070FAD7
:10385000664B1D68032DC7D8654B664A196892F8F8
:103860009431002B77D100297ED192F82C33002B94
:1038700076D101231E464FF4CC7101FB03204FF497
:10388000C77200215DF010F84E2212A95DF05CF8BD
:103890004E220346C0F890210120544A013515609C
:1038A00031255549DFF860C10A6883F88E514CF81C
:1038B0002260024402F003020A6083F8940105F0DA
:1038C000EBFC4FF47A7200235DF04AF800224B4B78
:1038D0004B4D1A709DF81730C5E900017BB1494D79
:1038E0000DF1180CBCE80F000FC5BCE80F000FC5A8
:1038F0009CE80F0007C51A0C25F8023B2A709DF8BA
:103900000C3053B99DF80F303BB99DF8133023B9F3
:103910009DF81530002B3FF468AFDFF8E8C00DF1DB
:103920004B05E646EB6828686968AA681035AEE87A
:103930000F000DF17B039D420CF1100CF1D1AA6830
:1039400028686968ACE80700AA89AB7BACF800205E
:103950008CF8023049E792F82C333BB9012988D121
:1039600092F8C4343BB902231E4684E792F8C4346B
:103970004BB90229F7D192F85C36002B7FF434AFB3
:1039800003231E4677E792F85C36002B7FF42CAFBA
:1039900003293FF429AFF3E705F07EFCD5E9005693
:1039A0004FF47A7200235CF0DBFF0E4BD3E9002367
:1039B0009042994104D2C5E88F7F86F3108813E7BF
:1039C000C5E88F7F86F3108838E700BF54E40020F5
:1039D0009C9C00201AE40020142D002061E40020AB
:1039E00074A300201035002058E4002088A3002094
:1039F0000C2D0020BC9C002084A3002055E4002056
:103A0000B03400201CA30020AC9C0020F0B5A5B071
:103A100004463B22002101A85CF046FF01228C4BAA
:103A20008DF80E401B788DF80D20FBB1894D2B6869
:103A3000EFF3108272B6D3E8CF0F01210028FAD13C
:103A4000C3E8401F0028F6D1BFF35F8F824B6A6046
:103A50001B887BB1814B5C7994B11B78032B15D00B
:103A600000232968C1E88F3F82F310880024204694
:103A700025B0F0BD2968C1E88F3F82F31088F5E7D3
:103A80002B68C3E88F4F82F31088EFE7744B1B78E5
:103A90001F46002BE4D1734B1B78062B05D02B68F7
:103AA000C3E88F7F82F31088E0E76F49D1E90031E6
:103AB0000B4340F0B3802B68C3E88F7F82F31088FC
:103AC0006A4B01A91A78501C187002F00F0210A856
:103AD00004F02EF9664B1D68032DC7D8654B664A66
:103AE000196892F89431002B77D100297ED192F891
:103AF0002C33002B76D101231E464FF4CC7101FBF1
:103B000003204FF4C77200215CF0CEFE4E2210A9B4
:103B10005CF01AFF4E220346C0F890210120544A5F
:103B20000135156031255549DFF860C10A6883F811
:103B30008E514CF82260024402F003020A6083F8BE
:103B4000940105F0A9FB4FF47A7200235CF008FFA2
:103B500000224B4B4B4D1A709DF80F30C5E9000108
:103B60007BB1494D0DF1100CBCE80F000FC5BCE84E
:103B70000F000FC59CE80F0007C51A0C25F8023B83
:103B80002A709DF8043053B99DF807303BB99DF871
:103B90000B3023B99DF80D30002B3FF468AFDFF8F0
:103BA000E8C00DF14305E646EB6828686968AA6835
:103BB0001035AEE80F000DF173039D420CF1100CAF
:103BC000F1D1AA6828686968ACE80700AA89AB7BCC
:103BD000ACF800208CF8023049E792F82C333BB95E
:103BE000012988D192F8C4343BB902231E4684E7E8
:103BF00092F8C4344BB90229F7D192F85C36002B05
:103C00007FF434AF03231E4677E792F85C36002B2F
:103C10007FF42CAF03293FF429AFF3E705F03CFB19
:103C2000D5E900564FF47A7200235CF099FE0E4BF2
:103C3000D3E900239042994104D2C5E88F7F86F3EF
:103C4000108813E7C5E88F7F86F3108838E700BF38
:103C500054E400209C9C00201AE40020142D002035
:103C600061E4002074A300201035002058E40020F7
:103C700088A300200C2D0020BC9C002084A30020E1
:103C800055E40020B03400201CA30020AC9C002090
:103C900018B12F2902D0002070477047002301225D
:103CA000844630B591B0CDE90133039304AC8DF86F
:103CB0000F2000F12005A646DCF80000DCF8041017
:103CC000DCF80820DCF80C300CF1100CAC45AEE848
:103CD0000F0004F11004EED1DCF80820DCF800003D
:103CE000DCF80410AEE80700BCF80C30AEF8003089
:103CF000164B9CF80E201B788EF8022013B3144B41
:103D00001968EFF3108272B6D1E8CFCF0120BCF171
:103D1000000FF9D1C1E84C0FBCF1000FF4D1BFF393
:103D20005F8F0C4918685A6009780023C0E88F3FFC
:103D300082F3108804A804F08DF801A8FEF7C4FEF1
:103D400011B030BD034B1978F4E700BF54E40020F4
:103D50009C9C002057E400202DE9F047E6B00C467B
:103D60000E46054604F078F9C1B231B97E4B1B7896
:103D70001BB10191FEF76AFD20B90023184666B019
:103D8000BDE8F0874FF4C7720199019002A85CF07A
:103D90008BFD012C2246019B40F38C80294602A812
:103DA0005CF0D2FD714C9DF80870019D0DF1150C71
:103DB000A6460CF1100CBEE80F004CF8043C6C4B0E
:103DC00010349E454CF8100C4CF80C1C4CF8082C88
:103DD000EED1BEE80700CCF80000CCF80410CCF817
:103DE0000820BEF80020B6F5C77FACF80C209EF87E
:103DF00002202B468CF80E20BFD85E4A1268032A98
:103E00001546BAD85C485D4A90F8941112680029AA
:103E100045D0594890F82C13002976D1012A44D175
:103E200090F8C424002A76D14FF002084FF002091E
:103E30004FF4CC70019300FB08F34F484FF4C77266
:103E4000C418002120469A465CF02EFD012E324611
:103E5000019B00F08480204602A98DF808705CF078
:103E600073FD019B43496A1C0A604FF4CC714FF00B
:103E7000010C4FF0360E404A414801FB082104680E
:103E8000404AC1F8906142F8249004EB0C0202F021
:103E90000302026081F88EE181F894C16EE7002A86
:103EA0005AD190F82C23002A3FD14FF001084FF04F
:103EB0000109BDE77FF461AF29781D460F462B4C01
:103EC0000DF1150CA6460CF1100CBEE80F004CF8D5
:103ED000043C274B10349E454CF8100C4CF80C1C3D
:103EE0004CF8082CEED1BEE80700CCF80000CCF866
:103EF0000410CCF80820BEF800202B46ACF80C20AB
:103F00009EF802208CF80E2077E71B4890F8C41426
:103F1000C1B9022A88D190F85C26002A7FF42DAF1F
:103F20004FF003084FF0030982E7134A92F8C424C4
:103F3000002A3FF479AF104A92F85C26002A7FF4F9
:103F40001CAFEDE70C4991F85C1600297FF415AF22
:103F5000032A3FF412AFE3E78846894668E7064A3A
:103F600002F80A707EE700BF54E400201CA3002082
:103F70004CA3002088A30020BC9C00200C2D002016
:103F800084A30020AC9C00202DE9F0412A4B04467C
:103F9000197896B069B958225CF086FCFF23204658
:103FA0002649274A84F83830C4E9041216B0BDE81F
:103FB000F081244B1A68EFF3108572B6D2E8CF0F68
:103FC00001210028FAD1C2E8401F0028F6D1BFF332
:103FD0005F8F582268461C495D605CF0B5FC1B4A47
:103FE0001949D2E90067174B4A7A002090461B68AE
:103FF000C3E88F0F85F3108822B156EA07030CD16E
:104000004FF000085822694620468DF809805CF080
:104010009BFC204616B0BDE8F08105F03DF94FF459
:104020007A7200235CF09CFC801B61EB0701FB288B
:1040300071F10001E4D2E5E754E4002001808080C2
:10404000800000089C9C0020142D0020B834002023
:104050002DE9F04F444CADB0237813B92DB0BDE835
:10406000F08F424D2B781BB1414B1B88002B46D162
:10407000404D414A2B781088002B00F001823F4BC5
:104080001A7842BB3E4EDFF804813B4B98F8001093
:104090001A883378002A00F01382002B00F069821E
:1040A000002940F06582374B1B78002B7CD105F04E
:1040B000F3F800234FF47A725CF052FC324D0F4655
:1040C0002B788146013B032B6ED8DFE813F0F90211
:1040D0002F03A80256022A4A16461278002A5DD0FB
:1040E0002A4A90461278002A40F03F82002840F089
:1040F000C683FEF739FC0022204B1A70C5E705F095
:10410000CBF8234B1B78272B1F4629D84FF47A7204
:1041100000235CF025FC1F4BD3E90023904271EB98
:1041200003031DD21C4AD2E90063B04271EB0303C2
:104130009ED310F1FA030E4E1548136007F10103E8
:104140000370308841F10001019051601CF002FEC3
:104150003388019883428BD10D4B1B78272B87D94D
:1041600000232B7084E700BF54E4002063E40020A8
:1041700018E4002060E400201AE4002066E4002037
:1041800053E4002061E4002074A3002055E40020E3
:1041900064E400200835002000350020DFF8348278
:1041A000002840F0E88128702378002B00F065811A
:1041B000784B1968EFF3108272B6D1E8CF5F012017
:1041C000002DFAD1C1E8450F002DF6D1BFF35F8F66
:1041D00019685A60704B1E780023C1E88F3F82F344
:1041E000108898F80050002D7FF438AF26B16B4B43
:1041F0001B88002B40F0D482694DD5E9003213436F
:1042000019D005F049F84FF47A7200235CF0A8FB4E
:10421000D5E900239042994180F0DE8005F03CF81A
:104220004FF47A7200235CF09BFBD5E900239042A7
:104230009941C0F0A7805B4DD5E90032134340F0AF
:104240002581594B1B782BB1584DD5E900321343CA
:1042500040F06781564D2B68002B3FF4FFAE23786A
:10426000002B3FF4FBAEFEF7F1FA00283FF4F6AE68
:10427000504C2368002B0DDB05F00EF84FF47A72DA
:1042800000235CF06DFB4C4BD3E900239042994135
:10429000FFF4E4AE414B494A1888494B1B6852F879
:1042A00023304FF4CC7202FB03F21E46454B9918A3
:1042B00001321A44D1F8903191F88E11013B9BB232
:1042C0001DF082FB022800F0138300287FF4C6AEA5
:1042D0002368834206DB4FF4CC713A4A01FB032387
:1042E00083F894014FF0FF32354934480B6826605B
:1042F00040F82320013303F003030B602B681344C1
:104300002B6004F0C9FF4FF47A7200235CF028FBA5
:104310004FF4CC732B4A043003FB062494F88E31FF
:10432000254D41F10001362B286069607FF496AE7F
:10433000184C2368EFF3108272B6D3E8CF0F012137
:104340000028FAD1C3E8401F0028F6D1BFF35F8FE1
:1043500040F201111C4B6260DA6819810132DA60A7
:1043600004F09AFF4FF47A7200235CF0F9FA174DCB
:104370000023C5E900012268C2E88F3F636883F328
:1043800010886BE6124B1B78002B7FF454AFFEF7BE
:104390002FFD50E79C9C002059E400201AE40020E7
:1043A000E8340020C03400205DE40020C834002040
:1043B00088A300200C2D0020E0340020AC9C0020BD
:1043C00080A30020BC9C0020142D0020B8340020C5
:1043D0005CE4002055E4002000239FEDA37BA44A69
:1043E000A449A548C2E90033037093600B7885EDBA
:1043F000007B002B40F0D081A04D2B68EFF31082A2
:1044000072B6D3E8CFCF0120BCF1000FF9D1C3E8D9
:104410004C0FBCF1000FF4D1BFF35F8F0020984B1D
:1044200008706A602968D870C1E88F0F82F310881D
:1044300016F046F82968EFF3108272B6D1E8CFEF94
:104440005FF0010CBEF1000FF8D1C1E84ECFBEF114
:10445000000FF3D1BFF35F8F894B0020197898705C
:10446000022908BF04216A6008BF19700023296867
:10447000C1E88F3F82F31088DDE6824B1E78B0E6FC
:10448000DFF8388200287FF40EAE8DE604F004FFDA
:104490004FF47A7200235CF063FAD5E9002390426E
:1044A0009941FFF4CEAE16A8FFF76EFD9DF85E3081
:1044B000002B00F0848100220023C5E90023C0E620
:1044C000002B00F07A81002940F064816E4B1B784C
:1044D000002B7FF469AE122108462B70019316F071
:1044E00087FB012016F094FB019816F023F8674D26
:1044F000012016F01FF8D5E90032317813430F463A
:1045000040F0C081002900F08E8198F8000080F012
:10451000010015F0D5FF5E4B188800287FF4C3AD6D
:1045200042E604F0B9FE4FF47A7200235CF018FA08
:10453000D5E9002390429941FFF48CAE3A22002144
:104540000DF159005CF0B0F9012316A88DF8583030
:10455000FEF7BAFA00283FF47DAE00234D4A1370EF
:1045600000220023C5E9002374E600283FF41BAEB7
:1045700000232B7097E52A7095E5474B9B46D3E9BE
:104580000023904271EB0303FFF40EAE434B197806
:104590009A46002900F0F4813D4801318AF8001064
:1045A0004D2331213E4A00881DF00EFA002800F00C
:1045B00082813C4B0228187000F02E820C2800F0FB
:1045C000F5812A783849042A04BF05222A700A781E
:1045D000002A00F0FA8100219FED237BC5E900113C
:1045E0001970C5F80710314B294D314E4E22314814
:1045F00083ED007B8BED007B86ED007B2D888AF8B8
:1046000000105CF051F99FED187B2B4B83ED007B84
:10461000002D3FF4C9AD28461CF09CFBC4E5234A9D
:10462000D2E9001351EA030C3FF4BEAD884277EBA8
:104630000303FFF4B9AD9FED0C7BAB7A82ED007BF9
:10464000002B40F00F826A682B720132022A6A60E6
:104650008CBF042201222A700F4AC2E900070F4AC8
:104660001370A1E5AFF3008000000000000000001F
:10467000909C002056E400205BE400209C9C0020DD
:10468000142D002059E400205CE40020E8340020D0
:104690001AE400205DE40020D03400205FE4002014
:1046A00099AB00205EE4002062E40020F834002092
:1046B000F034002098AB00201035002055E4002095
:1046C000A14B9B46D3E90023904271EB0303FFF417
:1046D0006BAD6A68022A3FF667AD9C4B9A5C002A74
:1046E0003FF462AD9A48019201788246013101702F
:1046F0009848032100881DF03BF9019A934B00284C
:1047000000F0CD8194490228087000F0858119F1EC
:10471000190C47F1000E0C2840F0AF819AF80010F8
:10472000032900F2AA81CBE900CE3DE58B4BD3E90A
:10473000001251EA020C3FF437AD884277EB0202D7
:10474000FFF432AD834B2E7A18881DF075F90028DE
:1047500040F09D8108219FED7A7B7F4A7F4B11704D
:104760002A7883ED007B022A09D12B7AB34206D145
:104770006B7A2872002B00F0BD8106232B7000227B
:10478000714B19F1190047F10001C3E90001704BA9
:104790001A7009E52A7007E516F0FEF870492BE655
:1047A00016A8FFF7F1FB9DF85830032B3DD098F881
:1047B0000030002B3FF420AD50E42B70F4E4654A48
:1047C0001288002A3FF43DAD00200021C5E9000118
:1047D00001256448644A05701168EFF3108072B6D1
:1047E000D1E8CFCF0125BCF1000FF9D1C1E84C5F72
:1047F000BCF1000FF4D1BFF35F8F07211568506043
:104800005A4AA2F84810116D01311165C5E88F3F71
:1048100080F310884F4B18881CF09CFA11E5337810
:10482000002B7FF472AE002073E69DF85E30002B03
:10483000BDD04F4AD2E900321343B8D004F02CFD6A
:104840004FF47A7200235CF08BF84EF66023A6FBDF
:104850000332474E3768D6F804C0C01B61EB0C0129
:1048600098429141A3D301233A49424A08881570DE
:1048700088F800302DB0BDE8F04F1CF06BBA1DF089
:10488000FFF836E404F008FD4FF47A7200235CF080
:1048900067F8D5E9002390429941C0D2002FBED0DD
:1048A000012015F00DFEFEF7A3FA2A4B1888002808
:1048B0007FF4F9AB78E42B78042B03D10123AB729E
:1048C00003232B7000232C4A8AF8003019F57A73E1
:1048D000136047F10001294B516019F104021A607D
:1048E00047F100025A6000220023CBE900235BE479
:1048F00001201C491C4A08701368EFF3108072B63F
:10490000D3E8CF4F0121002CFAD1C3E8441F002C7B
:10491000F6D1BFF35F8F40F20525144B5060196D3F
:104920000024013112681965A3F84850C2E88F4F7E
:1049300080F310882DB0BDE8F04FFEF715B800BF2A
:104940000000000000000000D0340020BC5706101A
:104950005FE400201AE400205EE40020F034002030
:1049600056E4002062E400209C9C0020142D0020CE
:10497000B03400205DE40020F83400201035002021
:104980003B2216A85BF090FF5F4B02A81A78511CDF
:10499000197002F00F0216A903F0CAF902A94E22FB
:1049A0005A485BF0D1FF9AF80010F5E59AF800201C
:1049B000032A3FF606AE19F11903CBF8003047F190
:1049C0000003CBF80430FFF7EFBB4FF0010C81F888
:1049D00000C04F49D1F800E0EFF3108C72B6DEE86A
:1049E000CF7F0126002FFAD1CEE8476F002FF6D1F6
:1049F000BFF35F8F4FF0050E0E68C1F804C0454944
:104A000081F84900086D81F848E001300865C6E882
:104A10008F2F8CF31088DEE501203F493C4B087056
:104A20001A68EFF3108172B6D2E8CF5F0120002D33
:104A3000FAD1C2E8450F002DF6D1BFF35F8F40F2E7
:104A4000052218685960334BA3F848201A6D0132CB
:104A50001A650023C0E88F3F81F31088FDF784FFBB
:104A6000FFF7A2BB052000222C4B287019782C4B95
:104A70001A70FEF759F9FFF797BB2978012920D062
:104A80000023CBE900CE8AF80030FFF78DBB022867
:104A9000C2D031460720FEF747F9FFF785BB2978DA
:104AA00001291DD040F2DC531E4A19EB030347F1E4
:104AB0000001C2E9003100220023CBE90023FFF707
:104AC00073BB68680228DBD81B5C9342D8D10130E5
:104AD000032808BF04210023686029702B72CFE7E8
:104AE00069680229DED85B5C9342DBD12B7202231A
:104AF0002B70D7E76B680133022B6B608CBF0423EC
:104B000001232B703BE600BF58E4002098AB002047
:104B10009C9C0020142D002062E400205EE4002014
:104B20005FE40020F0340020042800D07047002A01
:104B3000FCD02DE9F0431178164633299FB000F0E0
:104B400021873AD80339CAB2132A33D8132931D866
:104B5000DFE811F0BA013000B001DE021D023000C2
:104B600030003000300030003000300030003000C5
:104B700030003000300030003000F5010121002A03
:104B800000F05D87AA4B1B78002B1CBF0021002280
:104B900000234FF6FF74DFF8FCC2A6488CF8001023
:104BA000A549A64D0A70A649A64A2B700C80036041
:104BB000838013701FB0BDE8F083DD2900F00A8701
:104BC000044600F2EC82602900F09B80DC29F1D1E0
:104BD0009D4B1B78002BEDD09C4B1B78002BE9D113
:104BE000137C002B41F00781737E002B00F073874C
:104BF000B07E082840F26F8706F11B04234606F1B9
:104C0000130C844413F8012B02F12001C9B2A2F164
:104C1000410EBEF1190F98BF0A46642A40F02F8753
:104C20001A7802F12001C9B2A2F1410EBEF1190FAA
:104C300098BF0A46752A40F022875A7802F120016F
:104C4000C9B2A2F1410EBEF1190F98BF0A46612AFE
:104C500040F015879A7802F12001C9B2A2F1410E05
:104C6000BEF1190F98BF0A466C2A40F00887DA781F
:104C700002F12001C9B2A2F1410EBEF1190F98BF95
:104C80000A46732A40F0FB861A7902F12001C9B264
:104C9000A2F1410EBEF1190F98BF0A46652A40F0F5
:104CA000EE865A7902F12001C9B2A2F1410EBEF19D
:104CB000190F98BF0A466E2A40F0E1869A7902F1F0
:104CC0002001C9B2A2F1410EBEF1190F98BF0A46E8
:104CD000732A40F0D486DA7902F12001C9B2A2F138
:104CE000410EBEF1190F98BF0A46652A40F0C786EB
:104CF000B01C062208A90FF0CBFA08A8FEF798FA14
:104D000058E79178022900F0718700297FF452AFAB
:104D10009FED457B474B4FF6FF7019609980494BDB
:104D20004B4A1970454B117019704A4B4E2219802D
:104D3000494B01911970494B1970494B83ED007B28
:104D4000484B83ED007B484B83ED007B474B83ED65
:104D5000007B474BC3E90011C3F80710454B83EDB7
:104D6000007B454B83ED007B444B83ED007B444B44
:104D70001970444B1970444B1970444B83ED007B00
:104D8000314B1970314B1970414B1980414B1970DF
:104D90002B4B188040485BF087FD9FED237B3F4AFB
:104DA0003F4B01993F4811709A7980ED007B6AB1C1
:104DB000DA795AB91A7A4AB993E80300089008A830
:104DC0000193ADF8241010F029FE019B00241A4A2B
:104DD000C3E900441C721470FDF7D2FC324B334A15
:104DE000C3E9004410689C60EFF3108172B6D0E80C
:104DF000CFCF0123BCF1000FF9D1C0E84C3FBCF18B
:104E0000000FF4D1BFF35F8F294B10685160C3F8D6
:104E10000140A3F805401C811C70C0E88F4F81F34E
:104E20001088C7E6AFF3008000000000000000001B
:104E300055E40020A49C002060E4002065E40020EC
:104E4000102D00205AE400205BE400205CE40020E8
:104E500053E4002018E4002063E4002064E4002010
:104E60000035002008350020C0340020D834002050
:104E700074A30020D0340020F0340020F834002047
:104E80005FE400205EE4002056E40020E8340020C7
:104E90001AE4002066E4002098AB002061E40020C2
:104EA000E8AB002010350020909C00209C9C002046
:104EB000142D00208A4B8B4A1B881278002B7FF41C
:104EC0005DAE894B19785AE6B378002B40F0BA856D
:104ED0000321304601930FF091F9731D06461846E1
:104EE000019B08A9089306228B800D460FF0D0F98C
:104EF0004FF0010C7D4A7E497E487F4C80F800C00F
:104F00000E80D5E90001106091802268019B002A83
:104F100000F00E86794903E02268934280F008860B
:104F20002846CDE901130FF05FF9029B0199013387
:104F300006310028F0D10122714B1A703AE6714C0B
:104F4000062208A9B01C0FF0A3F9D4E900321343DC
:104F500008AD40F08585684C2368002B00F024865E
:104F60000023664903E02268934280F01D862846AC
:104F7000CDE901130FF038F9029B01990133063195
:104F80000028F0D12846604915F066FD12E65F4C16
:104F9000A27A002A3FF40EAE08A9F01C0622019363
:104FA0000FF076F9214608A80FF01EF900287FF4CB
:104FB00001AEB278002A40F0EA85019B092B40F24D
:104FC000E68506F10801093B11F8010F002800F001
:104FD000C38701329A42F7D1082B40F2D88506F1F7
:104FE0000902174606F1010C9C4412F8011B01F15D
:104FF000200E5FFA8EFEA1F14100192898BF71467C
:10500000642940F09885117801F1200E5FFA8EFE38
:10501000A1F14100192898BF7146752940F08B8590
:10502000517801F1200E5FFA8EFEA1F1410019289E
:1050300098BF7146612940F07E85917801F1200E7C
:105040005FFA8EFEA1F14100192898BF71466C29C4
:1050500040F07185D17801F1200E5FFA8EFEA1F14A
:105060004100192898BF7146732940F06485117971
:1050700001F1200E5FFA8EFEA1F14100192898BFC0
:105080007146652940F05785517901F1200E5FFA8C
:105090008EFEA1F14100192898BF71466E2940F09B
:1050A0004A85917901F1200E5FFA8EFEA1F141004F
:1050B000192898BF7146732940F03D85D17901F1D7
:1050C000200E5FFA8EFEA1F14100192898BF7146AB
:1050D000652940F030850D48FEF7AAF86AE500BF63
:1050E0001AE4002053E400205CE40020A49C00208B
:1050F000102D00205AE400208CA300205CA3002087
:1051000065E40020E8340020E40D0610909C0020A7
:10511000B3780321304699460FF070F84FF6FF72CE
:10512000904B1B8893423FF445AD98427FF442ADCB
:10513000B9F1000F3FF43EAD8B4B1B783BB18B4B6D
:105140001A7A22B98A490978002940F03987DFF8AC
:105150004482884C0121884AD8F800301170EFF35E
:10516000108272B6D3E8CF0F01210028FAD1C3E82C
:10517000401F0028F6D1BFF35F8F0420236DD8F8BD
:10518000001001332365C8F80420002384F84990F7
:1051900084F84800C1E88F3F82F310880AE5EF29C0
:1051A0007FF408AD9278531E0C2B0ED8DFE813F075
:1051B00070026A0115020D000D000D000D001701AF
:1051C0000D000D00F4006A002000083A052A3FF6A1
:1051D000F1AC01A353F822F0F3530010B54B0010CB
:1051E000B54B0010AD53001099520010055200103D
:1051F000032130460FF002F8604B1B8813B1984230
:105200003FF4D8AC7279002A40F08086DFF88481C0
:10521000584CD8F80010EFF3108372B6D1E8CFCF16
:105220000120BCF1000FF9D1C1E84C0FBCF1000F17
:10523000F4D1BFF35F8FB2FA82FC4FEA5C1C00210D
:10524000D8F80000C8F8043084F805C0C0E88F1F03
:1052500083F31088002A7FF4ADAC494B597A0029BA
:1052600040F02D8701215A601A729A72197004F069
:1052700013F84FF47A7200235BF072FB414CC4E9DF
:10528000000197E4032130460EF0B8FF3B4B1B882A
:1052900013B198423FF48EAC052130460EF0AEFFBC
:1052A00000283FF487ACF279A12A00F00B87002395
:1052B000012A00F09E87312A7FF47CAC4E3398425D
:1052C0007FF478AC0246F11D08A802F0B1FC089901
:1052D000002940F0FB87254B9A79154622B11A7AAE
:1052E000002A01F0C9800D46274CD4E9003213434F
:1052F00041F06180DFF89C801E4CD8F80030EFF35D
:10530000108272B6D3E8CF0F01210028FAD1C3E88A
:10531000401F0028F6D1BFF35F8F089BC8F8042018
:105320001E46002B01F012800025636C013363647C
:105330000024D8F80030C3E88F4FD8F8043083F346
:105340001088002D3FF436AC03F0A6FF00234FF485
:105350007A725BF005FB0D4B1C700D4BC3E900012D
:1053600028E400BF102D002065E40020E8AB0020F9
:105370005AE40020142D002062E4002018E40020EC
:1053800074A30020D0340020E834002055E400202D
:10539000B03400209C9C0020032130460EF02EFFEC
:1053A000A54B1B8813B198423FF404AC0020A34ADC
:1053B0007379107023B1A24A1188002940F0D28578
:1053C00003F06AFF4FF47A7200235BF0C9FA9D4C38
:1053D000193041F10001C4E90001FFF7EBBB0321E3
:1053E00030460EF00BFF944B1B8813B198423FF4EC
:1053F000E1AB032130460EF001FF914B1B88834245
:105400007FF4D8AB904B1A78022A17467FF4D2ABC0
:10541000717900200D4600218C4A012DC2E900015E
:1054200093F8088040F07787597A894A19B910783B
:10543000032841F2928030460621CDE901230EF087
:10544000DDFEDDE901232F4682490F700021187827
:10545000022840F04587187A404540F074874FF0A5
:10546000000C587A83F808C0002801F05A80062101
:1054700082F800C0197000200021774BC3E90001B9
:10548000FFF798BB032130460EF0B8FE6A4B7479E3
:105490001A8812B1904200F02882002C40F0BD849E
:1054A00003F0FAFE4FF47A7200235BF059FA6B4B6B
:1054B00008AD1C706A4BC3E90001032130460EF0B1
:1054C0009DFE062201465E4BB018198008942946BD
:1054D000AC800EF0DDFE634B9A79002A40F07E86A8
:1054E000D5E900010022186001205F4C99802168F5
:1054F000A3F807209871002900F031855B4903E08B
:105500002068824280F02B852846CDE90223019154
:105510000EF06AFE029A0199039B013206310028BF
:10552000EED10122DA7103F0B7FE4FF47A72002354
:105530005BF016FA42F2107200234D4D80182B706A
:105540004C4C4D4D41F10001A846C4E900012A68C8
:10555000EFF3108072B6D2E8CF4F0121002CFAD1C0
:10556000C2E8441F002CF6D1BFF35F8F4349444C7F
:10557000D1E900210A436860237140F0E4850021ED
:105580000122A370A4F80510D8F800302270C3E8F7
:105590008F1F80F31088FDF7F3F800219FED247B27
:1055A000294B284A19605960C3F80710284B82ED2F
:1055B000007B2648284A1970264B80ED007B82ED3F
:1055C000007B30484E2219705BF06EF99FED187B1E
:1055D0002D4B83ED007BFFF7EDBA032130460EF033
:1055E0000DFE154B1A8812B1904200F08181032103
:1055F00030460EF003FE124B1B8813B198427FF425
:10560000D9AA08A8FEF7C0FC204B99461B784BB9D5
:105610009DF82430002B40F0A8859DF82030012B08
:1056200000F0A3851FB0BDE8F043FDF79DB900BFB2
:10563000000000000000000018E4002061E40020E9
:105640001AE40020D034002074A30020F03400209D
:105650005FE400205EE40020F834002055E40020E0
:10566000B0340020E8AB00208CA300205CA3002015
:105670005CE40020C03400209C9C0020E834002022
:10568000142D002098AB00201035002062E400208B
:10569000032130460EF0B2FD9F4B1B8813B1984298
:1056A0003FF488AA032130460EF0A8FD737B07461D
:1056B000002B7FF47FAA08A9984C0893701D8B805B
:1056C000062201930D460EF0E3FD23681E46002BD3
:1056D00000F01287019B924903E02268934280F018
:1056E00016852846CDE901130EF07EFD029B019937
:1056F000013306310028F0D18A4A9046D2E90032BF
:10570000134340F0B7860126874B9A79002A40F070
:10571000D285012100229971D5E900019980216883
:10572000A3F807201860002900F0BC857C4903E03D
:105730002068824280F0B6852846CDE90223019197
:105740000EF052FD029A0199039B013206310028A6
:10575000EED10122DA7103F09FFD4FF47A7200233B
:105760005BF0FEF84FF0000C704B714A714C83F8FF
:1057700000C01378C4E90001002B40F096856E4804
:10578000054680460368EFF3108172B6D3E8CF4F29
:105790000120002CFAD1C3E8440F002CF6D1BFF34E
:1057A0005F8F0023654C137069602A68E370C2E85C
:1057B0008F3F81F31088624A137091462B68EFF394
:1057C000108272B6D3E8CF0F01210028FAD1C3E8C6
:1057D000401F0028F6D1BFF35F8FE36C6A6001338E
:1057E000E36416B1636D013363650023D8F80010DC
:1057F000C1E88F3F82F31088524A3E46C2E9003327
:10580000C2F80730504A9FED427B17804FF00107E6
:105810004E4A194617704E4A4E4813704E4A13703E
:105820004E4B4E2283ED007B4D4B83ED007B4D4B69
:1058300083ED007B5BF038F89FED357B00234A4A0F
:10584000D8F8000082ED007B484A1370EFF3108116
:1058500072B6D0E8CFCF5FF0010EBCF1000FF8D1E7
:10586000C0E84CEFBCF1000FF3D1BFF35F8FD8F865
:105870000000C8F804102771C0E88F3F81F310883A
:10588000012130461BF084F900230646002840F031
:10589000DF84364A177003F0FFFC4FF47A7200235E
:1058A0005BF05EF842F21073C018314B41F1000119
:1058B000D8F8002018605960EFF3108372B6D2E870
:1058C000CF0F01210028FAD1C2E8401F0028F6D1ED
:1058D000BFF35F8FD8F80020C8F804302770C2E803
:1058E0008F6F83F31088FFF765B9002C00F0F18308
:1058F0000022002000211A801E4B1F4CC3E900012A
:105900001E4D1F4B2A702270C3E90001FFF752B9E8
:10591000000000000000000018E400208CA300201C
:105920005CA30020E8340020E8AB002055E4002010
:1059300056E40020B03400209C9C0020142D002050
:1059400062E4002074A300201AE400205CE400203C
:105950005FE4002098AB00205EE40020D0340020FB
:10596000F0340020F83400201035002061E40020DD
:10597000C03400200035002063E4002064E40020EF
:10598000083500208B4C062208A9B01C0EF080FCC4
:10599000D4E90032134308AD40F0BC80864C236844
:1059A000002B00F0FC800023844903E0226893422E
:1059B00080F0F5802846CDE901130EF015FC029B1E
:1059C0000199013306310028F0D1284615F08AF8F4
:1059D000FFF7F0B87A4A1368EFF3108172B6D3E894
:1059E000CF4F0120002CFAD1C3E8440F002CF6D190
:1059F000BFF35F8F0023734C7348516023701268AC
:105A0000C370C2E88F3F81F31088704B1B78002B66
:105A10003FF4D0A86E4B1B78002B7FF4CBA86D4CC5
:105A2000A37A1BB1E37A002B00F0D8810023C4E9EC
:105A30000033A3601FB0BDE8F043FDF7D9B91146AC
:105A4000FFF7A6B800234FF6FF74634A6348644922
:105A5000644D04802B70136093800B70FFF7AAB81D
:105A600003F01AFC4FF47A7200235AF079FFD4E95C
:105A7000002390429941FFF485AAFFF76CBA9C4538
:105A80007FF4C0A8122826D906F12D0E25185648F5
:105A9000AEF1130402E0A6453FF42AA914F8013F31
:105AA000027803F12001A3F1410CC9B2BCF1190F36
:105AB00098BF0B4602F12001A2F1410CC9B2BCF122
:105AC000190F98BF0A469A4200F10100E3D00EF187
:105AD000010E7545DBD13F4CA37A002B7FF46AA8F9
