:020000041000EA
:10000000002008205B0100101B0100101D010010E2
:100010001101001011010010110100101101001058
:100020001901001019010010190100101F01001022
:10003000110100101901001021010010230100100E
:100040001101001011010010110100101101001028
:100050001101001011010010110100101101001018
:100060001101001011010010110100101101001008
:1000700011010010110100101101001011010010F8
:1000800011010010110100101101001011010010E8
:1000900011010010110100101101001011010010D8
:1000A00011010010110100101101001011010010C8
:1000B00011010010110100101101001011010010B8
:1000C00011010010110100101101001011010010A8
:1000D0001101001011010010110100101101001098
:1000E0001101001011010010110100101101001088
:1000F0001101001011010010110100101101001078
:100100001101001011010010110100101101001067
:10011000EFF30580103800BE00BE00BE00BE00BE7A
:1001200000BE00BEF2EB887130750A1050750A10DF
:100130009C01001090A31AE7D3DEFFFF42012110BB
:10014000FF010000A0A80A00793512AB00201E496B
:10015000086006C881F3088810474FF050400068D7
:1001600008B10020F3E70DA40ECC002902D000F066
:1001700012F8F9E71549164A002000E001C1914242
:10018000FCD114498847144988471449884700BE60
:10019000FDE701C901C29A42FBD3704750750A10AE
:1001A0001001002098350020D8A90A10000008206E
:1001B00000000820D8A90A1000100820001008200C
:1001C000000000007047000008ED00E098350020B6
:1001D00024D1002079A500108517001071A500100A
:1001E000704700BF00B5042183B0019008F0DEFD28
:1001F000019803B000BD00BF2DE9F04FF7B00746EE
:10020000369030200C4608F0CDFD00F13005064652
:1002100038602F220021BD6001305DF091FE022385
:1002200094F800907D60B9F1030F337000F087827D
:1002300090229946D0235027CDE90632B0234FF0C3
:10024000F00BCDE904377023CDE9023B102388275A
:100250000193C8234822CDE91537A823E827CDE923
:10026000133268232822CDE911379823D827CDE906
:100270000F325823B822CDE90D37F8237827CDE97E
:100280000B323823CDE90937182384220893C4237D
:10029000CDE93432A4234422CDE932326423E4226E
:1002A000CDE9303294232422CDE92E325423D422B6
:1002B000CDE92C32F423B422CDE92A32342374223E
:1002C000CDE928328C231422CDE926324C23CC22CE
:1002D000CDE92432EC23AC22CDE922322C236C224E
:1002E000CDE92032DC239C22CDE91E32BC235C22E6
:1002F000CDE91C327C23FC22CDE91A321C233C229E
:10030000CDE918320423179382237593C223749383
:1003100042237393A2237293E22371936223709317
:1003200022236F9392236E93D2236D9352236C9367
:10033000B2236B93F2236A937223699332236893F7
:10034000122367938A236693CA2365934A2364938F
:10035000AA233B93EA2360936A235B932A233A936D
:100360009A233D93DA2361935A236293BA233C93F1
:10037000FA2358937A235A933A2359931A235F9373
:100380000A235E9386235D93C6235C93462363937F
:10039000A6234093E6233F9366234293262341936B
:1003A00096234493D623439356234693B6234593EB
:1003B000F6234793762339933623489316233893AD
:1003C0008E234993CE2337934E234A93AE234C93E7
:1003D000EE234B936E234E932E234D939E235093E7
:1003E000DE234F935E235293BE235193FE235493F7
:1003F0007E2353933E2356931E2355930E235793E8
:1004000006234FF0800AC02140204FF0A00E4FF08D
:10041000E00C60254FF020084FF0300B08270C222D
:100420003E936379002B75D0DDE96E38DDE9741AEF
:10043000DDE972E0DDE9705C07936D9B86F8019061
:1004400006936C9B05936B9B04936A9B0393699B38
:100450000293DDE9673B0193669B1693659B1593B9
:10046000649B14933B9B1393609B12935B9B119330
:100470003A9B10933D9B0F93619B0E93629B0D9350
:100480003C9B0C93589B0B935A9B0A93599B099343
:100490005F9B0893DDE95D3735935C9B3493639BE9
:1004A0003393409B32933F9B3193429B3093419BCC
:1004B0002F93449B2E93439B2D93469B2C93459BBC
:1004C0002B93479B2A93399B2993489B2893389BCE
:1004D0002793499B2693379B25934A9B24934C9BB8
:1004E00023934B9B22934E9B21934D9B2093509B98
:1004F000579A1F934F9B1E93529B1D93519B1C9386
:10050000549B1B93539B1A93569B1993559B18937B
:100510003E9B1793A379002B36D0DDE92E78DDE9D9
:1005200032E0DDE9305C07972D9F179906972C9FE5
:10053000717005972B9FDDE9341A04972A9F039762
:10054000299F0297DDE9277B0197269F1697259F14
:100550001597249F1497239F1397229F1297219FEB
:100560001197209F10971F9F0F971E9F0E971D9FFB
:100570000D971C9F0C971B9F0B971A9F0A97199F0B
:100580000997189F089717466278B2B1DDE90F28DE
:10059000DDE9151ADDE913E0DDE9115C07920E9A39
:1005A000777006920D9A05920C9A04920B9A039218
:1005B0000A9A0292DDE9082B0192A27842B1DDE9A4
:1005C000061ADDE904E0DDE9025CD846019A7270A2
:1005D000E27822B1F2466146284686F80180227907
:1005E0000AB18A467070E2790AB186F801A0002B40
:1005F00000F09D80D4E90423C6F80630238BC6F8AA
:1006000002207381228F94F83A303282002B40F01E
:100610009280022294F83B1009B11346B27494F808
:100620003C2012B143F00403B37494F83D2012B19E
:1006300043F00803B37494F82C2012B143F0100374
:10064000B37494F8322012B143F02003B374002540
:10065000AE46AC4628462A462946B4F91C30A77E49
:10066000019367F30705019FB4F91EB067F30F25E7
:10067000C7F3072767F317456BF31F65C6F81350D9
:10068000CBF3072565F3070EB4F92050B4F922A087
:1006900065F30F2EC5F3072565F3174ECAF307253B
:1006A00065F3070CB4F92450B4F9269065F30F2CC8
:1006B000C5F30725A36A65F3174C6AF31F6E69F348
:1006C0001F6CC6F817E0C6F81BC04FEA136EB4F8EB
:1006D0002EC06EF30700B4F830806CF30F204FEAA1
:1006E0001C2C6CF31740C9F3072568F31F6065F3F2
:1006F0000702C6F82300A58E4FEA182060F3070111
:10070000E48E65F30F212D0A65F3174164F31F6131
:1007100063F30F22C6F82710190A61F317421B0C66
:10072000240A63F31F6286F82B40C6F81F20369810
:1007300077B0BDE8F08F01230322B3746AE7012389
:10074000D122912773707123CDE906274FF0510B09
:10075000B12202931123CDE9042B8927F1220193C1
:10076000C9230392CDE915374922A923E927CDE909
:10077000133269232922CDE911379923D927CDE9ED
:100780000F325923B922CDE90D37F9237927CDE965
:100790000B323923CDE90937192385220893C52364
:1007A000CDE93432A5234522CDE932326523E52255
:1007B000CDE9303295232522CDE92E325523D5229D
:1007C000CDE92C32F523B522CDE92A323523752225
:1007D000CDE928328D231522CDE926324D23CD22B5
:1007E000CDE92432ED23AD22CDE922322D236D2235
:1007F000CDE92032DD239D22CDE91E32BD235D22CD
:10080000CDE91C327D23FD22CDE91A321D233D2284
:10081000CDE918320523179383237593C32374936B
:1008200043237393A3237293E323719363237093FE
:1008300023236F9393236E93D3236D9353236C934E
:10084000B3236B93F3236A937323699333236893DE
:10085000132367938B236693CB2365934B23649376
:10086000AB233B93EB2360936B235B932B233A9354
:100870009B233D93DB2361935B236293BB233C93D8
:10088000FB2358937B235A933B2359931B235F935A
:100890000B235E9387235D93C7235C934723639366
:1008A000A7234093E7233F93672342932723419352
:1008B00097234493D723439357234693B7234593D2
:1008C000F723479377233993372348931723389394
:1008D0008F234993CF2337934F234A93AF234C93CE
:1008E000EF234B936F234E932F234D939F235093CE
:1008F000DF234F935F235293BF235193FF235493DE
:100900007F2353933F2356931F2355930F235793CE
:1009100007234FF0810AC12141204FF0A10E4FF073
:10092000E10C61254FF021084FF0310B09270D2212
:100930003E9376E5012904D8D2E900031B1A402B27
:1009400001D00020704710B50C46C2B00192FF21C3
:100950004FF4807202A85DF0F3FA019B02A8D3E97C
:100960000012521A5DF0B0FA04F2FB3000034FF4AB
:10097000805101905DF094FA01984FF4807202A9C1
:100980005DF0A6FA012042B010BD00BF2DE9F04194
:100990001F4D07462E6806F0EDF899B34FF47A72B2
:1009A00000235DF075FADFF8788006EB4606340127
:1009B00048F8040038465CF051FD2822904228BFD8
:1009C0001046631D08EB06160021307103EB08008A
:1009D0005DF0B6FA394632795DF076FA0D480E4B85
:1009E0000268511C0C2928BF0C212A6801600132C1
:1009F000A3FB0243DB0803EB4303A2EB83022A6061
:100A0000BDE8F081054BA3FB00308009CBE700BFB8
:100A100070380020B4380020ABAAAAAAD34D6210C7
:100A2000B83800209C46002300B58BB08E46CDE937
:100A30000633CDE90833012342F00102ADF8160078
:100A40008DF81520DCE90010421A8DF818E08DF8B9
:100A5000143022D105A902A8089203F01FFDDDE998
:100A60000212521A402A049B08D089B9079818B17B
:100A70000999091A08F09AF90BB000BD0E48CDE9A2
:100A800000135DF041FADDE9001301200B4A1070FC
:100A90000846591A08F08AF9E8E7104601910092D1
:100AA00008F080F9DDE900215DF00EFA009A079068
:100AB00002440992CEE700BF74380020F4D0002031
:100AC0002DE9F041804684B0104616460F465CF092
:100AD000C5FC0446D8B1302828BF3024204608F091
:100AE00061F90546314622460619009002965DF0EE
:100AF000EBF93946404602226B460196FFF792FF1A
:100B00002146284604B0BDE8F04108F04FB99FEDFA
:100B1000087B3946404602226B468DED007B0294ED
:100B2000FFF780FF04B0BDE8F08100BFAFF30080A5
:100B300000000000000000002DE9F04FD1E9005353
:100B40008B46DBF808909D42A9EB050383B018BFE4
:100B50004D603F2BDFF8448174D8DBF80060AC1B9C
:100B600004F1004340333F2B40F29080402C2CBFD7
:100B7000271904F140076FF000439F4228BF1F462A
:100B8000384608F00FF9AE4282467DD0621E052A33
:100B900033466FD9811B0139022902466AD924F0F4
:100BA000030C4FEA940E06EB0C0053F8041B83422F
:100BB00042F8041BF9D1644510D01A4612F8011B03
:100BC000D44495420AF82E1008D05A788CF80120A7
:100BD0009A1C95421CBF9B788CF8023054442346E3
:100BE000C6469C4608F14004019375460CF1100C72
:100BF0000FCDA5420EF1100E4CF8100C4CF80C1C49
:100C00004CF8082C4CF8043CEFD1019B03F1400553
:100C100026B13046A9EB060108F0C8F8CBE900A5DB
:100C20005744CBF808701B4B984503D1012003B003
:100C3000BDE8F08FDBF80890DFF85880A9EB0503DA
:100C40003F2B8AD9464608F14007344610350FCC71
:100C5000BC4206F1100645F8100C45F80C1C45F88E
:100C6000082C45F8043CF0D1DBF804504035CBF8B3
:100C70000450D8E753465444721E12F8011F03F87B
:100C8000011B9C42F9D1AAE70346A9E7024852F0AA
:100C9000D9FC00BF00C03F1098DF051000B03F1026
:100CA0002DE9F0410446B6B0402008F07BF8234619
:100CB000024600F1400C0690CDF820C004F140013E
:100CC0001D685C68D3F808E0D86810338B42156063
:100CD0005460C2F808E0D06002F11002F0D106A919
:100CE0000CA8CDF81CC003F0BFFC0C9BBDF836402F
:100CF0009DF83810BBB94B1E112B00F2CA84DFE8F7
:100D000013F03000470060008500C200D9004602A1
:100D10000501F201DE008D02600270025102AF0295
:100D20007B02BE02250020466C4AFFF7C9FE0F98E1
:100D300018B11199091A08F039F8069818B10899EC
:100D4000091A08F033F836B0BDE8F081DDE90F2369
:100D50009A4200F0A38212212046614AFFF7B0FEBA
:100D6000E5E7042008F01EF805465E4B05F1040C8B
:100D70001868002228600121204620ABCDE921CC53
:100D80002095FFF74FFE0421284608F00FF8CEE724
:100D90000C2008F007F80546534B05F10C0C07CB67
:100DA00020AB286069602046AA6002210022CDE9BC
:100DB00021CC2095FFF736FE0C21284607F0F6FFE0
:100DC000B5E74A4920A803F0C1FE182007F0EAFF62
:100DD00005460DF1800C00F11803CDE91A33199086
:100DE000BCE80F0028606960AA60BCE80300EB6003
:100DF0002861696120469DF83810002219ABFFF781
:100E000011FE1821284607F0D1FF90E7DFF8F8C05F
:100E100012ADBCE80F000FC59CE8070085E807008D
:100E200012AA0FA919A803F0DDFE9DF86430002B6B
:100E300000F079832E4912AA20A804F02DF99DF81C
:100E40008030002B00F0B0832A48FFF79FFD00227E
:100E500020469DF8381009ABCDE909220B92FFF727
:100E6000E1FD219823AB984203D02399013107F08B
:100E70009DFF1A981CAB98423FF459AF1C99013161
:100E800007F094FF53E71A4804F02AF9002800F00D
:100E900043830122184B19481A70FFF777FD00228F
:100EA00020469DF8381020ABCDE920222292FFF792
:100EB000B9FD3CE70E4804F027FA1148EDE7DDE9FB
:100EC0000F239B1A042B03D11378522B00F03F837E
:100ED0000A2120460B4AFFF7F3FD28E7B0DF051093
:100EE00060E10510902A0610842A0610FC3A0020C2
:100EF000F83A0020C0DF0510F6D00020F4DF05101E
:100F00000CE0051000E20510AC2A061020A801F044
:100F1000CDFF19A801F052F9CB4B1E780AF008F862
:100F20009DF880309DF88320A3F10303B3FA83F387
:100F30005B099DF88410059301929DF88230BDF8FD
:100F4000852080460A209DF88170029304910392C7
:100F500007F028FF029B05460371059B019AC371A8
:100F6000042342710499039A467080F80280C77086
:100F700081712B702A811420309E07F013FF2A689C
:100F8000867202606A680A2142602A8901900281A1
:100F9000284607F00BFF019B9DF86410320A9974F4
:100FA0009DF88910DA72D974319A310C1973310EA7
:100FB0005973110A9A73D973110C120E19745A7459
:100FC00028201A9E07F0EEFE019B05461A6806755A
:100FD00002605A68142142609A688260DA68C260CE
:100FE0001A690261184607F0E1FE00239DF8C8C0A7
:100FF0001B9985F81CC09DF8C9C0320A85F81DC030
:101000004FEA164C85F816C04FEA166C6A7585F8DB
:1010100017C0339A4FEA112C297685F819C04FEA88
:10102000114C090EAB77EB77E976349B110A85F802
:10103000202085F82110110C120E85F823201A0AA1
:1010400085F8243085F825201A0C1B0E85F822100F
:1010500085F8262085F82730502085F81AC0359E5F
:1010600007F0A0FE3746024680462B4680F82860EF
:1010700005F120011868D3F804E00646D3F808C04B
:10108000D86810338B421660C2F804E0C2F808C07A
:10109000D06002F11002EDD119685B68284611603A
:1010A0005360282107F082FE0821002220463C0CD4
:1010B00088F82A403C0E27FA01F388F82B4008F103
:1010C000300488F82930219420ABC8F82C2008F18E
:1010D0005004CDF880802294FFF7A4FC50214046B4
:1010E00007F064FE23E6DDE90F32D11A012900F38F
:1010F00027829A4218BF1D784FF003000ABF0025CF
:101100002E46002607F04EFE012345704FF00005E5
:101110004E490370096885708E42C0F07C81019051
:10112000062007F03FFE0346019A03211088DD7078
:101130001880907801939870104607F037FE4FF0B2
:101140000002019B0C209A8007F02CFE4FF0000655
:101150000546019BAE711A6818462A609B880621D5
:10116000AB8007F023FE05F10C07EE7105F10806D0
:1011700000222046092112AB1497CDE91256FFF741
:1011800051FC7F1B3946284607F010FECFE5DDE90C
:101190000F239A4200F0E980072120462C4AFFF7EE
:1011A0008FFCC4E5DDE90F031B1A052B03D103787F
:1011B000012B00F01F820E212046264AFFF780FCFB
:1011C000B5E502F04BFE9DF83810002800F0B28122
:1011D0000022204620ABCDE920222292FFF722FCFC
:1011E000A5E5DDE90F239A4200F0E0800D212046BD
:1011F000194AFFF765FC9AE5DDE90F239B1A022BDC
:1012000006D11378012B03D15078012840F22882AF
:1012100010212046114AFFF753FC88E520A801F071
:1012200045FE20A919A8FEF7E7FF204600220B2162
:1012300019ABFFF7F7FB199800283FF478AD1B991D
:10124000091A07F0B3FD72E5F6D00020B43800208B
:10125000B4E1051048E0051028E00510C8E00510CD
:10126000DDE90F031B1A052B03D10378012B00F0D6
:10127000E1810F212046D04AFFF722FC57E5DDE946
:101280000F031B1A302B03D10378012B00F0C3810D
:1012900011212046C94AFFF713FC48E519A800F0C0
:1012A0008DFF20A801F002FE01238DF848309DF843
:1012B00089309DF864208DF84A309DF888300420EC
:1012C0008DF84B308DF8492007F06CFD02461299DD
:1012D000082011601A9DCDE9012107F063FD034646
:1012E00002990160019804211D71019307F05EFDD0
:1012F0001020019B2A0A5A7125FA00F22D0E9A71CC
:10130000DD711B9E07F04EFD0546019B06721A68B3
:10131000082102605A684260184607F047FD2046DF
:101320004FEA164C239C85F80AC04FEA166C85F8E4
:101330000BC04FEA142C330A2C7385F80DC04FEA0A
:10134000144C240E6B72EC730022122119AB85F839
:101350000EC005F11004CDE91A441995FFF762FBA0
:101360001021284607F022FDE1E49548FFF70EFB27
:101370000122944B1A7005F0FDFB002900F0078153
:101380004FF47A7200235CF083FD00228E4DFA3018
:101390002860204642F10004CDE920229DF8381053
:1013A000229220AB6C60FFF73DFBC0E420A801F067
:1013B0007DFD9DF890200820019207F0F3FC019A32
:1013C0000546A2F1310200210120B2FA82F205F1B4
:1013D0000803CDE91A339DF88630C5F8011052098B
:1013E000696019952870002B40F0D680AA7040F6ED
:1013F000B83C9DF88820204643EA42132B71002216
:101400000D2119ABA5F806C0FFF70CFB08212846F3
:1014100007F0CCFC8BE483706C4B6D4A19686D4B04
:101420000B31A3FB01C5ED0805EB4505A1EB8501DB
:101430000C31891BA3FB0153DB0803EB4303A1EB36
:10144000830303EB43031901039002EB031306200C
:101450005758CDE9011307F0A5FC0546039AC7705C
:101460001088032128809078A870104607F09EFC11
:101470003A0A2A713A0C6A710C2007F093FC06466E
:101480003A0E82712A6880460260AA88062182800C
:10149000284607F08BFC029B06F108001A7906F13A
:1014A0000C07F2710646002A00F0E9800199484BCA
:1014B0004D1D042A1D4440F2E480082A114638BF1D
:1014C00008216FF00043019201F108029A4228BFFF
:1014D0001A461046174607F065FCD8F80030294632
:1014E0000360D8F804300546019A436008305CF088
:1014F000EBFC019A0C2183184046019307F056FC3F
:10150000019B09211393EB1914930022204612AB7F
:101510001295FFF787FA35E620462F4A9DF83810D6
:10152000FFF7CEFA03E420461A9A9DF83810FFF729
:10153000C7FA9EE42046294AFFF7C2FAFFF7F7BB35
:1015400009212046264AFFF7BBFAFFF7F0BB537884
:101550000132432B7FF4BCAC12F8013F562B7FF4D1
:10156000B7AC5378312B7FF4B3AC1E48FFF70EFABB
:1015700001221D4B1A7005F0FDFA00296BD04FF4C3
:101580007A7200235CF084FC0022184DFFE6184BB1
:10159000A3FB00308009F8E69DF8BA306870E87067
:1015A000AA7043F0DE0322E72046219A9DF8381006
:1015B000FFF786FA55E400BF88E0051010E105103A
:1015C000D4E10510F9D00020B0350020703800209B
:1015D000B8380020ABAAAAAAD8DF051080E1051010
:1015E00098E10510ECE10510F5D00020A8350020A9
:1015F000D34D62108178B0F80320407801F078FA7A
:101600009DF8381000287FF4E3AD2046244AFFF708
:1016100057FAFFF78CBB2F21013001F083FB9DF8B7
:10162000381000287FF4D4AD20461E4AFFF748FA50
:10163000FFF77DBB81780379C278407801F0CCFA5E
:101640009DF8381000287FF4C3AD2046164AFFF7F6
:1016500037FAFFF76CBB154BA3FB0030800993E70B
:1016600000F0010001F012FB9DF8381000287FF413
:10167000AFAD20460E4AFFF723FAFFF758BB4546A9
:1016800076E5294601925CF01FFC019A4546164416
:101690006EE52046074AFFF713FAFFF748BB00BF85
:1016A00064E0051038E10510A4E00510D34D621088
:1016B000E8E0051028E2051010B5032ABDF808C0BF
:1016C00001D1022901D0002010BD0F4A1078002856
:1016D000FAD0BCF13F0FF6D99C460C4CA6460CF153
:1016E000100CBEE80F004CF8043C094B10349E452A
:1016F0004CF8100C4CF80C1C4CF8082CEED10023C4
:10170000014A4020137010BDF4D00020743800202E
:10171000B4380020022ABDF800C00DD0032A0DD134
:1017200001290BD10BB3BCF1410F14D0BCF1400F18
:1017300014D11846FFF7B4BA112900D07047002B16
:10174000FCD0BCF1300F14D0BCF12F0FF6D12F21FB
:10175000184601F0E7BA1A78012A04D001210020C6
:10176000064AFFF7ADB90133E3E71846044AFFF72D
:10177000A7B91A78112AE1D10133E8E76CE2051024
:1017800058E205102DE98048A1B00AF039FD00F0BB
:10179000F5FBB94803F0A8FBB84B1870002800F01F
:1017A000C881B748FFF7F2F800230822B54CC4E916
:1017B0000033C4F80730A2710AF030FD002800F0B1
:1017C000BA814AF60123002001A9ADF804300025B2
:1017D0000AF0B2FBAC4EAD4FDFF8E482DFF8E492E2
:1017E00000214FF0FF3009F03DFC00F047FC02F013
:1017F00003FC0AA801F05AFB9DF82E30002B40F0A4
:101800009780A34A1178002940F089813378002B12
:1018100040F01B810AA801F049FB3B782BB19D4B9E
:101820001A9A1B689A4200F04F8109F081FB38B385
:1018300000200AF081F918B30B234FF0010A0AA91E
:1018400002A8CDE905A3FEF7D7FC039B029A0893F3
:10185000049B02A805A90792099302F01FFEDDE987
:1018600002239B1A402B32D022B104991046891AC8
:1018700007F09CFA079818B10999091A07F096FA27
:1018800005F078F900294ED04FF47A7200235CF00D
:10189000FFFA98F8003033B1D9E90023904275EB94
:1018A000030380F04B817C4B1A78002A98D07B4A46
:1018B000D2E90012884275EB020291D31D7009F043
:1018C00047FB322005F02AF809F04CFB88E703219A
:1018D00000200AF04DF9029A0028C5D06D4B1A98E5
:1018E000049918606E4B9DF82E0087F800A01870C0
:1018F0006C4B9DF82D0018706B4B9DF829001870EB
:101900006A4B9DF82A001870694B9DF82B001870DF
:10191000684B9DF82C001870002AABD01046891A2D
:1019200007F044FAA6E7644BA3FB00308009B0E758
:1019300062491A980B6898423FF468AF6FF07E0BCB
:101940009DF839309DF83AA0803B9DF83BE0AAF124
:10195000800A5B459DF83CC0B8BF5B46AEF1800E87
:10196000DA45ACF1800CB8BFDA46DE45B8BFDE46DA
:10197000DC45B8BFDC469DF83F2084F803C002F088
:101980000F0CBCF1070F28BF4FF0070C2370BDF8F8
:101990003D3012F0200FA380C2F3001318BF43F0B4
:1019A000020312F0400F18BF43F0040312069DF823
:1019B00040200CF1010C48BF43F0080384F806C036
:1019C00002F0010C43EA0C1312F0020F18BF43F0AF
:1019D000200312F0040F18BF43F0400312F0080F69
:1019E00018BF43F0800312F0400F18BF43F4807318
:1019F00012069DF8412048BF43F4007312F0100F07
:101A000018BF43F4806312F0200F02F0010C18BFDE
:101A100043F4006343EA0C3312F0020F18BF43F49F
:101A20000053520748BF43F480431A0A4FF0000C9A
:101A3000E37101232272164A84F801A084F802E0BF
:101A400008603370A4F809C0137009F071FA002817
:101A50003FF4E0AE00200AF06FF800283FF4DAAE61
:101A60000B2310210020074A0AF082F800283FF4D7
:101A7000D1AE3570CEE600BFF83A0020F6D0002097
:101A8000A0E20510403B0020FAD00020F7D0002053
:101A9000F8D000204C3B0020F9D00020B0350020C9
:101AA000FCD0002000D10020FED00020FFD000207C
:101AB000FBD00020FDD00020D34D6210503B002011
:101AC000F5D00020A83500201F4B9DF82E201B7854
:101AD0009A427FF4AAAE1D4B9DF82D201B789A42A6
:101AE0007FF4A3AE1A4B9DF829201B789A427FF40D
:101AF0009CAE184B9DF82A201B789A427FF495AE35
:101B0000154B9DF82B201B789A427FF48EAE134B19
:101B10009DF82C201B789A427FF487AEB0E608200F
:101B20000121C4E900331370C4F80730A07131708B
:101B30008BE70B4836E600F0ADFF42E60021084691
:101B400088F8005005F054F9FCD0002000D10020A6
:101B5000FED00020FFD00020FBD00020FDD00020D0
:101B600088E205100149024803F0ACB9202E00209C
:101B7000F83A002000487047FC2A061000487047D9
:101B8000102B061000487047D82A061030B58DB0CB
:101B900058B940F209434FF4417E264D6B802549E8
:101BA000A5F800E008460DB030BD032822D03FD88C
:101BB000214B53F820100029F4D0084601915BF026
:101BC0004DFC2028044628BF202404F1010E4FEAD2
:101BD0004E0E0199174D4EF4407E0028DFD0284666
:101BE0004A1E931C5B1A12F801CF9C4220F802CFC8
:101BF000F7D8D4E72122002102A85CF0A1F9212125
:101C000002A808F0F3FE02A85BF028FC094D40B1E1
:101C10002A4602AB1C1813F8011B9C4222F8021F33
:101C2000F9D100F1010E4FEA4E0E4EF4407EB6E7B8
:101C30000021B7E720380020C82A06102DE9F04F10
:101C4000C64BADF69C0D1F68002F00F07C8100266E
:101C5000DFF814A34FF4F062002146A85CF070F99D
:101C60000AF1020B0DF58D790397BD4B40F2DF129F
:101C7000A3FB0635731B05EB530540F2FF132D0A3A
:101C800005F10108984528BF9846C5EB05143AF9B7
:101C90003800C5EB4414341B80FB04013AF935C00D
:101CA000C4F5EF7701370023C7FB0C015CF024F982
:101CB00029F8020C3BF938003BF9353080FB040170
:101CC00040F2DF12C7FB030100235CF015F9A54BBE
:101CD00006F2FF169E4229F8040BC6D1C825039FC1
:101CE00014AC2A46002120465CF02AF900954FF4F6
:101CF000F0722346384646A921F01CFAC82805464A
:101D000000F221814022002104A85CF019F940F67C
:101D1000FF70954A04A902F58056B2F90480B2F921
:101D20000C30B2F914E018EB0307B2F91CC04FEA0B
:101D3000E373B2F9249043EBE8731EEB0707B2F9A3
:101D40002C8043EBEE731CEB0707B2F934E043EB56
:101D5000EC7319EB0707B2F93CC043EBE97318EBDE
:101D60000707B2F9449043EBE8731EEB0707B2F99B
:101D70004C8043EBEE731CEB0707B2F954E043EBE6
:101D8000EC7319EB0707B2F95CC043EBE97318EB8E
:101D9000070743EBE873B2F964901EEB070743EBC8
:101DA000EE73B2F96C801CEB070743EBEC73B2F9EE
:101DB00074E019EB0707B2F97CC043EBE97318EB49
:101DC000070743EBE8731EEB070743EBEE731CEBCF
:101DD000070743EBEC73002B00DA3F18B2F90680DB
:101DE000B2F90EC0B2F916E018EB0C034FEAEC7C26
:101DF0004CEBE87CB2F91E801EEB03034CEBEE7C4F
:101E0000B2F926E018EB0303B2F92E904CEBE87C14
:101E10001EEB03034CEBEE7CB2F936E019EB030347
:101E2000B2F93E804CEBE97C1EEB03034CEBEE7CFD
:101E3000B2F946E018EB0303B2F94E904CEBE87CA4
:101E40001EEB03034CEBEE7CB2F956E019EB0303F7
:101E5000B2F95E804CEBE97C1EEB03034CEBEE7CAD
:101E6000B2F966E018EB0303B2F96E904CEBE87C34
:101E70001EEB0303B2F976804CEBEE7CB2F97EE008
:101E800019EB03034CEBE97C18EB03034CEBE87C08
:101E90001EEB03034CEBEE7C3F0BBCF1000F0F700D
:101EA00000DA1B1880321B0BB2424B7001F10201A9
:101EB0007FF433AF2D4E4FF4C772002130465CF0F3
:101EC0003FF8362333703F239022337344F292035A
:101ED00027482849F2720278A6F84C300B78B27283
:101EE000013202705A1C1B0104AF0A70737006F1B4
:101EF0004E0EBC460EF1100EBCE80F00A44507F1D3
:101F000010074EF8100C4EF80C1C4EF8082C4EF82A
:101F1000043CEED11323012D86F88F5086F88E30C5
:101F200016DD2A46214614485BF0CEFF4FF4C771F8
:101F30000E4803F03BFCC0B2B0FA80F040090DF649
:101F40009C0DBDE8F08F00200DF69C0DBDE8F08FD4
:101F500004BF237886F89030E8E700BF5C7B002060
:101F60009B01A31120BE0300607B0020608B00203A
:101F700004D1002002D10020F08B002030B50024D5
:101F800083B04FF4804200212C485BF0D9FF002041
:101F900000212B4B2B4A1C602B4B14601C602B4ADE
:101FA0002B4B1460C3E900012A4A2B482B492C4BC8
:101FB0002C4D146004700C704FF4805221462A4856
:101FC0001C702C605BF0BCFF284D21464FF4C7729B
:101FD00027485BF0B5FF40F6010202214BF6803046
:101FE00001AB2C7001941FF02DF8224C206008B139
:101FF000019D1DB10023236003B030BD40F6A271E6
:102000001D4A21F061F92A4640F6A671206821F0A8
:102010005BF9052240F6AA71206821F055F940F6D7
:10202000BA3240F6B871206821F04EF9102240F61D
:10203000C471206821F048F903B030BD543B002042
:10204000587B0020547B0020FC8C0020F48C002066
:10205000B8350020F88C002001D1002002D10020EA
:1020600004D10020F08C0020607B002003D10020F0
:10207000608B00205C7B002000710200F0B5434CB7
:1020800097B023780BB917B0F0BD04F073FD404A48
:10209000D2E90035C01A4FF000033E4A61EB05015A
:1020A000824273EB010168D32378002BEBD03A4BCB
:1020B0001B68002BE7D0684600F0F8FE37490B7824
:1020C000002B4FD1364E3268B2F5007FDBD39DF83E
:1020D00008100029D7D0DFF8D4C09E46314C324FCB
:1020E0000CF6F875A2B12368013A591CC1F30A0134
:1020F00007EBC303AC452160326093E803008CE832
:1021000003001AD00EF1010E0CF1080C002AEAD1DE
:10211000AC45CCE9002210D0244B0EF1010E03EBAC
:10212000CE03CEF5007E03EBCE0E0EF1080E083383
:1021300043E9022208339E45FAD1FFF77FFDF8B14B
:102140000123164A13704FF4C771194800F034FE8A
:10215000002898D00021174A1368013313600F4BF1
:10216000197090E79DF80830002BECD1124A0B70E3
:10217000136803F50073136085E7237017B0F0BD93
:102180000D4A136803F5007313607CE701D100204A
:10219000B8350020F04902005C7B002003D100200C
:1021A000F08C0020547B0020543B0020607B0020FA
:1021B000608B0020F88C0020FC8C00200C4B0D491B
:1021C0001B680D4A003B18BF01230978126810B440
:1021D000DFF830C0017042600849094ADCF800406D
:1021E000096812688460C0E9031210BC437070472C
:1021F0005C7B002001D10020F48C0020F08C0020BA
:10220000F88C0020FC8C0020124B1968EFF3108230
:1022100072B6D1E8CFCF0120BCF1000FF9D1C1E8EF
:102220004C0FBCF1000FF4D1BFF35F8F0A495A6025
:10223000088840B10949487928B10878A0F103001D
:10224000B0FA80F0400900211B68C3E88F1F82F3B9
:10225000108870470C8D0020D2D000202C2E00203A
:1022600038B54FF44C7200211A485BF069FE4FF00C
:10227000FF30002300220021174C184D20602860F9
:10228000174C1848C4E900230170174C1748C4E9DB
:102290000023C0E900233F2215485BF051FE154B97
:1022A0001868EFF3108272B6D0E8CF5F0124002DDA
:1022B000FAD1C0E8454F002DF6D1BFF35F8F002162
:1022C0000D485A6001811B68C160C3E88F1F82F30B
:1022D000108838BD148D0020282E0020242E0020C8
:1022E000E83500200BD10020D8350020C035002073
:1022F000489000200C8D00202C2E00201A4A1368D4
:10230000032B24D90268194BC3F812208288DA8281
:10231000174B1968EFF3108272B6D1E8CFCF0120C6
:10232000BCF1000FF9D1C1E84C0FBCF1000FF4D1A2
:10233000BFF35F8F4FF0010C0E485A6000211B68FD
:1023400080F807C0C3E88F1F82F31088704703EB43
:10235000430C013305491360036841F81C3083883E
:1023600001EB4C018B80D3E7A090002088900020E7
:102370000C8D00202C2E00202DE9F0414F4D2C68B3
:10238000002C5BDBFFF740FF002857D04C4E336832
:10239000002B5BDB04F0EEFB002951D1494BA3FB82
:1023A000003080090021484BD3E90042A04271EB84
:1023B000020243D34FF4CC744FF0FF303268434FE6
:1023C000306004FB0272002082F894110021C3E9FE
:1023D00000012C684FF4CC7808FB04F23C4BB91890
:1023E0001888D1F890310132013B91F88E113A44AE
:1023F0009BB21CF0B3F808BB336834608342A4BFBF
:1024000008FB037383F894014FF0FF332B6004F053
:10241000B1FBE9B14FF47A7200235BF039FD4FF460
:10242000CC73002203FB047393F88E3104302649E9
:1024300042F10002362B08604A600ED0BDE8F08100
:102440004FF47A7200235BF023FDABE71F4FC1E727
:102450001C4BA3FB00308009E1E71E4C2368EFF31F
:10246000108272B6D3E8CF0F01210028FAD1C3E859
:10247000401F0028F6D1BFF35F8F40F20111164BC9
:102480006260DA6819810132DA6004F073FB79B1B5
:102490004FF47A7200235BF0FBFC00230F4A2168A3
:1024A000C2E90003C1E88F3F636883F31088C5E782
:1024B000044BA3FB00308009EFE700BF242E00206F
:1024C000282E0020D34D6210E8350020148D002006
:1024D000D2D000200C8D00202C2E0020C0350020F2
:1024E000354BF0B51B680021002B0CBF4FF4CC75A9
:1024F00000250646314C95B04FF4C77205EB040039
:1025000014BF0F4601275BF01BFD2D4B68461A7860
:10251000511C197002F00F02314603F0B5F84E223B
:10252000694628195BF0D0FC4FF4CC7301213120AF
:102530004E2203FB074383F88E0183F89411214D4B
:10254000F17A2F60C3F8902139B12F22012A06F1C8
:102550000C012BDD1C485BF0D7FC3378E3B11A4D3E
:102560000DF103040DF133072E4620686168A2685F
:10257000E3681034BC420FC605F11005F4D12068A1
:102580006168A268A689A37B07C52E80AB70FFF7A0
:10259000F3FE012015B0F0BDF378002BDFD1F37905
:1025A000002BDCD1737A002BF1D0D8E7D5D1064BC4
:1025B000327B1A70D1E700BF282E0020148D002036
:1025C00008D10020242E00204890002000000000A8
:1025D0004B4B1B78002B4CD04A4B1B78002B48D020
:1025E000494B1B78002B44D1484B1B78002B40D122
:1025F000474B1B88002B3CD1464A10B5D2E900322C
:1026000013430ED004F0B6FA002967D1424BA3FB66
:102610000030800900233F4AD2E9001288429341EA
:1026200026D3082015F010FD3C4B1A6810BB9FED17
:10263000327B384981ED007BEFF3108172B6D2E82E
:10264000CFEF5FF0010CBEF1000FF8D1C2E84ECF22
:10265000BEF1000FF3D1BFF35F8F0122304C596000
:10266000E270294C1B682270C3E88F0F81F3108839
:1026700010BD70474FF0010C2A4981F800C0EFF3FC
:10268000108172B6D2E8CF4F5FF0010E002CF9D165
:10269000C2E844EF002CF5D1BFF35F8FD3F800E020
:1026A00059601F4B1A6D83F848C0624483F8490093
:1026B0001A650023CEE88F3F81F3108804F05AFAA0
:1026C00091B9154BA3FB003080090023114A10F586
:1026D0007A7043F100031060536010BD4FF47A72BA
:1026E00000235BF0D5FB95E74FF47A7200235BF093
:1026F000CFFBEAE7AFF3008000000000000000001D
:1027000009D1002005D1002007D100200AD10020E6
:10271000D2D00020E0350020D34D62100C8D002077
:102720002C2E00200CD100202DE9F0436D4F0646E1
:102730003C78894683B094B9DFF8D481D8F800306A
:1027400093B1694D03E0D8F800309C420CD2294681
:1027500030460FF0F9F8013406350028F3D1DFF8E0
:10276000B48198F800301BB1002003B0BDE8F083BD
:102770005E4D2B78002B40F0B1805D4C2368EFF369
:10278000108272B6D3E8CF0F01210028FAD1C3E836
:10279000401F0028F6D1BFF35F8F00232B70554DEB
:1027A00021686260EB70C1E88F3F82F31088524A63
:1027B00030681380B288514E00903370ADF8042019
:1027C0002368EFF3108272B6D3E8CF0F01210028FF
:1027D000FAD1C3E8401F0028F6D1BFF35F8FEB6C3E
:1027E00062600133EB64B9F1000F02D06B6D01330D
:1027F0006B6500232168C1E88F3F82F310880121B7
:1028000068463D4A1BF01AF8002300283AD1002000
:1028100000213B4BC3E9000104F0ACF900292BD1A6
:10282000384BA3FB0030800942F21073364AC018BF
:102830004FF0000310604FF0010043EB03062168E6
:1028400088F800005660EFF3108272B6D1E8CF7FAF
:102850000126002FFAD1C1E8476F002FF6D1BFF350
:102860005F8F2168626028712870C1E88F3F82F312
:10287000108803B0BDE8F0834FF47A7200235BF058
:1028800007FBD1E7012232702268EFF3108172B6A4
:10289000D2E8CFCF0126BCF1000FF9D1C2E84C6FCE
:1028A000BCF1000FF4D1BFF35F8F022285F84820FE
:1028B0002A6D85F849000132206861602A65C0E808
:1028C0008F3F81F31088114A3978C2E90033936051
:1028D00000293FF449AFFFF77BFE45E715F0D2FB37
:1028E0004BE700BF09D100208890002007D10020CD
:1028F0000C8D00202C2E0020D2D000200CD10020E6
:10290000C8350020D34D6210D0350020008D002046
:10291000A09000200AD100202DE9F04100220023E0
:10292000002551495148524E524FC0E90023C6E993
:1029300000230D70FFF794FC3B68EFF3108272B632
:10294000D3E8CF0F01210028FAD1C3E8401F0028A7
:10295000F6D1BFF35F8F484B484CDFF834811D80C0
:102960007A60D4E900321343A8F8045088F806507E
:102970003BD188F80250042388F800303A680023DD
:10298000C2E88F3F7A6882F310883D4A3D49C2E928
:10299000003393600B70D4E90032134314D13A4BE7
:1029A0001B68002B55D004F0E5F800294CD04FF4FB
:1029B0007A7200235BF06CFA0023FA3043F10003D3
:1029C00030607360BDE8F08104F0D4F8B1BB2F4BE8
:1029D000A3FB003080090023D4E900128842934110
:1029E000DDD2BDE8F041FFF7F3BD04F0C3F8F9B95B
:1029F000264BA3FB003080090021236862689842BF
:102A0000914134BF01210021134388F80210B2D054
:102A100004F0B0F819B34FF47A7200235BF038FA7F
:102A2000D4E90012002388429341A4D20223A3E7F1
:102A30004FF47A7200235BF02BFADDE74FF47A72E1
:102A400000235BF025FAC6E7104BA3FB003080099A
:102A5000B2E700220023C6E90023BDE8F0810B4B5A
:102A6000A3FB00308009DBE70AD10020D03500202D
:102A7000C83500200C8D0020D2D00020F035002079
:102A8000008D00200CD10020A0900020D34D6210BA
:102A90002C2E002008B5104B1A7802B108BD0F4843
:102AA00003F084FB01220C4B0D491A700A8016F0CA
:102AB00077FC4FF400610B481AF03AFE0A481AF00E
:102AC00057FE0A48084B436010F04CFEBDE8084032
:102AD000012014F05DBF00BF06D100200C8D002046
:102AE0002C2E0020AC900020412F0010A49000203C
:102AF00070B540F6B734531E9BB2A34290B003D9D1
:102B00000024204610B070BD0C4605461646002134
:102B100038220DF107005BF013FA4FF00103274A4A
:102B20008DF8055011688DF804308DF80640EFF3EC
:102B3000108372B6D1E8CF4F0120002CFAD1C1E842
:102B4000440F002CF6D1BFF35F8F116853601C4A0D
:102B500012882AB11B4A547914B11278032A05D07D
:102B60000022C1E88F2F83F31088C9E70022C1E853
:102B70008F2F83F31088144B1B689342C0DA01A88F
:102B8000FFF7AEFC4FF00102104B1A7003F0F2FF9A
:102B900071B14FF47A7200235BF07AF90C49301866
:102BA0004FF00003086020465B414B6010B070BDE1
:102BB000084BA3FB00308009F0E700BF0C8D00201C
:102BC000D2D000202C2E0020242E00200BD100205B
:102BD000D8350020D34D621070B592B006460D4630
:102BE000144600213B2203A801935BF0A9F9019B45
:102BF000224A03F01F038DF81430012311688DF869
:102C000010608DF811508DF812408DF80F308DF84E
:102C10001330EFF3108372B6D1E8CFCF0120BCF1AF
:102C2000000FF9D1C1E84C0FBCF1000FF4D1BFF394
:102C30005F8F134811680088536010B111484279C2
:102C400042B90022C1E88F2F83F31088002210467A
:102C500012B070BD00780328F3D10020C1E88F0FB7
:102C600083F31088084B1B688342EFDA03A80192B4
:102C7000FFF736FC019A104612B070BD0C8D002093
:102C8000D2D000202C2E0020242E002010B592B08F
:102C900004463B22002103A85BF052F901221D4BA0
:102CA0008DF8164019688DF81520EFF3108272B672
:102CB000D1E8CFCF0120BCF1000FF9D1C1E84C0F12
:102CC000BCF1000FF4D1BFF35F8F1348196800887F
:102CD0005A6010B11148437943B90023C1E88F3FCE
:102CE00082F310880023184612B010BD0078032824
:102CF000F3D10020C1E88F0F82F31088084A1268D0
:102D00008242EFDA03A80193FFF7EAFB019B184622
:102D100012B010BD0C8D0020D2D000202C2E00202F
:102D2000242E002008B12F2902D000231846704716
:102D300000230122844630B593B0059306AC03937B
:102D40008DF81720049300F12005A646DCF800005A
:102D5000DCF80410DCF80820DCF80C300CF1100C66
:102D6000AC45AEE80F0004F11004EED1DCF8082009
:102D7000DCF80000DCF80410AEE80700BCF80C201A
:102D80009CF80E30AEF800208EF80230FFF73CFAC7
:102D900058B1084A1268002A07DA019003A8FFF721
:102DA0009FFB019B184613B030BD0023184613B09B
:102DB00030BD00BF242E0020F0B583B00D46044680
:102DC00002F0F4FCC1B211B1002003B0F0BD0191DA
:102DD000FFF71AFA0028F7D02F4B1B68002BF3DA05
:102DE0002E4B2F481B684FF4C772002B0CBF4FF4BB
:102DF000CC730023019918440CBF012600261F46FE
:102E00005BF09EF8012D03462A463FDD21465BF02C
:102E10007BF80346234C03F10D0CA6460CF1100C75
:102E2000BEE80F004CF8043C1F4B10349E454CF894
:102E3000100C4CF80C1C4CF8082CEED14FF4CC7351
:102E4000174A03FB0623BEE80700CCF80000CCF8C5
:102E50000410CCF808209EF80220BEF800108CF870
:102E60000E204FF03602ACF80C1083F88E214FF094
:102E70000102C3F89051084D83F894212E60FFF7AA
:102E80007BFA2868801B18BF01209EE7C2D12278F8
:102E90000349CA55BEE700BF242E0020282E00207B
:102EA000148D002048900020789000202DE9F041FA
:102EB0001F4C05462368EFF3108672B6D3E8CF1F88
:102EC00001220029FAD1C3E8412F0029F6D1BFF32E
:102ED0005F8F5822174966605AF0F6FF164B22683A
:102EE000D3E900100023C2E88F3F86F310886B7A85
:102EF00023B151EA000304D100236B722846BDE8D8
:102F0000F0810F46804603F035FE61B14FF47A72CE
:102F100000235AF0BDFFC01B68EB4803FB2873F188
:102F20000003E9D2EAE7054BA3FB00308009F2E792
:102F30000C8D00202C2E0020C0350020D34D6210B7
:102F4000042800D07047002AFCD02DE9F0471C4629
:102F5000134612789CB0602A00F0B48010D8162A6C
:102F600000F08B81332A00F06181072A05D1A24A43
:102F70001546927A002A40F0B8811CB0BDE8F0876F
:102F8000DD2A00F00381EF2A00F0DE80DC2AF4D194
:102F90009A4A1278002AF0D0994A1278002AECD185
:102FA0001A7C002A40F057865A7E002A00F08B8552
:102FB0009C7E082C40F2878503F11B02164603F124
:102FC000130EA64412F8011B01F12000C0B2A1F1BA
:102FD000410CBCF1190F98BF0146642940F04785A8
:102FE000117801F12000C0B2A1F1410CBCF1190F20
:102FF00098BF0146752940F03A85517801F12000CB
:10300000C0B2A1F1410CBCF1190F98BF0146612972
:1030100040F02D85917801F12000C0B2A1F1410C62
:10302000BCF1190F98BF01466C2940F02085D1787A
:1030300001F12000C0B2A1F1410CBCF1190F98BF01
:103040000146732940F01385117901F12000C0B2C7
:10305000A1F1410CBCF1190F98BF0146652940F060
:103060000685517901F12000C0B2A1F1410CBCF1FB
:10307000190F98BF01466E2940F0F984917901F14A
:103080002000C0B2A1F1410CBCF1190F98BF01465C
:10309000732940F0EC84D17901F12000C0B2A1F194
:1030A000410CBCF1190F98BF0146652940F0DF843F
:1030B00006A9981C06220EF09BFC002106A8FFF72B
:1030C00033FB5AE79C78022C00F0D081002C7FF46F
:1030D00054AF002200234B494B480C704749C0E9CC
:1030E00000230C70464949480C704949C0E9002347
:1030F0000C8048490C804849C1E900234749C1E98F
:103100000023FFF7ADF83C4A454BC2E9004419687B
:103110009460EFF3108272B6D1E8CFCF0120BCF1FA
:10312000000FF9D1C1E84C0FBCF1000FF4D1BFF38F
:103130005F8F3C4918685A60C1F801400C70C0E8C4
:103140008F4F82F3108818E79A78013A0C2A3FF6DD
:1031500014AF01A151F822F0813700104B36001056
:10316000013600107B2F00107B2F00107B2F0010EA
:103170007B2F00107B2F00107B2F00107B2F001067
:1031800091350010BD39001069390010244A1368C8
:10319000EFF3108172B6D3E8CF4F0120002CFAD1A3
:1031A000C3E8440F002CF6D1BFF35F8F00231E4C01
:1031B0001C48516023701268C370C2E88F3F81F3CE
:1031C00010880E4B1B78002B3FF4D7AE0C4B1B78AE
:1031D000002B7FF4D2AE084A937A15461BB1D37AFE
:1031E000002B00F054850023C5E90033AB601CB010
:1031F000BDE8F047FFF7ECB9008D002009D10020B1
:103200000AD1002005D10020F0350020D035002063
:10321000D2D00020D0D00020C8350020E0350020DA
:103220000C8D00202C2E002007D100208A4C062275
:1032300006A9981C0F460EF0DBFBD4E900321343BD
:1032400040F0F880854C2368002B00F09684002322
:10325000834903E02268934280F08F843846CDE9A9
:1032600000130EF071FB019B009901330631002819
:10327000F0D1384614F0ACFF7FE6774C062206A961
:10328000981C0F460EF0B4FBD4E9003213431BD157
:10329000724C2368002B00F06B840023704903E01C
:1032A0002268934280F064843846CDE900130EF022
:1032B0004BFB019B0099013306310028F0D13846C1
:1032C000684914F03FFF58E603F054FC002900F071
:1032D00074844FF47A7200235AF0DAFDD4E90012B4
:1032E000002388429341D3D2E9E706A9D81C0622DD
:1032F00000930EF07DFB294606A80EF025FB002862
:103300007FF43BAE009B9A78002A40F02984092C78
:1033100040F2268403F10801A4F1090011F8014FDD
:10332000002C00F0F98401328242F7D1082840F2E3
:10333000178403F10902164603F1010C844412F8C4
:10334000011B01F1200E5FFA8EFEA1F14104192C40
:1033500098BF7146642940F0D883117801F1200E9E
:103360005FFA8EFEA1F14104192C98BF71467529B0
:1033700040F0CB83517801F1200E5FFA8EFEA1F16F
:103380004104192C98BF7146612940F0BE839178A1
:1033900001F1200E5FFA8EFEA1F14104192C98BFB5
:1033A00071466C2940F0B183D17801F1200E5FFAAB
:1033B0008EFEA1F14104192C98BF7146732940F08B
:1033C000A483117901F1200E5FFA8EFEA1F1410470
:1033D000192C98BF7146652940F09783517901F106
:1033E000200E5FFA8EFEA1F14104192C98BF7146A0
:1033F0006E2940F08A83917901F1200E5FFA8EFEEA
:10340000A1F14104192C98BF7146732940F07D83C6
:10341000D17901F1200E5FFA8EFEA1F14104192C41
:1034200098BF7146652940F0708300210E48FFF770
:103430007BF9A2E503F09EFB002900F0C4834FF462
:103440007A7200235AF024FDD4E900120023884246
:103450009341FFF40EAFF5E6F0350020A090002078
:1034600088900020DCE20510008D002000239FEDF5
:10347000867B0124864A0090C2E900339360854A26
:1034800085481370854A864982ED007B854B864AC4
:103490000470204682ED007B81ED007B83ED007B94
:1034A00014F0BEFB002014F081FB804814F088FD6E
:1034B00042F2085014F050FA052014F05BFA002094
:1034C00014F0BAFE032010F0F5FC002010F0FAFC16
:1034D000774AD2F800C0EFF3108072B6DCE8CF3F35
:1034E0005FF0010E002BF9D1CCE843EF002BF5D1B2
:1034F000BFF35F8FD2F800C0506000996D4A00237F
:10350000C2F801401170CCE88F3F80F310886A4AFE
:103510006A4CC2E90033C2E90233C2E90433684AA3
:1035200003A82360136003930FF028FE002800F027
:103530002C830023CDE9073306930493ADF80A30BA
:10354000ADF81430099306AF2368032B00F21A83F9
:103550003A460DF10A0304A903A80FF01BFE002848
:1035600000F0108323687BB10023534904A8CDE900
:1035700000130EF0E9F9019B009901330631002890
:10358000E2D022689342F1D304A8FEF7B7FEDBE74E
:103590005B79002B3FF4F1AC4A4A118800293FF4D3
:1035A000ECAC4FF0010C484C414884F800C0016875
:1035B000EFF3108472B6D1E8CFEF5FF0010CBEF1EB
:1035C000000FF8D1C1E84ECFBEF1000FF3D1BFF329
:1035D0005F8F4FF0050C3749446081F849300B6D1F
:1035E000006801330B6581F848C00023C0E88F3FB5
:1035F00084F3108810881CB0BDE8F0471AF0A0B919
:10360000184603210EF0AAF9304B1A88824200F0C6
:103610004C832C4B1B8813B198427FF4AEAC06A8A8
:10362000FFF744FC284B9A461B784BB99DF81C3099
:10363000002B40F0CD839DF81830012B00F0C8839B
:103640001CB0BDE8F047FFF767B95D79002D40F089
:10365000BF820321184600930EF080F9044606222B
:103660001849009B0C80154C981806A90695ADF8D2
:103670001C500EF0BDF9236806AF002B00F042830A
:103680002B460D4928E000BF0000000000000000AC
:10369000008D002009D1002005D10020D035002068
:1036A000F0350020C8350020E0350020C8E20510C4
:1036B0000C8D00202C2E002088900020A09000204F
:1036C00044900020D2D000200CD10020D0D0002087
:1036D0002268934280F016833846CDE900130EF03D
:1036E00033F9019B0099013306310028F0D1002005
:1036F0000021914BC3E9000103F03CFA002900F0DE
:1037000005834FF47A7200235AF0C2FB84460023EB
:1037100042F21070894A8A498A4D8B4C13701CEB17
:10372000000243EB03000A604860A8462968236052
:10373000EFF3108272B6D1E8CF4F0120002CFAD1FE
:10374000C1E8440F002CF6D1BFF35F8F7F49804C56
:103750000E460B71D4E9001001436A6040F0E48228
:103760000021B3700123D8F80000A6F805103370CB
:10377000C0E88F1F82F31088FEF772FDFFF7FDBBD4
:103780000321184600930EF0E9F8009B8146597B0F
:1037900000297FF4F2AB6E4C0622581D0691ADF85D
:1037A0001C1006A90EF024F9D4E90032134306AF29
:1037B00040F0FB82674C2368002B00F03A83002323
:1037C000654903E02268934280F033833846CDE9AF
:1037D00000130EF0B9F8019B00990133063100285F
:1037E000F0D15E490B78002B40F01983554805460F
:1037F00080460368EFF3108272B6D3E8CFCF012082
:10380000BCF1000FF9D1C3E84C0FBCF1000FF4D1AB
:10381000BFF35F8F00234D4E0B706A602968F37011
:10382000C1E88F3F82F310884D4A924613702A6890
:10383000EFF3108172B6D2E8CFCF0120BCF1000FB8
:10384000F9D1C2E84C0FBCF1000FF4D1BFF35F8F88
:10385000F26C69600132F2642A68C2E88F3F81F33A
:10386000108801213F4A2868A2F80090334A11705D
:10387000EFF3108272B6D0E8CFEF5FF0010CBEF12B
:10388000000FF8D1C0E84ECFBEF1000FF3D1BFF367
:103890005F8F31716A602968C1E88F3F82F31088B9
:1038A0002268002A00F055822B4903E022689342E7
:1038B00080F04F823846CDE900130EF045F8019BA9
:1038C0000099013306310028F0D10121484619F052
:1038D00055FF002840F0418203F04CF94FF47A7212
:1038E000002900F0A38200235AF0D2FA034642F2E4
:1038F0001071002212485B18036042EB0203D8F8F3
:1039000000104360EFF3108372B6D1E8CF4F01206F
:10391000002CFAD1C1E8440F002CF6D1BFF35F8F21
:103920000120D8F80010C8F804303070C1E88F2F9B
:1039300083F31088FFF721BBC83500200AD100208F
:10394000D03500200C8D0020449000202C2E00202B
:10395000F0350020A09000208890002007D10020A2
:103960000CD10020D2D000205A79002A40F0A18149
:10397000DFF8B882AC4ED8F80010EFF3108272B6C0
:10398000D1E8CF4F0120002CFAD1C1E8440F002C20
:10399000F6D1BFF35F8FC8F804205B790021B3FA3A
:1039A00083F35B09D8F800007371C0E88F1F82F3BE
:1039B00010881CB0BDE8F047FEF7DEBC05211846B4
:1039C00000930DF0CBFF00283FF4D7AA009BDA79D3
:1039D000A12A00F0A481312A7FF4CFAA0246D91D82
:1039E00006A801F0D7FD914880460368EFF31084E4
:1039F00072B62546D3E8CF1F01220029FAD1C3E8C9
:103A0000412F0029F6D1BFF35F8F069B4460002B46
:103A100040F000820123032200200021DFF808E2A9
:103A20000DF11C0C8EF806308EF80830804B0EF12C
:103A30001004C3E900018EF80020BCE80F000FC499
:103A4000BCE80F000FC49CE80F0007C424F8023B39
:103A50001B0C2370DEF840300133CEF840300023D9
:103A6000D8F80020C2E88F3F85F31088A1E796457B
:103A70007FF4A8AA122C26D903F12D0526446D4CFB
:103A8000A5F1130C02E065453FF412AB1CF8012FC1
:103A9000217802F12000A2F1410EC0B2BEF1190F4F
:103AA00098BF024601F12000A1F1410EC0B2BEF163
:103AB000190F98BF0146914204F10104E3D06A1C3A
:103AC00096421546DBD15C4CA27A002A7FF455AAB7
:103AD0001846092100930DF047FF00F4F852B2F5A3
:103AE000A06F009B7FF449AA981C062221460DF086
:103AF0007FFF009B0C211A7A1846A2710DF02EFF51
:103B0000012320816381FFF738BA94457FF417AC15
:103B1000122825D903F11B020644464BA2F1130CCF
:103B200002E094453FF481AC1CF8011F187801F1C4
:103B30002004A1F1410EE4B2BEF1190F98BF214655
:103B400000F12004A0F1410EE4B2BEF1190F98BFBC
:103B50002046884203F10103E3D00132B242DCD1B6
:103B60000023C5E90033AB60FEF732FDFFF705BA6D
:103B7000384614F013FBFFF700BA384614F042FB46
:103B8000FFF7FBB903A80FF019FB2368002B43D004
:103B900000232A4A136002F0EDFF002956D04FF4AB
:103BA0007A7200235AF074F90023254AFA3043F15F
:103BB000000310605360FFF7E0B9224BA3FB003015
:103BC0008009FFF78BBB1F4BA3FB003080093BE450
:103BD00001201D49154A08701368EFF3108172B671
:103BE000D3E8CF4F0120002CFAD1C3E8440F002CBA
:103BF000F6D1BFF35F8F04240B4B106851601A6D30
:103C000083F8495001321A6583F848400022C0E821
:103C10008F2F81F3108813E5002200230849C1E9A2
:103C20000023FFF7AAB900BF2C2E00200C8D002026
:103C3000D0350020E4E20510008D002044900020E3
:103C4000C8350020D34D62100CD100207D4BA3FB62
:103C500000308009A8E71846132100930DF07EFE7E
:103C60001521044600980DF079FE40F24C52944222
:103C7000009B7FF499A940F6E64290423FF418AACF
:103C800040F6F25290427FF48FA9FFF711BA012358
:103C900012892846A97942F40042EB7214F030FAF6
:103CA00000283FF46AA9FFF79EBA00221A80FFF7A6
:103CB00064B90124644D6549A84628680C70EFF387
:103CC000108172B6D0E8CFCF0124BCF1000FF9D13A
:103CD000C0E84C4FBCF1000FF4D1BFF35F8F5C48DC
:103CE000696080F84920026D04460132026506468B
:103CF0000620002284F848002868C0E88F2F81F34E
:103D0000108838E63846FEF7F9FAF0E44D4BA3FB8D
:103D100000324FEA921CFAE41046FFF707BB012875
:103D20003FF42BA91A7A56E602F024FF4FF47A7278
:103D3000002978D000235AF0ABF80346002122680E
:103D400093426368D8F80420994134BF01230023CB
:103D500006E53846FEF7D2FAB7E50122D8F800307A
:103D60008AF80020EFF3108272B6D3E8CF4F01211A
:103D7000002CFAD1C3E8441F002CF6D1BFF35F8FAB
:103D80000324336DD8F8001001333365C8F80420DC
:103D9000002386F8490086F84840C1E88F3F82F347
:103DA0001088FEF7B9FDFFF7E8B802F0E3FE4FF424
:103DB0007A72002942D000235AF06AF80346D4E907
:103DC0000001002283428A41BFF4F4AC214C08E593
:103DD00001221D498AF800200B68EFF3108072B6AB
:103DE000D3E8CF4F0122002CFAD1C3E8442F002C96
:103DF000F6D1BFF35F8F0824154B48601A6D096830
:103E000001321A65A3F848400022C1E88F2F80F3E1
:103E1000108815E40E4A536C013353641FE614F006
:103E200031F90D49E2E4B0FBF2F387E7B0FBF2F3BE
:103E30005DE5484619F0C8FCFFF79FB8B0FBF2F308
:103E4000BDE700BFD34D62100C8D00200CD10020C7
:103E50002C2E0020A090002007D1002030B5564B1A
:103E600097B01C7814B1554B1C7814B9204617B084
:103E700030BD02F07FFE002964D1514BA3FB00301E
:103E8000830900224F49DFF864C15B18CCF8003089
:103E90004D4B4FF00100C3E901221A6042F10002CC
:103EA0000023CCF804200022484D49492870494D90
:103EB000C1E90023C5E9002313F0B2FE012013F08D
:103EC00075FE6846FEF7F2FF4349088840B19DF849
:103ED00000C0BCF1030F03D09DF80650002D38D070
:103EE0003E4B3F4AD3F800C0EFF3108072B6DCE8D7
:103EF000CF5F5FF0010E002DF9D1CCE845EF002D2A
:103F0000F5D1BFF35F8F4FF0010C82F802C092F839
:103F100000C05860BCF1030F18BF4FF0020C1B68C3
:103F200018BF82F800C00022C3E88F2F80F31088EA
:103F30000B88002B9AD12B4B1B78002B96D1FEF7C8
:103F400047FB93E700234FF47A7259F0A1FF034631
:103F500097E7DFF89CC0ACF8000019F0F1FC0022F4
:103F6000002320481C4905701F480D80C0E900232C
:103F7000FEF776F9194B1A68EFF3108072B6D2E8A3
:103F8000CFEF5FF0010CBEF1000FF8D1C2E84ECFC9
:103F9000BEF1000FF3D1BFF35F8F4FF0020C104A58
:103FA000196858609580957182F800C0C1E88F5FEC
:103FB00080F31088084995E706D1002005D100203C
:103FC000D34D6210E0930400008D002009D1002041
:103FD000E0350020C8350020D2D000200C8D002014
:103FE0002C2E00200AD10020D0350020F0350020F2
:103FF000D0D0002000000000814B1B78002B00F087
:10400000DC8070B57F4C96B0D4E90032134300F0E9
:10401000BC8002F0AFFD002900F0B3814FF47A724A
:10402000002359F035FFD4E900120023884273EBD6
:104030000202C0F0C9809FED707B734A73497448D7
:10404000C2E90033037093600B7884ED007B002B92
:1040500040F0AC816F4C2368EFF3108272B6D3E866
:10406000CF5F0120002DFAD1C3E8450F002DF6D116
:10407000BFF35F8F0025684B206862600D70DD70B4
:10408000C0E88F5F82F31088284613F08FFD216807
:10409000EFF3108272B6D1E8CFCF0120BCF1000F50
:1040A000F9D1C1E84C0FBCF1000FF4D1BFF35F8F21
:1040B000594B626019789D70022901D10421197051
:1040C00000232168C1E88F3F82F31088534CD4E964
:1040D0000032134364D002F04DFD00296ED1504BE5
:1040E000A3FB003080090023D4E9001288429341E9
:1040F00056D36846FEF7DAFE9DF80630002B40F0F6
:104100004A81484A118800294AD0002000214FF0F6
:10411000010CC4E90001444D3E4885F800C0016827
:10412000EFF3108472B6D1E8CFCF0125BCF1000FB8
:10413000F9D1C1E84C5FBCF1000FF4D1BFF35F8F40
:104140000568446007203449A1F84800086D013033
:104150000865C5E88F3F84F31088108819F0F0FBDC
:104160001EE0324B1B78002B40D002F003FD0029EB
:1041700000F0A8804FF47A72002359F089FED4E948
:10418000001200238842934105D3294CD4E9003220
:10419000134340F09C80214CD4E9003213439AD160
:1041A000244C237823B1244DD5E90032134345D163
:1041B00016B0BDE87040FEF7DFB870474FF47A7272
:1041C000002359F065FE8EE702F0D4FC002974D07C
:1041D0004FF47A72002359F05BFED4E900210023EA
:1041E00090428B41BDD30A43CFD0BEE7FEF7F0F932
:1041F000D1E700BFAFF30080000000000000000026
:1042000006D10020F0350020008D002007D10020CD
:1042100009D100200C8D00202C2E0020D03500204C
:10422000D34D6210D2D000200CD100200AD1002042
:10423000C83500200BD10020D835002002F09AFCB0
:10424000002900F0A3804FF47A72002359F020FE79
:10425000D5E9002390424FF0000272EB0303A7D38D
:104260003A2200210DF1010059F06AFE01225E4B55
:104270008DF800201968EFF3108272B6D1E8CFCF25
:104280000120BCF1000FF9D1C1E84C0FBCF1000FC7
:10429000F4D1BFF35F8F55495A6009881B6831B16B
:1042A0005349487918B10978032900F08380002127
:1042B000C3E88F1F82F310887AE74E4BA3FB0030D0
:1042C00080098AE74B4BA3FB0030800957E702F0D7
:1042D00051FC002964D1474BA3FB00308009002327
:1042E000D4E9001288429341FFF455AF424B1B784A
:1042F000002B7FF450AF3D4B1B88002B7FF44BAF5E
:10430000002000213D4BC4E900011B78002B3FF445
:1043100042AF3B4B1B78002B7FF43DAF394D3A4BFE
:104320002A681B68934218D2384803EB430200EB1B
:10433000420150F81200344E8A8800900133012166
:104340006846ADF804203360FEF7EEF900287FF4EC
:1043500022AF33682A689342E6D302F00BFC0029AF
:104360003DD000234FF47A7259F092FD03460022AB
:1043700013F5FA63236042F100036360224B1A6075
:1043800009E71C4BA3FB003080094CE6194BA3FB4B
:10439000003080095CE700220023C4E90023FFE627
:1043A0004FF47A72002359F073FD98E713F06AFE18
:1043B00017494FE60021C3E88F1F82F31088154B81
:1043C0001B688B42BFF6F4AE6846FEF789F8002200
:1043D00000234FF00001C5E900232170E8E64FF407
:1043E0007A72B0FBF2F3C2E70C8D0020D2D000202D
:1043F0002C2E0020D34D62100AD1002005D10020C0
:1044000009D10020A0900020449000208890002036
:1044100007D10020242E0020D0E90010884239D096
:104420004FF0FF3300B51C4A1944184411F801EF4E
:104430008EEA030E4EF300034EF3400C134083EA62
:104440005E030CEA020C8CEA530C43F340034CF37A
:10445000400E134083EA5C030EEA020E8EEA530E0E
:1044600043F340034EF3400C134083EA5E030CEA2F
:10447000020C8CEA530C43F3400313404CF3400E00
:1044800083EA5C0381420EEA020C8CEA5303CDD12D
:10449000D84300BD002070472083B8ED2DE9F043DC
:1044A000D1E90232D61A302E054683B007DD00234B
:1044B000C0E900338360284603B0BDE8F0834020A4
:1044C0000F46019304F06EFC3E22044600210230A8
:1044D00059F036FD44F64D4222803A68019BC4F8FB
:1044E00002203A79E671A271002E46D0721E052A8A
:1044F00040F2A780C3F108022244022A40F2A180C0
:104500001A68C4F80920B208012A00F0A580596889
:10451000022AC4F80D1000F082809968032AC4F8BA
:1045200011107CD0D968042AC4F8151077D0196905
:10453000052AC4F8191072D05969062AC4F81D104A
:104540006DD09969072AC4F8211068D0D969082A62
:10455000C4F8251063D0196A092AC4F829105ED05E
:10456000596A0A2AC4F82D1059D0996A0C2AC4F83D
:10457000311054D1DB6AC4F8353006F109073846EA
:1045800004F010FC214606463A46814659F09CFC50
:104590004FF0FF3306EB070C32499C44F01810F83B
:1045A000016F5E4046F3000E0EEA010E46F3400333
:1045B0008EEA560E0B4083EA5E034EF3400E0EEA7F
:1045C000010E8EEA530E43F340030B4083EA5E0371
:1045D0004EF3400E0EEA010E8EEA530E43F34003F3
:1045E0000B4083EA5E034EF3400E0EEA010E8EEAA4
:1045F000530E43F340030B40604583EA5E03CED184
:10460000DB434846E351394604F0D0FB284604F129
:104610004003C5E901332C6003B0BDE8F083B10766
:1046200026F00302A9D0985CA1184872501C86425B
:10463000A3D9185C0232964288729ED99B5CCB72D9
:104640009BE7013B04F10802F01813F8011F8342B5
:1046500002F8011FF9D190E71A790520627304224C
:10466000A118E6E72083B8ED0346002201202DE9DA
:10467000F04182B0C3E90122C3E903221A605A6102
:104680001871D1E90042121B3F2A187204DC18602D
:10469000184602B0BDE8F081402A05D00522184630
:1046A0001A6002B0BDE8F08122784D2A05D00222BE
:1046B00018461A6002B0BDE8F08162784C2AF6D143
:1046C000A278012A02D003221A60E1E7B4F8072099
:1046D000302A174602D904221A60D9E7A118887A2D
:1046E0004A7A009342EA0022C87A097B42EA0042F1
:1046F00007F1090042EA016804F054FB07F10902DE
:104700000646214659F0E0FB4FF0FF3207F109035E
:1047100006EB030E3248009B964406EB020C1CF895
:10472000011F514041F30002024082EA510241F36D
:104730004001014081EA520142F34002024082EA14
:10474000510241F34001014081EA520142F340022B
:10475000024082EA510241F34001014081EA5201E4
:1047600042F34002024082EA510241F3400101401B
:10477000F44581EA5202D2D1304607F10901CDE970
:10478000002304F013FB009A019BD243904502D012
:1047900006221A607CE704F10C0139440A4611F83C
:1047A000010F00287FF47AAF3E3AA242F6D1E278B8
:1047B0005A71A288DA80A2791A72002F3FF468AF8A
:1047C0003846009304F0EEFA06463A4604F1090131
:1047D00059F07AFB009BF219C3E903625A6157E76B
:1047E0002083B8ED10B50446A446DFF818E0BEE813
:1047F0000F00ACE80F009EE807008CE80700204699
:1048000010BD00BFA02B061070B50B780446012B1D
:104810003ED1D1ED017A9FEDC07AF0EEE76AF4EE79
:10482000476AF1EE10FA0DD8B7EE007AF4EEC77AC7
:10483000F1EE10FA06D4B0EE007AF4EEC77AF1EE9B
:1048400010FA2FDD00222120227004F0ABFA202381
:104850008646DFF8D8C200228EF82020C4E9023351
:10486000BCE80F00C4F804E0CEF80000CEF8041055
:10487000CEF80820CEF80C30BCE80F00CEF81000BF
:10488000CEF81410CEF81820CEF81C30204670BD9B
:1048900000222120227004F085FA20238646DFF8CA
:1048A00090C2D8E791F90830002B26DB91F9093046
:1048B000002B22DB8B7A072B3ED8CB7A3C2B5CD8A3
:1048C0000B7B022B7ED84B7B103B6F2B00F2A18021
:1048D0008B7B022B00F2C5804B7D0A2B00F2E68019
:1048E0000B7E012B00F20D8103460121002203F80B
:1048F0000C1BC0E901320273C8E7002219202270A4
:1049000004F050FA182386460022DFF828C2027607
:10491000C4E902336060BCE80F00CEF80000CEF8B6
:104920000410CEF80820BCE80300CEF80C30CEF816
:104930001000CEF81410A9E700221D20227004F008
:1049400031FA1C2386460022DFF8ECC10277C4E965
:1049500002336060BCE80F00CEF80000CEF804100F
:10496000CEF80820CEF80C30BCE80700CEF81000D6
:10497000CEF81410CEF8182088E7002322202370E8
:1049800004F010FA212306468646644D6060E36019
:10499000AC460EF1100EBCE80F004EF8043C604B24
:1049A00010359C454EF8100C4EF80C1C4EF8082C97
:1049B000EED12B7821228EF800300023A26086F8F9
:1049C000213063E700221C20227004F0EBF91B2346
:1049D00086460022DFF864C1C276C4E90233606013
:1049E000BCE80F00CEF80000CEF80410CEF80C3072
:1049F000BCE80300BCF80030CEF80820AEF8183050
:104A00009CF80230CEF81000CEF814108EF81A3050
:104A10003CE700232720237004F0C4F92623064630
:104A20008646404D6060E360AC460EF1100EBCE877
:104A30000F004EF8043C3C4B10359C454EF8100CD2
:104A40004EF80C1C4EF8082CEED1AB882622AEF89E
:104A5000043000232868CEF80000A26086F82630D3
:104A600014E700221F20227004F09CF91E238646C2
:104A70000022DFF8CCC08277C4E902336060BCE872
:104A80000F00CEF80000CEF80410CEF80820CEF8C3
:104A90000C30BCE80700BCF80030CEF81000CEF8AF
:104AA0001410CEF81820AEF81C30EFE600222020BB
:104AB000227004F077F91F238646DFF888C00022B1
:104AC0008EF81F20C4E90233BCE80F00C4F804E0EC
:104AD000CEF80000CEF80410CEF80820CEF80C3046
:104AE000BCE80700BCF80030CEF81000AEF81C306F
:104AF0009CF80230CEF81410CEF818208EF81E3034
:104B0000C4E600222020227004F04CF91F238646C0
:104B1000DFF834C0D3E700BFFFFF7F7F7CE30510E1
:104B20009CE30510BCE30510DCE305101CE3051055
:104B3000F8E2051040E305105CE30510A0E3051062
:104B4000E4E3051004E4051024E405109FED247A45
:104B5000D1ED017A67EE877A0023FCFEE77A91F8BF
:104B600010C04A7C4FEA4C0C4CEA820CCA7B00B560
:104B700042EA0C0291F800C0C0F80B30C0F80F30C8
:104B8000C0F81330C3756CF3070391F812C091F8A5
:104B900016E042EACC0291F813C042EA0C1291F8F6
:104BA00014C042EA4C1242EA8E128272D1F80920F5
:104BB00091F808C04260B1F80D2002814A7D02736D
:104BC000CA7D42730A7E827317EE902A62F30F2326
:104BD000C2F3072262F317436CF31F63036000BD47
:104BE0000000C8422DE9F041D1E900E3A3EB0E0338
:104BF0000E2B074688B026DC002323203B7004F0F0
:104C0000D1F82223844605464D4E786006F1200EE9
:104C1000FB60344610350FCC744506F1100645F89C
:104C2000100C45F80C1C45F8082C45F8043CF0D154
:104C3000338822222B8038460023BA608CF8223039
:104C400008B0BDE8F08101AD94462C463D4EDFED45
:104C50003E6A0FCE0FC596E8070085E807000FCC27
:104C6000CCF80000CCF80410CCF80C3003CC23783E
:104C7000CCF80820CCF81000CCF814108CF81830C0
:104C80009EF800304FF000088CF80030BEF801307C
:104C9000384607EE903AF8EEE77A87EEA67A8CED82
:104CA000017A9EF8033061468CF808309EF8043093
:104CB0008CF809309EF805308CF80A309EF80630E2
:104CC0008CF80B309EF807308CF80C309EF80830CA
:104CD0008CF80D309EF809308CF80E30BEF80A3092
:104CE00003F0010262F30708C3F3400262F30F28E6
:104CF000C3F3800262F31748C3F3C00262F31F6874
:104D0000C3F300128CF81320C3F34012C3F38013D3
:104D1000CCF80F808CF814208CF816309EF80C30EC
:104D20008CF815309EF80D308CF817309EF80E3048
:104D30008CF81830FFF768FD384608B0BDE8F08100
:104D400044E40510A02B06100000C842F0B5D0E9DD
:104D50000034A4EB030CBCF13F0F91B068DD93F875
:104D600000C0BCF14D0F63D193F801C0BCF14C0FF2
:104D70005ED193F802C0BCF1430F59D193F803C040
:104D8000BCF1460F54D104460646202015460F4676
:104D9000019304F007F8CDE90200019B00F1200225
:104DA0000492D3F800E0D3F804C099680392DA685B
:104DB000C0F800E0C0F804C08160C2609969DA6997
:104DC000D3F810E0D3F814C0C0F810E0C0F814C055
:104DD0008161C26193F8222093F82110120442EA03
:104DE000012293F8201093F823300A4342EA036328
:104DF00002A80193FFF710FB019B83420BD0002315
:104E0000029828B104990193091A03F0CFFF019B7E
:104E1000184611B0F0BD216801F1230301F13F02F2
:104E200001E0934208D013F8010F0028F9D0E6E71B
:104E30000023184611B0F0BD1820019103F0B2FF15
:104E4000019900F1180ECDF820E00690D1F808C0C5
:104E5000CB680C69CDF81CE0D1F814E0C0F800C0B4
:104E600043608460C0F80CE0CB69D1F818C02A46D2
:104E70004361C0F810C006A909A8FFF7B3FE9DF86A
:104E800024305BB131684A798879120242EA0042E3
:104E90000879C979024342EA01623A600A980CAA89
:104EA000904205D00C990193013103F07FFF019BE3
:104EB00006980028A4D008990193091A03F076FFF8
:104EC000019B9DE710B5044640F8041BFFF78AFCE0
:104ED00004F12000FFF786FC0023C4E910332046CC
:104EE00084F83C3010BD00BF2DE9F0430025044696
:104EF000006899B00368CDE904559B6804A906953C
:104F0000984720B1DDE904239B1A7F2B2DDC11A8E3
:104F1000FFF768FC00230DF1440C84F83C30BCE83A
:104F20000F006060A16061682361A3682162E26094
:104F3000BCE803009CF8002063626061A161002668
:104F4000E36820696169A362A36921632277E06253
:104F5000636384F83820049818B10699091A03F09D
:104F600025FF304619B0BDE8F0830AA8FFF73AFCE8
:104F7000A9462E46049B402003EB8513009303F0C3
:104F800011FF07460246009B00F14001079009917E
:104F900003F1400818681033009053F80C0C1032DD
:104FA0000190009853F808EC53F804CC42F8100C28
:104FB0000198434542F80C0C42F808EC42F804CC46
:104FC000E8D10023DFF8CCE00DF1440C0891039305
:104FD000BEE80F00ACE80F009EE807008CE8070071
:104FE00011AA03A907A8FFF7B1FE28BB3846402144
:104FF00003F0DCFE6B1C022B4FF00105BAD196B317
:1050000000230AAD2F4684F83C300FCD6060A160CC
:10501000236103CD2B78E2606061A161237784F87E
:105020003830C4F844900FCF20626162A26203CF8F
:10503000E362206361638EE7039B8EB90DF1280C58
:105040000DF1440E99460646BEE80F00ACE80F008D
:105050009EE80700ACE8030025648CF80020C5E753
:105060004B45C3D9EAE711A811ADFFF7BBFB0FCD44
:105070006060A16023616168A3682162E26003CD82
:10508000C4E910662A7884F83C6063626061A161BB
:1050900055E700BFBC2B061030B50C4683B0114657
:1050A00000900192FFF7B0FB00980378ABB14FF08E
:1050B000010C019A116853689568D2F80CE02162DE
:1050C0006362A562C4F82CE05369116963632163CC
:1050D000137E84F83CC084F8383003B030BD00BF84
:1050E0002DE9F04390F83C30A9B023B901242046C3
:1050F00029B0BDE8F08300F12001054600F120074A
:105100000AA8FFF781FB9DF82840002C00F0E780FB
:105110006B6C2022002120A85C1C58F011FF784BFA
:1051200005F1200111A8CDE91834FFF70FFD1AACE5
:105130000DF1440CBCE80F000FC49CE8030084E8A8
:105140000300202003F02EFE844600F1200318AC5B
:10515000CDE9083307900FCCCCF80000CCF8041050
:10516000CCF80820CCF80C300FCCCCF81000CCF8E0
:105170001410CCF81820CCF81C3007A8FFF74CF915
:105180002090079818B10999091A03F00FFE2B6CAB
:105190004020013303F0010803F004FE00F1400356
:1051A00084461E46019003930DF1600E74460CF187
:1051B000100C0FCC4CF8043C28AB9C420EF1100EA6
:1051C0004CF8100C4CF80C1C4CF8082CEED128684C
:1051D000414603680296DB6801AA98470446002806
:1051E00077D00022286804A903689B68CDE90422CF
:1051F00006929847049B0446002864D00599C91A72
:105200007F2979DD402003EB881403F0CBFD234692
:1052100000F14001814602460790099104F14000E7
:105220001C68D3F804E02646D3F808C0DC681033C5
:1052300083421660C2F804E0C2F808C0D46002F1EC
:105240001002EDD10023DFF8BCC011AC089100932F
:10525000BCE80F000FC49CE8070084E8070069461B
:1052600007A811AAFFF772FD044638B36B6C5E1CE9
:10527000009B9E4242D10DF1440CE646BCE80F0073
:105280006860A960BCE803009CF800C0EA602B617C
:105290006861A96185F81CC0BEE80F002862FB6048
:1052A0004FF000037960BA6087F818C0BEE80300C9
:1052B00038617961C5E9108685F83C30402148465F
:1052C00003F074FD049B23B106991846C91A03F034
:1052D0006DFD019818B10399091A03F067FD0B9849
:1052E0000DAB98423FF403AF0D99013103F05EFD21
:1052F000204629B0BDE8F0830024E4E70024DDE780
:105300004D4C4346BC2B061010B588B0044601A88E
:10531000FFF768FA01230DF1040C84F83C30BCE877
:105320000F0020626162A262BCE803009CF80020CA
:10533000E3622063616384F8382008B010BD00BFC9
:10534000F0B50D4683B016460021342204469DF880
:105350002070019358F0F4FD80222272FF2284F81D
:105360002C20624A626025B1019B03F13F02B242E8
:1053700004D903232046236003B0F0BDE95CEA189A
:10538000617191781389E1711179A38161729179C9
:105390005078A173C3F3402184F83210D37B117C81
:1053A000A07143EA01232382917C537CD07843EAA5
:1053B00001236382117DD37CD57943EA0123A38243
:1053C000917D537D2072507943EA01232771A072A9
:1053D000E572507AE38292F81DC092F81CE04FEA21
:1053E0000C4C4CEA0E2C92F81BE0117E4CEA0E0E8F
:1053F00092F820C0D37D8CF0FF0C4FEADC1C84F8BF
:1054000020C092F824C0957E8CF0FF0C4FEADC1C83
:1054100084F826C092F819C043EA01234CEA052516
:10542000238392F8223092F823606583957F92F867
:1054300026101F021B094EEA056543EA0613E561C3
:10544000A38492F825500B0203F470632B4392F867
:1054500021C092F827E0238592F8343007F4706772
:10546000090941EA0E114CEA070C1F2B618592F8DD
:105470003520A4F822C04FEA131122D9022919D0ED
:105480000A39012905D84FF480610123A18584F8E8
:105490002E3040EA0203204602F00101C3F38003EC
:1054A000C2F3400284F82F1084F8302084F83130A1
:1054B00003B0F0BD4FF459710123A18584F82E305B
:1054C000E7E703F00F0303EB83035B000533642B73
:1054D00028BF6423012914BF01210221012584F87A
:1054E0002C3084F82E5084F82D10D2E70180808073
:1054F00090F800C0ACF1A10CBCFA8CFC4FEA5C1C2B
:105500000CF14E0399423ED110F80C30312B3AD1B8
:1055100000B5411E1D4B49301D4A6144604411F8DD
:1055200001CF8CEA030C4CF300034CF3400E134004
:1055300083EA5C030EEA020E8EEA530E43F3400345
:105540004EF3400C134083EA5E030CEA020C8CEA33
:10555000530C43F340034CF3400E134083EA5C03C7
:105560000EEA020E8EEA530E43F3400313404EF34D
:10557000400C83EA5E030CEA020C88428CEA530377
:10558000CDD1D84300BD0020704700BF0C832C8CC8
:105590002083B8EDF0B50D4693B0044616460021C1
:1055A000342205A858F0CCFC05B1FEB901228021B7
:1055B000FF23A44633480DF1140E06908DF81C10FD
:1055C00005928DF84030BEE80F00ACE80F00BEE851
:1055D0000F00ACE80F00BEE80F00ACE80F00DEF8EB
:1055E0000030CCF80030204613B0F0BD2B78A3F18A
:1055F000A103B3FA83F35B0903F14E02964201D093
:105600000222D4E7EA5C312A1746F9D1E91891F869
:105610004C2091F84B00120442EA002291F84A0013
:1056200091F84D10024342EA016228463146039345
:105630000292FFF75DFF029A039B824219D0042277
:105640008021FF2325460F480DF1140C06908DF89C
:105650001C1005928DF84030BCE80F000FC5BCE867
:105660000F000FC5BCE80F000FC5DCF800302B6041
:10567000B9E732462946204600970233FFF760FE1D
:10568000B1E700BF01808080F8B504460D4617469B
:1056900000214B22033058F053FC3122102322709A
:1056A000EA7AA3703B016370002A6DD12B783BB17D
:1056B000E378A9786A7843F00303E3706171A2711B
:1056C000EB784BB12379A988AA7943F004032371BD
:1056D000A4F82F1084F83120EB7943B122792B7A8A
:1056E00042F0100203F01F03227184F82E306B7A0F
:1056F00063B12379AA7A43F003032371002A41D0CE
:105700000122237BE27243F010032373254B264AC8
:10571000611E04F1490011F801EF8EEA030E4EF309
:1057200000034EF3400C134083EA5E030CEA020CC4
:105730008CEA530C43F340034CF3400E134083EACE
:105740005C030EEA020E8EEA530E43F340034EF35F
:10575000400C134083EA5E030CEA020C8CEA530C03
:1057600043F3400313404CF3400E83EA5C0388424A
:105770000EEA020C8CEA5303CDD1DB43C4F84A3065
:105780002046F8BDE272C1E72F22012A05F10C0183
:1057900003DDE01C58F098FB88E704BF2B7BE37027
:1057A00084E700BFB6D225152083B8ED30B129B10A
:1057B000B1F5C77F05D04FF0020070474FF00100F0
:1057C00070470378362B02D04FF00300704790F8F3
:1057D0004C30922B01D00420704790F84D30402B74
:1057E000F9D190F88E30132BF5D190F88F00002866
:1057F000F1D0C82894BF002001208000704700BF6E
:105800004FF4807C0C4B00B553F8202003EB800351
:10581000C00082F0400200F1804003F5805E02F09B
:10582000C00200F5203003F54053CEF8002041605F
:10583000C3F800C000BD00BF04800340DFF81CC0F7
:10584000C90041EA82015CF820200CEB8003514042
:1058500003F5805301F00C01196070470480034088
:10586000064B022203EB800319B103F500531A60C3
:10587000704703F540531A60704700BF048003402F
:105880004FF0504CC308DCF800C000F0070000B532
:105890008000DFF82CE081400CEBCC0C03F18C0095
:1058A0009B004EF8201003EBCC0312B1024AD150FA
:1058B00000BD024AD15000BD48A2024048B2024099
:1058C0000080024008B54FF05043DFF824C0D3F801
:1058D00000E05CF82E30034207D103434CF82E3031
:1058E0001520BDE8084000F0ADB901F001FB00BF94
:1058F000ECCF002010B50446152000F085FA4FF0DB
:105900005043044A196852F8213023EA040342F84C
:10591000213010BDECCF00204FF0000300B543EC68
:10592000440043EC40004FF0050E4FF4807C0C4BDC
:10593000C20053F8201003EB800081F0400102F117
:10594000804303F5203301F0C00200F5805100F5DB
:1059500040500A60C3F804E0C0F800C000BD00BFBA
:10596000048003400FB400B5084883B004F094FFEE
:10597000049B3BB105A91846019104F091FD044830
:1059800004F08AFF012004F0A3FD00BF68E40510C5
:10599000C4180610EFF3108072B6064BD3E8CF1F81
:1059A00001220029FAD1C3E8412F0029F6D1BFF323
:1059B0005F8F7047739B00200023034AC2E88F3F2C
:1059C00080F31088704700BF739B002070B51646A7
:1059D000EFF3108472B6DFF848E0DEE8CF2F012342
:1059E000002AFAD1CEE8423F002AF6D1BFF35F8FFA
:1059F000012301F0070CCA0803FA0CF310F802C0E7
:105A00001CEA030508D14CEA030C00F802C0CEE8FA
:105A10008F5F84F3108870BD3046FFF7A3FF00BF8F
:105A2000739B0020F8B50F461946EFF3108672B647
:105A30001C4DD5E8CF4F0123002CFAD1C5E8443FD7
:105A4000002CF6D1BFF35F8F8A421BD8012402E0FD
:105A50000132914222D3D30810F803E002F0070C80
:105A600004FA0CFC1EEA0C0FF2D14EEA0C0E00F800
:105A700003E010460023C5E88F3F86F31088984264
:105A800007DBF8BD0023C5E88F3F86F310884FF091
:105A9000FF30002FF5D00698FFF764FF4FF0FF307E
:105AA000E8E700BF739B002000B5EFF3108E72B6DD
:105AB000104BD3E8CFCF0122BCF1000FF9D1C3E8DE
:105AC0004C2FBCF1000FF4D1BFF35F8F01224FEADE
:105AD000D10C01F0070102FA01F110F80C2022EAC2
