:020000041000EA
:10000000002008205B0100101B0100101D010010E2
:100010001101001011010010110100101101001058
:100020001901001019010010190100101F01001022
:10003000110100101901001021010010230100100E
:100040001101001011010010110100101101001028
:100050001101001011010010110100101101001018
:100060001101001011010010110100101101001008
:1000700011010010110100101101001011010010F8
:1000800011010010110100101101001011010010E8
:1000900011010010110100101101001011010010D8
:1000A00011010010110100101101001011010010C8
:1000B00011010010110100101101001011010010B8
:1000C00011010010110100101101001011010010A8
:1000D0001101001011010010110100101101001098
:1000E0001101001011010010110100101101001088
:1000F0001101001011010010110100101101001078
:100100001101001011010010110100101101001067
:10011000EFF30580103800BE00BE00BE00BE00BE7A
:1001200000BE00BEF2EB8871E0960A1000970A103C
:100130009C01001090A31AE7D3DEFFFF42012110BB
:10014000FF01000028C90A00793512AB00201E49C2
:10015000086006C881F3088810474FF050400068D7
:1001600008B10020F3E70DA40ECC002902D000F066
:1001700012F8F9E71549164A002000E001C1914242
:10018000FCD114498847144988471449884700BE60
:10019000FDE701C901C29A42FBD3704700970A10DC
:1001A000200100208034002060CA0A1000000820CE
:1001B0000000082060CA0A10001008200010082063
:1001C000000000007047000008ED00E080340020CF
:1001D00028E10020E9C20010FD160010E1C2001065
:1001E000704700BF00B5042183B001900AF096FC6F
:1001F000019803B000BD00BF10B504464FF4805114
:1002000000685FF00DFED4E90001BDE810404FF436
:1002100080725FF07DBE00BF70B50D460646C2B06D
:1002200002AC4FF48072FF2120465FF029FED5E931
:1002300000122046521A5FF047FE06F2FB331B0302
:100240004FF47A72694605480093019408F0D6FC91
:10025000B0FA80F0400942B070BD00BFF901001053
:100260000129084604D8D2E900135B1A402B01D0BB
:10027000002070471146FFF7CFBF00BF10B51948E7
:10028000194C02F0C5F9174803F0D4F8A07C01F02E
:1002900039FD207D01F042FD144A237F1178003B97
:1002A00018BF0123FF29E07E05D0884216D04FF009
:1002B000000444EC44100E4CFF28107023700CD046
:1002C00007F080FA094A4FF00101137841EC4430FD
:1002D000FF2B02D0227842EC403010BD044C10704D
:1002E0002370EDE7383A0020343A0020B02C00208B
:1002F000EFE0002070B58AB00C4642F00102ADF884
:100300001600D3E9001000238DF815200122CDE955
:1003100006331F4D8DF818401E4C8DF81420421ADC
:10032000CDE908339DF8386023702B7021D105A9E1
:1003300002A8089205F0B0FC02A90EC9521A402A80
:1003400008D089B9079818B10999091A0AF0E6FB8B
:100350000AB070BD1048CDE900135FF09DFDDDE9E6
:10036000001301222E7022700846591A0AF0D6FB9B
:10037000E8E71046019100920AF0CCFBDDE900218C
:100380005FF0A2FD009A079002440992CFE700BFF8
:10039000F1E00020E9E00020B0370020000000007C
:1003A0002DE9F041804686B0104616460F465FF0B4
:1003B00049F80446E8B1302828BF302420460AF026
:1003C000A9FB3146224606190546029004965FF0C5
:1003D0007BFD0023394640460093022202AB039680
:1003E000FFF788FF2146284606B0BDE8F0410AF035
:1003F00095BB9FED077B394640460222009402AB35
:100400008DED027B0494FFF775FF06B0BDE8F08127
:1004100000000000000000002DE9F04FD1E900537A
:100420008B46DBF808909D42A9EB050383B018BF0B
:100430004D603F2BDFF8448174D8DBF80060AC1BC3
:1004400004F1004340333F2B40F29080402C2CBFFE
:10045000271904F140076FF000439F4228BF1F4651
:1004600038460AF057FBAE4282467DD0621E052A0E
:1004700033466FD9811B0139022902466AD924F01B
:10048000030C4FEA940E06EB0C0053F8041B834256
:1004900042F8041BF9D1644510D01A4612F8011B2A
:1004A000D44495420AF82E1008D05A788CF80120CE
:1004B0009A1C95421CBF9B788CF80230544423460A
:1004C000C6469C4608F14004019375460CF1100C99
:1004D0000FCDA5420EF1100E4CF8100C4CF80C1C70
:1004E0004CF8082C4CF8043CEFD1019B03F140057B
:1004F00026B13046A9EB06010AF010FBCBE900A5B6
:100500005744CBF808701B4B984503D1012003B02A
:10051000BDE8F08FDBF80890DFF85880A9EB050301
:100520003F2B8AD9464608F14007344610350FCC98
:10053000BC4206F1100645F8100C45F80C1C45F8B5
:10054000082C45F8043CF0D1DBF804504035CBF8DA
:100550000450D8E753465444721E12F8011F03F8A2
:10056000011B9C42F9D1AAE70346A9E7024855F0CE
:100570005DF800BF00C03F1068FF051000B03F10DD
:100580002DE9F0470446B8B040200AF0C3FA2346EC
:10059000024600F1400425460994079003F1400407
:1005A0001968D3F804E0D3F808C0D8681033A34220
:1005B0001160C2F804E0C2F808C0D06002F1100275
:1005C000EED107A90DA8089505F04CFC0D9BBDF8D0
:1005D0003A409DF83C10BBB94B1E112B00F26C87C2
:1005E000DFE813F03000480063008C001401BE0106
:1005F000FF01200225031603D8039B03AC037D03F0
:100600008C03B703E90425002046744AFFF7C8FEAF
:10061000109818B11299091A0AF080FA079818B1BF
:100620000999091A0AF07AFA38B0BDE8F087DDE9CD
:1006300010239A4200F04D8512212046684AFFF7A8
:10064000AFFEE5E704200AF065FA00220546654B97
:1006500005F1040C18680121286022AB20460092A5
:10066000CDE923CC2295FFF745FE042128460AF068
:1006700055FACDE70C200AF04DFA5B4B054607CB47
:10068000002328606960AA6020461A4605F10C0C18
:100690000093022122ABCDE923CC2295FFF72AFE5D
:1006A0000C2128460AF03AFAB2E7504922A805F090
:1006B00077FE18200AF02EFA4FF0000E05460DF1D5
:1006C000880C00F11803CDE91B331A90BCE80F0029
:1006D00028606960AA60BCE80300EB60286169617A
:1006E00020469DF83C107246CDF800E01AABFFF7AB
:1006F00001FE182128460AF011FA89E7DFF808E11F
:100700000DF14C0CBEE80F00ACE80F009EE80700AE
:100710008CE8070013AA10A91AA805F08DFE9DF811
:100720006830002B00F0CC85314913AA22A806F0CE
:1007300075F99DF88830002B00F068862D4D2E4EFF
:100740002B68029308F0A8F8029B4FF47A7203EB2F
:1007500043031F0106EB0313029300235FF0D0FB5A
:1007600014227B1DF0519819029E0021327128221B
:100770005FF086FB214932795FF0A6FB204800221A
:100780000168204B01310C2928BF0C210160296828
:1007900020460131A3FB0143DB0803EB4303A1EB3C
:1007A000830100920AAB29609DF83C10CDE90A2232
:1007B0000C92FFF79FFD239825AB984203D0259913
:1007C00001310AF0ABF91B981DAB98423FF420AF02
:1007D0001D9901310AF0A2F91AE700BF80FF051048
:1007E00064010610084C0610FC4B0610383A002035
:1007F000343A0020AC370020F437002090FF051079
:10080000F0370020ABAAAAAA244C0610DFF810E2A9
:100810000DF1880CBEE80F00ACE80F009EE8070061
:100820008CE80700AEF1140006F01CF9002800F077
:100830005B85FFF723FD01216F4D704A2B68117016
:10084000029308F029F8029B6D4E03EB43031F014E
:1008500006EB03134FF47A72029300235FF050FB10
:1008600017227B1DF0519819029E00213271282217
:100870005FF006FB634932795FF026FB6249634B08
:100880000A6801320C2A28BF0C220A602A68013249
:10089000A3FB0213DB089DF8961003EB4303A2EBC6
:1008A00083035B4A0129927C2B6000F0AA85012A10
:1008B00006D0574A9DF89810127D914200F0F085BD
:1008C000029307F0E9FF029B4D4D03EB430305EB59
:1008D00003171E014FF47A7200235FF011FB2822E8
:1008E000731DA851002158193A715FF0C9FA49499E
:1008F0003A795FF0E9FA4FF0010C43483E4D016848
:100900002A6861440C2928BF0C21404B62440160D5
:10091000A3FB0213DB0803EB4303A2EB83022A6071
:1009200001239DF83C10022002918DF84DC08DF8F6
:100930004C300AF0EFF80022054600F1020C204688
:10094000BDF84C4002992C801AAB0092CDE91BCC2B
:100950001A95FFF7CFFC022128460AF0DFF857E688
:10096000254D2B4806F092F92B68254E029307F08F
:1009700093FF029B4FF47A7203EB43031F0106EBD4
:100980000313029300235FF0BBFA1A227B1DF05180
:100990009819029E0021327128225FF071FA327993
:1009A0001D495FF091FA184800220168174B013188
:1009B0000C2928BF0C210160296820460131A3FBC6
:1009C0000143DB0803EB4303A1EB8301009222AB5D
:1009D00029609DF83C10CDE922222492FFF78AFC81
:1009E00016E6DDE910239A4200F033830721204602
:1009F0000A4AFFF7D5FC0BE6AC370020EBE00020FD
:100A0000F4370020C4FF0510F0370020ABAAAAAAD3
:100A1000343A0020DCFF051010000610B801061063
:100A2000383A002022A803F04FF81AA801F05EFE21
:100A3000D14B1D780CF0C0FA9DF888209DF88C10E1
:100A4000A2F10302B2FA82F29DF88B300291BDF856
:100A50008D10804652090A209DF889609DF88A70A1
:100A60000592039304910AF055F8039A03464271E4
:100A7000059A0299C271042281710499457080F827
:100A80000280C670077119811A701420329D02937A
:100A90000AF040F80246029B857218680A2110602D
:100AA00058680292506018892646108118460AF04C
:100AB00035F8029A9DF868102B0A91749DF89110F0
:100AC000D372D174339B290C1173290E5173190AF7
:100AD0009373D173190C1B0E1174537428201C9D31
:100AE0000AF018F80346029A057510681421186078
:100AF00050680293586090689860D068D860106918
:100B0000186110460AF00AF80022029B9DF8D0C036
:100B10009A7783F81CC09DF8D1C0DA7783F81DC09E
:100B20001D9A4FEA154C290A83F816C04FEA156C36
:100B3000597583F817C035994FEA122C1A7683F845
:100B400019C04FEA124C120EDDF8D8E0DA760A0A24
:100B500083F821200A0C83F822204FEA1E2283F812
:100B600025204FEA1E4283F8201083F82620090E24
:100B70004FEA1E6283F8231083F8272083F824E0CD
:100B800083F81AC05020379D09F0C4FF029B01462C
:100B900007461A46984680F8285003F12004136847
:100BA0005068D2F808E0D2F80CC01032A2420B60B4
:100BB0004860C1F808E0C1F80CC001F11001EED1A5
:100BC000D2F800C053684046C1F800C04B602821ED
:100BD00009F0A4FF082100222C0C87F82A402C0ED3
:100BE00025FA01F387F82B4007F1300487F8293004
:100BF0003046FA62239422AB009207F15004229708
:100C00002494FFF777FB5021384609F087FFFFE473
:100C1000DDE910239B1A042B03D11378522B00F02B
:100C200087830A212046554AFFF7BAFBF0E4DDE945
:100C30001032D11A012900F35F839A420CBF0023BE
:100C40001B7803201E46029309F064FF4FF0000555
:100C5000024601214A48029B006853708642117087
:100C60009570C0F0A5820620029209F053FF03465A
:100C7000029A03211088DD70188090780293987092
:100C8000104609F04BFF4FF00002029B0C209A80A7
:100C900009F040FF4FF000060546029BAE711A684E
:100CA00080462A6018469B880621AB8009F036FFF3
:100CB00005F10C09EE7105F108030022CDE913835B
:100CC0002046092113AB0092CDF85490FFF712FB98
:100CD000A9EB08073946404609F020FF98E4DDE912
:100CE00010031B1A052B03D10378012B00F0968308
:100CF0000E212046234AFFF753FB89E4DDE9100368
:100D00001B1A052B03D10378012B00F098830F21C8
:100D100020461D4AFFF744FB7AE402F009FC9DF8E7
:100D20003C10002800F0D4820022204622AB009222
:100D3000CDE922222492FFF7DDFA69E4DDE91023F0
:100D40009A4200F04F810D212046104AFFF728FB00
:100D50005EE4DDE910239B1A022B06D11378012BE8
:100D600003D15078012840F28A8310212046084A96
:100D7000FFF716FB4CE400BFEBE000201402061066
:100D8000F03700204C0006108C0006102C000610D6
:100D9000CC00061022A802F097FE302009F0BAFE1F
:100DA0002F2200F13003054600211A9080460130C1
:100DB0001C9302935FF064F802219DF88820029B47
:100DC000032A1B93297000F0898204204FF0060C3F
:100DD0000A4600239DF88D1019B16046134688F825
:100DE00001209DF88E2012B1034688F801009DF87D
:100DF000891019B143F0080388F801309DF88A1072
:100E000019B143F0100388F801309DF88B1019B127
:100E100043F0200388F801309DF88C1019B143F09D
:100E2000400388F801309DF88F1019B163F07F03FB
:100E300088F80130002A00F0CE80DDE92623BDF8D5
:100E4000A010C8F80220C8F80630BDF8C0209DF8F0
:100E5000C230A8F80A10A8F81020002B00F0538226
:100E600001220321134688F812209DF8C32012B1F5
:100E70000B4688F812109DF8C4201AB143F0040301
:100E800088F812309DF8C5201AB143F0080388F89D
:100E900012309DF8B4201AB143F0100388F81230D4
:100EA0009DF8BA201AB143F0200388F8123020468A
:100EB00000242246A646A44623462146BDF9A65054
:100EC000BDF9A4600295BDF9AE50BDF9AA700395B5
:100ED000BDF8B85004959DF8A25065F3070466F379
:100EE0000F24C6F3072666F31744029E66F31F64B9
:100EF000C8F81340C6F3072464F30702BDF9A840FD
:100F00002C9E64F30F22C4F3072464F3174267F3A3
:100F10001F62C8F81720C7F3072262F3070EBDF956
:100F2000AC20BDF8B64062F30F2EC2F3072262F385
:100F3000174E039A62F31F6EC8F81BE04FEA166E55
:100F40006EF3070CC2F3072264F30F2C240A62F33A
:100F5000070364F3174C2C9A049C62F30F2364F389
:100F60001F6CBDF8BC20240A64F3070162F30F2153
:100F7000120A62F31741BDF8BE20C8F823C062F31D
:100F80001F61120A88F82B20320A62F31743320CD1
:100F900062F31F63C8F81F300023C8F827101A46F1
:100FA00000930B211AABFFF7A5F93021404609F059
:100FB000B5FDFFF72DBBDDE910031B1A302B03D164
:100FC0000378012B00F04C8211212046CF4AFFF715
:100FD000E7F9FFF71DBB0B21204600921AABFFF784
:100FE00089F9E2E722A802F06FFD9DF89820082019
:100FF000029209F08FFD029A0546A2F1310200210A
:101000000120B2FA82F205F10803CDE91B339DF805
:101010008E30C5F80110520969601A952870002BAE
:1010200040F0E781AA70002240F6B83C9DF890108D
:10103000204643EA41132B71A5F806C00D211AABD7
:101040000092FFF757F90821284609F067FDFFF7DE
:10105000DFBAAF4DAF4E2B68029307F01DFC029B29
:101060004FF47A7203EB43031F0106EB0313029361
:1010700000235EF045FF26227B1DF0519819029E49
:101080000021327128225EF0FBFE3279A2495EF027
:101090001BFFA248A24B0168002201310C2928BF86
:1010A0000C210160296820460131A3FB0143012482
:1010B000DB0803EB4303A1EB8301296022AB9DF81E
:1010C0003C100094CDE922222492FFF713F9FFF798
:1010D0009FBA1AA801F00AFB22A802F0F5FC01232E
:1010E0008DF84C309DF891309DF868208DF84E3089
:1010F0009DF8903004208DF84F308DF84D2009F088
:1011000009FD054613991C9A296008200391029253
:1011100009F000FD03460399029A016028461A71FE
:101120000421CDE9023209F0F9FC1020039A029B58
:10113000110A597122FA00F1120EDA711D9A997191
:101140000393029209F0E6FC0546039B029A0821EC
:1011500002721868286058686860184609F0DEFC5A
:101160004FF0000E029A2046259C4FEA124C85F85B
:101170000AC0130A4FEA126C220A2C736A73220CFB
:10118000240E6B72AA73EC7385F80BC012217246A1
:101190001AABCDF800E005F11004CDE91B441A9517
:1011A000FFF7A8F81021284609F0B8FCFFF730BA7D
:1011B000574B917019685A4B0B31A3FB01EC4FEA66
:1011C000DC0C0CEB4C0CA1EB8C010C31891BA3FB50
:1011D00001C3DB0803EB4303A1EB83034D4F03EB98
:1011E0004303049206201A0107EB0313BD58CDE90F
:1011F000022309F08FFC0346049AC570108803216E
:101200001880907804939870104609F087FC049B2E
:101210002A0A1A712A0C5A710C2009F07BFC2A0E3A
:101220000546049B82711A68824602609A880621EC
:101230008280184609F072FC039B05F10C091A79AB
:1012400005F10803EA71002A00F028810299042AB6
:1012500001F10501394440F22781082A104638BFC0
:1012600008206FF00043029200F108029A4228BF62
:101270001A4610461746039109F04CFCDAF8003084
:1012800005460360DAF804300399029A4360804609
:1012900008305EF019FE029A0C2183185046029322
:1012A00009F03CFC00231A460093029B0921149389
:1012B000EB191593204613AB1395FFF71BF809E5BF
:1012C00020461B9A9DF83C10FFF76AF8FFF77BBA9F
:1012D0002046144AFFF764F8FFF79AB90123052066
:1012E0004FF0070C6B7075E520460F4A9DF83C10D7
:1012F000FFF756F8FFF78CB9092120460B4AFFF794
:101300004FF8FFF785B90221AFE500BF14010610C1
:10131000AC370020F4370020D8010610F037002049
:10132000ABAAAAAA84010610A8FF05109C0106100A
:1013300053780132432B7FF474AC12F8013F562BE3
:101340007FF46FAC5378312B7FF46BAC5D4D2B6821
:10135000029307F0A1FA029B5B4A03EB43031F01D0
:1013600002EB0313164602934FF47A7200235EF0E9
:10137000C7FD12227B1DF0519819029E0021327187
:1013800028225EF07DFD327950495EF09DFD0121FD
:101390004F48504B02680A440C2A28BF0C220260B6
:1013A0002A680A44A3FB0203DB0803EB4303A2EB16
:1013B0008302494B2A60197007F06EFA4FF47A7273
:1013C00000235EF09DFD10F1FA0320464FF000046B
:1013D000424A41F100010094C2E9003122469DF8E1
:1013E0003C1022ABCDE922442494FEF783FFFFF7A3
:1013F0000FB99DF8C2306870E870AA7043F0DE0340
:1014000011E6012A7FF45CAAFFF753BA2046239A1B
:101410009DF83C10FEF7C4FFFFF7CDB98178B0F816
:101420000320407802F092F89DF83C1000287FF4E9
:101430007BAC20462A4AFEF7B3FFFFF7E9B8817874
:101440000379C278407802F0F3F89DF83C10002848
:101450007FF46AAC2046234AFEF7A2FFFFF7D8B814
:101460002F21013002F04EFA9DF83C1000287FF445
:101470005BAC20461C4AFEF793FFFFF7C9B800F0AB
:10148000010002F08FF99DF83C1000287FF44CAC6D
:101490002046164AFEF784FFFFF7BAB8A8460CE4C8
:1014A0004FF0000CFFF73CBA184602925EF00CFDBC
:1014B000029AA846831800E420460D4AFEF770FF02
:1014C000FFF7A6B8AC370020F43700200002061062
:1014D000F0370020ABAAAAAAEAE00020903400204E
:1014E00068000610A80006103C010610EC0006106B
:1014F0003C020610F0B583B0BDF820E0002870D1A2
:10150000002B6ED0012A6FD0032A68D1712940F0D8
:1015100092804E4A1278002A00F09580BEF13F0F6B
:101520005DD99C464A4CA6460CF1100CBEE80F0053
:101530004CF8043C474B10349E454CF8100C4CF8CA
:101540000C1C4CF8082CEED14FF00001424B1A78DD
:101550001970002A42D0414C414D2368019307F095
:101560009BF9019B4FF47A7203EB43031E0105EBD9
:10157000031700235EF0C4FC1722731D0021A8513D
:101580003A71581928225EF07BFC36493A795EF0B0
:101590009BFC4FF0010C3448344B026802EB0C0109
:1015A0000C2928BF0C21324A016082F800C0226851
:1015B0006244A3FB02C3DB0803EB4303A2EB8302F9
:1015C000226007F069F900234FF47A725EF098FC0C
:1015D000284BFA3041F10001C3E90001402003B07B
:1015E000F0BD002003B0F0BD0129F8D1BEF13E0FDF
:1015F000F5D9214A02F130011468D2F804E0D2F89A
:1016000008C0D06810328A421C60C3F804E0C3F8F6
:1016100008C0D86003F11003EED150689168D2F889
:1016200000C05860C3F800C099609189927B3F2048
:1016300099819A73D3E772460846194600F074FB05
:1016400080B203B0F0BD1046C9E700BFE9E000205A
:10165000B0370020F0370020F1E00020AC37002048
:10166000F43700206C020610F0370020ABAAAAAABB
:10167000EDE00020A03400207D3A002010B58CB0B1
:10168000BDF838E020B9022A9C4612D0032A01D0C6
:101690000CB010BD7029FBD143B3BEF1410F1FD078
:1016A000BEF1400F14D160460CB0BDE81040FEF70B
:1016B00067BF73466246684605F042FC9DF80030FD
:1016C000002BE5D02F210DF1010002F01BF9DFE71F
:1016D00001210020074A0CB0BDE81040FEF760BEB3
:1016E0001B78702BF4D10CF1010CDCE70121024ACC
:1016F000F1E700BF98020610840206102DE9804829
:10170000B9B00CF0DFFD00F007FE9A4805F0AEF826
:10171000994C2070FEF7B2FD2378002B00F0278152
:10172000964F974EDFF89882346807F0B5F84FF47B
:101730007A7200235EF0E4FB142204EB44042501DA
:101740006B1D08EB041448F80500227103EB080038
:10175000282200218B4D5EF093FB227939465EF002
:10176000B3FB296830684C1C0C2C28BF0C24864B1A
:1017700001302C60A3FB0043DB0803EB4303A0EB29
:1017800083032C22002123A833605EF079FB8021A3
:101790000822FF237D4C7E48246822908DF88C100F
:1017A00004A822A928948DF88F208DF8B03005F078
:1017B00031FC784E04AC3546E36820686168A26865
:1017C00010340FC514AB9C4206F11006F3D101246E
:1017D000714BDFF8F0911C700CF096FD18B989F888
:1017E000004001F0F9FD4AF60123002015A9ADF8EB
:1017F00054300CF003FCDFF87CB1DFF8CCA1002101
:101800004FF0FF300BF090FC99F800300BB10CF06A
:1018100071FD00F059FE03F0E3FC22A802F054F938
:101820009DF88A4024B99DF88B400CB99DF88C40F6
:1018300007F032F89DF888309BF81360032B99F875
:10184000005000F03881002E40F03A81002C00F06A
:10185000C0810023514A5EF053FBC30740F19A81D7
:10186000002D40F0318128460CF02EFD4C4B1B78AA
:10187000FF2B04D04B4A1278544044EC403022A84D
:1018800002F022F907F008F8CDE900019DF88E106A
:10189000002940F09B80444F3B78002B40F09E8114
:1018A0003D4B1B787BBB414AD2E9003253EA020030
:1018B00040F076812C22002117A85EF0E1FA802307
:1018C0008DF85C30324B04A8169308238DF85F30F6
:1018D000FF238DF880302D4B16A91B682D4E1C93CD
:1018E00005F098FB04AC3546E36820686168A2689F
:1018F00010340FC514AB9C4206F11006F3D14FF023
:101900000102254B1A709BF81030002B00F0C080AC
:10191000012B00F0E0800BF04FFB002840F0ED8041
:1019200006F0BAFF00234FF47A725EF0E9FA204B1A
:101930001B7833B1DAE90023904271EB030380F0A6
:10194000CC811C4B1A78002A3FF459AF1A4AD2E9CD
:101950000042A0429141FFF452AF00221A700BF0F6
:1019600059FB322006F06CFE0BF05EFB47E7134F8D
:10197000D7E600BF343A0020EBE00020CC0206108E
:10198000AC370020F0370020ABAAAAAAC43A002046
:10199000018080807C3A0020EEE0002090D003009F
:1019A000B02C0020EFE00020ECE000209834002074
:1019B000EAE00020EDE00020A0340020B402061090
:1019C000F4370020E8E0002090340020DFF8D882CF
:1019D000329AD8F800309A4200F0A780DFF8CCE2C3
:1019E000A74F9EF800203B7816AC26AD02920393D9
:1019F0000FCD0FC40FCD0FC495E80F0084E80F0082
:101A0000029ADDF8B0C0002A40F015814FF00103C2
:101A10008EF800309B4B1A609B4B16A904A8CDF89A
:101A200070C0C3F800C005F0F5FA984E04AC354616
:101A3000E36820686168A26810340FC514AB9C424B
:101A400006F11006F3D10BF0BFFA914D04462B7846
:101A5000002B40F0FF804FF001038E4C2B7026AD21
:101A60000FCD0FC40FCD0FC495E80F0007C424F8A5
:101A7000023B1B0C23704FF00102874B3A701A7027
:101A8000329BC8F800309BF81030002B7FF440AF39
:101A9000824A4FF47A61D2E9003253EA020022D03E
:101AA0000098C31A019860EB02028B4272F10002A7
:101AB000FFF436AF17E0002E6CD02DB93446D2E6D5
:101AC000002D3FF4D0AE25460024214600200CF026
:101AD00003FC2C46CAE6714A4FF4FA61D2E900329F
:101AE00053EA0200DCD16C4B1B78002B3FF418AF9B
:101AF0000BF062FA00283FF413AF00200CF07EF8E0
:101B000000283FF40DAF3F2301210020644A0CF070
:101B100091F800283FF404AF00235F4A13705F4B35
:101B2000009A1A60019A5A60FAE65B4B1B78002B08
:101B30007FF4E9AE594AD2E9003253EA02002FD1CC
:101B400016AC26AD0FCD0FC40FCD0FC495E80F0016
:101B5000DFF858C184E80F009CF80070002F71D0A6
:101B6000484B1B682C9A16A91344474A04A81C9397
:101B7000136005F04FFA454E04AC3546E368206823
:101B80006168A26810340FC514AB9C4206F11006C0
:101B9000F3D1B4E6002D40F09B8001252C4662E68F
:101BA0000098C41A019860EB0200B4F57A5F70F1F6
:101BB00000000AD29BF81010002900F08B80012948
:101BC0007FF4AEAE4FF4FA616AE700293FF472AEDB
:101BD000B6E7002D3FF447AE254676E72C2217A83E
:101BE0005EF04EF980238DF85C302E4B04A81693DE
:101BF00008238DF85F30FF238DF88030224B16A923
:101C00001B68224E1C9305F005FA04AC3546E368C8
:101C100020686168A26810340FC514AB9C4206F1BD
:101C20001006F3D14FF001021B4B1A700023184A23
:101C30003B70137067E6039B002B39D0114B1B6878
:101C40009C44E9E64FF001030E4A8CF8003017601F
:101C50003B4687E70F4826A905F06EFA80B39BF84C
:101C600018306BB3002C3FF4F6AE0BF0B5F92B78BF
:101C7000002B3FF4F0AE00287FF4EDAEFBE600BF92
:101C8000ECE00020BC3A0020C43A00207C3A00205E
:101C9000F0E00020B42C0020EEE00020983400207A
:101CA0007D3A002001808080C03A0020F2E00020D0
:101CB0000D4B1B68A3EB0C029C460C4B1A60ABE669
:101CC0002B78002B3FF4C7AE002C7FF4D4AEC2E6D5
:101CD0002C46FAE64FF47A61E2E60021044B08460E
:101CE000197006F017FF00BFC43A0020BC3A00206C
:101CF000EAE000200149024804F0A6BDE42C0020DF
:101D0000343A002040F6E64340F6F251012808BF7D
:101D10000B46014A13807047FA2C0020014B1870C3
:101D2000704700BFF3E0002070B509288CB023D0C5
:101D300020281AD005281BD12824C9B1944217D8CD
:101D400001900D460846224600215EF099F8019B5D
:101D5000052B26D0092B11D02046354A354BC5F826
:101D60001720C5F81B300CB070BD3F240029E5D109
:101D7000002420460CB070BD1324DEE72E4B1B78E8
:101D8000002B37D12D4B1A784AB3062228462C490E
:101D90005EF082F86B7923F0030343F002036B716A
:101DA000E7E702A805F012F9AE4602AEB4460EF11E
:101DB000100EBCE80F004EF8043C0AAB9C4506F13F
:101DC00010064EF8100C4EF80C1C4EF8082CEDD1F5
:101DD000BCE80300CEF80000CEF80410C9E70AF012
:101DE00055FE0122154B1A70154B0A0A186019711D
:101DF0005A71CAE7002302A8CDE902330AF0A6FC13
:101E00000298104BDDF80A1043404B409DF80C201F
:101E10009DF80E102B604A409DF80F309DF80D1074
:101E200082F04C024B4083F06B032A716B71B1E777
:101E300001004C4D0029004DF3E00020F4E00020AB
:101E4000C83A00204D697261054B064A1B78064866
:101E5000002B0CBF002303231288037442817047B8
:101E6000F3E00020FA2C0020E82C002008B90248FA
:101E700070470020704700BF804C06100048704734
:101E8000544C061058B940F209434FF44171DFF841
:101E9000E8C03948ACF80230ACF80010704730B5F3
:101EA00002288BB025D003283ED004283AD8334BE3
:101EB00053F82040B4B320465DF0C4FA3F280346EF
:101EC00028BF3F23591C49001D46DFF8ACC041F430
:101ED000407148B16046621E931C1B1B12F801EF53
:101EE0009D4220F802EFF7D82348ACF800100BB061
:101EF00030BD40F6F253224A12889A4235D04FF450
:101F00004F714FF01D0E1F48DFF86CC00EF1FF3E01
:101F10006246431E864413F8010F9E4522F8020FC5
:101F2000F9D1E1E70020E2E7174B1B78002BF9D04D
:101F30002122002168465DF0A3FF212168460AF0B6
:101F40000DFC68465DF07EFADFF82CC040B16B46B0
:101F500062461C1813F8011BA34222F8021FF9D194
:101F6000411C490041F44071BEE740F246314FF058
:101F7000220E0648C8E700BF20370020404C06105C
:101F8000FA2C002008030610F3E00020E4020610FB
:101F90002DE9F04FD44BADF69C0D1D68002D00F0DF
:101FA00098810026DFF850A34FF4F062002146A884
:101FB0005DF066FF0AF1020B0DF58D790395CB4BB1
:101FC00040F2DF12A3FB0635731B05EB530540F20D
:101FD000FF132D0A05F10108984528BF9846C5EB67
:101FE00005143AF93800C5EB4414341B80FB040196
:101FF0003AF935C0C4F5EF7701370023C7FB0C0170
:102000005DF012FF29F8020C3BF938003BF935303E
:1020100080FB040140F2DF12C7FB030100235DF0E7
:1020200003FFB34B06F2FF169E4229F8040BC6D1FC
:10203000C824039D14AE0021224630465DF020FFE7
:1020400028464FF4F072334646A9009423F066F810
:10205000A042054600F23D810021402204A85DF027
:102060000FFFA44BA4494FF0FF3E4FF0800A1888A1
:10207000DFF898C2DFF8988201F5805904AF039524
:102080007DE0002B03DA14EB080443F10003240D78
:1020900044EA0334802C4FEA235373F1000300DB3E
:1020A0007F24B1F90EB0B1F90620B1F916501BEB3F
:1020B00002033C704FEAE272B1F91E4042EBEB7250
:1020C000EB1842EBE572E31842EBE472B1F92640FB
:1020D000E51842EBE473B1F92E40621943EBE47367
:1020E000B1F93640A21843EBE473B1F93E40A218AF
:1020F00043EBE473B1F94640A21843EBE473B1F942
:102100004E40A21843EBE473B1F95640A21843EBDA
:10211000E473B1F95E40A21843EBE473B1F9664091
:10212000A21843EBE473B1F96E40A21843EBE473D9
:10213000B1F97640A21843EBE473B1F97E40A218DE
:1021400043EBE473A2FB004200FB0323A4457EEBB8
:1021500003026FDA002B03DA14EB080443F10003E7
:10216000240D44EA0334802C4FEA235373F1000317
:10217000A8BF7F24803189457C7060D00237B1F9D7
:102180000CB0B1F90420B1F91450B1F91C401BEBAB
:1021900002034FEAE27242EBEB72EB1842EBE5729C
:1021A000E31842EBE472B1F92440E31842EBE47225
:1021B000B1F92C40E31842EBE472B1F93440E31872
:1021C00042EBE472B1F93C40E31842EBE472B1F93E
:1021D0004440E31842EBE472B1F94C40E31842EB9F
:1021E000E472B1F95440E31842EBE472B1F95C4097
:1021F000E31842EBE472B1F96440E31842EBE47295
:10220000B1F96C40E31842EBE472B1F97440E318A1
:1022100042EBE472B1F97C40E31842EBE472A3FBB9
:10222000004300FB0233A4457EEB0302FFF629AF17
:10223000802436E78031494587F801A09ED12F4C94
:102240004FF4C77200212046039D5DF019FE36232E
:1022500023703F239022237344F292032848294994
:10226000E2720278A4F84C300B78A272013202704C
:102270005A1C1B0104AF0A70637004F14E0EBC4679
:102280000EF1100EBCE80F00B44507F110074EF830
:10229000100C4EF80C1C4EF8082C4EF8043CEED1F5
:1022A0001323012D84F88F5084F88E3016DD2A46D2
:1022B000314615485DF008FE4FF4C7710F4805F030
:1022C000CBF9C0B2B0FA80F040090DF69C0DBDE824
:1022D000F08F00200DF69C0DBDE8F08F04BF337821
:1022E00084F89030E8E700BFD88A00209B01A31152
:1022F00020BE0300002D0020DC8A0020DC9A002094
:10230000FAE00020F7E000206C9B00200000F0F7CE
:10231000FFFF0F000000000030B5002483B04FF431
:102320008042002146485DF0ABFD4649464B474D93
:102330000C604FF48052214645482C601C605DF0D3
:102340009FFD9FED3D7B434947F6FF730C6042497B
:102350004FF480720C6041494FF400700C604049AA
:10236000404D0C6040490C6040490C6040490C6095
:1023700040490C60404981ED007B40490C70404968
:102380000C7040490C7040490C7040490C70404939
:102390000C7040490C7040490B8040490B8040490B
:1023A0000B804049404B0A801A804049404A414BCB
:1023B0000860147021464FF480523F481C705DF055
:1023C0005FFD21464FF4C7723C485DF059FD40F671
:1023D000010202214BF6803001AB2C70019420F0F9
:1023E00025FE374C206008B1019D1DB100232360FC
:1023F00003B030BD40F6A271324A22F059FF2A469E
:1024000040F6A671206822F053FF052240F6AA711B
:10241000206822F04DFF40F6BA3240F6B8712068CD
:1024200022F046FF102240F6C471206822F040FFDF
:1024300003B030BDAFF300800000000000000000DA
:10244000D03A0020D47A00206C9C0020D07A002062
:10245000D87A0020789C00207C9C0020849C00205E
:10246000709C0020F9E00020809C0020749C0020DB
:10247000889C00208C9C0020A8340020F5E00020DF
:10248000FEE00020FDE00020F8E00020FBE000205E
:10249000FCE00020F6E00020082D0020062D0020A2
:1024A000042D0020022D0020002D0020FC2C0020F7
:1024B000F7E00020FAE00020DC8A0020DC9A00200F
:1024C000D88A002000710200F0B5444C97B0237800
:1024D0000BB917B0F0BD06F0DFF9414AD2E900357B
:1024E000C01A4FF000033F4A61EB0501824273EBD3
:1024F000010169D32378002BEBD03B4B1B68002BE9
:10250000E7D0684601F0E0FA38490B78002B50D14B
:10251000374E3849326809688A42DAD39DF8081084
:102520000029D6D0DFF8D8C09E46334C334F0CF686
:10253000F875A2B12368013A591CC1F30A0107EBEF
:10254000C303AC452160326093E803008CE80300CC
:102550001AD00EF1010E0CF1080C002AEAD1AC459C
:10256000CCE9002210D0264B0EF1010E03EBCE0376
:10257000CEF5007E03EBCE0E0EF1080E083343E9D4
:10258000022208339E45FAD1FFF702FDF8B101237C
:10259000164A13704FF4C7711A4801F017FA002851
:1025A00097D00021184A1368013313600F4B19703C
:1025B0008FE79DF80830002BECD1144A0B7013689C
:1025C00003F50073136084E7237017B0F0BD0F4A62
:1025D000136803F5007313607BE700BFF5E000208C
:1025E000A8340020F0490200D88A0020F9E0002039
:1025F0006C9C0020FC2C0020D07A0020D03A0020D7
:10260000DC8A0020DC9A0020749C0020809C002042
:10261000D0ED017AB0EE677ABEEECC7A2DE9F041CA
:10262000C27C284BDFF8BCC01A70027A90F809E02F
:10263000C2EBC232ACFB0215CEEBCE3EACFB0E1CA5
:10264000521B437B05EB52021F4D9209AEEB0C0E61
:10265000102B2A800CEB5E0C1C4A38BF10234FEA6B
:102660009C1CA2F800C017EE102A7F2B28BF7F23E6
:10267000B2F5807FB8BF4FF48072B2F5007FA8BF7B
:102680004FF40072857A124908356D01103B0D80B8
:10269000104E857CDFF85080807D03EB43035B02A6
:1026A0003070A8FB03015B1A01EB53010A4F0B4C7E
:1026B0000B4B890901F500713D7021601A80BDE85E
:1026C000F08100BFFBE00020062D0020042D00203B
:1026D000022D0020F6E00020FCE00020FC2C002071
:1026E000002D002011080402890B3527DFF880C077
:1026F0001649174B174A9CF800C009781B781278C6
:1027000080F800C0417083700AB9134B1A78134BDC
:10271000C2701B68DFF85CC0003B18BF0123104982
:10272000104ADCF800C009681268C0F808C0C0E9A7
:102730000312DFF844C00C490C4ADCF800C00968F9
:102740001268C0E905C1C26103717047FEE0002054
:10275000FDE00020F8E00020FBE00020D88A002007
:10276000809C00206C9C0020889C00208C9C002079
:10277000F5E00020709C0020749C002038B54FF4D8
:102780004C7200211A485DF07BFB4FF0FF300023B4
:1027900000220021174C184D20602860174C184863
:1027A000C4E900230170174C1748C4E90023C0E9AD
:1027B00000233F2215485DF063FB154B1868EFF3CB
:1027C000108272B6D0E8CF5F0124002DFAD1C0E8A4
:1027D000454F002DF6D1BFF35F8F00210D485A60A1
:1027E00001811B68C160C3E88F1F82F3108838BD68
:1027F000A49C0020102D00200C2D0020E03400208F
:1028000008E10020C8340020B8340020D49F002004
:102810009C9C0020142D002010B5214C2368EFF360
:10282000108272B6D3E8CF0F01210028FAD1C3E895
:10283000401F0028F6D1BFF35F8F1A4B62601888E3
:1028400030B1194B587918B11B78032B07D00020F1
:1028500000232168C1E88F3F82F3108810BD134B1D
:102860001B78002BF3D112490978062901D01846AC
:10287000EEE71049D1E900310B43E9D006F00CF83E
:102880004FF47A7200235DF03BFB0A4A13689842CA
:102890005368626899412CBF01200020D8E700BF2F
:1028A0009C9C0020C6E00020142D00200CE100209C
:1028B0002CA00020103500201A4A1368032B24D9BD
:1028C0000268194BC3F812208288DA82174B196804
:1028D000EFF3108272B6D1E8CFCF0120BCF1000F28
:1028E000F9D1C1E84C0FBCF1000FF4D1BFF35F8FF9
:1028F0004FF0010C0E485A6000211B6880F807C099
:10290000C3E88F1F82F31088704703EB430C013339
:1029100005491360036841F81C30838801EB4C01C2
:102920008B80D3E738A0002014A000209C9C0020BE
:10293000142D00202DE9F041454B94B01B78002B5D
:1029400071D00546FFF768FF044600286BD0414E62
:102950003368002B67DA404B4FF4C7721B680021C5
:10296000002B0CBF4FF4CC7000203C4B08BF01275C
:102970001844804618BF00275DF082FA38490A786B
:10298000501C087002F00F022946684604F0D0FC83
:102990004E22694640465DF097FA4FF4CC714E22C4
:1029A0002E4B376001FB07333121C3F89021012200
:1029B00083F88E1183F8942105F06EFF4FF47A723C
:1029C00000235DF09DFA0022264B1A70264BC3E9C6
:1029D0000001EB7A3BB12F22012A05F10C0131DD18
:1029E00022485DF059FA2B7813B3DFF880C00DF15F
:1029F0000305E646EB6828686968AA681035AEE802
:102A00000F000DF133039D420CF1100CF1D1AA68B7
:102A100028686968ACE80700AA89AB7BACF800209D
:102A20008CF8023000E00024204614B0BDE8F081AC
:102A3000EB78002BD9D1EB79002BD6D16B7A002B18
:102A4000F2D0D2E7CFD1094B2A7B1A70CBE700BF77
:102A500000E100200C2D0020102D0020A49C00205F
:102A600004E1002001E10020B0340020D49F0020C8
:102A7000F0B5474D85B0AA7912B1EA79002A59D04C
:102A8000002600270024434B434AC3E90067434B19
:102A900054601460C2F80740414A1C70414BC2E9BF
:102AA00000674149414A1C70414BC2E900670C7004
:102AB0004E2221463F48C3E90067C5E900442C7215
:102AC0005DF0DEF93C4A3D4BC2E900673C4E1C70AC
:102AD000FFF754FE3368EFF3108272B6D3E8CF0FDE
:102AE00001210028FAD1C3E8401F0028F6D1BFF326
:102AF0005F8F344B344D354F1C807260D5E9003206
:102B00001343BC80BC7121D1BC7004233B7032687C
:102B10000023C2E88F3F726882F310882C482D4A48
:102B20002D4C2E490078C2E9003393602370087061
:102B300005B0F0BD2A7A002AA2D195E803000290E0
:102B400002A8ADF80C1012F069FA99E705F0A4FE9E
:102B50002C6800234FF47A7201945DF0D1F9019A48
:102B60006C689042A14134BF012300231443BB7021
:102B7000CBD005F091FE4FF47A7200235DF0C0F9DE
:102B8000D5E9002390429941BFD20223BEE700BF9E
:102B900094A80020F03400202CA000200AE100209E
:102BA000D034002009E1002007E10020F8340020A3
:102BB000C034002044A80020103500200CE1002083
:102BC0009C9C0020C6E00020E8340020142D00204A
:102BD000FFE00020909C00200DE100200BE1002090
:102BE000254A70B51378FBB1002100240025234B42
:102BF000234AC3E90011C3F80710224B1688C3E922
:102C00000045214B214AC3E90045214BC2E900455B
:102C10001970204B4E22204819705DF031F91F4B7E
:102C2000C3E900451EBB70BD01251D4C157026680B
:102C3000EFF3108572B6D6E8CFCF0122BCF1000FBA
:102C4000F9D1C6E84C2FBCF1000FF4D1BFF35F8F70
:102C5000144A656082F84910116D2468013182F8C8
:102C600048001165C4E88F3F85F31088BCE7304603
:102C7000BDE870401DF06EBB0DE100202CA00020CF
:102C8000C6E00020F0340020F8340020D0340020CA
:102C90000AE1002009E1002044A8002010350020AE
:102CA0009C9C0020142D002038B5494CD4E90032FA
:102CB000134300D138BD474B1D7805F0EDFD4FF4AF
:102CC0007A7200235DF01CF9D4E900239042994107
:102CD000F0D2002DEED0404C2378002BEAD13F4BB0
:102CE0001B78002BE6D13E4B1B88002BE2D13D4ADE
:102CF000D2E9003213430CD005F0CEFD4FF47A72C6
:102D000000235DF0FDF8374BD3E900239042994151
:102D1000D0D3082017F022F9334B1A6800BB9FED7F
:102D20002A7B304981ED007BEFF3108172B6D2E847
:102D3000CFEF5FF0010CBEF1000FF8D1C2E84ECF2B
:102D4000BEF1000FF3D1BFF35F8F0122274D596011
:102D5000EA701B682270C3E88F0F81F3108838BDBA
:102D6000012423490C70EFF3108172B6D2E8CFEF43
:102D70005FF0010CBEF1000FF8D1C2E84ECFBEF1FA
:102D8000000FF3D1BFF35F8FD3F800C05960174B2A
:102D90001A6D83F84840224483F849001A650023DD
:102DA000CCE88F3F81F3108805F076FD00234FF4C7
:102DB0007A725DF0A5F80B4B10F57A7041F10001C5
:102DC000C3E9000138BD00BF0000000000000000A2
:102DD000E8340020FFE0002002E1002007E10020AD
:102DE000C6E00020D83400209C9C0020142D002038
:102DF0000DE10020000000002DE9F043AFB005F028
:102E00004BFD4FF47A7200235DF07AF80025984B61
:102E1000984C1D70C4E9000105F03EFD4FF47A7234
:102E200000235DF06DF8034601249348934E1B1870
:102E3000934F41F10001716033603C700026002720
:102E4000904A914B2046C3E90067C2E9005595605E
:102E500016F070FE204616F033FE8C4B19780029D0
:102E600038D1582202A85DF00BF8894C894E8A4F60
:102E7000388838B19DF80830032B03D09DF80E50E8
:102E8000002D5FD02268EFF3108372B6D2E8CF0F27
:102E900001210028FAD1C2E8401F0028F6D1BFF373
:102EA0005F8F32780121032A18BF0222B17018BF48
:102EB0003270216800226360C1E88F2F83F310888D
:102EC0003B881BB9754B1B78002B35D001202FB0E8
:102ED000BDE8F0836E4C2268EFF3108372B6D2E83F
:102EE000CF0F01210028FAD1C2E8401F0028F6D1F7
:102EF000BFF35F8F674E5822314618A86360019375
:102F00005CF0E2FF664A777A11685068884681462D
:102F10002268C2E88F5F019B83F3108827B151EAD2
:102F2000000340F089800027582218A902A88DF8D4
:102F300069705CF0C9FF9AE7FFF7B6FE01202FB079
:102F4000BDE8F083574B18801DF004FA554B1B88E1
:102F5000002B00F0828005F09FFC4FF47A72002372
:102F60005CF0CEFF42F210720125821841F1000898
:102F70004FF0000EDFF868C14B4BCCE900014B4924
:102F8000C1E900284A4A15704A4A82F800E09A7955
:102F900062B1DA7952B91A7A42B993E8030018900B
:102FA00018A8ADF8641012F039F83F4B00259FEDDA
:102FB0002E7BC3E900551D723F4B404A83ED007BD9
:102FC0003F4B15605560C2F807503E4A83ED007BC9
:102FD0003D4B157031483D4A83ED007B3C4B294603
:102FE000057015703B484E2283ED007B3D805CF000
:102FF00047FF9FED1D7B384B83ED007B374B1D70EA
:10300000FFF7BCFB2268EFF3108372B6D2E8CF1F44
:1030100001200029FAD1C2E8410F0029F6D1BFF3FF
:103020005F8F022263603270B5802268B571C2E89A
:103030008F5F83F3108825E705F02EFC4FF47A723A
:1030400000235CF05DFFB0EB080061EB0901FB2899
:1030500071F10001BFF467AF66E7284629462A46AA
:10306000A84685E7AFF300800000000000000000E4
:1030700001E10020B0340020E0930400E834002097
:1030800006E10020909C0020D834002000E10020C0
:103090009C9C0020142D0020C6E0002007E10020A9
:1030A000B8340020C4E0002094A800200835002097
:1030B0000EE100200FE10020C03400202CA00020F1
:1030C000D03400200AE10020F034002009E1002083
:1030D000F834002044A80020103500200CE1002026
:1030E0000035002000000000794B1B7803B17047C9
:1030F000F0B5784C87B0D4E90032134301D107B062
:10310000F0BD754B06461D7805F0C6FB4FF47A728C
:1031100000235CF0F5FED4E90023904299412F464C
:10312000EDD2002DEBD06D4B1B78002BE7D16C4B13
:103130001B88002BE3D16B4B9B79002B40F0368131
:1031400000234FF0010C674D674CC5E900332B722B
:10315000306822682860B18885F806C0A980002AF6
:1031600000F0AD80614903E02268934280F0A780BF
:103170003046CDE9001310F037FB019B0099013375
:1031800006310028F0D1574BDF7159490B78002BDD
:1031900040F01481574C2368EFF3108272B6D3E8E5
:1031A000CF0F5FF0010C0028F9D1C3E840CF002811
:1031B000F5D1BFF35F8F00234F4D0B706260216824
:1031C000EB70C1E88F3F82F310889FED3F7BB288A0
:1031D0003068ADF80C20494A1946C2E90033C2F8FC
:1031E0000730474A02901370464A47481370474BCE
:1031F0004E2283ED007B464B83ED007B454B83EDF8
:10320000007B5CF03DFE00239FED2F7B344A138052
:10321000414A82ED007B414A1370414A1370226893
:10322000EFF3108172B6D2E8CFCF0120BCF1000FCE
:10323000F9D1C2E84C0FBCF1000FF4D1BFF35F8F9E
:10324000EA6C61600132EA642268C2E88F3F81F370
:1032500010880121224A02A81CF0FAFF002306462A
:10326000002861D105F018FB4FF47A7200235CF05E
:1032700047FE42F21073C0182A4B41F10001596019
:1032800018600123154A21681370EFF3108272B69B
:10329000D1E8CFCF0120BCF1000FF9D1C1E84C0F2C
:1032A000BCF1000FF4D1BFF35F8F134962600B7163
:1032B0000B702368C3E88F6F82F310881FE7002725
:1032C00061E700BFAFF300800000000000000000D5
:1032D00001E10020E8340020FFE0002007E10020A9
:1032E000C6E0002094A8002038A0002014A00020F0
:1032F00002E100209C9C0020142D00202CA0002026
:103300000AE1002009E1002044A80020D034002078
:10331000F0340020F8340020103500200CE10020AB
:103320000DE10020C0340020012226490A702268E5
:10333000EFF3108172B6D2E8CFCF0120BCF1000FBD
:10334000F9D1C2E84C0FBCF1000FF4D1BFF35F8F8D
:10335000022285F848202A6D2068013285F84960EC
:1033600061602A65C0E88F3F81F31088164A93791F
:103370005BB1D3794BB9137A3BB992E8030004905F
:1033800004A8ADF8141011F049FE00230F49104AAB
:103390000D480978C0E90033C2E900330372936035
:1033A00000293FF4ACAEFFF77FFCA8E630460649A3
:1033B00010F01AFA00287FF4C3AEE6E616F0ECFD32
:1033C0000449E7E60DE1002094A8002006E1002072
:1033D000909C002002E1002008B5104B1A7802B141
:1033E00008BD0F4804F0ECFD01220C4B0D491A708A
:1033F0000A8017F07DFF4FF400610B481CF0A2FE1D
:103400000A481CF0BFFE0A48084B436012F034F92A
:10341000BDE80840012016F045BA00BF00E10020D9
:103420009C9C0020142D002044A00020913B001003
:103430003CA00020D0ED017AB0EE677ABEEECC7AE7
:1034400038B5334BC27A197817EE103AB3F5807F4E
:10345000B8BF4FF48073B3F5007FA8BF4FF400737B
:1034600000294AD0002A29D04FF0000E294AD2F86C
:1034700000C0EFF3108172B6DCE8CF5F0124002DAD
:10348000FAD1CCE8454F002DF6D1BFF35F8FDFF8BE
:103490009CC05160ACF8003090F815C01E4BC07A4B
:1034A00083F800C01D4B126818700023C2E88F3FDC
:1034B00081F31088BEF1000F04D138BD184A92F88C
:1034C00000E0D3E74FF00005154C257005F0E4F956
:1034D0004FF47A7200235CF013FD124B124A1B78F2
:1034E000C2E900012570002BE7D0012016F022FB75
:1034F000BDE83840002016F0E3BADFF830C00649D6
:10350000407DACF80030054B08701A7038BD00BF24
:1035100000E100209C9C002003E1002005E1002048
:1035200001E10020FFE00020B03400200A2D00203F
:10353000044B1B7813B1044B1B780BB9184670472A
:10354000FFF75ABC00E10020FFE0002070B540F614
:10355000B734531E9BB2A34292B003D90024204635
:1035600012B070BD2D4B1B78002B54D02C4B1C6817
:10357000EFF3108C72B6D4E8CF5F5FF0010E002D30
:10358000F9D1C4E845EF002DF5D1BFF35F8FD3F833
:1035900000E0C3F804C0234B1C880023CEE88F3F13
:1035A0008CF31088054601911646002138220DF152
:1035B0000F005CF065FC019B04FB05F204FB03F1CA
:1035C00002F180031B0A8031090AFF2B28BFFF2369
:1035D000FF2928BFFF214FF0010503A88DF80C50EB
:1035E0008DF80D308DF80E10FFF7A4F90446002871
:1035F000B4D00D4B1D7005F04FF94FF47A720023D3
:103600005CF07EFC094B801941F10001C3E9000127
:10361000204612B070BD034B1C88C3E700E10020B8
:103620009C9C00200A2D002008E10020C8340020C6
:103630002DE9F0411546A4B007460E463B22002175
:1036400001A803F01F045CF01BFC8DF80A50012553
:103650004C4B8DF808701B788DF809608DF80C4084
:103660008DF807508DF80B50002B79D0FFF7D4F868
:103670000446002874D0444E3368002B70DA434B64
:103680004FF4C7721B680021002B0CBF4FF4CC70A5
:1036900000203F4B08BF01271844804618BF002771
:1036A0005CF0EEFB3B490A78501C087002F00F02F8
:1036B00001A910A803F03CFE4E2210A940465CF080
:1036C00003FC4FF4CC71324B4E2201FB0733312106
:1036D000C3F8902183F8945183F88E11376005F078
:1036E000DBF84FF47A7200235CF00AFC00222A4BCC
:1036F0002A4D1A709DF80F30C5E900017BB1284DA5
:103700000DF1100CBCE80F000FC5BCE80F000FC591
:103710009CE80F0007C51A0C25F8023B2A709DF89B
:10372000043013B3DFF878C00DF14305E646EB68CB
:1037300028686968AA681035AEE80F000DF17303B8
:103740009D420CF1100CF1D1AA6828686968ACE8B8
:103750000700AA89AB7BACF800208CF8023000E0AF
:103760000024204624B0BDE8F0819DF80730002BEE
:10377000D8D19DF80B30002BD4D19DF80D30002B03
:10378000EFD0CFE700E100200C2D0020102D00200D
:10379000A49C002004E1002001E10020B0340020BE
:1037A000D49F00202DE9F04104460125A4B03B221E
:1037B000002101A85CF064FB4A4B8DF80E401B7899
:1037C0008DF80D50002B7BD0FFF726F8044600281B
:1037D00076D0454E3368002B72DA444B4FF4C772F3
:1037E0001B680021002B0CBF4FF4CC700020404B15
:1037F00008BF01271844804618BF00275CF040FB33
:103800003C490A78501C087002F00F0201A910A868
:1038100003F08EFD4E2210A940465CF055FB4FF49C
:10382000CC71334B4E2201FB07333121C3F8902179
:1038300083F8945183F88E11376005F02DF84FF41A
:103840007A7200235CF05CFB00222B4B2B4D1A702C
:103850009DF80F30C5E900018BB1DFF8A4C004ADBD
:103860000FCDACE80F000FCDACE80F0095E80F00CE
:10387000ACE807001A0C2CF8023B8CF800209DF8ED
:10388000043013B3DFF878C00DF14305E646EB686A
:1038900028686968AA681035AEE80F000DF1730357
:1038A0009D420CF1100CF1D1AA6828686968ACE857
:1038B0000700AA89AB7BACF800208CF8023000E04E
:1038C0000024204624B0BDE8F0819DF80730002B8D
:1038D000D8D19DF80B30002BD4D19DF80D30002BA2
:1038E000EFD0CFE700E100200C2D0020102D0020AC
:1038F000A49C002004E1002001E10020B03400205D
:10390000D49F002018B12F2902D0002070477047A3
:1039100000230122844630B591B0CDE901330393F1
:1039200004AC8DF80F2000F12005A646DCF800005D
:10393000DCF80410DCF80820DCF80C300CF1100C7A
:10394000AC45AEE80F0004F11004EED1DCF808201D
:10395000DCF80000DCF80410AEE80700BCF80C301E
:10396000AEF80030164B9CF80E201B788EF8022023
:1039700013B3144B1968EFF3108272B6D1E8CFCFAE
:103980000120BCF1000FF9D1C1E84C0FBCF1000FD0
:10399000F4D1BFF35F8F0C4918685A60097800238F
:1039A000C0E88F3F82F3108804A803F053FD01A8FC
:1039B000FEF7C0FF11B030BD034B1978F4E700BF2C
:1039C00000E100209C9C002003E100202DE9F04153
:1039D00082B00E46054603F03FFEC1B200295BD11E
:1039E000334B1B78002B57D00191FEF715FF04468F
:1039F000002851D02F4B1B68002B4DDA2E4B2F483F
:103A00001B684FF4C772002B0CBF4FF4CC7300231C
:103A10000199184498460CBF012700275CF030FA42
:103A2000012E034632463CDD29465CF035FA03465A
:103A3000234D03F10D0CAE460CF1100CBEE80F0047
:103A40004CF8043C1F4B10359E454CF8100C4CF8BC
:103A50000C1C4CF8082CEED14FF4CC722B461749B5
:103A600002FB071E07CBCCF80000CCF80410CCF802
:103A700008201A889B78ACF80C208CF80E300D4B7F
:103A8000CEF890611F604FF036038EF88E314FF004
:103A900001038EF8943100E00024204602B0BDE816
:103AA000F081C5D12A78054901F80820C0E700BF98
:103AB00000E100200C2D0020102D0020A49C0020EF
:103AC000D49F002004A000202DE9F0412A4B044699
:103AD000197896B069B958225CF0D2F9FF232046D4
:103AE0002649274A84F83830C4E9041216B0BDE8E4
:103AF000F081244B1A68EFF3108572B6D2E8CF0F2D
:103B000001210028FAD1C2E8401F0028F6D1BFF3F6
:103B10005F8F582268461C495D605CF0D5F91B4AEE
:103B20001949D2E90067174B4A7A002090461B6872
:103B3000C3E88F0F85F3108822B156EA07030CD132
:103B40004FF000085822694620468DF809805CF045
:103B5000BBF9204616B0BDE8F08104F09DFE4FF49D
:103B60007A7200235CF0CCF9801B61EB0701FB2823
:103B700071F10001E4D2E5E700E1002001808080DE
:103B8000800000089C9C0020142D0020B8340020E8
:103B9000042800D07047002AFCD02DE9F0471546D4
:103BA00012780446602A9CB000F0B3800FD8162A21
:103BB00000F0DB81332A00F0B281072A04D1A24C45
:103BC000A27A002A40F004821CB0BDE8F087DD2A0A
:103BD00000F07081EF2A00F01D81DC2AF4D19B4BAC
:103BE0001B78002BF0D09A4B1B78002BECD12B7C50
:103BF000002B41F02F806B7E002B00F0B987A87E50
:103C0000082840F2B58705F11B04234605F113028D
:103C100002EB000E13F8012B02F12001C9B2A2F150
:103C2000410CBCF1190F98BF0A46642A40F0748712
:103C30001A7802F12001C9B2A2F1410CBCF1190FAE
:103C400098BF0A46752A40F067875A7802F120012A
:103C5000C9B2A2F1410CBCF1190F98BF0A46612A02
:103C600040F05A879A7802F12001C9B2A2F1410CC2
:103C7000BCF1190F98BF0A466C2A40F04D87DA78DC
:103C800002F12001C9B2A2F1410CBCF1190F98BF99
:103C90000A46732A40F040871A7902F12001C9B21E
:103CA000A2F1410CBCF1190F98BF0A46652A40F0F9
:103CB00033875A7902F12001C9B2A2F1410CBCF15B
:103CC000190F98BF0A466E2A40F026879A7902F1AA
:103CD0002001C9B2A2F1410CBCF1190F98BF0A46EC
:103CE000732A40F01987DA7902F12001C9B2A2F1F2
:103CF000410CBCF1190F98BF0A46652A40F00C87A9
:103D0000A81C062206A90FF0C3FD06A8FFF7ECF9D0
:103D10005AE7AD78022D00F03D82002D7FF454AFBC
:103D20009FED477B4B4B4C4A1D605D60C3F80750CD
:103D30004A4B157083ED007B494B4A4A83ED007B6B
:103D4000494B15701D70494B494A1D70404B82ED1F
:103D5000007B1D70474B3D491D80474B474A1D80E6
:103D6000474B82ED007B1D70464B4E221D70464B2B
:103D70000D7083ED007B454B294683ED007B444B62
:103D8000444883ED007B444B83ED007B5CF078F886
:103D90009FED2B7B414A424B424915709A7981ED48
:103DA000007B6AB1DA795AB91A7A4AB993E8030002
:103DB000069006A80093ADF81C1011F02FF9009B97
:103DC0000024394AC3E900441C721470FEF7D6FC83
:103DD0001D4B364AC3E9004410689C60EFF3108124
:103DE00072B6D0E8CF5F0123002DFAD1C0E8453F7D
:103DF000002DF6D1BFF35F8F2D4B10685160C3F8D3
:103E00000140A3F805401C811C70C0E88F4F81F36E
:103E10001088D9E6AA78531E0C2B00F29381DFE8B4
:103E200013F08F021C05F30391019101910191019F
:103E3000180691019101F5058D041D04AFF3008072
:103E40000000000000000000909C002006E100201F
:103E500007E100202CA00020FFE00020D03400204B
:103E6000F034002002E100200AE1002009E10020F6
:103E7000E8340020C6E00020C4E00020F834002030
:103E80000EE100200FE10020003500200835002061
:103E9000C034002044A80020D83400200CE10020C9
:103EA00094A80020103500200BE100209C9C0020ED
:103EB000142D0020AD4A1368EFF3108172B6D3E8D9
:103EC000CF4F0120002CFAD1C3E8440F002CF6D1CB
:103ED000BFF35F8F0023A64CA64851602370126881
:103EE000C370C2E88F3F81F31088A34B1B78002B6F
:103EF0003FF46AAEA14B1B78002B7FF465AEA04C5B
:103F0000A37A1BB1E37A002B00F0B6860023C4E944
:103F10000033A3601CB0BDE8F047FEF7C5BE994C66
:103F2000062206A9A81C0FF0B3FCD4E90032134303
:103F300006AE40F0F980944D2B68002B00F06F86A0
:103F40000023924C03E02A68934280F06886214661
:103F5000304600930FF048FC009B063401330028E4
:103F6000F1D1304616F0BEF82EE6864C062206A9A0
:103F7000A81C0FF08DFCD4E90032134306AE1AD111
:103F8000814D2B68002B00F0458600237F4C03E019
:103F90002A68934280F03E862146304600930FF017
:103FA00023FC009B063401330028F1D130467849C8
:103FB00016F052F808E604F06FFC4FF47A72002312
:103FC0005BF09EFFD4E9002390429941D8D2EDE7FF
:103FD00006A9E81C062200930FF05AFC214606A809
:103FE0000FF002FC00287FF4EFADAA78002A40F021
:103FF0000986009B092B40F2058605F10801093B63
:1040000011F8010F002800F0B78601329A42F7D16B
:10401000082B40F2F7856A1CD01805F1090605F156
:10402000090212F8011B01F1200C5FFA8CFCA1F1CE
:10403000410EBEF1190F98BF6146642940F0B78563
:10404000117801F1200C5FFA8CFCA1F1410EBEF158
:10405000190F98BF6146752940F0A985517801F183
:10406000200C5FFA8CFCA1F1410EBEF1190F98BF34
:104070006146612940F09B85917801F1200C5FFA3F
:104080008CFCA1F1410EBEF1190F98BF61466C295D
:1040900040F08D85D17801F1200C5FFA8CFCA1F104
:1040A000410EBEF1190F98BF6146732940F07F851C
:1040B000117901F1200C5FFA8CFCA1F1410EBEF1E7
:1040C000190F98BF6146652940F07185517901F15A
:1040D000200C5FFA8CFCA1F1410EBEF1190F98BFC4
:1040E00061466E2940F06385917901F1200C5FFAF9
:1040F0008CFCA1F1410EBEF1190F98BF61467329E6
:1041000040F05585D17901F1200C5FFA8CFCA1F1CA
:10411000410EBEF1190F98BF6146652940F04785F1
:104120001748FEF7E1FF4FE504F0B6FB4FF47A7253
:1041300000235BF0E5FED4E9002390429941FFF4AF
:1041400010AFF8E6083A052A3FF63EAD01A353F852
:1041500022F000BF674A0010C93B0010C93B0010A5
:10416000214A001051470010714600109C9C00200D
:1041700002E10020142D002006E1002007E10020CC
:10418000909C0020E834002038A0002014A00020DB
:10419000740306104FF00001934A9FED917B11705C
:1041A00000220F460125914B91491A605A60C3F8CD
:1041B0000720904B4E2283ED007B8F4B0D701F70BC
:1041C0008E4B002183ED007B8D4B8E4883ED007B71
:1041D0008D4B83ED007B8D4B83ED007B8C4B83ED12
:1041E000007B8C4B1F708C4B1F705BF049FE9FED6A
:1041F0007C7B8A4B83ED007B894B1F70894B1F7042
:1042000004F04AFB4FF47A7200235BF079FE00223F
:10421000854B9FED737BC3E90001844B1221C3E9F9
:10422000002200221F72824B0846C3E900229A60D6
:10423000804B1A80804B1F70804B1F70804B83ED2A
:10424000007B804B83ED007B15F0D2FF284615F0F4
:10425000DFFF284615F06EFC7B4B00201D7015F02B
:104260002FFC7A4815F036FE42F2085015F0FEFA9F
:10427000052015F009FB002015F068FF032011F060
:10428000A3FD002011F0A8FD714B1968EFF3108217
:1042900072B6D1E8CFCF0120BCF1000FF9D1C1E84F
:1042A0004C0FBCF1000FF4D1BFF35F8F19685A6057
:1042B000684B0020C3F801501C70C1E88F0F82F3D7
:1042C0001088654B654D0446C3E90000C3E9020050
:1042D000C3E904002860039003A810F0D9FE002869
:1042E00000F0A5844FF00003CDE907440694049440
:1042F000ADF80A30ADF8143009942B68032B00F2A6
:1043000093840DF10A0306AA04A903A810F0CCFEB9
:10431000002800F089842B6873B100234E4C21469D
:1043200004A800930FF060FA009B063401330028C4
:10433000E3D02A689342F2D304A8FEF7BDFADCE783
:10434000032128460FF05AFA3A4B1B8813B19842C2
:104350003FF43AAC032128460FF050FA6C7B8046BC
:10436000002C7FF431AC681D3C4D062206A9069452
:10437000ADF81C400FF08CFA2B6806AE1F46002BE0
:1043800000F0E686344903E02B689C4280F06585A6
:10439000304600910FF028FA0099013406310028C8
:1043A000F2D1144CD4E90032134340F0CE864FF0E2
:1043B00001091E4B9A79002A40F0E2850121002272
:1043C0009971D6E9000199802968A3F8072018603F
:1043D000002900F0A585204C46E000BFAFF3008027
:1043E000000000000000000002E100202CA00020DE
:1043F000FFE00020E834002006E10020C034002067
:10440000D834002044A80020D0340020F03400200C
:10441000F83400200AE1002009E1002010350020D6
:104420000CE1002001E10020B034002094A800201D
:10443000909C0020C4E000200EE100200FE100204D
:1044400000350020083500200BE100206003061035
:104450009C9C0020142D002014A0002038A00020D7
:104460002868824280F05C8521463046CDE90023F1
:104470000FF0BAF9009A019B013206340028EFD1FF
:104480000122DA7104F008FA4FF47A7200235BF02B
:1044900037FD0022964B974C1A70974BC4E90001E8
:1044A0001B78002B40F07785944D2B68EFF310823A
:1044B00072B6D3E8CF0F01210028FAD1C3E8401F1C
:1044C0000028F6D1BFF35F8F00238D4C8A49274621
:1044D0000B706A602968E370C1E88F3F82F310882F
:1044E000884A137092462B68EFF3108272B6D3E8B5
:1044F000CF0F01210028FAD1C3E8401F0028F6D1D0
:10450000BFF35F8FE36C6A600133E364B9F1000FBE
:1045100002D0636D0133636500232968C1E88F3FD2
:1045200082F3108801249FED707B774A1946C2E917
:104530000033C2F80730754A7548A2F80080754A02
:104540001470754A1370754A1370754B4E2283EDC3
:10455000007B744B83ED007B734B83ED007B5BF042
:104560008FFC9FED617B0023704A286882ED007B01
:104570006F4A1370EFF3108172B6D0E8CFEF5FF09F
:10458000010CBEF1000FF8D1C0E84ECFBEF1000F14
:10459000F3D1BFF35F8F286869603C71C0E88F3F3B
:1045A00081F31088404621461BF0F2FD00230646A9
:1045B000002840F092845E4A147004F06DF94FF4C4
:1045C0007A7200235BF09CFC42F21073C018594BC6
:1045D00041F100012A6818605960EFF3108372B648
:1045E000D2E8CF0F01210028FAD1C2E8401F0028ED
:1045F000F6D1BFF35F8F2A686B603C70C2E88F6FA3
:1046000083F31088FFF7E0BA032128460FF0F6F88D
:10461000494B1A8812B1904200F06E82032128465D
:104620000FF0ECF8394B1B8813B198427FF4CCAAF9
:1046300006A8FFF749FA334B9A461B784BB99DF809
:104640001C30002B40F026849DF81830012B00F020
:1046500021841CB0BDE8F047FEF70ABA03212846C2
:104660000FF0CCF8344B1B8813B198423FF4ACAA3E
:104670006B79002B40F05A83204D214F2968EFF3CE
:10468000108272B6D1E8CF4F0120002CFAD1C1E8D8
:10469000440F002CF6D1BFF35F8FB3FA83F46409A3
:1046A000002128686A607C71C0E88F1F82F310883F
:1046B000002B7FF489AA14494A7A0E46002A40F05A
:1046C000BA8301224B600B728B72327004F0E4F8F3
:1046D0004FF47A7200235BF013FC114CC4E9000123
:1046E000FFF772BAAFF30080000000000000000086
:1046F00001E10020B034002002E100209C9C002059
:10470000142D00200DE100202CA00020C6E0002088
:1047100044A8002007E100200AE1002009E1002070
:10472000D0340020F0340020F83400201035002070
:104730000CE10020C0340020C4E000200321284602
:104740000FF05CF89C4B1B8813B198423FF43CAAD5
:10475000052128460FF052F800283FF435AAEB79DE
:10476000A12B00F03C834E210022012B00F0DB83C3
:10477000312B7FF429AA88427FF426AA0246E91D3C
:1047800006A802F055FD069A002A40F008848B4BDB
:1047900099790E4621B11C7A002C00F0B784164698
:1047A000874CD4E90032134340F04584854D864F51
:1047B0002B68EFF3108172B6D3E8CF0F01220028E7
:1047C000FAD1C3E8402F0028F6D1BFF35F8F069AD5
:1047D0006960002A40F0E68301207C4B197858720A
:1047E000022902D006211A7219709FED717B784B55
:1047F000784C83ED007B04F04FF84FF47A7200237D
:104800005BF07EFB0123C4E90001BB7100213B7218
:1048100003239FED677B704A704C0DF11C0C1170E7
:104820003B70BCE80F000FC4BCE80F000FC49CE84D
:104830000F0007C424F8023B1B0C23703B6C0133B0
:104840003B64674B83ED007B00232A68C2E88F3FFF
:104850006B6883F31088FFF7B7B9032128460EF081
:10486000CDFF554B6C791A8812B1904200F041810E
:10487000002C40F00F8204F00FF84FF47A720023FE
:104880005BF03EFB544B06AE1C70524BC3E900017B
:10489000032128460EF0B2FF06220146514BA8180C
:1048A000198006943146B4800EF0F2FF434B9A799A
:1048B000002A40F0B682D6E90001002418600120E9
:1048C000494D99802A68A3F807409871002A00F0A2
:1048D0005682464903E02A68944280F0508230466E
:1048E000CDE900130EF080FF0099019B01340631E1
:1048F0000028F0D10122DA7103F0CEFF4FF47A7272
:1049000000235BF0FDFA42F210730022384DC0180C
:104910002A70334C2B4D41F10001C4E90001296894
:10492000EFF3108372B6D1E8CF4F0120002CFAD1FB
:10493000C1E8440F002CF6D1BFF35F8F2249204C11
:104940000F460A71D4E9001001436B6040F0758294
:1049500000240121BA70A7F805402A683970C2E81E
:104960008F4F83F31088FDF709FF9FED117B174BE5
:10497000204A1C605C60C3F807401F4B82ED007B3F
:104980001E49134A1C701E4B81ED007B82ED007B9B
:1049900021464E221B481C705BF072FA9FED047B8F
:1049A000194B83ED007BFFF70FB900BFAFF3008019
:1049B0000000000000000000C4E0002094A80020D7
:1049C000E83400209C9C0020142D00202CA0002006
:1049D000F8340020B034002001E10020242D002014
:1049E000C0340020C6E0002038A0002014A0002021
:1049F00007E10020D03400200AE10020F03400203C
:104A000009E1002044A80020103500200321284699
:104A10000EF0F4FEB14B1B8813B198423FF4D4A8BA
:104A20000023AF496A790B7022B1AE49088800288B
:104A300040F0A78103F030FF4FF47A7200235BF05F
:104A40005FFAA94C193041F10001C4E90001FFF7F8
:104A5000BBB8032128460EF0D1FEA04B1B8813B132
:104A600098423FF4B1A8032128460EF0C7FE9D4BA3
:104A70001B8883427FF4A8A89C4B1A781E46022A02
:104A800017467FF4A1A8002000216A7993F80880D6
:104A9000974B012AC3E9000140F09C82717A954B43
:104AA00019B91878032840F2758328460621CDE904
:104AB00000230EF0A3FEDDE9002317468E4A17708F
:104AC00000223178022940F09B82317A414540F042
:104AD0000C830020717A3072002900F030830622A6
:104AE0001870327000200021844BC3E90001FFF7E9
:104AF0006BB8002C00F07A810022002000211A807F
:104B00007F4B804CC3E900017F4D804B2A7022709F
:104B1000C3E90001FFF758B89E457FF47BA812282F
:104B200026D905F12D0C26187948ACF1130402E0C2
:104B3000A4453FF4E5A814F8013F027803F12001F1
:104B4000A3F1410EC9B2BEF1190F98BF0B4602F195
:104B50002001A2F1410EC9B2BEF1190F98BF0A4659
:104B60009A4200F10100E3D00CF1010C6645DBD163
:104B7000684CA37A002B7FF427A8092128460EF061
:104B800043FE00F4F853B3F5A06F7FF41DA806228E
:104B90002146A81C0EF07CFE2B7A0C212846A3711E
:104BA0000EF02CFE012320816381FFF70DB89042A7
:104BB0007FF437AA122B25D905F11B021E44544D50
:104BC000A2F1130C02E094453FF4AAAA1CF8013F9D
:104BD000297803F12000A3F1410EC0B2BEF1190FF4
:104BE00098BF034601F12000A1F1410EC0B2BEF111
:104BF000190F98BF0146994205F10105E3D0013232
:104C0000B242DCD10023C4E90033A360FEF74CF8C4
:104C1000FEF7DABF304615F04BFAFEF7D5BF304647
:104C200015F07AFAFEF7D0BF03A810F051FA2B68FE
:104C3000002B7EF4C9AF384B1B78002B3EF4C4AF79
:104C4000364B1B78002B3EF4BFAF1CB0BDE8F047DD
:104C5000FEF7D2B8132128460EF0D0FD15210446E8
:104C600028460EF0CBFD0146204602F057F90028F9
:104C70003EF4C1AFFFF744B8012322892046A17951
:104C800042F40042E37215F0C5F900283EF49CAFEF
:104C9000FFF73CB901202249224A08701368EFF35C
:104CA000108172B6D3E8CF5F0120002DFAD1C3E89E
:104CB000450F002DF6D1BFF35F8F04251A4B106806
:104CC00051601A6D83F8494001321A6583F84850E3
:104CD0000022C0E88F2F81F31088BAE4C4E00020DE
:104CE0000CE10020C6E00020D03400202CA00020E1
:104CF000F03400200AE1002009E10020F83400200F
:104D0000003500200EE100200FE1002008350020D2
:104D10007C030610909C002000E10020FFE00020B2
:104D20000DE100209C9C0020142D002001209F4DAF
:104D30009F492A680870EFF3108172B6D2E8CF4F0E
:104D40000120002CFAD1C2E8440F002CF6D1BFF3A9
:104D50005F8F984806240646026D074601320265B9
:104D600080F8493000222868696086F84840C0E829
:104D70008F2F81F3108881E41346FFF749B9002291
:104D8000B9E54FF0010C8A4C884884F800C00568EA
:104D9000EFF3108472B6D5E8CFEF5FF0010CBEF1EF
:104DA000000FF8D1C5E84ECFBEF1000FF3D1BFF32D
:104DB0005F8F4FF0050C056844607E4880F84920FD
:104DC000026D80F848C001320265C5E88F3F84F368
:104DD000108808881CB0BDE8F0471BF0BBBA01285A
:104DE0003EF4F2AE4F2101222B7ABEE403F054FDD3
:104DF0004FF47A7200235BF083F84FF0010C42F21B
:104E000010736D4A1B1882F800C06C4A6C4D136019
:104E10006C4B696041F10001286051601C70FEF725
:104E2000D3BE1946304600930EF0DEFC009B0028EE
:104E30007FF441AD60E5062247E403F02DFD4FF419
:104E40007A7200235BF05CF82368626898429141B3
:104E500034BF012200226B687AE55B4CD4E9003252
:104E6000134312D04FF0000903F016FD4FF47A728D
:104E700000235BF045F8D4E9002390429941FFF408
:104E800098AAB9F1000F7FF492AA40461BF0A6F948
:104E9000FEF79ABE012245498AF800200B68EFF31D
:104EA000108072B6D3E8CF4F0122002CFAD1C3E8AC
:104EB000442F002CF6D1BFF35F8F08243D4B486090
:104EC0001A6D096801321A65A3F848400022C1E84A
:104ED0008F2F80F31088FFF7BCBB2A688AF8004048
:104EE000EFF3108172B6D2E8CF4F0120002CFAD137
:104EF000C2E8440F002CF6D1BFF35F8F3A6D2868EB
:104F000001323A65032287F84960696087F84820D2
:104F1000C0E88F3F81F31088FDF7AAFDFEF754BE6D
:104F20000022FFF7AEBA0A3282427EF44DAE03F0A1
:104F3000B3FC4FF47A7200235AF0E2FF0024234DB1
:104F40001A4AC5E90001224913680C70EFF3108179
:104F500072B6D3E8CF5F0120002DFAD1C3E8450F28
:104F6000002DF6D1BFF35F8F12485160436C126879
:104F700001334364C2E88F4F81F31088FEF724BEEB
:104F80001946304600930EF02FFC009B00287FF45A
:104F900015AAFFF777BA14F0FFFFFFF785BA0026CE
:104FA000FFF7FEBB7B6C01337B644DE49C9C0020CF
:104FB0000DE10020142D00200EE100200835002016
:104FC000003500200FE10020E8340020B03400203C
:104FD00001E100200621284600920EF00FFC009A05
:104FE000002A40F0DA80B8F1050F00F08280B8F1B5
:104FF000090F7DD0B8F1200F00F0D180694B5DE53D
:105000000020062918703FF46DAD002A3FF412AD60
:105010000022654B654C1A7003F03EFC4FF47A7227
:1050200000235AF06DFF10F5FA7041F10001C4E958
:105030000001FEF7C9BD03F02FFC4FF47A72002384
:105040005AF05EFFD4E9002390429941BFF4AEAB21
:10505000002E3FF4ABAB002300200021544A554DF5
:10506000C2E900339360544A2B701378534AC4E961
:105070000001C2E90001002B40F08980504D2A68F0
:10508000EFF3108372B6D2E8CF0F01210028FAD1D6
:10509000C2E8401F0028F6D1BFF35F8F0024494EBD
:1050A000454937462A686B600C70F470C2E88F4F30
:1050B00083F31088204614F003FD2A68EFF3108371
:1050C00072B6D2E8CF0F01210028FAD1C2E8401F02
:1050D0000028F6D1BFF35F8F2A686B60B470C2E816
:1050E0008F4F83F31088FFF763BB002119708CE7A3
:1050F0000122354B53F8223098427FF47FAF2B7A50
:1051000043457FF47BAF0122264BDAE42F49304D33
:1051100009E03048CDE900130EF066FB0099019BD1
:10512000063140B101342A689442F2D329480093F1
:10513000FDF7C2FB009B01221A72FFF731BBEAB1F7
:105140000322B1721970327062E74FF001098BE6E9
:10515000214CD4E9003213433FF497AE03F09CFB9B
:105160004FF47A7200235AF0CBFED4E90023904228
:105170009941BFF48AAEB946FFF71BB971681A703E
:105180000131022998BF01247160347052E414F097
:1051900003FF73E7317232704CE4024B8DE43A4600
:1051A000A7E700BF0AE1002009E10020F834002051
:1051B000909C002006E1002002E10020D83400206D
:1051C0009C9C0020142D0020404D061014A00020AF
:1051D00038A0002094A80020E8340020000000003F
:1051E0002DE9F04F9D4CADB0237813B92DB0BDE83B
:1051F000F08F9B4D2B7823B19A4B1B88002B40F0EE
:105200005981994B99491A780D88002A00F0E58157
:10521000DDB10022DFF864821A70954B1B78002BF9
:105220003ED103F039FB00234FF47A725AF068FE46
:10523000904D0F462B788146013B032B30D8DFE899
:1052400013F0990239021602CF028B4A1278002A13
:1052500000F0E381894A90461278002A40F00582E6
:1052600087490978002940F05782122108461D70AD
:1052700014F0BEFF012014F0CBFF2846814D14F03E
:1052800059FC012014F056FCD5E90032134340F0DC
:105290006483002014F014FC744B1D88002DBCD1D5
:1052A0002378002B00F09681774B1968EFF310827A
:1052B00072B6D1E8CF5F0120002DFAD1C1E8450FC9
:1052C000002DF6D1BFF35F8F19685A606F4B1E78BF
:1052D0000023C1E88F3F82F3108898F80050002D1A
:1052E00084D126B1614B1B88002B40F0CF82654DE5
:1052F000D5E90032134319D003F0CEFA4FF47A7295
:1053000000235AF0FDFDD5E900239042994180F039
:10531000108103F0C1FA4FF47A7200235AF0F0FDC5
:10532000D5E9002390429941C0F0FB80584DD5E962
:105330000032134340F05781564B1B782BB1564D2A
:10534000D5E90032134340F06C81544D2B68002B9B
:10535000FFF64CAF2378002B3FF448AFFDF75CFA23
:1053600000283FF443AF4E4C2368002B0DDB03F0C5
:1053700093FA4FF47A7200235AF0C2FD494BD3E9F5
:10538000002390429941FFF431AF384A2B681088CE
:105390004FF4CC7202FB03F21E46434B99180132C4
:1053A0001A44D1F8903191F88E11013B9BB21BF059
:1053B0000BFE022800F0EE8200287FF417AF23686E
:1053C000834206DB4FF4CC71374A01FB032383F899
:1053D00094014FF0FF3326602B6003F05DFA4FF429
:1053E0007A7200235AF08CFD4FF4CC732E4A0430AD
:1053F00003FB062494F88E312A4D41F10001362B2F
:10540000286069607FF4F2AE1F4C2368EFF31082CE
:1054100072B6D3E8CF0F01210028FAD1C3E8401FAC
:105420000028F6D1BFF35F8F40F201111F4B62607D
:10543000DA6819810132DA6003F02EFA4FF47A72D9
:1054400000235AF05DFD1A4D0023C5E900012268D2
:10545000C2E88F3F636883F31088C7E600E100204D
:105460000EE10020C4E000200BE10020C6E0002097
:105470000CE100202CA00020FFE0002001E1002032
:1054800007E10020E83400209C9C002005E100207A
:10549000C034002008E10020C83400200C2D00207A
:1054A000102D0020E0340020A49C0020142D0020AA
:1054B000B834002003F0F0F99B4B1B78272B1F46D4
:1054C0002CD84FF47A7200235AF01AFD974BD3E987
:1054D0000023904271EB030320D2954AD2E9006386
:1054E000B04271EB0303FFF48CAE10F1FA03914E5E
:1054F0008D48136007F101030370308841F100010A
:10550000019051601AF026FF3388019883427FF49E
:1055100078AE854B1B78272B7FF673AE00232B705C
:105520006FE6854B1B78002B7FF400AFFDF7BCFBCB
:10553000FCE600239FED7A7B804A81498148C2E9DD
:105540000033037093600B7885ED007B002B40F0F7
:1055500099817D4D2B68EFF3108272B6D3E8CFCFDF
:105560000120BCF1000FF9D1C3E84C0FBCF1000FD2
:10557000F4D1BFF35F8F0020744B08706A60296814
:10558000D870C1E88F0F82F3108814F099FA296857
:10559000EFF3108272B6D1E8CFEF5FF0010CBEF1ED
:1055A000000FF8D1C1E84ECFBEF1000FF3D1BFF329
:1055B0005F8F664B002019789870022908BF04217C
:1055C0006A6008BF197000232968C1E88F3F82F321
:1055D0001088ABE65E4B1E787FE6DFF89481002DE5
:1055E0007FF41BAE5CE603F057F94FF47A720023A8
:1055F0005AF086FCD5E9002390429941FFF49CAE15
:1056000016A8FEF761FA9DF85E30002B00F04B8182
:1056100000220023C5E900238EE6DFF854811A70CA
:105620003EE603F039F94FF47A7200235AF068FC31
:10563000D5E9002390429941FFF487AE3A22002138
:105640000DF159005AF01CFC012316A88DF85830B2
:10565000FDF770F900283FF478AE00233D4A13703F
:1056600000220023C5E900236FE61D7018E63A4AC0
:10567000D2E9001351EA030C3FF412AE884277EBF3
:105680000303FFF40DAE9FED267BAB7A82ED007B2A
:10569000002B40F05D826A682B720132022A6A6038
:1056A0008CBF042201222A702C4AC2E900072C4A2E
:1056B0001370F5E52B4BD3E9001251EA020C3FF4CD
:1056C000EFAD884277EB0202FFF4EAAD264B2E7A6B
:1056D00018881BF0B1FC002840F04F8208219FED94
:1056E000107B224A1F4B11702A7883ED007B022A1F
:1056F00009D12B7AB34206D16B7A2872002B00F0C5
:105700006F8206232B700022144B19F1190047F108
:105710000001C3E90001124B1A70C1E5AFF300802C
:1057200000000000000000000FE10020083500200C
:1057300000350020C4E0002007E10020909C0020FC
:1057400002E1002006E100209C9C0020142D002096
:1057500005E1002008E10020F8340020D0340020CA
:105760000AE10020F0340020C6E0002009E100201A
:1057700001E10020AC4B9B46D3E90023904271EB42
:105780000303FFF48DAD6A68022A3FF689ADA74B8B
:105790009A5C002A3FF484ADA548019201788246C4
:1057A00001310170A348032100881BF0E1FB019A3D
:1057B0009E4B002800F0E9819F490228087000F004
:1057C000A18119F1190C47F1000E0C2840F0CB8192
:1057D0009AF80010032900F2C681CBE900CE5FE5FC
:1057E000914B9B46D3E90023904271EB0303FFF4F6
:1057F00057AD8F4B19789A46002900F037818D48B4
:1058000001318AF800104D2331218C4A00881BF0A9
:10581000DBFB002800F0E580874B0228187000F0C1
:1058200071810C2800F038812A788549042A04BF48
:1058300005222A700A78002A00F03D8100219FEDA0
:10584000787BC5E900111970C5F807107D4B794DBB
:105850007D4E4E227D4883ED007B8BED007B86EDF7
:10586000007B2D888AF800105AF00AFB9FED6C7BB4
:10587000774B83ED007B002D3FF412AD28461AF0E4
:1058800069FD0DE514F088FB724962E616A8FEF783
:105890001BF99DF85830032B35D098F80030002BB9
:1058A0003FF425ADA2E4634A1288002A3FF444ADD8
:1058B00000200021C5E9000101256148664A057004
:1058C0001168EFF3108072B6D1E8CFCF0125BCF19B
:1058D000000FF9D1C1E84C5FBCF1000FF4D1BFF368
:1058E0005F8F0721156850605C4AA2F84810116D5F
:1058F00001311165C5E88F3F80F310884D4B188842
:105900001AF028FD18E59DF85E30002BC5D0544AEA
:10591000D2E900321343C0D002F0BEFF4FF47A72D6
:1059200000235AF0EDFA4EF66023A6FB03324C4EEC
:105930003768D6F804C0C01B61EB0C019842914156
:10594000ABD301233B49474A0888157088F80030DB
:105950002DB0BDE8F04F1AF0FDBC434B1E7802F0AD
:105960009BFF4FF47A7200235AF0CAFAD5E900235C
:1059700090429941BFF48DAC002E3FF48AAC0120D7
:1059800014F09EF8FDF790F92A4B1D88002D7FF446
:1059900044AC85E401202A492F4A08701368EFF3CC
:1059A000108072B6D3E8CF4F0121002CFAD1C3E8A2
:1059B000441F002CF6D1BFF35F8F40F20525274B23
:1059C0005060196D0024013112681965A3F8485020
:1059D000C2E88F4F80F310882DB0BDE8F04FFDF77F
:1059E00047B82B78042B03D10123AB7203232B7010
:1059F0000023144A8AF8003019F57A73136047F1CE
:105A00000001134B516019F104021A6047F10002C2
:105A10005A6000220023CBE9002341E4AFF3008069
:105A20000000000000000000D03400204C4D0610A3
:105A30000AE10020C6E0002009E1002045A800207E
:105A40000DE10020F8340020F034002044A80020AC
:105A50001035002002E100209C9C0020142D002025
:105A6000B034002008E10020FFE000203B2216A80F
:105A70005AF006FA5F4B02A81A78511C197002F00E
:105A80000F0216A901F054FC02A94E225A485AF0FE
:105A90001BFA9AF80010B2E69AF80020032A3FF6A3
:105AA000C3AE19F11903CBF8003047F10003CBF86E
:105AB0000430FFF7F5BB4FF0010C81F800C04F49EF
:105AC000D1F800E0EFF3108C72B6DEE8CF7F01264C
:105AD000002FFAD1CEE8476F002FF6D1BFF35F8FCA
