:020000041000EA
:10000000002008205B0100101B0100101D010010E2
:100010001101001011010010110100101101001058
:100020001901001019010010190100101F01001022
:10003000110100101901001021010010230100100E
:100040001101001011010010110100101101001028
:100050001101001011010010110100101101001018
:100060001101001011010010110100101101001008
:1000700011010010110100101101001011010010F8
:1000800011010010110100101101001011010010E8
:1000900011010010110100101101001011010010D8
:1000A00011010010110100101101001011010010C8
:1000B00011010010110100101101001011010010B8
:1000C00011010010110100101101001011010010A8
:1000D0001101001011010010110100101101001098
:1000E0001101001011010010110100101101001088
:1000F0001101001011010010110100101101001078
:100100001101001011010010110100101101001067
:10011000EFF30580103800BE00BE00BE00BE00BE7A
:1001200000BE00BEF2EB887118880A1038880A10E9
:100130009C01001090A31AE7D3DEFFFF42012110BB
:10014000FF01000068BA0A00793512AB00201E4991
:10015000086006C881F3088810474FF050400068D7
:1001600008B10020F3E70DA40ECC002902D000F066
:1001700012F8F9E71549164A002000E001C1914242
:10018000FCD114498847144988471449884700BE60
:10019000FDE701C901C29A42FBD3704738880A10B3
:1001A0002001002088340020A0BB0A100000082095
:1001B00000000820A0BB0A10001008200010082032
:1001C000000000007047000008ED00E088340020C7
:1001D000BCE00020A1B500102514001099B5001056
:1001E000704700BF00B5042183B0019009F0F2FD13
:1001F000019803B000BD00BF012904D8D2E9000373
:100200001B1A402B01D00020704710B50C46C2B01D
:100210000192FF214FF4807202A85EF055FF019B0E
:1002200002A8D3E90012521A5EF04AFF04F2FB3032
:1002300000034FF4805101905EF0E6FE01984FF408
:10024000807202A95EF024FF012042B010BD00BF01
:100250002DE9F0411F4D07462E6807F079FC99B350
:100260004FF47A7200235EF00BFFDFF8788006EB24
:100270004606340148F8040038465EF0D3F92822D7
:10028000904228BF1046631D08EB0616002130710E
:1002900003EB08005EF018FF394632795EF010FF7C
:1002A0000D480E4B0268511C0C2928BF0C212A68EE
:1002B00001600132A3FB0243DB0803EB4303A2EB23
:1002C00083022A60BDE8F081054BA3FB0030800962
:1002D000CBE700BF9C370020E0370020ABAAAAAADA
:1002E000D34D6210E437002010B51948194C02F0C4
:1002F0000BF8174802F066FFA07C01F081FB207D1F
:1003000001F08AFB144A237F1178003B18BF0123B8
:10031000FF29E07E05D0884216D04FF0000444EC5F
:1003200044100E4CFF28107023700CD006F0A6FB72
:10033000094A4FF00101137841EC4430FF2B02D001
:10034000227842EC403010BD044C10702370EDE771
:10035000283A0020243A0020B02C002087E000201A
:100360009C46002300B58BB08E46CDE90633CDE91F
:100370000833012342F00102ADF816008DF8152074
:10038000DCE90010421A8DF818E08DF8143022D103
:1003900005A902A8089204F085FEDDE90212521AAE
:1003A000402A049B08D089B9079818B10999091AFD
:1003B00009F010FD0BB000BD0E48CDE900135EF052
:1003C0004FFEDDE9001301200B4A10700846591A50
:1003D00009F000FDE8E710460191009209F0F6FCF3
:1003E000DDE900215EF06CFE009A0790024409925C
:1003F000CEE700BFA037002081E000200000000011
:100400002DE9F041804684B0104616460F465EF056
:1004100009F90446D8B1302828BF3024204609F015
:10042000D5FC0546314622460619009002965EF03C
:1004300047FE3946404602226B460196FFF790FF81
:100440002146284604B0BDE8F04109F0C3BC9FED49
:10045000087B3946404602226B468DED007B0294B4
:10046000FFF77EFF04B0BDE8F08100BFAFF300806E
:1004700000000000000000002DE9F04FD1E900531A
:100480008B46DBF808909D42A9EB050383B018BFAB
:100490004D603F2BDFF8448174D8DBF80060AC1B63
:1004A00004F1004340333F2B40F29080402C2CBF9E
:1004B000271904F140076FF000439F4228BF1F46F1
:1004C000384609F083FCAE4282467DD0621E052A82
:1004D00033466FD9811B0139022902466AD924F0BB
:1004E000030C4FEA940E06EB0C0053F8041B8342F6
:1004F00042F8041BF9D1644510D01A4612F8011BCA
:10050000D44495420AF82E1008D05A788CF801206D
:100510009A1C95421CBF9B788CF8023054442346A9
:10052000C6469C4608F14004019375460CF1100C38
:100530000FCDA5420EF1100E4CF8100C4CF80C1C0F
:100540004CF8082C4CF8043CEFD1019B03F140051A
:1005500026B13046A9EB060109F03CFCCBE900A529
:100560005744CBF808701B4B984503D1012003B0CA
:10057000BDE8F08FDBF80890DFF85880A9EB0503A1
:100580003F2B8AD9464608F14007344610350FCC38
:10059000BC4206F1100645F8100C45F80C1C45F855
:1005A000082C45F8043CF0D1DBF804504035CBF87A
:1005B0000450D8E753465444721E12F8011F03F842
:1005C000011B9C42F9D1AAE70346A9E7024854F06F
:1005D0001DF900BF00C03F1048F1051000B03F10EA
:1005E0002DE9F0470446B6B0402009F0EFFB234662
:1005F000024600F1400425460794059003F14004AB
:100600001968D3F804E0D3F808C0D8681033A342BF
:100610001160C2F804E0C2F808C0D06002F1100214
:10062000EED105A90BA8069504F022FE0B9BBDF8A0
:1006300032409DF83410BBB94B1E112B00F23586A9
:10064000DFE813F03000470060008500C4000C01B3
:100650001D0146014C023D02E802C002D002A20286
:10066000B102F7030904250020468A4AFFF7C8FEB5
:100670000E9818B11099091A09F0ACFB059818B139
:100680000799091A09F0A6FB36B0BDE8F087DDE945
:100690000E239A4200F05084122120467E4AFFF732
:1006A000AFFEE5E7042009F091FB05467B4B05F121
:1006B000040C1868002228600121204620ABCDE9F7
:1006C00021CC2095FFF74CFE0421284609F082FB3F
:1006D000CEE70C2009F07AFB0546714B05F10C0CB6
:1006E00007CB20AB286069602046AA600221002267
:1006F000CDE921CC2095FFF733FE0C21284609F0E7
:1007000069FBB5E7674920A805F050F8182009F003
:100710005DFB05460DF1800C00F11803CDE919339E
:100720001890BCE80F0028606960AA60BCE803006C
:10073000EB602861696120469DF83410002218ABF7
:10074000FFF70EFE1821284609F044FB90E7DFF87A
:100750007CE10DF1440CBEE80F00ACE80F009EE810
:1007600007008CE8070011AA0EA918A805F06AF87E
:100770009DF86030002B00F0E4844B4911AA20A8BA
:1007800005F0BAFA9DF88030002B00F03785474815
:10079000FFF75EFD002220469DF8341008ABCDE93E
:1007A00008220A92FFF7DCFD219823AB984203D080
:1007B0002399013109F00EFB19981BAB98423FF4C5
:1007C00057AF1B99013109F005FB51E7DFF8D4E081
:1007D0000DF1800CBEE80F00ACE80F009EE80700AA
:1007E0008CE80700AEF1140005F0AAFA002800F02A
:1007F000A084FFF779FD01222D4B2E481A70FFF7D8
:1008000027FD29499DF88E208B7C9A4204D19DF8C2
:1008100090200B7D9A4216D02748FFF719FD012240
:10082000264B1A7007F094F9002900F092844FF4D7
:100830007A7200235EF024FC0023214AFA3043F14F
:10084000000310605360002220469DF8341018AB5E
:10085000CDE918221A92FFF783FD09E7124805F047
:1008600083FB1848FFF7F4FC002220469DF8341063
:1008700020ABCDE920222292FFF772FDF8E6DDE9F8
:100880000E239A4200F03383072120460E4AFFF7D9
:10089000B7FDEDE660F105103CF30510503D061084
:1008A000443D0610283A0020243A002070F105103B
:1008B00083E00020A4F10510BCF1051085E00020C4
:1008C000A8340020E8F1051090F305106C3D0610E7
:1008D00020A802F035FF18A801F084FDC74B1D7851
:1008E0000BF0C6FC9DF880209DF88410A2F1030255
:1008F000B2FA82F29DF883300091BDF885108046EF
:1009000052090A209DF881609DF88270039201933C
:10091000029109F05BFA019A03464271039A009929
:10092000C271042281710299457080F80280C670FC
:10093000077119811A701420309D009309F046FA4E
:100940000246009B857218680A2110605868009260
:100950005060188926461081184609F03BFA009A23
:100960009DF860102B0A91749DF88910D372D17490
:10097000319B290C1173290E5173190A9373D1738A
:10098000190C1B0E1174537428201A9D09F01EFABD
:100990000346009A0575106814211860506800938A
:1009A000586090689860D068D860106918611046E7
:1009B00009F010FA0022009B9DF8C8E0DDF86CC039
:1009C00083F81CE09DF8C9E0290A83F81DE04FEA8E
:1009D000154E83F816E04FEA156E597583F817E047
:1009E00033994FEA1C2E83F818C083F819E04FEAB8
:1009F0001C4E4FEA1C6C9A77DA7783F81BC0349A46
:100A00004FEA112C83F8201083F821C04FEA114CD3
:100A1000090E83F82310110A83F8242083F8251087
:100A2000110C120E83F8261083F8272083F81AE0A1
:100A300083F822C05020359D09F0C8F9009B01467B
:100A400007461A46984680F8285003F12004136898
:100A50005068D2F808E0D2F80CC01032A2420B6005
:100A60004860C1F808E0C1F80CC001F11001EED1F6
:100A7000D2F800C053684046C1F800C04B6028213E
:100A800009F0A8F9082100222C0C87F82A402C0E26
:100A900025FA01F387F82B4007F13004304687F838
:100AA0002930219420ABFA6207F150042097229458
:100AB000FFF756FC5021384609F08CF9D8E5DDE9FE
:100AC0000E239B1A042B03D11378522B00F068835A
:100AD0000A2120464A4AFFF793FCC9E5DDE90E32B8
:100AE000D11A012900F33B839A420CBF00231B78E3
:100AF00003201E46009309F069F94FF000050246F5
:100B000001214048009B0068537086421170957027
:100B1000C0F07D820620009209F058F90346009A41
:100B200003211088DD70188090780093987010462B
:100B300009F050F94FF00002009B0C209A8009F058
:100B400045F94FF000060546009BAE711A688046D5
:100B50002A6018469B880621AB8009F03BF905F115
:100B60000C09EE71083500222046092111ABCDE9B0
:100B70001185CDF84C90FFF7F3FBA9EB0807394638
:100B8000404609F027F973E5DDE90E031B1A052B32
:100B900003D10378012B00F048830E2120461A4A26
:100BA000FFF72EFC64E5DDE90E031B1A052B03D1CC
:100BB0000378012B00F04A830F212046134AFFF7E8
:100BC0001FFC55E502F028FF9DF83410002800F0C6
:100BD000AA820022204620ABCDE920222292FFF7F4
:100BE000BFFB45E5DDE90E239A4200F04A810D2165
:100BF0002046074AFFF704FC3AE500BF83E00020E7
:100C0000DCF30510E037002024F2051064F2051033
:100C100004F2051020A802F093FD302009F0D6F868
:100C20002F2200F130030546002118908046013044
:100C30001A9300935EF048FA02219DF88020009BF1
:100C4000032A1993297000F0688204204FF0060CE3
:100C50000A4600239DF8851019B16046134688F8AE
:100C600001209DF8862012B1034688F801009DF806
:100C7000811019B143F0080388F801309DF8821003
:100C800019B143F0100388F801309DF8831019B1B1
:100C900043F0200388F801309DF8841019B143F027
:100CA000400388F801309DF8871019B163F07F0385
:100CB00088F80130002A00F0DE80DDE92423BDF849
:100CC0009810C8F80220C8F80630BDF8B8209DF882
:100CD000BA30A8F80A10A8F81020002B00F04682BD
:100CE00001220321134688F812209DF8BB2012B17F
:100CF0000B4688F812109DF8BC201AB143F004038B
:100D000088F812309DF8BD201AB143F0080388F826
:100D100012309DF8AC201AB143F0100388F812305D
:100D20009DF8B2201AB143F0200388F81230204613
:100D30000024A646A446214622462346BDF99E50DD
:100D4000BDF99C600095BDF9A650BDF9A270019552
:100D5000BDF8B05002959DF89A5065F3070466F30C
:100D60000F24C6F3072666F31744009E66F31F643C
:100D7000C8F81340C6F3072464F3070EBDF9A0407A
:100D8000029E64F30F2EC4F3072464F3174EC7F3D7
:100D9000072464F3070CBDF9A44067F31F6E64F3E6
:100DA0000F2CC4F3072464F3174C019C2A9F64F3AF
:100DB0001F6CC8F817E0C8F81BC04FEA176EBDF8E3
:100DC000AEC06EF30701C4F307246CF30F214FEAA2
:100DD0001C2C64F307026CF317412A9C66F31F6115
:100DE00064F30F22C8F82310BDF8B440310A61F350
:100DF000070364F30F23BDF8B610240A64F3174306
:100E000061F31F63090A88F82B10390A61F317424E
:100E1000390C61F31F62C8F82730C8F81F200B2176
:100E2000002218ABFFF79CFA3021404608F0D2FFB1
:100E30001EE4DDE90E239B1A022B06D11378012B49
:100E400003D15078012840F2178210212046C84A69
:100E5000FFF7D6FA0CE4DDE90E031B1A302B03D1A1
:100E60000378012B00F0D28111212046C14AFFF7FF
:100E7000C7FAFFF7FDBB0B21204618ABFFF770FA4E
:100E8000D2E720A802F05CFC9DF890200820009298
:100E900008F09CFF009A0546A2F1310200210120D2
:100EA000B2FA82F205F10803CDE919339DF88630D4
:100EB000C5F801105209696018952870002B40F0A0
:100EC0009081AA7040F6B83C9DF88820204643EAFD
:100ED00042132B7100220D2118ABA5F806C0FFF7B5
:100EE0003FFA0821284608F075FFFFF7C1BBA2486A
:100EF000FFF7AEF90122A14B1A7006F029FE002976
:100F000000F077814FF47A7200235EF0B9F8002286
:100F1000DFF888C2FA30CCF80000204642F1000425
:100F2000CDE920229DF83410229220ABCCF8044069
:100F3000FFF716FAFFF79CBB18A801F053FA20A898
:100F400002F0FEFB01238DF844309DF889309DF8B6
:100F500060208DF846309DF8883004208DF84730A9
:100F60008DF8452008F032FF054611991A9A29603C
:100F700008200191009208F029FF03460199009A88
:100F8000016028461A710421CDE9003208F022FFE1
:100F90001020019A009B110A597122FA00F1120ED9
:100FA0009971DA711B9E08F011FF0546009B0672CD
:100FB0001A68082102605A684260184608F00AFF61
:100FC00020464FEA164C239C85F80AC04FEA166C5F
:100FD00085F80BC04FEA142C330A2C7385F80DC02A
:100FE0004FEA144C240E6B72EC730022122118ABE2
:100FF00085F80EC005F11004CDE919441895FFF7E6
:10100000AFF91021284608F0E5FEFFF731BB5C4B35
:10101000917019685B4B0B31A3FB01EC4FEADC0CC0
:101020000CEB4C0CA1EB8C010C31891BA3FB01C315
:10103000DB0803EB4303A1EB8303534F03EB4303B1
:10104000029206201A0107EB0313BD58CDE90023D5
:1010500008F0BCFE0346029AC57010880321188070
:10106000907802939870104608F0B4FE029B2A0A0A
:101070001A712A0C5A710C2008F0A8FE2A0E054697
:10108000029B82711A68824602609A8806218280D9
:10109000184608F09FFE019B05F10C091A790835E6
:1010A00005F8012C002A00F0F6800099042A01F1CD
:1010B0000501394440F2F180082A104638BF082063
:1010C0006FF00043009200F108029A4228BF1A46CE
:1010D00010461746019108F079FEDAF8003005460F
:1010E0000360DAF804300199009A436080460830C2
:1010F0005DF0E6FF009A0C2183185046009308F03B
:1011000069FE009B09211293EB19139300222046DC
:1011100011AB1195FFF724F931E5012305204FF0BC
:10112000070C6B7096E52046184AFFF769F9FFF740
:101130009FBA2046164A9DF83410FFF761F9FFF771
:1011400097BA2046199A9DF83410FFF759F9FFF71E
:1011500033BB104BA3FB00308009FFF76DBB0921A7
:1011600020460D4AFFF74CF9FFF782BA0221BCE591
:10117000A4F20510ECF20510B0F3051085E0002094
:101180009C370020ABAAAAAAE43700205CF3051024
:1011900088F10510D34D621074F30510A8340020B7
:1011A00053780132432B7FF493AC12F8013F562B56
:1011B0007FF48EAC5378312B7FF48AAC3E48FFF736
:1011C00047F801223D4B1A7006F0C2FC00294ED0B0
:1011D0004FF47A7200235DF053FF0022DFF8F8C06D
:1011E00098E69DF8BA306870E870AA7043F0DE03A4
:1011F00068E6334BA3FB0030800988E62046219A3D
:101200009DF83410FFF7FCF8FFF7CEBA2F2101301C
:1012100002F0A8F99DF8341000287FF4DAAC2046DB
:10122000284AFFF7EDF8FFF723BA8178B0F80320DA
:10123000407802F06FF89DF8341000287FF4C9ACB4
:101240002046214AFFF7DCF8FFF712BA81780379CC
:10125000C278407802F0E0F89DF8341000287FF45E
:10126000B8AC2046194AFFF7CBF8FFF701BA144B88
:10127000A3FB00308009B0E700F0010002F026F97E
:101280009DF8341000287FF4A4AC2046104AFFF7E4
:10129000B7F8FFF7EDB9D04665E4284600925DF057
:1012A0000FFF009AD04615445DE42046094AFFF737
:1012B000A7F8FFF7DDB900BFC8F3051082E00020F2
:1012C000D34D621014F3051040F2051080F20510A2
:1012D000C4F2051004F405109834002010B5BDF8D0
:1012E00008C028BB23B3012A24D0032A1FD17129A7
:1012F00047D1284A1278002A4AD0BCF13F0F16D9AC
:101300009C46254CA6460CF1100CBEE80F004CF88C
:10131000043C224B10349E454CF8100C4CF80C1C2D
:101320004CF8082CEED1002340201A4A137010BD4F
:10133000002010BD0129FAD1BCF13E0FF7D9184A9F
:1013400002F130011468D2F804E0D2F808C0D06885
:1013500010328A421C60C3F804E0C3F808C0D860A9
:1013600003F11003EED150689168D2F800C05860C4
:10137000C3F800C099609189927B99819A733F204C
:1013800010BD08466246194600F04CFB80B210BD05
:10139000104610BD81E00020A0370020E03700207B
:1013A0006D3A002010B58CB0BDF838E020B9022AA3
:1013B0009C4612D0032A01D00CB010BD7029FBD17D
:1013C00043B3BEF1410F1FD0BEF1400F14D16046B0
:1013D0000CB0BDE81040FFF703B97346624668469B
:1013E00004F00AFF9DF80030002BE5D02F210DF10D
:1013F000010002F0B7F8DFE701210020074A0CB036
:10140000BDE81040FEF7FCBF1B78702BF4D10CF147
:10141000010CDCE70121024AF1E700BF48F40510A6
:1014200034F405102DE98048B9B00CF0A7F800F0AD
:10143000EFFD8C4804F088FB8B4C2070FEF754FFC6
:101440002378002B00F007818848FEF701FF2C224B
:10145000002123A85DF038FE80210822FF23844C60
:101460008448246822908DF88C1004A822A928941E
:101470008DF88F208DF8B03004F028FF7E4E04AC3C
:101480003546E36820686168A26810340FC514AB64
:101490009C4206F11006F3D10124784BDFF800924C
:1014A0001C700CF08DF818B989F8004001F05CFE52
:1014B0004AF60123002015A9ADF854300BF0FAFECE
:1014C000DFF8A0A1DFF8DCB100214FF0FF300AF017
:1014D00087FF99F800300BB10CF068F800F070FE4F
:1014E00003F0A6FA22A802F02BF99DF88A4024B94D
:1014F0009DF88B400CB99DF88C4006F029FB002923
:1015000000F046814FF47A7200235DF0B9FD9DF83A
:1015100088209AF81330032A99F8005000F0468189
:10152000002B40F04881002C00F0CE81544AA2FBF1
:101530000020C30640F1A981002D40F040812846DB
:101540000CF01EF84F4B1B78FF2B04D04E4A12783C
:10155000544044EC403022A802F0F2F806F0F8FAC9
:10156000CDE900019DF88E10002940F09F80DFF842
:10157000388198F80030002B40F0AB813F4B1B784E
:1015800073BB424AD2E9003253EA020040F0838141
:101590002C22002117A85DF097FD80238DF85C3088
:1015A000344B04A8169308238DF85F30FF238DF881
:1015B00080302F4B16A91B682F4E1C9304F086FE1B
:1015C00004AC3546E36820686168A26810340FC532
:1015D00014AB9C4206F11006F3D10123274A137085
:1015E0009AF81030002B00F0C080012B00F0EE8044
:1015F0000AF03EFE002840F0FB8006F0A9FA61B335
:101600004FF47A7200235DF03BFD214B1B7843B110
:10161000DBE9002390424FF0000272EB030380F0FD
:10162000D9811C4B1A78002A3FF44EAF1A4AD2E9EE
:10163000001288424FF0000171EB0202FFF444AF48
:101640004FF000021A700AF041FE322006F054F901
:101650000AF046FE38E71148F7E6094BA3FB0030D5
:101660008009D2E7243A002083E000207CF40510B2
:10167000B43A0020018080806C3A002086E000208F
:10168000D34D6210B02C002087E00020A034002051
:1016900082E0002085E00020A834002064F40510DA
:1016A00080E000209834002084E00020A74F329A88
:1016B0003B689A4200F0B480DFF8BCE2DFF8BC82FD
:1016C0009EF8002098F8003016AC26AD02920393E5
:1016D0000FCD0FC40FCD0FC495E80F0084E80F00A5
:1016E000029ADDF8B0C0002A40F0218101238EF873
:1016F0000030974B1A60974B16A904A8CDF870C01C
:10170000C3F800C004F0E2FD934E04AC3546E36834
:1017100020686168A26810340FC514AB9C4206F1C2
:101720001006F3D10AF0ACFD8C4E04463378002B42
:1017300040F0268101238A4C26AD33700FCD0FC4B3
:101740000FCD0FC495E80F0007C424F8023B1B0C13
:1017500023700123834A88F800301370329B3B606A
:101760009AF81030002B7FF440AF7F4A4FF47A6133
:10177000D2E9003253EA020030D00098C31A01982F
:1017800060EB02028B4272F10002FFF436AF25E0FB
:10179000764B9DF88820A3FB0030032A9AF813307B
:1017A00099F800504FEA90107FF4BAAE002B6CD03D
:1017B0002DB91C46C3E6002D3FF4C1AE25460024DA
:1017C000214600200BF0E4FE2C46BBE6664A4FF4AF
:1017D000FA61D2E9003253EA0200CED1614B1B78A4
:1017E000002B3FF40AAF0AF043FD00283FF405AF99
:1017F00000200BF05FFB00283FF4FFAE3F230121E8
:1018000000205B4A0BF072FB00283FF4F6AE002389
:10181000544A1370544B009A1A60019A5A60ECE6CD
:10182000504B1B78002B7FF4DBAE4F4AD2E90032DD
:1018300053EA02002FD116AC26AD0FCD0FC40FCD49
:101840000FC495E80F00DFF830C184E80F009CF862
:101850000070002F72D03E4B1B682C9A16A91344BF
:101860003C4A04A81C93136004F030FD3A4E04ACCB
:101870003546E36820686168A26810340FC514AB70
:101880009C4206F11006F3D1A7E6002D40F09D80A2
:1018900001252C4653E60098C41A019860EB02001B
:1018A000B4F57A5F70F100000AD29AF8101000299E
:1018B00000F08D8001297FF4A0AE4FF4FA615CE75F
:1018C00000293FF465AEB6E7002D3FF438AE25465B
:1018D00076E72C2217A85DF0F7FB80238DF85C30AB
:1018E000244B04A8169308238DF85F30FF238DF84E
:1018F0008030184B16A91B68174E1C9304F0E6FCA9
:1019000004AC3546E36820686168A26810340FC5EE
:1019100014AB9C4206F11006F3D101234FF00001F5
:10192000104A88F8001013700C4B197058E6039B8E
:10193000002B3AD0064B1B689C44DCE60123044A8A
:101940008CF8003017603B4687E700BFB03A0020B4
:10195000AC3A0020B43A00206C3A002088E0002025
:10196000B42C002086E00020A0340020D34D62106B
:101970006D3A00200180808089E0002084E0002012
:10198000174826A904F034FDB8B19AF81830A3B16D
:10199000002C3FF4CFAE0AF07BFC3378002B3FF4F1
:1019A000C9AE00287FF4C6AED3E60E4B1B68A3EB8E
:1019B0000C029C460C4B1A609DE63378002B3FF4DA
:1019C000B9AE002C7FF4C5AEB4E62C46F8E64FF471
:1019D0007A61D2E6054B114610461A7006F0F6F908
:1019E000B42C0020B43A0020AC3A002082E0002061
:1019F0000149024804F096B8E42C0020243A002063
:101A000040F6E64340F6F251012808BF0B46014A72
:101A100013807047FA2C0020014B1870704700BFEC
:101A20008AE0002070B509288CB023D020281AD075
:101A300005281BD12824C9B1944217D801900D461E
:101A40000846224600215DF03FFB019B052B26D076
:101A5000092B11D02046354A354BC5F81720C5F85B
:101A60001B300CB070BD3F240029E5D10024204676
:101A70000CB070BD1324DEE72E4B1B78002B37D142
:101A80002D4B1A784AB3062228462C495DF0E8FA15
:101A90006B7923F0030343F002036B71E7E702A8BD
:101AA00004F0F0FBAE4602AEB4460EF1100EBCE8F8
:101AB0000F004EF8043C0AAB9C4506F110064EF8A8
:101AC000100C4EF80C1C4EF8082CEDD1BCE80300AD
:101AD000CEF80000CEF80410C9E70AF033F901226D
:101AE000154B1A70154B0A0A186019715A71CAE71A
:101AF000002302A8CDE9023309F084FF0298104BBD
:101B0000DDF80A1043404B409DF80C209DF80E1064
:101B10002B604A409DF80F309DF80D1082F04C026A
:101B20004B4083F06B032A716B71B1E701004C4DA0
:101B30000025004D8AE000208BE00020B83A00200C
:101B40004D697261054B064A1B780648002B0CBF95
:101B50000023032312880374428170478AE0002027
:101B6000FA2C0020E82C002008B902487047002019
:101B7000704700BFC83D0610004870479C3D0610E6
:101B800058B940F209434FF44171DFF8E8C03948D1
:101B9000ACF80230ACF80010704730B502288BB0BA
:101BA00025D003283ED004283AD8334B53F82040A0
:101BB000B4B320465CF036FD3F28034628BF3F23E0
:101BC000591C49001D46DFF8ACC041F4407148B1D2
:101BD0006046621E931C1B1B12F801EF9D4220F809
:101BE00002EFF7D82348ACF800100BB030BD40F638
:101BF000F253224A12889A4235D04FF44F714FF077
:101C00001D0E1F48DFF86CC00EF1FF3E6246431EFA
:101C1000864413F8010F9E4522F8020FF9D1E1E73F
:101C20000020E2E7174B1B78002BF9D0212200217E
:101C300068465DF049FA2121684609F0EBFE6846E6
:101C40005CF0F0FCDFF82CC040B16B4662461C181B
:101C500013F8011BA34222F8021FF9D1411C4900CD
:101C600041F44071BEE740F246314FF0220E064883
:101C7000C8E700BF10370020883D0610FA2C00206E
:101C8000B8F405108AE0002094F405102DE9F04F17
:101C9000D44BADF69C0D1D68002D00F098810026F8
:101CA000DFF850A34FF4F062002146A85DF00CFA73
:101CB0000AF1020B0DF58D790395CB4B40F2DF1243
:101CC000A3FB0635731B05EB530540F2FF132D0AEA
:101CD00005F10108984528BF9846C5EB05143AF967
:101CE0003800C5EB4414341B80FB04013AF935C0BD
:101CF000C4F5EF7701370023C7FB0C015DF0A8F9AD
:101D000029F8020C3BF938003BF9353080FB04011F
:101D100040F2DF12C7FB030100235DF099F9B34BDA
:101D200006F2FF169E4229F8040BC6D1C824039D73
:101D300014AE0021224630465DF0C6F928464FF425
:101D4000F072334646A9009422F0D8FAA042054624
:101D500000F23D810021402204A85DF0B5F9A44BBA
:101D6000A4494FF0FF3E4FF0800A1888DFF898C270
:101D7000DFF8988201F5805904AF03957DE0002BD0
:101D800003DA14EB080443F10003240D44EA03349E
:101D9000802C4FEA235373F1000300DB7F24B1F959
:101DA0000EB0B1F90620B1F916501BEB02033C70DE
:101DB0004FEAE272B1F91E4042EBEB72EB1842EBD4
:101DC000E572E31842EBE472B1F92640E51842EB04
:101DD000E473B1F92E40621943EBE473B1F9364074
:101DE000A21843EBE473B1F93E40A21843EBE4734D
:101DF000B1F94640A21843EBE473B1F94E40A21882
:101E000043EBE473B1F95640A21843EBE473B1F924
:101E10005E40A21843EBE473B1F96640A21843EBAD
:101E2000E473B1F96E40A21843EBE473B1F9764064
:101E3000A21843EBE473B1F97E40A21843EBE473BC
:101E4000A2FB004200FB0323A4457EEB03026FDAF2
:101E5000002B03DA14EB080443F10003240D44EAD9
:101E60000334802C4FEA235373F10003A8BF7F246F
:101E7000803189457C7060D00237B1F90CB0B1F97E
:101E80000420B1F91450B1F91C401BEB02034FEAD6
:101E9000E27242EBEB72EB1842EBE572E31842EBB5
:101EA000E472B1F92440E31842EBE472B1F92C403A
:101EB000E31842EBE472B1F93440E31842EBE47208
:101EC000B1F93C40E31842EBE472B1F94440E31845
:101ED00042EBE472B1F94C40E31842EBE472B1F921
:101EE0005440E31842EBE472B1F95C40E31842EB72
:101EF000E472B1F96440E31842EBE472B1F96C406A
:101F0000E31842EBE472B1F97440E31842EBE47277
:101F1000B1F97C40E31842EBE472A3FB004300FB01
:101F20000233A4457EEB0302FFF629AF802436E797
:101F30008031494587F801A09ED12F4C4FF4C772DC
:101F400000212046039D5DF0BFF8362323703F2318
:101F50009022237344F2920328482949E2720278BE
:101F6000A4F84C300B78A272013202705A1C1B018B
:101F700004AF0A70637004F14E0EBC460EF1100EF1
:101F8000BCE80F00B44507F110074EF8100C4EF8EE
:101F90000C1C4EF8082C4EF8043CEED11323012DF6
:101FA00084F88F5084F88E3016DD2A463146154865
:101FB0005DF086F84FF4C7710F4804F0A9FCC0B279
:101FC000B0FA80F040090DF69C0DBDE8F08F0020BE
:101FD0000DF69C0DBDE8F08F04BF337884F8903087
:101FE000E8E700BFC88A00209B01A31120BE0300C0
:101FF000002D0020CC8A0020CC9A002091E0002007
:102000008EE000205C9B00200000F0F7FFFF0F0037
:1020100030B5002483B04FF48042002146485DF083
:1020200053F84649464B474D0C604FF480522146C9
:1020300045482C601C605DF047F89FED3D7B4349AF
:1020400047F6FF730C6042494FF480720C604149BF
:102050004FF400700C604049404D0C6040490C60EA
:1020600040490C6040490C6040490C60404981ED9A
:10207000007B40490C7040490C7040490C7040494D
:102080000C7040490C7040490C7040490C7040493C
:102090000B8040490B8040490B804049404B0A80EF
:1020A0001A804049404A414B0860147021464FF461
:1020B00080523F481C705DF007F821464FF4C7720C
:1020C0003C485DF001F840F6010202214BF68030F9
:1020D00001AB2C70019420F099F8374C206008B1C6
:1020E000019D1DB10023236003B030BD40F6A271F5
:1020F000324A22F0CDF92A4640F6A671206822F035
:10210000C7F9052240F6AA71206822F0C1F940F60D
:10211000BA3240F6B871206822F0BAF9102240F6BF
:10212000C471206822F0B4F903B030BDAFF3008071
:102130000000000000000000C03A0020C47A002027
:102140005C9C0020C07A0020C87A0020689C002097
:102150006C9C0020749C0020609C002090E000207B
:10216000709C0020649C0020789C00207C9C0020B7
:10217000B03400208CE0002095E0002094E00020A6
:102180008FE0002092E0002093E000208DE000200E
:10219000082D0020062D0020042D0020022D0020F7
:1021A000002D0020FC2C00208EE0002091E000207B
:1021B000CC8A0020CC9A0020C88A0020007102003E
:1021C000F0B5444C97B023780BB917B0F0BD05F0CB
:1021D000BFFC414AD2E90035C01A4FF000033F4A24
:1021E00061EB0501824273EB010169D32378002B77
:1021F000EBD03B4B1B68002BE7D0684601F0A0FA00
:1022000038490B78002B50D1374E3849326809686D
:102210008A42DAD39DF808100029D6D0DFF8D8C05A
:102220009E46334C334F0CF6F875A2B12368013A41
:10223000591CC1F30A0107EBC303AC4521603260AE
:1022400093E803008CE803001AD00EF1010E0CF1A4
:10225000080C002AEAD1AC45CCE9002210D0264B6C
:102260000EF1010E03EBCE03CEF5007E03EBCE0E96
:102270000EF1080E083343E9022208339E45FAD1D5
:10228000FFF704FDF8B10123164A13704FF4C7712C
:102290001A4801F0DBF9002897D00021184A13688A
:1022A000013313600F4B19708FE79DF80830002B36
:1022B000ECD1144A0B70136803F50073136084E7C4
:1022C000237017B0F0BD0F4A136803F50073136055
:1022D0007BE700BF8CE00020B0340020F049020012
:1022E000C88A002090E000205C9C0020FC2C00208C
:1022F000C07A0020C03A0020CC8A0020CC9A00206E
:10230000649C0020709C0020D0ED017AB0EE677ACA
:10231000BEEECC7A2DE9F041C27C284BDFF8BCC080
:102320001A70027A90F809E0C2EBC232ACFB0215D7
:10233000CEEBCE3EACFB0E1C521B437B05EB520298
:102340001F4D9209AEEB0C0E102B2A800CEB5E0C8D
:102350001C4A38BF10234FEA9C1CA2F800C017EE9D
:10236000102A7F2B28BF7F23B2F5807FB8BF4FF4A0
:102370008072B2F5007FA8BF4FF40072857A1249CF
:1023800008356D01103B0D80104E857CDFF85080C4
:10239000807D03EB43035B023070A8FB03015B1AF3
:1023A00001EB53010A4F0B4C0B4B890901F50071EE
:1023B0003D7021601A80BDE8F08100BF92E00020EE
:1023C000062D0020042D0020022D00208DE000208D
:1023D00093E00020FC2C0020002D002011080402B6
:1023E000890B3527DFF880C01649174B174A9CF830
:1023F00000C009781B78127880F800C041708370A3
:102400000AB9134B1A78134BC2701B68DFF85CC013
:10241000003B18BF01231049104ADCF800C00968CE
:102420001268C0F808C0C0E90312DFF844C00C49C4
:102430000C4ADCF800C009681268C0E905C1C26135
:102440000371704795E0002094E000208FE00020A9
:1024500092E00020C88A0020709C00205C9C002034
:10246000789C00207C9C00208CE00020609C002058
:10247000649C0020124B1968EFF3108272B6D1E809
:10248000CFCF0120BCF1000FF9D1C1E84C0FBCF156
:10249000000FF4D1BFF35F8F0A495A60088840B13A
:1024A0000949487928B10878A0F10300B0FA80F012
:1024B000400900211B68C3E88F1F82F31088704712
:1024C0008C9C00205EE00020182D002038B54FF4D1
:1024D0004C7200211A485CF0F7FD4FF0FF300023EA
:1024E00000220021174C184D20602860174C184816
:1024F000C4E900230170174C1748C4E90023C0E960
:1025000000233F2215485CF0DFFD154B1868EFF300
:10251000108272B6D0E8CF5F0124002DFAD1C0E856
:10252000454F002DF6D1BFF35F8F00210D485A6053
:1025300001811B68C160C3E88F1F82F3108838BD1A
:10254000949C0020142D0020102D0020E834002041
:102550009FE00020D8340020C0340020C89F002015
:102560008C9C0020182D00201A4A1368032B24D9B4
:102570000268194BC3F812208288DA82174B196857
:10258000EFF3108272B6D1E8CFCF0120BCF1000F7B
:10259000F9D1C1E84C0FBCF1000FF4D1BFF35F8F4C
:1025A0004FF0010C0E485A6000211B6880F807C0EC
:1025B000C3E88F1F82F31088704703EB430C01338D
:1025C00005491360036841F81C30838801EB4C0116
:1025D0008B80D3E720A0002008A000208C9C002046
:1025E000182D00202DE9F0414F4D2C68002C5BDBAD
:1025F000FFF740FF002857D04C4E3368002B5BDBC1
:1026000005F0A6FA002951D1494BA3FB00308009FF
:102610000021484BD3E90042A04271EB020243D3B0
:102620004FF4CC744FF0FF303268434F306004FBFE
:102630000272002082F894110021C3E900012C6885
:102640004FF4CC7808FB04F23C4BB9181888D1F849
:1026500090310132013B91F88E113A449BB21DF04A
:1026600063F808BB336834608342A4BF08FB03737C
:1026700083F894014FF0FF332B6005F069FAE9B15C
:102680004FF47A7200235CF0FBFC4FF4CC73002211
:1026900003FB047393F88E310430264942F10002A3
:1026A000362B08604A600ED0BDE8F0814FF47A7294
:1026B00000235CF0E5FCABE71F4FC1E71C4BA3FB1D
:1026C00000308009E1E71E4C2368EFF3108272B6F8
:1026D000D3E8CF0F01210028FAD1C3E8401F00281A
:1026E000F6D1BFF35F8F40F20111164B6260DA68DA
:1026F00019810132DA6005F02BFA79B14FF47A7260
:1027000000235CF0BDFC00230F4A2168C2E90003EE
:10271000C1E88F3F636883F31088C5E7044BA3FBD0
:1027200000308009EFE700BF102D0020142D00209D
:10273000D34D6210E8340020949C00205EE000201D
:102740008C9C0020182D0020C03400203F4BF0B599
:102750001B680021002B0CBF4FF4CC7500250646EA
:102760003B4C95B04FF4C77205EB040014BF0F4605
:1027700001275CF0A9FC374B68461A78511C197088
:1027800002F00F02314603F02FFF4E22694628194E
:102790005CF096FC4FF4CC73312001214E2203FBF8
:1027A00007432D4D83F88E012F60C3F8902183F8E5
:1027B000941105F0CDF900293ED04FF47A72002330
:1027C0005CF05EFC0023254A254CF17A10605360D2
:1027D000237039B12F22012A06F10C0131DD214885
:1027E0005CF03EFC3378EBB11E4D0DF103040DF1AE
:1027F0003306AC4620686168A268E3681034B442CE
:10280000ACE80F0005F11005F3D120686168A268FB
:10281000A689A37B07C52E80AB70FFF7E3FE0120DE
:1028200015B0F0BDF378002BDED1F379002BDBD1AE
:10283000737A002BF1D0D7E70B4BA3FB0030800954
:10284000C0E7CFD1074B327B1A70CBE7142D0020A5
:10285000949C00209BE00020102D0020B834002024
:1028600098E00020C89F0020D34D6210A44BF0B523
:102870001B78002B00F07081A24A1368EFF31084DC
:1028800072B6D3E8CF6F0125002EFAD1C3E8465FB8
:10289000002EF6D1BFF35F8F9B4B156854601B78F9
:1028A0000022C5E88F2F84F31088012B00F02E81C1
:1028B000002B40F0B680002800F0B280082940F2DA
:1028C000AE8005460346A1F10806064413F8012B25
:1028D00002F12004A2F1410CE4B2BCF1190F98BF3F
:1028E0002246642A40F06A811A7802F12004A2F19B
:1028F000410CE4B2BCF1190F98BF2246752A40F092
:102900005D815A7802F12004A2F1410CE4B2BCF1DD
:10291000190F98BF2246612A40F050819A7802F13F
:102920002004A2F1410CE4B2BCF1190F98BF224679
:102930006C2A40F04381DA7802F12004A2F1410CC4
:10294000E4B2BCF1190F98BF2246732A40F03681D9
:102950001A7902F12004A2F1410CE4B2BCF1190F82
:1029600098BF2246652A40F029815A7902F1200455
:10297000E4B2A2F1410CBCF1190F98BF22466E2AB5
:1029800040F01C819A7902F12004E4B2A2F1410CDA
:10299000BCF1190F98BF2246732A40F00F81DA79F3
:1029A00002F12004E4B2A2F1410CBCF1190F98BF6E
:1029B0002246652A40F002810339014415F8013BA3
:1029C00003F12002A3F14100D2B2192898BF1346A7
:1029D000652B40F0EB802B7803F12002A3F141003E
:1029E000D2B2192898BF1346642B40F0DF806B7871
:1029F00003F12002A3F14100D2B2192898BF134677
:102A0000672B40F0D380AB7803F12002A3F14100A3
:102A1000D2B2192898BF1346652B40F0C78000201A
:102A2000F0BD0028FCD00829F9D90346A1F108051A
:102A3000054413F8012B02F12004A2F14106E4B28F
:102A4000192E98BF2246642A40F089801A7802F134
:102A50002004A2F14106E4B2192E98BF2246752A3D
:102A60007DD15A7802F12004A2F14106E4B2192E78
:102A700098BF2246612A72D19A7802F12004A2F10D
:102A80004106E4B2192E98BF22466C2A67D1DA7843
:102A900002F12004A2F14106E4B2192E98BF2246A9
:102AA000732A5CD11A7902F12004A2F14106E4B242
:102AB000192E98BF2246652A51D15A7902F1200475
:102AC000A2F14106E4B2192E98BF22466E2A46D1E1
:102AD0009A7902F12004A2F14106E4B2192E98BFBE
:102AE0002246732A3BD1DA7902F12004A2F1410691
:102AF000E4B2192E98BF2246652A30D10120F0BDDC
:102B000097E000208C9C00200A2D0020002887D010
:102B10000D2984D900F10D064718DFF8BCC0A6F1D5
:102B20000E0E9CF800201EF8013F02F1200103F177
:102B30002000A3F14105C0B2A2F14104C9B2192D90
:102B400098BF0346192C98BF0A469A420CF1010C13
:102B500030D17645E5D1D1E71D4B1B78A5E69D42E6
:102B60007FF467AF12297FF65AAF00F1120E4718B3
:102B7000184CAEF11305227815F8013F02F120013F
:102B800003F12000A3F1410CC0B2A2F14106C9B289
:102B9000BCF1190F98BF0346192E98BF0A469A42F6
:102BA00004F101040ED1AE45E5D1A7E7A9427FF4B7
:102BB00005AFA3E70136B742AFD130E79E427FF4BD
:102BC00085AE2CE70EF1010E7745D1D127E700BF86
:102BD0000A2D002020F5051010F50510000000005A
:102BE0004B4B1B78002B4CD04A4B1B78002B48D00A
:102BF000494B1B78002B44D1484B1B78002B40D10C
:102C0000474B1B88002B3CD1464A10B5D2E9003215
:102C100013430ED004F09CFF002967D1424BA3FB65
:102C20000030800900233F4AD2E9001288429341D4
:102C300026D3082016F0EEFA3C4B1A6810BB9FED25
:102C4000327B384981ED007BEFF3108172B6D2E818
:102C5000CFEF5FF0010CBEF1000FF8D1C2E84ECF0C
:102C6000BEF1000FF3D1BFF35F8F0122304C5960EA
:102C7000E270294C1B682270C3E88F0F81F3108823
:102C800010BD70474FF0010C2A4981F800C0EFF3E6
:102C9000108172B6D2E8CF4F5FF0010E002CF9D14F
:102CA000C2E844EF002CF5D1BFF35F8FD3F800E00A
:102CB00059601F4B1A6D83F848C0624483F849007D
:102CC0001A650023CEE88F3F81F3108804F040FF9F
:102CD00091B9154BA3FB003080090023114A10F570
:102CE0007A7043F100031060536010BD4FF47A72A4
:102CF00000235CF0C5F995E74FF47A7200235CF08D
:102D0000BFF9EAE7AFF30080000000000000000018
:102D10009DE0002096E0002099E000209EE0002049
:102D20005EE00020E0340020D34D62108C9C002037
:102D3000182D0020A0E000202DE9F0415F4D82B069
:102D4000AB7913B1EB79002B4AD000240022002389
:102D50005B495C485C4E5D4FC0E90023C6E9002337
:102D6000C5E900442C720C70FFF7B0FB3B68EFF331
:102D7000108272B6D3E8CF0F01210028FAD1C3E840
:102D8000401F0028F6D1BFF35F8F514B514DDFF844
:102D90005C811C807A60D5E900321343A8F80440B6
:102DA00088F806403AD188F80240042388F80030B9
:102DB0003A680023C2E88F3F7A6882F31088464A57
:102DC0004649C2E9003393600B70D5E900321343E2
:102DD00012D1434B1B78002B54D002B0BDE8F081D8
:102DE0002B7A002BB1D195E8030000906846ADF82E
:102DF000041011F06FFAA8E704F0AAFEB9BB394B32
:102E0000A3FB003080090023D5E9001288429341DA
:102E1000DFD202B0BDE8F041FFF7E2BE04F098FE59
:102E2000F9B9304BA3FB0030800900212B686A6898
:102E30009842914134BF01210021134388F80210C8
:102E4000B3D004F085FEC1B14FF47A7200235CF078
:102E500017F9D5E90012002388429341A5D2022335
:102E6000A4E74FF47A7200235CF00AF9DDE74FF42F
:102E70007A7200235CF004F9C5E71A4BA3FB00301B
:102E80008009E6E7184B1B689BB104F061FE51B95D
:102E9000144BA3FB003080090023FA3043F10003F8
:102EA0003060736099E74FF47A7200235CF0E8F8C1
:102EB000F2E700220023C6E900238EE72CA80020B9
:102EC0009EE00020D0340020C83400208C9C0020DC
:102ED0005EE00020F0340020809C0020A0E0002074
:102EE00098E00020D34D621020A00020182D002073
:102EF0008E4B1B78002B40F0CA802DE9F0478C4B9D
:102F000089461C78064684B07CB98A4F3B6883B1F9
:102F1000894D02E03B689C420BD2294630460FF0B7
:102F2000BFFD013406350028F4D1844B1B789A4646
:102F30001BB1002004B0BDE8F087814DAB79002BB8
:102F400040F0E48000240121C5E900442C7230687F
:102F5000784F2860B2883B68A971AA8083B1DFF8F6
:102F6000D88102E03B689C420AD2414630460FF0CD
:102F700097FD013408F106080028F3D14FF0010A4B
:102F800085F807A06F4F3B78002B40F0C7806E4C50
:102F90002368EFF3108272B6D3E8CF0F0121002827
:102FA000FAD1C3E8401F0028F6D1BFF35F8F00239A
:102FB0003B70664F21686260FB70C1E88F3F82F30F
:102FC0001088634A30681380B288624E0090337074
:102FD000ADF804202368EFF3108272B6D3E8CF0F68
:102FE00001210028FAD1C3E8401F0028F6D1BFF321
:102FF0005F8FFB6C62600133FB64B9F1000F02D09C
:103000007B6D01337B654FF000082368C3E88F8F29
:1030100082F31088012168464D4A1BF0F5FC002818
:1030200037D1002000214C4BC3E9000104F090FD92
:10303000002976D04FF47A7200235CF021F842F236
:103040001073464AC01810604FF000034FF00100A3
:103050003A4D2168287043EB03055560EFF3108269
:1030600072B6D1E8CF6F0125002EFAD1C1E8465FD4
:10307000002EF6D1BFF35F8F21686260387138701F
:10308000C1E88F3F82F3108804B0BDE8F0870020CC
:103090007047012333702368EFF3108272B6D3E8D0
:1030A000CF6F0121002EFAD1C3E8461F002EF6D1C2
:1030B000BFF35F8F022387F848303B6D21680133EF
:1030C00087F8490062603B65C1E88F8F82F3108802
:1030D000AB795BB1EB794BB92B7A3BB995E803003F
:1030E000029002A8ADF80C1011F0F4F8002310497A
:1030F0001B4A0978C5E90033C2E900332B7293609B
:1031000000293FF416AFFFF76BFD12E72946304662
:103110000FF0C6FC00287FF415AF33E716F098F8DF
:1031200035E7104BA3FB0030800988E798E00020CA
:103130009DE0002020A0002008A000209EE00020AC
:103140002CA8002099E000208C9C0020182D002045
:103150005EE00020A0E00020C8340020D034002031
:10316000809C0020D34D621008B5104B1A7802B134
:1031700008BD0F4804F080F801220C4B0D491A706D
:103180000A8017F0F3F94FF400610B481BF0B6FB0F
:103190000A481BF0D3FB0A48084B436011F0C8FBF8
:1031A000BDE80840012015F0D9BC00BF97E0002021
:1031B0008C9C0020182D00202CA00020393A0010F3
:1031C00024A00020D0ED017AB0EE677ABEEECC7A72
:1031D00038B5444BC27A197817EE103AB3F5807FB0
:1031E000B8BF4FF48073B3F5007FA8BF4FF40073EE
:1031F000002957D0002A2ED04FF0000E3A4AD2F8BC
:1032000000C0EFF3108172B6DCE8CF5F0124002D1F
:10321000FAD1CCE8454F002DF6D1BFF35F8FDFF830
:10322000F0C05160ACF8003090F80EC02F4B12681F
:1032300083F800C090F815C02D4BC07A83F800C009
:103240002C4B18700023C2E88F3F81F31088BEF129
:10325000000F04D138BD284A92F800E0CEE7264A94
:10326000137004F075FC51BB244BA3FB00308009A4
:103270000023234A2349C2E9000309681E4A137048
:1032800049B3214A136004F063FCF1B91B4BA3FB63
:103290000030800900231D4AFA3043F1000310601A
:1032A000536038BD1A49DFF844C00B80837B104956
:1032B000407D8CF800300F4B08701A7038BD4FF409
:1032C0007A7200235BF0DCFED2E74FF47A720023BF
:1032D0005BF0D6FEDEE7002000210C4BC3E90001C5
:1032E00038BD00BF97E000208C9C00200A2D0020F4
:1032F0009AE000209CE0002098E00020D34D62106E
:10330000B834002020A00020C49F0020C834002032
:103310000C2D002070B540F6B734531E9BB2A3426B
:1033200092B003D90024204612B070BD334B1B78F5
:10333000002B60D0324B1C68EFF3108C72B6D4E8CF
:10334000CF5F5FF0010E002DF9D1C4E845EF002DED
:10335000F5D1BFF35F8FD3F800E0C3F804C0294B69
:103360001C880023CEE88F3F8CF31088054601911E
:103370001646002138220DF10F005BF0A5FE019BDF
:1033800004FB05F004FB03F18030000A8031090AD8
:10339000FF2828BFFF20FF2928BFFF214FF001058C
:1033A0008DF80D008DF80C508DF80E10FFF762F8B7
:1033B00004460028B6D0144B1B68002BB2DA03A8D1
:1033C000FFF7C4F9114B1D7004F0C2FB69B9104B33
:1033D000A3FB003080090F4930184FF0000208604D
:1033E000204652414A6012B070BD4FF47A720023F9
:1033F0005BF046FEEFE7034B1C88B7E797E0002041
:103400008C9C00200C2D0020102D00209FE000201F
:10341000D34D6210D834002070B592B006460D46E8
:10342000144600213B2203A801935BF04DFE019B53
:10343000224A03F01F038DF81430012311688DF820
:1034400010608DF811508DF812408DF80F308DF806
:103450001330EFF3108372B6D1E8CFCF0120BCF167
:10346000000FF9D1C1E84C0FBCF1000FF4D1BFF34C
:103470005F8F134811680088536010B1114842797A
:1034800042B90022C1E88F2F83F310880022104632
:1034900012B070BD00780328F3D10020C1E88F0F6F
:1034A00083F31088084B1B688342EFDA03A801926C
:1034B000FFF74CF9019A104612B070BD8C9C0020A9
:1034C0005EE00020182D0020102D002010B592B0D5
:1034D00004463B22002103A85BF0F6FD01221D4BB0
:1034E0008DF8164019688DF81520EFF3108272B62A
:1034F000D1E8CFCF0120BCF1000FF9D1C1E84C0FCA
:10350000BCF1000FF4D1BFF35F8F13481968008836
:103510005A6010B11148437943B90023C1E88F3F85
:1035200082F310880023184612B010BD00780328DB
:10353000F3D10020C1E88F0F82F31088084A126887
:103540008242EFDA03A80193FFF700F9019B1846C6
:1035500012B010BD8C9C00205EE00020182D0020D1
:10356000102D002008B12F2902D0002318467047E3
:1035700000230122844630B593B0CDE9033305938F
:1035800006AC8DF8172000F12005A646DCF80000F7
:10359000DCF80410DCF80820DCF80C300CF1100C1E
:1035A000AC45AEE80F0004F11004EED1DCF80820C1
:1035B000DCF80000DCF80410AEE80700BCF80C30C2
:1035C000AEF800301D4B9CF80E201B788EF80220C0
:1035D000002B30D01A4B1968EFF3108272B6D1E885
:1035E000CFCF0120BCF1000FF9D1C1E84C0FBCF1E5
:1035F000000FF4D1BFF35F8F124918685A60097841
:103600000023C0E88F3F82F3108806A803F07EF8FD
:10361000FEF730FF58B10C4A1268002A07DA019011
:1036200003A8FFF793F8019B184613B030BD0023A1
:10363000184613B030BD034B1978E6E797E0002039
:103640008C9C00209AE00020102D0020F0B583B063
:103650000D46044603F05CF9C1B211B1002003B07D
:10366000F0BD0191FEF706FF0028F7D02F4B1B6835
:10367000002BF3DA2E4B2F481B684FF4C772002B38
:103680000CBF4FF4CC730023019918440CBF0126E2
:1036900000261F465BF018FD012D03462A463FDD3C
:1036A00021465BF0DDFC0346234C03F10D0CA646DE
:1036B0000CF1100CBEE80F004CF8043C1F4B10340A
:1036C0009E454CF8100C4CF80C1C4CF8082CEED114
:1036D0004FF4CC73174A03FB0623BEE80700CCF86F
:1036E0000000CCF80410CCF808209EF80220BEF8A8
:1036F00000108CF80E204FF03602ACF80C1083F856
:103700008E214FF00102C3F89051084D83F89421A7
:103710002E60FEF767FF2868801B18BF01209EE718
:10372000C2D122780349CA55BEE700BF102D002040
:10373000142D0020949C0020C89F0020F89F00209A
:103740002DE9F0411F4C05462368EFF3108672B651
:10375000D3E8CF1F01220029FAD1C3E8412F002965
:10376000F6D1BFF35F8F5822174966605BF0A8FC63
:10377000164B2268D3E900100023C2E88F3F86F37E
:1037800010886B7A23B151EA000304D100236B72D5
:103790002846BDE8F0810F46804604F0D9F961B1B2
:1037A0004FF47A7200235BF06BFCC01B68EB48039C
:1037B000FB2873F10003E9D2EAE7054BA3FB0030D5
:1037C0008009F2E78C9C0020182D0020C0340020D6
:1037D000D34D62100000000030B59BB004F0B8F982
:1037E000002970D04FF47A7200235BF049FC00236B
:1037F000754A7649C2E900030B7004F0A9F9002963
:103800005CD000234FF47A725BF03AFC034600224E
:103810009FED6B7B01206E496E4C5B186E492070EA
:103820000B606E4B6E4CC3E900229A6042F10002BD
:103830006C4B4A606C4A83ED007B82ED007B15F097
:10384000D5FA012015F098FA04A8FFF779FF20882F
:1038500038B19DF81030032B03D09DF81630002BA3
:103860003BD0624B624A1868EFF3108172B6D0E821
:10387000CFEF5FF0010CBEF1000FF8D1C0E84ECFE2
:10388000BEF1000FF3D1BFF35F8F10784FF0010C42
:10389000032818BF0220596082F802C018BF1070B8
:1038A0001B680022C3E88F2F81F31088238813B987
:1038B000504B1B7863B101201BB030BD4E4BA3FBB6
:1038C00000308309A3E74C4BA3FB003080098EE74F
:1038D000FFF786F901201BB030BD484A01931080E4
:1038E0001BF014F9454A019B12888AB104F030F9A3
:1038F00000295ED1404BA3FB0030800942F21071D9
:103900004FF0000E41184FF001034EEB0E0503E09F
:1039100018469E4619461D46DFF8F8C0384ACCE9DD
:10392000000E3848C0E900153748917903704FF010
:103930000000364B187061B1D37953B9137A43B98B
:1039400092E80300029002A8ADF80C1010F0C2FC3F
:103950002B4A00219FED1A7B26482D4BC2E900110E
:1039600083ED007B117221800170FEF7AFFD1F4BCC
:103970001A68EFF3108072B6D2E8CFEF5FF0010C57
:10398000BEF1000FF8D1C2E84ECFBEF1000FF3D167
:10399000BFF35F8F00214FF0020C154A1D6858607D
:1039A0009180917182F800C0C5E88F1F80F3108864
:1039B00059E74FF47A7200235BF062FB9EE700BF89
:1039C0000000000000000000B834002098E0002053
:1039D000E09304009DE00020F0340020809C002053
:1039E0005EE00020E0340020C83400208C9C0020E1
:1039F000182D00209EE00020D34D62105CE00020D6
:103A00002CA8002000350020A1E00020A2E000202A
:103A1000D0340020F8340020044B1B7813B1044B41
:103A20001B780BB918467047FFF7D6BE97E0002009
:103A300096E0002000000000042800D07047002A13
:103A4000FCD02DE9F043144612789DB0602A66D070
:103A500010D8162A00F05E81332A00F00781072A69
:103A600005D1964A1546927A002A40F08B811DB006
:103A7000BDE8F083DD2A00F0C380EF2A00F09E80CD
:103A8000DC2AF4D18E4B1B78002BF0D08D4B1B78A9
:103A9000002BECD18C4B1B78002B00F0DE858B4B80
:103AA0001968EFF3108272B6D1E8CFCF0120BCF1D4
:103AB000000FF9D1C1E84C0FBCF1000FF4D1BFF3F6
:103AC0005F8F83495A600E781B680021C3E88F1FFF
:103AD00082F31088237C002B40F0D185637E002B7D
:103AE00040F0F585754B9B7A002BC0D1092120460B
:103AF0000EF0E6FF00F4F853B3F5A06FB7D1A01CA9
:103B000006226E490FF020F8237A20466B4C0C21D8
:103B1000A3710EF0CFFF012320816381A7E7A47872
:103B2000022C00F06F81002CA1D1002200236949F2
:103B300069480C604C600C72614904700C706149FA
:103B400066480C706649C0E900230C8065496648E8
:103B50000C806649C0E900230C70654965480C700B
:103B60006549C0E90023C1E900236449C1E9002394
:103B70006349C1E90023FEF7A9FC504A534BC2E94F
:103B8000004419689460EFF3108272B6D1E8CFCF89
:103B90000120BCF1000FF9D1C1E84C0FBCF1000FBE
:103BA000F4D1BFF35F8F574918685A60C1F80140DC
:103BB0000C70C0E88F4F82F3108858E7A378013B60
:103BC0000C2B3FF654AF01A252F823F0EB4100104A
:103BD000A7400010554000106F3A00106F3A0010D7
:103BE0006F3A00106F3A00106F3A00106F3A0010F1
:103BF0006F3A0010D13F0010C54400102D44001052
:103C0000324A1368EFF3108172B6D3E8CF4F012028
:103C1000002CFAD1C3E8440F002CF6D1BFF35F8F1C
:103C20000023394C3748516023701268C370C2E8D2
:103C30008F3F81F31088224B1B78002B3FF417AF86
:103C4000204B1B78002B7FF412AF1C4A937A154649
:103C50001BB1D37A002B00F004850023C5E90033A3
:103C6000AB601DB0BDE8F043FEF7BABFA01C1B4C13
:103C7000062206A90EF068FFD4E90032134306AE0F
:103C800040F0AE80214C2368002B00F07C840023A0
:103C90001F4903E02268934280F075843046CDE9E5
:103CA00000130EF0FDFE019B009901330631002840
:103CB000F0D1304615F072FBD9E600BF809C0020A1
:103CC0009DE000209EE0002097E000208C9C0020DA
:103CD0000A2D00202CA8002096E00020F0340020BF
:103CE0005EE000205CE0002000350020A1E0002024
:103CF000A2E00020D0340020F8340020C834002096
:103D0000E0340020182D002099E0002020A00020A1
:103D100008A00020A01C984C062206A90EF014FF53
:103D2000D4E90032134306AE1BD1944C2368002B18
:103D300000F024840023924903E02268934280F03B
:103D40001D843046CDE900130EF0AAFE019B0099B8
:103D5000013306310028F0D130468A4915F0D8FAEF
:103D600085E603F0F5FE002900F026844FF47A7210
:103D700000235BF085F9D4E90012002388429341C7
:103D8000D3D2E9E706A9E01C062200930EF0DCFE80
:103D9000294606A80EF084FE00287FF468AEA278BB
:103DA000BAB9009B092B14D9A3F10901034604F108
:103DB000090C04F1080212F8010F002800F0C48475
:103DC00001338B42F7D16046FEF750FD002840F0EA
:103DD0000A850023C5E90033AB60FEF701FF46E624
:103DE00003F0B6FE002900F0ED834FF47A72002351
:103DF0005BF046F9D4E90012002388429341FFF4B6
:103E000058AF3FE700230022012000215A4CC4E9AB
:103E100000235D4C20705D4801705D48C0E90023BF
:103E20005C48C0E900235C48C0E900235B4B197083
:103E300003F08EFE002900F0CA834FF47A7200234B
:103E40005BF01EF900239FED4A7B554ADFF87CC1E9
:103E5000C2E9003393605349534ACCF800005348F9
:103E6000C1E9003313700B72514A5249524C03801E
:103E7000012082ED007B81ED007B2370CCF80430C3
:103E800014F0B4FF002014F077FF4C4815F07EF9D1
:103E900042F2085014F046FE052014F051FE0020B6
:103EA00015F0B0FA032011F0EBF8002011F0F0F853
:103EB000434A1068EFF3108172B6D0E8CFCF0124E7
:103EC000BCF1000FF9D1C0E84C4FBCF1000FF4D1A8
:103ED000BFF35F8F4FF0010C042410685160394A22
:103EE0000023C2F801C01470C0E88F3F81F310882E
:103EF000234A224CC2E90033C2E90233C2E9043347
:103F0000314A03A803932360136010F01DFA0028C0
:103F100000F041830023CDE9073306930493ADF805
:103F20000A30ADF8143009932368032B00F2308374
:103F30000DF10A0306AA04A903A810F011FA00283B
:103F400000F0268323687BB100230D4904A8CDE946
:103F500000130EF0A5FD019B0099013306310028E6
:103F6000E2D022689342F1D304A8FEF7FDFADBE722
:103F70000000000000000000F034002020A000201D
:103F800008A0002048F5051096E000209DE00020E4
:103F9000C8340020D0340020E034002098E0002015
:103FA000809C00202CA80020A2E000205CE00020E3
:103FB00000350020F8340020A1E0002034F5051081
:103FC0008C9C0020182D0020C49F0020B8340020B5
:103FD000032120460EF06EFD984B1B8813B19842CA
:103FE0003FF445AD6379002B3FF441AD944A11880D
:103FF00000293FF43CAD4FF0010C924C924884F8FC
:1040000000C00168EFF3108472B6D1E8CFEF5FF023
:10401000010CBEF1000FF8D1C1E84ECFBEF1000F88
:10402000F3D1BFF35F8F4FF0050C8849446081F8EE
:1040300049300B6D006801330B6581F848C00023DF
:10404000C0E88F3F84F3108810881DB0BDE8F043AE
:104050001AF05CBD032120460EF02CFD774B1A8828
:1040600012B1904200F07A82032120460EF022FD28
:10407000734B1B8813B198427FF4F9AC06A8FFF785
:104080005FFB704B1A784AB99DF81C20002A40F05B
:10409000B0839DF81820012A00F0AB831DB0BDE865
:1040A000F043FEF749BE032120460EF003FD634BAB
:1040B0006279198811B1884200F04D82002A40F0DF
:1040C000A68203F045FD002900F033834FF47A7295
:1040D00000235AF0D5FF014600255D4A5D4B116073
:1040E00055604FF00002032120461A700EF0E2FCEA
:1040F00006220146A0180024514B0694198006A9F7
:10410000ADF81C400EF020FD534B06AE1D469B79CA
:10411000002B40F04B83D6E90001002328600120EA
:104120004E4CA9802268A5F80730A871002A00F03B
:104130000E834B4903E02268934280F008833046A7
:10414000CDE900130EF0ACFC019B00990133063160
:104150000028F0D10123EB7100200021414BC3E97D
:10416000000103F0F5FC002900F0E8824FF47A72B8
:1041700000235AF085FF8446002342F210703A4A29
:104180003A49314D3A4C13701CEB000243EB0300EB
:104190000A6048602F4629682360EFF3108272B6E8
:1041A000D1E8CF4F0120002CFAD1C1E8440F002CF8
:1041B000F6D1BFF35F8F25492E4C88460B71D4E9A9
:1041C000001001436A6040F0F982002188F8023053
:1041D00001233868A8F8051088F80030C0E88F1F60
:1041E00082F31088FEF772F941E4032120460EF0B5
:1041F00061FC124B1B8813B183423FF438AC03219E
:1042000020460EF057FC637B8146002B7FF42FACD9
:1042100006A9601D174C069306228B800E460EF0F1
:1042200093FCD4E90032134340F02C830B4C2368F9
:10423000002B00F09E830023094921E05CE0002070
:104240005EE00020A0E000208C9C0020182D0020C3
:10425000B834002098E000202CA8002020A00020E6
:1042600008A00020C83400209EE00020D0340020A8
:10427000C49F0020F03400202268934280F07983AC
:104280003046CDE900130EF00BFC019B0099013381
:1042900006310028F0D17E4B1D469B79002B40F063
:1042A0002983D6E90001012200237A4CAA712268F1
:1042B0002860A980A5F80730002A00F0E18276493D
:1042C00003E02268934280F0DB823046CDE90013A0
:1042D0000EF0E6FB019B0099013306310028F0D176
:1042E0000123EB7103F034FC4FF47A72002900F0E3
:1042F000C18200235AF0C4FE034600216748684A81
:10430000684C0360137841602170002B40F0EE820E
:10431000654B1D461F461968EFF3108372B6D1E84E
:10432000CF4F0120002CFAD1C1E8440F002CF6D168
:10433000BFF35F8F00246B605C4D3968A846147032
:10434000EC70C1E88F4F83F31088594B3A681C70AA
:10435000EFF3108172B6D2E8CFCF0120BCF1000F8D
:10436000F9D1C2E84C0FBCF1000FF4D1BFF35F8F5D
:10437000EA6C79600132EA643A68C2E88F4F81F3EF
:10438000108801214B4A3868A2F800904A4A1170FF
:10439000EFF3108272B6D0E8CFEF5FF0010CBEF100
:1043A000000FF8D1C0E84ECFBEF1000FF3D1BFF33C
:1043B0005F8F38687A602971C0E88F4F82F3108868
:1043C00048461AF0C1FA0121394B002840F02E82EC
:1043D00003F0BEFB4FF47A72002900F0CF82002375
:1043E0005AF04EFE034642F21071002233485B1829
:1043F000036042EB020339684360EFF3108372B647
:10440000D1E8CF4F0120002CFAD1C1E8440F002C95
:10441000F6D1BFF35F8F012039687B6088F8000018
:10442000C1E88F2F83F31088FFF721BB03212046BB
:104430000EF040FB224B1B8813B198423FF417ABA0
:104440006379002B40F04C81174FDFF860803B68A8
:10445000EFF3108272B6D3E8CF0F01210028FAD112
:10446000C3E8401F0028F6D1BFF35F8F7A606379FD
:104470000021B3FA83F35B09386888F80530C0E897
:104480008F1F82F310881DB0BDE8F043FEF7AAB875
:104490002CA8002020A0002008A00020B834002074
:1044A00099E0002098E000208C9C0020182D00202E
:1044B000A0E000205EE000209EE00020D03400203C
:1044C0005CE00020032120460EF0F4FAA14B1B888B
:1044D00013B198423FF4CBAA052120460EF0EAFA28
:1044E00000283FF4C4AAE379A12B00F05A81312BB4
:1044F0007FF4BDAA0246E11D06A801F0F5FF069B68
:104500003BB9954A937915461BB1137A002B00F0FD
:104510005582924C27462368EFF3108272B6D3E897
:10452000CF0F01210028FAD1C3E8401F0028F6D19F
:10453000BFF35F8F069B6260002B00F0E381884A27
:10454000536C0133536400233A68C2E88F3F7B68A1
:1045500083F3108897E7002A00F0A681002200204C
:1045600000211A807F4B804CC3E900017F4D804BB6
:104570002A70C3E900012270FFF779BA304614F0BF
:10458000F3FEFFF774BA304614F022FFFFF76FBA5C
:1045900003A80FF0F9FE2368F3B9764B1B78002BC4
:1045A0003FF465AA744B1B78002B3FF460AA1DB042
:1045B000BDE8F043FFF710B9704BA3FB0030800952
:1045C000FFF7D9BB6D4BA3FB0030800912E46B4BA6
:1045D000A3FB0030800935E4694B1B78002B40F0C9
:1045E000D980684A136003F0B3FA4FF47A72002955
:1045F00000F0438100235AF043FD03460022624944
:10460000FA3342F100020B604A60FFF730BA01242E
:104610005E48524904700B68EFF3108072B6D3E81D
:10462000CFCF0124BCF1000FF9D1C3E84C4FBCF14E
:10463000000FF4D1BFF35F8F494B042483F8492066
:104640001A6D486001321A650022096883F84840F3
:10465000C1E88F2F80F3108820E54D4B1E78FFF7BF
:1046600039BA012312892846A97942F40042EB7233
:1046700014F02CFE00283FF4FAA9FFF7EEBA13213C
:1046800020460EF017FA1521054620460EF012FAC4
:1046900040F24C539D427FF421AA002E00F0748119
:1046A000012E00F07B8140F6E643984204D040F6AC
:1046B000F25398427FF416AA06A9A01C06220EF017
:1046C00043FA002106A8FEF713FCFFF7D0B9A17E3C
:1046D00004F11B00FEF7CAF80028EDD1FFF702BA7B
:1046E00001201E4D294A2F4629681070EFF31082D1
:1046F00072B6D1E8CFCF0120BCF1000FF9D1C1E8EB
:104700004C0FBCF1000FF4D1BFF35F8F14496A6006
:1047100081F849300B6D084601330B658846062148
:10472000002380F848102968C1E88F3F82F3108881
:104730008DE6124BA3FB00239909CDE40F4BA3FB9D
:1047400000324FEA921C17E51946FFF73CBB0023E5
:1047500001E500BF5CE000202CA800208C9C00201C
:10476000182D0020F8340020A1E00020A2E0002055
:104770000035002097E0002096E00020D34D621025
:1047800098E00020C49F0020C8340020A0E0002052
:104790000A2D0020002200239549C1E90023FFF7DC
:1047A00066B901283FF463A9237AA0E6294630467A
:1047B0000EF076F900287FF4AEACCDE403F0C8F932
:1047C0004FF47A72002900F08E8000235AF058FCD2
:1047D000034600212268934263687A68994134BF96
:1047E00001230023F1E400218248FEF781FBFFF75B
:1047F0003EB90120804918700A68EFF3108072B644
:10480000D2E8CF4F0123002CFAD1C2E8443F002C5C
:10481000F6D1BFF35F8F0824784B48601A6D0968A2
:1048200001321A65A3F84840002211E719703B686D
:10483000EFF3108272B6D3E8CFCF0121BCF1000FA5
:10484000F9D1C3E84C1FBCF1000FF4D1BFF35F8F67
:104850002B6D396801332B65032385F849007A6095
:1048600085F84830C1E88F4F82F31088FEF764FA6C
:10487000FFF7FDB8B0FBF2F33FE5B0FBF2F3BDE6A6
:1048800000232EE503F064F94FF47A72002978D002
:1048900000235AF0F5FB0346D4E9000100228342CD
:1048A0008A41FFF4F8ACC1E403F052F94FF47A7294
:1048B00000297DD000235AF0E3FB0346002242F298
:1048C00010704FF0010C4E494E4C0B604A601B18A3
:1048D00084F800C04C494D4C42EB0200C1E9003065
:1048E0002270FFF7C4B8B0FBF2F372E714F0B0FC2B
:1048F000474A0DE5294630460EF0D2F800287FF4ED
:10490000D0ACEFE403F024F94FF47A72002952D0CE
:1049100000235AF0B5FB0346002203204FF00105A7
:104920009FED317B3B49DFF8D4E00B603A4B0EF151
:1049300010040DF11C0C8EF800004A601A70BCE8DF
:104940000F000FC4BCE80F000FC49CE80F0007C4A1
:1049500024F8023B1B0C2370DEF840308EF8065022
:104960000133CEF840302D4B8EF8085083ED007B9C
:10497000E9E548461AF00EF8FFF779B8B0FBF2F314
:1049800031E5B0FBF2F387E740F6E643C21A504246
:10499000504100287FF490AEFFF7A4B840F6F253E0
:1049A000C31A5842584100287FF486AEFFF79AB8E0
:1049B000B0FBF2F382E7B0FBF2F3ADE71849194C14
:1049C00009E01948CDE900130EF06AF800990631A4
:1049D00038B1019B013322689342F2D31248FDF7AC
:1049E000C3FD01232B7294E50000000000000000CD
:1049F000C8340020809C00208C9C0020182D0020B2
:104A0000F8340020A1E0002000350020A2E00020C2
:104A100099E00020B834002098E00020D034002035
:104A200008A0002020A000202CA8002000000000EA
:104A300070B58F4C98B023780BB918B070BD8D4B02
:104A40001B7823B18C4B1B88002B40F0A3808B4B31
:104A50001968EFF3108272B6D1E8CF4F0120002C15
:104A6000FAD1C1E8440F002CF6D1BFF35F8F84491F
:104A70005A60097800201B68C3E88F0F82F3108802
:104A8000804C2378002BD8D121B17F4B1B88002B81
:104A900040F054817D4CD4E90032134319D17C4C51
:104AA000D4E90032134340F09C817A4CD4E90032BF
:104AB000134340F09380784B1B782BB1774CD4E9AB
:104AC0000032134340F0FC8018B0BDE87040FDF7A1
:104AD00089BD03F03DF8002940F04581704BA3FBF0
:104AE000003080090023D4E90012884273EB0202EF
:104AF000C0F045819FED5C7B6A4A6B496B48C2E917
:104B00000033037093600B7884ED007B002B40F042
:104B1000C6815A4C2368EFF3108272B6D3E8CFCF28
:104B20000120BCF1000FF9D1C3E84C0FBCF1000F1C
:104B3000F4D1BFF35F8F00205D4B6260D8700870C6
:104B40002368C3E88F0F82F3108814F015F92168E9
:104B5000EFF3108272B6D1E8CFEF5FF0010CBEF137
:104B6000000FF8D1C1E84ECFBEF1000FF3D1BFF373
:104B70005F8F4F4B002019789870022908BF0421DD
:104B8000626008BF197000232168C1E88F3F82F37B
:104B900010888AE702F0DCFF002958D04FF47A72BF
:104BA00000235AF06DFA434B1B78272B4BD8002279
:104BB0004149D1E900C1604572EB010143D2DFF800
:104BC000FCC0DCE90051A84272EB010123D223783A
:104BD000002B7FF43CAF2A4B197851E702F0B8FF65
:104BE000002939D04FF47A7200235AF049FAD4E9F7
:104BF0000012002388429341FFF45DAF02A8FEF744
:104C00009FFD9DF80E30002B00F04D810022002307
:104C1000C4E900234FE7184DFA302649CCF80000CC
:104C2000288803F1010342F100020B700190CCF8D7
:104C3000042019F06BFF2B8801988342C7D11D4BCC
:104C40001B78272BC3D900230A4A1370BFE7144BE4
:104C5000A3FB00308009A6E7114BA3FB00308009BD
:104C6000C5E700BFAFF300800000000000000000B7
:104C700097E00020A1E000205CE000208C9C002058
:104C80009CE0002098E000205EE00020F03400204E
:104C9000C8340020D03400209FE00020D834002009
:104CA000D34D6210809C002099E000209DE0002000
:104CB000182D0020A2E0002000350020F83400204C
:104CC00002F046FF002954D1934BA3FB003080092A
:104CD000D4E9002390424FF0000272EB0303FFF48B
:104CE000F3AE3A2200210DF109005AF0EDF901224C
:104CF0008A4B8DF808201968EFF3108272B6D1E85C
:104D0000CFCF0120BCF1000FF9D1C1E84C0FBCF1AD
:104D1000000FF4D1BFF35F8F81495A6009881B6887
:104D200031B18049487918B10978032900F04581EB
:104D30000021C3E88F1F82F31088C5E602A8019105
:104D4000FEF7FEFC9DF808300199032B00F0FE8071
:104D50002378002B7FF471AE734CD4E900321343F7
:104D60007FF4B7AE9BE64FF47A7200235AF088F9CD
:104D7000B8E64FF47A7200235AF082F9A8E702F0FD
:104D8000E7FE21B34FF47A7200235AF079F9D4E99F
:104D90000021002390428B4112D30A433FF47FAE9F
:104DA00002F0D6FEC1B14FF47A7200235AF068F9CE
:104DB000D4E90012002388429341BFF470AE74E638
:104DC0005A4B1B78002BEBD1FDF70AFF6DE6524BD7
:104DD000A3FB00308009DAE74F4BA3FB00308009CA
:104DE000E6E702F0B5FE002900F090804FF47A72F9
:104DF00000235AF045F9D4E9001200238842934178
:104E0000FFF453AE494B1B78002B7FF44EAE444B5E
:104E10001B88002B7FF449AE00200021444BC4E9DD
:104E200000011B78002B3FF440AE424B1B78002B57
:104E30007FF43BAE404B414A1B6812689A4219D935
:104E40003F4803EB430200EB420150F812003A4D99
:104E50008A8802900133012102A8ADF80C202B6052
:104E6000FEF746F800287FF420AE344A2B6812681B
:104E70009342E5D302F06CFE002900F0B9800023D4
:104E80004FF47A725AF0FCF80346002213F5FA63E5
:104E9000236042F100036360274B1A6005E614F0BB
:104EA000D7F9284935E61E4A118800293FF403AE98
:104EB000002000214FF0010CC4E90001224D1748E9
:104EC00085F800C00168EFF3108472B6D1E8CFEF27
:104ED0005FF0010CBEF1000FF8D1C1E84ECFBEF17A
:104EE000000FF3D1BFF35F8FD0F800C044600720FC
:104EF0000C49A1F84800086D01300865CCE88F3FE7
:104F000084F31088108819F001FED4E5024BA3FB4E
:104F1000003080096FE700BFD34D62108C9C0020E9
:104F20005EE00020182D0020F03400209EE00020DC
:104F300096E000209DE00020C49F002020A00020DB
:104F400008A0002099E00020A0E000209DF80E308D
:104F5000002B3FF4FDAE2C4AD2E9003213433FF45C
:104F6000F7AE4EF66023A1FB033216461D4602F053
:104F7000EFFD002937D000234FF47A725AF080F801
:104F8000034621490A689B1A4A684FF0000162EB08
:104F90004202AB42B241FFF4DBAE01229FED187B2F
:104FA0001A481B4B1B4D008883ED007B2970227033
:104FB00018B0BDE8704019F0A9BD0021C3E88F1FEB
:104FC00082F31088144B1B688B42BFF67DAD02A89C
:104FD000FDF7BCFB002200234FF000000D49C4E99F
:104FE0000023087070E50D4BA3FB00239B09C8E765
:104FF0004FF47A72B0FBF2F347E700BFAFF30080E3
:105000000000000000000000B83400205EE0002036
:10501000C83400209FE00020102D0020D34D6210E6
:10502000D0E90010884239D04FF0FF3300B51C4A58
:105030001944184411F801EF8EEA030E4EF30003F1
:105040004EF3400C134083EA5E030CEA020C8CEA38
:10505000530C43F340034CF3400E134083EA5C03CC
:105060000EEA020E8EEA530E43F340034EF3400C59
:10507000134083EA5E030CEA020C8CEA530C43F300
:10508000400313404CF3400E83EA5C0381420EEA76
:10509000020C8CEA5303CDD1D84300BD00207047E9
:1050A0002083B8ED2DE9F043D1E90232D61A302E33
:1050B000054683B007DD0023C0E90033836028463E
:1050C00003B0BDE8F08340200F46019304F07EFE5C
:1050D0003E2204460021023059F0F6FF44F64D42CC
:1050E00022803A68019BC4F802203A79E671A271E5
:1050F000002E46D0721E052A40F2A780C3F1080296
:105100002244022A40F2A1801A68C4F80920B20899
:10511000012A00F0A5805968022AC4F80D1000F099
:1051200082809968032AC4F811107CD0D968042AB7
:10513000C4F8151077D01969052AC4F8191072D06F
:105140005969062AC4F81D106DD09969072AC4F858
:10515000211068D0D969082AC4F8251063D0196ACB
:10516000092AC4F829105ED0596A0A2AC4F82D10F9
:1051700059D0996A0C2AC4F8311054D1DB6AC4F8AA
:10518000353006F10907384604F020FE2146064670
:105190003A46814659F094FF4FF0FF3306EB070C77
:1051A00032499C44F01810F8016F5E4046F3000E3F
:1051B0000EEA010E46F340038EEA560E0B4083EAD8
:1051C0005E034EF3400E0EEA010E8EEA530E43F3D9
:1051D00040030B4083EA5E034EF3400E0EEA010EDD
:1051E0008EEA530E43F340030B4083EA5E034EF313
:1051F000400E0EEA010E8EEA530E43F340030B40BD
:10520000604583EA5E03CED1DB434846E35139462D
:1052100004F0E0FD284604F14003C5E901332C60A9
:1052200003B0BDE8F083B10726F00302A9D0985C73
:10523000A1184872501C8642A3D9185C02329642CB
:1052400088729ED99B5CCB729BE7013B04F10802FC
:10525000F01813F8011F834202F8011FF9D190E7FB
:105260001A79052062730422A118E6E72083B8EDBD
:105270000346002201202DE9F04182B0C3E901225A
:10528000C3E903221A605A611871D1E90042121B66
:105290003F2A187204DC1860184602B0BDE8F0819D
:1052A000402A05D0052218461A6002B0BDE8F081F8
:1052B00022784D2A05D0022218461A6002B0BDE8B5
:1052C000F08162784C2AF6D1A278012A02D003221A
:1052D0001A60E1E7B4F80720302A174602D9042201
:1052E0001A60D9E7A118887A4A7A009342EA002224
:1052F000C87A097B42EA004207F1090042EA0168E4
:1053000004F064FD07F109020646214659F0D8FE73
:105310004FF0FF3207F1090306EB030E3248009B02
:10532000964406EB020C1CF8011F514041F30002A9
:10533000024082EA510241F34001014081EA5201F8
:1053400042F34002024082EA510241F3400101402F
:1053500081EA520142F34002024082EA510241F3E3
:105360004001014081EA520142F34002024082EAD8
:10537000510241F340010140F44581EA5202D2D189
:10538000304607F10901CDE9002304F023FD009A1E
:10539000019BD243904502D006221A607CE704F1BB
:1053A0000C0139440A4611F8010F00287FF47AAF46
:1053B0003E3AA242F6D1E2785A71A288DA80A27906
:1053C0001A72002F3FF468AF3846009304F0FEFCD9
:1053D00006463A4604F1090159F072FE009BF219A3
:1053E000C3E903625A6157E72083B8ED10B504465C
:1053F000A446DFF818E0BEE80F00ACE80F009EE816
:1054000007008CE80700204610BD00BF883E06104C
:1054100070B50B780446012B3ED1D1ED017A9FED9A
:10542000D47AF0EEE76AF4EE476AF1EE10FA0DD89E
:10543000B7EE007AF4EEC77AF1EE10FA06D4B0EEC9
:10544000007AF4EEC77AF1EE10FA2FDD0022212067
:10545000227004F0BBFC20238646DFF830C3002214
:105460008EF82020C4E90233BCE80F00C4F804E041
:10547000CEF80000CEF80410CEF80820CEF80C309C
:10548000BCE80F00CEF81000CEF81410CEF81820AB
:10549000CEF81C30204670BD00222120227004F07E
:1054A00095FC20238646DFF8E8C2D8E791F908305A
:1054B000002B2DDB91F90930002B29DB8B7A072B90
:1054C00045D8CB7A3C2B63D80B7B022B00F285802E
:1054D0004B7B103B6F2B00F2A7808B7B022B00F2E3
:1054E000CB804B7D0A2B00F2EC80CB7D173BDBB2EF
:1054F000E72B40F211810B7E012B00F22F81034636
:105500000121002203F80C1BC0E901320273C1E73C
:1055100000221920227004F059FC1823864600222C
:10552000DFF870C20276C4E902336060BCE80F00A5
:10553000CEF80000CEF80410CEF80820BCE8030036
:10554000CEF80C30CEF81000CEF81410A2E70022EE
:105550001D20227004F03AFC1C2386460022DFF84E
:1055600038C20277C4E902336060BCE80F00CEF8AD
:105570000000CEF80410CEF80820CEF80C30BCE8BD
:105580000700CEF81000CEF81410CEF8182081E7EE
:1055900000232220237004F019FC212306468646AE
:1055A000744D6060E360AC460EF1100EBCE80F0075
:1055B0004EF8043C704B10359C454EF8100C4EF8DC
:1055C0000C1C4EF8082CEED12B7821228EF80030DE
:1055D0000023A26086F821305CE700221C202270A4
:1055E00004F0F4FB1B2386460022DFF8B0C1C2762C
:1055F000C4E902336060BCE80F00CEF80000CEF8CA
:105600000410CEF80C30BCE80300BCF80030CEF833
:105610000820AEF818309CF80230CEF81000CEF812
:1056200014108EF81A3035E700232720237004F079
:10563000CDFB262306468646504D6060E360AC46AF
:105640000EF1100EBCE80F004EF8043C4C4B103528
:105650009C454EF8100C4EF80C1C4EF8082CEED160
:10566000AB882622AEF8043000232868CEF800006C
:10567000A26086F826300DE700221F20227004F079
:10568000A5FB1E2386460022DFF814C18277C4E9F9
:1056900002336060BCE80F00CEF80000CEF80410C2
:1056A000CEF80820CEF80C30BCE80700BCF800307B
:1056B000CEF81000CEF81410CEF81820AEF81C303A
:1056C000E8E600222020227004F080FB1F2386469B
:1056D000DFF8D0C000228EF81F20C4E90233BCE8F6
:1056E0000F00C4F804E0CEF80000CEF80410CEF8A5
:1056F0000820CEF80C30BCE80700BCF80030CEF82B
:105700001000AEF81C309CF80230CEF81410CEF821
:1057100018208EF81E30BDE600233120237004F0DF
:1057200055FB302306468646164D6060E360AC4666
:105730000EF1100EBCE80F004EF8043C124B103571
:105740009C454EF8100C4EF80C1C4EF8082CEED16F
:1057500030220023A26086F830309BE60022202011
:10576000227004F033FB1F238646DFF83CC0B1E70C
:10577000FFFF7F7FD4F50510F4F5051014F6051032
:1057800034F605107CF60510ACF6051074F505101E
:1057900050F5051098F50510B4F50510F8F505104D
:1057A0003CF605105CF60510B0F605109FED247A66
:1057B000D1ED017A67EE877A0023FCFEE77A91F853
:1057C00010C04A7C4FEA4C0C4CEA820CCA7B00B5F4
:1057D00042EA0C0291F800C0C0F80B30C0F80F305C
:1057E000C0F81330C3756CF3070391F812C091F839
:1057F00016E042EACC0291F813C042EA0C1291F88A
:1058000014C042EA4C1242EA8E128272D1F8092088
:1058100091F808C04260B1F80D2002814A7D027300
:10582000CA7D42730A7E827317EE902A62F30F23B9
:10583000C2F3072262F317436CF31F63036000BDDA
:105840000000C8422DE9F041D1E900E3A3EB0E03CB
:105850000E2B074688B026DC002323203B7004F083
:10586000B5FA2223844605464D4E786006F1200E97
:10587000FB60344610350FCC744506F1100645F830
:10588000100C45F80C1C45F8082C45F8043CF0D1E8
:10589000338822222B8038460023BA608CF82230CD
:1058A00008B0BDE8F08101AD94462C463D4EDFEDD9
:1058B0003E6A0FCE0FC596E8070085E807000FCCBB
:1058C000CCF80000CCF80410CCF80C3003CC2378D2
:1058D000CCF80820CCF81000CCF814108CF8183054
:1058E0009EF800304FF000088CF80030BEF8013010
:1058F000384607EE903AF8EEE77A87EEA67A8CED16
:10590000017A9EF8033061468CF808309EF8043026
:105910008CF809309EF805308CF80A309EF8063075
:105920008CF80B309EF807308CF80C309EF808305D
:105930008CF80D309EF809308CF80E30BEF80A3025
:1059400003F0010262F30708C3F3400262F30F2879
:10595000C3F3800262F31748C3F3C00262F31F6807
:10596000C3F300128CF81320C3F34012C3F3801367
:10597000CCF80F808CF814208CF816309EF80C3080
:105980008CF815309EF80D308CF817309EF80E30DC
:105990008CF81830FFF73CFD384608B0BDE8F081C0
:1059A000D0F60510883E06100000C842F0B5D0E9D8
:1059B0000034A4EB030CBCF13F0F91B068DD93F809
:1059C00000C0BCF14D0F63D193F801C0BCF14C0F86
:1059D0005ED193F802C0BCF1430F59D193F803C0D4
:1059E000BCF1460F54D104460646202015460F460A
:1059F000019304F0EBF9CDE90200019B00F12002D4
:105A00000492D3F800E0D3F804C099680392DA68EE
:105A1000C0F800E0C0F804C08160C2609969DA692A
:105A2000D3F810E0D3F814C0C0F810E0C0F814C0E8
:105A30008161C26193F8222093F82110120442EA96
:105A4000012293F8201093F823300A4342EA0363BB
:105A500002A80193FFF7E4FA019B83420BD00023D5
:105A6000029828B104990193091A04F0B3F9019B33
:105A7000184611B0F0BD216801F1230301F13F0286
:105A800001E0934208D013F8010F0028F9D0E6E7AF
:105A90000023184611B0F0BD1820019104F096F9CA
:105AA000019900F1180ECDF820E00690D1F808C059
:105AB000CB680C69CDF81CE0D1F814E0C0F800C048
:105AC00043608460C0F80CE0CB69D1F818C02A4666
:105AD0004361C0F810C006A909A8FFF7B3FE9DF8FE
