:020000041000EA
:10000000002008205B0100101B0100101D010010E2
:100010001101001011010010110100101101001058
:100020001901001019010010190100101F01001022
:10003000110100101901001021010010230100100E
:100040001101001011010010110100101101001028
:100050001101001011010010110100101101001018
:100060001101001011010010110100101101001008
:1000700011010010110100101101001011010010F8
:1000800011010010110100101101001011010010E8
:1000900011010010110100101101001011010010D8
:1000A00011010010110100101101001011010010C8
:1000B00011010010110100101101001011010010B8
:1000C00011010010110100101101001011010010A8
:1000D0001101001011010010110100101101001098
:1000E0001101001011010010110100101101001088
:1000F0001101001011010010110100101101001078
:100100001101001011010010110100101101001067
:10011000EFF30580103800BE00BE00BE00BE00BE7A
:1001200000BE00BEF2EB8871C8870A10E8870A108B
:100130009C01001090A31AE7D3DEFFFF42012110BB
:10014000FF01000098BB0A00793512AB00201E4960
:10015000086006C881F3088810474FF050400068D7
:1001600008B10020F3E70DA40ECC002902D000F066
:1001700012F8F9E71549164A002000E001C1914242
:10018000FCD114498847144988471449884700BE60
:10019000FDE701C901C29A42FBD37047E8870A1004
:1001A0002001002008360020D0BC0A1000000820E2
:1001B00000000820D0BC0A10001008200010082001
:1001C000000000007047000008ED00E00836002045
:1001D00054E2002069B200102514001061B2001032
:1001E000704700BF00B5042183B0019009F056FCB0
:1001F000019803B000BD00BF012904D8D2E9000373
:100200001B1A402B01D00020704710B50C46C2B01D
:100210000192FF214FF4807202A85EF015FF019B4E
:1002200002A8D3E90012521A5EF0CEFE04F2FB30AF
:1002300000034FF4805101905EF0E2FE01984FF40C
:10024000807202A95EF0F0FE012042B010BD00BF36
:100250002DE9F0411F4D07462E6807F0DFFA99B3EC
:100260004FF47A7200235EF0F3FEDFF8788006EB3D
:100270004606340148F8040038465EF0B3F92822F7
:10028000904228BF1046631D08EB0616002130710E
:1002900003EB08005EF0D8FE394632795EF094FE3A
:1002A0000D480E4B0268511C0C2928BF0C212A68EE
:1002B00001600132A3FB0243DB0803EB4303A2EB23
:1002C00083022A60BDE8F081054BA3FB0030800962
:1002D000CBE700BF2C39002070390020ABAAAAAAB6
:1002E000D34D62107439002010B51948194C01F033
:1002F000F7FF174802F0F6FEA07C01F06DFB207DB1
:1003000001F076FB144A237F1178003B18BF0123CC
:10031000FF29E07E05D0884216D04FF0000444EC5F
:1003200044100E4CFF28107023700CD006F048F9D2
:10033000094A4FF00101137841EC4430FF2B02D001
:10034000227842EC403010BD044C10702370EDE771
:10035000B83B0020B43B0020302E002023E20020D8
:100360009C46002300B58BB08E46CDE90633CDE91F
:100370000833012342F00102ADF816008DF8152074
:10038000DCE90010421A8DF818E08DF8143022D103
:1003900005A902A8089204F027FCDDE90212521A0E
:1003A000402A049B08D089B9079818B10999091AFD
:1003B00009F074FB0BB000BD0E48CDE900135EF0F0
:1003C000FBFDDDE9001301200B4A10700846591AA5
:1003D00009F064FBE8E710460191009209F05AFB2E
:1003E000DDE900215EF0F0FD009A079002440992D9
:1003F000CEE700BF303900201DE2002000000000E1
:100400002DE9F041804684B0104616460F465EF056
:10041000E9F80446D8B1302828BF3024204609F036
:1004200039FB0546314622460619009002965EF0D9
:10043000CBFD3946404602226B460196FFF790FFFE
:100440002146284604B0BDE8F04109F027BB9FEDE6
:10045000087B3946404602226B468DED007B0294B4
:10046000FFF77EFF04B0BDE8F08100BFAFF300806E
:1004700000000000000000002DE9F04FD1E900531A
:100480008B46DBF808909D42A9EB050383B018BFAB
:100490004D603F2BDFF8448174D8DBF80060AC1B63
:1004A00004F1004340333F2B40F29080402C2CBF9E
:1004B000271904F140076FF000439F4228BF1F46F1
:1004C000384609F0E7FAAE4282467DD0621E052A20
:1004D00033466FD9811B0139022902466AD924F0BB
:1004E000030C4FEA940E06EB0C0053F8041B8342F6
:1004F00042F8041BF9D1644510D01A4612F8011BCA
:10050000D44495420AF82E1008D05A788CF801206D
:100510009A1C95421CBF9B788CF8023054442346A9
:10052000C6469C4608F14004019375460CF1100C38
:100530000FCDA5420EF1100E4CF8100C4CF80C1C0F
:100540004CF8082C4CF8043CEFD1019B03F140051A
:1005500026B13046A9EB060109F0A0FACBE900A5C7
:100560005744CBF808701B4B984503D1012003B0CA
:10057000BDE8F08FDBF80890DFF85880A9EB0503A1
:100580003F2B8AD9464608F14007344610350FCC38
:10059000BC4206F1100645F8100C45F80C1C45F855
:1005A000082C45F8043CF0D1DBF804504035CBF87A
:1005B0000450D8E753465444721E12F8011F03F842
:1005C000011B9C42F9D1AAE70346A9E7024854F06F
:1005D000FDF800BF00C03F1020F1051000B03F1033
:1005E0002DE9F0470446B6B0402009F053FA2346FF
:1005F000024600F1400425460794059003F14004AB
:100600001968D3F804E0D3F808C0D8681033A342BF
:100610001160C2F804E0C2F808C0D06002F1100214
:10062000EED105A90BA8069504F0C4FB0B9BBDF801
:1006300032409DF83410BBB94B1E112B00F23586A9
:10064000DFE813F03000470060008500C4000C01B3
:100650001D0146014C023D02E802C002D002A20286
:10066000B102F7030904250020468A4AFFF7C8FEB5
:100670000E9818B11099091A09F010FA059818B1D6
:100680000799091A09F00AFA36B0BDE8F087DDE9E2
:100690000E239A4200F05084122120467E4AFFF732
:1006A000AFFEE5E7042009F0F5F905467B4B05F1BF
:1006B000040C1868002228600121204620ABCDE9F7
:1006C00021CC2095FFF74CFE0421284609F0E6F9DD
:1006D000CEE70C2009F0DEF90546714B05F10C0C54
:1006E00007CB20AB286069602046AA600221002267
:1006F000CDE921CC2095FFF733FE0C21284609F0E7
:10070000CDF9B5E7674920A804F0F2FD182009F0FB
:10071000C1F905460DF1800C00F11803CDE919333C
:100720001890BCE80F0028606960AA60BCE803006C
:10073000EB602861696120469DF83410002218ABF7
:10074000FFF70EFE1821284609F0A8F990E7DFF818
:100750007CE10DF1440CBEE80F00ACE80F009EE810
:1007600007008CE8070011AA0EA918A804F00CFED7
:100770009DF86030002B00F0E4844B4911AA20A8BA
:1007800005F05CF89DF88030002B00F03785474875
:10079000FFF75EFD002220469DF8341008ABCDE93E
:1007A00008220A92FFF7DCFD219823AB984203D080
:1007B0002399013109F072F919981BAB98423FF463
:1007C00057AF1B99013109F069F951E7DFF8D4E01F
:1007D0000DF1800CBEE80F00ACE80F009EE80700AA
:1007E0008CE80700AEF1140005F04CF8002800F08A
:1007F000A084FFF779FD01222D4B2E481A70FFF7D8
:1008000027FD29499DF88E208B7C9A4204D19DF8C2
:1008100090200B7D9A4216D02748FFF719FD012240
:10082000264B1A7006F0FAFF002900F092844FF46C
:100830007A7200235EF00CFC0023214AFA3043F167
:10084000000310605360002220469DF8341018AB5E
:10085000CDE918221A92FFF783FD09E7124805F047
:1008600025F91848FFF7F4FC002220469DF83410C3
:1008700020ABCDE920222292FFF772FDF8E6DDE9F8
:100880000E239A4200F03383072120460E4AFFF7D9
:10089000B7FDEDE638F1051014F30510FC3C061029
:1008A000F03C0610B83B0020B43B002048F1051096
:1008B0001FE200207CF1051094F1051021E20020D8
:1008C00028360020C0F1051068F30510183D061009
:1008D00020A802F0C5FE18A801F070FDC74B1D78D6
:1008E0000BF02AFB9DF880209DF88410A2F10302F2
:1008F000B2FA82F29DF883300091BDF885108046EF
:1009000052090A209DF881609DF88270039201933C
:10091000029109F0BFF8019A03464271039A0099C7
:10092000C271042281710299457080F80280C670FC
:10093000077119811A701420309D009309F0AAF8EC
:100940000246009B857218680A2110605868009260
:100950005060188926461081184609F09FF8009AC1
:100960009DF860102B0A91749DF88910D372D17490
:10097000319B290C1173290E5173190A9373D1738A
:10098000190C1B0E1174537428201A9D09F082F85B
:100990000346009A0575106814211860506800938A
:1009A000586090689860D068D860106918611046E7
:1009B00009F074F80022009B9DF8C8E0DDF86CC0D7
:1009C00083F81CE09DF8C9E0290A83F81DE04FEA8E
:1009D000154E83F816E04FEA156E597583F817E047
:1009E00033994FEA1C2E83F818C083F819E04FEAB8
:1009F0001C4E4FEA1C6C9A77DA7783F81BC0349A46
:100A00004FEA112C83F8201083F821C04FEA114CD3
:100A1000090E83F82310110A83F8242083F8251087
:100A2000110C120E83F8261083F8272083F81AE0A1
:100A300083F822C05020359D09F02CF8009B014618
:100A400007461A46984680F8285003F12004136898
:100A50005068D2F808E0D2F80CC01032A2420B6005
:100A60004860C1F808E0C1F80CC001F11001EED1F6
:100A7000D2F800C053684046C1F800C04B6028213E
:100A800009F00CF8082100222C0C87F82A402C0EC3
:100A900025FA01F387F82B4007F13004304687F838
:100AA0002930219420ABFA6207F150042097229458
:100AB000FFF756FC5021384608F0F0FFD8E5DDE995
:100AC0000E239B1A042B03D11378522B00F068835A
:100AD0000A2120464A4AFFF793FCC9E5DDE90E32B8
:100AE000D11A012900F33B839A420CBF00231B78E3
:100AF00003201E46009308F0CDFF4FF0000502468C
:100B000001214048009B0068537086421170957027
:100B1000C0F07D820620009208F0BCFF0346009AD8
:100B200003211088DD70188090780093987010462B
:100B300008F0B4FF4FF00002009B0C209A8008F0F0
:100B4000A9FF4FF000060546009BAE711A6880466B
:100B50002A6018469B880621AB8008F09FFF05F1AC
:100B60000C09EE71083500222046092111ABCDE9B0
:100B70001185CDF84C90FFF7F3FBA9EB0807394638
:100B8000404608F08BFF73E5DDE90E031B1A052BC9
:100B900003D10378012B00F048830E2120461A4A26
:100BA000FFF72EFC64E5DDE90E031B1A052B03D1CC
:100BB0000378012B00F04A830F212046134AFFF7E8
:100BC0001FFC55E502F05AFE9DF83410002800F095
:100BD000AA820022204620ABCDE920222292FFF7F4
:100BE000BFFB45E5DDE90E239A4200F04A810D2165
:100BF0002046074AFFF704FC3AE500BF1FE2002049
:100C0000B4F3051070390020FCF105103CF205101A
:100C1000DCF1051020A802F023FD302008F03AFF97
:100C20002F2200F130030546002118908046013044
:100C30001A9300935EF008FA02219DF88020009B31
:100C4000032A1993297000F0688204204FF0060CE3
:100C50000A4600239DF8851019B16046134688F8AE
:100C600001209DF8862012B1034688F801009DF806
:100C7000811019B143F0080388F801309DF8821003
:100C800019B143F0100388F801309DF8831019B1B1
:100C900043F0200388F801309DF8841019B143F027
:100CA000400388F801309DF8871019B163F07F0385
:100CB00088F80130002A00F0DE80DDE92423BDF849
:100CC0009810C8F80220C8F80630BDF8B8209DF882
:100CD000BA30A8F80A10A8F81020002B00F04682BD
:100CE00001220321134688F812209DF8BB2012B17F
:100CF0000B4688F812109DF8BC201AB143F004038B
:100D000088F812309DF8BD201AB143F0080388F826
:100D100012309DF8AC201AB143F0100388F812305D
:100D20009DF8B2201AB143F0200388F81230204613
:100D30000024A646A446214622462346BDF99E50DD
:100D4000BDF99C600095BDF9A650BDF9A270019552
:100D5000BDF8B05002959DF89A5065F3070466F30C
:100D60000F24C6F3072666F31744009E66F31F643C
:100D7000C8F81340C6F3072464F3070EBDF9A0407A
:100D8000029E64F30F2EC4F3072464F3174EC7F3D7
:100D9000072464F3070CBDF9A44067F31F6E64F3E6
:100DA0000F2CC4F3072464F3174C019C2A9F64F3AF
:100DB0001F6CC8F817E0C8F81BC04FEA176EBDF8E3
:100DC000AEC06EF30701C4F307246CF30F214FEAA2
:100DD0001C2C64F307026CF317412A9C66F31F6115
:100DE00064F30F22C8F82310BDF8B440310A61F350
:100DF000070364F30F23BDF8B610240A64F3174306
:100E000061F31F63090A88F82B10390A61F317424E
:100E1000390C61F31F62C8F82730C8F81F200B2176
:100E2000002218ABFFF79CFA3021404608F036FE4E
:100E30001EE4DDE90E239B1A022B06D11378012B49
:100E400003D15078012840F2178210212046C84A69
:100E5000FFF7D6FA0CE4DDE90E031B1A302B03D1A1
:100E60000378012B00F0D28111212046C14AFFF7FF
:100E7000C7FAFFF7FDBB0B21204618ABFFF770FA4E
:100E8000D2E720A802F0ECFB9DF890200820009209
:100E900008F000FE009A0546A2F13102002101206F
:100EA000B2FA82F205F10803CDE919339DF88630D4
:100EB000C5F801105209696018952870002B40F0A0
:100EC0009081AA7040F6B83C9DF88820204643EAFD
:100ED00042132B7100220D2118ABA5F806C0FFF7B5
:100EE0003FFA0821284608F0D9FDFFF7C1BBA24808
:100EF000FFF7AEF90122A14B1A7006F08FFC002912
:100F000000F077814FF47A7200235EF0A1F800229E
:100F1000DFF888C2FA30CCF80000204642F1000425
:100F2000CDE920229DF83410229220ABCCF8044069
:100F3000FFF716FAFFF79CBB18A801F03FFA20A8AC
:100F400002F08EFB01238DF844309DF889309DF826
:100F500060208DF846309DF8883004208DF84730A9
:100F60008DF8452008F096FD054611991A9A2960DA
:100F700008200191009208F08DFD03460199009A26
:100F8000016028461A710421CDE9003208F086FD7F
:100F90001020019A009B110A597122FA00F1120ED9
:100FA0009971DA711B9E08F075FD0546009B06726B
:100FB0001A68082102605A684260184608F06EFDFF
:100FC00020464FEA164C239C85F80AC04FEA166C5F
:100FD00085F80BC04FEA142C330A2C7385F80DC02A
:100FE0004FEA144C240E6B72EC730022122118ABE2
:100FF00085F80EC005F11004CDE919441895FFF7E6
:10100000AFF91021284608F049FDFFF731BB5C4BD2
:10101000917019685B4B0B31A3FB01EC4FEADC0CC0
:101020000CEB4C0CA1EB8C010C31891BA3FB01C315
:10103000DB0803EB4303A1EB8303534F03EB4303B1
:10104000029206201A0107EB0313BD58CDE90023D5
:1010500008F020FD0346029AC5701088032118800D
:10106000907802939870104608F018FD029B2A0AA7
:101070001A712A0C5A710C2008F00CFD2A0E054634
:10108000029B82711A68824602609A8806218280D9
:10109000184608F003FD019B05F10C091A79083583
:1010A00005F8012C002A00F0F6800099042A01F1CD
:1010B0000501394440F2F180082A104638BF082063
:1010C0006FF00043009200F108029A4228BF1A46CE
:1010D00010461746019108F0DDFCDAF800300546AD
:1010E0000360DAF804300199009A436080460830C2
:1010F0005DF06AFF009A0C2183185046009308F0B7
:10110000CDFC009B09211293EB191393002220467A
:1011100011AB1195FFF724F931E5012305204FF0BC
:10112000070C6B7096E52046184AFFF769F9FFF740
:101130009FBA2046164A9DF83410FFF761F9FFF771
:1011400097BA2046199A9DF83410FFF759F9FFF71E
:1011500033BB104BA3FB00308009FFF76DBB0921A7
:1011600020460D4AFFF74CF9FFF782BA0221BCE591
:101170007CF20510C4F2051088F3051021E200206E
:101180002C390020ABAAAAAA7439002034F3051028
:1011900060F10510D34D62104CF305102836002085
:1011A00053780132432B7FF493AC12F8013F562B56
:1011B0007FF48EAC5378312B7FF48AAC3E48FFF736
:1011C00047F801223D4B1A7006F028FB00294ED04B
:1011D0004FF47A7200235DF03BFF0022DFF8F8C085
:1011E00098E69DF8BA306870E870AA7043F0DE03A4
:1011F00068E6334BA3FB0030800988E62046219A3D
:101200009DF83410FFF7FCF8FFF7CEBA2F2101301C
:1012100002F038F99DF8341000287FF4DAAC20464B
:10122000284AFFF7EDF8FFF723BA8178B0F80320DA
:10123000407801F0FFFF9DF8341000287FF4C9AC1E
:101240002046214AFFF7DCF8FFF712BA81780379CC
:10125000C278407802F070F89DF8341000287FF4CE
:10126000B8AC2046194AFFF7CBF8FFF701BA144B88
:10127000A3FB00308009B0E700F0010002F0B6F8EF
:101280009DF8341000287FF4A4AC2046104AFFF7E4
:10129000B7F8FFF7EDB9D04665E4284600925DF057
:1012A00093FE009AD04615445DE42046094AFFF7B4
:1012B000A7F8FFF7DDB900BFA0F305101EE200207C
:1012C000D34D6210ECF2051018F2051058F205101B
:1012D0009CF20510DCF305101836002010B5BDF89F
:1012E00008C028BB23B3012A24D0032A1FD17129A7
:1012F00047D1284A1278002A4AD0BCF13F0F16D9AC
:101300009C46254CA6460CF1100CBEE80F004CF88C
:10131000043C224B10349E454CF8100C4CF80C1C2D
:101320004CF8082CEED1002340201A4A137010BD4F
:10133000002010BD0129FAD1BCF13E0FF7D9184A9F
:1013400002F130011468D2F804E0D2F808C0D06885
:1013500010328A421C60C3F804E0C3F808C0D860A9
:1013600003F11003EED150689168D2F800C05860C4
:10137000C3F800C099609189927B99819A733F204C
:1013800010BD08466246194600F038FB80B210BD19
:10139000104610BD1DE200203039002070390020B9
:1013A000FD3B002010B58CB0BDF838E020B9022A12
:1013B0009C4612D0032A01D00CB010BD7029FBD17D
:1013C00043B3BEF1410F1FD0BEF1400F14D16046B0
:1013D0000CB0BDE81040FFF703B97346624668469B
:1013E00004F0ACFC9DF80030002BE5D02F210DF16E
:1013F000010002F047F8DFE701210020074A0CB0A6
:10140000BDE81040FEF7FCBF1B78702BF4D10CF147
:10141000010CDCE70121024AF1E700BF20F40510CE
:101420000CF405102DE98048BBB00BF00BFF00F069
:10143000DBFD894804F02AF9884C2070FEF754FF40
:101440002378002B00F001818548FEF701FF2C2254
:10145000002125A85DF0F8FD80210822FF23814CA2
:101460008148246824908DF8941006A824A92A9411
:101470008DF897208DF8B83004F0CAFC7B4E06AC8E
:101480003546E36820686168A26810340FC516AB62
:101490009C4206F11006F3D10124DFF8FC9189F893
:1014A00000400BF0E7FE724B039310B91C7001F083
:1014B000EBFD4AF60123002017A9ADF85C300BF0D4
:1014C0005DFDDFF894A1DFF8D4B100214FF0FF30CB
:1014D0000AF0EAFD00F060FE03F0CEF824A802F066
:1014E000BFF89DF8924024B99DF893400CB99DF83F
:1014F000944006F093F9002900F044814FF47A7289
:1015000000235DF0A5FD9DF890200399032A9AF829
:1015100013300D7800F03B81002B40F03D81002C12
:1015200000F0C381534AA2FB0020C30640F19E8114
:10153000002D40F0358128460BF086FE4E4B1B787F
:10154000FF2B04D04D4A1278544044EC403024A87C
:1015500002F086F806F062F9CDE901019DF89610D7
:10156000002940F09D80464F3B78002B40F0A2813F
:1015700099F8003073BB434AD2E9003253EA0200C3
:1015800040F07A812C22002119A85DF05DFD8023B6
:101590008DF86430344B06A8189308238DF8673013
:1015A000FF238DF888302F4B18A91B682F4E1E93F0
:1015B00004F02EFC06AC3546E36820686168A2683A
:1015C00010340FC516AB9C4206F11006F3D101236F
:1015D00089F800309AF81030002B00F0C080012B01
:1015E00000F0E5800AF0A8FC002840F0F28006F048
:1015F00015F961B34FF47A7200235DF029FD224B97
:101600001B7843B1DBE9002390424FF0000272EBFC
:10161000030380F0CC811D4B1A78002A3FF455AFAC
:101620001B4AD2E9001288424FF0000171EB02021E
:10163000FFF44BAF4FF000021A700AF0ABFC3220FF
:1016400005F0C0FF0AF0B0FC3FE71248FDE6094B89
:10165000A3FB00308009D2E7B43B00201FE200204A
:1016600054F40510443C002001808080FC3B0020A5
:101670001CE20020D34D6210302E002023E2002017
:1016800020E20020203600201EE2002021E200207F
:10169000283600203CF4051022E2002018360020F5
:1016A000DFF8D882349AD8F800309A4200F0A98046
:1016B000DFF8CCE2A74F9EF800203B7818AC28ADAD
:1016C000049205930FCD0FC40FCD0FC495E80F0002
:1016D00084E80F00049ADDF8B8C0002A40F01781B2
:1016E00001238EF800309C4B1A609C4B18A906A869
:1016F000CDF878C0C3F800C004F08AFB984E06AC61
:101700003546E36820686168A26810340FC516ABDF
:101710009C4206F11006F3D10AF016FC914E0446E5
:101720003378002B40F0018101238F4C28AD3370BA
:101730000FCD0FC40FCD0FC495E80F0007C424F8D8
:10174000023B1B0C237001233B7089F80030349B53
:10175000C8F800309AF81030002B7FF440AF834A6D
:101760004FF47A61D2E9003253EA020027D001989F
:10177000C31A029860EB02028B4272F10002FFF47E
:1017800036AF1CE07A4BA3FB00308009BBE6002B90
:101790006CD02DB91C46CEE6002D3FF4CCAE2546CC
:1017A0000024214600200BF057FD2C46C6E66F4A68
:1017B0004FF4FA61D2E9003253EA0200D7D199F826
:1017C0000030002B3FF413AF0AF0B6FB00283FF4C3
:1017D0000EAF00200BF0D2F900283FF408AF3F23F2
:1017E00001210020634A0BF0E5F900283FF4FFAE29
:1017F0000023019A89F800305C4B1A60029A5A6003
:10180000F5E699F80030002B7FF4E4AE574AD2E9B0
:10181000003253EA02002FD118AC28AD0FCD0FC40F
:101820000FCD0FC495E80F00DFF854C184E80F0016
:101830009CF80070002F71D0474B1B682E9A18A996
:101840001344464A06A81E93136004F0E1FA444E7E
:1018500006AC3546E36820686168A26810340FC59D
:1018600016AB9C4206F11006F3D1B0E6002D40F015
:10187000998001252C465EE60198C41A029860EB17
:101880000200B4F57A5F70F100000AD29AF81010E5
:10189000002900F0898001297FF4A9AE4FF4FA6194
:1018A00065E700293FF46EAEB6E7002D3FF443AE86
:1018B000254676E72C2219A85DF0C6FB80238DF81B
:1018C00064302D4B06A8189308238DF86730FF234A
:1018D0008DF88830214B18A91B68214E1E9304F007
:1018E00097FA06AC3546E36820686168A268103450
:1018F0000FC516AB9C4206F11006F3D101234FF041
:10190000000289F80030174B3A701A7062E6059BA6
:10191000002B37D0104B1B689C44E6E601230E4A8F
:101920008CF8003017603B4688E70F4828A904F080
:1019300001FB78B39AF8183063B3002C3FF4F4AE8F
:101940000AF00AFB3378002B3FF4EEAE00287FF458
:10195000EBAEF8E620E200203C3C0020443C0020B6
:10196000FC3B002024E20020342E00202036002002
:10197000D34D6210FD3B002001808080403C002060
:1019800025E200200D4B1B68A3EB0C029C460C4B80
:101990001A60AAE63378002B3FF4C6AE002C7FF421
:1019A000D2AEC1E62C46FCE64FF47A61DFE6054B89
:1019B000114610461A7006F06FF800BF443C002034
:1019C0003C3C00201EE200200149024803F04CBECE
:1019D000642E0020B43B002040F6E64340F6F2516E
:1019E000012808BF0B46014A138070477A2E002059
:1019F000014B1870704700BF26E2002070B509281F
:101A00008CB023D020281AD005281BD12824C9B196
:101A1000944217D801900D460846224600215DF0F9
:101A200013FB019B052B26D0092B11D02046354AEC
:101A3000354BC5F81720C5F81B300CB070BD3F24DE
:101A40000029E5D1002420460CB070BD1324DEE748
:101A50002E4B1B78002B37D12D4B1A784AB3062218
:101A600028462C495DF0A8FA6B7923F0030343F074
:101A700002036B71E7E702A804F0A6F9AE4602AED6
:101A8000B4460EF1100EBCE80F004EF8043C0AAB51
:101A90009C4506F110064EF8100C4EF80C1C4EF842
:101AA000082CEDD1BCE80300CEF80000CEF80410FD
:101AB000C9E709F0ABFF0122154B1A70154B0A0A52
:101AC000186019715A71CAE7002302A8CDE90233E0
:101AD00009F0FCFD0298104BDDF80A1043404B4022
:101AE0009DF80C209DF80E102B604A409DF80F3099
:101AF0009DF80D1082F04C024B4083F06B032A716D
:101B00006B71B1E701004C4D0024004D26E200202E
:101B100027E20020483C00204D697261054B064ACF
:101B20001B780648002B0CBF002303231288037484
:101B30004281704726E200207A2E0020682E002085
:101B400008B9024870470020704700BF743D061076
:101B500000487047483D061058B940F209434FF419
:101B60004171DFF8E8C03948ACF80230ACF8001039
:101B7000704730B502288BB025D003283ED004280A
:101B80003AD8334B53F82040B4B320465CF02AFDDA
:101B90003F28034628BF3F23591C49001D46DFF854
:101BA000ACC041F4407148B16046621E931C1B1BDF
:101BB00012F801EF9D4220F802EFF7D82348ACF865
:101BC00000100BB030BD40F6F253224A12889A4200
:101BD00035D04FF44F714FF01D0E1F48DFF86CC029
:101BE0000EF1FF3E6246431E864413F8010F9E45E8
:101BF00022F8020FF9D1E1E70020E2E7174B1B784A
:101C0000002BF9D02122002168465DF01DFA212128
:101C1000684609F063FD68465CF0E4FCDFF82CC020
:101C200040B16B4662461C1813F8011BA34222F810
:101C3000021FF9D1411C490041F44071BEE740F256
:101C400046314FF0220E0648C8E700BFA0380020FA
:101C5000343D06107A2E002090F4051026E2002074
:101C60006CF405102DE9F04FD44BADF69C0D1D68BA
:101C7000002D00F098810026DFF850A34FF4F062A9
:101C8000002146A85DF0E0F90AF1020B0DF58D790F
:101C90000395CB4B40F2DF12A3FB0635731B05EB1C
:101CA000530540F2FF132D0A05F10108984528BF9E
:101CB0009846C5EB05143AF93800C5EB4414341BBB
:101CC00080FB04013AF935C0C4F5EF7701370023F2
:101CD000C7FB0C015DF0A0F929F8020C3BF93800B4
:101CE0003BF9353080FB040140F2DF12C7FB0301F2
:101CF00000235DF091F9B34B06F2FF169E4229F8DE
:101D0000040BC6D1C824039D14AE002122463046E0
:101D10005DF09AF928464FF4F072334646A90094D4
:101D200022F0CCFAA042054600F23D81002140227B
:101D300004A85DF089F9A44BA4494FF0FF3E4FF091
:101D4000800A1888DFF898C2DFF8988201F5805978
:101D500004AF03957DE0002B03DA14EB080443F194
:101D60000003240D44EA0334802C4FEA235373F11B
:101D7000000300DB7F24B1F90EB0B1F90620B1F900
:101D800016501BEB02033C704FEAE272B1F91E40A1
:101D900042EBEB72EB1842EBE572E31842EBE472B4
:101DA000B1F92640E51842EBE473B1F92E4062190F
:101DB00043EBE473B1F93640A21843EBE473B1F995
:101DC0003E40A21843EBE473B1F94640A21843EB3E
:101DD000E473B1F94E40A21843EBE473B1F95640F5
:101DE000A21843EBE473B1F95E40A21843EBE4732D
:101DF000B1F96640A21843EBE473B1F96E40A21842
:101E000043EBE473B1F97640A21843EBE473B1F904
:101E10007E40A21843EBE473A2FB004200FB0323C5
:101E2000A4457EEB03026FDA002B03DA14EB0804FF
:101E300043F10003240D44EA0334802C4FEA23537A
:101E400073F10003A8BF7F24803189457C7060D086
:101E50000237B1F90CB0B1F90420B1F91450B1F95D
:101E60001C401BEB02034FEAE27242EBEB72EB18F1
:101E700042EBE572E31842EBE472B1F92440E31857
:101E800042EBE472B1F92C40E31842EBE472B1F991
:101E90003440E31842EBE472B1F93C40E31842EB02
:101EA000E472B1F94440E31842EBE472B1F94C40FA
:101EB000E31842EBE472B1F95440E31842EBE472E8
:101EC000B1F95C40E31842EBE472B1F96440E31805
:101ED00042EBE472B1F96C40E31842EBE472B1F901
:101EE0007440E31842EBE472B1F97C40E31842EB32
:101EF000E472A3FB004300FB0233A4457EEB030224
:101F0000FFF629AF802436E78031494587F801A0E4
:101F10009ED12F4C4FF4C77200212046039D5DF0E7
:101F200093F8362323703F239022237344F29203C5
:101F300028482949E2720278A4F84C300B78A27242
:101F4000013202705A1C1B0104AF0A70637004F165
:101F50004E0EBC460EF1100EBCE80F00B44507F162
:101F600010074EF8100C4EF80C1C4EF8082C4EF8CA
:101F7000043CEED11323012D84F88F5084F88E3069
:101F800016DD2A46314615485DF01EF84FF4C7713C
:101F90000F4804F05FFAC0B2B0FA80F040090DF6C5
:101FA0009C0DBDE8F08F00200DF69C0DBDE8F08F74
:101FB00004BF337884F89030E8E700BF588C0020E5
:101FC0009B01A31120BE0300802E00205C8C00200A
:101FD0005C9C00202DE200202AE20020EC9C0020E6
:101FE0000000F0F7FFFF0F0030B5002483B04FF47E
:101FF0008042002146485DF027F84649464B474D50
:102000000C604FF48052214645482C601C605DF006
:102010001BF89FED3D7B434947F6FF730C60424937
:102020004FF480720C6041494FF400700C604049DD
:10203000404D0C6040490C6040490C6040490C60C8
:1020400040490C60404981ED007B40490C7040499B
:102050000C7040490C7040490C7040490C7040496C
:102060000C7040490C7040490B8040490B8040493E
:102070000B804049404B0A801A804049404A414BFE
:102080000860147021464FF480523F481C705CF089
:10209000DBFF21464FF4C7723C485CF0D5FF40F6A9
:1020A000010202214BF6803001AB2C70019420F02C
:1020B0008DF8374C206008B1019D1DB100232360CD
:1020C00003B030BD40F6A271324A22F0C1F92A466F
:1020D00040F6A671206822F0BBF9052240F6AA71ED
:1020E000206822F0B5F940F6BA3240F6B87120689F
:1020F00022F0AEF9102240F6C471206822F0A8F94F
:1021000003B030BDAFF3008000000000000000000D
:10211000503C0020547C0020EC9D0020507C00208E
:10212000587C0020F89D0020FC9D0020049E00208B
:10213000F09D00202CE20020009E0020F49D002055
:10214000089E00200C9E00203036002028E200204F
:1021500031E2002030E200202BE200202EE20020BD
:102160002FE2002029E20020882E0020862E002069
:10217000842E0020822E0020802E00207C2E002025
:102180002AE200202DE200205C8C00205C9C0020D4
:10219000588C002000710200F0B5444C97B02378B1
:1021A0000BB917B0F0BD05F039FB414AD2E9003553
:1021B000C01A4FF000033F4A61EB0501824273EB06
:1021C000010169D32378002BEBD03B4B1B68002B1C
:1021D000E7D0684601F044FA38490B78002B50D11B
:1021E000374E3849326809688A42DAD39DF80810B8
:1021F0000029D6D0DFF8D8C09E46334C334F0CF6BA
:10220000F875A2B12368013A591CC1F30A0107EB22
:10221000C303AC452160326093E803008CE80300FF
:102220001AD00EF1010E0CF1080C002AEAD1AC45CF
:10223000CCE9002210D0264B0EF1010E03EBCE03A9
:10224000CEF5007E03EBCE0E0EF1080E083343E907
:10225000022208339E45FAD1FFF704FDF8B10123AD
:10226000164A13704FF4C7711A4801F07FF900281D
:1022700097D00021184A1368013313600F4B19706F
:102280008FE79DF80830002BECD1144A0B701368CF
:1022900003F50073136084E7237017B0F0BD0F4A95
:1022A000136803F5007313607BE700BF28E200208A
:1022B00030360020F0490200588C00202CE200202B
:1022C000EC9D00207C2E0020507C0020503C002003
:1022D0005C8C00205C9C0020F49D0020009E00206F
:1022E000D0ED017AB0EE677ABEEECC7A2DE9F041FE
:1022F000C27C284BDFF8BCC01A70027A90F809E063
:10230000C2EBC232ACFB0215CEEBCE3EACFB0E1CD8
:10231000521B437B05EB52021F4D9209AEEB0C0E94
:10232000102B2A800CEB5E0C1C4A38BF10234FEA9E
:102330009C1CA2F800C017EE102A7F2B28BF7F2319
:10234000B2F5807FB8BF4FF48072B2F5007FA8BFAE
:102350004FF40072857A124908356D01103B0D80EB
:10236000104E857CDFF85080807D03EB43035B02D9
:102370003070A8FB03015B1A01EB53010A4F0B4CB1
:102380000B4B890901F500713D7021601A80BDE891
:10239000F08100BF2EE20020862E0020842E002037
:1023A000822E002029E200202FE200207C2E002037
:1023B000802E002011080402890B3527DFF880C029
:1023C0001649174B174A9CF800C009781B781278F9
:1023D00080F800C0417083700AB9134B1A78134B10
:1023E000C2701B68DFF85CC0003B18BF01231049B6
:1023F000104ADCF800C009681268C0F808C0C0E9DB
:102400000312DFF844C00C490C4ADCF800C009682C
:102410001268C0E905C1C2610371704731E2002052
:1024200030E200202BE200202EE20020588C002019
:10243000009E0020EC9D0020089E00200C9E0020A5
:1024400028E20020F09D0020F49D0020124B196826
:10245000EFF3108272B6D1E8CFCF0120BCF1000FAC
:10246000F9D1C1E84C0FBCF1000FF4D1BFF35F8F7D
:102470000A495A60088840B10949487928B1087862
:10248000A0F10300B0FA80F0400900211B68C3E806
:102490008F1F82F3108870471C9E0020FAE10020F5
:1024A000982E002038B54FF44C7200211A485CF089
:1024B000CBFD4FF0FF30002300220021174C184DB8
:1024C00020602860174C1848C4E900230170174C9D
:1024D0001748C4E90023C0E900233F2215485CF0F7
:1024E000B3FD154B1868EFF3108272B6D0E8CF5FDA
:1024F0000124002DFAD1C0E8454F002DF6D1BFF3DD
:102500005F8F00210D485A6001811B68C160C3E8DC
:102510008F1F82F3108838BD249E0020942E002047
:10252000902E0020683600203BE200205836002024
:102530004036002058A100201C9E0020982E00202C
:102540001A4A1368032B24D90268194BC3F81220C6
:102550008288DA82174B1968EFF3108272B6D1E8DD
:10256000CFCF0120BCF1000FF9D1C1E84C0FBCF175
:10257000000FF4D1BFF35F8F4FF0010C0E485A608B
:1025800000211B6880F807C0C3E88F1F82F3108802
:10259000704703EB430C013305491360036841F8AE
:1025A0001C30838801EB4C018B80D3E7B0A1002065
:1025B00098A100201C9E0020982E00202DE9F041BB
:1025C0004F4D2C68002C5BDBFFF740FF002857D0F5
:1025D0004C4E3368002B5BDB05F020F9002951D10C
:1025E000494BA3FB003080090021484BD3E900424E
:1025F000A04271EB020243D34FF4CC744FF0FF3092
:102600003268434F306004FB0272002082F894115C
:102610000021C3E900012C684FF4CC7808FB04F2D8
:102620003C4BB9181888D1F890310132013B91F830
:102630008E113A449BB21DF055F808BB33683460E4
:102640008342A4BF08FB037383F894014FF0FF3368
:102650002B6005F0E3F8E9B14FF47A7200235CF0E7
:10266000F7FC4FF4CC73002203FB047393F88E3114
:102670000430264942F10002362B08604A600ED031
:10268000BDE8F0814FF47A7200235CF0E1FCABE727
:102690001F4FC1E71C4BA3FB00308009E1E71E4C34
:1026A0002368EFF3108272B6D3E8CF0F0121002820
:1026B000FAD1C3E8401F0028F6D1BFF35F8F40F284
:1026C0000111164B6260DA6819810132DA6005F097
:1026D000A5F879B14FF47A7200235CF0B9FC0023BD
:1026E0000F4A2168C2E90003C1E88F3F636883F3A2
:1026F0001088C5E7044BA3FB00308009EFE700BF5B
:10270000902E0020942E0020D34D621068360020B9
:10271000249E0020FAE100201C9E0020982E00201C
:10272000403600203F4BF0B51B680021002B0CBF4A
:102730004FF4CC75002506463B4C95B04FF4C7725C
:1027400005EB040014BF0F4601275CF07DFC374BFE
:1027500068461A78511C197002F00F02314603F0D6
:10276000E5FC4E22694628195CF02EFC4FF4CC7330
:10277000312001214E2203FB07432D4D83F88E01AA
:102780002F60C3F8902183F8941105F047F80029D1
:102790003ED04FF47A7200235CF05AFC0023254AA5
:1027A000254CF17A10605360237039B12F22012A31
:1027B00006F10C0131DD21485CF0FEFB3378EBB112
:1027C0001E4D0DF103040DF13306AC46206861681F
:1027D000A268E3681034B442ACE80F0005F11005BC
:1027E000F3D120686168A268A689A37B07C52E8003
:1027F000AB70FFF7E3FE012015B0F0BDF378002BBE
:10280000DED1F379002BDBD1737A002BF1D0D7E73F
:102810000B4BA3FB00308009C0E7CFD1074B327BC5
:102820001A70CBE7942E0020249E002037E200206F
:10283000902E00203836002034E2002058A10020DD
:10284000D34D6210A44BF0B51B78002B00F07081C3
:10285000A24A1368EFF3108472B6D3E8CF6F012554
:10286000002EFAD1C3E8465F002EF6D1BFF35F8F8A
:102870009B4B156854601B780022C5E88F2F84F3AA
:102880001088012B00F02E81002B40F0B68000282C
:1028900000F0B280082940F2AE8005460346A1F15F
:1028A0000806064413F8012B02F12004A2F1410CA2
:1028B000E4B2BCF1190F98BF2246642A40F06A8145
:1028C0001A7802F12004A2F1410CE4B2BCF1190F14
:1028D00098BF2246752A40F05D815A7802F12004A3
:1028E000A2F1410CE4B2BCF1190F98BF2246612A53
:1028F00040F050819A7802F12004A2F1410CE4B238
:10290000BCF1190F98BF22466C2A40F04381DA7857
:1029100002F12004A2F1410CE4B2BCF1190F98BFFE
:102920002246732A40F036811A7902F12004A2F17E
:10293000410CE4B2BCF1190F98BF2246652A40F061
:1029400029815A7902F12004E4B2A2F1410CBCF1D0
:10295000190F98BF22466E2A40F01C819A7902F125
:102960002004E4B2A2F1410CBCF1190F98BF224639
:10297000732A40F00F81DA7902F12004E4B2A2F167
:10298000410CBCF1190F98BF2246652A40F0028124
:102990000339014415F8013B03F12002A3F1410082
:1029A000D2B2192898BF1346652B40F0EB802B78E4
:1029B00003F12002A3F14100D2B2192898BF1346B7
:1029C000642B40F0DF806B7803F12002A3F141001B
:1029D000D2B2192898BF1346672B40F0D380AB784A
:1029E00003F12002A3F14100D2B2192898BF134687
:1029F000652B40F0C7800020F0BD0028FCD00829DE
:102A0000F9D90346A1F10805054413F8012B02F199
:102A10002004A2F14106E4B2192E98BF2246642A8E
:102A200040F089801A7802F12004A2F14106E4B254
:102A3000192E98BF2246752A7DD15A7802F12004BA
:102A4000A2F14106E4B2192E98BF2246612A72D142
:102A50009A7802F12004A2F14106E4B2192E98BF3F
:102A600022466C2A67D1DA7802F12004A2F14106ED
:102A7000E4B2192E98BF2246732A5CD11A7902F16A
:102A80002004A2F14106E4B2192E98BF2246652A1D
:102A900051D15A7902F12004A2F14106E4B2192E73
:102AA00098BF22466E2A46D19A7902F12004A2F1FB
:102AB0004106E4B2192E98BF2246732A3BD1DA7937
:102AC00002F12004A2F14106E4B2192E98BF224679
:102AD000652A30D10120F0BD33E200201C9E002089
:102AE0008A2E0020002887D00D2984D900F10D06F8
:102AF0004718DFF8BCC0A6F10E0E9CF800201EF8A7
:102B0000013F02F1200103F12000A3F14105C0B211
:102B1000A2F14104C9B2192D98BF0346192C98BFE0
:102B20000A469A420CF1010C30D17645E5D1D1E745
:102B30001D4B1B78A5E69D427FF467AF12297FF6F7
:102B40005AAF00F1120E4718184CAEF11305227857
:102B500015F8013F02F1200103F12000A3F1410C1F
:102B6000C0B2A2F14106C9B2BCF1190F98BF034629
:102B7000192E98BF0A469A4204F101040ED1AE45BF
:102B8000E5D1A7E7A9427FF405AFA3E70136B74235
:102B9000AFD130E79E427FF485AE2CE70EF1010EF7
:102BA0007745D1D127E700BF8A2E0020F8F4051021
:102BB000E8F40510000000004B4B1B78002B4CD0B4
:102BC0004A4B1B78002B48D0494B1B78002B44D133
:102BD000484B1B78002B40D1474B1B88002B3CD126
:102BE000464A10B5D2E9003213430ED004F016FE67
:102BF000002967D1424BA3FB0030800900233F4AE4
:102C0000D2E900128842934126D3082016F0E0FA58
:102C10003C4B1A6810BB9FED327B384981ED007B3D
:102C2000EFF3108172B6D2E8CFEF5FF0010CBEF186
:102C3000000FF8D1C2E84ECFBEF1000FF3D1BFF3C1
:102C40005F8F0122304C5960E270294C1B68227062
:102C5000C3E88F0F81F3108810BD70474FF0010C4F
:102C60002A4981F800C0EFF3108172B6D2E8CF4F45
:102C70005FF0010E002CF9D1C2E844EF002CF5D131
:102C8000BFF35F8FD3F800E059601F4B1A6D83F8D4
:102C900048C0624483F849001A650023CEE88F3F9C
:102CA00081F3108804F0BAFD91B9154BA3FB0030F5
:102CB00080090023114A10F57A7043F10003106077
:102CC000536010BD4FF47A7200235CF0C1F995E7B0
:102CD0004FF47A7200235CF0BBF9EAE7AFF30080AF
:102CE000000000000000000039E2002032E2002075
:102CF00035E200203AE20020FAE1002060360020B0
:102D0000D34D62101C9E0020982E00203CE2002033
:102D10006E4B1B78002B40F0A3802DE9F0416C4BEB
:102D200088461C78064682B07CB96A4F3B687BB106
:102D3000694D02E03B689C420AD2294630460FF0BA
:102D4000C7FE013406350028F4D1644F3B781BB12F
:102D5000002002B0BDE8F081614D2B78002B40F0DF
:102D6000AC80604C2368EFF3108272B6D3E8CF0FCB
:102D700001210028FAD1C3E8401F0028F6D1BFF393
:102D80005F8F00232B70584D21686260EB70C1E8A3
:102D90008F3F82F31088554A30681380B288544EB2
:102DA00000903370ADF804202368EFF3108272B600
:102DB000D3E8CF0F01210028FAD1C3E8401F002833
:102DC000F6D1BFF35F8FEB6C62600133EB64B8F157
:102DD000000F02D06B6D01336B6500232168C1E8E1
:102DE0008F3F82F3108801216846404A1BF0EAFDBC
:102DF0000023002836D1002000213E4BC3E900010A
:102E000004F00CFD00295BD04FF47A7200235CF0D3
:102E10001FF942F21073384AC0184FF000031060D7
:102E20004FF0010043EB0306216838705660EFF362
:102E3000108272B6D1E8CF7F0126002FFAD1C1E807
:102E4000476F002FF6D1BFF35F8F21686260287152
:102E50002870C1E88F3F82F3108802B0BDE8F0818E
:102E600000207047012232702268EFF3108172B6A1
:102E7000D2E8CF7F0126002FFAD1C2E8476F002F9A
:102E8000F6D1BFF35F8F022285F848202A6D85F8BE
:102E900049000132206861602A65C0E88F3F81F3F4
:102EA00010880B49154A0978C2E90033936000295C
:102EB0003FF44EAFFFF780FE4AE716F0A7F950E760
:102EC0000F4BA3FB00308009A3E700BF34E20020D2
:102ED00039E20020B0A1002098A100203AE20020B1
:102EE00035E200201C9E0020982E0020FAE10020F0
:102EF0003CE200204836002050360020109E002082
:102F0000D34D62102DE9F0410022002300255249E3
:102F10005248534E534FC0E90023C6E900230D70B9
:102F2000FFF7C0FA3B68EFF3108272B6D3E8CF0F19
:102F300001210028FAD1C3E8401F0028F6D1BFF3D1
:102F40005F8F494B494CDFF83C811D807A60D4E9A2
:102F500000321343A8F8045088F806501BD188F8B3
:102F60000250042388F800303A680023C2E88F3FFB
:102F70007A6882F310883E4A3E49C2E90033936082
:102F80000B70D4E90032134328D13B4B1B78002B44
:102F900046D0BDE8F08104F041FCB1BB374BA3FB48
:102FA000003080090021236862689842914134BF53
:102FB00001210021134388F80210D2D004F02EFC26
:102FC00049B34FF47A7200235CF042F8D4E900125E
:102FD000002388429341C4D20223C3E704F01EFCBD
:102FE00069B9264BA3FB003080090023D4E9001205
:102FF00088429341C9D2BDE8F041FFF7DDBD4FF4EF
:103000007A7200235CF024F8EFE74FF47A72002321
:103010005CF01EF8C6E7194BA3FB00308009D5E72A
:10302000174B1B689BB104F0F9FB51B9134BA3FB81
:10303000003080090023FA3043F1000330607360F0
:10304000A7E74FF47A7200235CF002F8F2E700225F
:103050000023C6E900239CE73AE200205036002016
:10306000483600201C9E0020FAE100207036002027
:10307000109E00203CE2002034E20020D34D62107C
:10308000B0A10020982E002008B5104B1A7802B18C
:1030900008BD0F4803F0DEFE01220C4B0D491A70EB
:1030A0000A8017F041FA4FF400610B481BF004FC52
:1030B0000A481BF021FC0A48084B436011F016FC3B
:1030C000BDE80840012015F027BD00BF33E2002015
:1030D0001C9E0020982E0020BCA1002099380010D2
:1030E000B4A10020D0ED017AB0EE677ABEEECC7AC2
:1030F00038B5444BC27A197817EE103AB3F5807F91
:10310000B8BF4FF48073B3F5007FA8BF4FF40073CE
:10311000002957D0002A2ED04FF0000E3A4AD2F89C
:1031200000C0EFF3108172B6DCE8CF5F0124002D00
:10313000FAD1CCE8454F002DF6D1BFF35F8FDFF811
:10314000F0C05160ACF8003090F80EC02F4B126800
:1031500083F800C090F815C02D4BC07A83F800C0EA
:103160002C4B18700023C2E88F3F81F31088BEF10A
:10317000000F04D138BD284A92F800E0CEE7264A75
:10318000137004F04BFB51BB244BA3FB00308009B0
:103190000023234A2349C2E9000309681E4A137029
:1031A00049B3214A136004F039FBF1B91B4BA3FB6F
:1031B0000030800900231D4AFA3043F100031060FB
:1031C000536038BD1A49DFF844C00B80837B104937
:1031D000407D8CF800300F4B08701A7038BD4FF4EA
:1031E0007A7200235BF034FFD2E74FF47A72002347
:1031F0005BF02EFFDEE7002000210C4BC3E900014D
:1032000038BD00BF33E200201C9E00208A2E002023
:1032100036E2002038E2002034E20020D34D621074
:1032200038360020B0A1002054A1002048360020EC
:103230008C2E002070B540F6B734531E9BB2A342CB
:1032400092B003D90024204612B070BD334B1B78D6
:10325000002B60D0324B1C68EFF3108C72B6D4E8B0
:10326000CF5F5FF0010E002DF9D1C4E845EF002DCE
:10327000F5D1BFF35F8FD3F800E0C3F804C0294B4A
:103280001C880023CEE88F3F8CF3108805460191FF
:103290001646002138220DF10F005BF0D5FE019B90
:1032A00004FB05F004FB03F18030000A8031090AB9
:1032B000FF2828BFFF20FF2928BFFF214FF001056D
:1032C0008DF80D008DF80C508DF80E10FFF7BEF83C
:1032D00004460028B6D0144B1B68002BB2DA03A8B2
:1032E000FFF720FA114B1D7004F098FA69B9104BE2
:1032F000A3FB003080090F4930184FF0000208602E
:10330000204652414A6012B070BD4FF47A720023D9
:103310005BF09EFEEFE7034B1C88B7E733E200202B
:103320001C9E00208C2E0020902E00203BE20020CE
:10333000D34D62105836002070B592B006460D4647
:10334000144600213B2203A801935BF07DFE019B04
:10335000224A03F01F038DF81430012311688DF801
:1033600010608DF811508DF812408DF80F308DF8E7
:103370001330EFF3108372B6D1E8CFCF0120BCF148
:10338000000FF9D1C1E84C0FBCF1000FF4D1BFF32D
:103390005F8F134811680088536010B1114842795B
:1033A00042B90022C1E88F2F83F310880022104613
:1033B00012B070BD00780328F3D10020C1E88F0F50
:1033C00083F31088084B1B688342EFDA03A801924D
:1033D000FFF7A8F9019A104612B070BD1C9E00209C
:1033E000FAE10020982E0020902E002010B592B017
:1033F00004463B22002103A85BF026FE01221D4B60
:103400008DF8164019688DF81520EFF3108272B60A
:10341000D1E8CFCF0120BCF1000FF9D1C1E84C0FAA
:10342000BCF1000FF4D1BFF35F8F13481968008817
:103430005A6010B11148437943B90023C1E88F3F66
:1034400082F310880023184612B010BD00780328BC
:10345000F3D10020C1E88F0F82F31088084A126868
:103460008242EFDA03A80193FFF75CF9019B18464B
:1034700012B010BD1C9E0020FAE10020982E002002
:10348000902E002008B12F2902D000231846704743
:1034900000230122844630B593B0CDE90333059370
:1034A00006AC8DF8172000F12005A646DCF80000D8
:1034B000DCF80410DCF80820DCF80C300CF1100CFF
:1034C000AC45AEE80F0004F11004EED1DCF80820A2
:1034D000DCF80000DCF80410AEE80700BCF80C30A3
:1034E000AEF800301D4B9CF80E201B788EF80220A1
:1034F000002B30D01A4B1968EFF3108272B6D1E866
:10350000CFCF0120BCF1000FF9D1C1E84C0FBCF1C5
:10351000000FF4D1BFF35F8F124918685A60097821
:103520000023C0E88F3F82F3108806A802F090FEC7
:10353000FEF78CFF58B10C4A1268002A07DA019096
:1035400003A8FFF7EFF8019B184613B030BD002326
:10355000184613B030BD034B1978E6E733E200207C
:103560001C9E002036E20020902E0020F0B583B093
:103570000D46044602F06EFFC1B211B1002003B047
:10358000F0BD0191FEF762FF0028F7D02F4B1B68BA
:10359000002BF3DA2E4B2F481B684FF4C772002B19
:1035A0000CBF4FF4CC730023019918440CBF0126C3
:1035B00000261F465BF048FD012D03462A463FDDED
:1035C00021465BF0F9FC0346234C03F10D0CA646A3
:1035D0000CF1100CBEE80F004CF8043C1F4B1034EB
:1035E0009E454CF8100C4CF80C1C4CF8082CEED1F5
:1035F0004FF4CC73174A03FB0623BEE80700CCF850
:103600000000CCF80410CCF808209EF80220BEF888
:1036100000108CF80E204FF03602ACF80C1083F836
:103620008E214FF00102C3F89051084D83F8942188
:103630002E60FEF7C3FF2868801B18BF01209EE79D
:10364000C2D122780349CA55BEE700BF902E0020A0
:10365000942E0020249E002058A1002088A1002044
:103660002DE9F0411F4C05462368EFF3108672B632
:10367000D3E8CF1F01220029FAD1C3E8412F002946
:10368000F6D1BFF35F8F5822174966605BF09CFC50
:10369000164B2268D3E900100023C2E88F3F86F35F
:1036A00010886B7A23B151EA000304D100236B72B6
:1036B0002846BDE8F0810F46804604F0AFF861B1BE
:1036C0004FF47A7200235BF0C3FCC01B68EB480325
:1036D000FB2873F10003E9D2EAE7054BA3FB0030B6
:1036E0008009F2E71C9E0020982E00204036002022
:1036F000D34D621070B596B004F090F800296BD0ED
:103700004FF47A7200235BF0A3FC00234C4A4D492E
:10371000C2E900030B7004F081F8002957D00023A0
:103720004FF47A725BF094FC0346002201200024DF
:1037300000254549454E5B18454930700B60454BA7
:10374000C3E900229A6042F100024A60424B434AB8
:10375000C3E90045C2E9004515F026FB012015F03C
:10376000E9FA6846FFF77CFF3D49088838B19DF8C3
:103770000030032B03D09DF80660002E36D0394B65
:10378000394A1C68EFF3108072B6D4E8CF6F012578
:10379000002EFAD1C4E8465F002EF6D1BFF35F8F4A
:1037A00014780125032C18BF02245860957018BFA7
:1037B00014701B680022C3E88F2F80F310880B88D9
:1037C00013B92A4B1B7863B1012016B070BD284B8A
:1037D000A3FB00308309A8E7254BA3FB0030800939
:1037E00093E7FFF7E9F9012016B070BD214B18806F
:1037F0001BF06AF91D4B204A1949C2E900451E70A9
:103800000E80FEF74FFE174B1A68EFF3108072B66A
:10381000D2E8CF5F0124002DFAD1C2E8454F002D38
:10382000F6D1BFF35F8F02240F4A58601470968060
:103830001C689671C4E88F6F80F310880849A0E770
:103840003836002034E20020E093040039E2002002
:1038500070360020109E0020603600204836002080
:10386000FAE100201C9E0020982E00203AE2002061
:10387000D34D6210F8E1002050360020044B1B7835
:1038800013B1044B1B780BB918467047FFF732BFD2
:1038900033E2002032E20020042800D07047002AE2
:1038A000FCD02DE9F047144612789CB0602A66D00F
:1038B00010D8162A00F02381332A00F0F980072A55
:1038C00005D1984A1546927A002A40F072811CB0C0
:1038D000BDE8F087DD2A00F0B580EF2A00F0908087
:1038E000DC2AF4D1904B1B78002BF0D08F4B1B7847
:1038F000002BECD18E4B1B78002B00F01F858D4BDD
:103900001968EFF3108272B6D1E8CFCF0120BCF175
:10391000000FF9D1C1E84C0FBCF1000FF4D1BFF397
:103920005F8F85495A600E781B680021C3E88F1F9E
:1039300082F31088237C002B40F00485637E002BEB
:1039400040F03A85774B9B7A002BC0D10921204665
:103950000FF0CEF800F4F853B3F5A06FB7D1A01C68
:10396000062270490FF008F9237A20466D4C0C218D
:10397000A3710FF0B7F8012320816381A7E7A47832
:10398000022C00F05681002CA1D1002200236B49AB
:103990006B480C706449C0E900230C7063496948A6
:1039A0000C706949C0E900230C8068490C806849A3
:1039B000C1E900236749C1E90023FEF773FD594AB5
:1039C0005C4BC2E9004419689460EFF3108272B650
:1039D000D1E8CFCF0120BCF1000FF9D1C1E84C0FE5
:1039E000BCF1000FF4D1BFF35F8F5B4918685A60D8
:1039F000C1F801400C70C0E88F4F82F3108866E771
:103A0000A378013B0C2B3FF662AF01A252F823F0E2
:103A10008D3F00107D3E0010E73D0010CF380010B4
:103A2000CF380010CF380010CF380010CF3800103A
:103A3000CF380010CF380010773D0010F141001052
:103A40009D4100103B4A1368EFF3108172B6D3E832
:103A5000CF4F0120002CFAD1C3E8440F002CF6D13F
:103A6000BFF35F8F00233D4C3B48516023701268C9
:103A7000C370C2E88F3F81F310882B4B1B78002B5B
:103A80003FF425AF294B1B78002B7FF420AF254A4C
:103A9000937A15461BB1D37A002B00F07B84002368
:103AA000C5E90033AB601CB0BDE8F047FFF784B850
:103AB000A01C234C062206A90FF05EF8D4E90032C0
:103AC000134306AF40F0A380254C2368002B00F081
:103AD000CB830023234903E02268934280F0C48310
:103AE0003846CDE900130EF0F3FF019B0099013336
:103AF00006310028F0D1384615F02EFCE7E6A01C70
:103B00000F4C062206A90FF037F8D4E90032134310
:103B100006AF3DD1124C2368002B00F0A083002398
:103B2000104925E0109E002039E200203AE20020F2
:103B300033E200201C9E00208A2E002032E200206A
:103B40007036002050360020FAE10020F8E1002015
:103B50004836002060360020982E002035E20020F4
:103B6000B0A1002098A100202268934280F07783C2
:103B70003846CDE900130EF0ABFF019B00990133ED
:103B800006310028F0D13846A94915F09FFB9EE682
:103B900003F044FE002900F081834FF47A72002381
:103BA0005BF056FAD4E90012002388429341B1D267
:103BB000E9E706A9E01C062200930EF0DDFF294686
:103BC00006A80EF085FF00287FF481AEA278BAB96E
:103BD000009B092B14D9A3F10901034604F1090C38
:103BE00004F1080212F8010F002800F03D840133AF
:103BF0008B42F7D16046FEF725FE002840F05F8437
:103C00000023C5E90033AB60FEF7D6FF5FE603F0A3
:103C100005FE002900F047834FF47A7200235BF021
:103C200017FAD4E90012002388429341FFF463AFEE
:103C30004AE700230022012000217E4CC4E9002332
:103C40007D4C20707D4801707D48C0E900237D488F
:103C5000C0E900237C48C0E900237C4B197003F0C5
:103C6000DDFD002900F024834FF47A7200235BF01D
:103C7000EFF900237649774A08600120C2E9003352
:103C800093604B6015F090F8002015F053F87248DF
:103C900015F05AFA42F2085014F022FF052014F0F1
:103CA0002DFF002015F08CFB032011F0C7F9002038
:103CB00011F0CCF9694A1068EFF3108172B6D0E8C0
:103CC000CFCF0124BCF1000FF9D1C0E84C4FBCF1BB
:103CD000000FF4D1BFF35F8F4FF0010C0424106884
:103CE00051605F4A0023C2F801C01470C0E88F3FE2
:103CF00081F310885B4A5C4CC2E90033C2E90233AD
:103D0000C2E90433594A03A803932360136010F0F7
:103D1000F9FA002800F0B0820023CDE907330693BA
:103D20000493ADF80A30ADF81430099306AF236858
:103D3000032B00F29E823A460DF10A0304A903A860
:103D400010F0ECFA002800F0948223687BB1002385
:103D5000444904A8CDE900130EF0BAFE019B009976
:103D6000013306310028E2D022689342F1D304A83F
:103D7000FEF7E6FBDBE76379002B3FF4A8AD3C4A96
:103D8000118800293FF4A3AD4FF0010C394C3348A2
:103D900084F800C00168EFF3108472B6D1E8CFEF69
:103DA0005FF0010CBEF1000FF8D1C1E84ECFBEF1BB
:103DB000000FF3D1BFF35F8F4FF0050C284944602B
:103DC00081F849300B6D006801330B6581F848C0FC
:103DD0000023C0E88F3F84F3108810881CB0BDE832
:103DE000F0471AF071BE032120460EF07BFE224BF5
:103DF0001A88824200F0DC821D4B1B8813B1984266
:103E00007FF465AD06A8FFF72BFC1A4B9A461B788A
:103E10004BB99DF81C30002B40F092839DF8183070
:103E2000012B00F08D831CB0BDE8F047FFF76AB8A6
:103E300020F505107036002032E2002039E2002023
:103E400048360020503600206036002034E2002042
:103E500038360020109E00200CF505101C9E002016
:103E6000982E002098A10020B0A1002054A100208D
:103E7000FAE100203CE20020F8E100206379002B09
:103E800040F01B8203F0CAFC002900F0E8824FF4E6
:103E90007A7200235BF0DCF801460023DFF864C28D
:103EA0008D4ACCF8001020460321CCF80430137062
:103EB0000EF018FE0622844600238849A018A1F8B7
:103EC00000C0874C06A906938B800EF055FE226831
:103ED000002306AF002A00F07882824903E02268BE
:103EE000934280F072823846CDE900130EF0F0FD67
:103EF000019B0099013306310028F0D100200021F8
:103F0000794BC3E9000103F089FC002900F0A1828C
:103F10004FF47A7200235BF09BF88446002342F250
:103F20001070724A7249734D734C13701CEB00028F
:103F300043EB03000A604860A84629682360EFF35A
:103F4000108272B6D1E8CF4F0120002CFAD1C1E81F
:103F5000440F002CF6D1BFF35F8F6849684C0E46C2
:103F60000B71D4E9001001436A6040F0898200219E
:103F7000B3700123D8F80000A6F805103370C0E82C
:103F80008F1F82F31088FEF78DFAA0E403212046EC
:103F90000EF0A8FD637B8146002B7FF498AC06A948
:103FA000601D574C069306228B800F460EF0E4FDF1
:103FB000D4E90032134340F0B082494C2368002B0F
:103FC00000F0EA820023474903E02268934280F030
:103FD000E3823846CDE900130EF07AFD019B00998B
:103FE000013306310028F0D103F018FC4FF47A7247
:103FF000002900F0618200235BF02AF80346414A61
:104000004148136000233449007853600B70002846
:1040100040F0BC823748054680460368EFF31082C3
:1040200072B6D3E8CFCF0120BCF1000FF9D1C3E8BD
:104030004C0FBCF1000FF4D1BFF35F8F0023324966
:104040002E4E0B706A602968F370C1E88F3F82F3CF
:1040500010882E4A924613702A68EFF3108172B6C8
:10406000D2E8CFCF0120BCF1000FF9D1C2E84C0F4C
:10407000BCF1000FF4D1BFF35F8FF26C69600132C5
:10408000F2642A68C2E88F3F81F310880121134A45
:104090002868A2F80090154A1170EFF3108272B6EA
:1040A000D0E8CFEF5FF0010CBEF1000FF8D1C0E80F
:1040B0004ECFBEF1000FF3D1BFF35F8F31716A6055
:1040C0002968C1E88F3F82F310882268002A00F037
:1040D000D381044920E000BF34E20020FAE100204F
:1040E000B0A1002098A10020483600203AE200202C
:1040F000503600201C9E002054A10020982E002045
:10410000703600203836002035E200203CE20020E6
:104110002268934280F0B0813846CDE900130EF05A
:10412000D7FC019B0099013306310028F0D1012111
:1041300048461AF0E7FB002840F0C78103F06EFB09
:104140004FF47A72002900F0248200235AF080FF95
:10415000034642F2107100229E485B18036042EB56
:104160000203D8F800104360EFF3108372B6D1E871
:10417000CF4F0120002CFAD1C1E8440F002CF6D11A
:10418000BFF35F8F0120D8F80010C8F804303070FA
:10419000C1E88F2F83F31088FFF799BB6379002B59
:1041A00040F02E81DFF834828B4ED8F80030EFF3E8
:1041B000108272B6D3E8CF0F01210028FAD1C3E8EC
:1041C000401F0028F6D1BFF35F8FC8F80420637941
:1041D0000021B3FA83F35B09D8F800007371C0E8DB
:1041E0008F1F82F310881CB0BDE8F047FEF7E6B9D8
:1041F000052120460EF076FC00283FF468ABE379F9
:10420000A12B00F03481312B7FF461ABE11D734CA5
:10421000024606A801F00AFFA0462368EFF31082C9
:1042200072B6D3E8CF0F01210028FAD1C3E8401FAE
:104230000028F6D1BFF35F8F069B6260002B00F071
:10424000B381654A536C013353640023D8F80020CE
:10425000C2E88F3FD8F8043083F31088C3E73846AC
:1042600015F060F8FFF733BB384615F08FF8FFF70D
:104270002EBB03A810F066F82368002B43D1584BDF
:104280001B78002B3FF423AB564B1B78002B3FF4DD
:104290001EAB1CB0BDE8F047FFF72CBA524BA3FB96
:1042A000003080097EE4504BA3FB00308009B8E465
:1042B0004D4BA3FB00308009DBE401244B48474908
:1042C00004700A68EFF3108072B6D2E8CFCF0124F1
:1042D000BCF1000FF9D1C2E84C4FBCF1000FF4D192
:1042E000BFF35F8F04243C4A486082F84930136D65
:1042F00009680133136582F848400023C1E88F3F05
:1043000080F310888FE53A4B1B78002B40F0CD806E
:10431000384A136003F082FA4FF47A72002900F0F1
:104320002F8100235AF094FE034600223249FA33CB
:1043300042F100020B604A60FFF7C9BA2F4B1E78AA
:10434000FFF7F8BA132120460EF0CCFB15210546E5
:1043500020460EF0C7FB40F24C539D427FF4EEAA7C
:10436000002E00F05881012E00F05F8140F6E643F8
:10437000984204D040F6F25398427FF4E3AA06A98B
:10438000A01C06220EF0F8FB002106A8FEF7C0FCD8
:10439000FFF79DBA012312892846A97942F4004209
:1043A000EB7214F071FF00283FF491AAFFF777BB7E
:1043B00000221A80FFF78BBAA17E04F11B00FEF7E2
:1043C00041FA0028DBD1FFF7BDBA3846FEF7B8F84E
:1043D00094E500BF50360020982E00201C9E00203F
:1043E00033E2002032E20020D34D62103CE2002094
:1043F00034E2002054A10020483600208A2E0020FC
:104400000120934D934AA84629681070EFF310825B
:1044100072B6D1E8CFCF0120BCF1000FF9D1C1E8CD
:104420004C0FBCF1000FF4D1BFF35F8F8A496A6073
:1044300081F849300B6D084601330B650E460621A5
:10444000002380F848102968C1E88F3F82F3108864
:10445000ABE6824BA3FB00324FEA921C5EE57F4B3A
:10446000A3FB0032910918E51946FFF7C3BB0128E9
:104470003FF42DAA237AC6E63846FEF761F856E6E1
:1044800003F0CCF94FF47A7200297CD000235AF063
:10449000DFFD03460021226893426368D8F80420B8
:1044A000994134BF0123002361E5002200236C49B8
:1044B000C1E90023FFF70BBAB0FBF2F39FE500213F
:1044C0006848FEF725FCFFF702BA0122D8F8003051
:1044D0008AF80020EFF3108272B6D3E8CF4F0121A3
:1044E000002CFAD1C3E8441F002CF6D1BFF35F8F34
:1044F0000324336DD8F8001001333365C8F8042065
:10450000002386F8490086F84840C1E88F3F82F3CF
:104510001088FEF7F7FCFFF7DAB903F07FF94FF4E4
:104520007A7200293DD000235AF092FD0346D4E967
:104530000001002283428A41BFF43FAD4A4C53E55B
:10454000012243498AF800200B68EFF3108072B60D
:10455000D3E8CF4F0122002CFAD1C3E8442F002C1E
:10456000F6D1BFF35F8F08243B4B48601A6D096892
:1045700001321A65A3F848400022C1E88F2FBFE638
:10458000B0FBF2F3D1E6B0FBF2F383E714F03EFEAA
:1045900040E5B0FBF2F3DCE548461AF0D9F9FFF745
:1045A00096B9B0FBF2F3C2E703F038F94FF47A7230
:1045B000002944D000235AF04BFD0346002203207B
:1045C0004FF001059FED207B2849DFF88CE00B6060
:1045D000274B0EF110040DF11C0C8EF800004A6000
:1045E0001A70BCE80F000FC4BCE80F000FC49CE8B1
:1045F0000F0007C424F8023B1B0C2370DEF8403088
:104600008EF806500133CEF840301A4B8EF8085021
:1046100083ED007B19E640F6E643C21A5042504152
:1046200000287FF4ACAEFFF78DB940F6F253C31A01
:104630005842584100287FF4A2AEFFF783B9B0FB7F
:10464000F2F3BBE7AFF300800000000000000000C1
:104650001C9E00203CE20020982E0020D34D6210CA
:1046600048360020109E0020B0A1002038360020DF
:1046700034E20020503600208D4B1B7803B9704780
:10468000F0B58C4C99B02268EFF3108372B6D2E883
:10469000CF0F01210028FAD1C2E8401F0028F6D12F
:1046A000BFF35F8F84490022097820686360C0E807
:1046B0008F2F83F31088814D2B7873BB11B1804B02
:1046C0001B88EBB97F4DD5E90032134327D17E4DCE
:1046D000D5E90032134340F03B817C4DD5E90032EF
:1046E000134378D17A4B1B782BB17A4DD5E9003240
:1046F000134340F08D8019B0BDE8F040FDF75EBF78
:1047000002A80191FEF7ACFF9DF808300199032B38
:1047100000F0B3812B78002BD4D019B0F0BD03F09A
:104720007DF8002940F0B4806B4BA3FB003080097A
:104730000023D5E90012884273EB0202C0F0D68054
:104740009FED597B654A6649C2E900339360654A2B
:1047500085ED007B13700B78002B40F057812368A8
:10476000EFF3108272B6D3E8CF5F0120002DFAD1AB
:10477000C3E8450F002DF6D1BFF35F8F00255A4BDC
:10478000206862600D70DD70C0E88F5F82F3108872
:10479000284614F0CFFA2168EFF3108272B6D1E800
:1047A000CFCF0120BCF1000FF9D1C1E84C0FBCF113
:1047B000000FF4D1BFF35F8F4B4B626019789D708F
:1047C000022904BF0421197000232168C1E88F3F2A
:1047D00082F3108881E703F021F8002953D04FF4C9
:1047E0007A7200235AF034FCD5E900120023884283
:1047F0009341FFF477AF02A8FEF732FF9DF80E3029
:10480000002B00F0078100220023C5E9002369E79F
:1048100003F004F8002941D12F4BA3FB003080099D
:10482000D5E9002390424FF0000272EB0303FFF43E
:1048300062AF3A2200210DF109005AF005FC012374
:1048400022688DF80830EFF3108372B6D2E8CF0FEC
:1048500001210028FAD1C2E8401F0028F6D1BFF399
:104860005F8F174922680988636031B11E49487912
:1048700018B10978032900F037810021C2E88F1FA1
:1048800083F3108837E7144BA3FB00308009ABE7B4
:104890004FF47A7200235AF0DBFB49E74FF47A7247
:1048A00000235AF0D5FBBBE7000000000000000029
:1048B00033E200201C9E002038E2002034E2002079
:1048C000FAE10020703600204836002050360020E3
:1048D0003BE2002058360020D34D6210109E00208D
:1048E00035E2002039E20020982E002002F096FFE9
:1048F00021B34FF47A7200235AF0AAFBD5E90021C4
:10490000002390428B4112D30A433FF4E0AE02F001
:1049100085FFC1B14FF47A7200235AF099FBD5E9B3
:104920000012002388429341BFF4D1AED5E67E4BFE
:104930001B78002BEBD1FEF73FF9CEE67B4BA3FBB8
:1049400000308009DAE7794BA3FB00308009E6E705
:1049500002F064FF002900F08B804FF47A7200238C
:104960005AF076FBD5E90012002388429341FFF408
:10497000B4AE6D4B1B78002B7FF4AFAE6C4B1B8835
:10498000002B7FF4AAAE002000216A4BC5E900018C
:104990001B78002B3FF4A1AE674B1B78002B7FF4F4
:1049A0009CAE664B664A1B6812689A4219D96548E4
:1049B00003EB430200EB420150F812005F4E8A887D
:1049C00002900133012102A8ADF80C203360FEF7FC
:1049D0009FF900287FF481AE594A336812689342E8
:1049E000E5D302F01BFF002900F0998000234FF46B
:1049F0007A725AF02DFB0346002213F5FA632B60FE
:104A00004E4B1A6042F100026A6066E614F0FEFB4B
:104A10004D49A4E6464A118800293FF463AE0020C0
:104A20000021C5E900010125484821680570EFF320
:104A3000108572B6D1E8CFCF0120BCF1000FF9D1BB
:104A4000C1E84C0FBCF1000FF4D1BFF35F8F07201A
:104A50003F496560A1F84800086D0130086521688C
:104A6000C1E88F3F85F3108810881AF02DF839E6D9
:104A70002E4BA3FB0030800974E79DF80E30002B0D
:104A80003FF448AE334AD2E9003213433FF442AE1A
:104A90004EF66023A1FB033217461E4602F0BEFE0F
:104AA000002937D000234FF47A725AF0D1FA034626
:104AB00028490A689B1A4A684FF0000162EB4202DB
:104AC000B342BA41FFF426AE0122234C2A70217072
:104AD000002500241648214B0088C3E9004519B081
:104AE000BDE8F04019F0F0BF0021C2E88F1F83F34A
:104AF00010881B4B1B688B42BFF6FDAD02A8FDF76B
:104B000011FE002200234FF000001349C5E90023E5
:104B10000870F0E5054BA3FB00239B09C8E74FF4A1
:104B20007A72B0FBF2F367E73AE20020D34D6210ED
:104B3000FAE1002032E2002039E2002054A10020F6
:104B4000B0A1002098A1002035E200203CE2002026
:104B5000982E0020383600203BE200204836002006
:104B6000902E0020D0E90010884239D04FF0FF335A
:104B700000B51C4A1944184411F801EF8EEA030EDF
:104B80004EF300034EF3400C134083EA5E030CEA3D
:104B9000020C8CEA530C43F340034CF3400E1340D9
:104BA00083EA5C030EEA020E8EEA530E43F34003DF
:104BB0004EF3400C134083EA5E030CEA020C8CEACD
:104BC000530C43F3400313404CF3400E83EA5C0361
:104BD00081420EEA020C8CEA5303CDD1D84300BDCA
:104BE000002070472083B8ED2DE9F043D1E902326F
:104BF000D61A302E054683B007DD0023C0E9003306
:104C00008360284603B0BDE8F08340200F4601933F
:104C100004F040FF3E220446002102305AF014FA0C
:104C200044F64D4222803A68019BC4F802203A794A
:104C3000E671A271002E46D0721E052A40F2A780AE
:104C4000C3F108022244022A40F2A1801A68C4F883
:104C50000920B208012A00F0A5805968022AC4F888
:104C60000D1000F082809968032AC4F811107CD0DE
:104C7000D968042AC4F8151077D01969052AC4F830
:104C8000191072D05969062AC4F81D106DD099699F
:104C9000072AC4F8211068D0D969082AC4F8251059
:104CA00063D0196A092AC4F829105ED0596A0A2A01
:104CB000C4F82D1059D0996A0C2AC4F8311054D177
:104CC000DB6AC4F8353006F10907384604F0E2FE25
:104CD000214606463A4681465AF076F94FF0FF33B0
:104CE00006EB070C32499C44F01810F8016F5E4047
:104CF00046F3000E0EEA010E46F340038EEA560E0E
:104D00000B4083EA5E034EF3400E0EEA010E8EEA7C
:104D1000530E43F340030B4083EA5E034EF3400E11
:104D20000EEA010E8EEA530E43F340030B4083EA72
:104D30005E034EF3400E0EEA010E8EEA530E43F36D
:104D400040030B40604583EA5E03CED1DB43484617
:104D5000E351394604F0A2FE284604F14003C5E9B8
:104D600001332C6003B0BDE8F083B10726F00302E5
:104D7000A9D0985CA1184872501C8642A3D9185C2F
:104D80000232964288729ED99B5CCB729BE7013BB4
:104D900004F10802F01813F8011F834202F8011F02
:104DA000F9D190E71A79052062730422A118E6E789
:104DB0002083B8ED0346002201202DE9F04182B0A6
:104DC000C3E90122C3E903221A605A611871D1E9CB
:104DD0000042121B3F2A187204DC1860184602B009
:104DE000BDE8F081402A05D0052218461A6002B0BD
:104DF000BDE8F08122784D2A05D0022218461A60BB
:104E000002B0BDE8F08162784C2AF6D1A278012A7E
:104E100002D003221A60E1E7B4F80720302A1746CF
:104E200002D904221A60D9E7A118887A4A7A009335
:104E300042EA0022C87A097B42EA004207F10900EF
:104E400042EA016804F026FE07F1090206462146FF
:104E50005AF0BAF84FF0FF3207F1090306EB030EE0
:104E60003248009B964406EB020C1CF8011F51408F
:104E700041F30002024082EA510241F34001014045
:104E800081EA520142F34002024082EA510241F3B8
:104E90004001014081EA520142F34002024082EAAD
:104EA000510241F34001014081EA520142F34002C4
:104EB000024082EA510241F340010140F44581EA97
:104EC0005202D2D1304607F10901CDE9002304F0A6
:104ED000E5FD009A019BD243904502D006221A605C
:104EE0007CE704F10C0139440A4611F8010F00284F
:104EF0007FF47AAF3E3AA242F6D1E2785A71A288A4
:104F0000DA80A2791A72002F3FF468AF3846009316
:104F100004F0C0FD06463A4604F109015AF054F87F
:104F2000009BF219C3E903625A6157E72083B8ED89
:104F300010B50446A446DFF818E0BEE80F00ACE860
:104F40000F009EE807008CE80700204610BD00BF58
:104F5000343E061070B50B780446012B3ED1D1EDDE
:104F6000017A9FEDD47AF0EEE76AF4EE476AF1EE4B
:104F700010FA0DD8B7EE007AF4EEC77AF1EE10FA17
:104F800006D4B0EE007AF4EEC77AF1EE10FA2FDD17
:104F900000222120227004F07DFD20238646DFF8C8
:104FA00030C300228EF82020C4E90233BCE80F0091
:104FB000C4F804E0CEF80000CEF80410CEF80820C3
:104FC000CEF80C30BCE80F00CEF81000CEF814106C
:104FD000CEF81820CEF81C30204670BD00222120CB
:104FE000227004F057FD20238646DFF8E8C2D8E798
:104FF00091F90830002B2DDB91F90930002B29DBCA
:105000008B7A072B45D8CB7A3C2B63D80B7B022BB2
:1050100000F285804B7B103B6F2B00F2A7808B7BCF
:10502000022B00F2CB804B7D0A2B00F2EC80CB7D73
:10503000173BDBB2E72B40F211810B7E012B00F214
:105040002F8103460121002203F80C1BC0E9013225
:105050000273C1E700221920227004F01BFD1823FF
:1050600086460022DFF870C20276C4E9023360602F
:10507000BCE80F00CEF80000CEF80410CEF80820EF
:10508000BCE80300CEF80C30CEF81000CEF81410B7
:10509000A2E700221D20227004F0FCFC1C2386469F
:1050A0000022DFF838C20277C4E902336060BCE84E
:1050B0000F00CEF80000CEF80410CEF80820CEF88D
:1050C0000C30BCE80700CEF81000CEF81410CEF873
:1050D000182081E700232220237004F0DBFC212329
:1050E00006468646744D6060E360AC460EF1100ED5
:1050F000BCE80F004EF8043C704B10359C454EF850
:10510000100C4EF80C1C4EF8082CEED12B782122F6
:105110008EF800300023A26086F821305CE7002280
:105120001C20227004F0B6FC1B2386460022DFF808
:10513000B0C1C276C4E902336060BCE80F00CEF8AB
:105140000000CEF80410CEF80C30BCE80300BCF828
:105150000030CEF80820AEF818309CF80230CEF8B7
:105160001000CEF814108EF81A3035E700232720EF
:10517000237004F08FFC262306468646504D60605F
:10518000E360AC460EF1100EBCE80F004EF8043C94
:105190004C4B10359C454EF8100C4EF80C1C4EF83C
:1051A000082CEED1AB882622AEF804300023286804
:1051B000CEF80000A26086F826300DE700221F20FE
:1051C000227004F067FC1E2386460022DFF814C11B
:1051D0008277C4E902336060BCE80F00CEF80000BB
:1051E000CEF80410CEF80820CEF80C30BCE807004A
:1051F000BCF80030CEF81000CEF81410CEF818200D
:10520000AEF81C30E8E600222020227004F042FCB8
:105210001F238646DFF8D0C000228EF81F20C4E985
:105220000233BCE80F00C4F804E0CEF80000CEF86A
:105230000410CEF80820CEF80C30BCE80700BCF80B
:105240000030CEF81000AEF81C309CF80230CEF8DA
:105250001410CEF818208EF81E30BDE60023312041
:10526000237004F017FC302306468646164D606016
:10527000E360AC460EF1100EBCE80F004EF8043CA3
:10528000124B10359C454EF8100C4EF80C1C4EF885
:10529000082CEED130220023A26086F830309BE645
:1052A00000222020227004F0F5FB1F238646DFF841
:1052B0003CC0B1E7FFFF7F7FACF50510CCF50510D2
:1052C000ECF505100CF6051054F6051084F60510E3
:1052D0004CF5051028F5051070F505108CF5051036
:1052E000D0F5051014F6051034F6051088F60510F3
:1052F0009FED247AD1ED017A67EE877A0023FCFED8
:10530000E77A91F810C04A7C4FEA4C0C4CEA820CC8
:10531000CA7B00B542EA0C0291F800C0C0F80B301D
:10532000C0F80F30C0F81330C3756CF3070391F861
:1053300012C091F816E042EACC0291F813C042EA9A
:105340000C1291F814C042EA4C1242EA8E12827298
:10535000D1F8092091F808C04260B1F80D2002810F
:105360004A7D0273CA7D42730A7E827317EE902AC9
:1053700062F30F23C2F3072262F317436CF31F6338
:10538000036000BD0000C8422DE9F041D1E900E30F
:10539000A3EB0E030E2B074688B026DC0023232048
:1053A0003B7004F077FB2223844605464D4E78601F
:1053B00006F1200EFB60344610350FCC744506F123
:1053C000100645F8100C45F80C1C45F8082C45F85B
:1053D000043CF0D1338822222B8038460023BA6067
:1053E0008CF8223008B0BDE8F08101AD94462C461F
:1053F0003D4EDFED3E6A0FCE0FC596E8070085E80B
:1054000007000FCCCCF80000CCF80410CCF80C301E
:1054100003CC2378CCF80820CCF81000CCF814107A
:105420008CF818309EF800304FF000088CF80030EF
:10543000BEF80130384607EE903AF8EEE77A87EE8C
:10544000A67A8CED017A9EF8033061468CF808301C
:105450009EF804308CF809309EF805308CF80A303C
:105460009EF806308CF80B309EF807308CF80C3024
:105470009EF808308CF80D309EF809308CF80E300C
:10548000BEF80A3003F0010262F30708C3F34002DA
:1054900062F30F28C3F3800262F31748C3F3C0021C
:1054A00062F31F68C3F300128CF81320C3F3401299
:1054B000C3F38013CCF80F808CF814208CF81630CE
:1054C0009EF80C308CF815309EF80D308CF81730A3
:1054D0009EF80E308CF81830FFF73CFD384608B0C7
:1054E000BDE8F081A8F60510343E06100000C84261
:1054F000F0B5D0E90034A4EB030CBCF13F0F91B040
:1055000068DD93F800C0BCF14D0F63D193F801C082
:10551000BCF14C0F5ED193F802C0BCF1430F59D1DE
:1055200093F803C0BCF1460F54D104460646202030
:1055300015460F46019304F0ADFACDE90200019B38
:1055400000F120020492D3F800E0D3F804C0996877
:105550000392DA68C0F800E0C0F804C08160C2605D
:105560009969DA69D3F810E0D3F814C0C0F810E0F4
:10557000C0F814C08161C26193F8222093F8211011
:10558000120442EA012293F8201093F823300A43D0
:1055900042EA036302A80193FFF7E4FA019B834206
:1055A0000BD00023029828B104990193091A04F042
:1055B00075FA019B184611B0F0BD216801F1230373
:1055C00001F13F0201E0934208D013F8010F0028D7
:1055D000F9D0E6E70023184611B0F0BD182001917C
:1055E00004F058FA019900F1180ECDF820E0069069
:1055F000D1F808C0CB680C69CDF81CE0D1F814E0F4
:10560000C0F800C043608460C0F80CE0CB69D1F8FA
:1056100018C02A464361C0F810C006A909A8FFF7C0
:10562000B3FE9DF824305BB131684A798879120263
:1056300042EA00420879C979024342EA01623A60CB
:105640000A980CAA904205D00C990193013104F0FC
:1056500025FA019B06980028A4D008990193091AFD
:1056600004F01CFA019B9DE710B5044640F8041BAA
:10567000FFF75EFC04F12000FFF75AFC0023C4E9A9
:105680001033204684F83C3010BD00BF2DE9F043B4
:1056900000250446006899B00368CDE904559B686D
:1056A00004A90695984720B1DDE904239B1A7F2BB6
:1056B0002DDC11A8FFF73CFC00230DF1440C84F80D
:1056C0003C30BCE80F006060A16061682361A368A2
:1056D0002162E260BCE803009CF800206362606124
:1056E000A1610026E36820696169A362A36921635F
:1056F0002277E062636384F83820049818B1069931
:10570000091A04F0CBF9304619B0BDE8F0830AA8B5
:10571000FFF70EFCA9462E46049B402003EB8513A1
:10572000009304F0B7F907460246009B00F14001E0
:105730000790099103F1400818681033009053F85E
:105740000C0C10320190009853F808EC53F804CC7C
:1057500042F8100C0198434542F80C0C42F808EC52
:1057600042F804CCE8D10023DFF8CCE00DF1440C82
:1057700008910393BEE80F00ACE80F009EE8070015
:105780008CE8070011AA03A907A8FFF7B1FE28BB00
:105790003846402104F082F96B1C022B4FF00105C2
:1057A000BAD196B300230AAD2F4684F83C300FCD12
:1057B0006060A160236103CD2B78E2606061A1612C
:1057C000237784F83830C4F844900FCF20626162A8
:1057D000A26203CFE362206361638EE7039B8EB90D
:1057E0000DF1280C0DF1440E99460646BEE80F0057
:1057F000ACE80F009EE80700ACE8030025648CF8D5
:105800000020C5E74B45C3D9EAE711A811ADFFF762
:105810008FFB0FCD6060A16023616168A368216286
:10582000E26003CDC4E910662A7884F83C606362C4
:105830006061A16155E700BF503E061030B50C46CF
:1058400083B0114600900192FFF784FB0098037823
:10585000ABB14FF0010C019A116853689568D2F80A
:105860000CE021626362A562C4F82CE053691169FF
:1058700063632163137E84F83CC084F8383003B03E
:1058800030BD00BF2DE9F04390F83C30A9B023B9FA
:105890000124204629B0BDE8F08300F1200105462F
:1058A00000F120070AA8FFF755FB9DF82840002CBF
:1058B00000F0E7806B6C2022002120A85C1C59F0CE
:1058C000C3FB784B05F1200111A8CDE91834FFF78F
:1058D0000FFD1AAC0DF1440CBCE80F000FC49CE89E
:1058E000030084E80300202004F0D4F8844600F18B
:1058F000200318ACCDE9083307900FCCCCF800009A
:10590000CCF80410CCF80820CCF80C300FCCCCF834
:105910001000CCF81410CCF81820CCF81C3007A8D4
:10592000FFF720F92090079818B10999091A04F097
:10593000B5F82B6C4020013303F0010804F0AAF8FD
:1059400000F1400384461E46019003930DF1600E62
:1059500074460CF1100C0FCC4CF8043C28AB9C4264
:105960000EF1100E4CF8100C4CF80C1C4CF8082CD6
:10597000EED12868414603680296DB6801AA984781
:105980000446002877D00022286804A903689B6891
:10599000CDE9042206929847049B0446002864D06F
:1059A0000599C91A7F2979DD402003EB881404F09A
:1059B00071F8234600F140018146024607900991A3
:1059C00004F140001C68D3F804E02646D3F808C070
:1059D000DC68103383421660C2F804E0C2F808C0E5
:1059E000D46002F11002EDD10023DFF8BCC011AC8D
:1059F00008910093BCE80F000FC49CE8070084E8FE
:105A00000700694607A811AAFFF772FD044638B3DC
:105A10006B6C5E1C009B9E4242D10DF1440CE6462D
:105A2000BCE80F006860A960BCE803009CF800C0F7
:105A3000EA602B616861A96185F81CC0BEE80F00AF
:105A40002862FB604FF000037960BA6087F818C0E5
:105A5000BEE8030038617961C5E9108685F83C30FD
:105A60004021484604F01AF8049B23B106991846D1
:105A7000C91A04F013F8019818B10399091A04F02F
:105A80000DF80B980DAB98423FF403AF0D9901311F
:105A900004F004F8204629B0BDE8F0830024E4E7D0
:105AA0000024DDE74D4C4346503E061010B588B04B
:105AB000044601A8FFF73CFA01230DF1040C84F819
:105AC0003C30BCE80F0020626162A262BCE80300C7
:105AD0009CF80020E3622063616384F8382008B0FA
