:020000041000EA
:10000000002008205B0100101B0100101D010010E2
:100010001101001011010010110100101101001058
:100020001901001019010010190100101F01001022
:10003000110100101901001021010010230100100E
:100040001101001011010010110100101101001028
:100050001101001011010010110100101101001018
:100060001101001011010010110100101101001008
:1000700011010010110100101101001011010010F8
:1000800011010010110100101101001011010010E8
:1000900011010010110100101101001011010010D8
:1000A00011010010110100101101001011010010C8
:1000B00011010010110100101101001011010010B8
:1000C00011010010110100101101001011010010A8
:1000D0001101001011010010110100101101001098
:1000E0001101001011010010110100101101001088
:1000F0001101001011010010110100101101001078
:100100001101001011010010110100101101001067
:10011000EFF30580103800BE00BE00BE00BE00BE7A
:1001200000BE00BEF2EB8871E8920A1008930A1034
:100130009C01001090A31AE7D3DEFFFF42012110BB
:10014000FF01000070C60A00793512AB00201E497D
:10015000086006C881F3088810474FF050400068D7
:1001600008B10020F3E70DA40ECC002902D000F066
:1001700012F8F9E71549164A002000E001C1914242
:10018000FCD114498847144988471449884700BE60
:10019000FDE701C901C29A42FBD3704708930A10D8
:1001A00010010020B0350020A8C70A100000082068
:1001B00000000820A8C70A1000100820001008201E
:1001C000000000007047000008ED00E0B03500209E
:1001D000BCEB002051B100109117001049B1001084
:1001E000704700BF00B5042183B0019009F0CAFB3D
:1001F000019803B000BD00BF2DE9F04FF7B00746EE
:10020000369030200C4609F0B9FB00F13005064667
:1002100038602F220021BD6001305FF07DFC022399
:1002200094F800907D60B9F1030F337000F087827D
:1002300090229946D0235027CDE90632B0234FF0C3
:10024000F00BCDE904377023CDE9023B102388275A
:100250000193C8234822CDE91537A823E827CDE923
:10026000133268232822CDE911379823D827CDE906
:100270000F325823B822CDE90D37F8237827CDE97E
:100280000B323823CDE90937182384220893C4237D
:10029000CDE93432A4234422CDE932326423E4226E
:1002A000CDE9303294232422CDE92E325423D422B6
:1002B000CDE92C32F423B422CDE92A32342374223E
:1002C000CDE928328C231422CDE926324C23CC22CE
:1002D000CDE92432EC23AC22CDE922322C236C224E
:1002E000CDE92032DC239C22CDE91E32BC235C22E6
:1002F000CDE91C327C23FC22CDE91A321C233C229E
:10030000CDE918320423179382237593C223749383
:1003100042237393A2237293E22371936223709317
:1003200022236F9392236E93D2236D9352236C9367
:10033000B2236B93F2236A937223699332236893F7
:10034000122367938A236693CA2365934A2364938F
:10035000AA233B93EA2360936A235B932A233A936D
:100360009A233D93DA2361935A236293BA233C93F1
:10037000FA2358937A235A933A2359931A235F9373
:100380000A235E9386235D93C6235C93462363937F
:10039000A6234093E6233F9366234293262341936B
:1003A00096234493D623439356234693B6234593EB
:1003B000F6234793762339933623489316233893AD
:1003C0008E234993CE2337934E234A93AE234C93E7
:1003D000EE234B936E234E932E234D939E235093E7
:1003E000DE234F935E235293BE235193FE235493F7
:1003F0007E2353933E2356931E2355930E235793E8
:1004000006234FF0800AC02140204FF0A00E4FF08D
:10041000E00C60254FF020084FF0300B08270C222D
:100420003E936379002B75D0DDE96E38DDE9741AEF
:10043000DDE972E0DDE9705C07936D9B86F8019061
:1004400006936C9B05936B9B04936A9B0393699B38
:100450000293DDE9673B0193669B1693659B1593B9
:10046000649B14933B9B1393609B12935B9B119330
:100470003A9B10933D9B0F93619B0E93629B0D9350
:100480003C9B0C93589B0B935A9B0A93599B099343
:100490005F9B0893DDE95D3735935C9B3493639BE9
:1004A0003393409B32933F9B3193429B3093419BCC
:1004B0002F93449B2E93439B2D93469B2C93459BBC
:1004C0002B93479B2A93399B2993489B2893389BCE
:1004D0002793499B2693379B25934A9B24934C9BB8
:1004E00023934B9B22934E9B21934D9B2093509B98
:1004F000579A1F934F9B1E93529B1D93519B1C9386
:10050000549B1B93539B1A93569B1993559B18937B
:100510003E9B1793A379002B36D0DDE92E78DDE9D9
:1005200032E0DDE9305C07972D9F179906972C9FE5
:10053000717005972B9FDDE9341A04972A9F039762
:10054000299F0297DDE9277B0197269F1697259F14
:100550001597249F1497239F1397229F1297219FEB
:100560001197209F10971F9F0F971E9F0E971D9FFB
:100570000D971C9F0C971B9F0B971A9F0A97199F0B
:100580000997189F089717466278B2B1DDE90F28DE
:10059000DDE9151ADDE913E0DDE9115C07920E9A39
:1005A000777006920D9A05920C9A04920B9A039218
:1005B0000A9A0292DDE9082B0192A27842B1DDE9A4
:1005C000061ADDE904E0DDE9025CD846019A7270A2
:1005D000E27822B1F2466146284686F80180227907
:1005E0000AB18A467070E2790AB186F801A0002B40
:1005F00000F09D80D4E90423C6F80630238BC6F8AA
:1006000002207381228F94F83A303282002B40F01E
:100610009280022294F83B1009B11346B27494F808
:100620003C2012B143F00403B37494F83D2012B19E
:1006300043F00803B37494F82C2012B143F0100374
:10064000B37494F8322012B143F02003B374002540
:10065000AE46AC4628462A462946B4F91C30A77E49
:10066000019367F30705019FB4F91EB067F30F25E7
:10067000C7F3072767F317456BF31F65C6F81350D9
:10068000CBF3072565F3070EB4F92050B4F922A087
:1006900065F30F2EC5F3072565F3174ECAF307253B
:1006A00065F3070CB4F92450B4F9269065F30F2CC8
:1006B000C5F30725A36A65F3174C6AF31F6E69F348
:1006C0001F6CC6F817E0C6F81BC04FEA136EB4F8EB
:1006D0002EC06EF30700B4F830806CF30F204FEAA1
:1006E0001C2C6CF31740C9F3072568F31F6065F3F2
:1006F0000702C6F82300A58E4FEA182060F3070111
:10070000E48E65F30F212D0A65F3174164F31F6131
:1007100063F30F22C6F82710190A61F317421B0C66
:10072000240A63F31F6286F82B40C6F81F20369810
:1007300077B0BDE8F08F01230322B3746AE7012389
:10074000D122912773707123CDE906274FF0510B09
:10075000B12202931123CDE9042B8927F1220193C1
:10076000C9230392CDE915374922A923E927CDE909
:10077000133269232922CDE911379923D927CDE9ED
:100780000F325923B922CDE90D37F9237927CDE965
:100790000B323923CDE90937192385220893C52364
:1007A000CDE93432A5234522CDE932326523E52255
:1007B000CDE9303295232522CDE92E325523D5229D
:1007C000CDE92C32F523B522CDE92A323523752225
:1007D000CDE928328D231522CDE926324D23CD22B5
:1007E000CDE92432ED23AD22CDE922322D236D2235
:1007F000CDE92032DD239D22CDE91E32BD235D22CD
:10080000CDE91C327D23FD22CDE91A321D233D2284
:10081000CDE918320523179383237593C32374936B
:1008200043237393A3237293E323719363237093FE
:1008300023236F9393236E93D3236D9353236C934E
:10084000B3236B93F3236A937323699333236893DE
:10085000132367938B236693CB2365934B23649376
:10086000AB233B93EB2360936B235B932B233A9354
:100870009B233D93DB2361935B236293BB233C93D8
:10088000FB2358937B235A933B2359931B235F935A
:100890000B235E9387235D93C7235C934723639366
:1008A000A7234093E7233F93672342932723419352
:1008B00097234493D723439357234693B7234593D2
:1008C000F723479377233993372348931723389394
:1008D0008F234993CF2337934F234A93AF234C93CE
:1008E000EF234B936F234E932F234D939F235093CE
:1008F000DF234F935F235293BF235193FF235493DE
:100900007F2353933F2356931F2355930F235793CE
:1009100007234FF0810AC12141204FF0A10E4FF073
:10092000E10C61254FF021084FF0310B09270D2212
:100930003E9376E5012904D8D2E900031B1A402B27
:1009400001D00020704710B50C46C2B00192FF21C3
:100950004FF4807202A85FF0DFF8019B02A8D3E990
:100960000012521A5FF018F904F2FB3000034FF442
:10097000805101905FF01CF901984FF4807202A938
:100980005FF0FAF8012042B010BD00BF2DE9F04140
:100990001F4D07462E6806F0D9FE99B34FF47A72C0
:1009A00000235FF0CDF8DFF8788006EB46063401CF
:1009B00048F8040038465EF0A1FB2822904228BF88
:1009C0001046631D08EB06160021307103EB08008A
:1009D0005FF0A2F8394632795FF0DEF80D480E4B31
:1009E0000268511C0C2928BF0C212A6801600132C1
:1009F000A3FB0243DB0803EB4303A2EB83022A6061
:100A0000BDE8F081054BA3FB00308009CBE700BFB8
:100A1000F038002034390020ABAAAAAAD34D6210C6
:100A2000383900209C46002300B58BB08E46CDE9B6
:100A30000633CDE90833012342F00102ADF8160078
:100A40008DF81520DCE90010421A8DF818E08DF8B9
:100A5000143022D105A902A8089204F00BFBDDE9AD
:100A60000212521A402A049B08D089B9079818B17B
:100A70000999091A08F086FF0BB000BD0E48CDE9B0
:100A800000135FF029F8DDE9001301200B4A107014
:100A90000846591A08F076FFE8E7104601910092DF
:100AA00008F06CFFDDE900215FF076F8009A07900E
:100AB00002440992CEE700BFF438002088EB002002
:100AC0002DE9F041804684B0104616460F465EF090
:100AD00015FB0446D8B1302828BF3024204608F042
:100AE0004DFF0546314622460619009002965FF0FA
:100AF00053F83946404602226B460196FFF792FFB3
:100B00002146284604B0BDE8F04108F03BBF9FED08
:100B1000087B3946404602226B468DED007B0294ED
:100B2000FFF780FF04B0BDE8F08100BFAFF30080A5
:100B300000000000000000002DE9F04FD1E9005353
:100B40008B46DBF808909D42A9EB050383B018BFE4
:100B50004D603F2BDFF8448174D8DBF80060AC1B9C
:100B600004F1004340333F2B40F29080402C2CBFD7
:100B7000271904F140076FF000439F4228BF1F462A
:100B8000384608F0FBFEAE4282467DD0621E052A42
:100B900033466FD9811B0139022902466AD924F0F4
:100BA000030C4FEA940E06EB0C0053F8041B83422F
:100BB00042F8041BF9D1644510D01A4612F8011B03
:100BC000D44495420AF82E1008D05A788CF80120A7
:100BD0009A1C95421CBF9B788CF8023054442346E3
:100BE000C6469C4608F14004019375460CF1100C72
:100BF0000FCDA5420EF1100E4CF8100C4CF80C1C49
:100C00004CF8082C4CF8043CEFD1019B03F1400553
:100C100026B13046A9EB060108F0B4FECBE900A5E9
:100C20005744CBF808701B4B984503D1012003B003
:100C3000BDE8F08FDBF80890DFF85880A9EB0503DA
:100C40003F2B8AD9464608F14007344610350FCC71
:100C5000BC4206F1100645F8100C45F80C1C45F88E
:100C6000082C45F8043CF0D1DBF804504035CBF8B3
:100C70000450D8E753465444721E12F8011F03F87B
:100C8000011B9C42F9D1AAE70346A9E7024854F0A8
:100C900029FB00BF00C03F1038FC051000B03F101A
:100CA0002DE9F0410446B8B0402008F067FE234625
:100CB000024600F1400C0790CDF824C004F1400139
:100CC0001D685C68D3F808E0D86810338B42156063
:100CD0005460C2F808E0D06002F11002F0D107A918
:100CE0000DA8CDF820C004F0ABFA0D9BBDF83A403A
:100CF0009DF83C10BBB94B1E112B00F2D084DFE8ED
:100D000013F03000470060008500C200DF004C0295
:100D10000B01F801E4009302660276025702B50265
:100D20008102C402250020466F4AFFF7C9FE1098D1
:100D300018B11299091A08F025FE079818B10999F7
:100D4000091A08F01FFE38B0BDE8F081DDE9102374
:100D50009A4200F0A98212212046644AFFF7B0FEB1
:100D6000E5E7042008F00AFE0546614B05F1040C96
:100D70001868002228600121204622ABCDE923CC4F
:100D80002295FFF74FFE0421284608F0FBFDCEE731
:100D90000C2008F0F3FD0546564B05F10C0C07CB73
:100DA00022AB286069602046AA6002210022CDE9BA
:100DB00023CC2295FFF736FE0C21284608F0E2FDF1
:100DC000B5E74D4922A804F0ADFC182008F0D6FD87
:100DD00005460DF1880C00F11803CDE91B331A907C
:100DE000BCE80F0028606960AA60BCE80300EB6003
:100DF0002861696120469DF83C1000221AABFFF77C
:100E000011FE1821284608F0BDFD90E7DFF804C167
:100E100013ADBCE80F000FC59CE8070085E807008C
:100E200013AA10A91AA804F0C9FC9DF86830002B79
:100E300000F08083314913AA22A804F019FF9DF81D
:100E40008830002B00F0B7832D48FFF79FFD00226C
:100E500020469DF83C100AABCDE90A220C92FFF720
:100E6000E1FD239825AB984203D02599013108F084
:100E700089FD1B981DAB98423FF459AF1D99013174
:100E800008F080FD53E71D4804F016FF002800F02D
:100E90004983194801F058FD174802F0CDFC0122A2
:100EA000184B19481A70FFF771FD002220469DF873
:100EB0003C1022ABCDE922222492FFF7B3FD36E7A6
:100EC0000E4805F00DF81148EDE7DDE910239B1AF7
:100ED000042B03D11378522B00F040830A212046C3
:100EE0000B4AFFF7EDFD22E750FC051000FE051050
:100EF00044470610384706107C3B0020783B002012
:100F000060FC05108AEB002094FC0510ACFC051079
:100F1000A0FE05106047061022A802F0C3FE1AA822
:100F200001F016FECB4B1E780AF082FE9DF8883049
:100F30009DF88B20A3F10303B3FA83F35B099DF8BB
:100F40008C10059301929DF88A30BDF88D20804663
:100F50000A209DF8897002930491039208F00EFD17
:100F6000029B05460371059B019AC37104234271DC
:100F70000499039A467080F80280C77081712B70C3
:100F80002A811420329E08F0F9FC2A6886720260D9
:100F90006A680A2142602A8901900281284608F085
:100FA000F1FC019B9DF86810320A99749DF891102C
:100FB000DA72D974339A310C1973310E5973110ADC
:100FC0009A73D973110C120E19745A7428201C9E2E
:100FD00008F0D4FC019B05461A68067502605A6841
:100FE000142142609A688260DA68C2601A690261FC
:100FF000184608F0C7FC00239DF8D0C01D9985F85D
:101000001CC09DF8D1C0320A85F81DC04FEA164CAD
:1010100085F816C04FEA166C6A7585F817C0359AC0
:101020004FEA112C297685F819C04FEA114C090EA8
:10103000AB77EB77E976369B110A85F8202085F8A7
:101040002110110C120E85F823201A0A85F824307D
:1010500085F825201A0C1B0E85F8221085F826200D
:1010600085F82730502085F81AC0379E08F086FC96
:101070003746024680462B4680F8286005F120015D
:101080001868D3F804E00646D3F808C0D8681033CF
:101090008B421660C2F804E0C2F808C0D06002F1CA
:1010A0001002EDD119685B68284611605360282151
:1010B00008F068FC0821002220463C0C88F82A40F1
:1010C0003C0E27FA01F388F82B4008F1300488F829
:1010D0002930239422ABC8F82C2008F15004CDF815
:1010E00088802494FFF79EFC5021404608F04AFC7B
:1010F0001DE6DDE91032D11A012900F328829A4257
:1011000018BF1D784FF003000ABF00252E460026A9
:1011100008F034FC012345704FF000054E49037080
:10112000096885708E42C0F07C810190062008F02D
:1011300025FC0346019A03211088DD701880907801
:1011400001939870104608F01DFC4FF00002019BBF
:101150000C209A8008F012FC4FF000060546019B17
:10116000AE711A6818462A609B880621AB8008F089
:1011700009FC05F10C07EE7105F108060022204676
:10118000092113AB1597CDE91356FFF74BFC7F1BD5
:101190003946284608F0F6FBC9E5DDE910239A42F6
:1011A00000F0E980072120462C4AFFF789FCBEE5C4
:1011B000DDE910031B1A052B03D10378012B00F086
:1011C0001F820E212046264AFFF77AFCAFE503F086
:1011D00031FC9DF83C10002800F0B381002220462D
:1011E00022ABCDE922222492FFF71CFC9FE5DDE92A
:1011F00010239A4200F0E0800D212046194AFFF7A3
:101200005FFC94E5DDE910239B1A022B06D11378CD
:10121000012B03D15078012840F22882102120466A
:10122000114AFFF74DFC82E522A802F03BFD22A9FE
:101230001AA8FEF7E1FF204600220B211AABFFF7A8
:10124000F1FB1A9800283FF472AD1C99091A08F0B6
:1012500099FB6CE58AEB00203439002054FE051020
:10126000E8FC0510C8FC051068FD0510DDE9100359
:101270001B1A052B03D10378012B00F0E1810F210C
:101280002046D04AFFF71CFC51E5DDE910031B1A8C
:10129000302B03D10378012B00F0C38111212046AC
:1012A000C94AFFF70DFC42E51AA801F051FC22A83B
:1012B00002F0F8FC01238DF84C309DF891309DF838
:1012C00068208DF84E309DF8903004208DF84F3016
:1012D0008DF84D2008F052FB02461399082011604A
:1012E0001C9DCDE9012108F049FB034602990160EC
:1012F000019804211D71019308F044FB1020019B0B
:101300002A0A5A7125FA00F22D0E9A71DD711D9E7E
:1013100008F034FB0546019B06721A68082102603A
:101320005A684260184608F02DFB20464FEA164CDA
:10133000259C85F80AC04FEA166C85F80BC04FEA69
:10134000142C330A2C7385F80DC04FEA144C240E6C
:101350006B72EC73002212211AAB85F80EC005F1F6
:101360001004CDE91B441A95FFF75CFB10212846B9
:1013700008F008FBDBE49548FFF708FB0122944BDB
:101380001A7006F0E3F9002900F008814FF47A7230
:1013900000235EF0D5FB00228E4DFA3028602046F7
:1013A00042F10004CDE922229DF83C10249222ABA8
:1013B0006C60FFF737FBBAE422A802F073FC9DF8DB
:1013C00098200820019208F0D9FA019A0546A2F166
:1013D000310200210120B2FA82F205F10803CDE9C1
:1013E0001B339DF88E30C5F80110520969601A95BB
:1013F0002870002B40F0D780AA7040F6B83C9DF8CA
:101400009020204643EA42132B7100220D211AAB93
:10141000A5F806C0FFF706FB0821284608F0B2FA37
:1014200085E483706C4B6D4A19686D4B0B31A3FBDF
:1014300001C5ED0805EB4505A1EB85010C31891BC4
:10144000A3FB0153DB0803EB4303A1EB830303EB93
:1014500043031901039002EB031306205758CDE90B
:10146000011308F08BFA0546039AC7701088032110
:1014700028809078A870104608F084FA3A0A2A71F9
:101480003A0C6A710C2008F079FA06463A0E82711D
:101490002A6880460260AA8806218280284608F0D1
:1014A00071FA029B06F108001A7906F10C07F27135
:1014B0000646002A00F0E9800199484B4D1D042A98
:1014C0001D4440F2E480082A114638BF08216FF01D
:1014D0000043019201F108029A4228BF1A461046C1
:1014E000174608F04BFAD8F8003029460360D8F8C0
:1014F00004300546019A436008305EF04DFB019AC6
:101500000C2183184046019308F03CFA019B092105
:101510001493EB1915930022204613AB1395FFF794
:1015200081FA35E620462F4A9DF83C10FFF7C8FAAD
:10153000FFF7FDBB20461B9A9DF83C10FFF7C0FA51
:1015400097E42046284AFFF7BBFAFFF7F0BB0921D2
:101550002046264AFFF7B4FAFFF7E9BB5378013279
:10156000432B7FF4BBAC12F8013F562B7FF4B6AC93
:101570005378312B7FF4B2AC1D48FFF707FA0122F4
:101580001C4B1A7006F0E2F800296AD04FF47A7208
:1015900000235EF0D5FA0022174DFEE6174BA3FBA1
:1015A00000308009F7E69DF8C2306870E870AA70D4
:1015B00043F0DE0321E72046239A9DF83C10FFF715
:1015C0007FFA4EE428FD0510B0FD051074FE0510ED
:1015D0008DEB0020D0350020F03800203839002075
:1015E000ABAAAAAA78FC051020FE051038FE05104B
:1015F0008CFE051089EB0020C0350020D34D621011
:101600008178B0F80320407802F060F99DF83C1032
:1016100000287FF4E3AD2046244AFFF751FAFFF794
:1016200086BB2F21013002F079FA9DF83C1000288A
:101630007FF4D4AD20461E4AFFF742FAFFF777BB8E
:1016400081780379C278407802F0C2F99DF83C10A5
:1016500000287FF4C3AD2046164AFFF731FAFFF7A2
:1016600066BB154BA3FB0030800994E700F0010036
:1016700002F008FA9DF83C1000287FF4AFAD204638
:101680000E4AFFF71DFAFFF752BB454676E529469D
:1016900001925EF081FA019A454616446EE52046B5
:1016A000074AFFF70DFAFFF742BB00BF04FD051024
:1016B000D8FD051044FD0510D34D621088FD0510BE
:1016C000C8FE051010B5032ABDF808C001D10229D3
:1016D00001D0002010BD0F4A10780028FAD0BCF1CC
:1016E0003F0FF6D99C460C4CA6460CF1100CBEE8F8
:1016F0000F004CF8043C094B10349E454CF8100C7C
:101700004CF80C1C4CF8082CEED10023014A402068
:10171000137010BD88EB0020F4380020343900200D
:10172000022ABDF800C00DD0032A0DD101290BD12A
:101730000BB3BCF1410F14D0BCF1400F14D11846CB
:10174000FFF7AEBA112900D07047002BFCD0BCF1D6
:10175000300F14D0BCF12F0FF6D12F21184602F014
:10176000DDB91A78012A04D001210020064AFFF7CA
:10177000A7B90133E3E71846044AFFF7A1B91A787D
:10178000112AE1D10133E8E70CFF0510F8FE05103E
:101790002DE98048A1B00CF081FB00F0CDFD884818
:1017A00004F08EF9874C2070874801F0CDF8864808
:1017B00002F042F82378002B00F029828348FFF7DB
:1017C000E5F800230822824EC6E90033C6F8073048
:1017D000B2710CF073FB002800F01B824AF6012363
:1017E000002001A9ADF804304FF000090CF09AF880
:1017F000734FDFF810B2DFF810A200214FF0FF3076
:101800000AF0D0FA00F068FE03F0E2F90AA802F04C
:1018100049FA9DF82A4024B99DF82B400CB99DF84F
:101820002C4005F093FF002900F081814FF47A727B
:1018300000235EF085F9FB7C002B40F076819DF85B
:101840002830032B00F0B8812CB1AAFB00306FEADE
:10185000101000F0010420460CF022FB0AA802F050
:1018600021FA9DF82E30002B40F0D280594A127890
:10187000002A40F0A3813B7C002B00F04F81012B1C
:1018800000F0598105F062FF04460D46DFF87C81C7
:1018900098F8003023B10AF0CBF9002840F0A1817C
:1018A0000AA802F0FFF94C4B1B782BB14B4B1A9A4C
:1018B0001B689A4200F055810AF0BAF930B3002053
:1018C0000BF030FE10B30B2301240AA902A8CDE9C6
:1018D0000543FEF791FC039B029A0893049B02A820
:1018E00005A90792099303F0C5FBDDE902239B1AC2
:1018F000402B35D022B104991046891A08F042F8DD
:10190000079818B10999091A08F03CF805F01EFF6C
:10191000002951D04FF47A7200235EF011F9304B58
:101920001B7833B1DBE90023904279EB030380F0AD
:1019300073812C4B1A78002A3FF45FAF2A4AD2E910
:101940000012884279EB0202FFF457AF83F800904F
:101950000AF09CF9322005F0CDFD0AF0A1F94CE720
:10196000032100200BF0FAFD029A0028C2D01A4B86
:101970001A981C70194B049918601C4B9DF82E0086
:1019800018701B4B9DF82D0018701A4B9DF82900FC
:101990001870194B9DF82A001870184B9DF82B00F1
:1019A0001870174B9DF82C001870002AA8D010460C
:1019B000891A07F0E7FFA3E7AAFB00308009AEE72A
:1019C000783B00208AEB00207C3B002040FF051084
:1019D000C83B00208CEB00208BEB0020E03B00207C
:1019E00089EB00208DEB0020D035002090EB00200B
:1019F00094EB002092EB002093EB00208FEB002073
:101A000091EB0020C0350020D34D62108EEB0020FA
:101A1000854C1A9D23689D423FF42DAF6FF07E0EDA
:101A20009DF839309DF83AC0803B9DF83B00ACF101
:101A3000800C73459DF83C10A0F18000B8BF734640
:101A4000F445A1F18001B8BFF4467045B8BF7046B7
:101A50007145B8BF71469DF83F20F17002F00F014B
:101A6000072928BF07213370BDF83D30B070013120
:101A70009006B380C2F3001348BF43F00203B17174
:101A8000510648BF43F0040312069DF8402048BFAA
:101A900043F0080302F0010143EA0113900748BF35
:101AA00043F02003510748BF43F04003100748BFED
:101AB00043F08003510648BF43F4807310069DF83D
:101AC000412048BF43F40073D10648BF43F480630C
:101AD000900602F0010148BF43F4006343EA01337A
:101AE000910748BF43F40053520748BF43F4804373
:101AF0001A0A32724FF00002F3713B7E86F801C081
:101B0000A6F80920002B65D10123484A48491370E3
:101B10000B703B7C2560002B7FF4B1AE05F016FE08
:101B20004FF47A6C04460D460BE0002493E6AAFBC2
:101B3000003080097FE605F009FE4FF4FA6C044698
:101B40000D463C4BD3E9002352EA03013FF49EAE1D
:101B5000A21A65EB0303624573F10003BFF496AE6E
:101B60009EE6354B9DF82E201B789A427FF4A4AE5A
:101B7000324B9DF82D201B789A427FF49DAE304B5E
:101B80009DF829201B789A427FF496AE2D4B9DF844
:101B90002A201B789A427FF48FAE2B4B9DF82B2086
:101BA0001B789A427FF488AE284B9DF82C201B7836
:101BB0009A427FF481AEA9E601244CE60820012177
:101BC0001A4A1B4CC6E900332370C6F80730B071BF
:101BD000117050E60AF034F8002895D00AF038F871
:101BE00092E700200BF09EFC00283FF459AE0B2337
:101BF00010210020164A0BF0B1FC00283FF450AE33
:101C0000002388F800300B4BC3E9004548E6114833
:101C1000D5E501F0E3FDE1E500210F4B084683F82F
:101C2000009005F0D1FE00BFE43B00208EEB0020C9
:101C30008CEB0020C835002090EB002094EB0020B6
:101C400092EB002093EB00208FEB002091EB002023
:101C5000C83B002028FF051089EB002001490248FD
:101C600003F01CBF282E0020783B0020004870475E
:101C70009448061000487047A8480610004870476E
:101C80008C47061030B58DB058B940F209434FF477
:101C9000417E264D6B802549A5F800E008460DB031
:101CA00030BD032822D03FD8214B53F82010002903
:101CB000F4D0084601915DF021FA2028044628BF9F
:101CC000202404F1010E4FEA4E0E0199174D4EF4F7
:101CD000407E0028DFD028464A1E931C5B1A12F86B
:101CE00001CF9C4220F802CFF7D8D4E7212200216F
:101CF00002A85DF011FF212102A809F063FC02A8EF
:101D00005DF0FCF9094D40B12A4602AB1C1813F8EE
:101D1000011B9C4222F8021FF9D100F1010E4FEA8B
:101D20004E0E4EF4407EB6E70021B7E7A038002003
:101D30007C47061049B100B54A7985B0042A06D01F
:101D4000022A15D0002005B000BD0846704791F862
:101D500003C0BCF1010F33D0BCF1020FF2D14B78BC
:101D6000012BEFD16A468DF800300BF027FBEAE734
:101D70008A78042AE6D891F803C0BCF1010F12D08A
:101D8000BCF1020FDED14B78012B38D0022BD9D118
:101D90004FF0807C1F4A082300926A46CDF804C0A9
:101DA0000BF00CFBCFE74B78012BCBD1DFF868C0F1
:101DB0001CF802C06A468DF800C00BF0FFFAC2E7BB
:101DC0004B78012B12D0022BBCD14BF6803EADF8E4
:101DD00000C04FF0000C0E236A46CDF802E0CDF8AB
:101DE0000AC0CDF806E00BF0E9FAACE74BF6803C10
:101DF00013466A46CDF800C00BF0E0FAA3E7DFF81F
:101E00001CE063463EF812C06A46ADF800C00BF015
:101E1000D5FA98E7010000A6C03B0020D43B002083
:101E200011B14B79022B01D000207047002AFBD062
:101E30004B78012BF8D18B78042BF5D810B5C878E6
:101E400082B0012804D002281DD0002002B010BDAD
:101E5000C9880129F9D192F90010214A003918BF27
:101E60000121D1541378517892780B43134314BF56
:101E70000120002000F04AFD1A4BB3F9000000F0E9
:101E80004BFD0120E2E7C9880229DED1CDE900320D
:101E900000F0B4FDDDE900320028F2D1117852786B
:101EA000114841EA022212B28242B8BF02460C48EF
:101EB00002EAE27290F801C00178807841EA0C01F0
:101EC0000143084918BF01200C4608BF002021F833
:101ED000132000F01BFDB4F9000000F01DFDD0E759
:101EE000C03B0020D43B002000A6FFFFC1B108B5D5
:101EF0008B884888DBB2012BC0B203D0022B08D0FC
:101F0000012008BD003818BF012000F0D5FC0120D9
:101F100008BD003818BF012000F0E6FC012008BD14
:101F20000120704769B108B58B88DBB2012B0AD05C
:101F3000022B01D0012008BD002000F0D5FC0120BB
:101F400008BD01207047002000F0B6FC012008BD4C
:101F500010B50C46E2B04FF4C472002168465DF043
:101F6000DBFDB4F5C47F2246694628BF4FF4C47236
:101F700000200AF0BBFD0146684600F051FB01203D
:101F800062B010BD00B59BB00021622201A85DF0D7
:101F9000C3FD602101A800F037FD10B901201BB07E
:101FA00000BD82B201A900200AF0ACFD01201BB0E7
:101FB00000BD00BF2DE9F04FD44BADF69C0D1D6860
:101FC000002D00F098810026DFF850A34FF4F06256
:101FD000002146A85DF0A0FD0AF1020B0DF58D79F8
:101FE0000395CB4B40F2DF12A3FB0635731B05EBC9
:101FF000530540F2FF132D0A05F10108984528BF4B
:102000009846C5EB05143AF93800C5EB4414341B67
:1020100080FB04013AF935C0C4F5EF77013700239E
:10202000C7FB0C015DF090FD29F8020C3BF938006C
:102030003BF9353080FB040140F2DF12C7FB03019E
:1020400000235DF081FDB34B06F2FF169E4229F896
:10205000040BC6D1C824039D14AE0021224630468D
:102060005DF05AFD28464FF4F072334646A90094BD
:1020700022F0B0FEA042054600F23D810021402240
:1020800004A85DF049FDA44BA4494FF0FF3E4FF07A
:10209000800A1888DFF898C2DFF8988201F5805925
:1020A00004AF03957DE0002B03DA14EB080443F141
:1020B0000003240D44EA0334802C4FEA235373F1C8
:1020C000000300DB7F24B1F90EB0B1F90620B1F9AD
:1020D00016501BEB02033C704FEAE272B1F91E404E
:1020E00042EBEB72EB1842EBE572E31842EBE47261
:1020F000B1F92640E51842EBE473B1F92E406219BC
:1021000043EBE473B1F93640A21843EBE473B1F941
:102110003E40A21843EBE473B1F94640A21843EBEA
:10212000E473B1F94E40A21843EBE473B1F95640A1
:10213000A21843EBE473B1F95E40A21843EBE473D9
:10214000B1F96640A21843EBE473B1F96E40A218EE
:1021500043EBE473B1F97640A21843EBE473B1F9B1
:102160007E40A21843EBE473A2FB004200FB032372
:10217000A4457EEB03026FDA002B03DA14EB0804AC
:1021800043F10003240D44EA0334802C4FEA235327
:1021900073F10003A8BF7F24803189457C7060D033
:1021A0000237B1F90CB0B1F90420B1F91450B1F90A
:1021B0001C401BEB02034FEAE27242EBEB72EB189E
:1021C00042EBE572E31842EBE472B1F92440E31804
:1021D00042EBE472B1F92C40E31842EBE472B1F93E
:1021E0003440E31842EBE472B1F93C40E31842EBAF
:1021F000E472B1F94440E31842EBE472B1F94C40A7
:10220000E31842EBE472B1F95440E31842EBE47294
:10221000B1F95C40E31842EBE472B1F96440E318B1
:1022200042EBE472B1F96C40E31842EBE472B1F9AD
:102230007440E31842EBE472B1F97C40E31842EBDE
:10224000E472A3FB004300FB0233A4457EEB0302D0
:10225000FFF629AF802436E78031494587F801A091
:102260009ED12F4C4FF4C77200212046039D5DF094
:1022700053FC362323703F239022237344F29203AE
:1022800028482949E2720278A4F84C300B78A272EF
:10229000013202705A1C1B0104AF0A70637004F112
:1022A0004E0EBC460EF1100EBCE80F00B44507F10F
:1022B00010074EF8100C4EF80C1C4EF8082C4EF877
:1022C000043CEED11323012D84F88F5084F88E3016
:1022D00016DD2A46314615485DF05EFC4FF4C771A5
:1022E0000F4804F04FF8C0B2B0FA80F040090DF684
:1022F0009C0DBDE8F08F00200DF69C0DBDE8F08F21
:1023000004BF337884F89030E8E700BFF08B0020FA
:102310009B01A31120BE0300302E0020F48B00206F
:10232000F49B00209AEB002097EB0020849C002077
:102330000000F0F7FFFF0F0030B5002483B04FF42A
:102340008042002144485DF0E7FB4449444B454D41
:102350000C604FF48052214643482C601C605DF0B5
:10236000DBFB9FED3B7B414947F6FF730C60404927
:102370004FF480720C603F494FF400700C603E498E
:102380003E4D0C603E490C603E490C603E490C607D
:102390003E490C603E4981ED007B3E490C703E4950
:1023A0000C703E490C703E490C703E490C703E4921
:1023B0000C703E490C703E490B803E490B803E4BF1
:1023C0003E491A803E4A3F4B0860147021464FF444
:1023D00080523D481C705DF09FFB21464FF4C77250
:1023E0003A485DF099FB40F6010202214BF680303D
:1023F00001AB2C70019420F075FC354C206008B1C5
:10240000019D1DB10023236003B030BD40F6A271D1
:10241000304A22F0A9FD2A4640F6A671206822F033
:10242000A3FD052240F6AA71206822F09DFD40F62A
:10243000BA3240F6B871206822F096FD102240F6BC
:10244000C471206822F090FD03B030BDAFF300806E
:102450000000000000000000E83B0020EC7B0020B2
:10246000849D0020E87B0020F07B0020909D0020D0
:10247000949D00209C9D0020889D002099EB0020C9
:10248000989D00208C9D0020A09D0020A49D0020F0
:10249000D835002095EB00209EEB00209DEB00201E
:1024A00098EB00209BEB00209CEB002096EB00209B
:1024B000342E0020322E0020302E00202C2E002022
:1024C00097EB00209AEB0020F48B0020F49B002077
:1024D000F08B002000710200F0B5444C97B02378D7
:1024E0000BB917B0F0BD05F031F9414AD2E900351A
:1024F000C01A4FF000033F4A61EB0501824273EBC3
:10250000010169D32378002BEBD03B4B1B68002BD8
:10251000E7D0684601F0C6FB38490B78002B50D154
:10252000374E3849326809688A42DAD39DF8081074
:102530000029D6D0DFF8D8C09E46334C334F0CF676
:10254000F875A2B12368013A591CC1F30A0107EBDF
:10255000C303AC452160326093E803008CE80300BC
:102560001AD00EF1010E0CF1080C002AEAD1AC458C
:10257000CCE9002210D0264B0EF1010E03EBCE0366
:10258000CEF5007E03EBCE0E0EF1080E083343E9C4
:10259000022208339E45FAD1FFF70CFDF8B1012362
:1025A000164A13704FF4C7711A4801F001FB002856
:1025B00097D00021184A1368013313600F4B19702C
:1025C0008FE79DF80830002BECD1144A0B7013688C
:1025D00003F50073136084E7237017B0F0BD0F4A52
:1025E000136803F5007313607BE700BF95EB0020D1
:1025F000D8350020F0490200F08B002099EB002034
:10260000849D00202C2E0020E87B0020E83B002049
:10261000F48B0020F49B00208C9D0020989D0020CE
:10262000002800F0DC80072940F2D9800A462DE915
:10263000F04F914B8DB01978904B04461B68019375
:10264000D3088F4AD2F800A08E4A126802928E4AAE
:10265000D2F800B08D4A126803928D4AD2F80090E9
:102660008C4A1568002940F0BB808B4A00EBC303FD
:10267000127805930492894A894B12880A9108922C
:10268000884A0693128809910092874A0B91079213
:1026900055E063782078099940EA0320089B00B24E
:1026A00080FB030200FB01F3009901FB0233A0FB56
:1026B000010119446EA3D3E900235DF045FAE378E4
:1026C0000FFA80F8A078009940EA0320089B00B236
:1026D00080FB0302099B00FB03F301FB0233A0FB19
:1026E0000101194462A3D3E900235DF02DFA00B281
:1026F00008EB000202EBD272BAF5006F4FEA6202F9
:102700002ED00AF1010A079B0BF10101B9F5006F08
:1027100003EBCB03C1F30A0B2DD009F10109069994
:10272000A3F8008058809F80DE80059B083421F844
:1027300015209C4205F10105C5F30A0523D06379F4
:102740002779A67947EA0327E37946EA0326049B1B
:10275000002B9ED00022BAF5006F90461046D0D1D3
:1027600001230A93019B0133C3F30A030193029BE4
:1027700001330293C7E701210B9103990131C1F3A2
:102780000A010391CBE7DDF82CC0424B1D60404BA2
:10279000C3F800903C4BC3F800B0394BC3F800A01D
:1027A000BCF1000F02D0394B039A1A600A9B2BB17F
:1027B000344B029A1A60314B019A1A603B4A1368F3
:1027C0000133136004F0C2FF01220D46044638496C
:1027D000384BC1E900451A700DB0BDE8F08F704765
:1027E0004FF0000C00EBC303049167462C49DFF85F
:1027F000B880CDF828C0009319E00AF1010A0BF166
:10280000010EB9F5006F08EBCB02CEF30A0B24D012
:1028100009F10109009B083421F815709C4205F16B
:1028200001059680D0801760C5F30A05ADD06279A6
:102830002679A07946EA0226E279BAF5006F40EAE5
:102840000220DAD1019A0132C2F30A020192029AFD
:1028500001320292049A0A92D1E7039B03F1010C20
:10286000CCF30A030393DDF810C0D3E7AFF3008085
:102870000100FF3F0000000098EB0020E87B0020F3
:10288000849D0020989D0020EC7B0020909D0020DE
:102890009C9D0020949D00209BEB0020342E002066
:1028A000F07B0020322E0020E83B0020889D002095
:1028B000D835002095EB0020064B187048B9064A21
:1028C000DFF820C00549064B12688CF8000008604C
:1028D0001A6070479EEB0020EC7B0020849D002056
:1028E000E87B002095EB0020044B187028B9044ABF
:1028F0000449054B126808601A6070479DEB002080
:10290000949D00209C9D0020909D0020014B1870FC
:10291000704700BF98EB00200849094B8842B8BFB8
:10292000084600EAE07000F5B44000B2C0EBC030E9
:10293000400AA3FB0030034A1080704700A6FFFF47
:10294000115BB005342E0020D0ED017AB0EE677A2D
:102950002DE9F0410446BEEECC7A204BC07CDFF876
:1029600094C01870207A637BC0EBC030ACFB008C45
:10297000A0EB0C000CEB500C194EA07C102B194D49
:102980003070A07D38BF1023287017EE100A7F2BFF
:1029900028BF7F23B0F5807FB8BF4FF48070B0F5BB
:1029A000007FA8BF4FF40070103B0F4A03EB4303B6
:1029B0005B02A2FB03429B1A02EB53020B4FDFF8B0
:1029C00038E00B4992094FEA9C1C02F50072A7F807
:1029D00000C00A60AEF80000BDE8F0819BEB00206B
:1029E0009CEB002096EB0020890B3527322E00202F
:1029F0002C2E002011080402302E0020014B1878E4
:102A0000704700BF96EB002098B301292FD9494B9E
:102A10001B7863B3484A2DE9F0471278474C1746B4
:102A2000D4F800E04FEA510C22B3BCF1010F7ED084
:102A30000346002421F003020244890843F8044BB2
:102A40009A42FBD1BCEB410F4FEA410303D04FF058
:102A5000000220F813200CEB0E06384B1E60384A9B
:102A60004FEA4C00136801331360BDE8F087002083
:102A7000704770471E4614463249334A0968126847
:102A8000451C002A3FD10EF1010604F1010EF44568
:102A900000F8142005F814202CD00234A4452CBFD3
:102AA00001240024ACEB0E03A146984616D3012B5B
:102AB00014D0002C14BF1C46012400EB4E03A24688
:102AC000640803EB8404002543F8045B9C42FAD1BC
:102AD0001AF0010F06D02AF001039E444FF00003C4
:102AE00020F81E30B9F1000F08F1FF3308BF0023B2
:102AF00001331E44002FB0D0124B19600F4B1E60E3
:102B0000114B1A60ABE7114B013A33F91130013127
:102B100000F814301B0A05F814300134A445C1F341
:102B20000A0101D03746ACE7064B1960E8E70023FD
:102B30008DE700BF9DEB00209CEB0020A49D0020B2
:102B4000A09D0020909D00209C9D0020F07B0020F7
:102B5000DFF880C01649174B174A9CF800C0097867
:102B60001B78127880F800C0417083700AB9134B4B
:102B70001A78134BC2701B68DFF85CC0003B18BFAB
:102B800001231049104ADCF800C009681268C0F837
:102B900008C0C0E90312DFF844C00C490C4ADCF855
:102BA00000C009681268C0E905C1C26103717047BD
:102BB0009EEB00209DEB002098EB00209BEB00207B
:102BC000F08B0020989D0020849D0020A09D002077
:102BD000A49D002095EB0020889D00208C9D002066
:102BE000124B1968EFF3108272B6D1E8CFCF0120F3
:102BF000BCF1000FF9D1C1E84C0FBCF1000FF4D1CA
:102C0000BFF35F8F0A495A60088840B10949487983
:102C100028B10878A0F10300B0FA80F04009002143
:102C20001B68C3E88F1F82F310887047B49D002093
:102C300066EB0020442E002038B54FF44C72002182
:102C40001A485CF069FF4FF0FF300023002200219A
:102C5000174C184D20602860174C1848C4E9002311
:102C60000170174C1748C4E90023C0E900233F2234
:102C700015485CF051FF154B1868EFF3108272B6DF
:102C8000D0E8CF5F0124002DFAD1C0E8454F002DD8
:102C9000F6D1BFF35F8F00210D485A6001811B6898
:102CA000C160C3E88F1F82F3108838BDBC9D00202F
:102CB000402E00203C2E002008360020A5EB0020EE
:102CC000F8350020E0350020F0A00020B49D002061
:102CD000442E00201A4A1368032B24D90268194B8A
:102CE000C3F812208288DA82174B1968EFF310823A
:102CF00072B6D1E8CFCF0120BCF1000FF9D1C1E805
:102D00004C0FBCF1000FF4D1BFF35F8F4FF0010CFB
:102D10000E485A6000211B6880F807C0C3E88F1F67
:102D200082F31088704703EB430C013305491360AD
:102D3000036841F81C30838801EB4C018B80D3E79A
:102D400048A1002030A10020B49D0020442E002086
:102D50002DE9F0414F4D2C68002C5BDBFFF740FF65
:102D6000002857D04C4E3368002B5BDB04F0EEFCA0
:102D7000002951D1494BA3FB003080090021484B69
:102D8000D3E90042A04271EB020243D34FF4CC746A
:102D90004FF0FF303268434F306004FB0272002076
:102DA00082F894110021C3E900012C684FF4CC781B
:102DB00008FB04F23C4BB9181888D1F89031013265
:102DC000013B91F88E113A449BB21DF017FA08BBF3
:102DD000336834608342A4BF08FB037383F8940113
:102DE0004FF0FF332B6004F0B1FCE9B14FF47A727D
:102DF00000235CF0A5FE4FF4CC73002203FB0473A8
:102E000093F88E310430264942F10002362B0860D7
:102E10004A600ED0BDE8F0814FF47A7200235CF076
:102E20008FFEABE71F4FC1E71C4BA3FB00308009AF
:102E3000E1E71E4C2368EFF3108272B6D3E8CF0FA0
:102E400001210028FAD1C3E8401F0028F6D1BFF3C2
:102E50005F8F40F20111164B6260DA68198101320E
:102E6000DA6004F073FC79B14FF47A7200235CF0FD
:102E700067FE00230F4A2168C2E90003C1E88F3FC3
:102E8000636883F31088C5E7044BA3FB0030800917
:102E9000EFE700BF3C2E0020402E0020D34D6210F3
:102EA00008360020BC9D002066EB0020B49D002069
:102EB000442E0020E0350020354BF0B51B68002182
:102EC000002B0CBF4FF4CC7500250646314C95B055
:102ED0004FF4C77205EB040014BF0F4601275CF0E6
:102EE0001BFE2D4B68461A78511C197002F00F0218
:102EF000314603F0B5F94E22694628195CF04CFEC4
:102F00004FF4CC73012131204E2203FB074383F899
:102F10008E0183F89411214DF17A2F60C3F890212E
:102F200039B12F22012A06F10C012BDD1C485CF07F
:102F3000D3FD3378E3B11A4D0DF103040DF13307DE
:102F40002E4620686168A268E3681034BC420FC650
:102F500005F11005F4D120686168A268A689A37BF9
:102F600007C52E80AB70FFF7F3FE012015B0F0BD52
:102F7000F378002BDFD1F379002BDCD1737A002BAF
:102F8000F1D0D8E7D5D1064B327B1A70D1E700BF1C
:102F9000402E0020BC9D0020A2EB00203C2E0020F3
:102FA000F0A00020A44BF0B51B78002B00F070813E
:102FB000A24A1368EFF3108472B6D3E8CF6F0125ED
:102FC000002EFAD1C3E8465F002EF6D1BFF35F8F23
:102FD0009B4B156854601B780022C5E88F2F84F343
:102FE0001088012B00F02E81002B40F0B6800028C5
:102FF00000F0B280082940F2AE8005460346A1F1F8
:103000000806064413F8012B02F12004A2F1410C3A
:10301000E4B2BCF1190F98BF2246642A40F06A81DD
:103020001A7802F12004A2F1410CE4B2BCF1190FAC
:1030300098BF2246752A40F05D815A7802F120043B
:10304000A2F1410CE4B2BCF1190F98BF2246612AEB
:1030500040F050819A7802F12004A2F1410CE4B2D0
:10306000BCF1190F98BF22466C2A40F04381DA78F0
:1030700002F12004A2F1410CE4B2BCF1190F98BF97
:103080002246732A40F036811A7902F12004A2F117
:10309000410CE4B2BCF1190F98BF2246652A40F0FA
:1030A00029815A7902F12004E4B2A2F1410CBCF169
:1030B000190F98BF22466E2A40F01C819A7902F1BE
:1030C0002004E4B2A2F1410CBCF1190F98BF2246D2
:1030D000732A40F00F81DA7902F12004E4B2A2F100
:1030E000410CBCF1190F98BF2246652A40F00281BD
:1030F0000339014415F8013B03F12002A3F141001B
:10310000D2B2192898BF1346652B40F0EB802B787C
:1031100003F12002A3F14100D2B2192898BF13464F
:10312000642B40F0DF806B7803F12002A3F14100B3
:10313000D2B2192898BF1346672B40F0D380AB78E2
:1031400003F12002A3F14100D2B2192898BF13461F
:10315000652B40F0C7800020F0BD0028FCD0082976
:10316000F9D90346A1F10805054413F8012B02F132
:103170002004A2F14106E4B2192E98BF2246642A27
:1031800040F089801A7802F12004A2F14106E4B2ED
:10319000192E98BF2246752A7DD15A7802F1200453
:1031A000A2F14106E4B2192E98BF2246612A72D1DB
:1031B0009A7802F12004A2F14106E4B2192E98BFD8
:1031C00022466C2A67D1DA7802F12004A2F1410686
:1031D000E4B2192E98BF2246732A5CD11A7902F103
:1031E0002004A2F14106E4B2192E98BF2246652AB6
:1031F00051D15A7902F12004A2F14106E4B2192E0C
:1032000098BF22466E2A46D19A7902F12004A2F193
:103210004106E4B2192E98BF2246732A3BD1DA79CF
:1032200002F12004A2F14106E4B2192E98BF224611
:10323000652A30D10120F0BDA0EB0020B49D002014
:10324000362E0020002887D00D2984D900F10D06E4
:103250004718DFF8BCC0A6F10E0E9CF800201EF83F
:10326000013F02F1200103F12000A3F14105C0B2AA
:10327000A2F14104C9B2192D98BF0346192C98BF79
:103280000A469A420CF1010C30D17645E5D1D1E7DE
:103290001D4B1B78A5E69D427FF467AF12297FF690
:1032A0005AAF00F1120E4718184CAEF113052278F0
:1032B00015F8013F02F1200103F12000A3F1410CB8
:1032C000C0B2A2F14106C9B2BCF1190F98BF0346C2
:1032D000192E98BF0A469A4204F101040ED1AE4558
:1032E000E5D1A7E7A9427FF405AFA3E70136B742CE
:1032F000AFD130E79E427FF485AE2CE70EF1010E90
:103300007745D1D127E700BF362E00208CFF05106E
:103310007CFF0510000000004B4B1B78002B4CD0AD
:103320004A4B1B78002B48D0494B1B78002B44D1CB
:10333000484B1B78002B40D1474B1B88002B3CD1BE
:10334000464A10B5D2E9003213430ED004F0FEF91C
:10335000002967D1424BA3FB0030800900233F4A7C
:10336000D2E900128842934126D3082016F0BCFC13
:103370003C4B1A6810BB9FED327B384981ED007BD6
:10338000EFF3108172B6D2E8CFEF5FF0010CBEF11F
:10339000000FF8D1C2E84ECFBEF1000FF3D1BFF35A
:1033A0005F8F0122304C5960E270294C1B682270FB
:1033B000C3E88F0F81F3108810BD70474FF0010CE8
:1033C0002A4981F800C0EFF3108172B6D2E8CF4FDE
:1033D0005FF0010E002CF9D1C2E844EF002CF5D1CA
:1033E000BFF35F8FD3F800E059601F4B1A6D83F86D
:1033F00048C0624483F849001A650023CEE88F3F35
:1034000081F3108804F0A2F991B9154BA3FB0030A9
:1034100080090023114A10F57A7043F1000310600F
:10342000536010BD4FF47A7200235CF089FB95E77E
:103430004FF47A7200235CF083FBEAE7AFF300807D
:103440000000000000000000A3EB00209FEB002024
:10345000A1EB0020A4EB002066EB0020003600204A
:10346000D34D6210B49D0020442E0020A6EB002016
:103470002DE9F0436D4F06463C78894683B094B9F8
:10348000DFF8D481D8F8003093B1694D03E0D8F863
:1034900000309C420CD22946304610F0A5F8013489
:1034A00006350028F3D1DFF8B48198F800301BB15D
:1034B000002003B0BDE8F0835E4D2B78002B40F078
:1034C000B1805D4C2368EFF3108272B6D3E8CF0F62
:1034D00001210028FAD1C3E8401F0028F6D1BFF32C
:1034E0005F8F00232B70554D21686260EB70C1E83F
:1034F0008F3F82F31088524A30681380B288514E51
:1035000000903370ADF804202368EFF3108272B698
:10351000D3E8CF0F01210028FAD1C3E8401F0028CB
:10352000F6D1BFF35F8FEB6C62600133EB64B9F1EE
:10353000000F02D06B6D01336B6500232168C1E879
:103540008F3F82F31088012168463D4A1BF0C6FF79
:10355000002300283AD1002000213B4BC3E90001A1
:1035600004F0F4F800292BD1384BA3FB003080097C
:1035700042F21073364AC0184FF0000310604FF04B
:10358000010043EB0306216888F800005660EFF362
:10359000108272B6D1E8CF7F0126002FFAD1C1E8A0
:1035A000476F002FF6D1BFF35F8F216862602871EB
:1035B0002870C1E88F3F82F3108803B0BDE8F08324
:1035C0004FF47A7200235CF0BBFAD1E7012232702B
:1035D0002268EFF3108172B6D2E8CFCF0126BCF19A
:1035E000000FF9D1C2E84C6FBCF1000FF4D1BFF36A
:1035F0005F8F022285F848202A6D85F84900013244
:10360000206861602A65C0E88F3F81F31088114A05
:103610003978C2E90033936000293FF449AFFFF7DE
:103620007BFE45E716F07EFB4BE700BFA3EB0020D7
:1036300030A10020A1EB0020B49D0020442E0020EA
:1036400066EB0020A6EB0020E8350020D34D621089
:10365000F0350020A89D002048A10020A4EB002008
:103660002DE9F04100220023002551495148524ED6
:10367000524FC0E90023C6E900230D70FFF7DCFAC2
:103680003B68EFF3108272B6D3E8CF0F0121002818
:10369000FAD1C3E8401F0028F6D1BFF35F8F484B33
:1036A000484CDFF834811D807A60D4E9003213433E
:1036B000A8F8045088F806503BD188F8025004233B
:1036C00088F800303A680023C2E88F3F7A6882F3B6
:1036D00010883D4A3D49C2E9003393600B70D4E93C
:1036E0000032134314D13A4B1B68002B55D004F021
:1036F0002DF800294CD04FF47A7200235CF020FAA8
:103700000023FA3043F1000330607360BDE8F081BC
:1037100004F01CF8B1BB2F4BA3FB00308009002341
:10372000D4E9001288429341DDD2BDE8F041FFF7B1
:10373000F3BD04F00BF8F9B9264BA3FB0030800968
:103740000021236862689842914134BF0121002121
:10375000134388F80210B2D003F0F8FF19B34FF406
:103760007A7200235CF0ECF9D4E90012002388425D
:103770009341A4D20223A3E74FF47A7200235CF0B2
:10378000DFF9DDE74FF47A7200235CF0D9F9C6E780
:10379000104BA3FB00308009B2E700220023C6E9EA
:1037A0000023BDE8F0810B4BA3FB00308009DBE771
:1037B000A4EB0020F0350020E8350020B49D002067
:1037C00066EB002010360020A89D0020A6EB00200C
:1037D00048A10020D34D6210442E002008B5104BA4
:1037E0001A7802B108BD0F4803F0CCFA01220C4B45
:1037F0000D491A700A8017F023FC4FF400610B4842
:103800001BF0E6FD0A481BF003FE0A48084B436024
:1038100011F0F8FDBDE80840012015F009BF00BF18
:10382000A0EB0020B49D0020442E002054A10020D5
:10383000393D00104CA10020D0ED017AB0EE677A3E
:10384000BEEECC7A1D4B1A7817EE103AB3F5807F96
:10385000B8BF4FF48073B3F5007FA8BF4FF4007377
:103860001AB3174A10B5D2F800C0EFF3108172B640
:10387000DCE8CF4F5FF0010E002CF9D1CCE844EF2B
:10388000002CF5D1BFF35F8FDFF83CE090F80EC05D
:103890000C485160AEF800301268002380F800C078
:1038A000C2E88F3F81F3108810BDDFF81CC0054AC5
:1038B000817BACF800301170704700BFA0EB002096
:1038C000B49D0020362E0020382E002070B540F622
:1038D000B734531E9BB2A34292B003D900242046B2
:1038E00012B070BD334B1B78002B60D0324B1C687C
:1038F000EFF3108C72B6D4E8CF5F5FF0010E002DAD
:10390000F9D1C4E845EF002DF5D1BFF35F8FD3F8AF
:1039100000E0C3F804C0294B1C880023CEE88F3F89
:103920008CF31088054601911646002138220DF1CE
:103930000F005CF0F1F8019B04FB05F004FB03F1C0
:103940008030000A8031090AFF2828BFFF20FF29A4
:1039500028BFFF214FF001058DF80D008DF80C50A8
:103960008DF80E10FFF73CF904460028B6D0144B32
:103970001B68002BB2DA03A8FFF79EFA114B1D70EB
:1039800003F0E4FE69B9104BA3FB003080090F4936
:1039900030184FF000020860204652414A6012B0D1
:1039A00070BD4FF47A7200235CF0CAF8EFE7034B66
:1039B0001C88B7E7A0EB0020B49D0020382E002023
:1039C0003C2E0020A5EB0020D34D6210F8350020DE
:1039D00070B592B006460D46144600213B2203A85E
:1039E00001935CF099F8019B224A03F01F038DF8C4
:1039F0001430012311688DF810608DF811508DF886
:103A000012408DF80F308DF81330EFF3108372B63B
:103A1000D1E8CFCF0120BCF1000FF9D1C1E84C0FA4
:103A2000BCF1000FF4D1BFF35F8F13481168008819
:103A3000536010B11148427942B90022C1E88F2F7A
:103A400083F310880022104612B070BD007803285E
:103A5000F3D10020C1E88F0F83F31088084B1B6857
:103A60008342EFDA03A80192FFF726FA019A104683
:103A700012B070BDB49D002066EB0020442E0020E3
:103A80003C2E002010B592B004463B22002103A832
:103A90005CF042F801221D4B8DF8164019688DF834
:103AA0001520EFF3108272B6D1E8CFCF0120BCF120
:103AB000000FF9D1C1E84C0FBCF1000FF4D1BFF3F6
:103AC0005F8F1348196800885A6010B11148437914
:103AD00043B90023C1E88F3F82F3108800231846C2
:103AE00012B010BD00780328F3D10020C1E88F0F79
:103AF00082F31088084A12688242EFDA03A8019321
:103B0000FFF7DAF9019B184612B010BDB49D0020F2
:103B100066EB0020442E00203C2E002008B12F2907
:103B200002D000231846704700230122844630B596
:103B300093B0059306AC03938DF81720049300F11E
:103B40002005A646DCF80000DCF80410DCF80820AC
:103B5000DCF80C300CF1100CAC45AEE80F0004F1B1
:103B60001004EED1DCF80820DCF80000DCF80410CA
:103B7000AEE80700BCF80C209CF80E30AEF8002030
:103B80008EF80230FFF72CF858B1084A1268002A64
:103B900007DA019003A8FFF78FF9019B184613B0CD
:103BA00030BD0023184613B030BD00BF3C2E0020AE
:103BB000F0B583B00D46044602F0E4FBC1B211B18A
:103BC000002003B0F0BD0191FFF70AF80028F7D0FC
:103BD0002F4B1B68002BF3DA2E4B2F481B684FF43A
:103BE000C772002B0CBF4FF4CC730023019918440B
:103BF0000CBF012600261F465BF08EFF012D0346F9
:103C00002A463FDD21465BF067FF0346234C03F164
:103C10000D0CA6460CF1100CBEE80F004CF8043C4D
:103C20001F4B10349E454CF8100C4CF80C1C4CF8F3
:103C3000082CEED14FF4CC73174A03FB0623BEE8E1
:103C40000700CCF80000CCF80410CCF808209EF84F
:103C50000220BEF800108CF80E204FF03602ACF8AF
:103C60000C1083F88E214FF00102C3F89051084DDB
:103C700083F894212E60FFF76BF82868801B18BF2B
:103C800001209EE7C2D122780349CA55BEE700BF92
:103C90003C2E0020402E0020BC9D0020F0A00020E3
:103CA00020A100202DE9F0411F4C05462368EFF3C9
:103CB000108672B6D3E8CF1F01220029FAD1C3E8DB
:103CC000412F0029F6D1BFF35F8F58221749666054
:103CD0005BF062FF164B2268D3E900100023C2E8B4
:103CE0008F3F86F310886B7A23B151EA000304D129
:103CF00000236B722846BDE8F0810F46804603F032
:103D000025FD61B14FF47A7200235BF019FFC01BEF
:103D100068EB4803FB2873F10003E9D2EAE7054B9F
:103D2000A3FB00308009F2E7B49D0020442E002060
:103D3000E0350020D34D6210042800D07047002ADF
:103D4000FCD02DE9F0471C46134612789CB0602A3F
:103D500068D010D8162A00F02681332A00F0FC80A3
:103D6000072A05D1994A1546927A002A40F07581B2
:103D70001CB0BDE8F087DD2A00F0B880EF2A00F023
:103D80009280DC2AF4D1924A1278002AF0D0914A2B
:103D90001278002AECD1904A1278002A00F0FE84B2
:103DA0008E4A1068EFF3108172B6D0E8CFCF0124AD
:103DB000BCF1000FF9D1C0E84C4FBCF1000FF4D1B9
:103DC000BFF35F8F86485160047812680020C2E814
:103DD0008F0F81F310881A7C002A40F0E3845A7E0A
:103DE000002A40F01785794CA27A002AC0D11846E3
:103DF000092100930FF008FC00F4F852B2F5A06F0F
:103E0000009BB5D1981C062221460FF041FC009B77
:103E10000C211A7A1846A2710FF0F0FB01232081C1
:103E20006381A5E79C78022C00F05681002C9FD17D
:103E3000002200236B496C480C706549C0E90023DF
:103E40000C70644969480C706949C0E900230C8012
:103E500068490C806849C1E900236849C1E9002329
:103E6000FEF7EAFE594A5D4BC2E9004419689460C6
:103E7000EFF3108272B6D1E8CFCF0120BCF1000F72
:103E8000F9D1C1E84C0FBCF1000FF4D1BFF35F8F43
:103E90005B4918685A60C1F801400C70C0E88F4F48
:103EA00082F3108864E79A78013A0C2A3FF660AFF3
:103EB00001A151F822F000BFEF43001005430010AC
:103EC0006D420010713D0010713D0010713D0010F9
:103ED000713D0010713D0010713D0010713D0010EA
:103EE000FD4100102D460010D94500103B4A1368D3
:103EF000EFF3108172B6D3E8CF4F0120002CFAD136
:103F0000C3E8440F002CF6D1BFF35F8F00233D4C74
:103F10003B48516023701268C370C2E88F3F81F341
:103F200010882B4B1B78002B3FF422AF294B1B78BA
:103F3000002B7FF41DAF254A937A15461BB1D37A27
:103F4000002B00F059840023C5E90033AB601CB09E
:103F5000BDE8F047FFF7E0B9234C062206A9981CFC
:103F60000F460FF095FBD4E90032134340F0A280D6
:103F7000254C2368002B00F0B7830023234903E07E
:103F80002268934280F0B0833846CDE900130FF0E9
:103F90002BFB019B0099013306310028F0D13846F4
:103FA00015F066FFE4E6104C062206A9981C0F46A1
:103FB0000FF06EFBD4E9003213433DD1124C23685D
:103FC000002B00F08C830023104925E0A89D0020E1
:103FD000A3EB0020A4EB0020A0EB0020B49D002068
:103FE000362E00209FEB002010360020F0350020F8
:103FF00066EB002064EB0020E8350020003600204E
:10400000442E0020A1EB002048A1002030A1002078
:104010002268934280F063833846CDE900130FF0A5
:10402000E3FA019B0099013306310028F0D13846AC
:10403000A34915F0D7FE9BE603F088FB002900F0AA
:1040400073834FF47A7200235BF07AFDD4E9001297
:10405000002388429341B1D2E9E706A9D81C062281
:1040600000930FF015FB294606A80FF0BDFA0028B3
:104070007FF47EAE009B9A78AAB9092C13D9944696
:1040800003F10900A4F10901083313F8012F002AF4
:1040900000F013840CF1010C8C45F6D1FEF782FF81
:1040A000002840F053840023C5E90033AB60FFF7DC
:1040B00033F95DE603F04AFB002900F03A834FF440
:1040C0007A7200235BF03CFDD4E9001200238842A1
:1040D0009341FFF464AF4BE700239FED777B01240E
:1040E000784A0090C2E900339360774A77481370AA
:1040F000774A784982ED007B774B784A04702046F6
:1041000082ED007B81ED007B83ED007B15F0D8FB19
:10411000002015F09BFB724815F0A2FD42F20850FA
:1041200015F06AFA052015F075FA002015F0D4FE96
:10413000032011F00FFD002011F014FD694AD2F8A0
:1041400000C0EFF3108072B6DCE8CF3F5FF0010EE5
:10415000002BF9D1CCE843EF002BF5D1BFF35F8FF3
:10416000D2F800C0506000995F4A0023C2F80140B5
:104170001170CCE88F3F80F310885C4A5C4CC2E938
:104180000033C2E90233C2E904335A4A03A8236068
:104190001360039310F042FE002800F0AD8200236C
:1041A000CDE9073306930493ADF80A30ADF8143027
:1041B000099306AF2368032B00F29B823A460DF168
:1041C0000A0304A903A810F035FE002800F091822C
:1041D00023687BB10023454904A8CDE900130FF003
:1041E00003FA019B0099013306310028E2D02268CE
:1041F0009342F1D304A8FEF76DFDDBE75B79002B5A
:104200003FF4B6AD3C4A118800293FF4B1AD4FF000
:10421000010C3A4C334884F800C00168EFF3108475
:1042200072B6D1E8CFEF5FF0010CBEF1000FF8D10C
:10423000C1E84ECFBEF1000FF3D1BFF35F8F4FF057
:10424000050C2949446081F849300B6D0068013341
:104250000B6581F848C00023C0E88F3F84F31088C5
:1042600010881CB0BDE8F0471BF0BAB9184603210E
:104270000FF0C4F9224B1A88824200F0D6821E4BFE
:104280001B8813B198427FF473AD06A8FFF70AFDAF
:104290001A4B9A461B784BB99DF81C30002B40F006
:1042A0005B839DF81830012B00F056831CB0BDE8ED
:1042B000F047FFF7D5B900BF000000000000000084
:1042C000A0FF0510A89D0020A3EB00209FEB00207D
:1042D000F035002010360020E835002000360020A0
:1042E00068FF0510B49D0020442E002030A100205E
:1042F00048A10020ECA0002066EB0020A6EB0020E7
:1043000064EB00205D79002D40F0188203211846EF
:1043100000930FF073F9044606228049009B0C803D
:104320007F4C981806A90695ADF81C500FF0B0F90F
:10433000236806AF002B00F08D822B46794903E0FD
:104340002268934280F086823846CDE900130FF050
:104350004BF9019B0099013306310028F0D1002070
:104360000021714BC3E9000103F0F0F9002900F0CE
:104370009E824FF47A7200235BF0E2FB84460023B6
:1043800042F21070694A6A496A4D6B4C13701CEB1B
:10439000000243EB03000A604860A84629682360D6
:1043A000EFF3108272B6D1E8CF4F0120002CFAD182
:1043B000C1E8440F002CF6D1BFF35F8F5F49604C1A
:1043C0000E460B71D4E9001001436A6040F081820F
:1043D0000021B3700123D8F80000A6F8051033704F
:1043E000C0E88F1F82F31088FEF726FCC0E403218B
:1043F000184600930FF002F9009B8146597B002973
:104400007FF4B6AC4E4C0622581D0691ADF81C1038
:1044100006A90FF03DF9D4E90032134306AF40F08E
:10442000BD823F4C2368002B00F0D98200233D4918
:1044300003E02268934280F0D2823846CDE900132F
:104440000FF0D2F8019B0099013306310028F0D11A
:104450003C490B78002B40F0B88236480546804630
:104460000368EFF3108272B6D3E8CFCF0120BCF11E
:10447000000FF9D1C3E84C0FBCF1000FF4D1BFF32A
:104480005F8F00232D4E0B706A602968F370C1E8BE
:104490008F3F82F310882C4A924613702A68EFF3FC
:1044A000108172B6D2E8CFCF0120BCF1000FF9D154
:1044B000C2E84C0FBCF1000FF4D1BFF35F8FF26C78
:1044C00069600132F2642A68C2E88F3F81F3108884
:1044D0000121124A2868A2F80090144A1170EFF3E3
:1044E000108272B6D0E8CFEF5FF0010CBEF1000F82
:1044F000F8D1C0E84ECFBEF1000FF3D1BFF35F8F0C
:1045000031716A602968C1E88F3F82F310882268A0
:10451000002A00F0DA8103491CE000BF66EB0020AE
:1045200048A1002030A10020E8350020A4EB0020A5
:10453000F0350020B49D0020ECA00020442E002087
:1045400010360020A1EB0020A6EB00202268934249
:1045500080F0BB813846CDE900130FF045F8019B90
:104560000099013306310028F0D1012148461AF0A4
:1045700055FF002840F0C28103F0E8F84FF47A724A
:10458000002900F0298200235BF0DAFA034642F2A8
:1045900010710022A7485B18036042EB0203D8F8B1
:1045A00000104360EFF3108372B6D1E8CF4F0120C3
:1045B000002CFAD1C1E8440F002CF6D1BFF35F8F75
:1045C0000120D8F80010C8F804303070C1E88F2FEF
:1045D00083F31088FFF7CCBB5A79002A40F03E8164
:1045E000DFF85882944ED8F80010EFF3108272B6BC
:1045F000D1E8CF4F0120002CFAD1C1E8440F002CA4
:10460000F6D1BFF35F8FC8F804205B790021B3FABD
:1046100083F35B09D8F800007371C0E88F1F82F341
:1046200010881CB0BDE8F047FEF792BB0521184684
:1046300000930EF0E3FF00283FF49AAB009BDA7979
:10464000A12A00F03D81312A7FF492AB0246D91DA8
:1046500006A801F08BFD794880460368EFF31084CB
:1046600072B62546D3E8CF1F01220029FAD1C3E84C
:10467000412F0029F6D1BFF35F8F069B4460002BCA
:1046800040F09E810123032200200021DFF8A8E1F1
:104690000DF11C0C8EF806308EF80830654B0EF1CB
:1046A0001004C3E900018EF80020BCE80F000FC41D
:1046B000BCE80F000FC49CE80F0007C424F8023BBD
:1046C0001B0C2370DEF840300133CEF8403000235D
:1046D000D8F80020C2E88F3F85F31088A1E738465C
:1046E00015F0ACFBFFF744BB384615F0DBFBFFF7DA
:1046F0003FBB03A810F0B2FB2368002B42D000237D
:104700004F4A136003F022F8002942D04FF47A7226
:1047100000235BF015FA00234A4AFA3043F1000304
:1047200010605360FFF724BB474BA3FB00308009A8
:104730008CE4454BA3FB00308009C5E401204349CC
:104740003E4A08701368EFF3108172B6D3E8CF4F7A
:104750000120002CFAD1C3E8440F002CF6D1BFF39E
:104760005F8F0424344B106851601A6D83F84950F0
:1047700001321A6583F848400022C0E88F2F81F388
:10478000108893E5002200232E49C1E90023FFF79A
:10479000EFBA2D4BA3FB00308009BCE72C4A1478FC
:1047A000FFF719BB1846132100930EF027FF1521C0
:1047B000054600980EF022FF40F24C529542009BB5
:1047C0007FF40DAB002C00F01281012C00F0198158
:1047D00040F6E642904204D040F6F25290427FF416
:1047E00002AB06A9981C06220EF052FF002106A873
:1047F000FEF73EFEFFF7BCBA012312892846A979CD
:1048000042F40042EB7215F0CBFA00283FF4B0AA54
:10481000FFF799BB997E03F11B000093FEF7C2FBE3
:10482000009B0028DDD1FFF7DEBA00221A80FFF7D7
:104830009FBA00BFF0350020442E0020B49D002018
:10484000ECA00020E8350020D34D6210A6EB00203C
:10485000362E00203846FEF73DFA80E501246E4DE5
:104860006E49A84628680C70EFF3108172B6D0E844
:10487000CFCF0124BCF1000FF9D1C0E84C4FBCF1FF
:10488000000FF4D1BFF35F8F6548696080F849205D
:10489000026D04460132026506460620002284F8B5
:1048A00048002868C0E88F2F81F310889BE65D4B95
:1048B000A3FB00324FEA921C61E56146FFF7EEBBB5
:1048C00001283FF455AA1A7ABDE63846FEF702FAE7
:1048D0004BE602F03BFF4FF47A72002979D00023B7
:1048E0005BF02EF903460021226893426368D8F8F2
:1048F0000420994134BF0123002369E50122D8F83F
:1049000000308AF80020EFF3108272B6D3E8CF4F60
:104910000121002CFAD1C3E8441F002CF6D1BFF3CB
:104920005F8F0324336DD8F8001001333365C8F866
:104930000420002386F8490086F84840C1E88F3FEC
:1049400082F31088FEF78CFEFFF712BA002136487A
:10495000FEF78EFDFFF70CBA01222F498AF80020DE
:104960000B68EFF3108072B6D3E8CF4F0122002C12
:10497000FAD1C3E8442F002CF6D1BFF35F8F08248F
:10498000274B48601A6D096801321A65A3F8484040
:104990000022C1E88F2F80F3108887E402F0D6FE52
:1049A0004FF47A7201B300235BF0CAF80346D4E9EE
:1049B0000001002283428A41BFF433AD1B4C47E51E
:1049C000174A536C0133536481E615F0ABF918496B
:1049D00043E5B0FBF2F386E7B0FBF2F3D7E54846D8
:1049E0001AF042FDFFF7C4B9B0FBF2F3DFE740F67F
:1049F000E642811A4842484100287FF4F2AEFFF7B0
:104A0000F2B940F6F252821A5042504100287FF427
:104A1000E8AEFFF7E8B900BFB49D0020A6EB002088
:104A2000442E0020D34D6210A89D002048A10020F4
:104A3000A1EB002030B5564B97B01C7814B1554B04
:104A40001C7814B9204617B030BD02F07FFE002953
:104A500064D1514BA3FB0030830900224F49DFF89A
:104A600064C15B18CCF800304D4B4FF00100C3E936
:104A700001221A6042F100020023CCF80420002237
:104A8000484D49492870494DC1E90023C5E9002333
:104A900014F016FF012014F0D9FE6846FFF702F962
:104AA0004349088840B19DF800C0BCF1030F03D012
:104AB0009DF80650002D38D03E4B3F4AD3F800C039
:104AC000EFF3108072B6DCE8CF5F5FF0010E002DCF
:104AD000F9D1CCE845EF002DF5D1BFF35F8F4FF052
:104AE000010C82F802C092F800C05860BCF1030FBC
:104AF00018BF4FF0020C1B6818BF82F800C00022DC
:104B0000C3E88F2F80F310880B88002B9AD12B4B92
:104B10001B78002B96D1FEF7FFFB93E700234FF4A1
:104B20007A725BF00DF8034697E7DFF89CC0ACF8AB
:104B300000001AF055FD0022002320481C49057092
:104B40001F480D80C0E90023FEF776F8194B1A685C
:104B5000EFF3108072B6D2E8CFEF5FF0010CBEF138
:104B6000000FF8D1C2E84ECFBEF1000FF3D1BFF372
:104B70005F8F4FF0020C104A19685860958095714C
:104B800082F800C0C1E88F5F80F31088084995E77C
:104B9000A0EB00209FEB0020D34D6210E0930400B7
:104BA000A89D0020A3EB002000360020E83500205F
:104BB00066EB0020B49D0020442E0020A4EB0020D2
:104BC000F03500201036002064EB002000000000CB
:104BD000814B1B78002B00F0DC8070B57F4C96B0C9
:104BE000D4E90032134300F0BC8002F0AFFD00298D
:104BF00000F0B3814FF47A7200235AF0A1FFD4E998
:104C000000120023884273EB0202C0F0C9809FEDBE
:104C1000707B734A73497448C2E900330370936030
:104C20000B7884ED007B002B40F0AC816F4C236847
:104C3000EFF3108272B6D3E8CF5F0120002DFAD1D6
:104C4000C3E8450F002DF6D1BFF35F8F0025684BF9
:104C5000206862600D70DD70C0E88F5F82F310889D
:104C6000284614F0F3FD2168EFF3108272B6D1E804
:104C7000CFCF0120BCF1000FF9D1C1E84C0FBCF13E
:104C8000000FF4D1BFF35F8F594B626019789D70AC
:104C9000022901D10421197000232168C1E88F3F46
:104CA00082F31088534CD4E90032134364D002F0ED
:104CB0004DFD00296ED1504BA3FB0030800900232D
:104CC000D4E900128842934156D36846FEF7EAFFC2
:104CD0009DF80630002B40F04A81484A118800298F
:104CE0004AD0002000214FF0010CC4E90001444DDE
:104CF0003E4885F800C00168EFF3108472B6D1E831
:104D0000CFCF0125BCF1000FF9D1C1E84C5FBCF158
:104D1000000FF4D1BFF35F8F05684460072034496A
:104D2000A1F84800086D01300865C5E88F3F84F39D
:104D3000108810881AF054FC1EE0324B1B78002BB0
:104D400040D002F003FD002900F0A8804FF47A72F1
:104D500000235AF0F5FED4E9001200238842934163
:104D600005D3294CD4E90032134340F09C80214CF8
:104D7000D4E9003213439AD1244C237823B1244D33
:104D8000D5E90032134345D116B0BDE87040FDF7B8
:104D9000DFBF70474FF47A7200235AF0D1FE8EE7DE
:104DA00002F0D4FC002974D04FF47A7200235AF038
:104DB000C7FED4E90021002390428B41BDD30A43B2
:104DC000CFD0BEE7FEF7A8FAD1E700BFAFF300806F
:104DD0000000000000000000A0EB002010360020C2
:104DE000A89D0020A1EB0020A3EB0020B49D002093
:104DF000442E0020F0350020D34D621066EB0020D9
:104E0000A6EB0020A4EB0020E8350020A5EB002055
:104E1000F835002002F09AFC002900F0A3804FF43E
:104E20007A7200235AF08CFED5E9002390424FF0AD
:104E3000000272EB0303A7D33A2200210DF1010017
:104E40005AF06AFE01225E4B8DF800201968EFF3DC
:104E5000108272B6D1E8CFCF0120BCF1000FF9D19A
:104E6000C1E84C0FBCF1000FF4D1BFF35F8F55497F
:104E70005A6009881B6831B15349487918B10978DB
:104E8000032900F083800021C3E88F1F82F310887C
:104E90007AE74E4BA3FB003080098AE74B4BA3FB1C
:104EA0000030800957E702F051FC002964D1474BDC
:104EB000A3FB003080090023D4E90012884293410B
:104EC000FFF455AF424B1B78002B7FF450AF3D4BA6
:104ED0001B88002B7FF44BAF002000213D4BC4E921
:104EE00000011B78002B3FF442AF3B4B1B78002B9B
:104EF0007FF43DAF394D3A4B2A681B68934218D274
:104F0000384803EB430200EB420150F81200344EE4
:104F10008A880090013301216846ADF8042033608F
:104F2000FEF7A6FA00287FF422AF33682A6893427E
:104F3000E6D302F00BFC00293DD000234FF47A7237
:104F40005AF0FEFD0346002213F5FA63236042F196
:104F500000036360224B1A6009E71C4BA3FB00307F
:104F600080094CE6194BA3FB003080095CE7002266
:104F70000023C4E90023FFE64FF47A7200235AF0BD
:104F8000DFFD98E714F0CEFE17494FE60021C3E895
:104F90008F1F82F31088154B1B688B42BFF6F4AE4F
:104FA0006846FDF789FF002200234FF00001C5E9A4
:104FB00000232170E8E64FF47A72B0FBF2F3C2E707
:104FC000B49D002066EB0020442E0020D34D6210DB
:104FD000A4EB00209FEB0020A3EB002048A10020C1
:104FE000ECA0002030A10020A1EB00203C2E0020EE
:104FF000D0E90010884239D04FF0FF3300B51C4A89
:105000001944184411F801EF8EEA030E4EF3000321
:105010004EF3400C134083EA5E030CEA020C8CEA68
:10502000530C43F340034CF3400E134083EA5C03FC
:105030000EEA020E8EEA530E43F340034EF3400C89
:10504000134083EA5E030CEA020C8CEA530C43F330
:10505000400313404CF3400E83EA5C0381420EEAA6
:10506000020C8CEA5303CDD1D84300BD0020704719
:105070002083B8ED2DE9F043D1E90232D61A302E63
:10508000054683B007DD0023C0E90033836028466E
:1050900003B0BDE8F08340200F46019304F06EFC9E
:1050A0003E220446002102305AF036FD44F64D42BD
:1050B00022803A68019BC4F802203A79E671A27115
:1050C000002E46D0721E052A40F2A780C3F10802C6
:1050D0002244022A40F2A1801A68C4F80920B208CA
:1050E000012A00F0A5805968022AC4F80D1000F0CA
:1050F00082809968032AC4F811107CD0D968042AE8
:10510000C4F8151077D01969052AC4F8191072D09F
:105110005969062AC4F81D106DD09969072AC4F888
:10512000211068D0D969082AC4F8251063D0196AFB
:10513000092AC4F829105ED0596A0A2AC4F82D1029
:1051400059D0996A0C2AC4F8311054D1DB6AC4F8DA
:10515000353006F10907384604F010FC21460646B2
:105160003A4681465AF018FD4FF0FF3306EB070C24
:1051700032499C44F01810F8016F5E4046F3000E6F
:105180000EEA010E46F340038EEA560E0B4083EA08
:105190005E034EF3400E0EEA010E8EEA530E43F309
:1051A00040030B4083EA5E034EF3400E0EEA010E0D
:1051B0008EEA530E43F340030B4083EA5E034EF343
:1051C000400E0EEA010E8EEA530E43F340030B40ED
:1051D000604583EA5E03CED1DB434846E35139465E
:1051E00004F0D0FB284604F14003C5E901332C60EC
:1051F00003B0BDE8F083B10726F00302A9D0985CA4
:10520000A1184872501C8642A3D9185C02329642FB
:1052100088729ED99B5CCB729BE7013B04F108022C
:10522000F01813F8011F834202F8011FF9D190E72B
:105230001A79052062730422A118E6E72083B8EDED
:105240000346002201202DE9F04182B0C3E901228A
:10525000C3E903221A605A611871D1E90042121B96
:105260003F2A187204DC1860184602B0BDE8F081CD
:10527000402A05D0052218461A6002B0BDE8F08128
:1052800022784D2A05D0022218461A6002B0BDE8E5
:10529000F08162784C2AF6D1A278012A02D003224A
:1052A0001A60E1E7B4F80720302A174602D9042231
:1052B0001A60D9E7A118887A4A7A009342EA002254
:1052C000C87A097B42EA004207F1090042EA016814
:1052D00004F054FB07F10902064621465AF05CFC33
:1052E0004FF0FF3207F1090306EB030E3248009B33
:1052F000964406EB020C1CF8011F514041F30002DA
:10530000024082EA510241F34001014081EA520128
:1053100042F34002024082EA510241F3400101405F
:1053200081EA520142F34002024082EA510241F313
:105330004001014081EA520142F34002024082EA08
:10534000510241F340010140F44581EA5202D2D1B9
:10535000304607F10901CDE9002304F013FB009A60
:10536000019BD243904502D006221A607CE704F1EB
:105370000C0139440A4611F8010F00287FF47AAF76
:105380003E3AA242F6D1E2785A71A288DA80A27936
:105390001A72002F3FF468AF3846009304F0EEFA1B
:1053A00006463A4604F109015AF0F6FB009BF21951
:1053B000C3E903625A6157E72083B8ED10B504468C
:1053C000A446DFF818E0BEE80F00ACE80F009EE846
:1053D00007008CE80700204610BD00BF38490610C2
:1053E00070B50B780446012B3ED1D1ED017A9FEDCB
:1053F000C07AF0EEE76AF4EE476AF1EE10FA0DD8E3
:10540000B7EE007AF4EEC77AF1EE10FA06D4B0EEF9
:10541000007AF4EEC77AF1EE10FA2FDD0022212097
:10542000227004F0ABFA20238646DFF8D8C20022AF
:105430008EF82020C4E90233BCE80F00C4F804E071
:10544000CEF80000CEF80410CEF80820CEF80C30CC
:10545000BCE80F00CEF81000CEF81410CEF81820DB
:10546000CEF81C30204670BD00222120227004F0AE
:1054700085FA20238646DFF890C2D8E791F90830F4
:10548000002B26DB91F90930002B22DB8B7A072BCE
:105490003ED8CB7A3C2B5CD80B7B022B7ED84B7B47
:1054A000103B6F2B00F2A1808B7B022B00F2C5809A
:1054B0004B7D0A2B00F2E6800B7E012B00F20D8162
:1054C00003460121002203F80C1BC0E901320273DC
:1054D000C8E700221920227004F050FA18238646EB
:1054E0000022DFF828C20276C4E902336060BCE81B
:1054F0000F00CEF80000CEF80410CEF80820BCE86B
:105500000300CEF80C30CEF81000CEF81410A9E746
:1055100000221D20227004F031FA1C23864600224E
:10552000DFF8ECC10277C4E902336060BCE80F0029
:10553000CEF80000CEF80410CEF80820CEF80C30DB
:10554000BCE80700CEF81000CEF81410CEF81820F2
:1055500088E700232220237004F010FA2123064656
:105560008646644D6060E360AC460EF1100EBCE808
:105570000F004EF8043C604B10359C454EF8100C63
:105580004EF80C1C4EF8082CEED12B7821228EF808
:1055900000300023A26086F8213063E700221C203F
:1055A000227004F0EBF91B2386460022DFF864C169
:1055B000C276C4E902336060BCE80F00CEF8000098
:1055C000CEF80410CEF80C30BCE80300BCF8003074
:1055D000CEF80820AEF818309CF80230CEF8100053
:1055E000CEF814108EF81A303CE7002327202370E1
:1055F00004F0C4F9262306468646404D6060E36009
:10560000AC460EF1100EBCE80F004EF8043C3C4BCB
:1056100010359C454EF8100C4EF80C1C4EF8082C1A
:10562000EED1AB882622AEF8043000232868CEF8ED
:105630000000A26086F8263014E700221F202270A6
:1056400004F09CF91E2386460022DFF8CCC0827746
:10565000C4E902336060BCE80F00CEF80000CEF869
:105660000410CEF80820CEF80C30BCE80700BCF8D7
:105670000030CEF81000CEF81410CEF81820AEF896
:105680001C30EFE600222020227004F077F91F235F
:105690008646DFF888C000228EF81F20C4E9023356
:1056A000BCE80F00C4F804E0CEF80000CEF8041007
:1056B000CEF80820CEF80C30BCE80700BCF800306B
:1056C000CEF81000AEF81C309CF80230CEF8141062
:1056D000CEF818208EF81E30C4E60022202022705A
:1056E00004F04CF91F238646DFF834C0D3E700BF2F
:1056F000FFFF7F7F2C0006104C0006106C00061088
:105700008C000610CCFF0510A8FF0510F0FF051057
:105710000C0006105000061094000610B40006108D
:10572000D40006109FED247AD1ED017A67EE877AD6
:105730000023FCFEE77A91F810C04A7C4FEA4C0C3B
:105740004CEA820CCA7B00B542EA0C0291F800C018
:10575000C0F80B30C0F80F30C0F81330C3756CF3CD
:10576000070391F812C091F816E042EACC0291F8D2
:1057700013C042EA0C1291F814C042EA4C1242EAF9
:105780008E128272D1F8092091F808C04260B1F8F7
:105790000D2002814A7D0273CA7D42730A7E8273A4
:1057A00017EE902A62F30F23C2F3072262F3174326
:1057B0006CF31F63036000BD0000C8422DE9F04197
:1057C000D1E900E3A3EB0E030E2B074688B026DCDD
:1057D000002323203B7004F0D1F8222384460546A1
:1057E0004D4E786006F1200EFB60344610350FCC2C
:1057F000744506F1100645F8100C45F80C1C45F8E8
:10580000082C45F8043CF0D1338822222B803846FE
:105810000023BA608CF8223008B0BDE8F08101ADF9
:1058200094462C463D4EDFED3E6A0FCE0FC596E8FE
:10583000070085E807000FCCCCF80000CCF8041076
:10584000CCF80C3003CC2378CCF80820CCF810002E
:10585000CCF814108CF818309EF800304FF0000887
:105860008CF80030BEF80130384607EE903AF8EE7A
:10587000E77A87EEA67A8CED017A9EF803306146CE
:105880008CF808309EF804308CF809309EF805300A
:105890008CF80A309EF806308CF80B309EF80730F2
:1058A0008CF80C309EF808308CF80D309EF80930DA
:1058B0008CF80E30BEF80A3003F0010262F30708DC
:1058C000C3F3400262F30F28C3F3800262F3174868
:1058D000C3F3C00262F31F68C3F300128CF81320F5
:1058E000C3F34012C3F38013CCF80F808CF814205C
:1058F0008CF816309EF80C308CF815309EF80D3070
:105900008CF817309EF80E308CF81830FFF768FDD1
:10591000384608B0BDE8F081F4000610384906109A
:105920000000C842F0B5D0E90034A4EB030CBCF190
:105930003F0F91B068DD93F800C0BCF14D0F63D10B
:1059400093F801C0BCF14C0F5ED193F802C0BCF1DA
:10595000430F59D193F803C0BCF1460F54D104460C
:105960000646202015460F46019304F007F8CDE9BE
:105970000200019B00F120020492D3F800E0D3F86A
:1059800004C099680392DA68C0F800E0C0F804C067
:105990008160C2609969DA69D3F810E0D3F814C065
:1059A000C0F810E0C0F814C08161C26193F82220F1
:1059B00093F82110120442EA012293F8201093F880
:1059C00023300A4342EA036302A80193FFF710FB66
:1059D000019B83420BD00023029828B104990193C4
:1059E000091A03F0CFFF019B184611B0F0BD2168E2
:1059F00001F1230301F13F0201E0934208D013F8C3
:105A0000010F0028F9D0E6E70023184611B0F0BDD9
:105A10001820019103F0B2FF019900F1180ECDF8A2
:105A200020E00690D1F808C0CB680C69CDF81CE0E6
:105A3000D1F814E0C0F800C043608460C0F80CE006
:105A4000CB69D1F818C02A464361C0F810C006A936
:105A500009A8FFF7B3FE9DF824305BB131684A799D
:105A60008879120242EA00420879C979024342EA7F
:105A700001623A600A980CAA904205D00C990193F1
:105A8000013103F07FFF019B06980028A4D00899FC
:105A90000193091A03F076FF019B9DE710B50446B8
:105AA00040F8041BFFF78AFC04F12000FFF786FC96
:105AB0000023C4E91033204684F83C3010BD00BFF9
:105AC0002DE9F04300250446006899B00368CDE94C
:105AD00004559B6804A90695984720B1DDE9042385
