:020000041000EA
:10000000002008205B0100101B0100101D010010E2
:100010001101001011010010110100101101001058
:100020001901001019010010190100101F01001022
:10003000110100101901001021010010230100100E
:100040001101001011010010110100101101001028
:100050001101001011010010110100101101001018
:100060001101001011010010110100101101001008
:1000700011010010110100101101001011010010F8
:1000800011010010110100101101001011010010E8
:1000900011010010110100101101001011010010D8
:1000A00011010010110100101101001011010010C8
:1000B00011010010110100101101001011010010B8
:1000C00011010010110100101101001011010010A8
:1000D0001101001011010010110100101101001098
:1000E0001101001011010010110100101101001088
:1000F0001101001011010010110100101101001078
:100100001101001011010010110100101101001067
:10011000EFF30580103800BE00BE00BE00BE00BE7A
:1001200000BE00BEF2EB8871309C0A10509C0A1091
:100130009C01001090A31AE7D3DEFFFF42012110BB
:10014000FF01000080CE0A00793512AB00201E4965
:10015000086006C881F3088810474FF050400068D7
:1001600008B10020F3E70DA40ECC002902D000F066
:1001700012F8F9E71549164A002000E001C1914242
:10018000FCD114498847144988471449884700BE60
:10019000FDE701C901C29A42FBD37047509C0A1087
:1001A0002001002088340020B8CF0A100000082069
:1001B00000000820B8CF0A10001008200010082006
:1001C000000000007047000008ED00E088340020C7
:1001D0003CE10020C9C70010FD160010C1C7001087
:1001E000704700BF00B5042183B001900AF006FFFC
:1001F000019803B000BD00BF10B504464FF4805114
:10020000006860F0C5F8D4E90001BDE810404FF483
:10021000807260F021B900BF70B50D460646C2B0CD
:1002200002AC4FF48072FF21204660F0E1F8D5E97E
:1002300000122046521A60F0C7F806F2FB331B0387
:100240004FF47A72694605480093019408F046FF1E
:10025000B0FA80F0400942B070BD00BFF901001053
:100260000129084604D8D2E900135B1A402B01D0BB
:10027000002070471146FFF7CFBF00BF10B51948E7
:10028000194C02F0C5F9174803F0CCF8A07C01F036
:1002900039FD207D01F042FD144A237F1178003B97
:1002A00018BF0123FF29E07E05D0884216D04FF009
:1002B000000444EC44100E4CFF28107023700CD046
:1002C00007F0EEFC094A4FF00101137841EC44308D
:1002D000FF2B02D0227842EC403010BD044C10704D
:1002E0002370EDE7403A00203C3A0020B02C00207B
:1002F000FFE0002070B58AB00C4642F00102ADF874
:100300001600D3E9001000238DF815200122CDE955
:1003100006331F4D8DF818401E4C8DF81420421ADC
:10032000CDE908339DF8386023702B7021D105A9E1
:1003300002A8089205F0DCFE02A90EC9521A402A52
:1003400008D089B9079818B10999091A0AF056FE18
:100350000AB070BD1048CDE9001360F005F8DDE982
:10036000001301222E7022700846591A0AF046FE28
:10037000E8E71046019100920AF03CFEDDE9002119
:1003800060F022F8009A079002440992CFE700BF7C
:1003900001E10020F9E00020B83700200000000053
:1003A0002DE9F041804686B0104616460F465FF0B4
:1003B000F1FA0446E8B1302828BF302420460AF07C
:1003C00019FE3146224606190546029004965FF052
:1003D000FBFF0023394640460093022202AB0396FE
:1003E000FFF788FF2146284606B0BDE8F0410AF035
:1003F00005BE9FED077B394640460222009402ABC2
:100400008DED027B0494FFF775FF06B0BDE8F08127
:1004100000000000000000002DE9F04FD1E900537A
:100420008B46DBF808909D42A9EB050383B018BF0B
:100430004D603F2BDFF8448174D8DBF80060AC1BC3
:1004400004F1004340333F2B40F29080402C2CBFFE
:10045000271904F140076FF000439F4228BF1F4651
:1004600038460AF0C7FDAE4282467DD0621E052A9C
:1004700033466FD9811B0139022902466AD924F01B
:10048000030C4FEA940E06EB0C0053F8041B834256
:1004900042F8041BF9D1644510D01A4612F8011B2A
:1004A000D44495420AF82E1008D05A788CF80120CE
:1004B0009A1C95421CBF9B788CF80230544423460A
:1004C000C6469C4608F14004019375460CF1100C99
:1004D0000FCDA5420EF1100E4CF8100C4CF80C1C70
:1004E0004CF8082C4CF8043CEFD1019B03F140057B
:1004F00026B13046A9EB06010AF080FDCBE900A544
:100500005744CBF808701B4B984503D1012003B02A
:10051000BDE8F08FDBF80890DFF85880A9EB050301
:100520003F2B8AD9464608F14007344610350FCC98
:10053000BC4206F1100645F8100C45F80C1C45F8B5
:10054000082C45F8043CF0D1DBF804504035CBF8DA
:100550000450D8E753465444721E12F8011F03F8A2
:10056000011B9C42F9D1AAE70346A9E7024855F0CE
:1005700005FB00BF00C03F10B804061000B03F10DC
:100580002DE9F0470446B8B040200AF033FD234679
:10059000024600F1400425460994079003F1400407
:1005A0001968D3F804E0D3F808C0D8681033A34220
:1005B0001160C2F804E0C2F808C0D06002F1100275
:1005C000EED107A90DA8089505F078FE0D9BBDF8A2
:1005D0003A409DF83C10BBB94B1E112B00F26C87C2
:1005E000DFE813F03000480063008C001401BE0106
:1005F000FF01200225031603D8039B03AC037D03F0
:100600008C03B703E90425002046744AFFF7C8FEAF
:10061000109818B11299091A0AF0F0FC079818B14D
:100620000999091A0AF0EAFC38B0BDE8F087DDE95B
:1006300010239A4200F04D8512212046684AFFF7A8
:10064000AFFEE5E704200AF0D5FC00220546654B25
:1006500005F1040C18680121286022AB20460092A5
:10066000CDE923CC2295FFF745FE042128460AF068
:10067000C5FCCDE70C200AF0BDFC5B4B054607CB63
:10068000002328606960AA6020461A4605F10C0C18
:100690000093022122ABCDE923CC2295FFF72AFE5D
:1006A0000C2128460AF0AAFCB2E7504922A806F01D
:1006B000A3F818200AF09EFC4FF0000E05460DF13D
:1006C000880C00F11803CDE91B331A90BCE80F0029
:1006D00028606960AA60BCE80300EB60286169617A
:1006E00020469DF83C107246CDF800E01AABFFF7AB
:1006F00001FE182128460AF081FC89E7DFF808E1AD
:100700000DF14C0CBEE80F00ACE80F009EE80700AE
:100710008CE8070013AA10A91AA806F0B9F89DF8EA
:100720006830002B00F0CC85314913AA22A806F0CE
:10073000A1FB9DF88830002B00F068862D4D2E4ED1
:100740002B68029308F018FB029B4FF47A7203EBBC
:1007500043031F0106EB0313029300235FF01CFE0B
:1007600014227B1DF0519819029E0021327128221B
:100770005FF03EFE214932795FF026FE20480022DC
:100780000168204B01310C2928BF0C210160296828
:1007900020460131A3FB0143DB0803EB4303A1EB3C
:1007A000830100920AAB29609DF83C10CDE90A2232
:1007B0000C92FFF79FFD239825AB984203D0259913
:1007C00001310AF01BFC1B981DAB98423FF420AF8F
:1007D0001D9901310AF012FC1AE700BFD00406107F
:1007E000B4060610585106104C510610403A00202D
:1007F0003C3A0020B4370020FC370020E00406100B
:10080000F8370020ABAAAAAA74510610DFF810E24C
:100810000DF1880CBEE80F00ACE80F009EE8070061
:100820008CE80700AEF1140006F048FB002800F049
:100830005B85FFF723FD01216F4D704A2B68117016
:10084000029308F099FA029B6D4E03EB43031F01DC
:1008500006EB03134FF47A72029300235FF09CFDC2
:1008600017227B1DF0519819029E00213271282217
:100870005FF0BEFD634932795FF0A6FD6249634BCC
:100880000A6801320C2A28BF0C220A602A68013249
:10089000A3FB0213DB089DF8961003EB4303A2EBC6
:1008A00083035B4A0129927C2B6000F0AA85012A10
:1008B00006D0574A9DF89810127D914200F0F085BD
:1008C000029308F059FA029B4D4D03EB430305EBED
:1008D00003171E014FF47A7200235FF05DFD28229A
:1008E000731DA851002158193A715FF081FD4949E3
:1008F0003A795FF069FD4FF0010C43483E4D0168C5
:100900002A6861440C2928BF0C21404B62440160D5
:10091000A3FB0213DB0803EB4303A2EB83022A6071
:1009200001239DF83C10022002918DF84DC08DF8F6
:100930004C300AF05FFB0022054600F1020C204615
:10094000BDF84C4002992C801AAB0092CDE91BCC2B
:100950001A95FFF7CFFC022128460AF04FFB57E615
:10096000254D2B4806F0BEFB2B68254E029308F060
:1009700003FA029B4FF47A7203EB43031F0106EB69
:100980000313029300235FF007FD1A227B1DF05131
:100990009819029E0021327128225FF029FD3279D8
:1009A0001D495FF011FD184800220168174B013105
:1009B0000C2928BF0C210160296820460131A3FBC6
:1009C0000143DB0803EB4303A1EB8301009222AB5D
:1009D00029609DF83C10CDE922222492FFF78AFC81
:1009E00016E6DDE910239A4200F033830721204602
:1009F0000A4AFFF7D5FC0BE6B4370020FBE00020E5
:100A0000FC37002014050610F8370020ABAAAAAA6C
:100A10003C3A00202C050610600506100807061059
:100A2000403A002022A803F041F81AA801F05EFE27
:100A3000D14B1D780CF030FD9DF888209DF88C106E
:100A4000A2F10302B2FA82F29DF88B300291BDF856
:100A50008D10804652090A209DF889609DF88A70A1
:100A60000592039304910AF0C5FA039A0346427172
:100A7000059A0299C271042281710499457080F827
:100A80000280C670077119811A701420329D02937A
:100A90000AF0B0FA0246029B857218680A211060BB
:100AA00058680292506018892646108118460AF04C
:100AB000A5FA029A9DF868102B0A91749DF891107E
:100AC000D372D174339B290C1173290E5173190AF7
:100AD0009373D173190C1B0E1174537428201C9D31
:100AE0000AF088FA0346029A057510681421186006
:100AF00050680293586090689860D068D860106918
:100B0000186110460AF07AFA0022029B9DF8D0C0C4
:100B10009A7783F81CC09DF8D1C0DA7783F81DC09E
:100B20001D9A4FEA154C290A83F816C04FEA156C36
:100B3000597583F817C035994FEA122C1A7683F845
:100B400019C04FEA124C120EDDF8D8E0DA760A0A24
:100B500083F821200A0C83F822204FEA1E2283F812
:100B600025204FEA1E4283F8201083F82620090E24
:100B70004FEA1E6283F8231083F8272083F824E0CD
:100B800083F81AC05020379D0AF034FA029B0146C0
:100B900007461A46984680F8285003F12004136847
:100BA0005068D2F808E0D2F80CC01032A2420B60B4
:100BB0004860C1F808E0C1F80CC001F11001EED1A5
:100BC000D2F800C053684046C1F800C04B602821ED
:100BD0000AF014FA082100222C0C87F82A402C0E67
:100BE00025FA01F387F82B4007F1300487F8293004
:100BF0003046FA62239422AB009207F15004229708
:100C00002494FFF777FB502138460AF0F7F9FFE408
:100C1000DDE910239B1A042B03D11378522B00F02B
:100C200087830A212046554AFFF7BAFBF0E4DDE945
:100C30001032D11A012900F35F839A420CBF0023BE
:100C40001B7803201E4602930AF0D4F94FF00005EA
:100C5000024601214A48029B006853708642117087
:100C60009570C0F0A582062002920AF0C3F90346EF
:100C7000029A03211088DD70188090780293987092
:100C800010460AF0BBF94FF00002029B0C209A803C
:100C90000AF0B0F94FF000060546029BAE711A68E3
:100CA00080462A6018469B880621AB800AF0A6F988
:100CB00005F10C09EE7105F108030022CDE913835B
:100CC0002046092113AB0092CDF85490FFF712FB98
:100CD000A9EB0807394640460AF090F998E4DDE9A7
:100CE00010031B1A052B03D10378012B00F0968308
:100CF0000E212046234AFFF753FB89E4DDE9100368
:100D00001B1A052B03D10378012B00F098830F21C8
:100D100020461D4AFFF744FB7AE402F0FBFB9DF8F6
:100D20003C10002800F0D4820022204622AB009222
:100D3000CDE922222492FFF7DDFA69E4DDE91023F0
:100D40009A4200F04F810D212046104AFFF728FB00
:100D50005EE4DDE910239B1A022B06D11378012BE8
:100D600003D15078012840F28A8310212046084A96
:100D7000FFF716FB4CE400BFFBE000206407061001
:100D8000F83700209C050610DC0506107C050610CF
:100D90001C06061022A802F089FE30200AF02AF96B
:100DA0002F2200F13003054600211A9080460130C1
:100DB0001C9302935FF01CFB02219DF88820029B8C
:100DC000032A1B93297000F0898204204FF0060C3F
:100DD0000A4600239DF88D1019B16046134688F825
:100DE00001209DF88E2012B1034688F801009DF87D
:100DF000891019B143F0080388F801309DF88A1072
:100E000019B143F0100388F801309DF88B1019B127
:100E100043F0200388F801309DF88C1019B143F09D
:100E2000400388F801309DF88F1019B163F07F03FB
:100E300088F80130002A00F0CE80DDE92623BDF8D5
:100E4000A010C8F80220C8F80630BDF8C0209DF8F0
:100E5000C230A8F80A10A8F81020002B00F0538226
:100E600001220321134688F812209DF8C32012B1F5
:100E70000B4688F812109DF8C4201AB143F0040301
:100E800088F812309DF8C5201AB143F0080388F89D
:100E900012309DF8B4201AB143F0100388F81230D4
:100EA0009DF8BA201AB143F0200388F8123020468A
:100EB00000242246A646A44623462146BDF9A65054
:100EC000BDF9A4600295BDF9AE50BDF9AA700395B5
:100ED000BDF8B85004959DF8A25065F3070466F379
:100EE0000F24C6F3072666F31744029E66F31F64B9
:100EF000C8F81340C6F3072464F30702BDF9A840FD
:100F00002C9E64F30F22C4F3072464F3174267F3A3
:100F10001F62C8F81720C7F3072262F3070EBDF956
:100F2000AC20BDF8B64062F30F2EC2F3072262F385
:100F3000174E039A62F31F6EC8F81BE04FEA166E55
:100F40006EF3070CC2F3072264F30F2C240A62F33A
:100F5000070364F3174C2C9A049C62F30F2364F389
:100F60001F6CBDF8BC20240A64F3070162F30F2153
:100F7000120A62F31741BDF8BE20C8F823C062F31D
:100F80001F61120A88F82B20320A62F31743320CD1
:100F900062F31F63C8F81F300023C8F827101A46F1
:100FA00000930B211AABFFF7A5F9302140460AF058
:100FB00025F8FFF72DBBDDE910031B1A302B03D1F9
:100FC0000378012B00F04C8211212046CF4AFFF715
:100FD000E7F9FFF71DBB0B21204600921AABFFF784
:100FE00089F9E2E722A802F061FD9DF89820082027
:100FF000029209F0FFFF029A0546A2F13102002198
:101000000120B2FA82F205F10803CDE91B339DF805
:101010008E30C5F80110520969601A952870002BAE
:1010200040F0E781AA70002240F6B83C9DF890108D
:10103000204643EA41132B71A5F806C00D211AABD7
:101040000092FFF757F90821284609F0D7FFFFF76C
:10105000DFBAAF4DAF4E2B68029307F08DFE029BB7
:101060004FF47A7203EB43031F0106EB0313029361
:1010700000235FF091F926227B1DF0519819029E02
:101080000021327128225FF0B3F93279A2495FF072
:101090009BF9A248A24B0168002201310C2928BF0C
:1010A0000C210160296820460131A3FB0143012482
:1010B000DB0803EB4303A1EB8301296022AB9DF81E
:1010C0003C100094CDE922222492FFF713F9FFF798
:1010D0009FBA1AA801F00AFB22A802F0E7FC01233C
:1010E0008DF84C309DF891309DF868208DF84E3089
:1010F0009DF8903004208DF84F308DF84D2009F088
:1011000079FF054613991C9A2960082003910292E1
:1011100009F070FF03460399029A016028461A718C
:101120000421CDE9023209F069FF1020039A029BE5
:10113000110A597122FA00F1120EDA711D9A997191
:101140000393029209F056FF0546039B029A082179
:1011500002721868286058686860184609F04EFFE7
:101160004FF0000E029A2046259C4FEA124C85F85B
:101170000AC0130A4FEA126C220A2C736A73220CFB
:10118000240E6B72AA73EC7385F80BC012217246A1
:101190001AABCDF800E005F11004CDE91B441A9517
:1011A000FFF7A8F81021284609F028FFFFF730BA0A
:1011B000574B917019685A4B0B31A3FB01EC4FEA66
:1011C000DC0C0CEB4C0CA1EB8C010C31891BA3FB50
:1011D00001C3DB0803EB4303A1EB83034D4F03EB98
:1011E0004303049206201A0107EB0313BD58CDE90F
:1011F000022309F0FFFE0346049AC57010880321FC
:101200001880907804939870104609F0F7FE049BBC
:101210002A0A1A712A0C5A710C2009F0EBFE2A0EC8
:101220000546049B82711A68824602609A880621EC
:101230008280184609F0E2FE039B05F10C091A7939
:1012400005F10803EA71002A00F028810299042AB6
:1012500001F10501394440F22781082A104638BFC0
:1012600008206FF00043029200F108029A4228BF62
:101270001A4610461746039109F0BCFEDAF8003012
:1012800005460360DAF804300399029A4360804609
:1012900008305FF099F8029A0C21831850460293A7
:1012A00009F0ACFE00231A460093029B0921149317
:1012B000EB191593204613AB1395FFF71BF809E5BF
:1012C00020461B9A9DF83C10FFF76AF8FFF77BBA9F
:1012D0002046144AFFF764F8FFF79AB90123052066
:1012E0004FF0070C6B7075E520460F4A9DF83C10D7
:1012F000FFF756F8FFF78CB9092120460B4AFFF794
:101300004FF8FFF785B90221AFE500BF640606106C
:10131000B4370020FC37002028070610F8370020DB
:10132000ABAAAAAAD4060610F8040610EC0606100A
:1013300053780132432B7FF474AC12F8013F562BE3
:101340007FF46FAC5378312B7FF46BAC5D4D2B6821
:10135000029307F011FD029B5B4A03EB43031F015D
:1013600002EB0313164602934FF47A7200235FF0E8
:1013700013F812227B1DF0519819029E0021327140
:1013800028225FF035F8327950495FF01DF80121CD
:101390004F48504B02680A440C2A28BF0C220260B6
:1013A0002A680A44A3FB0203DB0803EB4303A2EB16
:1013B0008302494B2A60197007F0DEFC4FF47A7201
:1013C00000235EF0E9FF10F1FA0320464FF000041D
:1013D000424A41F100010094C2E9003122469DF8E1
:1013E0003C1022ABCDE922442494FEF783FFFFF7A3
:1013F0000FB99DF8C2306870E870AA7043F0DE0340
:1014000011E6012A7FF45CAAFFF753BA2046239A1B
:101410009DF83C10FEF7C4FFFFF7CDB98178B0F816
:101420000320407802F084F89DF83C1000287FF4F7
:101430007BAC20462A4AFEF7B3FFFFF7E9B8817874
:101440000379C278407802F0E5F89DF83C10002856
:101450007FF46AAC2046234AFEF7A2FFFFF7D8B814
:101460002F21013002F040FA9DF83C1000287FF453
:101470005BAC20461C4AFEF793FFFFF7C9B800F0AB
:10148000010002F081F99DF83C1000287FF44CAC7B
:101490002046164AFEF784FFFFF7BAB8A8460CE4C8
:1014A0004FF0000CFFF73CBA184602925EF08CFF3A
:1014B000029AA846831800E420460D4AFEF770FF02
:1014C000FFF7A6B8B4370020FC37002050070610FD
:1014D000F8370020ABAAAAAAFAE00020983400202E
:1014E000B8050610F80506108C0606103C06061016
:1014F0008C070610F0B583B0BDF820E0002870D14D
:10150000002B6ED0012A6FD0032A68D1712940F0D8
:1015100092804E4A1278002A00F09580BEF13F0F6B
:101520005DD99C464A4CA6460CF1100CBEE80F0053
:101530004CF8043C474B10349E454CF8100C4CF8CA
:101540000C1C4CF8082CEED14FF00001424B1A78DD
:101550001970002A42D0414C414D2368019307F095
:101560000BFC019B4FF47A7203EB43031E0105EB66
:10157000031700235EF010FF1722731D0021A851EE
:101580003A71581928225EF033FF36493A795EF0F5
:101590001BFF4FF0010C3448344B026802EB0C0186
:1015A0000C2928BF0C21324A016082F800C0226851
:1015B0006244A3FB02C3DB0803EB4303A2EB8302F9
:1015C000226007F0D9FB00234FF47A725EF0E4FE4C
:1015D000284BFA3041F10001C3E90001402003B07B
:1015E000F0BD002003B0F0BD0129F8D1BEF13E0FDF
:1015F000F5D9214A02F130011468D2F804E0D2F89A
:1016000008C0D06810328A421C60C3F804E0C3F8F6
:1016100008C0D86003F11003EED150689168D2F889
:1016200000C05860C3F800C099609189927B3F2048
:1016300099819A73D3E772460846194600F074FB05
:1016400080B203B0F0BD1046C9E700BFF9E000204A
:10165000B8370020F837002001E10020B43700201F
:10166000FC370020BC070610F8370020ABAAAAAA56
:10167000FDE00020A8340020853A002010B58CB091
:10168000BDF838E020B9022A9C4612D0032A01D0C6
:101690000CB010BD7029FBD143B3BEF1410F1FD078
:1016A000BEF1400F14D160460CB0BDE81040FEF70B
:1016B00067BF73466246684605F06EFE9DF80030CF
:1016C000002BE5D02F210DF1010002F00DF9DFE72D
:1016D00001210020074A0CB0BDE81040FEF760BEB3
:1016E0001B78702BF4D10CF1010CDCE70121024ACC
:1016F000F1E700BFE8070610D40706102DE980487F
:10170000B9B00DF04FF800F007FE9A4805F0DAFA8C
:10171000994C2070FEF7B2FD2378002B00F0278152
:10172000964F974EDFF89882346807F025FB4FF408
:101730007A7200235EF030FE142204EB440425018B
:101740006B1D08EB041448F80500227103EB080038
:10175000282200218B4D5EF04BFE227939465EF047
:1017600033FE296830684C1C0C2C28BF0C24864B97
:1017700001302C60A3FB0043DB0803EB4303A0EB29
:1017800083032C22002123A833605EF031FE8021E8
:101790000822FF237D4C7E48246822908DF88C100F
:1017A00004A822A928948DF88F208DF8B03005F078
:1017B0005DFE784E04AC3546E36820686168A26837
:1017C00010340FC514AB9C4206F11006F3D101246E
:1017D000714BDFF8F0911C700DF006F818B989F81C
:1017E000004001F0F1FD4AF60123002015A9ADF8F3
:1017F00054300CF073FEDFF87CB1DFF8CCA100218F
:101800004FF0FF300BF000FF99F800300BB10CF0F7
:10181000E1FF00F059FE03F0E3FE22A802F046F9D2
:101820009DF88A4024B99DF88B400CB99DF88C40F6
:1018300007F0A2FA9DF888309BF81360032B99F803
:10184000005000F03881002E40F03A81002C00F06A
:10185000C0810023514A5EF09FFDC30740F19A8189
:10186000002D40F0318128460CF09EFF4C4B1B7838
:10187000FF2B04D04B4A1278544044EC403022A84D
:1018800002F014F907F078FACDE900019DF88E1006
:10189000002940F09B80444F3B78002B40F09E8114
:1018A0003D4B1B787BBB414AD2E9003253EA020030
:1018B00040F076812C22002117A85EF099FD80234C
:1018C0008DF85C30324B04A8169308238DF85F30F6
:1018D000FF238DF880302D4B16A91B682D4E1C93CD
:1018E00005F0C4FD04AC3546E36820686168A26871
:1018F00010340FC514AB9C4206F11006F3D14FF023
:101900000102254B1A709BF81030002B00F0C080AC
:10191000012B00F0E0800BF0BFFD002840F0ED80CF
:1019200007F02AFA00234FF47A725EF035FD204B5F
:101930001B7833B1DAE90023904271EB030380F0A6
:10194000CC811C4B1A78002A3FF459AF1A4AD2E9CD
:101950000042A0429141FFF452AF00221A700BF0F6
:10196000C9FD322007F0DCF80BF0CEFD47E7134F3E
:10197000D7E600BF3C3A0020FBE000201C08061020
:10198000B4370020F8370020ABAAAAAACC3A00202E
:1019900001808080843A0020FEE0002090D0030087
:1019A000B02C0020FFE00020FCE00020A03400204C
:1019B000FAE00020FDE00020A83400200408061012
:1019C000FC370020F8E0002098340020DFF8D882AF
:1019D000329AD8F800309A4200F0A780DFF8CCE2C3
:1019E000A74F9EF800203B7816AC26AD02920393D9
:1019F0000FCD0FC40FCD0FC495E80F0084E80F0082
:101A0000029ADDF8B0C0002A40F015814FF00103C2
:101A10008EF800309B4B1A609B4B16A904A8CDF89A
:101A200070C0C3F800C005F021FD984E04AC3546E7
:101A3000E36820686168A26810340FC514AB9C424B
:101A400006F11006F3D10BF02FFD914D04462B78D3
:101A5000002B40F0FF804FF001038E4C2B7026AD21
:101A60000FCD0FC40FCD0FC495E80F0007C424F8A5
:101A7000023B1B0C23704FF00102874B3A701A7027
:101A8000329BC8F800309BF81030002B7FF440AF39
:101A9000824A4FF47A61D2E9003253EA020022D03E
:101AA0000098C31A019860EB02028B4272F10002A7
:101AB000FFF436AF17E0002E6CD02DB93446D2E6D5
:101AC000002D3FF4D0AE25460024214600200CF026
:101AD00073FE2C46CAE6714A4FF4FA61D2E900322D
:101AE00053EA0200DCD16C4B1B78002B3FF418AF9B
:101AF0000BF0D2FC00283FF413AF00200CF0EEFAFC
:101B000000283FF40DAF3F2301210020644A0CF070
:101B100001FB00283FF404AF00235F4A13705F4BC2
:101B2000009A1A60019A5A60FAE65B4B1B78002B08
:101B30007FF4E9AE594AD2E9003253EA02002FD1CC
:101B400016AC26AD0FCD0FC40FCD0FC495E80F0016
:101B5000DFF858C184E80F009CF80070002F71D0A6
:101B6000484B1B682C9A16A91344474A04A81C9397
:101B7000136005F07BFC454E04AC3546E3682068F5
:101B80006168A26810340FC514AB9C4206F11006C0
:101B9000F3D1B4E6002D40F09B8001252C4662E68F
:101BA0000098C41A019860EB0200B4F57A5F70F1F6
:101BB00000000AD29BF81010002900F08B80012948
:101BC0007FF4AEAE4FF4FA616AE700293FF472AEDB
:101BD000B6E7002D3FF447AE254676E72C2217A83E
:101BE0005EF006FC80238DF85C302E4B04A8169323
:101BF00008238DF85F30FF238DF88030224B16A923
:101C00001B68224E1C9305F031FC04AC3546E3689A
:101C100020686168A26810340FC514AB9C4206F1BD
:101C20001006F3D14FF001021B4B1A700023184A23
:101C30003B70137067E6039B002B39D0114B1B6878
:101C40009C44E9E64FF001030E4A8CF8003017601F
:101C50003B4687E70F4826A905F09AFC80B39BF81E
:101C600018306BB3002C3FF4F6AE0BF025FC2B784C
:101C7000002B3FF4F0AE00287FF4EDAEFBE600BF92
:101C8000FCE00020C43A0020CC3A0020843A002036
:101C900000E10020B42C0020FEE00020A034002051
:101CA000853A002001808080C83A002002E10020AF
:101CB0000D4B1B68A3EB0C029C460C4B1A60ABE669
:101CC0002B78002B3FF4C7AE002C7FF4D4AEC2E6D5
:101CD0002C46FAE64FF47A61E2E60021044B08460E
:101CE000197007F087F900BFCC3A0020C43A0020F1
:101CF000FAE000200149024804F0D2BFE42C0020A1
:101D00003C3A002040F6E64340F6F251012808BF75
:101D10000B46014A13807047FA2C0020014B1870C3
:101D2000704700BF03E1002070B509288CB023D0B4
:101D300020281AD005281BD12824C9B1944217D8CD
:101D400001900D460846224600215EF051FB019BA2
:101D5000052B26D0092B11D02046354A354BC5F826
:101D60001720C5F81B300CB070BD3F240029E5D109
:101D7000002420460CB070BD1324DEE72E4B1B78E8
:101D8000002B37D12D4B1A784AB3062228462C490E
:101D90005EF0EAFA6B7923F0030343F002036B7100
:101DA000E7E702A805F03EFBAE4602AEB4460EF1F0
:101DB000100EBCE80F004EF8043C0AAB9C4506F13F
:101DC00010064EF8100C4EF80C1C4EF8082CEDD1F5
:101DD000BCE80300CEF80000CEF80410C9E70BF011
:101DE000C5F80122154B1A70154B0A0A18601971B3
:101DF0005A71CAE7002302A8CDE902330AF016FFA0
:101E00000298104BDDF80A1043404B409DF80C201F
:101E10009DF80E102B604A409DF80F309DF80D1074
:101E200082F04C024B4083F06B032A716B71B1E777
:101E300001004C4D0031004D03E1002004E1002081
:101E4000D03A00204D697261054B064A1B7806485E
:101E5000002B0CBF002303231288037442817047B8
:101E600003E10020FA2C0020E82C002008B90248E9
:101E700070470020704700BFD051061000487047DF
:101E8000A451061058B940F209434FF44171DFF8EC
:101E9000E8C03948ACF80230ACF80010704730B5F3
:101EA00002288BB025D003283ED004283AD8334BE3
:101EB00053F82040B4B320465DF06CFD3F28034644
:101EC00028BF3F23591C49001D46DFF8ACC041F430
:101ED000407148B16046621E931C1B1B12F801EF53
:101EE0009D4220F802EFF7D82348ACF800100BB061
:101EF00030BD40F6F253224A12889A4235D04FF450
:101F00004F714FF01D0E1F48DFF86CC00EF1FF3E01
:101F10006246431E864413F8010F9E4522F8020FC5
:101F2000F9D1E1E70020E2E7174B1B78002BF9D04D
:101F30002122002168465EF05BFA212168460AF002
:101F40007DFE68465DF026FDDFF82CC040B16B4693
:101F500062461C1813F8011BA34222F8021FF9D194
:101F6000411C490041F44071BEE740F246314FF058
:101F7000220E0648C8E700BF2837002090510610FF
:101F8000FA2C00205808061003E10020340806103F
:101F90002DE9F04FD44BADF69C0D1D68002D00F0DF
:101FA00098810026DFF850A34FF4F062002146A884
:101FB0005EF01EFA0AF1020B0DF58D790395CB4BFD
:101FC00040F2DF12A3FB0635731B05EB530540F20D
:101FD000FF132D0A05F10108984528BF9846C5EB67
:101FE00005143AF93800C5EB4414341B80FB040196
:101FF0003AF935C0C4F5EF7701370023C7FB0C0170
:102000005EF0DAF929F8020C3BF938003BF935307B
:1020100080FB040140F2DF12C7FB030100235EF0E6
:10202000CBF9B34B06F2FF169E4229F8040BC6D13A
:10203000C824039D14AE0021224630465EF0D8F934
:1020400028464FF4F072334646A9009423F00EFB65
:10205000A042054600F23D810021402204A85EF026
:10206000C7F9A44BA4494FF0FF3E4FF0800A1888EF
:10207000DFF898C2DFF8988201F5805904AF039524
:102080007DE0002B03DA14EB080443F10003240D78
:1020900044EA0334802C4FEA235373F1000300DB3E
:1020A0007F24B1F90EB0B1F90620B1F916501BEB3F
:1020B00002033C704FEAE272B1F91E4042EBEB7250
:1020C000EB1842EBE572E31842EBE472B1F92640FB
:1020D000E51842EBE473B1F92E40621943EBE47367
:1020E000B1F93640A21843EBE473B1F93E40A218AF
:1020F00043EBE473B1F94640A21843EBE473B1F942
:102100004E40A21843EBE473B1F95640A21843EBDA
:10211000E473B1F95E40A21843EBE473B1F9664091
:10212000A21843EBE473B1F96E40A21843EBE473D9
:10213000B1F97640A21843EBE473B1F97E40A218DE
:1021400043EBE473A2FB004200FB0323A4457EEBB8
:1021500003026FDA002B03DA14EB080443F10003E7
:10216000240D44EA0334802C4FEA235373F1000317
:10217000A8BF7F24803189457C7060D00237B1F9D7
:102180000CB0B1F90420B1F91450B1F91C401BEBAB
:1021900002034FEAE27242EBEB72EB1842EBE5729C
:1021A000E31842EBE472B1F92440E31842EBE47225
:1021B000B1F92C40E31842EBE472B1F93440E31872
:1021C00042EBE472B1F93C40E31842EBE472B1F93E
:1021D0004440E31842EBE472B1F94C40E31842EB9F
:1021E000E472B1F95440E31842EBE472B1F95C4097
:1021F000E31842EBE472B1F96440E31842EBE47295
:10220000B1F96C40E31842EBE472B1F97440E318A1
:1022100042EBE472B1F97C40E31842EBE472A3FBB9
:10222000004300FB0233A4457EEB0302FFF629AF17
:10223000802436E78031494587F801A09ED12F4C94
:102240004FF4C77200212046039D5EF0D1F836237B
:1022500023703F239022237344F292032848294994
:10226000E2720278A4F84C300B78A272013202704C
:102270005A1C1B0104AF0A70637004F14E0EBC4679
:102280000EF1100EBCE80F00B44507F110074EF830
:10229000100C4EF80C1C4EF8082C4EF8043CEED1F5
:1022A0001323012D84F88F5084F88E3016DD2A46D2
:1022B000314615485EF088F84FF4C7710F4805F0B5
:1022C00039FCC0B2B0FA80F040090DF69C0DBDE8B3
:1022D000F08F00200DF69C0DBDE8F08F04BF337821
:1022E00084F89030E8E700BFE08A00209B01A3114A
:1022F00020BE0300002D0020E48A0020E49A002084
:102300000AE1002007E10020749B00200000F0F7A4
:10231000FFFF0F000000000030B5002483B04FF431
:102320008042002146485EF063F84649464B474DDF
:102330000C604FF48052214645482C601C605EF0D2
:1023400057F89FED3D7B434947F6FF730C604249C8
:102350004FF480720C6041494FF400700C604049AA
:10236000404D0C6040490C6040490C6040490C6095
:1023700040490C60404981ED007B40490C70404968
:102380000C7040490C7040490C7040490C70404939
:102390000C7040490C7040490B8040490B8040490B
:1023A0000B804049404B0A801A804049404A414BCB
:1023B0000860147021464FF480523F481C705EF054
:1023C00017F821464FF4C7723C485EF011F840F60A
:1023D000010202214BF6803001AB2C70019421F0F8
:1023E000CDF8374C206008B1019D1DB1002323605A
:1023F00003B030BD40F6A271324A23F001FA2A46FA
:1024000040F6A671206823F0FBF9052240F6AA7178
:10241000206823F0F5F940F6BA3240F6B87120682A
:1024200023F0EEF9102240F6C471206823F0E8F999
:1024300003B030BDAFF300800000000000000000DA
:10244000D83A0020DC7A0020749C0020D87A002042
:10245000E07A0020809C0020849C00208C9C00203E
:10246000789C002009E10020889C00207C9C0020B2
:10247000909C0020949C0020B034002005E10020B6
:102480000EE100200DE1002008E100200BE100201A
:102490000CE1002006E10020082D0020062D002080
:1024A000042D0020022D0020002D0020FC2C0020F7
:1024B00007E100200AE10020E48A0020E49A0020DD
:1024C000E08A002000710200F0B5444C97B02378F8
:1024D0000BB917B0F0BD06F04FFC414AD2E9003508
:1024E000C01A4FF000033F4A61EB0501824273EBD3
:1024F000010169D32378002BEBD03B4B1B68002BE9
:10250000E7D0684601F0D2FA38490B78002B50D159
:10251000374E3849326809688A42DAD39DF8081084
:102520000029D6D0DFF8D8C09E46334C334F0CF686
:10253000F875A2B12368013A591CC1F30A0107EBEF
:10254000C303AC452160326093E803008CE80300CC
:102550001AD00EF1010E0CF1080C002AEAD1AC459C
:10256000CCE9002210D0264B0EF1010E03EBCE0376
:10257000CEF5007E03EBCE0E0EF1080E083343E9D4
:10258000022208339E45FAD1FFF702FDF8B101237C
:10259000164A13704FF4C7711A4801F009FA00285F
:1025A00097D00021184A1368013313600F4B19703C
:1025B0008FE79DF80830002BECD1144A0B7013689C
:1025C00003F50073136084E7237017B0F0BD0F4A62
:1025D000136803F5007313607BE700BF05E100207B
:1025E000B0340020F0490200E08A002009E1002018
:1025F000749C0020FC2C0020D87A0020D83A0020BF
:10260000E48A0020E49A00207C9C0020889C002022
:10261000D0ED017AB0EE677ABEEECC7A2DE9F041CA
:10262000C27C284BDFF8BCC01A70027A90F809E02F
:10263000C2EBC232ACFB0215CEEBCE3EACFB0E1CA5
:10264000521B437B05EB52021F4D9209AEEB0C0E61
:10265000102B2A800CEB5E0C1C4A38BF10234FEA6B
:102660009C1CA2F800C017EE102A7F2B28BF7F23E6
:10267000B2F5807FB8BF4FF48072B2F5007FA8BF7B
:102680004FF40072857A124908356D01103B0D80B8
:10269000104E857CDFF85080807D03EB43035B02A6
:1026A0003070A8FB03015B1A01EB53010A4F0B4C7E
:1026B0000B4B890901F500713D7021601A80BDE85E
:1026C000F08100BF0BE10020062D0020042D00202A
:1026D000022D002006E100200CE10020FC2C00204F
:1026E000002D002011080402890B3527DFF880C077
:1026F0001649174B174A9CF800C009781B781278C6
:1027000080F800C0417083700AB9134B1A78134BDC
:10271000C2701B68DFF85CC0003B18BF0123104982
:10272000104ADCF800C009681268C0F808C0C0E9A7
:102730000312DFF844C00C490C4ADCF800C00968F9
:102740001268C0E905C1C261037170470EE1002043
:102750000DE1002008E100200BE10020E08A0020CC
:10276000889C0020749C0020909C0020949C002059
:1027700005E10020789C00207C9C002038B54FF4B7
:102780004C7200211A485DF033FE4FF0FF300023F9
:1027900000220021174C184D20602860174C184863
:1027A000C4E900230170174C1748C4E90023C0E9AD
:1027B00000233F2215485DF01BFE154B1868EFF310
:1027C000108272B6D0E8CF5F0124002DFAD1C0E8A4
:1027D000454F002DF6D1BFF35F8F00210D485A60A1
:1027E00001811B68C160C3E88F1F82F3108838BD68
:1027F000B49C0020102D00200C2D0020E834002077
:1028000019E10020D0340020C0340020E49F0020D3
:10281000A49C0020182D002010B5214C2368EFF354
:10282000108272B6D3E8CF0F01210028FAD1C3E895
:10283000401F0028F6D1BFF35F8F1A4B62601888E3
:1028400030B1194B587918B11B78032B07D00020F1
:1028500000232168C1E88F3F82F3108810BD134B1D
:102860001B78002BF3D112490978062901D01846AC
:10287000EEE71049D1E900310B43E9D006F07CFACC
:102880004FF47A7200235DF087FD0A4A136898427C
:102890005368626899412CBF01200020D8E700BF2F
:1028A000A49C0020D6E00020182D00201DE100206F
:1028B0003CA00020183500201A4A1368032B24D9A5
:1028C0000268194BC3F812208288DA82174B196804
:1028D000EFF3108272B6D1E8CFCF0120BCF1000F28
:1028E000F9D1C1E84C0FBCF1000FF4D1BFF35F8FF9
:1028F0004FF0010C0E485A6000211B6880F807C099
:10290000C3E88F1F82F31088704703EB430C013339
:1029100005491360036841F81C30838801EB4C01C2
:102920008B80D3E748A0002024A00020A49C002096
:10293000182D00202DE9F041454B94B01B78002B59
:1029400071D00546FFF768FF044600286BD0414E62
:102950003368002B67DA404B4FF4C7721B680021C5
:10296000002B0CBF4FF4CC7000203C4B08BF01275C
:102970001844804618BF00275DF03AFD38490A78B0
:10298000501C087002F00F022946684604F03EFF12
:102990004E22694640465DF017FD4FF4CC714E2241
:1029A0002E4B376001FB07333121C3F89021012200
:1029B00083F88E1183F8942106F0DEF94FF47A72D1
:1029C00000235DF0E9FC0022264B1A70264BC3E978
:1029D0000001EB7A3BB12F22012A05F10C0131DD18
:1029E00022485DF0C1FC2B7813B3DFF880C00DF1F5
:1029F0000305E646EB6828686968AA681035AEE802
:102A00000F000DF133039D420CF1100CF1D1AA68B7
:102A100028686968ACE80700AA89AB7BACF800209D
:102A20008CF8023000E00024204614B0BDE8F081AC
:102A3000EB78002BD9D1EB79002BD6D16B7A002B18
:102A4000F2D0D2E7CFD1094B2A7B1A70CBE700BF77
:102A500010E100200C2D0020102D0020B49C00203F
:102A600014E1002011E10020B8340020E49F002090
:102A7000F0B5454D85B0AA7912B1EA79002A55D052
:102A8000002600270024414B414AC3E90067414B1F
:102A900054601460C2F807403F4A1C703F4BC2E9C3
:102AA00000673F493F4A1C703F4BC2E900670C700A
:102AB0004E2221463D48C3E90067C5E900442C7217
:102AC0005DF096FC3A4A3B4BC2E900673A4E1C70F7
:102AD000FFF754FE3368EFF3108272B6D3E8CF0FDE
:102AE00001210028FAD1C3E8401F0028F6D1BFF326
:102AF0005F8F324B324D334F1C807260D5E900320C
:102B00001343BC80BC711DD1BC7004233B70326880
:102B10000023C2E88F3F726882F310882A4A2B494B
:102B2000C2E9003393600B7005B0F0BD2A7A002A29
:102B3000A6D195E80300029002A8ADF80C1012F09F
:102B4000DDFC9DE706F018F92C6800234FF47A723B
:102B500001945DF021FC019A6C689042A14134BF60
:102B6000012300231443BB70CFD006F005F94FF4C6
:102B70007A7200235DF010FCD5E900239042994160
:102B8000C3D20223C2E700BFA4A80020F83400206B
:102B90003CA000201BE10020D83400201AE10020D6
:102BA00018E1002000350020C834002054A800207F
:102BB000183500201DE10020A49C0020D6E0002054
:102BC000F0340020182D0020989C00201EE10020E9
:102BD000254A70B51378FBB1002100240025234B52
:102BE000234AC3E90011C3F80710224B1688C3E932
:102BF0000045214B214AC3E90045214BC2E900456C
:102C00001970204B4E22204819705DF0F1FB1F4BCC
:102C1000C3E900451EBB70BD01251D4C157026681B
:102C2000EFF3108572B6D6E8CFCF0122BCF1000FCA
:102C3000F9D1C6E84C2FBCF1000FF4D1BFF35F8F80
:102C4000144A656082F84910116D2468013182F8D8
:102C500048001165C4E88F3F85F31088BCE7304613
:102C6000BDE870401DF0E6BD1EE100203CA0002044
:102C7000D6E00020F834002000350020D8340020B1
:102C80001BE100201AE1002054A800201835002084
:102C9000A49C0020182D002038B5494CD4E90032FE
:102CA000134300D138BD474B1D7806F065F84FF44B
:102CB0007A7200235DF070FBD4E9002390429941C1
:102CC000F0D2002DEED0404C2378002BEAD13F4BC0
:102CD0001B78002BE6D13E4B1B88002BE2D13D4AEE
:102CE000D2E9003213430CD006F046F84FF47A7262
:102CF00000235DF051FB374BD3E90023904299410B
:102D0000D0D3082017F09AFB334B1A6800BB9FED15
:102D10002A7B304981ED007BEFF3108172B6D2E857
:102D2000CFEF5FF0010CBEF1000FF8D1C2E84ECF3B
:102D3000BEF1000FF3D1BFF35F8F0122274D596021
:102D4000EA701B682270C3E88F0F81F3108838BDCA
:102D5000012423490C70EFF3108172B6D2E8CFEF53
:102D60005FF0010CBEF1000FF8D1C2E84ECFBEF10A
:102D7000000FF3D1BFF35F8FD3F800C05960174B3A
:102D80001A6D83F84840224483F849001A650023ED
:102D9000CCE88F3F81F3108805F0EEFF00234FF45D
:102DA0007A725DF0F9FA0B4B10F57A7041F100017F
:102DB000C3E9000138BD00BF0000000000000000B2
:102DC000F03400200FE1002012E1002018E1002083
:102DD000D6E00020E0340020A49C0020182D002024
:102DE0001EE10020000000002DE9F043AFB005F027
:102DF000C3FF4FF47A7200235DF0CEFA0025984BA2
:102E0000984C1D70C4E9000105F0B6FF4FF47A72CA
:102E100000235DF0C1FA034601249348934E1B182A
:102E2000934F41F10001716033603C700026002730
:102E3000904A914B2046C3E90067C2E9005595606E
:102E400017F0E8F8204617F0ABF88C4B19780029FA
:102E500038D1582202A85DF0CBFA894C894E8A4FAE
:102E6000388838B19DF80830032B03D09DF80E50F8
:102E7000002D5FD02268EFF3108372B6D2E8CF0F37
:102E800001210028FAD1C2E8401F0028F6D1BFF383
:102E90005F8F32780121032A18BF0222B17018BF58
:102EA0003270216800226360C1E88F2F83F310889D
:102EB0003B881BB9754B1B78002B35D001202FB0F8
:102EC000BDE8F0836E4C2268EFF3108372B6D2E84F
:102ED000CF0F01210028FAD1C2E8401F0028F6D107
:102EE000BFF35F8F674E5822314618A86360019385
:102EF0005DF06AFA664A777A1168506888468146BA
:102F00002268C2E88F5F019B83F3108827B151EAE2
:102F1000000340F089800027582218A902A88DF8E4
:102F200069705DF051FA9AE7FFF7B6FE01202FB005
:102F3000BDE8F083574B18801DF07CFC554B1B8877
:102F4000002B00F0828005F017FF4FF47A72002307
:102F50005DF022FA42F210720125821841F1000858
:102F60004FF0000EDFF868C14B4BCCE900014B4934
:102F7000C1E900284A4A15704A4A82F800E09A7965
:102F800062B1DA7952B91A7A42B993E8030018901B
:102F900018A8ADF8641012F0B1FA3F4B00259FED70
:102FA0002E7BC3E900551D723F4B404A83ED007BE9
:102FB0003F4B15605560C2F807503E4A83ED007BD9
:102FC0003D4B157031483D4A83ED007B3C4B294613
:102FD000057015703B484E2283ED007B3D805DF00F
:102FE00007FA9FED1D7B384B83ED007B374B1D703F
:102FF000FFF7C4FB2268EFF3108372B6D2E8CF1F4D
:1030000001200029FAD1C2E8410F0029F6D1BFF30F
:103010005F8F022263603270B5802268B571C2E8AA
:103020008F5F83F3108825E705F0A6FE4FF47A72D0
:1030300000235DF0B1F9B0EB080061EB0901FB285A
:1030400071F10001BFF467AF66E7284629462A46BA
:10305000A84685E7AFF300800000000000000000F4
:1030600011E10020B8340020E0930400F034002087
:1030700017E10020989C0020E034002010E100209F
:10308000A49C0020182D0020D6E0002018E100208C
:10309000C0340020D4E00020A4A800201035002077
:1030A0001FE1002020E10020C83400203CA00020C7
:1030B000D83400201BE10020F83400201AE1002061
:1030C0000035002054A80020183500201DE1002004
:1030D0000835002000000000794B1B7803B17047D1
:1030E000F0B5784C87B0D4E90032134301D107B072
:1030F000F0BD754B06461D7805F03EFE4FF47A7222
:1031000000235DF049F9D4E90023904299412F460C
:10311000EDD2002DEBD06D4B1B78002BE7D16C4B23
:103120001B88002BE3D16B4B9B79002B40F0368141
:1031300000234FF0010C674D674CC5E900332B723B
:10314000306822682860B18885F806C0A980002A06
:1031500000F0AD80614903E02268934280F0A780CF
:103160003046CDE9001310F0AFFD019B009901330B
:1031700006310028F0D1574BDF7159490B78002BED
:1031800040F01481574C2368EFF3108272B6D3E8F5
:10319000CF0F5FF0010C0028F9D1C3E840CF002821
:1031A000F5D1BFF35F8F00234F4D0B706260216834
:1031B000EB70C1E88F3F82F310889FED3F7BB288B0
:1031C0003068ADF80C20494A1946C2E90033C2F80C
:1031D0000730474A02901370464A47481370474BDE
:1031E0004E2283ED007B464B83ED007B454B83ED08
:1031F000007B5DF0FDF800239FED2F7B344A1380A8
:10320000414A82ED007B414A1370414A13702268A3
:10321000EFF3108172B6D2E8CFCF0120BCF1000FDE
:10322000F9D1C2E84C0FBCF1000FF4D1BFF35F8FAE
:10323000EA6C61600132EA642268C2E88F3F81F380
:1032400010880121224A02A81DF072FA00230646C6
:10325000002861D105F090FD4FF47A7200235DF0F3
:103260009BF842F21073C0182A4B41F100015960DB
:1032700018600123154A21681370EFF3108272B6AB
:10328000D1E8CFCF0120BCF1000FF9D1C1E84C0F3C
:10329000BCF1000FF4D1BFF35F8F134962600B7173
:1032A0000B702368C3E88F6F82F310881FE7002735
:1032B00061E700BFAFF300800000000000000000E5
:1032C00011E10020F03400200FE1002018E100207F
:1032D000D6E00020A4A8002048A0002024A00020C0
:1032E00012E10020A49C0020182D00203CA000200A
:1032F0001BE100201AE1002054A80020D83400204F
:10330000F834002000350020183500201DE1002091
:103310001EE10020C8340020012226490A702268DC
:10332000EFF3108172B6D2E8CFCF0120BCF1000FCD
:10333000F9D1C2E84C0FBCF1000FF4D1BFF35F8F9D
:10334000022285F848202A6D2068013285F84960FC
:1033500061602A65C0E88F3F81F31088164A93792F
:103360005BB1D3794BB9137A3BB992E8030004906F
:1033700004A8ADF8141012F0C1F800230F49104A48
:103380000D480978C0E90033C2E900330372936045
:1033900000293FF4ACAEFFF77FFCA8E630460649B3
:1033A00010F092FC00287FF4C3AEE6E617F064F854
:1033B0000449E7E61EE10020A4A8002017E1002050
:1033C000989C002012E1002008B5104B1A7802B139
:1033D00008BD0F4805F062F801220C4B0D491A7028
:1033E0000A8018F0F5F94FF400610B481DF01AF946
:1033F0000A481DF037F90A48084B436012F0ACFB4D
:10340000BDE80840012016F0BDBC00BF10E100205F
:10341000A49C0020182D002054A00020793B00100F
:103420004CA00020D0ED017AB0EE677ABEEECC7AE7
:1034300038B52F4BC27A197817EE103AB3F5807F62
:10344000B8BF4FF48073B3F5007FA8BF4FF400738B
:10345000002943D0002A29D04FF0000E254AD2F887
:1034600000C0EFF3108172B6DCE8CF5F0124002DBD
:10347000FAD1CCE8454F002DF6D1BFF35F8FDFF8CE
:1034800090C05160ACF8003090F815C01A4BC07A6B
:1034900083F800C0194B126818700023C2E88F3FF0
:1034A00081F31088BEF1000F04D138BD144A92F8A0
:1034B00000E0D3E74FF00005114C257005F05CFCEF
:1034C0004FF47A7200235CF067FF0E4B25701A7878
:1034D0000D4B1A700D4BC3E9000138BDDFF830C049
:1034E0000549407DACF80030044B08701A7038BDB7
:1034F00010E10020A49C002013E1002015E1002031
:1035000011E100200FE100201CE10020B834002070
:103510000A2D0020044B1B7813B1044B1B780BB908
:1035200018467047FFF760BC10E100200FE1002053
:1035300070B540F6B734531E9BB2A34292B003D984
:103540000024204612B070BD2D4B1B78002B54D0A8
:103550002C4B1C68EFF3108C72B6D4E8CF5F5FF091
:10356000010E002DF9D1C4E845EF002DF5D1BFF3D0
:103570005F8FD3F800E0C3F804C0234B1C880023FE
:10358000CEE88F3F8CF31088054601911646002146
:1035900038220DF10F005CF02BFF019B04FB05F2BC
:1035A00004FB03F102F180031B0A8031090AFF2B9F
:1035B00028BFFF23FF2928BFFF214FF0010503A8E3
:1035C0008DF80C508DF80D308DF80E10FFF7B2F914
:1035D00004460028B4D00D4B1D7005F0CDFB4FF410
:1035E0007A7200235CF0D8FE094B801941F100018A
:1035F000C3E90001204612B070BD034B1C88C3E72D
:1036000010E10020A49C00200A2D002019E10020D8
:10361000D03400202DE9F0411546A4B007460E46EF
:103620003B22002101A803F01F045CF0E1FE8DF8AD
:103630000A5001254C4B8DF808701B788DF80960F5
:103640008DF80C408DF807508DF80B50002B79D079
:10365000FFF7E2F80446002874D0444E3368002B8C
:1036600070DA434B4FF4C7721B680021002B0CBF6C
:103670004FF4CC7000203F4B08BF01271844804610
:1036800018BF00275CF0B4FE3B490A78501C087054
:1036900002F00F0201A910A804F0B8F84E2210A9F8
:1036A00040465CF091FE4FF4CC71324B4E2201FB50
:1036B00007333121C3F8902183F8945183F88E1198
:1036C000376005F059FB4FF47A7200235CF064FE1A
:1036D00000222A4B2A4D1A709DF80F30C5E90001CF
:1036E0007BB1284D0DF1100CBCE80F000FC5BCE8F4
:1036F0000F000FC59CE80F0007C51A0C25F8023B08
:103700002A709DF8043013B3DFF878C00DF143053B
:10371000E646EB6828686968AA681035AEE80F00CD
:103720000DF173039D420CF1100CF1D1AA682868C9
:103730006968ACE80700AA89AB7BACF800208CF87C
:10374000023000E00024204624B0BDE8F0819DF85E
:103750000730002BD8D19DF80B30002BD4D19DF829
:103760000D30002BEFD0CFE710E100200C2D002012
:10377000102D0020B49C002014E1002011E1002055
:10378000B8340020E49F00202DE9F04104460125D3
:10379000A4B03B22002101A85CF02AFE4A4B8DF820
:1037A0000E401B788DF80D50002B7BD0FFF734F8BE
:1037B0000446002876D0454E3368002B72DA444B1D
:1037C0004FF4C7721B680021002B0CBF4FF4CC7064
:1037D0000020404B08BF01271844804618BF00272F
:1037E0005CF006FE3C490A78501C087002F00F029B
:1037F00001A910A804F00AF84E2210A940465CF076
:10380000E3FD4FF4CC71334B4E2201FB07333121E2
:10381000C3F8902183F8945183F88E11376005F036
:10382000ABFA4FF47A7200235CF0B6FD00222B4B0A
:103830002B4D1A709DF80F30C5E900018BB1DFF8F0
:10384000A4C004AD0FCDACE80F000FCDACE80F0065
:1038500095E80F00ACE807001A0C2CF8023B8CF836
:1038600000209DF8043013B3DFF878C00DF1430554
:10387000E646EB6828686968AA681035AEE80F006C
:103880000DF173039D420CF1100CF1D1AA68286868
:103890006968ACE80700AA89AB7BACF800208CF81B
:1038A000023000E00024204624B0BDE8F0819DF8FD
:1038B0000730002BD8D19DF80B30002BD4D19DF8C8
:1038C0000D30002BEFD0CFE710E100200C2D0020B1
:1038D000102D0020B49C002014E1002011E10020F4
:1038E000B8340020E49F002018B12F2902D0002016
:1038F0007047704700230122844630B591B0CDE96E
:103900000133039304AC8DF80F2000F12005A64687
:10391000DCF80000DCF80410DCF80820DCF80C30DF
:103920000CF1100CAC45AEE80F0004F11004EED120
:10393000DCF80820DCF80000DCF80410AEE8070032
:10394000BCF80C30AEF80030164B9CF80E201B78FB
:103950008EF8022013B3144B1968EFF3108272B67D
:10396000D1E8CFCF0120BCF1000FF9D1C1E84C0F55
:10397000BCF1000FF4D1BFF35F8F0C4918685A6097
:1039800009780023C0E88F3F82F3108804A803F071
:10399000CFFF01A8FEF7CEFF11B030BD034B197861
:1039A000F4E700BF10E10020A49C002013E10020F8
:1039B0002DE9F04182B00E46054604F0BBF8C1B2D5
:1039C00000295BD1334B1B78002B57D00191FEF7B8
:1039D00023FF0446002851D02F4B1B68002B4DDAE3
:1039E0002E4B2F481B684FF4C772002B0CBF4FF4AF
:1039F000CC7300230199184498460CBF0127002777
:103A00005CF0F6FC012E034632463CDD29465CF0B4
:103A1000ABFC0346234D03F10D0CAE460CF1100C2C
:103A2000BEE80F004CF8043C1F4B10359E454CF887
:103A3000100C4CF80C1C4CF8082CEED14FF4CC7246
:103A40002B46174902FB071E07CBCCF80000CCF829
:103A50000410CCF808201A889B78ACF80C208CF85D
:103A60000E300D4BCEF890611F604FF036038EF88C
:103A70008E314FF001038EF8943100E0002420468F
:103A800002B0BDE8F081C5D12A78054901F80820C7
:103A9000C0E700BF10E100200C2D0020102D0020F9
:103AA000B49C0020E49F002014A000202DE9F041E8
:103AB0002A4B0446197896B069B958225CF098FCF4
:103AC000FF2320462649274A84F83830C4E90412E7
:103AD00016B0BDE8F081244B1A68EFF3108572B67A
:103AE000D2E8CF0F01210028FAD1C2E8401F0028F8
:103AF000F6D1BFF35F8F582268461C495D605CF0C9
:103B000063FC1B4A1949D2E90067174B4A7A002027
:103B100090461B68C3E88F0F85F3108822B156EAE0
:103B200007030CD14FF000085822694620468DF853
:103B300009805CF049FC204616B0BDE8F08105F034
:103B40001BF94FF47A7200235CF026FC801B61EBBA
:103B50000701FB2871F10001E4D2E5E710E1002044
:103B60000180808080000008A49C0020182D002087
:103B7000C034002000000000042800D07047002A54
:103B8000FCD02DE9F0431178164633299FB000F0A0
:103B900021873AD80339CAB2132A33D8132931D826
:103BA000DFE811F0BA013000B001DE021D02300082
:103BB0003000300030003000300030003000300085
:103BC00030003000300030003000F5010121002AC3
:103BD00000F05D87AA4B1B78002B1CBF0021002240
:103BE00000234FF6FF74DFF8FCC2A6488CF80010E3
:103BF000A549A64D0A70A649A64A2B700C80036001
:103C0000838013701FB0BDE8F083DD2900F00A87C0
:103C1000044600F2EC82602900F09B80DC29F1D19F
:103C20009D4B1B78002BEDD09C4B1B78002BE9D1D2
:103C3000137C002B41F00781737E002B00F073870B
:103C4000B07E082840F26F8706F11B04234606F178
:103C5000130C844413F8012B02F12001C9B2A2F124
:103C6000410EBEF1190F98BF0A46642A40F02F8713
:103C70001A7802F12001C9B2A2F1410EBEF1190F6A
:103C800098BF0A46752A40F022875A7802F120012F
:103C9000C9B2A2F1410EBEF1190F98BF0A46612ABE
:103CA00040F015879A7802F12001C9B2A2F1410EC5
:103CB000BEF1190F98BF0A466C2A40F00887DA78DF
:103CC00002F12001C9B2A2F1410EBEF1190F98BF55
:103CD0000A46732A40F0FB861A7902F12001C9B224
:103CE000A2F1410EBEF1190F98BF0A46652A40F0B5
:103CF000EE865A7902F12001C9B2A2F1410EBEF15D
:103D0000190F98BF0A466E2A40F0E1869A7902F1AF
:103D10002001C9B2A2F1410EBEF1190F98BF0A46A7
:103D2000732A40F0D486DA7902F12001C9B2A2F1F7
:103D3000410EBEF1190F98BF0A46652A40F0C786AA
:103D4000B01C062208A910F013F808A8FFF7C4F960
:103D500058E79178022900F0718700297FF452AF6B
:103D60009FED457B474B4FF6FF7019609980494B9B
:103D70004B4A1970454B117019704A4B4E221980ED
:103D8000494B01911970494B1970494B83ED007BE8
:103D9000484B83ED007B484B83ED007B474B83ED25
:103DA000007B474BC3E90011C3F80710454B83ED77
:103DB000007B454B83ED007B444B83ED007B444B04
:103DC0001970444B1970444B1970444B83ED007BC0
:103DD000314B1970314B1970414B1980414B19709F
:103DE0002B4B188040485CF003FB9FED237B3F4A40
:103DF0003F4B01993F4811709A7980ED007B6AB181
:103E0000DA795AB91A7A4AB993E80300089008A8EF
:103E10000193ADF8241011F071FB019B00241A4AA4
:103E2000C3E900441C721470FEF7A8FC324B334AFD
:103E3000C3E9004410689C60EFF3108172B6D0E8CB
:103E4000CFCF0123BCF1000FF9D1C0E84C3FBCF14A
:103E5000000FF4D1BFF35F8F294B10685160C3F896
:103E60000140A3F805401C811C70C0E88F4F81F30E
:103E70001088C7E6AFF300800000000000000000DB
:103E800011E10020AC9C00201CE1002021E1002079
:103E9000142D002016E1002017E1002018E1002079
:103EA0000FE10020D4E000201FE1002020E10020ED
:103EB0000835002010350020C8340020E0340020F0
:103EC0003CA00020D8340020F83400200035002029
:103ED0001BE100201AE1002012E10020F034002054
:103EE000D6E0002022E1002054A800201DE100209F
:103EF000A4A8002018350020989C0020A49C002035
:103F0000182D00208A4B8B4A1B881278002B7FF4D7
:103F10005DAE894B19785AE6B378002B40F0BA852C
:103F20000321304601930FF0D9FE731D0646184653
:103F3000019B08A9089306228B800D460FF018FFFD
:103F40004FF0010C7D4A7E497E487F4C80F800C0CE
:103F50000E80D5E90001106091802268019B002A43
:103F600000F00E86794903E02268934280F00886CB
:103F70002846CDE901130FF0A7FE029B01990133FA
:103F800006310028F0D10122714B1A703AE6714CCB
:103F9000062208A9B01C0FF0EBFED4E9003213434F
:103FA00008AD40F08585684C2368002B00F024861E
:103FB0000023664903E02268934280F01D8628466C
:103FC000CDE901130FF080FE029B01990133063108
:103FD0000028F0D12846604916F0AEFA12E65F4C90
:103FE000A27A002A3FF40EAE08A9F01C0622019323
:103FF0000FF0BEFE214608A80FF066FE00287FF4F1
:1040000001AEB278002A40F0EA85019B092B40F20C
:10401000E68506F10801093B11F8010F002800F0C0
:10402000C38701329A42F7D1082B40F2D88506F1B6
:104030000902174606F1010C9C4412F8011B01F11C
:10404000200E5FFA8EFEA1F14100192898BF71463B
:10405000642940F09885117801F1200E5FFA8EFEF8
:10406000A1F14100192898BF7146752940F08B8550
:10407000517801F1200E5FFA8EFEA1F1410019285E
:1040800098BF7146612940F07E85917801F1200E3C
:104090005FFA8EFEA1F14100192898BF71466C2984
:1040A00040F07185D17801F1200E5FFA8EFEA1F10A
:1040B0004100192898BF7146732940F06485117931
:1040C00001F1200E5FFA8EFEA1F14100192898BF80
:1040D0007146652940F05785517901F1200E5FFA4C
:1040E0008EFEA1F14100192898BF71466E2940F05B
:1040F0004A85917901F1200E5FFA8EFEA1F141000F
:10410000192898BF7146732940F03D85D17901F196
:10411000200E5FFA8EFEA1F14100192898BF71466A
:10412000652940F030850D48FEF7D6FF6AE500BFEF
:10413000D6E000200FE1002018E10020AC9C002018
:10414000142D002016E1002048A0002024A000200B
:1041500021E10020F0340020C4080610989C0020C3
:10416000B3780321304699460FF0B8FD4FF6FF7241
:10417000904B1B8893423FF445AD98427FF442AD8B
:10418000B9F1000F3FF43EAD8B4B1B783BB18B4B2D
:104190001A7A22B98A490978002940F03987DFF86C
:1041A0004482884C0121884AD8F800301170EFF31E
:1041B000108272B6D3E8CF0F01210028FAD1C3E8EC
:1041C000401F0028F6D1BFF35F8F0420236DD8F87D
:1041D000001001332365C8F80420002384F84990B7
:1041E00084F84800C1E88F3F82F310880AE5EF2980
:1041F0007FF408AD9278531E0C2B0ED8DFE813F035
:1042000070026A0115020D000D000D000D0017016E
:104210000D000D00F4006A002000083A052A3FF660
:10422000F1AC01A353F822F043440010053C001008
:10423000053C0010FD430010E942001055420010FB
:10424000032130460FF04AFD604B1B8813B19842A2
:104250003FF4D8AC7279002A40F08086DFF8848180
:10426000584CD8F80010EFF3108372B6D1E8CFCFD6
:104270000120BCF1000FF9D1C1E84C0FBCF1000FD7
:10428000F4D1BFF35F8FB2FA82FC4FEA5C1C0021CD
:10429000D8F80000C8F8043084F805C0C0E88F1FC3
:1042A00083F31088002A7FF4ADAC494B597A00297A
:1042B00040F02D8701215A601A729A72197004F029
:1042C0005BFD4FF47A7200235CF066F8414CC4E960
:1042D000000197E4032130460FF000FD3B4B1B88A3
:1042E00013B198423FF48EAC052130460FF0F6FC36
:1042F00000283FF487ACF279A12A00F00B87002355
:10430000012A00F09E87312A7FF47CAC4E3398421C
:104310007FF478AC0246F11D08A803F0F7F908997C
:10432000002940F0FB87254B9A79154622B11A7A6D
:10433000002A01F0C9800D46274CD4E9003213430E
:1043400041F06180DFF89C801E4CD8F80030EFF31C
:10435000108272B6D3E8CF0F01210028FAD1C3E84A
:10436000401F0028F6D1BFF35F8F089BC8F80420D8
:104370001E46002B01F012800025636C013363643C
:104380000024D8F80030C3E88F4FD8F8043083F306
:104390001088002D3FF436AC04F0EEFC00234FF4FF
:1043A0007A725BF0F9FF0D4B1C700D4BC3E90001F5
:1043B00028E400BF142D002021E10020A4A8002043
:1043C00016E10020182D00201EE10020D4E000207E
:1043D0003CA00020D8340020F034002011E100205F
:1043E000B8340020A49C0020032130460FF076FC56
:1043F000A54B1B8813B198423FF404AC0020A34A9C
:104400007379107023B1A24A1188002940F0D28537
:1044100004F0B2FC4FF47A7200235BF0BDFF9D4CB8
:10442000193041F10001C4E90001FFF7EBBB0321A2
:1044300030460FF053FC944B1B8813B198423FF465
:10444000E1AB032130460FF049FC914B1B888342BE
:104450007FF4D8AB904B1A78022A17467FF4D2AB80
:10446000717900200D4600218C4A012DC2E900011E
:1044700093F8088040F07787597A894A19B91078FB
:10448000032841F2928030460621CDE901230FF046
:1044900025FCDDE901232F4682490F7000211878A1
:1044A000022840F04587187A404540F074874FF065
:1044B000000C587A83F808C0002801F05A800621C1
:1044C00082F800C0197000200021774BC3E9000179
:1044D000FFF798BB032130460FF000FC6A4B74795C
:1044E0001A8812B1904200F02882002C40F0BD845E
:1044F00004F042FC4FF47A7200235BF04DFF6B4BEB
:1045000008AD1C706A4BC3E90001032130460FF06F
:10451000E5FB062201465E4BB01819800894294637
:10452000AC800FF025FC634B9A79002A40F07E8620
:10453000D5E900010022186001205F4C99802168B4
:10454000A3F807209871002900F031855B4903E04A
:104550002068824280F02B852846CDE90223019114
:104560000FF0B2FB029A0199039B01320631002839
:10457000EED10122DA7104F0FFFB4FF47A720023CE
:104580005BF00AFF42F2107200234D4D80182B7031
:104590004C4C4D4D41F10001A846C4E900012A6888
:1045A000EFF3108072B6D2E8CF4F0121002CFAD180
:1045B000C2E8441F002CF6D1BFF35F8F4349444C3F
:1045C000D1E900210A436860237140F0E4850021AD
:1045D0000122A370A4F80510D8F800302270C3E8B7
:1045E0008F1F80F31088FEF7C9F800219FED247B10
:1045F000294B284A19605960C3F80710284B82EDEF
:10460000007B2648284A1970264B80ED007B82EDFE
:10461000007B30484E2219705BF0EAFE9FED187B5C
:104620002D4B83ED007BFFF7EDBA032130460FF0F1
:1046300055FB154B1A8812B1904200F0818103217D
:1046400030460FF04BFB124B1B8813B198427FF49E
:10465000D9AA08A8FFF72AFA204B99461B784BB92C
:104660009DF82430002B40F0A8859DF82030012BC8
:1046700000F0A3851FB0BDE8F043FEF7F9B900BF15
:104680000000000000000000D4E000201DE1002038
:10469000D6E00020D83400203CA00020F8340020D0
:1046A0001BE100201AE100200035002011E100206C
:1046B000B8340020A4A8002048A0002024A0002096
:1046C00018E10020C8340020A49C0020F034002011
:1046D000182D002054A80020183500201EE10020CD
:1046E000032130460FF0FAFA9F4B1B8813B1984212
:1046F0003FF488AA032130460FF0F0FA737B074697
:10470000002B7FF47FAA08A9984C0893701D8B801A
:10471000062201930D460FF02BFB23681E46002B4B
:1047200000F01287019B924903E02268934280F0D7
:1047300016852846CDE901130FF0C6FA029B0199B0
:10474000013306310028F0D18A4A9046D2E900327E
:10475000134340F0B7860126874B9A79002A40F030
:10476000D285012100229971D5E900019980216843
:10477000A3F807201860002900F0BC857C4903E0FD
:104780002068824280F0B6852846CDE90223019157
:104790000FF09AFA029A0199039B01320631002820
:1047A000EED10122DA7104F0E7FA4FF47A720023B5
:1047B0005BF0F2FD4FF0000C704B714A714C83F8C6
:1047C00000C01378C4E90001002B40F096856E48C4
:1047D000054680460368EFF3108172B6D3E8CF4FE9
:1047E0000120002CFAD1C3E8440F002CF6D1BFF30E
:1047F0005F8F0023654C137069602A68E370C2E81C
:104800008F3F81F31088624A137091462B68EFF353
:10481000108272B6D3E8CF0F01210028FAD1C3E885
:10482000401F0028F6D1BFF35F8FE36C6A6001334D
:10483000E36416B1636D013363650023D8F800109B
:10484000C1E88F3F82F31088524A3E46C2E90033E6
:10485000C2F80730504A9FED427B17804FF00107A6
:104860004E4A194617704E4A4E4813704E4A1370FE
:104870004E4B4E2283ED007B4D4B83ED007B4D4B29
:1048800083ED007B5BF0B4FD9FED357B00234A4A4E
:10489000D8F8000082ED007B484A1370EFF31081D6
:1048A00072B6D0E8CFCF5FF0010EBCF1000FF8D1A7
:1048B000C0E84CEFBCF1000FF3D1BFF35F8FD8F825
:1048C0000000C8F804102771C0E88F3F81F31088FA
:1048D000012130461BF0CCFE00230646002840F0A4
:1048E000DF84364A177004F047FA4FF47A720023D7
:1048F0005BF052FD42F21073C018314B41F10001E0
:10490000D8F8002018605960EFF3108372B6D2E82F
:10491000CF0F01210028FAD1C2E8401F0028F6D1AC
:10492000BFF35F8FD8F80020C8F804302770C2E8C2
:104930008F6F83F31088FFF765B9002C00F0F183C7
:104940000022002000211A801E4B1F4CC3E90001E9
:104950001E4D1F4B2A702270C3E90001FFF752B9A8
:104960000000000000000000D4E0002048A000206B
:1049700024A00020F0340020A4A8002011E1002091
:1049800012E10020B8340020A49C0020182D002043
:104990001EE100203CA00020D6E0002018E100200D
:1049A0001BE1002054A800201AE10020D834002088
:1049B000F834002000350020183500201DE10020CB
:1049C000C8340020083500201FE1002020E100202D
:1049D000103500208B4C062208A9B01C0FF0C8F936
:1049E000D4E90032134308AD40F0BC80864C236804
:1049F000002B00F0FC800023844903E022689342EE
:104A000080F0F5802846CDE901130FF05DF9029B97
:104A10000199013306310028F0D1284615F0D2FD66
:104A2000FFF7F0B87A4A1368EFF3108172B6D3E853
:104A3000CF4F0120002CFAD1C3E8440F002CF6D14F
:104A4000BFF35F8F0023734C73485160237012686B
:104A5000C370C2E88F3F81F31088704B1B78002B26
:104A60003FF4D0A86E4B1B78002B7FF4CBA86D4C85
:104A7000A37A1BB1E37A002B00F0D8810023C4E9AC
:104A80000033A3601FB0BDE8F043FEF705B911463F
:104A9000FFF7A6B800234FF6FF74634A63486449E2
:104AA000644D04802B70136093800B70FFF7AAB8DD
:104AB00004F062F94FF47A7200235BF06DFCD4E9E4
:104AC000002390429941FFF485AAFFF76CBA9C45F8
:104AD0007FF4C0A8122826D906F12D0E25185648B5
:104AE000AEF1130402E0A6453FF42AA914F8013FF1
:104AF000027803F12001A3F1410CC9B2BCF1190FF6
:104B000098BF0B4602F12001A2F1410CC9B2BCF1E1
:104B1000190F98BF0A469A4200F10100E3D00EF146
:104B2000010E7545DBD13F4CA37A002B7FF46AA8B8
:104B3000092130460FF0D8F800F4F853B3F5A06F10
:104B40007FF460A806222146B01C0FF011F9337AD9
:104B50000C213046A3710FF0C1F80123208163813D
:104B6000FFF750B804F008F94FF47A7200235BF0B5
:104B700013FCD4E9002390429941FFF44EAF35E78E
:104B80000022FFF701BA94457FF457AA122B26D9C9
:104B900006F11B05FE18284AA5F1130C02E0AC45EE
:104BA0003FF4C1AA1CF8013F117803F12000A3F1E2
:104BB000410EC0B2BEF1190F98BF034601F12000AB
:104BC000A1F1410EC0B2BEF1190F98BF0146994242
:104BD00002F10102E3D06B1C9E421D46DBD1002393
:104BE000C4E90033A360FEF757F8FFF70BB8284677
:104BF00015F002FDFFF706B8284615F0C9FCFFF7CF
:104C000001B800BFF034002048A0002024A00020FC
:104C1000A49C002012E10020182D002017E10020A4
:104C200018E10020989C0020AC9C0020142D00204E
:104C300016E1002021E10020CC0806104FF0000111
:104C4000A14A9FED9F7B117000224FF001059F4B01
:104C50009F491A605A60C3F807209E4B0D7083ED80
:104C6000007B9D4B00211A709C4B9D4883ED007B7F
:104C70009C4B83ED007B9C4B83ED007B9B4B83ED3A
:104C8000007B9B4B83ED007B9A4B1A709A4B1A70FA
:104C90004E225BF0ADFB9FED8A7B984A4FF6FF7189
:104CA00082ED007B0022964B1A609A80954B1A7019
:104CB000954B1A70954B1A70954B1980954B1A703D
:104CC000954B1A7004F058F84FF47A7200235BF099
:104CD00063FB0022914B9FED7A7BC3E90001904B6F
:104CE0001221C3E900221A7200228E4B0846C3E942
:104CF00000229A608C4B1A808C4B1A708C4B1A7065
:104D00008C4B83ED007B8C4B83ED007B15F0E0FC3E
:104D1000012015F0EDFC012015F07CF9874B0020F7
:104D20001D7015F03DF9864815F044FB42F208501D
:104D300015F00CF8052015F017F8002015F076FC9A
:104D4000032011F0B1FA002011F0B6FA7D4B19687A
:104D5000EFF3108272B6D1E8CFCF0120BCF1000F83
:104D6000F9D1C1E84C0FBCF1000FF4D1BFF35F8F54
:104D7000012019685A60744BC3F801001C700023AD
:104D8000C1E88F3F82F31088704A714C05A81D4618
:104D9000C2E90033C2E90233C2E904332360059358
:104DA00010F0E6FB00282ED04FF00003CDE90955A6
:104DB00008950695ADF81230ADF81C300B952368B8
:104DC000032B1DD80DF1120308AA06A905A810F09F
:104DD000DBFBA8B123687BB100235C4906A8CDE9C1
:104DE00001130EF071FF029B019901330631002877
:104DF000E5D022689342F1D306A8FDF75DFDDEE71A
:104E000005A810F0D5FB2368002B7EF4FBAE514BB8
:104E10001B78002B3EF4F6AE2D4B1B78002B3EF496
:104E2000F1AE1FB0BDE8F043FDF7DEBF01232289DC
:104E30002046A17942F40042E37215F05BFB0028A2
:104E40003EF4E0AE1AE6132110460EF047FF15219E
:104E5000044630460EF042FF0146204602F08AFA30
:104E600000283EF4E9AEFEF76BBF01203A49354A0F
:104E700008701368EFF3108172B6D3E8CFCF01202A
:104E8000BCF1000FF9D1C3E84C0FBCF1000FF4D115
:104E9000BFF35F8F4FF0040C2B4B106851601A6DFD
:104EA00083F8494001321A6583F848C00022C0E8FF
:104EB0008F2F81F31088FFF7DDBB00BFAFF30080B9
:104EC000000000000000000012E100203CA00020D3
:104ED0000FE10020F034002017E10020C83400204A
:104EE00054A80020E0340020D8340020F8340020FA
:104EF000003500201BE100201AE1002018350020B9
:104F0000AC9C00201DE1002011E1002022E10020E6
:104F1000142D002016E1002021E10020B8340020EB
:104F2000A4A80020989C0020D4E000201FE10020CD
:104F300020E1002008350020103500201CE1002071
:104F4000B0080610A49C0020182D002024A00020EA
:104F500048A0002010E100201EE100200120A84D03
:104F6000A849A8462B680870EFF3108172B6D3E801
:104F7000CF4F0120002CFAD1C3E8440F002CF6D10A
:104F8000BFF35F8F0620A04C6960236D2D6801334D
:104F9000236584F84920002384F84800C5E88F3F42
:104FA00081F31088FFF75DB91346FFF73DB8002283
:104FB000FFF7E0BA4FF0010E924C914984F800E0FF
:104FC000D1F800C0EFF3108472B6DCE8CF5F5FF079
:104FD000010E002DF9D1CCE845EF002DF5D1BFF33E
:104FE0005F8F4FF0050ED1F800C04C60864981F804
:104FF00049300B6D81F848E001330B65CCE88F0F29
:1050000084F3108810881FB0BDE8F0431BF012BC79
:10501000CDE901237D497E4C03C9089008A8ADF86D
:10502000241010F06BFA2168029B002900F04682E0
:10503000784A019E114608A8CDE9022301910EF09D
:1050400043FEDDE90112D4F800C0039B06F1010E16
:10505000002840F06681E64527D2062707FB0EFEB2
:1050600007FB06F1B01C354652F80E60B8465650A4
:1050700002EB0E06B788114460458F8015D2474673
:1050800007FB00F0E91C1558614542F80E5002EB91
:10509000000EBEF80450B58007D207FB01F1555849
:1050A000114415508988AEF8041006200CF1FF3128
:1050B000216000FB01F10020514D02EB010C50502A
:1050C000A846ACF804002A68EFF3108172B6D2E863
:1050D000CFEF5FF0010CBEF1000FF8D1C2E84ECF68
:1050E000BEF1000FF3D1BFF35F8F2268464C121A56
:1050F00018BF01226960E2712A68C2E88F0F81F34C
:1051000010880022C3E900221A72FFF74BB806216B
:10511000FFF7D4B801283EF475AD0123327AFFF7CA
:10512000EFB803F029FE4FF47A7200235BF034F9F4
:105130004FF0010E42F21073374A1B1882F800E05C
:10514000364ADFF8E4C01360354BCCF8041041F167
:105150000001CCF8000051601C70FEF753BD314ACD
:105160009046D2E90032134310D0002603F004FE2B
:105170004FF47A7200235BF00FF9D8E900239042D4
:105180009941FFF4E9AA002E7FF4E5AA38461BF006
:1051900095FAFEF737BD03F0EFFD4FF47A72002366
:1051A0005BF0FAF81F4A136898425368686899419F
:1051B00034BF01230023FFF70ABA0122104989F8FE
:1051C00000200B68EFF3108072B6D3E8CF4F0122B6
:1051D000002CFAD1C3E8442F002CF6D1BFF35F8F27
:1051E0000824094B48601A6D096801321A65A3F852
:1051F00048400022C1E88F2F80F31088FFF73ABAA9
:10520000A49C00201EE10020182D0020AC9C002052
:1052100048A0002024A000201FE10020103500201D
:1052200020E10020F03400200835002019462846EF
:1052300001930EF049FD019B00287FF479A9FFF747
:105240009AB90A3383427EF4DDAC03F095FD4FF446
:105250007A7200235BF0A0F800249F4D9F4AC5E9B5
:1052600000019F4913680C70EFF3108172B6D3E808
:10527000CFCF0120BCF1000FF9D1C3E84C0FBCF136
:10528000000FF4D1BFF35F8F96485160436C1268F2
:1052900001334364C2E88F4F81F31088FEF7B2BC3C
:1052A0004FF00101D8F8002089F80010EFF31081C9
:1052B00072B6D2E8CFCF0120BCF1000FF9D1C2E81D
:1052C0004C0FBCF1000FF4D1BFF35F8F226DD8F803
:1052D000000001322265032284F84960C8F80410F6
:1052E00084F84820C0E88F3F81F31088FDF7C0FBA9
:1052F000FEF788BC0022FFF755BA019215F0BCF802
:10530000019AFFF764BA1946284601930EF0DCFCB7
:10531000019B00287FF425AAFFF745BA0025FFF777
:105320000BB8E64501F1060180F0C880764682E6BA
:105330000023062813703FF4C6A800293FF468A88C
:105340000022694B694C1A7003F016FD4FF47A7213
:1053500000235BF021F810F5FA7041F10001C4E977
:105360000001FEF74FBC0621304601930EF0B6FC5B
:10537000019B002D40F01681B8F1050F00F010815F
:10538000B8F1090F00F00A81B8F1200F00F0F780A2
:10539000574AFFF781B800231370CEE7554809A993
:1053A00002F072F90122544B05465A721A78022A09
:1053B00002D006221E721A700321012300202170E0
:1053C00000214A4ADFF82CE1A37123724B4B0DF107
:1053D000240CC2E90001C3E90001BCE80F00AEE8FB
:1053E0000F00BCE80F00AEE80F009CE80F00AEE82D
:1053F00007002EF8023B1B0C8EF80030236C0133A3
:105400002364FEF7BDBF03F0B7FC4FF47A720023AC
:105410005AF0C2FFD4E9002390429941BEF492AF02
:10542000002D3EF48FAF00239FED297B3449354A90
:105430003548C1E900338B6003703449137884ED3B
:10544000007B81ED007B002B40F0B380234DA8460C
:105450002968EFF3108372B6D1E8CF4F0120002CFA
:10546000FAD1C1E8440F002CF6D1BFF35F8F0020C2
:105470001C4C29686B601070E070C1E88F0F83F3DB
:10548000108814F08DFD2A68EFF3108372B6D2E80D
:10549000CFCF0121BCF1000FF9D1C2E84C1FBCF104
:1054A000000FF4D1BFF35F8F00202A686B60A070FB
:1054B000C2E88F0F83F31088FEF747BFDFF81C8028
:1054C000084C1EE6012651E61149124C30E000BF9F
:1054D0000000000000000000B8340020A49C002060
:1054E00011E10020182D00201AE1002000350020D5
:1054F0001BE10020282D00203CA00020C834002003
:10550000989C002012E1002017E10020E0340020E8
:1055100024A0002048A000202D48CDE902230191BD
:105520000EF0D2FB0199039B063148B1029A013279
:1055300020688242F0D326480193FDF7BDF9019B14
:1055400001221A72FEF7F8BE224AD2E90032134352
:105550003FF41CAE03F010FC4FF47A7200235AF0B3
:105560001BFF1C4BD3E9002390429941FFF4F4A8A0
:105570000CE619B30321987210701970E0E63A46F0
:10558000154951F8222082427FF402AF327A424517
:105590007FF4FEAE0121114AFEF781BF0122EFE741
:1055A0002A46EDE70D4AFEF776BF19721D70FEF729
:1055B0002FBF019214F060FF019A47E758681170FD
:1055C0000130022898BF012458601C70FEF720BFEC
:1055D000A4A80020F0340020905206101BE1002007
:1055E0002DE9F04F444CADB0237813B92DB0BDE890
:1055F000F08F424D2B781BB1414B1B88002B46D1BD
:10560000404D414A2B781088002B00F0F9813F4B28
:105610001A7842BB3E4EDFF804813B4B98F80010ED
:105620001A883378002A00F00B82002B00F0618288
:10563000002940F05D82374B1B78002B7CD103F0B2
:105640009BFB00234FF47A725AF0A6FE324D0F46B0
:105650002B788146013B032B6ED8DFE813F0F7026D
:10566000C302A0024E022A4A16461278002A5DD0D2
:105670002A4A90461278002A40F03782002840F0EB
:10568000D183FDF7F5F90022204B1A70C5E703F02E
:1056900073FB234B1B78272B1F4629D84FF47A72B4
:1056A00000235AF079FE1F4BD3E90023904271EB9F
:1056B00003031DD21C4AD2E90063B04271EB03031D
:1056C0009ED310F1FA030E4E1548136007F1010343
:1056D0000370308841F10001019051601BF0AAF87D
:1056E0003388019883428BD10D4B1B78272B87D9A8
:1056F00000232B7084E700BF10E100201FE1002091
:10570000D4E000201CE10020D6E0002022E10020AF
:105710000FE100201DE100203CA0002011E100204D
:1057200020E100201035002008350020DFF8CC8271
:10573000002840F0E08128702378002B00F03481AD
:105740009D4B1968EFF3108272B6D1E8CF5F01204C
:10575000002DFAD1C1E8450F002DF6D1BFF35F8FC0
:1057600019685A60954B1E780023C1E88F3F82F379
:10577000108898F80050002D7FF438AF26B1904B78
:105780001B88002B40F09E828E4DD5E900321343DA
:1057900019D003F0F1FA4FF47A7200235AF0FCFDAD
:1057A000D5E900239042994180F0AD8003F0E4FAFE
:1057B0004FF47A7200235AF0EFFDD5E900239042AE
:1057C0009941C0F09880804DD5E90032134340F0F4
:1057D0001D817E4B1B782BB17D4DD5E900321343E3
:1057E00040F05F817B4D2B68002BFFF6FFAE2378E6
:1057F000002B3FF4FBAEFDF70FF800283FF4F6AEA8
:10580000754C2368002B0DDB03F0B6FA4FF47A7267
:1058100000235AF0C1FD714BD3E900239042994116
:10582000FFF4E4AE664A2B6810884FF4CC7202FB9A
:1058300003F21E466A4B991801321A44D1F890318E
:1058400091F88E11013B9BB21BF02EFE022800F056
:10585000EC8200287FF4CAAE2368834206DB4FF453
:10586000CC715F4A01FB032383F894014FF0FF33AF
:1058700026602B6003F080FA4FF47A7200235AF00E
:105880008BFD4FF4CC73564A043003FB062494F886
:105890008E31524D41F10001362B286069607FF452
:1058A000A5AE454C2368EFF3108272B6D3E8CF0F54
:1058B00001210028FAD1C3E8401F0028F6D1BFF328
:1058C0005F8F40F20111474B6260DA681981013243
:1058D000DA6003F051FA4FF47A7200235AF05CFD5B
:1058E000414D0023C5E900012268C2E88F3F63688B
:1058F00083F310887AE63D4B1B78002B7FF463AF6F
:10590000FDF7CAF95FE700239FED297B384A394943
:105910003948C2E90033037093600B7885ED007B52
:10592000002B40F0CB81244D2B68EFF3108272B630
:10593000D3E8CFCF0120BCF1000FF9D1C3E84C0F61
:10594000BCF1000FF4D1BFF35F8F0020254B08702E
:105950006A602968D870C1E88F0F82F3108814F04C
:105960001FFB2968EFF3108272B6D1E8CFEF5FF02A
:10597000010CBEF1000FF8D1C1E84ECFBEF1000F0F
:10598000F3D1BFF35F8F174B00201978987002296D
:1059900008BF04216A6008BF197000232968C1E8A4
:1059A0008F3F82F310880EE7044B1E78E1E600BFBC
:1059B0000000000000000000A49C002015E1002071
:1059C000D6E00020F0340020C834002019E1002087
:1059D000D03400200C2D0020102D0020E8340020B1
:1059E000B49C0020182D0020C034002018E10020B5
:1059F000989C002012E1002017E1002011E1002016
:105A0000DFF8288300287FF416AE95E603F0B4F99A
:105A10004FF47A7200235AF0BFFCD5E9002390427C
:105A20009941FFF4D6AE16A8FEF740F89DF85E3017
:105A3000002B00F07D8100220023C5E90023C8E689
:105A4000002B00F04C81002940F03681A84B1B78D8
:105A5000002B7FF471AE122108462B70019314F0D5
:105A600037FE012014F044FE019814F0D3FAA14D42
:105A7000012014F0CFFAD5E90032317813430F46F4
:105A800040F0B781002900F0878198F8000080F08D
:105A9000010014F085FA984B188800287FF4CBADEC
:105AA0004AE603F069F94FF47A7200235AF074FC65
:105AB000D5E9002390429941FFF494AE3A220021A7
:105AC0000DF159005AF094FC012316A88DF85830B6
:105AD000FCF730FF00283FF485AE0023874A13709F
