:020000041000EA
:10000000002008205B0100101B0100101D010010E2
:100010001101001011010010110100101101001058
:100020001901001019010010190100101F01001022
:10003000110100101901001021010010230100100E
:100040001101001011010010110100101101001028
:100050001101001011010010110100101101001018
:100060001101001011010010110100101101001008
:1000700011010010110100101101001011010010F8
:1000800011010010110100101101001011010010E8
:1000900011010010110100101101001011010010D8
:1000A00011010010110100101101001011010010C8
:1000B00011010010110100101101001011010010B8
:1000C00011010010110100101101001011010010A8
:1000D0001101001011010010110100101101001098
:1000E0001101001011010010110100101101001088
:1000F0001101001011010010110100101101001078
:100100001101001011010010110100101101001067
:10011000EFF30580103800BE00BE00BE00BE00BE7A
:1001200000BE00BEF2EB8871807B0A10A07B0A1033
:100130009C01001090A31AE7D3DEFFFF42012110BB
:10014000FF010000E8AE0A00793512AB00201E491D
:10015000086006C881F3088810474FF050400068D7
:1001600008B10020F3E70DA40ECC002902D000F066
:1001700012F8F9E71549164A002000E001C1914242
:10018000FCD114498847144988471449884700BE60
:10019000FDE701C901C29A42FBD37047A07B0A1058
:1001A000100100209035002020B00A100000082027
:1001B0000000082020B00A100010082000100820BD
:1001C000000000007047000008ED00E090350020BE
:1001D000A4C7002021A10010BD16001019A1001015
:1001E000704700BF00B5042183B0019008F0B2FB56
:1001F000019803B000BD00BF2DE9F04FF7B00746EE
:10020000369030200C4608F0A1FB00F13005064680
:1002100038602F220021BD6001305EF01DF90223FD
:1002200094F800907D60B9F1030F337000F087827D
:1002300090229946D0235027CDE90632B0234FF0C3
:10024000F00BCDE904377023CDE9023B102388275A
:100250000193C8234822CDE91537A823E827CDE923
:10026000133268232822CDE911379823D827CDE906
:100270000F325823B822CDE90D37F8237827CDE97E
:100280000B323823CDE90937182384220893C4237D
:10029000CDE93432A4234422CDE932326423E4226E
:1002A000CDE9303294232422CDE92E325423D422B6
:1002B000CDE92C32F423B422CDE92A32342374223E
:1002C000CDE928328C231422CDE926324C23CC22CE
:1002D000CDE92432EC23AC22CDE922322C236C224E
:1002E000CDE92032DC239C22CDE91E32BC235C22E6
:1002F000CDE91C327C23FC22CDE91A321C233C229E
:10030000CDE918320423179382237593C223749383
:1003100042237393A2237293E22371936223709317
:1003200022236F9392236E93D2236D9352236C9367
:10033000B2236B93F2236A937223699332236893F7
:10034000122367938A236693CA2365934A2364938F
:10035000AA233B93EA2360936A235B932A233A936D
:100360009A233D93DA2361935A236293BA233C93F1
:10037000FA2358937A235A933A2359931A235F9373
:100380000A235E9386235D93C6235C93462363937F
:10039000A6234093E6233F9366234293262341936B
:1003A00096234493D623439356234693B6234593EB
:1003B000F6234793762339933623489316233893AD
:1003C0008E234993CE2337934E234A93AE234C93E7
:1003D000EE234B936E234E932E234D939E235093E7
:1003E000DE234F935E235293BE235193FE235493F7
:1003F0007E2353933E2356931E2355930E235793E8
:1004000006234FF0800AC02140204FF0A00E4FF08D
:10041000E00C60254FF020084FF0300B08270C222D
:100420003E936379002B75D0DDE96E38DDE9741AEF
:10043000DDE972E0DDE9705C07936D9B86F8019061
:1004400006936C9B05936B9B04936A9B0393699B38
:100450000293DDE9673B0193669B1693659B1593B9
:10046000649B14933B9B1393609B12935B9B119330
:100470003A9B10933D9B0F93619B0E93629B0D9350
:100480003C9B0C93589B0B935A9B0A93599B099343
:100490005F9B0893DDE95D3735935C9B3493639BE9
:1004A0003393409B32933F9B3193429B3093419BCC
:1004B0002F93449B2E93439B2D93469B2C93459BBC
:1004C0002B93479B2A93399B2993489B2893389BCE
:1004D0002793499B2693379B25934A9B24934C9BB8
:1004E00023934B9B22934E9B21934D9B2093509B98
:1004F000579A1F934F9B1E93529B1D93519B1C9386
:10050000549B1B93539B1A93569B1993559B18937B
:100510003E9B1793A379002B36D0DDE92E78DDE9D9
:1005200032E0DDE9305C07972D9F179906972C9FE5
:10053000717005972B9FDDE9341A04972A9F039762
:10054000299F0297DDE9277B0197269F1697259F14
:100550001597249F1497239F1397229F1297219FEB
:100560001197209F10971F9F0F971E9F0E971D9FFB
:100570000D971C9F0C971B9F0B971A9F0A97199F0B
:100580000997189F089717466278B2B1DDE90F28DE
:10059000DDE9151ADDE913E0DDE9115C07920E9A39
:1005A000777006920D9A05920C9A04920B9A039218
:1005B0000A9A0292DDE9082B0192A27842B1DDE9A4
:1005C000061ADDE904E0DDE9025CD846019A7270A2
:1005D000E27822B1F2466146284686F80180227907
:1005E0000AB18A467070E2790AB186F801A0002B40
:1005F00000F09D80D4E90423C6F80630238BC6F8AA
:1006000002207381228F94F83A303282002B40F01E
:100610009280022294F83B1009B11346B27494F808
:100620003C2012B143F00403B37494F83D2012B19E
:1006300043F00803B37494F82C2012B143F0100374
:10064000B37494F8322012B143F02003B374002540
:10065000AE46AC4628462A462946B4F91C30A77E49
:10066000019367F30705019FB4F91EB067F30F25E7
:10067000C7F3072767F317456BF31F65C6F81350D9
:10068000CBF3072565F3070EB4F92050B4F922A087
:1006900065F30F2EC5F3072565F3174ECAF307253B
:1006A00065F3070CB4F92450B4F9269065F30F2CC8
:1006B000C5F30725A36A65F3174C6AF31F6E69F348
:1006C0001F6CC6F817E0C6F81BC04FEA136EB4F8EB
:1006D0002EC06EF30700B4F830806CF30F204FEAA1
:1006E0001C2C6CF31740C9F3072568F31F6065F3F2
:1006F0000702C6F82300A58E4FEA182060F3070111
:10070000E48E65F30F212D0A65F3174164F31F6131
:1007100063F30F22C6F82710190A61F317421B0C66
:10072000240A63F31F6286F82B40C6F81F20369810
:1007300077B0BDE8F08F01230322B3746AE7012389
:10074000D122912773707123CDE906274FF0510B09
:10075000B12202931123CDE9042B8927F1220193C1
:10076000C9230392CDE915374922A923E927CDE909
:10077000133269232922CDE911379923D927CDE9ED
:100780000F325923B922CDE90D37F9237927CDE965
:100790000B323923CDE90937192385220893C52364
:1007A000CDE93432A5234522CDE932326523E52255
:1007B000CDE9303295232522CDE92E325523D5229D
:1007C000CDE92C32F523B522CDE92A323523752225
:1007D000CDE928328D231522CDE926324D23CD22B5
:1007E000CDE92432ED23AD22CDE922322D236D2235
:1007F000CDE92032DD239D22CDE91E32BD235D22CD
:10080000CDE91C327D23FD22CDE91A321D233D2284
:10081000CDE918320523179383237593C32374936B
:1008200043237393A3237293E323719363237093FE
:1008300023236F9393236E93D3236D9353236C934E
:10084000B3236B93F3236A937323699333236893DE
:10085000132367938B236693CB2365934B23649376
:10086000AB233B93EB2360936B235B932B233A9354
:100870009B233D93DB2361935B236293BB233C93D8
:10088000FB2358937B235A933B2359931B235F935A
:100890000B235E9387235D93C7235C934723639366
:1008A000A7234093E7233F93672342932723419352
:1008B00097234493D723439357234693B7234593D2
:1008C000F723479377233993372348931723389394
:1008D0008F234993CF2337934F234A93AF234C93CE
:1008E000EF234B936F234E932F234D939F235093CE
:1008F000DF234F935F235293BF235193FF235493DE
:100900007F2353933F2356931F2355930F235793CE
:1009100007234FF0810AC12141204FF0A10E4FF073
:10092000E10C61254FF021084FF0310B09270D2212
:100930003E9376E5012904D8D2E900031B1A402B27
:1009400001D00020704710B50C46C2B00192FF21C3
:100950004FF4807202A85DF07FFD019B02A8D3E9ED
:100960000012521A5DF050FD04F2FB3000034FF408
:10097000805101905DF09CFD01984FF4807202A9B6
:100980005DF082FD012042B010BD00BF2DE9F041B5
:100990001F4D07462E6805F0C1FE99B34FF47A72D9
:1009A00000235DF041FDDFF8788006EB4606340158
:1009B00048F8040038465DF013F82822904228BF1A
:1009C0001046631D08EB06160021307103EB08008A
:1009D0005DF042FD394632795DF016FD0D480E4B53
:1009E0000268511C0C2928BF0C212A6801600132C1
:1009F000A3FB0243DB0803EB4303A2EB83022A6061
:100A0000BDE8F081054BA3FB00308009CBE700BFB8
:100A100090380020D4380020ABAAAAAAD34D621087
:100A2000D83800209C46002300B58BB08E46CDE917
:100A30000633CDE90833012342F00102ADF8160078
:100A40008DF81520DCE90010421A8DF818E08DF8B9
:100A5000143022D105A902A8089203F01FFBDDE99A
:100A60000212521A402A049B08D089B9079818B17B
:100A70000999091A07F06EFF0BB000BD0E48CDE9C9
:100A800000135DF005FDDDE9001301200B4A107035
:100A90000846591A07F05EFFE8E7104601910092F8
:100AA00007F054FFDDE900215DF0AEFC009A0790ED
:100AB00002440992CEE700BF9438002078C7002096
:100AC0002DE9F041804684B0104616460F465CF092
:100AD00087FF0446D8B1302828BF3024204607F0CD
:100AE00035FF0546314622460619009002965DF014
:100AF0008BFC3946404602226B460196FFF792FF77
:100B00002146284604B0BDE8F04107F023BF9FED21
:100B1000087B3946404602226B468DED007B0294ED
:100B2000FFF780FF04B0BDE8F08100BFAFF30080A5
:100B300000000000000000002DE9F04FD1E9005353
:100B40008B46DBF808909D42A9EB050383B018BFE4
:100B50004D603F2BDFF8448174D8DBF80060AC1B9C
:100B600004F1004340333F2B40F29080402C2CBFD7
:100B7000271904F140076FF000439F4228BF1F462A
:100B8000384607F0E3FEAE4282467DD0621E052A5B
:100B900033466FD9811B0139022902466AD924F0F4
:100BA000030C4FEA940E06EB0C0053F8041B83422F
:100BB00042F8041BF9D1644510D01A4612F8011B03
:100BC000D44495420AF82E1008D05A788CF80120A7
:100BD0009A1C95421CBF9B788CF8023054442346E3
:100BE000C6469C4608F14004019375460CF1100C72
:100BF0000FCDA5420EF1100E4CF8100C4CF80C1C49
:100C00004CF8082C4CF8043CEFD1019B03F1400553
:100C100026B13046A9EB060107F09CFECBE900A502
:100C20005744CBF808701B4B984503D1012003B003
:100C3000BDE8F08FDBF80890DFF85880A9EB0503DA
:100C40003F2B8AD9464608F14007344610350FCC71
:100C5000BC4206F1100645F8100C45F80C1C45F88E
:100C6000082C45F8043CF0D1DBF804504035CBF8B3
:100C70000450D8E753465444721E12F8011F03F87B
:100C8000011B9C42F9D1AAE70346A9E7024852F0AA
:100C90009BFF00BF00C03F1020E5051000B03F10D3
:100CA0002DE9F0410446B0B0402007F04FFE234646
:100CB000024600F1400C0490CDF818C004F1400148
:100CC0001D685C68D3F808E0D86810338B42156063
:100CD0005460C2F808E0D06002F11002F0D104A91B
:100CE0000AA8CDF814C003F0BFFA0A9BBDF82E4045
:100CF0009DF83010BBB94B1E112B00F25584DFE874
:100D000013F03000470060008500C200D900EB01FD
:100D1000ED009701DE001F0205021502F6015602E2
:100D20003502470225002046B54AFFF7C9FE0D9857
:100D300018B10F99091A07F00DFE049818B1069919
:100D4000091A07F007FE30B0BDE8F081DDE90D2398
:100D50009A4200F0978212212046AA4AFFF7B0FE7D
:100D6000E5E7042007F0F2FD0546A74B05F1040C6A
:100D7000186800222860012120461EABCDE91FCC57
:100D80001E95FFF74FFE0421284607F0E3FDCEE74E
:100D90000C2007F0DBFD05469C4B05F10C0C07CB46
:100DA0001EAB286069602046AA6002210022CDE9BE
:100DB0001FCC1E95FFF736FE0C21284607F0CAFD12
:100DC000B5E793491EA803F0C1FC182007F0BEFD4B
:100DD00005460DF1780C00F11803CDE91833179092
:100DE000BCE80F0028606960AA60BCE80300EB6003
:100DF0002861696120469DF83010002217ABFFF78B
:100E000011FE1821284607F0A5FD90E7DFF81CC267
:100E100010ADBCE80F000FC59CE8070085E807008F
:100E200010AA0DA917A803F0DDFC9DF85C30002B7B
:100E300000F03183774910AA1EA803F02DFF9DF81A
:100E40007830002B00F05B837348FFF79FFD002292
:100E500020469DF8301007ABCDE907220992FFF735
:100E6000E1FD1F9821AB984203D02199013107F091
:100E700071FD18981AAB98423FF459AF1A99013195
:100E800007F068FD53E7634803F02AFF002800F0ED
:100E9000FB820122614B62481A70FFF777FD002246
:100EA00020469DF830101EABCDE91E222092FFF7A0
:100EB000B9FD3CE7574804F027F85A48EDE7DDE96B
:100EC0000D239B1A042B03D11378522B00F0F082D0
:100ED0000A212046544AFFF7F3FD28E71EA802F036
:100EE000ABFD17A801F04CF94C4B1E7809F076FECB
:100EF0009DF87B109DF87A30BDF87D2001919DF81A
:100F00007C1080460A209DF879709DF878500093F7
:100F10000391029207F01AFD0199A5F103054171B1
:100F2000B5FA85F50399034681710321009A6D098D
:100F30000271029A467080F80280C770C5711A81EA
:100F40002E9A197014200092019307F0FFFC0546B9
:100F5000019B009A0A2182721868286058686860AC
:100F600018892881184607F0F5FC009A9DF85C1056
:100F7000130AA9749DF88110EB722F9BE974110C70
:100F8000120E6A731A0AAB73EA731A0C1B0E2A74D8
:100F900029736B742820189F07F0D8FC2B6806462D
:100FA00003606B6807754360AB6814218360EB686E
:100FB000C3602B690361284607F0CCFC082120465A
:100FC0003D0C199CB5753D0EF57524FA01F5347686
:100FD0007576250C240E27FA01F3F47606F11C042D
:100FE00073751F9400221EABB57606F128041E9679
:100FF0002094FFF717FD2821304607F0ABFC96E65A
:1010000038E50510E8E6051020300610143006100B
:101010001C3B0020183B002048E505107AC7002043
:101020007CE5051094E5051088E705103C300610B6
:10103000DDE90D32D11A012900F334829A4218BF3A
:101040001D784FF003000ABF00252E46002607F04A
:101050007DFC012345704FF00005BE49037009680F
:101060008570B14200F28A810090062007F06EFC84
:101070000346009A03211088DD7018809078009351
:101080009870104607F066FC4FF00002009B0C20A1
:101090009A8007F05BFC4FF000060546009BAE719E
:1010A0001A6818462A609B880621AB8007F052FC1C
:1010B00005F10C07EE7105F1080600222046092112
:1010C00010AB1297CDE91056FFF7ACFC7F1B3946E9
:1010D000284607F03FFC2AE6DDE90D239A4200F09E
:1010E000B080072120469C4AFFF7EAFC1FE6DDE9B5
:1010F0000D031B1A052B03D10378012B00F0068288
:101100000E212046954AFFF7DBFC10E602F0DEFCDC
:101110009DF83010002800F0B281002220461EAB5E
:10112000CDE91E222092FFF77DFC00E6DDE90D23CC
:101130009A424BD00D212046894AFFF7C1FCF6E5C3
:101140001EA802F079FC1EA917A8FFF755F8204643
:1011500000220B2117ABFFF765FC179800283FF41E
:10116000E6AD1999091A07F0F5FBE0E5DDE90D2375
:101170009B1A022B06D11378012B03D1507801283A
:1011800040F2F98110212046764AFFF799FCCEE51E
:10119000DDE90D031B1A302B03D10378012B00F07E
:1011A000D68111212046704AFFF78AFCBFE5DDE9B0
:1011B0000D031B1A052B03D10378012B00F0B68118
:1011C0000F212046694AFFF77BFCB0E51EA802F01C
:1011D00033FC9DF888200820009207F0B7FB009AA6
:1011E0000546A2F1310200210120B2FA82F205F196
:1011F0000803CDE918339DF87E30C5F80110520977
:10120000696017952870002B00F072819DF8B2304C
:101210006870E870AA7043F0DE0340F6B83C9DF8B1
:101220008020204643EA42132B7100220D2117AB88
:10123000A5F806C0FFF7F6FB0821284607F08AFB51
:1012400075E54B48FFF7A2FB01224A4B1A7005F0E7
:1012500065FA002900F04E814FF47A7200235DF0A8
:10126000E3F80022444DFA302860204642F10004A1
:10127000CDE91E229DF8301020921EAB6C60FFF766
:10128000D1FB54E517A800F07BFF1EA802F0D4FBA9
:1012900001238DF840309DF881309DF85C208DF859
:1012A00042309DF8803004208DF843308DF8412085
:1012B00007F04CFB0246109908201160189DCDE9FB
:1012C000002107F043FB03460199016000980421C7
:1012D0001D71009307F03EFB1020009B2A0A5A71F3
:1012E00025FA00F22D0E9A71DD71199E07F02EFB82
:1012F0000546009B06721A68082102605A6842601F
:10130000184607F027FB20464FEA164C219C85F82B
:101310000AC04FEA166C85F80BC04FEA142C330A4A
:101320002C7385F80DC04FEA144C240E6B72EC73CD
:101330000022122117AB85F80EC005F11004CDE98B
:1013400018441795FFF76EFB1021284607F002FBA3
:10135000EDE400BFD43800203CE70510D0E50510CF
:10136000B0E5051050E6051098E6051010E60510EA
:101370005CE705107DC70020A835002083708D4BE9
:101380008D4A19688D4B0B31A3FB01C5ED0805EBA8
:101390004505A1EB85010C31891BA3FB0153DB083B
:1013A00003EB4303A1EB830303EB43031901029017
:1013B00002EB031306205758CDE9001307F0C6FAD5
:1013C0000546029AC7701088032128809078A8707B
:1013D000104607F0BFFA3A0A2A713A0C6A710C20DB
:1013E00007F0B4FA06463A0E82712A688046026017
:1013F000AA8806218280284607F0ACFA019B06F1F4
:1014000008001A7906F10C07F2710646002A00F06E
:10141000C1800099684B4D1D042A1D4440F2BC80D8
:10142000082A114638BF08216FF00043009201F1ED
:1014300008029A4228BF1A461046174607F086FA55
:10144000D8F8003029460360D8F804300546009AE1
:10145000436008305CF0D8FF009A0C2183184046A6
:10146000009307F077FA009B09211193EB1912936F
:101470000022204610AB1095FFF7D4FA27E620464D
:101480004F4AFFF71DFB52E420464E4A9DF83010AC
:10149000FFF716FB4BE42046189A9DF83010FFF733
:1014A0000FFBE6E409212046474AFFF709FB3EE42B
:1014B00053780132432B7FF40BAD12F8013F562BCA
:1014C0007FF406AD5378312B7FF402AD3F48FFF730
:1014D0005DFA01223E4B1A7005F020F9002945D033
:1014E0004FF47A7200235CF09FFF0022394DBAE678
:1014F000AA7092E6384BA3FB00308009B1E6204683
:101500001F9A9DF83010FFF7DBFAAAE48178B0F853
:101510000320407802F0B6F89DF8301000287FF4E0
:10152000FCAD20462D4AFFF7CBFA00E48178037921
:10153000C278407802F01AF99DF8301000287FF444
:10154000ECAD2046264AFFF7BBFAFFF7F0BB2F2190
:10155000013002F0B1F99DF8301000287FF4DDADC4
:101560002046204AFFF7ACFAFFF7E1BB1A4BA3FB7A
:1015700000308009B9E700F0010002F051F99DF850
:10158000301000287FF4C9AD2046174AFFF798FABB
:10159000FFF7CDBB454690E5294600925CF034FF4D
:1015A000009A4546164488E52046104AFFF788FA17
:1015B000FFF7BDBB90380020D8380020ABAAAAAAFC
:1015C00008E7051060E5051020E7051074E7051031
:1015D00079C70020A0350020D34D6210ECE505103E
:1015E0002CE60510C0E6051070E60510B0E7051002
:1015F00010B5032ABDF808C001D1022901D000208E
:1016000010BD0F4A10780028FAD0BCF13F0FF6D970
:101610009C460C4CA6460CF1100CBEE80F004CF892
:10162000043C094B10349E454CF8100C4CF80C1C33
:101630004CF8082CEED10023014A4020137010BD55
:1016400078C7002094380020D4380020022ABDF842
:1016500000C00DD0032A0DD101290BD10BB3BCF171
:10166000410F14D0BCF1400F14D11846FFF718BB3E
:10167000022900D07047002BFCD0BCF1300F14D0F1
:10168000BCF12F0FF6D12F21184602F015B91A78A8
:10169000012A04D001210020064AFFF711BA0133C4
:1016A000E3E71846044AFFF70BBA1A78022AE1D199
:1016B0000133E8E7F4E70510E0E705102DE980487D
:1016C0009DB00BF0EDF800F03DFCB94803F00CFACA
:1016D000B84B1870002800F0C881B748FFF756F9DA
:1016E00000230822B54CC4E90033C4F80730A271C6
:1016F0000BF0E4F8002800F0BA814AF6012300203C
:1017000001A9ADF8043000250AF01EFEAC4EAD4F25
:10171000DFF8E482DFF8E49200214FF0FF3009F0B7
:10172000F9FA00F07BFC02F097FA0AA802F084F9BB
:101730009DF82E30002B40F09780A34A11780029A5
:1017400040F089813378002B40F01B810AA802F019
:1017500073F93B782BB19D4B1A9A1B689A4200F0A3
:101760004F8109F03BFA38B300200AF0EDFB18B3C3
:101770000B234FF0010A0AA902A8CDE905A3FEF741
:101780003BFD039B029A0893049B02A805A90792BC
:10179000099302F083FCDDE902239B1A402B32D02F
:1017A00022B104991046891A07F0D4F8079818B1A5
:1017B0000999091A07F0CEF804F0B0FF00294ED0BD
:1017C0004FF47A7200235CF02FFE98F8003033B1AA
:1017D000D9E90023904275EB030380F04B817C4BE9
:1017E0001A78002A98D07B4AD2E90012884275EB19
:1017F000020291D31D7009F001FA322004F062FE5A
:1018000009F006FA88E7032100200AF0B9FB029AE2
:101810000028C5D06D4B1A98049918606E4B9DF83E
:101820002E0087F800A018706C4B9DF82D001870E2
:101830006B4B9DF8290018706A4B9DF82A001870B0
:10184000694B9DF82B001870684B9DF82C001870A0
:10185000002AABD01046891A07F07CF8A6E7644B43
:10186000A3FB00308009B0E762491A980B689842E0
:101870003FF468AF6FF07E0B9DF839309DF83AA0C9
:10188000803B9DF83BE0AAF1800A5B459DF83CC097
:10189000B8BF5B46AEF1800EDA45ACF1800CB8BF44
:1018A000DA46DE45B8BFDE46DC45B8BFDC469DF80B
:1018B0003F2084F803C002F00F0CBCF1070F28BFD3
:1018C0004FF0070C2370BDF83D3012F0200FA380BD
:1018D000C2F3001318BF43F0020312F0400F18BF09
:1018E00043F0040312069DF840200CF1010C48BFA0
:1018F00043F0080384F806C002F0010C43EA0C131D
:1019000012F0020F18BF43F0200312F0040F18BFAB
:1019100043F0400312F0080F18BF43F0800312F0A9
:10192000400F18BF43F4807312069DF8412048BF52
:1019300043F4007312F0100F18BF43F4806312F0E9
:10194000200F02F0010C18BF43F4006343EA0C338C
:1019500012F0020F18BF43F40053520748BF43F47C
:1019600080431A0A4FF0000CE37101232272164AD9
:1019700084F801A084F802E008603370A4F809C07C
:10198000137009F02BF900283FF4E0AE00200AF0B4
:10199000DBFA00283FF4DAAE0B2310210020074ABF
:1019A0000AF0EEFA00283FF4D1AE3570CEE600BF63
:1019B000183B00207AC7002028E80510603B002073
:1019C0007EC700207BC700207CC700206C3B002026
:1019D0007DC70020A835002080C7002084C70020D4
:1019E00082C7002083C700207FC7002081C7002056
:1019F000D34D6210703B002079C70020A035002035
:101A00001F4B9DF82E201B789A427FF4AAAE1D4BE7
:101A10009DF82D201B789A427FF4A3AE1A4B9DF8B7
:101A200029201B789A427FF49CAE184B9DF82A20FF
:101A30001B789A427FF495AE154B9DF82B201B78AE
:101A40009A427FF48EAE134B9DF82C201B789A425D
:101A50007FF487AEB0E608200121C4E9003313709B
:101A6000C4F80730A07131708BE70B4836E601F0FF
:101A7000DBFD42E60021084688F8005004F08CFFA8
:101A800080C7002084C7002082C7002083C70020B1
:101A90007FC7002081C7002010E8051010B50C4654
:101AA000E2B04FF4C472002168465CF0D5FCB4F596
:101AB000C47F2246694628BF4FF4C472002009F053
:101AC0002DFF0146684600F0CFFA012062B010BD3C
:101AD0000149024802F0F6BF282E0020183B0020E2
:101AE000004870471C31061000487047303106101E
:101AF000004870476830061030B58DB058B940F2D4
:101B000009434FF4417E264D6B802549A5F800E03E
:101B100008460DB030BD032822D03FD8214B53F8E2
:101B200020100029F4D0084601915BF059FF2028CD
:101B3000044628BF202404F1010E4FEA4E0E0199FD
:101B4000174D4EF4407E0028DFD028464A1E931CD5
:101B50005B1A12F801CF9C4220F802CFF7D8D4E7E5
:101B60002122002102A85CF077FC212102A808F0C4
:101B700011FD02A85BF034FF094D40B12A4602ABCB
:101B80001C1813F8011B9C4222F8021FF9D100F126
:101B9000010E4FEA4E0E4EF4407EB6E70021B7E745
:101BA00040380020583006102DE9F04FDC4BADF5E1
:101BB000D15DD3F8008083B0B8F1000F04D0D94EC6
:101BC0003468B4F5007F04D20DF5D15D03B0BDE8F3
:101BD000F08F0DF6282A4FF48052002150465CF019
:101BE0003BFCD14F0023D646DFF854C3A4B13A687A
:101BF0000133511CC1F30A01013C0CEBC202B3F5E5
:101C0000007F3960346092E803008EE8030016D04C
:101C10000EF1080E002CEAD10133B3F5007FCEE9B6
:101C200000440CD00AEBC302C3F5007302EBC303FC
:101C30000833083242E9024408329A42FAD10026B7
:101C40004FF4C7720021AAF511605CF005FC4FF457
:101C5000F0620021AAA85CF0FFFBCDE9028A0DF238
:101C6000AA290DF62A2BB14B40F2DF12A3FB063551
:101C7000731B05EB530540F2FF132D0A05F1010814
:101C8000984528BF9846C5EB05143AF93800C5EBCE
:101C90004414341B80FB04013AF935C0C4F5EF77D6
:101CA00001370023C7FB0C015CF0C6FB29F8020CCE
:101CB0003BF938003BF9353080FB040140F2DF127C
:101CC000C7FB030100235CF0B7FB994B06F2FF163C
:101CD0009E4229F8040BC6D1C824DDE90285002103
:101CE0002246AAF6D8105CF0B7FB4FF4F0724046DB
:101CF000AAA9009414AB21F02DFDA0423FF664AFD9
:101D000040220021AAF618205CF0A6FB40F6FF71E5
:101D100004AAB5F90470B5F90C30B5F91460F818D7
:101D2000B5F91C404FEAE373B5F924C043EBE77300
:101D30003018B5F92C7043EBE6732018B5F9346010
:101D400043EBE4731CEB0000B5F93C4043EBEC7350
:101D50003818B5F944C043EBE7733018B5F94C7047
:101D600043EBE6732018B5F9546043EBE4731CEBC6
:101D70000000B5F95C4043EBEC73381843EBE773B4
:101D8000B5F964C0301843EBE673B5F96C702018F0
:101D900043EBE473B5F974601CEB0000B5F97C40CB
:101DA00043EBEC73381843EBE773301843EBE673FF
:101DB000201843EBE473002B00DA4018B5F90EC08D
:101DC000B5F90640B5F916701CEB0403B5F91EE031
:101DD0004FEAE474B5F9266044EBEC74FB18B5F9EE
:101DE0002EC044EBE7741EEB0303B5F9367044EBE9
:101DF000EE74F31844EBE674B5F93E601CEB030394
:101E0000B5F946E044EBEC74FB18B5F94EC044EB71
:101E1000E774F318B5F9567044EBE6741EEB030350
:101E2000B5F95E6044EBEE741CEB030344EBEC7419
:101E3000B5F966E0FB1844EBE774B5F96EC0F3182A
:101E400044EBE674B5F976701EEB0303B5F97E60DA
:101E500044EBEE741CEB030344EBEC74FB1844EB13
:101E6000E774F31844EBE674000B002C107000DAF2
:101E70005B181B0B53700DF5D153803508339D4211
:101E800002F102027FF445AF362790263F2544F247
:101E900092044FF4C772002146A85CF0DDFA254A8F
:101EA00025481378591C117002781901AAF511639D
:101EB0009A7201321F70DE721D735970A3F84C4084
:101EC0000270AAF61826AAF6C205AAF6D817344652
:101ED00010350FCCBC4206F1100645F8100C45F841
:101EE0000C1C45F8082C45F8043CF0D14CF61304C2
:101EF000AAF51163AAF6D811C822AAF50860A3F8BA
:101F00008E405CF081FA4FF4C77146A801F01EFDC7
:101F100000283FF459AE094A13680133136053E6B1
:101F20007C7B0020807B0020747B00209B01A31120
:101F300020BE030086C7002087C70020887B0020C2
:101F4000743B002030B54FF4804283B00021264816
:101F50005CF082FA002000240025244B244A1860FB
:101F6000244B106018602449244A254B0860C3E9BB
:101F7000004510602349244A244C254D1060087008
:101F800020702870019040F6010202214BF680304B
:101F900001AB1FF06FFB1F4C206008B1019D1DB10C
:101FA0000023236003B030BD40F6A2711A4A21F02D
:101FB0009BFC2A4640F6A671206821F095FC05227C
:101FC00040F6AA71206821F08FFC40F6BA3240F644
:101FD000B871206821F088FC102240F6C471206896
:101FE00021F082FC03B030BD743B0020787B0020E0
:101FF000747B00208C7B0020807B0020847B002071
:10200000B035002086C70020887B002087C70020CD
:1020100085C700207C7B00200071020008B50F4BB3
:102020001A7802B908BD04F079FBDFF834C00B4B15
:10203000DCE9002E801A4FF00002DFF828C061EBC7
:102040000E01844572EB010106D31B78002BE9D009
:10205000BDE80840FFF7A8BD1A7008BD85C700207D
:10206000B0350020F0490200002878D0072976D941
:102070002DE9F04F3A4B85B01B6821F00701029320
:1020800000230393374B384F1B6800EB010B019380
:10209000364BD3F800C0364B1E680CE001360830D2
:1020A00007EBCC040CF10101834547F83C3062603A
:1020B000C1F30A0C35D000210B460A4690F8048083
:1020C00090F801E068F30F02984690F800A0C578F8
:1020D00090F802904FEA0E2E2D026AF30F016EF374
:1020E0000F0369F31F41447965F31F430B43C17923
:1020F0002402090264F30F0861F31F488179B6F5E1
:10210000006F61F31F4242EA0802C7D1012402991D
:1021100003940131C1F30A01029101992144019113
:10212000BDE7124BC3F800C0114B1E60039B2BB1DF
:102130000C4B019A1A600A4B029A1A600D4A1368F6
:102140000133136004F0EAFA01220D4604460A49FD
:102150000A4BC1E900451A7005B0BDE8F08F704721
:10216000747B00208C7B0020743B0020787B002057
:10217000807B0020847B0020B035002085C70020B4
:102180000C4B0D491B680D4A003B18BF0123097811
:10219000126810B4DFF830C0017042600849094A83
:1021A000DCF80040096812688460C0E9031210BCC2
:1021B000437070477C7B002085C70020847B002013
:1021C000807B0020887B00208C7B0020124B1968CC
:1021D000EFF3108272B6D1E8CFCF0120BCF1000F2F
:1021E000F9D1C1E84C0FBCF1000FF4D1BFF35F8F00
:1021F0000A495A60088840B10949487928B10878E5
:10220000A0F10300B0FA80F0400900211B68C3E888
:102210008F1F82F3108870479C7B002056C70020D8
:10222000342E00200000000008B54FF44C7200214D
:102230001D485CF011F94FF0FF339FED197B002131
:102240001A4A1B48136003601A4B1B4A83ED007B3C
:102250001A4B11701A483F2283ED007B5CF0FCF8AA
:10226000184B1868EFF3108272B6D0E8CFEF5FF02A
:10227000010CBEF1000FF8D1C0E84ECFBEF1000F47
:10228000F3D1BFF35F8F00210F485A6001811B68B3
:10229000C160C3E88F1F82F3108808BDAFF30080D0
:1022A0000000000000000000A47B0020302E002071
:1022B0002C2E0020D03500208EC70020B8350020FD
:1022C000D87E00209C7B0020342E00201A4A136800
:1022D000032B24D90268194BC3F812208288DA82B2
:1022E000174B1968EFF3108272B6D1E8CFCF0120F7
:1022F000BCF1000FF9D1C1E84C0FBCF1000FF4D1D3
:10230000BFF35F8F4FF0010C0E485A6000211B682D
:1023100080F807C0C3E88F1F82F31088704703EB73
:10232000430C013305491360036841F81C3083886E
:1023300001EB4C018B80D3E7307F0020187F002019
:102340009C7B0020342E00201B4B1B7893B11B4B31
:102350001B787BB11A4B1A7862B91A4A12784AB9BB
:10236000194A128832B9082010B516F0BDF9144B7D
:1023700008B110BD7047154AD2F800C0EFF31081C4
:1023800072B6DCE8CF4F5FF0010E002CF9D1CCE83B
:1023900044EF002CF5D1BFF35F8F4FF0010C0C4CD4
:1023A000516084F803C0126883F800C0C2E88F0F40
:1023B00081F3108810BD00BF8CC7002088C70020A3
:1023C0008AC700208DC7002056C700209C7B0020B4
:1023D000342E00202DE9F041DFF84881064698F8B8
:1023E000004082B07CB9444F3B687BB1434D02E072
:1023F0003B689C420AD2294630460FF0F5FD013475
:1024000006350028F4D13E4B1B781BB1002002B0EA
:10241000BDE8F0813B4C2378002B65D13A4F3A68F8
:10242000EFF3108372B6D2E8CF0F01210028FAD162
:10243000C2E8401F0028F6D1BFF35F8F002525704A
:10244000324C3A687B60E570C2E88F5F83F3108896
:102450003068B3880090012168462D4AADF80430F9
:102460001BF03CFD50B12B4B98F80020C3E9005500
:102470009D60002ACAD0FFF767FFC7E70020002150
:10248000254BC3E9000104F049F900292FD04FF48E
:102490007A7200235BF0C8FF42F210731F4AC01823
:1024A00010604FF000034FF00100154D396828709F
:1024B00043EB03055560EFF3108272B6D1E8CF6F9E
:1024C0000125002EFAD1C1E8465F002EF6D1BFF3F8
:1024D0005F8F39687A6020712070C1E88F3F82F386
:1024E000108802B0BDE8F08116F01CF996E70C4B9D
:1024F000A3FB00308009CFE7307F0020187F002049
:102500008DC700208AC700209C7B0020342E00202D
:1025100056C70020907B0020C0350020C835002021
:10252000D34D62108CC70020F8B5434C2368002BB4
:102530001FDB424D2A68EFF3108372B6D2E8CF0F4B
:1025400001210028FAD1C2E8401F0028F6D1BFF3CC
:102550005F8F3B4A296810886B6028B1394E7079CB
:1025600010B13078032805D00022C1E88F2F83F303
:102570001088F8BD0020C1E88F0F83F31088108801
:102580004FF4CC72236802FB03F21F462E4B9918BE
:1025900001321A44D1F8903191F88E11013B9BB26F
:1025A0001CF02CFB0028E4D1284A1368834206DB88
:1025B0004FF4CC76244906FB031383F894014FF4BF
:1025C000CC731760204A03FB07234FF0FF3293F8C8
:1025D0008E312260362BCCD12B68EFF3108172B68E
:1025E000D3E8CF0F01220028FAD1C3E8402F0028FA
:1025F000F6D1BFF35F8F40F2011212486960C368E1
:1026000002810133C36004F089F879B14FF47A7222
:1026100000235BF009FF00230D4A2968C2E900038B
:10262000C1E88F3F6B6883F31088F8BD094BA3FBAB
:1026300000308009EFE700BF2C2E00209C7B00209B
:1026400056C70020342E0020A47B0020302E00200E
:10265000B8350020D34D6210354BF0B51B68002112
:10266000002B0CBF4FF4CC7500250646314C95B0BD
:102670004FF4C77205EB040014BF0F4601275BF04F
:10268000EBFE2D4B68461A78511C197002F00F02B0
:10269000314602F0F9FD4E22694628195BF0B4FE7E
:1026A0004FF4CC73012131204E2203FB074383F802
:1026B0008E0183F89411214DF17A2F60C3F8902197
:1026C00039B12F22012A06F10C012BDD1C485BF0E9
:1026D000DFFE3378E3B11A4D0DF103040DF133073A
:1026E0002E4620686168A268E3681034BC420FC6B9
:1026F00005F11005F4D120686168A268A689A37B62
:1027000007C52E80AB70FFF70FFF012015B0F0BD9D
:10271000F378002BDFD1F379002BDCD1737A002B17
:10272000F1D0D8E7D5D1064B327B1A70D1E700BF84
:10273000302E0020A47B00208BC700202C2E0020F0
:10274000D87E00202DE9F047002200234FF000083A
:102750006D496E4E6E4DDFF8DC91C1E90023C5E98D
:10276000002386F80080FFF75FFDD9F80030EFF313
:10277000108272B6D3E8CF0F01210028FAD1C3E846
:10278000401F0028F6D1BFF35F8F624CDFF8A8A18D
:10279000614FC9F80420D4E900321343A7F8008040
:1027A000AAF804808AF806806CD18AF80280042393
:1027B0008AF80030D9F800200023C2E88F3FD9F80A
:1027C000042082F31088554AC2E900339360D4E9AB
:1027D0000032134314D1524B1B68002B00F0888049
:1027E00003F09CFF00297DD14E4BA3FB00308009F4
:1027F0000023FA3043F1000328606B60BDE8F087E6
:1028000003F08CFF002967D1464BA3FB0030800901
:102810000023D4E9001288429341DCD2424B1B785A
:10282000002BEBD0414B1B78002BE7D0404C23789A
:10283000002BE3D13378002BE0D13B88002BDDD196
:10284000082015F051FF0028D8D1D9F80020EFF367
:10285000108372B6D2E8CF5F0121002DFAD1C2E811
:10286000451F002DF6D1BFF35F8F0122D9F800106C
:10287000C9F8043022708AF80320C1E88F0F83F36F
:102880001088BBE703F04AFF01BB264BA3FB0030D7
:1028900080090021236862689842914134BF012178
:1028A000002113438AF8021081D003F037FF29B3C7
:1028B0004FF47A7200235BF0B7FDD4E900120023D5
:1028C00088429341BFF473AF022371E74FF47A72E9
:1028D00000235BF0A9FDDCE74FF47A7200235BF084
:1028E000A3FD95E74FF47A7200235BF09DFD7FE72F
:1028F00000220023C5E90023BDE8F087094BA3FBB4
:1029000000308009D9E700BFC83500208DC70020FE
:10291000C0350020D835002056C70020907B00200D
:10292000307F0020D34D62108CC7002088C7002064
:102930008AC700209C7B0020342E0020000000006D
:10294000042800D07047002AFCD02DE9F0431C4633
:102950001346127895B0602A00F0B38010D8162A7A
:1029600000F08581332A00F05B81072A05D1A04A57
:102970001546927A002A40F0B28115B0BDE8F08386
:10298000DD2A00F0FF80EF2A00F0DA80DC2AF4D1A3
:10299000984A1278002AF0D0974A1278002AECD18F
:1029A0001A7C002A40F0B9855A7E002A00F018856A
:1029B0009C7E082C40F2148503F11B02164603F19D
:1029C000130EA64412F8011B01F12000C0B2A1F1C0
:1029D000410CBCF1190F98BF0146642940F0C48432
:1029E000117801F12000C0B2A1F1410CBCF1190F26
:1029F00098BF0146752940F0B784517801F1200055
:102A0000C0B2A1F1410CBCF1190F98BF0146612978
:102A100040F0AA84917801F12000C0B2A1F1410CEC
:102A2000BCF1190F98BF01466C2940F09D84D17804
:102A300001F12000C0B2A1F1410CBCF1190F98BF07
:102A40000146732940F09084117901F12000C0B251
:102A5000A1F1410CBCF1190F98BF0146652940F066
:102A60008384517901F12000C0B2A1F1410CBCF185
:102A7000190F98BF01466E2940F07684917901F1D3
:102A80002000C0B2A1F1410CBCF1190F98BF014662
:102A9000732940F06984D17901F12000C0B2A1F11D
:102AA000410CBCF1190F98BF0146652940F05C84C8
:102AB000981C062207A90FF0EBFA07A8FFF78AFC7B
:102AC0005BE79C78022C00F0CB81002C7FF455AFA3
:102AD0000022002349494A480C704649C0E90023B6
:102AE0000C7045490C7047490C8047490C80474998
:102AF000C1E900234649C1E90023FFF795FB3C4AA1
:102B0000444BC2E9004419689460EFF3108272B636
:102B1000D1E8CFCF0120BCF1000FF9D1C1E84C0FB3
:102B2000BCF1000FF4D1BFF35F8F3B4918685A60C6
:102B3000C1F801400C70C0E88F4F82F310881CE789
:102B40009A78013A0C2A3FF618AF01A151F822F009
:102B5000AB300010C32F00109B2F00107B290010FA
:102B60007B2900107B2900107B2900107B29001095
:102B70007B2900107B2900107F2F0010B732001036
:102B80006F320010234A1368EFF3108172B6D3E856
:102B9000CF4F0120002CFAD1C3E8440F002CF6D10E
:102BA000BFF35F8F00231D4C1B48516023701268D8
:102BB000C370C2E88F3F81F310880E4B1B78002B47
:102BC0003FF4DBAE0C4B1B78002B7FF4D6AE084AEB
:102BD000937A15461BB1D37A002B00F09084002322
:102BE000C5E90033AB6015B0BDE8F043FFF7ACBBFF
:102BF000907B00208CC700208DC7002088C7002054
:102C0000D835002056C7002054C70020C03500200A
:102C1000C83500209C7B0020342E00208AC700206D
:102C20008A4C062207A9981C0F460FF031FAD4E906
:102C30000032134340F0F780854C2368002B00F0EE
:102C400029840023834903E02268934280F0228490
:102C50003846CDE900130FF0C7F9019B0099013305
:102C600006310028F0D1384615F002FE85E6774C93
:102C7000062207A9981C0F460FF00AFAD4E9003281
:102C800013431BD1724C2368002B00F0FE830023FA
:102C9000704903E02268934280F0F7833846CDE91B
:102CA00000130FF0A1F9019B0099013306310028B0
:102CB000F0D13846684915F095FD5EE603F02EFD2B
:102CC000002900F005844FF47A7200235BF0ACFB1E
:102CD000D4E90012002388429341D3D2E9E707A93F
:102CE000D81C062200930FF0D3F9294607A80FF04D
:102CF0007BF900287FF441AE009B9A78002A40F0CF
:102D0000BC83092C40F2B98303F10801A4F1090046
:102D100011F8014F002C00F02A8401328242F7D1D1
:102D2000082840F2AA8303F10902164603F1010CB8
:102D3000844412F8011B01F1200E5FFA8EFEA1F10E
:102D40004104192C98BF7146642940F06B831178B7
:102D500001F1200E5FFA8EFEA1F14104192C98BFFB
:102D60007146752940F05E83517801F1200E5FFABB
:102D70008EFEA1F14104192C98BF7146612940F0E3
:102D80005183917801F1200E5FFA8EFEA1F141048A
:102D9000192C98BF71466C2940F04483D17801F119
:102DA000200E5FFA8EFEA1F14104192C98BF7146E6
:102DB000732940F03783117901F1200E5FFA8EFEFE
:102DC000A1F14104192C98BF7146652940F02A836E
:102DD000517901F1200E5FFA8EFEA1F14104192C08
:102DE00098BF71466E2940F01D83917901F1200E44
:102DF0005FFA8EFEA1F14104192C98BF7146732928
:102E000040F01083D17901F1200E5FFA8EFEA1F11E
:102E10004104192C98BF7146652940F003830F487F
:102E2000FFF7D8FAA9E503F079FC002900F05683F2
:102E30004FF47A7200235BF0F7FAD4E90012002312
:102E400088429341FFF40FAFF6E600BFD83500206B
:102E5000307F0020187F002064E80510907B002060
:102E6000002301249FEDA27BA34A0090C2E9003316
:102E70009360A24AA248A3491370A34BA34A0470CB
:102E8000204682ED007B81ED007B83ED007B15F019
:102E900017FA002015F0DAF99D4815F0E1FB42F22F
:102EA000085015F0A9F8052015F0B4F8002015F029
:102EB00013FD032011F04EFB002011F053FB954A47
:102EC000D2F800C0EFF3108072B6DCE8CF3F5FF0BD
:102ED000010E002BF9D1CCE843EF002BF5D1BFF365
:102EE0005F8FD2F800C0506000998B4A0023C2F86F
:102EF00001401170CCE88F3F80F31088874A884CDE
:102F0000C2E90033C2E90233C2E90433854A04A8A6
:102F100023601360049310F081FC002800F0C2824B
:102F20000023CDE9083307930593ADF80E30ADF8D3
:102F300018300A9307AF2368032B00F2B0823A4699
:102F40000DF10E0305A904A810F074FC002800F090
:102F5000A68223687BB10023704905A8CDE9001340
:102F60000FF042F8019B0099013306310028E2D0AE
:102F700022689342F1D305A8FFF7A8F9DBE75B7954
:102F8000002B3FF4FAAC684B188800283FF4F5ACEE
:102F900015B0BDE8F0431BF023B8184603210FF02D
:102FA0002DF8624B1A88824200F0D3825E4B1B8858
:102FB00013B198427FF4E1AC15B0BDE8F043FFF7E0
:102FC000C1BB5D79002DF7D10321184600930FF0A6
:102FD00015F8044606225449009B0C80504C981862
:102FE00007A90795ADF820500FF052F8236807AFF6
:102FF000002B00F0B2822B46484903E0226893423E
:1030000080F0AB823846CDE900130EF0EDFF019B56
:103010000099013306310028F0D1002000213A4BFD
:10302000C3E9000103F07AFB002900F09A824FF413
:103030007A7200235BF0F8F98446002342F21070A4
:103040003B4A3249334D374C13701CEB000243EBC3
:1030500003000A604860A84629682360EFF31082E5
:1030600072B6D1E8CF4F0120002CFAD1C1E8440F4D
:10307000002CF6D1BFF35F8F2749224C0E460B710F
:10308000D4E9001001436A6040F079820021B370F6
:103090000123D8F80000A6F805103370C0E88F1F90
:1030A00082F31088FFF7C0F867E403211846009305
:1030B0000EF0A4FF009B8146597B00297FF45DAC94
:1030C000104C0622581D0791ADF8201007A90EF0EC
:1030D000DFFFD4E90032134307AF40F06C82104C9D
:1030E0002368002B00F0858200230C4926E000BFF6
:1030F0000000000000000000907B00208CC7002032
:1031000088C70020D8350020C0350020C8350020F1
:1031100050E805109C7B0020342E0020187F0020F2
:10312000307F0020D47E002056C7002054C70020E6
:103130008DC700202268934280F05B823846CDE93B
:1031400000130EF051FF019B009901330631002856
:10315000F0D18B490B78002B40F04482894805461A
:1031600080460368EFF3108272B6D3E8CFCF012018
:10317000BCF1000FF9D1C3E84C0FBCF1000FF4D142
:10318000BFF35F8F0023804E0B706A602968F37075
:10319000C1E88F3F82F3108801217C4A2868A2F899
:1031A00000907B4A1170EFF3108272B6D0E8CFEF37
:1031B0005FF0010CBEF1000FF8D1C0E84ECFBEF1B8
:1031C000000FF3D1BFF35F8F31716A602968C1E8E6
:1031D0008F3F82F310882268002A00F0E4816D4955
:1031E00003E02268934280F0DE813846CDE9001387
:1031F0000EF0FAFE019B0099013306310028F0D150
:10320000012148461AF00AFE002840F0D08103F060
:1032100085FA4FF47A72002900F0F08100235BF008
:1032200003F9034642F2107100225B485B18036009
:1032300042EB0203D8F800104360EFF3108372B63C
:10324000D1E8CF4F0120002CFAD1C1E8440F002C67
:10325000F6D1BFF35F8F0120D8F80010C8F8043012
:103260003070C1E88F2F83F31088FFF786BB454A83
:103270001068EFF3108172B6D0E8CFCF0124BCF113
:10328000000FF9D1C0E84C4FBCF1000FF4D1BFF3EF
:103290005F8F51605B793C4CB3FA83F35B0900208C
:1032A00012686371C2E88F0F81F3108815B0BDE812
:1032B000F043FFF739B90521184600930EF09EFE42
:1032C00000283FF45AAB009BDA79A12A00F0528122
:1032D000312A7FF452AB0246D91D07A801F05AFFEC
:1032E000284880460368EFF3108472B62546D3E879
:1032F000CF1F01220029FAD1C3E8412F0029F6D1BE
:10330000BFF35F8F079B4460002B40F06681012371
:10331000032200200021DFF870E00DF1200C8EF870
:1033200006308EF808301C4B0EF11004C3E9000182
:103330008EF80020BCE80F000FC4BCE80F000FC4DB
:103340009CE80F0007C424F8023B1B0C2370DEF836
:1033500040300133CEF840300023D8F80020C2E8D6
:103360008F3F85F31088A1E796457FF42BAB122C95
:1033700036D903F12D052644084CA5F1130C12E0B3
:103380008AC700209C7B0020342E002056C70020D6
:103390008DC70020187F0020C83500206CE805107C
:1033A00065453FF485AB1CF8012F217802F1200020
:1033B000A2F1410EC0B2BEF1190F98BF024601F151
:1033C0002000A1F1410EC0B2BEF1190F98BF014615
:1033D000914204F10104E3D06A1C96421546CBD118
:1033E000894CA27A002A7FF4C8AA184609210093C2
:1033F0000EF00AFE00F4F852B2F5A06F009B7FF4C5
:10340000BCAA981C062221460EF042FE009B0C210D
:103410001A7A1846A2710EF0F1FD01232081638112
:10342000FFF7ABBA94457FF484AC122825D903F199
:103430001B020644754BA2F1130C02E094453FF4C5
:10344000EEAC1CF8011F187801F12004A1F1410E27
:10345000E4B2BEF1190F98BF214600F12004A0F19B
:10346000410EE4B2BEF1190F98BF2046884203F125
:103470000103E3D00132B242DCD10023C5E90033BD
:10348000AB60FEF761FFFFF778BA384615F0D6F962
:10349000FFF773BA384615F005FAFFF76EBA04A8BD
:1034A00010F0DCF92368F3B10023594A136003F0EC
:1034B00035F9F9B14FF47A7200235AF0B5FF0023C1
:1034C000544AFA3043F1000310605360FFF755BAD5
:1034D000514BA3FB00308009FFF7FABB4E4BA3FB17
:1034E00000308009A9E4002200234A49C1E90023F1
:1034F000FFF743BA484BA3FB00308009DFE7012305
:1035000012892846A97942F40042EB7215F048F975
:1035100000283FF432AAFFF762BB1846132100933C
:103520000EF06CFD1521044600980EF067FD40F288
:103530004C529442009B7FF437AA40F6E6429042F8
:103540003FF4B6AA40F6F25290427FF42DAAFFF75C
:10355000AFBA00221A80FFF710BA3846FEF7B6FE5F
:103560005BE52D4BA3FB00324FEA921C65E510464C
:10357000FFF7D6BB01283FF400AA1A7AA8E603F0A9
:10358000CDF84FF47A7289B300235AF04DFF034609
:103590000021226893426368D8F80420994134BF1F
:1035A0000123002372E53846FEF790FE28E6FFF778
:1035B000C9F8FFF7E2B903F0B1F84FF47A7201B33A
:1035C00000235AF031FF0346D4E900010022834270
:1035D0008A41BFF484AD114CBBE5114A536C0133F1
:1035E0005364B9E615F09EF80E49B7E5B0FBF2F367
:1035F000CEE748461AF038FCFFF7BFB9B0FBF2F34C
:1036000010E6B0FBF2F3DFE7907B00206CE80510DA
:10361000D47E0020C0350020D34D6210307F0020C2
:10362000342E00208AC7002008B5104B1A7802B14A
:1036300008BD0F4802F090FB01220C4B0D491A7097
:103640000A8016F0FDF94FF400610B481AF0C0FB38
:103650000A481AF0DDFB0A48084B436010F0D2FB21
:10366000BDE80840012014F0E3BC00BF89C700207A
:103670009C7B0020342E00203C7F0020412900103C
:10368000347F002070B540F6B734531E9BB2A3427E
:1036900090B003D90024204610B070BD0C460546FA
:1036A0001646002138220DF107005AF0D5FE4FF0E2
:1036B0000103274A8DF8055011688DF804308DF804
:1036C0000640EFF3108372B6D1E8CF4F0120002CF3
:1036D000FAD1C1E8440F002CF6D1BFF35F8F116817
:1036E00053601C4A12882AB11B4A547914B11278CB
:1036F000032A05D00022C1E88F2F83F31088C9E781
:103700000022C1E88F2F83F31088144B1B6893426B
:10371000C0DA01A8FEF7A0FF4FF00102104B1A70AB
:1037200002F0FCFF71B14FF47A7200235AF07CFE74
:103730000C4930184FF00003086020465B414B6095
:1037400010B070BD084BA3FB00308009F0E700BF4C
:103750009C7B002056C70020342E00202C2E0020F9
:103760008EC70020D0350020D34D621070B592B0C6
:1037700006460D46144600213B2203A801935AF049
:103780006BFE019B224A03F01F038DF814300123C6
:1037900011688DF810608DF811508DF812408DF879
:1037A0000F308DF81330EFF3108372B6D1E8CFCF1E
:1037B0000120BCF1000FF9D1C1E84C0FBCF1000FA2
:1037C000F4D1BFF35F8F134811680088536010B1C4
:1037D0001148427942B90022C1E88F2F83F3108843
:1037E0000022104612B070BD00780328F3D10020EB
:1037F000C1E88F0F83F31088084B1B688342EFDA10
:1038000003A80192FEF728FF019A104612B070BD7E
:103810009C7B002056C70020342E00202C2E002038
:1038200010B592B004463B22002103A85AF014FEC2
:1038300001221D4B8DF8164019688DF81520EFF305
:10384000108272B6D1E8CFCF0120BCF1000FF9D1C0
:10385000C1E84C0FBCF1000FF4D1BFF35F8F1348E8
:10386000196800885A6010B11148437943B90023A0
:10387000C1E88F3F82F310880023184612B010BDB4
:1038800000780328F3D10020C1E88F0F82F310885D
:10389000084A12688242EFDA03A80193FEF7DCFEC1
:1038A000019B184612B010BD9C7B002056C700201B
:1038B000342E00202C2E002008B12F2902D0002306
:1038C0001846704700230122844630B593B0059313
:1038D00006AC03938DF81720049300F12005A6464B
:1038E000DCF80000DCF80410DCF80820DCF80C3010
:1038F0000CF1100CAC45AEE80F0004F11004EED151
:10390000DCF80820DCF80000DCF80410AEE8070062
:10391000BCF80C209CF80E30AEF800208EF8023077
:10392000FEF754FC58B1084A1268002A07DA0190E1
:1039300003A8FEF791FE019B184613B030BD00238B
:10394000184613B030BD00BF2C2E002010B1B1F5C9
:10395000C77F01D0002070470378362BFAD170B5AD
:103960000C460546FEF732FC002858D02D4B1B684C
:10397000002B54DA2C4B22461B680021002B0CBF75
:103980004FF4CC7C4FF0000C284B08BF012603EB12
:103990000C0018BF00265AF05FFD224629465AF057
:1039A00077FD234C00F10D0CA6460CF1100CBEE87F
:1039B0000F004CF8043C1F4B10349E454CF8100C83
:1039C0004CF80C1C4CF8082CEED14FF4CC73174A71
:1039D000144D03FB0623BEE80700CCF80000CCF82A
:1039E0000410CCF808209EF80220BEF800108CF8D5
:1039F0000E204FF03602ACF80C1083F88E214FF4F5
:103A0000C772C3F890214FF001022E6083F8942111
:103A1000FEF78AFD2868801B18BF012070BD0020BA
:103A200070BD00BF2C2E0020302E0020A47B002073
:103A3000D87E0020087F00202DE9F0411F4C05466C
:103A40002368EFF3108672B6D3E8CF1F0122002956
:103A5000FAD1C3E8412F0029F6D1BFF35F8F482286
:103A6000174966605AF0D0FC164B2268D3E9001063
:103A70000023C2E88F3F86F310886B7A23B151EAA6
:103A8000000304D100236B722846BDE8F0810F4685
:103A9000804602F043FE61B14FF47A7200235AF07F
:103AA000C3FCC01B68EB4803FB2873F10003E9D299
:103AB000EAE7054BA3FB00308009F2E79C7B00207E
:103AC000342E0020B8350020D34D621030B5534B52
:103AD00093B01C7814B1524B1C7814B9204613B023
:103AE00030BD02F01BFE002960D14E4BA3FB00301D
:103AF00083090022DFF858C14B4913EB0C030B601C
:103B00004A4B4FF00100C3E901221A6042F1000262
:103B10004A6000210022464B464DC3E9001228703E
:103B200014F0CEFB012014F091FB6846FFF784FFF0
:103B30004149088840B19DF80030032B04D09DF81E
:103B400006301D46002B38D03C4B3D4AD3F800C010
:103B5000EFF3108072B6DCE8CF5F5FF0010E002D4E
:103B6000F9D1CCE845EF002DF5D1BFF35F8F4FF0D1
:103B7000010C82F802C092F800C05860BCF1030F3B
:103B800018BF4FF0020C1B6818BF82F800C000225B
:103B9000C3E88F2F80F310880B88002B9ED1294B10
:103BA0001B78002B9AD1FEF7CFFB97E700234FF449
:103BB0007A725AF039FC03469BE7234B18801AF0BF
:103BC0000FFA1D4900220D8000211E4B1D701F4B56
:103BD000C3E90012FEF728FB184B1A68EFF31080B8
:103BE00072B6D2E8CFEF5FF0010CBEF1000FF8D152
:103BF000C2E84ECFBEF1000FF3D1BFF35F8F4FF09D
:103C0000020C0F4A196858609580957182F800C0BF
:103C1000C1E88F5F80F31088074997E789C70020C4
:103C200088C70020D34D6210D8350020907B00203B
:103C3000C03500208CC7002056C700209C7B002088
:103C4000342E00208DC7002054C70020C835002026
:103C5000E093040000000000914B1B78002B00F063
:103C6000B68030B58F4C93B0D4E90032134300F0E6
:103C7000968002F053FD002900F087814FF47A729C
:103C800000235AF0D1FBD4E900120023884273EBE1
:103C90000202C0F0A3809FED807B834A8349844861
:103CA000C2E90033037093600B7884ED007B002B36
:103CB00040F080817F4C2368EFF3108272B6D3E826
:103CC000CF5F0120002DFAD1C3E8450F002DF6D1BA
:103CD000BFF35F8F0025784B206862600D70DD7048
:103CE000C0E88F5F82F31088284614F0AFFA21688D
:103CF000EFF3108272B6D1E8CFCF0120BCF1000FF4
:103D0000F9D1C1E84C0FBCF1000FF4D1BFF35F8FC4
:103D1000694B626019789D70022901D104211970E4
:103D200000232168C1E88F3F82F31088634CD4E9F7
:103D3000003213433ED002F0F1FC002948D1604B21
:103D4000A3FB003080090023D4E90012884293418C
:103D500030D36846FFF770FE9DF80630002B40F028
:103D60001E81584B188828B300220023C4E9002381
:103D70001AF036F91EE0544B1B78002B40D002F0AD
:103D8000CDFC002900F083804FF47A7200235AF0B2
:103D90004BFBD4E9001200238842934105D34B4CDE
:103DA000D4E90032134340F09780444CD4E9003208
:103DB0001343C0D1464C237823B1464DD5E9003298
:103DC000134320D113B0BDE83040FEF7ADBB7047C0
:103DD0004FF47A7200235AF027FBB4E702F09EFCFE
:103DE00000294FD04FF47A7200235AF01DFBD4E91A
:103DF0000021002390428B41BDD30A43CFD0BEE7C0
:103E0000FEF7A2FAD1E702F089FC002900F0C28097
:103E10004FF47A7200235AF007FBD5E90023904251
:103E20004FF0000272EB0303CCD33A2200210DF1D4
:103E300001005AF011FB01221E4B8DF80020196879
:103E4000EFF3108272B6D1E8CFCF0120BCF1000FA2
:103E5000F9D1C1E84C0FBCF1000FF4D1BFF35F8F73
:103E600018495A6009881B6831B11349487918B15B
:103E70000978032900F0A2800021C3E88F1F82F394
:103E800010889FE70E4BA3FB00308009AFE70C4B77
:103E9000A3FB003080097CE7000000000000000068
:103EA00089C70020D8350020907B00208AC70020D9
:103EB0008CC700209C7B0020342E0020C8350020B9
:103EC000D34D621056C700208DC70020C03500209A
:103ED0008EC70020D035002002F020FC002963D1DD
:103EE000434BA3FB003080090023D4E90012884231
:103EF0009341FFF45AAF3F4B1B78002B7FF455AF33
:103F00003D4B1B88002B7FF450AF002000213B4B22
:103F1000C4E900011B78002B3FF447AF384B1B78F6
:103F2000002B7FF442AF374D37492B680A68934224
:103F300018D2364903EB430251F8120001EB420C50
:103F4000BCF80420009001336846ADF804202B60D3
:103F5000FEF740FA00287FF428AF2B492B680A6847
:103F60009342E6D302F0DAFB00293CD000234FF461
:103F70007A725AF059FA0346002213F5FA63236065
:103F800042F1000363602A600FE7194BA3FB003086
:103F9000800978E6164BA3FB003080093DE700223C
:103FA0000023C4E9002305E74FF47A7200235AF096
:103FB0003BFA99E714F0B6FB15497BE60021C3E80C
:103FC0008F1F82F31088134B1B688B42BFF6FAAE2B
:103FD0006846FEF741FB002200234FF00001C5E9CF
:103FE00000232170EEE64FF47A72B0FBF2F3C3E7E0
:103FF000D34D62108DC7002056C7002088C700200F
:104000008CC70020D47E0020307F0020187F002045
:104010008AC700202C2E0020D0E90010884239D019
:104020004FF0FF3300B51C4A1944184411F801EF52
:104030008EEA030E4EF300034EF3400C134083EA66
:104040005E030CEA020C8CEA530C43F340034CF37E
:10405000400E134083EA5C030EEA020E8EEA530E12
:1040600043F340034EF3400C134083EA5E030CEA33
:10407000020C8CEA530C43F3400313404CF3400E04
:1040800083EA5C0381420EEA020C8CEA5303CDD131
:10409000D84300BD002070472083B8ED2DE9F043E0
:1040A000D1E90232D61A302E054683B007DD00234F
:1040B000C0E900338360284603B0BDE8F0834020A8
:1040C0000F46019304F042FC3E22044600210230D8
:1040D0005AF0C2F944F64D4222803A68019BC4F876
:1040E00002203A79E671A271002E46D0721E052A8E
:1040F00040F2A780C3F108022244022A40F2A180C4
:104100001A68C4F80920B208012A00F0A58059688D
:10411000022AC4F80D1000F082809968032AC4F8BE
:1041200011107CD0D968042AC4F8151077D0196909
:10413000052AC4F8191072D05969062AC4F81D104E
:104140006DD09969072AC4F8211068D0D969082A66
:10415000C4F8251063D0196A092AC4F829105ED062
:10416000596A0A2AC4F82D1059D0996A0C2AC4F841
:10417000311054D1DB6AC4F8353006F109073846EE
:1041800004F0E4FB214606463A4681465AF03CF9E3
:104190004FF0FF3306EB070C32499C44F01810F83F
:1041A000016F5E4046F3000E0EEA010E46F3400337
:1041B0008EEA560E0B4083EA5E034EF3400E0EEA83
:1041C000010E8EEA530E43F340030B4083EA5E0375
:1041D0004EF3400E0EEA010E8EEA530E43F34003F7
:1041E0000B4083EA5E034EF3400E0EEA010E8EEAA8
:1041F000530E43F340030B40604583EA5E03CED188
:10420000DB434846E351394604F0A4FB284604F159
:104210004003C5E901332C6003B0BDE8F083B1076A
:1042200026F00302A9D0985CA1184872501C86425F
:10423000A3D9185C0232964288729ED99B5CCB72DD
:104240009BE7013B04F10802F01813F8011F8342B9
:1042500002F8011FF9D190E71A7905206273042250
:10426000A118E6E72083B8ED0346002201202DE9DE
:10427000F04182B0C3E90122C3E903221A605A6106
:104280001871D1E90042121B3F2A187204DC186031
:10429000184602B0BDE8F081402A05D00522184634
:1042A0001A6002B0BDE8F08122784D2A05D00222C2
:1042B00018461A6002B0BDE8F08162784C2AF6D147
:1042C000A278012A02D003221A60E1E7B4F807209D
:1042D000302A174602D904221A60D9E7A118887A31
:1042E0004A7A009342EA0022C87A097B42EA0042F5
:1042F00007F1090042EA016804F028FB07F109020E
:10430000064621465AF080F84FF0FF3207F10903C4
:1043100006EB030E3248009B964406EB020C1CF899
:10432000011F514041F30002024082EA510241F371
:104330004001014081EA520142F34002024082EA18
:10434000510241F34001014081EA520142F340022F
:10435000024082EA510241F34001014081EA5201E8
:1043600042F34002024082EA510241F3400101401F
:10437000F44581EA5202D2D1304607F10901CDE974
:10438000002304F0E7FA009A019BD243904502D043
:1043900006221A607CE704F10C0139440A4611F840
:1043A000010F00287FF47AAF3E3AA242F6D1E278BC
:1043B0005A71A288DA80A2791A72002F3FF468AF8E
:1043C0003846009304F0C2FA06463A4604F1090161
:1043D0005AF01AF8009BF219C3E903625A6157E7D1
:1043E0002083B8ED10B50446A446DFF818E0BEE817
:1043F0000F00ACE80F009EE807008CE8070020469D
:1044000010BD00BFD031061070B50B780446012BEB
:104410003ED1D1ED017A9FEDC07AF0EEE76AF4EE7D
:10442000476AF1EE10FA0DD8B7EE007AF4EEC77ACB
:10443000F1EE10FA06D4B0EE007AF4EEC77AF1EE9F
:1044400010FA2FDD00222120227004F07FFA2023B1
:104450008646DFF8D8C200228EF82020C4E9023355
:10446000BCE80F00C4F804E0CEF80000CEF8041059
:10447000CEF80820CEF80C30BCE80F00CEF81000C3
:10448000CEF81410CEF81820CEF81C30204670BD9F
:1044900000222120227004F059FA20238646DFF8FA
:1044A00090C2D8E791F90830002B26DB91F909304A
:1044B000002B22DB8B7A072B3ED8CB7A3C2B5CD8A7
:1044C0000B7B022B7ED84B7B103B6F2B00F2A18025
:1044D0008B7B022B00F2C5804B7D0A2B00F2E6801D
:1044E0000B7E012B00F20D8103460121002203F80F
:1044F0000C1BC0E901320273C8E7002219202270A8
:1045000004F024FA182386460022DFF828C2027637
:10451000C4E902336060BCE80F00CEF80000CEF8BA
:104520000410CEF80820BCE80300CEF80C30CEF81A
:104530001000CEF81410A9E700221D20227004F00C
:1045400005FA1C2386460022DFF8ECC10277C4E995
:1045500002336060BCE80F00CEF80000CEF8041013
:10456000CEF80820CEF80C30BCE80700CEF81000DA
:10457000CEF81410CEF8182088E7002322202370EC
:1045800004F0E4F9212306468646644D6060E3604A
:10459000AC460EF1100EBCE80F004EF8043C604B28
:1045A00010359C454EF8100C4EF80C1C4EF8082C9B
:1045B000EED12B7821228EF800300023A26086F8FD
:1045C000213063E700221C20227004F0BFF91B2376
:1045D00086460022DFF864C1C276C4E90233606017
:1045E000BCE80F00CEF80000CEF80410CEF80C3076
:1045F000BCE80300BCF80030CEF80820AEF8183054
:104600009CF80230CEF81000CEF814108EF81A3054
:104610003CE700232720237004F098F92623064660
:104620008646404D6060E360AC460EF1100EBCE87B
:104630000F004EF8043C3C4B10359C454EF8100CD6
:104640004EF80C1C4EF8082CEED1AB882622AEF8A2
:10465000043000232868CEF80000A26086F82630D7
:1046600014E700221F20227004F070F91E238646F2
:104670000022DFF8CCC08277C4E902336060BCE876
:104680000F00CEF80000CEF80410CEF80820CEF8C7
:104690000C30BCE80700BCF80030CEF81000CEF8B3
:1046A0001410CEF81820AEF81C30EFE600222020BF
:1046B000227004F04BF91F238646DFF888C00022E1
:1046C0008EF81F20C4E90233BCE80F00C4F804E0F0
:1046D000CEF80000CEF80410CEF80820CEF80C304A
:1046E000BCE80700BCF80030CEF81000AEF81C3073
:1046F0009CF80230CEF81410CEF818208EF81E3038
:10470000C4E600222020227004F020F91F238646F0
:10471000DFF834C0D3E700BFFFFF7F7F04E9051057
:1047200024E9051044E9051064E90510A4E8051022
:1047300080E80510C8E80510E4E8051028E9051030
:104740006CE905108CE90510ACE905109FED247AA1
:10475000D1ED017A67EE877A0023FCFEE77A91F8C3
:1047600010C04A7C4FEA4C0C4CEA820CCA7B00B564
:1047700042EA0C0291F800C0C0F80B30C0F80F30CC
:10478000C0F81330C3756CF3070391F812C091F8A9
:1047900016E042EACC0291F813C042EA0C1291F8FA
:1047A00014C042EA4C1242EA8E128272D1F80920F9
:1047B00091F808C04260B1F80D2002814A7D027371
:1047C000CA7D42730A7E827317EE902A62F30F232A
:1047D000C2F3072262F317436CF31F63036000BD4B
:1047E0000000C8422DE9F041D1E900E3A3EB0E033C
:1047F0000E2B074688B026DC002323203B7004F0F4
:10480000A5F82223844605464D4E786006F1200E19
:10481000FB60344610350FCC744506F1100645F8A0
:10482000100C45F80C1C45F8082C45F8043CF0D158
:10483000338822222B8038460023BA608CF822303D
:1048400008B0BDE8F08101AD94462C463D4EDFED49
:104850003E6A0FCE0FC596E8070085E807000FCC2B
:10486000CCF80000CCF80410CCF80C3003CC237842
:10487000CCF80820CCF81000CCF814108CF81830C4
:104880009EF800304FF000088CF80030BEF8013080
:10489000384607EE903AF8EEE77A87EEA67A8CED86
:1048A000017A9EF8033061468CF808309EF8043097
:1048B0008CF809309EF805308CF80A309EF80630E6
:1048C0008CF80B309EF807308CF80C309EF80830CE
:1048D0008CF80D309EF809308CF80E30BEF80A3096
:1048E00003F0010262F30708C3F3400262F30F28EA
:1048F000C3F3800262F31748C3F3C00262F31F6878
:10490000C3F300128CF81320C3F34012C3F38013D7
:10491000CCF80F808CF814208CF816309EF80C30F0
:104920008CF815309EF80D308CF817309EF80E304C
:104930008CF81830FFF768FD384608B0BDE8F08104
:10494000CCE90510D03106100000C842F0B5D0E91E
:104950000034A4EB030CBCF13F0F91B068DD93F879
:1049600000C0BCF14D0F63D193F801C0BCF14C0FF6
:104970005ED193F802C0BCF1430F59D193F803C044
:10498000BCF1460F54D104460646202015460F467A
:10499000019303F0DBFFCDE90200019B00F120024F
:1049A0000492D3F800E0D3F804C099680392DA685F
:1049B000C0F800E0C0F804C08160C2609969DA699B
:1049C000D3F810E0D3F814C0C0F810E0C0F814C059
:1049D0008161C26193F8222093F82110120442EA07
:1049E000012293F8201093F823300A4342EA03632C
:1049F00002A80193FFF710FB019B83420BD0002319
:104A0000029828B104990193091A03F0A3FF019BAE
:104A1000184611B0F0BD216801F1230301F13F02F6
:104A200001E0934208D013F8010F0028F9D0E6E71F
:104A30000023184611B0F0BD1820019103F086FF45
:104A4000019900F1180ECDF820E00690D1F808C0C9
:104A5000CB680C69CDF81CE0D1F814E0C0F800C0B8
:104A600043608460C0F80CE0CB69D1F818C02A46D6
:104A70004361C0F810C006A909A8FFF7B3FE9DF86E
:104A800024305BB131684A798879120242EA0042E7
:104A90000879C979024342EA01623A600A980CAA8D
:104AA000904205D00C990193013103F053FF019B13
:104AB00006980028A4D008990193091A03F04AFF28
:104AC000019B9DE710B5044640F8041BFFF78AFCE4
:104AD00004F12000FFF786FC0023C4E910332046D0
:104AE00084F83C3010BD00BF2DE9F043002504469A
:104AF000006899B00368CDE904559B6804A9069540
:104B0000984720B1DDE904239B1A7F2B2DDC11A8E7
:104B1000FFF768FC00230DF1440C84F83C30BCE83E
:104B20000F006060A16061682361A3682162E26098
:104B3000BCE803009CF8002063626061A16100266C
:104B4000E36820696169A362A36921632277E06257
:104B5000636384F83820049818B10699091A03F0A1
:104B6000F9FE304619B0BDE8F0830AA8FFF73AFC19
:104B7000A9462E46049B402003EB8513009303F0C7
:104B8000E5FE07460246009B00F1400107900991AF
:104B900003F1400818681033009053F80C0C1032E1
:104BA0000190009853F808EC53F804CC42F8100C2C
:104BB0000198434542F80C0C42F808EC42F804CC4A
:104BC000E8D10023DFF8CCE00DF1440C0891039309
:104BD000BEE80F00ACE80F009EE807008CE8070075
:104BE00011AA03A907A8FFF7B1FE28BB3846402148
:104BF00003F0B0FE6B1C022B4FF00105BAD196B347
:104C000000230AAD2F4684F83C300FCD6060A160D0
:104C1000236103CD2B78E2606061A161237784F882
:104C20003830C4F844900FCF20626162A26203CF93
:104C3000E362206361638EE7039B8EB90DF1280C5C
:104C40000DF1440E99460646BEE80F00ACE80F0091
:104C50009EE80700ACE8030025648CF80020C5E757
:104C60004B45C3D9EAE711A811ADFFF7BBFB0FCD48
:104C70006060A16023616168A3682162E26003CD86
:104C8000C4E910662A7884F83C6063626061A161BF
:104C900055E700BFEC31061030B50C4683B0114625
:104CA00000900192FFF7B0FB00980378ABB14FF092
:104CB000010C019A116853689568D2F80CE02162E2
:104CC0006362A562C4F82CE05369116963632163D0
:104CD000137E84F83CC084F8383003B030BD00BF88
:104CE0002DE9F04390F83C30A9B023B901242046C7
:104CF00029B0BDE8F08300F12001054600F120074E
:104D00000AA8FFF781FB9DF82840002C00F0E780FF
:104D10006B6C2022002120A85C1C59F09DFB784B75
:104D200005F1200111A8CDE91834FFF70FFD1AACE9
:104D30000DF1440CBCE80F000FC49CE8030084E8AC
:104D40000300202003F002FE844600F1200318AC8B
:104D5000CDE9083307900FCCCCF80000CCF8041054
:104D6000CCF80820CCF80C300FCCCCF81000CCF8E4
:104D70001410CCF81820CCF81C3007A8FFF74CF919
:104D80002090079818B10999091A03F0E3FD2B6CDC
:104D90004020013303F0010803F0D8FD00F1400387
:104DA00084461E46019003930DF1600E74460CF18B
:104DB000100C0FCC4CF8043C28AB9C420EF1100EAA
:104DC0004CF8100C4CF80C1C4CF8082CEED1286850
:104DD000414603680296DB6801AA9847044600280A
:104DE00077D00022286804A903689B68CDE90422D3
:104DF00006929847049B0446002864D00599C91A76
:104E00007F2979DD402003EB881403F09FFD2346C2
:104E100000F14001814602460790099104F14000EB
:104E20001C68D3F804E02646D3F808C0DC681033C9
:104E300083421660C2F804E0C2F808C0D46002F1F0
:104E40001002EDD10023DFF8BCC011AC0891009333
:104E5000BCE80F000FC49CE8070084E8070069461F
:104E600007A811AAFFF772FD044638B36B6C5E1CED
:104E7000009B9E4242D10DF1440CE646BCE80F0077
:104E80006860A960BCE803009CF800C0EA602B6180
:104E90006861A96185F81CC0BEE80F002862FB604C
:104EA0004FF000037960BA6087F818C0BEE80300CD
:104EB00038617961C5E9108685F83C304021484663
:104EC00003F048FD049B23B106991846C91A03F064
:104ED00041FD019818B10399091A03F03BFD0B98A5
:104EE0000DAB98423FF403AF0D99013103F032FD51
:104EF000204629B0BDE8F0830024E4E70024DDE784
:104F00004D4C4346EC31061010B588B0044601A85C
:104F1000FFF768FA01230DF1040C84F83C30BCE87B
:104F20000F0020626162A262BCE803009CF80020CE
:104F3000E3622063616384F8382008B010BD00BFCD
:104F4000F0B50D4683B016460021342204469DF884
:104F50002070019359F080FA80222272FF2284F897
:104F60002C20624A626025B1019B03F13F02B242EC
:104F700004D903232046236003B0F0BDE95CEA189E
:104F8000617191781389E1711179A38161729179CD
:104F90005078A173C3F3402184F83210D37B117C85
:104FA000A07143EA01232382917C537CD07843EAA9
:104FB00001236382117DD37CD57943EA0123A38247
:104FC000917D537D2072507943EA01232771A072AD
:104FD000E572507AE38292F81DC092F81CE04FEA25
:104FE0000C4C4CEA0E2C92F81BE0117E4CEA0E0E93
:104FF00092F820C0D37D8CF0FF0C4FEADC1C84F8C3
:1050000020C092F824C0957E8CF0FF0C4FEADC1C87
:1050100084F826C092F819C043EA01234CEA05251A
:10502000238392F8223092F823606583957F92F86B
:1050300026101F021B094EEA056543EA0613E561C7
:10504000A38492F825500B0203F470632B4392F86B
:1050500021C092F827E0238592F8343007F4706776
:10506000090941EA0E114CEA070C1F2B618592F8E1
:105070003520A4F822C04FEA131122D9022919D0F1
:105080000A39012905D84FF480610123A18584F8EC
:105090002E3040EA0203204602F00101C3F38003F0
:1050A000C2F3400284F82F1084F8302084F83130A5
:1050B00003B0F0BD4FF459710123A18584F82E305F
:1050C000E7E703F00F0303EB83035B000533642B77
:1050D00028BF6423012914BF01210221012584F87E
:1050E0002C3084F82E5084F82D10D2E70180808077
:1050F00090F800C0ACF1A10CBCFA8CFC4FEA5C1C2F
:105100000CF14E0399423ED110F80C30312B3AD1BC
:1051100000B5411E1D4B49301D4A6144604411F8E1
:1051200001CF8CEA030C4CF300034CF3400E134008
:1051300083EA5C030EEA020E8EEA530E43F3400349
:105140004EF3400C134083EA5E030CEA020C8CEA37
:10515000530C43F340034CF3400E134083EA5C03CB
:105160000EEA020E8EEA530E43F3400313404EF351
:10517000400C83EA5E030CEA020C88428CEA53037B
:10518000CDD1D84300BD0020704700BF0C832C8CCC
:105190002083B8EDF0B50D4693B0044616460021C5
:1051A000342205A859F058F905B1FEB90122802131
:1051B000FF23A44633480DF1140E06908DF81C1001
:1051C00005928DF84030BEE80F00ACE80F00BEE855
:1051D0000F00ACE80F00BEE80F00ACE80F00DEF8EF
:1051E0000030CCF80030204613B0F0BD2B78A3F18E
:1051F000A103B3FA83F35B0903F14E02964201D097
:105200000222D4E7EA5C312A1746F9D1E91891F86D
:105210004C2091F84B00120442EA002291F84A0017
:1052200091F84D10024342EA016228463146039349
:105230000292FFF75DFF029A039B824219D004227B
:105240008021FF2325460F480DF1140C06908DF8A0
:105250001C1005928DF84030BCE80F000FC5BCE86B
:105260000F000FC5BCE80F000FC5DCF800302B6045
:10527000B9E732462946204600970233FFF760FE21
:10528000B1E700BF01808080F8B504460D4617469F
:1052900000214B22033059F0DFF831221023227015
:1052A000EA7AA3703B016370002A6DD12B783BB181
:1052B000E378A9786A7843F00303E3706171A2711F
:1052C000EB784BB12379A988AA7943F004032371C1
:1052D000A4F82F1084F83120EB7943B122792B7A8E
:1052E00042F0100203F01F03227184F82E306B7A13
:1052F00063B12379AA7A43F003032371002A41D0D2
:105300000122237BE27243F010032373254B264ACC
:10531000611E04F1490011F801EF8EEA030E4EF30D
:1053200000034EF3400C134083EA5E030CEA020CC8
:105330008CEA530C43F340034CF3400E134083EAD2
:105340005C030EEA020E8EEA530E43F340034EF363
:10535000400C134083EA5E030CEA020C8CEA530C07
:1053600043F3400313404CF3400E83EA5C0388424E
:105370000EEA020C8CEA5303CDD1DB43C4F84A3069
:105380002046F8BDE272C1E72F22012A05F10C0187
:1053900003DDE01C59F038F888E704BF2B7BE3708D
:1053A00084E700BFB6D225152083B8ED4FF4807C8A
:1053B0000C4B00B553F8202003EB8003C00082F0B3
:1053C000400200F1804003F5805E02F0C00200F56B
:1053D000203003F54053CEF800204160C3F800C0F0
:1053E00000BD00BF04800340DFF81CC0C90041EAD3
:1053F00082015CF820200CEB8003514003F58053C0
:1054000001F00C011960704704800340064B022232
:1054100003EB800319B103F500531A60704703F5DD
:1054200040531A60704700BF048003404FF0504C57
:10543000C308DCF800C000F0070000B58000DFF80A
:105440002CE081400CEBCC0C03F18C009B004EF85F
:10545000201003EBCC0312B1024AD15000BD024A26
:10546000D15000BD48A2024048B202400080024034
:1054700008B54FF05043DFF824C0D3F800E05CF8E3
:105480002E30034207D103434CF82E301520BDE8DF
:10549000084000F0ADB901F0FFFA00BF70C600206F
:1054A00010B50446152000F085FA4FF05043044A29
:1054B000196852F8213023EA040342F8213010BD64
:1054C00070C600204FF0000300B543EC440043ECED
:1054D00040004FF0050E4FF4807C0C4BC20053F897
:1054E000201003EB800081F0400102F1804303F5BE
:1054F000203301F0C00200F5805100F540500A60F1
:10550000C3F804E0C0F800C000BD00BF0480034041
:105510000FB400B5084883B004F092FF049B3BB180
:1055200005A91846019104F08FFD044804F088FF96
:10553000012004F0A1FD00BFF0E90510541E061083
:10554000EFF3108072B6064BD3E8CF1F012200297B
:10555000FAD1C3E8412F0029F6D1BFF35F8F70471E
:10556000038A00200023034AC2E88F3F80F310889B
:10557000704700BF038A002070B51646EFF3108411
:1055800072B6DFF848E0DEE8CF2F0123002AFAD117
:10559000CEE8423F002AF6D1BFF35F8F012301F02E
:1055A000070CCA0803FA0CF310F802C01CEA030542
:1055B00008D14CEA030C00F802C0CEE88F5F84F3F8
:1055C000108870BD3046FFF7A3FF00BF038A00209C
:1055D000F8B50F461946EFF3108672B61C4DD5E8A4
:1055E000CF4F0123002CFAD1C5E8443F002CF6D15F
:1055F000BFF35F8F8A421BD8012402E0013291423F
:1056000022D3D30810F803E002F0070C04FA0CFCD4
:105610001EEA0C0FF2D14EEA0C0E00F803E0104621
:105620000023C5E88F3F86F31088984207DBF8BD5A
:105630000023C5E88F3F86F310884FF0FF30002F1E
:10564000F5D00698FFF764FF4FF0FF30E8E700BFA2
:10565000038A002000B5EFF3108E72B6104BD3E82A
:10566000CFCF0122BCF1000FF9D1C3E84C2FBCF120
:10567000000FF4D1BFF35F8F01224FEAD10C01F08C
:10568000070102FA01F110F80C2022EA010200F8E9
:105690000C200022C3E88F2F8EF3108800BD00BFBE
:1056A000038A0020044A1078431CDBB2182B28BF61
:1056B00010231370704700BF7C2E002000B5DFF868
:1056C0001CC083B001461F231822CDF800C0024839
:1056D000FFF77EFF03B000BD008D002000EA05103B
:1056E0004FF0E022936843F000539360704700BF8F
:1056F0000021044B03F12002C3E88F1F01339342C2
:10570000FAD17047F88900204FF0E0234FF0803243
:10571000C3F80024C3F80424C3F80824C3F80C24F5
:10572000C3F81024C3F81424C3F81824C3F81C24A5
:10573000C3F82024C3F82424C3F82824C3F82C2455
:10574000C3F8302462B67047012300F01F02934073
:10575000400941B1800000F1604000F56140C0F8AF
:10576000803103607047024A203042F82030704791
:1057700000E100E001224309034900F01F008240DC
:10578000403341F82320704700E100E008B5EFF313
:10579000108E72B6134BD3E8CFCF0122BCF1000FAD
:1057A000F9D1C3E84C2FBCF1000FF4D1BFF35F8FE8
:1057B0000D4A10309268DFF834C052F8202062455C
:1057C00001D091420BD1084A926842F82010BFF3F1
:1057D0005F8F0022C3E88F2F8EF3108808BD01F081
:1057E0005BF900BF018A002000ED00E0110100100C
:1057F0002DE9F84F8B461146EFF3108872B6664FCD
:10580000D7E8CF2F0123002AFAD1C7E8423F002A68
:10581000F6D1BFF35F8F614B93F90040002CC0F2CB
:10582000B88000F110055E4804EB440900EB8902E2
:1058300096794FEA89091E705A4B9B6853F8256088
:10584000331A2F2B35D826F0010E9EF807308B42E5
:1058500009D86FE00CEB4C0300EB830393F807A02F
:105860008A4551D99E469EF906C0BCF1000FF1DA77
:105870004BF601590EF1040A131FA3EB0A03C3F3FD
:105880004A036FEAC3436FEAD3438EF80640DFF85A
:1058900020A104EB440400EB8402AEF8043040F88D
:1058A00024A0A2F8049082F806C0D171C2F808B012
:1058B0001DE03D4B9E426CD13C4BD17109F1020180
:1058C0000144043B5B1AC3F34A036FEAC3434FF43A
:1058D00021416FEAD34320F809105380FF214BF692
:1058E0000153C2F808B09171938042F001062D4B2C
:1058F0009B6843F82560BFF35F8F0023C7E88F3FA5
:1059000088F31088BDE8F88FF2466FF00703A3EB29
:1059100009033AF8049F1B1A49F30A0909F102091D
:105920000AEB49099944C9F34A096FEAC9496FEA80
:10593000D949A1E76FF00703D1711C4909F10204AD
:1059400004440439091BA3EB0903C1F34A011B1AE0
:105950006FEAC1417344C3F34A036FEAC3436FEA7A
:10596000D1414FF421466FEAD3435180104920F8CA
:10597000096093804AF6AA2473461B1A5B415C4374
:10598000240DC2F808B0947142F00106CEF8001060
:10599000ADE701F081F800BF018A002096C7002022
:1059A000802E002000ED00E011010010B02E00203C
:1059B000014880472DE9F04782B0EFF3108572B6B9
:1059C000DFF8A8C1DCE8CF2F0123002AFAD1CCE808
:1059D000423F002AF6D1BFF35F8F5E4B00F1100407
:1059E0009B6853F824205C4B9A423DD08A4249D0B0
:1059F000DFF87CE1A2EB0E032F2B35D801274309FA
:105A00009B0000F01F0003F1604303F561438740F2
:105A10001E689A46B946C3F88070BFF35F8FEFF3F4
:105A20000583DBB21F467BBB0123834022F00100CC
:105A300003EA06088668B14208D181E003EB43031C
:105A40000EEB83039E68B14225D0184690F90630CC
:105A5000002BF3DAB1424ED05346B8F1000F17D005
:105A6000C3F88091C3F800903A4B9B6843F8242018
:105A7000BFF35F8F0023CCE88F3F85F3108802B01F
:105A8000BDE8F0871A46EFE79C42CDD001F004F85C
:105A9000C3F88090E8E793F90660002E2CDB06EB54
:105AA00046000EEB800180000190C8798F68D871A4
:105AB00091F906009F60002898714FEA46072EDB97
:105AC0008988019841F30A0100EB41016FF007005A
:105AD00008317144C01A0144C1F34A016FEAC1415F
