:020000041000EA
:10000000002008205B0100101B0100101D010010E2
:100010001101001011010010110100101101001058
:100020001901001019010010190100101F01001022
:10003000110100101901001021010010230100100E
:100040001101001011010010110100101101001028
:100050001101001011010010110100101101001018
:100060001101001011010010110100101101001008
:1000700011010010110100101101001011010010F8
:1000800011010010110100101101001011010010E8
:1000900011010010110100101101001011010010D8
:1000A00011010010110100101101001011010010C8
:1000B00011010010110100101101001011010010B8
:1000C00011010010110100101101001011010010A8
:1000D0001101001011010010110100101101001098
:1000E0001101001011010010110100101101001088
:1000F0001101001011010010110100101101001078
:100100001101001011010010110100101101001067
:10011000EFF30580103800BE00BE00BE00BE00BE7A
:1001200000BE00BEF2EB8871A89B0A10C89B0A10A3
:100130009C01001090A31AE7D3DEFFFF42012110BB
:10014000FF010000F8CD0A00793512AB00201E49EE
:10015000086006C881F3088810474FF050400068D7
:1001600008B10020F3E70DA40ECC002902D000F066
:1001700012F8F9E71549164A002000E001C1914242
:10018000FCD114498847144988471449884700BE60
:10019000FDE701C901C29A42FBD37047C89B0A1010
:1001A000200100208834002030CF0A1000000820F1
:1001B0000000082030CF0A1000100820001008208E
:1001C000000000007047000008ED00E088340020C7
:1001D0003CE1002041C70010FD16001039C7001097
:1001E000704700BF00B5042183B001900AF0C2FE41
:1001F000019803B000BD00BF10B504464FF4805114
:10020000006860F075F8D4E90001BDE810404FF4D3
:10021000807260F0A5B800BF70B50D460646C2B04A
:1002200002AC4FF48072FF21204660F069F8D5E9F6
:1002300000122046521A60F0BFF806F2FB331B038F
:100240004FF47A72694605480093019408F002FF62
:10025000B0FA80F0400942B070BD00BFF901001053
:100260000129084604D8D2E900135B1A402B01D0BB
:10027000002070471146FFF7CFBF00BF10B51948E7
:10028000194C02F0C5F9174803F0CCF8A07C01F036
:1002900039FD207D01F042FD144A237F1178003B97
:1002A00018BF0123FF29E07E05D0884216D04FF009
:1002B000000444EC44100E4CFF28107023700CD046
:1002C00007F0AAFC094A4FF00101137841EC4430D1
:1002D000FF2B02D0227842EC403010BD044C10704D
:1002E0002370EDE7403A00203C3A0020B02C00207B
:1002F000FFE0002070B58AB00C4642F00102ADF874
:100300001600D3E9001000238DF815200122CDE955
:1003100006331F4D8DF818401E4C8DF81420421ADC
:10032000CDE908339DF8386023702B7021D105A9E1
:1003300002A8089205F0DAFE02A90EC9521A402A54
:1003400008D089B9079818B10999091A0AF012FE5C
:100350000AB070BD1048CDE900135FF0C5FFDDE9BC
:10036000001301222E7022700846591A0AF002FE6C
:10037000E8E71046019100920AF0F8FDDDE900215E
:1003800060F01AF8009A079002440992CFE700BF84
:1003900001E10020F9E00020B83700200000000053
:1003A0002DE9F041804686B0104616460F465FF0B4
:1003B000ADFA0446E8B1302828BF302420460AF0C0
:1003C000D5FD3146224606190546029004965FF097
:1003D000F3FF0023394640460093022202AB039606
:1003E000FFF788FF2146284606B0BDE8F0410AF035
:1003F000C1BD9FED077B394640460222009402AB07
:100400008DED027B0494FFF775FF06B0BDE8F08127
:1004100000000000000000002DE9F04FD1E900537A
:100420008B46DBF808909D42A9EB050383B018BF0B
:100430004D603F2BDFF8448174D8DBF80060AC1BC3
:1004400004F1004340333F2B40F29080402C2CBFFE
:10045000271904F140076FF000439F4228BF1F4651
:1004600038460AF083FDAE4282467DD0621E052AE0
:1004700033466FD9811B0139022902466AD924F01B
:10048000030C4FEA940E06EB0C0053F8041B834256
:1004900042F8041BF9D1644510D01A4612F8011B2A
:1004A000D44495420AF82E1008D05A788CF80120CE
:1004B0009A1C95421CBF9B788CF80230544423460A
:1004C000C6469C4608F14004019375460CF1100C99
:1004D0000FCDA5420EF1100E4CF8100C4CF80C1C70
:1004E0004CF8082C4CF8043CEFD1019B03F140057B
:1004F00026B13046A9EB06010AF03CFDCBE900A588
:100500005744CBF808701B4B984503D1012003B02A
:10051000BDE8F08FDBF80890DFF85880A9EB050301
:100520003F2B8AD9464608F14007344610350FCC98
:10053000BC4206F1100645F8100C45F80C1C45F8B5
:10054000082C45F8043CF0D1DBF804504035CBF8DA
:100550000450D8E753465444721E12F8011F03F8A2
:10056000011B9C42F9D1AAE70346A9E7024855F0CE
:10057000C1FA00BF00C03F103004061000B03F10A9
:100580002DE9F0470446B8B040200AF0EFFC2346BE
:10059000024600F1400425460994079003F1400407
:1005A0001968D3F804E0D3F808C0D8681033A34220
:1005B0001160C2F804E0C2F808C0D06002F1100275
:1005C000EED107A90DA8089505F076FE0D9BBDF8A4
:1005D0003A409DF83C10BBB94B1E112B00F26C87C2
:1005E000DFE813F03000480063008C001401BE0106
:1005F000FF01200225031603D8039B03AC037D03F0
:100600008C03B703E90425002046744AFFF7C8FEAF
:10061000109818B11299091A0AF0ACFC079818B191
:100620000999091A0AF0A6FC38B0BDE8F087DDE99F
:1006300010239A4200F04D8512212046684AFFF7A8
:10064000AFFEE5E704200AF091FC00220546654B69
:1006500005F1040C18680121286022AB20460092A5
:10066000CDE923CC2295FFF745FE042128460AF068
:1006700081FCCDE70C200AF079FC5B4B054607CBEB
:10068000002328606960AA6020461A4605F10C0C18
:100690000093022122ABCDE923CC2295FFF72AFE5D
:1006A0000C2128460AF066FCB2E7504922A806F061
:1006B000A1F818200AF05AFC4FF0000E05460DF183
:1006C000880C00F11803CDE91B331A90BCE80F0029
:1006D00028606960AA60BCE80300EB60286169617A
:1006E00020469DF83C107246CDF800E01AABFFF7AB
:1006F00001FE182128460AF03DFC89E7DFF808E1F1
:100700000DF14C0CBEE80F00ACE80F009EE80700AE
:100710008CE8070013AA10A91AA806F0B7F89DF8EC
:100720006830002B00F0CC85314913AA22A806F0CE
:100730009FFB9DF88830002B00F068862D4D2E4ED3
:100740002B68029308F0D4FA029B4FF47A7203EB01
:1007500043031F0106EB0313029300235FF020FE07
:1007600014227B1DF0519819029E0021327128221B
:100770005FF0C6FD214932795FF01EFE204800225D
:100780000168204B01310C2928BF0C210160296828
:1007900020460131A3FB0143DB0803EB4303A1EB3C
:1007A000830100920AAB29609DF83C10CDE90A2232
:1007B0000C92FFF79FFD239825AB984203D0259913
:1007C00001310AF0D7FB1B981DAB98423FF420AFD4
:1007D0001D9901310AF0CEFB1AE700BF480406104C
:1007E0002C060610D0500610C4500610403A0020C7
:1007F0003C3A0020B4370020FC3700205804061093
:10080000F8370020ABAAAAAAEC500610DFF810E2D5
:100810000DF1880CBEE80F00ACE80F009EE8070061
:100820008CE80700AEF1140006F046FB002800F04B
:100830005B85FFF723FD01216F4D704A2B68117016
:10084000029308F055FA029B6D4E03EB43031F0120
:1008500006EB03134FF47A72029300235FF0A0FDBE
:1008600017227B1DF0519819029E00213271282217
:100870005FF046FD634932795FF09EFD6249634B4C
:100880000A6801320C2A28BF0C220A602A68013249
:10089000A3FB0213DB089DF8961003EB4303A2EBC6
:1008A00083035B4A0129927C2B6000F0AA85012A10
:1008B00006D0574A9DF89810127D914200F0F085BD
:1008C000029308F015FA029B4D4D03EB430305EB31
:1008D00003171E014FF47A7200235FF061FD282296
:1008E000731DA851002158193A715FF009FD49495B
:1008F0003A795FF061FD4FF0010C43483E4D0168CD
:100900002A6861440C2928BF0C21404B62440160D5
:10091000A3FB0213DB0803EB4303A2EB83022A6071
:1009200001239DF83C10022002918DF84DC08DF8F6
:100930004C300AF01BFB0022054600F1020C204659
:10094000BDF84C4002992C801AAB0092CDE91BCC2B
:100950001A95FFF7CFFC022128460AF00BFB57E659
:10096000254D2B4806F0BCFB2B68254E029308F062
:10097000BFF9029B4FF47A7203EB43031F0106EBAE
:100980000313029300235FF00BFD1A227B1DF0512D
:100990009819029E0021327128225FF0B1FC327951
:1009A0001D495FF009FD184800220168174B01310D
:1009B0000C2928BF0C210160296820460131A3FBC6
:1009C0000143DB0803EB4303A1EB8301009222AB5D
:1009D00029609DF83C10CDE922222492FFF78AFC81
:1009E00016E6DDE910239A4200F033830721204602
:1009F0000A4AFFF7D5FC0BE6B4370020FBE00020E5
:100A0000FC3700208C040610F8370020ABAAAAAAF5
:100A10003C3A0020A4040610D804061080060610F4
:100A2000403A002022A803F041F81AA801F05EFE27
:100A3000D14B1D780CF0ECFC9DF888209DF88C10B3
:100A4000A2F10302B2FA82F29DF88B300291BDF856
:100A50008D10804652090A209DF889609DF88A70A1
:100A60000592039304910AF081FA039A03464271B6
:100A7000059A0299C271042281710499457080F827
:100A80000280C670077119811A701420329D02937A
:100A90000AF06CFA0246029B857218680A211060FF
:100AA00058680292506018892646108118460AF04C
:100AB00061FA029A9DF868102B0A91749DF89110C2
:100AC000D372D174339B290C1173290E5173190AF7
:100AD0009373D173190C1B0E1174537428201C9D31
:100AE0000AF044FA0346029A05751068142118604A
:100AF00050680293586090689860D068D860106918
:100B0000186110460AF036FA0022029B9DF8D0C008
:100B10009A7783F81CC09DF8D1C0DA7783F81DC09E
:100B20001D9A4FEA154C290A83F816C04FEA156C36
:100B3000597583F817C035994FEA122C1A7683F845
:100B400019C04FEA124C120EDDF8D8E0DA760A0A24
:100B500083F821200A0C83F822204FEA1E2283F812
:100B600025204FEA1E4283F8201083F82620090E24
:100B70004FEA1E6283F8231083F8272083F824E0CD
:100B800083F81AC05020379D0AF0F0F9029B014605
:100B900007461A46984680F8285003F12004136847
:100BA0005068D2F808E0D2F80CC01032A2420B60B4
:100BB0004860C1F808E0C1F80CC001F11001EED1A5
:100BC000D2F800C053684046C1F800C04B602821ED
:100BD0000AF0D0F9082100222C0C87F82A402C0EAC
:100BE00025FA01F387F82B4007F1300487F8293004
:100BF0003046FA62239422AB009207F15004229708
:100C00002494FFF777FB502138460AF0B3F9FFE44C
:100C1000DDE910239B1A042B03D11378522B00F02B
:100C200087830A212046554AFFF7BAFBF0E4DDE945
:100C30001032D11A012900F35F839A420CBF0023BE
:100C40001B7803201E4602930AF090F94FF000052E
:100C5000024601214A48029B006853708642117087
:100C60009570C0F0A582062002920AF07FF9034633
:100C7000029A03211088DD70188090780293987092
:100C800010460AF077F94FF00002029B0C209A8080
:100C90000AF06CF94FF000060546029BAE711A6827
:100CA00080462A6018469B880621AB800AF062F9CC
:100CB00005F10C09EE7105F108030022CDE913835B
:100CC0002046092113AB0092CDF85490FFF712FB98
:100CD000A9EB0807394640460AF04CF998E4DDE9EB
:100CE00010031B1A052B03D10378012B00F0968308
:100CF0000E212046234AFFF753FB89E4DDE9100368
:100D00001B1A052B03D10378012B00F098830F21C8
:100D100020461D4AFFF744FB7AE402F0FBFB9DF8F6
:100D20003C10002800F0D4820022204622AB009222
:100D3000CDE922222492FFF7DDFA69E4DDE91023F0
:100D40009A4200F04F810D212046104AFFF728FB00
:100D50005EE4DDE910239B1A022B06D11378012BE8
:100D600003D15078012840F28A8310212046084A96
:100D7000FFF716FB4CE400BFFBE00020DC0606108A
:100D8000F83700201405061054050610F404061068
:100D90009405061022A802F089FE30200AF0E6F839
:100DA0002F2200F13003054600211A9080460130C1
:100DB0001C9302935FF0A4FA02219DF88820029B05
:100DC000032A1B93297000F0898204204FF0060C3F
:100DD0000A4600239DF88D1019B16046134688F825
:100DE00001209DF88E2012B1034688F801009DF87D
:100DF000891019B143F0080388F801309DF88A1072
:100E000019B143F0100388F801309DF88B1019B127
:100E100043F0200388F801309DF88C1019B143F09D
:100E2000400388F801309DF88F1019B163F07F03FB
:100E300088F80130002A00F0CE80DDE92623BDF8D5
:100E4000A010C8F80220C8F80630BDF8C0209DF8F0
:100E5000C230A8F80A10A8F81020002B00F0538226
:100E600001220321134688F812209DF8C32012B1F5
:100E70000B4688F812109DF8C4201AB143F0040301
:100E800088F812309DF8C5201AB143F0080388F89D
:100E900012309DF8B4201AB143F0100388F81230D4
:100EA0009DF8BA201AB143F0200388F8123020468A
:100EB00000242246A646A44623462146BDF9A65054
:100EC000BDF9A4600295BDF9AE50BDF9AA700395B5
:100ED000BDF8B85004959DF8A25065F3070466F379
:100EE0000F24C6F3072666F31744029E66F31F64B9
:100EF000C8F81340C6F3072464F30702BDF9A840FD
:100F00002C9E64F30F22C4F3072464F3174267F3A3
:100F10001F62C8F81720C7F3072262F3070EBDF956
:100F2000AC20BDF8B64062F30F2EC2F3072262F385
:100F3000174E039A62F31F6EC8F81BE04FEA166E55
:100F40006EF3070CC2F3072264F30F2C240A62F33A
:100F5000070364F3174C2C9A049C62F30F2364F389
:100F60001F6CBDF8BC20240A64F3070162F30F2153
:100F7000120A62F31741BDF8BE20C8F823C062F31D
:100F80001F61120A88F82B20320A62F31743320CD1
:100F900062F31F63C8F81F300023C8F827101A46F1
:100FA00000930B211AABFFF7A5F93021404609F059
:100FB000E1FFFFF72DBBDDE910031B1A302B03D136
:100FC0000378012B00F04C8211212046CF4AFFF715
:100FD000E7F9FFF71DBB0B21204600921AABFFF784
:100FE00089F9E2E722A802F061FD9DF89820082027
:100FF000029209F0BBFF029A0546A2F131020021DC
:101000000120B2FA82F205F10803CDE91B339DF805
:101010008E30C5F80110520969601A952870002BAE
:1010200040F0E781AA70002240F6B83C9DF890108D
:10103000204643EA41132B71A5F806C00D211AABD7
:101040000092FFF757F90821284609F093FFFFF7B0
:10105000DFBAAF4DAF4E2B68029307F049FE029BFB
:101060004FF47A7203EB43031F0106EB0313029361
:1010700000235FF095F926227B1DF0519819029EFE
:101080000021327128225FF03BF93279A2495FF0EA
:1010900093F9A248A24B0168002201310C2928BF14
:1010A0000C210160296820460131A3FB0143012482
:1010B000DB0803EB4303A1EB8301296022AB9DF81E
:1010C0003C100094CDE922222492FFF713F9FFF798
:1010D0009FBA1AA801F00AFB22A802F0E7FC01233C
:1010E0008DF84C309DF891309DF868208DF84E3089
:1010F0009DF8903004208DF84F308DF84D2009F088
:1011000035FF054613991C9A296008200391029225
:1011100009F02CFF03460399029A016028461A71D0
:101120000421CDE9023209F025FF1020039A029B29
:10113000110A597122FA00F1120EDA711D9A997191
:101140000393029209F012FF0546039B029A0821BD
:1011500002721868286058686860184609F00AFF2B
:101160004FF0000E029A2046259C4FEA124C85F85B
:101170000AC0130A4FEA126C220A2C736A73220CFB
:10118000240E6B72AA73EC7385F80BC012217246A1
:101190001AABCDF800E005F11004CDE91B441A9517
:1011A000FFF7A8F81021284609F0E4FEFFF730BA4F
:1011B000574B917019685A4B0B31A3FB01EC4FEA66
:1011C000DC0C0CEB4C0CA1EB8C010C31891BA3FB50
:1011D00001C3DB0803EB4303A1EB83034D4F03EB98
:1011E0004303049206201A0107EB0313BD58CDE90F
:1011F000022309F0BBFE0346049AC5701088032140
:101200001880907804939870104609F0B3FE049B00
:101210002A0A1A712A0C5A710C2009F0A7FE2A0E0C
:101220000546049B82711A68824602609A880621EC
:101230008280184609F09EFE039B05F10C091A797D
:1012400005F10803EA71002A00F028810299042AB6
:1012500001F10501394440F22781082A104638BFC0
:1012600008206FF00043029200F108029A4228BF62
:101270001A4610461746039109F078FEDAF8003056
:1012800005460360DAF804300399029A4360804609
:1012900008305FF091F8029A0C21831850460293AF
:1012A00009F068FE00231A460093029B092114935B
:1012B000EB191593204613AB1395FFF71BF809E5BF
:1012C00020461B9A9DF83C10FFF76AF8FFF77BBA9F
:1012D0002046144AFFF764F8FFF79AB90123052066
:1012E0004FF0070C6B7075E520460F4A9DF83C10D7
:1012F000FFF756F8FFF78CB9092120460B4AFFF794
:101300004FF8FFF785B90221AFE500BFDC050610F5
:10131000B4370020FC370020A0060610F837002064
:10132000ABAAAAAA4C0606107004061064060610A2
:1013300053780132432B7FF474AC12F8013F562BE3
:101340007FF46FAC5378312B7FF46BAC5D4D2B6821
:10135000029307F0CDFC029B5B4A03EB43031F01A2
:1013600002EB0313164602934FF47A7200235FF0E8
:1013700017F812227B1DF0519819029E002132713C
:1013800028225EF0BDFF327950495FF015F8012147
:101390004F48504B02680A440C2A28BF0C220260B6
:1013A0002A680A44A3FB0203DB0803EB4303A2EB16
:1013B0008302494B2A60197007F09AFC4FF47A7245
:1013C00000235EF0EDFF10F1FA0320464FF0000419
:1013D000424A41F100010094C2E9003122469DF8E1
:1013E0003C1022ABCDE922442494FEF783FFFFF7A3
:1013F0000FB99DF8C2306870E870AA7043F0DE0340
:1014000011E6012A7FF45CAAFFF753BA2046239A1B
:101410009DF83C10FEF7C4FFFFF7CDB98178B0F816
:101420000320407802F084F89DF83C1000287FF4F7
:101430007BAC20462A4AFEF7B3FFFFF7E9B8817874
:101440000379C278407802F0E5F89DF83C10002856
:101450007FF46AAC2046234AFEF7A2FFFFF7D8B814
:101460002F21013002F040FA9DF83C1000287FF453
:101470005BAC20461C4AFEF793FFFFF7C9B800F0AB
:10148000010002F081F99DF83C1000287FF44CAC7B
:101490002046164AFEF784FFFFF7BAB8A8460CE4C8
:1014A0004FF0000CFFF73CBA184602925EF084FF42
:1014B000029AA846831800E420460D4AFEF770FF02
:1014C000FFF7A6B8B4370020FC370020C806061086
:1014D000F8370020ABAAAAAAFAE00020983400202E
:1014E000300506107005061004060610B405061037
:1014F00004070610F0B583B0BDF820E0002870D1D5
:10150000002B6ED0012A6FD0032A68D1712940F0D8
:1015100092804E4A1278002A00F09580BEF13F0F6B
:101520005DD99C464A4CA6460CF1100CBEE80F0053
:101530004CF8043C474B10349E454CF8100C4CF8CA
:101540000C1C4CF8082CEED14FF00001424B1A78DD
:101550001970002A42D0414C414D2368019307F095
:10156000C7FB019B4FF47A7203EB43031E0105EBAB
:10157000031700235EF014FF1722731D0021A851EA
:101580003A71581928225EF0BBFE36493A795EF06E
:1015900013FF4FF0010C3448344B026802EB0C018E
:1015A0000C2928BF0C21324A016082F800C0226851
:1015B0006244A3FB02C3DB0803EB4303A2EB8302F9
:1015C000226007F095FB00234FF47A725EF0E8FE8C
:1015D000284BFA3041F10001C3E90001402003B07B
:1015E000F0BD002003B0F0BD0129F8D1BEF13E0FDF
:1015F000F5D9214A02F130011468D2F804E0D2F89A
:1016000008C0D06810328A421C60C3F804E0C3F8F6
:1016100008C0D86003F11003EED150689168D2F889
:1016200000C05860C3F800C099609189927B3F2048
:1016300099819A73D3E772460846194600F074FB05
:1016400080B203B0F0BD1046C9E700BFF9E000204A
:10165000B8370020F837002001E10020B43700201F
:10166000FC37002034070610F8370020ABAAAAAADE
:10167000FDE00020A8340020853A002010B58CB091
:10168000BDF838E020B9022A9C4612D0032A01D0C6
:101690000CB010BD7029FBD143B3BEF1410F1FD078
:1016A000BEF1400F14D160460CB0BDE81040FEF70B
:1016B00067BF73466246684605F06CFE9DF80030D1
:1016C000002BE5D02F210DF1010002F00DF9DFE72D
:1016D00001210020074A0CB0BDE81040FEF760BEB3
:1016E0001B78702BF4D10CF1010CDCE70121024ACC
:1016F000F1E700BF600706104C0706102DE980488F
:10170000B9B00DF00BF800F007FE9A4805F0D8FAD2
:10171000994C2070FEF7B2FD2378002B00F0278152
:10172000964F974EDFF89882346807F0E1FA4FF44D
:101730007A7200235EF034FE142204EB4404250187
:101740006B1D08EB041448F80500227103EB080038
:10175000282200218B4D5EF0D3FD227939465EF0C0
:101760002BFE296830684C1C0C2C28BF0C24864B9F
:1017700001302C60A3FB0043DB0803EB4303A0EB29
:1017800083032C22002123A833605EF0B9FD802161
:101790000822FF237D4C7E48246822908DF88C100F
:1017A00004A822A928948DF88F208DF8B03005F078
:1017B0005BFE784E04AC3546E36820686168A26839
:1017C00010340FC514AB9C4206F11006F3D101246E
:1017D000714BDFF8F0911C700CF0C2FF18B989F85A
:1017E000004001F0F1FD4AF60123002015A9ADF8F3
:1017F00054300CF02FFEDFF87CB1DFF8CCA10021D3
:101800004FF0FF300BF0BCFE99F800300BB10CF03C
:101810009DFF00F059FE03F0E7FE22A802F046F912
:101820009DF88A4024B99DF88B400CB99DF88C40F6
:1018300007F05EFA9DF888309BF81360032B99F847
:10184000005000F03881002E40F03A81002C00F06A
:10185000C0810023514A5EF0A3FDC30740F19A8185
:10186000002D40F0318128460CF05AFF4C4B1B787C
:10187000FF2B04D04B4A1278544044EC403022A84D
:1018800002F014F907F034FACDE900019DF88E104A
:10189000002940F09B80444F3B78002B40F09E8114
:1018A0003D4B1B787BBB414AD2E9003253EA020030
:1018B00040F076812C22002117A85EF021FD8023C4
:1018C0008DF85C30324B04A8169308238DF85F30F6
:1018D000FF238DF880302D4B16A91B682D4E1C93CD
:1018E00005F0C2FD04AC3546E36820686168A26873
:1018F00010340FC514AB9C4206F11006F3D14FF023
:101900000102254B1A709BF81030002B00F0C080AC
:10191000012B00F0E0800BF07BFD002840F0ED8013
:1019200007F0E6F900234FF47A725EF039FD204BA0
:101930001B7833B1DAE90023904271EB030380F0A6
:10194000CC811C4B1A78002A3FF459AF1A4AD2E9CD
:101950000042A0429141FFF452AF00221A700BF0F6
:1019600085FD322007F098F80BF08AFD47E7134F0A
:10197000D7E600BF3C3A0020FBE0002094070610A9
:10198000B4370020F8370020ABAAAAAACC3A00202E
:1019900001808080843A0020FEE0002090D0030087
:1019A000B02C0020FFE00020FCE00020A03400204C
:1019B000FAE00020FDE00020A83400207C0706109B
:1019C000FC370020F8E0002098340020DFF8D882AF
:1019D000329AD8F800309A4200F0A780DFF8CCE2C3
:1019E000A74F9EF800203B7816AC26AD02920393D9
:1019F0000FCD0FC40FCD0FC495E80F0084E80F0082
:101A0000029ADDF8B0C0002A40F015814FF00103C2
:101A10008EF800309B4B1A609B4B16A904A8CDF89A
:101A200070C0C3F800C005F01FFD984E04AC3546E9
:101A3000E36820686168A26810340FC514AB9C424B
:101A400006F11006F3D10BF0EBFC914D04462B7818
:101A5000002B40F0FF804FF001038E4C2B7026AD21
:101A60000FCD0FC40FCD0FC495E80F0007C424F8A5
:101A7000023B1B0C23704FF00102874B3A701A7027
:101A8000329BC8F800309BF81030002B7FF440AF39
:101A9000824A4FF47A61D2E9003253EA020022D03E
:101AA0000098C31A019860EB02028B4272F10002A7
:101AB000FFF436AF17E0002E6CD02DB93446D2E6D5
:101AC000002D3FF4D0AE25460024214600200CF026
:101AD0002FFE2C46CAE6714A4FF4FA61D2E9003271
:101AE00053EA0200DCD16C4B1B78002B3FF418AF9B
:101AF0000BF08EFC00283FF413AF00200CF0AAFA84
:101B000000283FF40DAF3F2301210020644A0CF070
:101B1000BDFA00283FF404AF00235F4A13705F4B07
:101B2000009A1A60019A5A60FAE65B4B1B78002B08
:101B30007FF4E9AE594AD2E9003253EA02002FD1CC
:101B400016AC26AD0FCD0FC40FCD0FC495E80F0016
:101B5000DFF858C184E80F009CF80070002F71D0A6
:101B6000484B1B682C9A16A91344474A04A81C9397
:101B7000136005F079FC454E04AC3546E3682068F7
:101B80006168A26810340FC514AB9C4206F11006C0
:101B9000F3D1B4E6002D40F09B8001252C4662E68F
:101BA0000098C41A019860EB0200B4F57A5F70F1F6
:101BB00000000AD29BF81010002900F08B80012948
:101BC0007FF4AEAE4FF4FA616AE700293FF472AEDB
:101BD000B6E7002D3FF447AE254676E72C2217A83E
:101BE0005EF08EFB80238DF85C302E4B04A816939C
:101BF00008238DF85F30FF238DF88030224B16A923
:101C00001B68224E1C9305F02FFC04AC3546E3689C
:101C100020686168A26810340FC514AB9C4206F1BD
:101C20001006F3D14FF001021B4B1A700023184A23
:101C30003B70137067E6039B002B39D0114B1B6878
:101C40009C44E9E64FF001030E4A8CF8003017601F
:101C50003B4687E70F4826A905F098FC80B39BF820
:101C600018306BB3002C3FF4F6AE0BF0E1FB2B7891
:101C7000002B3FF4F0AE00287FF4EDAEFBE600BF92
:101C8000FCE00020C43A0020CC3A0020843A002036
:101C900000E10020B42C0020FEE00020A034002051
:101CA000853A002001808080C83A002002E10020AF
:101CB0000D4B1B68A3EB0C029C460C4B1A60ABE669
:101CC0002B78002B3FF4C7AE002C7FF4D4AEC2E6D5
:101CD0002C46FAE64FF47A61E2E60021044B08460E
:101CE000197007F043F900BFCC3A0020C43A002035
:101CF000FAE000200149024804F0D0BFE42C0020A3
:101D00003C3A002040F6E64340F6F251012808BF75
:101D10000B46014A13807047FA2C0020014B1870C3
:101D2000704700BF03E1002070B509288CB023D0B4
:101D300020281AD005281BD12824C9B1944217D8CD
:101D400001900D460846224600215EF0D9FA019B1B
:101D5000052B26D0092B11D02046354A354BC5F826
:101D60001720C5F81B300CB070BD3F240029E5D109
:101D7000002420460CB070BD1324DEE72E4B1B78E8
:101D8000002B37D12D4B1A784AB3062228462C490E
:101D90005EF0AAFA6B7923F0030343F002036B7140
:101DA000E7E702A805F03CFBAE4602AEB4460EF1F2
:101DB000100EBCE80F004EF8043C0AAB9C4506F13F
:101DC00010064EF8100C4EF80C1C4EF8082CEDD1F5
:101DD000BCE80300CEF80000CEF80410C9E70BF011
:101DE00081F80122154B1A70154B0A0A18601971F7
:101DF0005A71CAE7002302A8CDE902330AF0D2FEE5
:101E00000298104BDDF80A1043404B409DF80C201F
:101E10009DF80E102B604A409DF80F309DF80D1074
:101E200082F04C024B4083F06B032A716B71B1E777
:101E300001004C4D002F004D03E1002004E1002083
:101E4000D03A00204D697261054B064A1B7806485E
:101E5000002B0CBF002303231288037442817047B8
:101E600003E10020FA2C0020E82C002008B90248E9
:101E700070470020704700BF485106100048704767
:101E80001C51061058B940F209434FF44171DFF874
:101E9000E8C03948ACF80230ACF80010704730B5F3
:101EA00002288BB025D003283ED004283AD8334BE3
:101EB00053F82040B4B320465DF028FD3F28034688
:101EC00028BF3F23591C49001D46DFF8ACC041F430
:101ED000407148B16046621E931C1B1B12F801EF53
:101EE0009D4220F802EFF7D82348ACF800100BB061
:101EF00030BD40F6F253224A12889A4235D04FF450
:101F00004F714FF01D0E1F48DFF86CC00EF1FF3E01
:101F10006246431E864413F8010F9E4522F8020FC5
:101F2000F9D1E1E70020E2E7174B1B78002BF9D04D
:101F30002122002168465EF0E3F9212168460AF07B
:101F400039FE68465DF0E2FCDFF82CC040B16B461C
:101F500062461C1813F8011BA34222F8021FF9D194
:101F6000411C490041F44071BEE740F246314FF058
:101F7000220E0648C8E700BF283700200851061087
:101F8000FA2C0020D007061003E10020AC07061051
:101F90002DE9F04FD44BADF69C0D1D68002D00F0DF
:101FA00098810026DFF850A34FF4F062002146A884
:101FB0005EF0A6F90AF1020B0DF58D790395CB4B76
:101FC00040F2DF12A3FB0635731B05EB530540F20D
:101FD000FF132D0A05F10108984528BF9846C5EB67
:101FE00005143AF93800C5EB4414341B80FB040196
:101FF0003AF935C0C4F5EF7701370023C7FB0C0170
:102000005EF0C2F929F8020C3BF938003BF9353093
:1020100080FB040140F2DF12C7FB030100235EF0E6
:10202000B3F9B34B06F2FF169E4229F8040BC6D152
:10203000C824039D14AE0021224630465EF060F9AC
:1020400028464FF4F072334646A9009423F0CAFAAA
:10205000A042054600F23D810021402204A85EF026
:102060004FF9A44BA4494FF0FF3E4FF0800A188867
:10207000DFF898C2DFF8988201F5805904AF039524
:102080007DE0002B03DA14EB080443F10003240D78
:1020900044EA0334802C4FEA235373F1000300DB3E
:1020A0007F24B1F90EB0B1F90620B1F916501BEB3F
:1020B00002033C704FEAE272B1F91E4042EBEB7250
:1020C000EB1842EBE572E31842EBE472B1F92640FB
:1020D000E51842EBE473B1F92E40621943EBE47367
:1020E000B1F93640A21843EBE473B1F93E40A218AF
:1020F00043EBE473B1F94640A21843EBE473B1F942
:102100004E40A21843EBE473B1F95640A21843EBDA
:10211000E473B1F95E40A21843EBE473B1F9664091
:10212000A21843EBE473B1F96E40A21843EBE473D9
:10213000B1F97640A21843EBE473B1F97E40A218DE
:1021400043EBE473A2FB004200FB0323A4457EEBB8
:1021500003026FDA002B03DA14EB080443F10003E7
:10216000240D44EA0334802C4FEA235373F1000317
:10217000A8BF7F24803189457C7060D00237B1F9D7
:102180000CB0B1F90420B1F91450B1F91C401BEBAB
:1021900002034FEAE27242EBEB72EB1842EBE5729C
:1021A000E31842EBE472B1F92440E31842EBE47225
:1021B000B1F92C40E31842EBE472B1F93440E31872
:1021C00042EBE472B1F93C40E31842EBE472B1F93E
:1021D0004440E31842EBE472B1F94C40E31842EB9F
:1021E000E472B1F95440E31842EBE472B1F95C4097
:1021F000E31842EBE472B1F96440E31842EBE47295
:10220000B1F96C40E31842EBE472B1F97440E318A1
:1022100042EBE472B1F97C40E31842EBE472A3FBB9
:10222000004300FB0233A4457EEB0302FFF629AF17
:10223000802436E78031494587F801A09ED12F4C94
:102240004FF4C77200212046039D5EF059F83623F3
:1022500023703F239022237344F292032848294994
:10226000E2720278A4F84C300B78A272013202704C
:102270005A1C1B0104AF0A70637004F14E0EBC4679
:102280000EF1100EBCE80F00B44507F110074EF830
:10229000100C4EF80C1C4EF8082C4EF8043CEED1F5
:1022A0001323012D84F88F5084F88E3016DD2A46D2
:1022B000314615485EF080F84FF4C7710F4805F0BD
:1022C000F5FBC0B2B0FA80F040090DF69C0DBDE8F8
:1022D000F08F00200DF69C0DBDE8F08F04BF337821
:1022E00084F89030E8E700BFE08A00209B01A3114A
:1022F00020BE0300002D0020E48A0020E49A002084
:102300000AE1002007E10020749B00200000F0F7A4
:10231000FFFF0F000000000030B5002483B04FF431
:102320008042002146485DF0EBFF4649464B474D51
:102330000C604FF48052214645482C601C605DF0D3
:10234000DFFF9FED3D7B434947F6FF730C60424939
:102350004FF480720C6041494FF400700C604049AA
:10236000404D0C6040490C6040490C6040490C6095
:1023700040490C60404981ED007B40490C70404968
:102380000C7040490C7040490C7040490C70404939
:102390000C7040490C7040490B8040490B8040490B
:1023A0000B804049404B0A801A804049404A414BCB
:1023B0000860147021464FF480523F481C705DF055
:1023C0009FFF21464FF4C7723C485DF099FF40F6ED
:1023D000010202214BF6803001AB2C70019421F0F8
:1023E00089F8374C206008B1019D1DB1002323609E
:1023F00003B030BD40F6A271324A23F0BDF92A463F
:1024000040F6A671206823F0B7F9052240F6AA71BC
:10241000206823F0B1F940F6BA3240F6B87120686E
:1024200023F0AAF9102240F6C471206823F0A4F921
:1024300003B030BDAFF300800000000000000000DA
:10244000D83A0020DC7A0020749C0020D87A002042
:10245000E07A0020809C0020849C00208C9C00203E
:10246000789C002009E10020889C00207C9C0020B2
:10247000909C0020949C0020B034002005E10020B6
:102480000EE100200DE1002008E100200BE100201A
:102490000CE1002006E10020082D0020062D002080
:1024A000042D0020022D0020002D0020FC2C0020F7
:1024B00007E100200AE10020E48A0020E49A0020DD
:1024C000E08A002000710200F0B5444C97B02378F8
:1024D0000BB917B0F0BD06F00BFC414AD2E900354C
:1024E000C01A4FF000033F4A61EB0501824273EBD3
:1024F000010169D32378002BEBD03B4B1B68002BE9
:10250000E7D0684601F0D2FA38490B78002B50D159
:10251000374E3849326809688A42DAD39DF8081084
:102520000029D6D0DFF8D8C09E46334C334F0CF686
:10253000F875A2B12368013A591CC1F30A0107EBEF
:10254000C303AC452160326093E803008CE80300CC
:102550001AD00EF1010E0CF1080C002AEAD1AC459C
:10256000CCE9002210D0264B0EF1010E03EBCE0376
:10257000CEF5007E03EBCE0E0EF1080E083343E9D4
:10258000022208339E45FAD1FFF702FDF8B101237C
:10259000164A13704FF4C7711A4801F009FA00285F
:1025A00097D00021184A1368013313600F4B19703C
:1025B0008FE79DF80830002BECD1144A0B7013689C
:1025C00003F50073136084E7237017B0F0BD0F4A62
:1025D000136803F5007313607BE700BF05E100207B
:1025E000B0340020F0490200E08A002009E1002018
:1025F000749C0020FC2C0020D87A0020D83A0020BF
:10260000E48A0020E49A00207C9C0020889C002022
:10261000D0ED017AB0EE677ABEEECC7A2DE9F041CA
:10262000C27C284BDFF8BCC01A70027A90F809E02F
:10263000C2EBC232ACFB0215CEEBCE3EACFB0E1CA5
:10264000521B437B05EB52021F4D9209AEEB0C0E61
:10265000102B2A800CEB5E0C1C4A38BF10234FEA6B
:102660009C1CA2F800C017EE102A7F2B28BF7F23E6
:10267000B2F5807FB8BF4FF48072B2F5007FA8BF7B
:102680004FF40072857A124908356D01103B0D80B8
:10269000104E857CDFF85080807D03EB43035B02A6
:1026A0003070A8FB03015B1A01EB53010A4F0B4C7E
:1026B0000B4B890901F500713D7021601A80BDE85E
:1026C000F08100BF0BE10020062D0020042D00202A
:1026D000022D002006E100200CE10020FC2C00204F
:1026E000002D002011080402890B3527DFF880C077
:1026F0001649174B174A9CF800C009781B781278C6
:1027000080F800C0417083700AB9134B1A78134BDC
:10271000C2701B68DFF85CC0003B18BF0123104982
:10272000104ADCF800C009681268C0F808C0C0E9A7
:102730000312DFF844C00C490C4ADCF800C00968F9
:102740001268C0E905C1C261037170470EE1002043
:102750000DE1002008E100200BE10020E08A0020CC
:10276000889C0020749C0020909C0020949C002059
:1027700005E10020789C00207C9C002038B54FF4B7
:102780004C7200211A485DF0BBFD4FF0FF30002372
:1027900000220021174C184D20602860174C184863
:1027A000C4E900230170174C1748C4E90023C0E9AD
:1027B00000233F2215485DF0A3FD154B1868EFF389
:1027C000108272B6D0E8CF5F0124002DFAD1C0E8A4
:1027D000454F002DF6D1BFF35F8F00210D485A60A1
:1027E00001811B68C160C3E88F1F82F3108838BD68
:1027F000B49C0020102D00200C2D0020E834002077
:1028000019E10020D0340020C0340020E49F0020D3
:10281000A49C0020182D002010B5214C2368EFF354
:10282000108272B6D3E8CF0F01210028FAD1C3E895
:10283000401F0028F6D1BFF35F8F1A4B62601888E3
:1028400030B1194B587918B11B78032B07D00020F1
:1028500000232168C1E88F3F82F3108810BD134B1D
:102860001B78002BF3D112490978062901D01846AC
:10287000EEE71049D1E900310B43E9D006F038FA10
:102880004FF47A7200235DF08BFD0A4A1368984278
:102890005368626899412CBF01200020D8E700BF2F
:1028A000A49C0020D6E00020182D00201DE100206F
:1028B0003CA00020183500201A4A1368032B24D9A5
:1028C0000268194BC3F812208288DA82174B196804
:1028D000EFF3108272B6D1E8CFCF0120BCF1000F28
:1028E000F9D1C1E84C0FBCF1000FF4D1BFF35F8FF9
:1028F0004FF0010C0E485A6000211B6880F807C099
:10290000C3E88F1F82F31088704703EB430C013339
:1029100005491360036841F81C30838801EB4C01C2
:102920008B80D3E748A0002024A00020A49C002096
:10293000182D00202DE9F041454B94B01B78002B59
:1029400071D00546FFF768FF044600286BD0414E62
:102950003368002B67DA404B4FF4C7721B680021C5
:10296000002B0CBF4FF4CC7000203C4B08BF01275C
:102970001844804618BF00275DF0C2FC38490A7829
:10298000501C087002F00F022946684604F0FAFE57
:102990004E22694640465DF00FFD4FF4CC714E2249
:1029A0002E4B376001FB07333121C3F89021012200
:1029B00083F88E1183F8942106F09AF94FF47A7215
:1029C00000235DF0EDFC0022264B1A70264BC3E974
:1029D0000001EB7A3BB12F22012A05F10C0131DD18
:1029E00022485DF081FC2B7813B3DFF880C00DF135
:1029F0000305E646EB6828686968AA681035AEE802
:102A00000F000DF133039D420CF1100CF1D1AA68B7
:102A100028686968ACE80700AA89AB7BACF800209D
:102A20008CF8023000E00024204614B0BDE8F081AC
:102A3000EB78002BD9D1EB79002BD6D16B7A002B18
:102A4000F2D0D2E7CFD1094B2A7B1A70CBE700BF77
:102A500010E100200C2D0020102D0020B49C00203F
:102A600014E1002011E10020B8340020E49F002090
:102A7000F0B5454D85B0AA7912B1EA79002A55D052
:102A8000002600270024414B414AC3E90067414B1F
:102A900054601460C2F807403F4A1C703F4BC2E9C3
:102AA00000673F493F4A1C703F4BC2E900670C700A
:102AB0004E2221463D48C3E90067C5E900442C7217
:102AC0005DF01EFC3A4A3B4BC2E900673A4E1C706F
:102AD000FFF754FE3368EFF3108272B6D3E8CF0FDE
:102AE00001210028FAD1C3E8401F0028F6D1BFF326
:102AF0005F8F324B324D334F1C807260D5E900320C
:102B00001343BC80BC711DD1BC7004233B70326880
:102B10000023C2E88F3F726882F310882A4A2B494B
:102B2000C2E9003393600B7005B0F0BD2A7A002A29
:102B3000A6D195E80300029002A8ADF80C1012F09F
:102B400099FC9DE706F0D4F82C6800234FF47A72C4
:102B500001945DF025FC019A6C689042A14134BF5C
:102B6000012300231443BB70CFD006F0C1F84FF40B
:102B70007A7200235DF014FCD5E90023904299415C
:102B8000C3D20223C2E700BFA4A80020F83400206B
:102B90003CA000201BE10020D83400201AE10020D6
:102BA00018E1002000350020C834002054A800207F
:102BB000183500201DE10020A49C0020D6E0002054
:102BC000F0340020182D0020989C00201EE10020E9
:102BD000254A70B51378FBB1002100240025234B52
:102BE000234AC3E90011C3F80710224B1688C3E932
:102BF0000045214B214AC3E90045214BC2E900456C
:102C00001970204B4E22204819705DF079FB1F4B44
:102C1000C3E900451EBB70BD01251D4C157026681B
:102C2000EFF3108572B6D6E8CFCF0122BCF1000FCA
:102C3000F9D1C6E84C2FBCF1000FF4D1BFF35F8F80
:102C4000144A656082F84910116D2468013182F8D8
:102C500048001165C4E88F3F85F31088BCE7304613
:102C6000BDE870401DF0A2BD1EE100203CA0002088
:102C7000D6E00020F834002000350020D8340020B1
:102C80001BE100201AE1002054A800201835002084
:102C9000A49C0020182D002038B5494CD4E90032FE
:102CA000134300D138BD474B1D7806F021F84FF48F
:102CB0007A7200235DF074FBD4E9002390429941BD
:102CC000F0D2002DEED0404C2378002BEAD13F4BC0
:102CD0001B78002BE6D13E4B1B88002BE2D13D4AEE
:102CE000D2E9003213430CD006F002F84FF47A72A6
:102CF00000235DF055FB374BD3E900239042994107
:102D0000D0D3082017F056FB334B1A6800BB9FED59
:102D10002A7B304981ED007BEFF3108172B6D2E857
:102D2000CFEF5FF0010CBEF1000FF8D1C2E84ECF3B
:102D3000BEF1000FF3D1BFF35F8F0122274D596021
:102D4000EA701B682270C3E88F0F81F3108838BDCA
:102D5000012423490C70EFF3108172B6D2E8CFEF53
:102D60005FF0010CBEF1000FF8D1C2E84ECFBEF10A
:102D7000000FF3D1BFF35F8FD3F800C05960174B3A
:102D80001A6D83F84840224483F849001A650023ED
:102D9000CCE88F3F81F3108805F0AAFF00234FF4A1
:102DA0007A725DF0FDFA0B4B10F57A7041F100017B
:102DB000C3E9000138BD00BF0000000000000000B2
:102DC000F03400200FE1002012E1002018E1002083
:102DD000D6E00020E0340020A49C0020182D002024
:102DE0001EE10020000000002DE9F043AFB005F027
:102DF0007FFF4FF47A7200235DF0D2FA0025984BE2
:102E0000984C1D70C4E9000105F072FF4FF47A720E
:102E100000235DF0C5FA034601249348934E1B1826
:102E2000934F41F10001716033603C700026002730
:102E3000904A914B2046C3E90067C2E9005595606E
:102E400017F0A4F8204617F067F88C4B1978002982
:102E500038D1582202A85DF053FA894C894E8A4F26
:102E6000388838B19DF80830032B03D09DF80E50F8
:102E7000002D5FD02268EFF3108372B6D2E8CF0F37
:102E800001210028FAD1C2E8401F0028F6D1BFF383
:102E90005F8F32780121032A18BF0222B17018BF58
:102EA0003270216800226360C1E88F2F83F310889D
:102EB0003B881BB9754B1B78002B35D001202FB0F8
:102EC000BDE8F0836E4C2268EFF3108372B6D2E84F
:102ED000CF0F01210028FAD1C2E8401F0028F6D107
:102EE000BFF35F8F674E5822314618A86360019385
:102EF0005DF062FA664A777A1168506888468146C2
:102F00002268C2E88F5F019B83F3108827B151EAE2
:102F1000000340F089800027582218A902A88DF8E4
:102F200069705DF049FA9AE7FFF7B6FE01202FB00D
:102F3000BDE8F083574B18801DF038FC554B1B88BB
:102F4000002B00F0828005F0D3FE4FF47A7200234C
:102F50005DF026FA42F210720125821841F1000854
:102F60004FF0000EDFF868C14B4BCCE900014B4934
:102F7000C1E900284A4A15704A4A82F800E09A7965
:102F800062B1DA7952B91A7A42B993E8030018901B
:102F900018A8ADF8641012F06DFA3F4B00259FEDB4
:102FA0002E7BC3E900551D723F4B404A83ED007BE9
:102FB0003F4B15605560C2F807503E4A83ED007BD9
:102FC0003D4B157031483D4A83ED007B3C4B294613
:102FD000057015703B484E2283ED007B3D805DF00F
:102FE0008FF99FED1D7B384B83ED007B374B1D70B8
:102FF000FFF7C4FB2268EFF3108372B6D2E8CF1F4D
:1030000001200029FAD1C2E8410F0029F6D1BFF30F
:103010005F8F022263603270B5802268B571C2E8AA
:103020008F5F83F3108825E705F062FE4FF47A7214
:1030300000235DF0B5F9B0EB080061EB0901FB2856
:1030400071F10001BFF467AF66E7284629462A46BA
:10305000A84685E7AFF300800000000000000000F4
:1030600011E10020B8340020E0930400F034002087
:1030700017E10020989C0020E034002010E100209F
:10308000A49C0020182D0020D6E0002018E100208C
:10309000C0340020D4E00020A4A800201035002077
:1030A0001FE1002020E10020C83400203CA00020C7
:1030B000D83400201BE10020F83400201AE1002061
:1030C0000035002054A80020183500201DE1002004
:1030D0000835002000000000794B1B7803B17047D1
:1030E000F0B5784C87B0D4E90032134301D107B072
:1030F000F0BD754B06461D7805F0FAFD4FF47A7267
:1031000000235DF04DF9D4E90023904299412F4608
:10311000EDD2002DEBD06D4B1B78002BE7D16C4B23
:103120001B88002BE3D16B4B9B79002B40F0368141
:1031300000234FF0010C674D674CC5E900332B723B
:10314000306822682860B18885F806C0A980002A06
:1031500000F0AD80614903E02268934280F0A780CF
:103160003046CDE9001310F06BFD019B009901334F
:1031700006310028F0D1574BDF7159490B78002BED
:1031800040F01481574C2368EFF3108272B6D3E8F5
:10319000CF0F5FF0010C0028F9D1C3E840CF002821
:1031A000F5D1BFF35F8F00234F4D0B706260216834
:1031B000EB70C1E88F3F82F310889FED3F7BB288B0
:1031C0003068ADF80C20494A1946C2E90033C2F80C
:1031D0000730474A02901370464A47481370474BDE
:1031E0004E2283ED007B464B83ED007B454B83ED08
:1031F000007B5DF085F800239FED2F7B344A138020
:10320000414A82ED007B414A1370414A13702268A3
:10321000EFF3108172B6D2E8CFCF0120BCF1000FDE
:10322000F9D1C2E84C0FBCF1000FF4D1BFF35F8FAE
:10323000EA6C61600132EA642268C2E88F3F81F380
:1032400010880121224A02A81DF02EFA002306460A
:10325000002861D105F04CFD4FF47A7200235DF037
:103260009FF842F21073C0182A4B41F100015960D7
:1032700018600123154A21681370EFF3108272B6AB
:10328000D1E8CFCF0120BCF1000FF9D1C1E84C0F3C
:10329000BCF1000FF4D1BFF35F8F134962600B7173
:1032A0000B702368C3E88F6F82F310881FE7002735
:1032B00061E700BFAFF300800000000000000000E5
:1032C00011E10020F03400200FE1002018E100207F
:1032D000D6E00020A4A8002048A0002024A00020C0
:1032E00012E10020A49C0020182D00203CA000200A
:1032F0001BE100201AE1002054A80020D83400204F
:10330000F834002000350020183500201DE1002091
:103310001EE10020C8340020012226490A702268DC
:10332000EFF3108172B6D2E8CFCF0120BCF1000FCD
:10333000F9D1C2E84C0FBCF1000FF4D1BFF35F8F9D
:10334000022285F848202A6D2068013285F84960FC
:1033500061602A65C0E88F3F81F31088164A93792F
:103360005BB1D3794BB9137A3BB992E8030004906F
:1033700004A8ADF8141012F07DF800230F49104A8C
:103380000D480978C0E90033C2E900330372936045
:1033900000293FF4ACAEFFF77FFCA8E630460649B3
:1033A00010F04EFC00287FF4C3AEE6E617F020F8DC
:1033B0000449E7E61EE10020A4A8002017E1002050
:1033C000989C002012E1002008B5104B1A7802B139
:1033D00008BD0F4805F01EF801220C4B0D491A706C
:1033E0000A8018F0B1F94FF400610B481DF0D6F8CF
:1033F0000A481DF0F3F80A48084B436012F068FBD6
:10340000BDE80840012016F079BC00BF10E10020A3
:10341000A49C0020182D002054A00020793B00100F
:103420004CA00020D0ED017AB0EE677ABEEECC7AE7
:1034300038B52F4BC27A197817EE103AB3F5807F62
:10344000B8BF4FF48073B3F5007FA8BF4FF400738B
:10345000002943D0002A29D04FF0000E254AD2F887
:1034600000C0EFF3108172B6DCE8CF5F0124002DBD
:10347000FAD1CCE8454F002DF6D1BFF35F8FDFF8CE
:1034800090C05160ACF8003090F815C01A4BC07A6B
:1034900083F800C0194B126818700023C2E88F3FF0
:1034A00081F31088BEF1000F04D138BD144A92F8A0
:1034B00000E0D3E74FF00005114C257005F018FC33
:1034C0004FF47A7200235CF06BFF0E4B25701A7874
:1034D0000D4B1A700D4BC3E9000138BDDFF830C049
:1034E0000549407DACF80030044B08701A7038BDB7
:1034F00010E10020A49C002013E1002015E1002031
:1035000011E100200FE100201CE10020B834002070
:103510000A2D0020044B1B7813B1044B1B780BB908
:1035200018467047FFF760BC10E100200FE1002053
:1035300070B540F6B734531E9BB2A34292B003D984
:103540000024204612B070BD2D4B1B78002B54D0A8
:103550002C4B1C68EFF3108C72B6D4E8CF5F5FF091
:10356000010E002DF9D1C4E845EF002DF5D1BFF3D0
:103570005F8FD3F800E0C3F804C0234B1C880023FE
:10358000CEE88F3F8CF31088054601911646002146
:1035900038220DF10F005CF0B3FE019B04FB05F235
:1035A00004FB03F102F180031B0A8031090AFF2B9F
:1035B00028BFFF23FF2928BFFF214FF0010503A8E3
:1035C0008DF80C508DF80D308DF80E10FFF7B2F914
:1035D00004460028B4D00D4B1D7005F089FB4FF454
:1035E0007A7200235CF0DCFE094B801941F1000186
:1035F000C3E90001204612B070BD034B1C88C3E72D
:1036000010E10020A49C00200A2D002019E10020D8
:10361000D03400202DE9F0411546A4B007460E46EF
:103620003B22002101A803F01F045CF069FE8DF825
:103630000A5001254C4B8DF808701B788DF80960F5
:103640008DF80C408DF807508DF80B50002B79D079
:10365000FFF7E2F80446002874D0444E3368002B8C
:1036600070DA434B4FF4C7721B680021002B0CBF6C
:103670004FF4CC7000203F4B08BF01271844804610
:1036800018BF00275CF03CFE3B490A78501C0870CC
:1036900002F00F0201A910A804F074F84E2210A93C
:1036A00040465CF089FE4FF4CC71324B4E2201FB58
:1036B00007333121C3F8902183F8945183F88E1198
:1036C000376005F015FB4FF47A7200235CF068FE5A
:1036D00000222A4B2A4D1A709DF80F30C5E90001CF
:1036E0007BB1284D0DF1100CBCE80F000FC5BCE8F4
:1036F0000F000FC59CE80F0007C51A0C25F8023B08
:103700002A709DF8043013B3DFF878C00DF143053B
:10371000E646EB6828686968AA681035AEE80F00CD
:103720000DF173039D420CF1100CF1D1AA682868C9
:103730006968ACE80700AA89AB7BACF800208CF87C
:10374000023000E00024204624B0BDE8F0819DF85E
:103750000730002BD8D19DF80B30002BD4D19DF829
:103760000D30002BEFD0CFE710E100200C2D002012
:10377000102D0020B49C002014E1002011E1002055
:10378000B8340020E49F00202DE9F04104460125D3
:10379000A4B03B22002101A85CF0B2FD4A4B8DF899
:1037A0000E401B788DF80D50002B7BD0FFF734F8BE
:1037B0000446002876D0454E3368002B72DA444B1D
:1037C0004FF4C7721B680021002B0CBF4FF4CC7064
:1037D0000020404B08BF01271844804618BF00272F
:1037E0005CF08EFD3C490A78501C087002F00F0214
:1037F00001A910A803F0C6FF4E2210A940465CF0B4
:10380000DBFD4FF4CC71334B4E2201FB07333121EA
:10381000C3F8902183F8945183F88E11376005F036
:1038200067FA4FF47A7200235CF0BAFD00222B4B4A
:103830002B4D1A709DF80F30C5E900018BB1DFF8F0
:10384000A4C004AD0FCDACE80F000FCDACE80F0065
:1038500095E80F00ACE807001A0C2CF8023B8CF836
:1038600000209DF8043013B3DFF878C00DF1430554
:10387000E646EB6828686968AA681035AEE80F006C
:103880000DF173039D420CF1100CF1D1AA68286868
:103890006968ACE80700AA89AB7BACF800208CF81B
:1038A000023000E00024204624B0BDE8F0819DF8FD
:1038B0000730002BD8D19DF80B30002BD4D19DF8C8
:1038C0000D30002BEFD0CFE710E100200C2D0020B1
:1038D000102D0020B49C002014E1002011E10020F4
:1038E000B8340020E49F002018B12F2902D0002016
:1038F0007047704700230122844630B591B0CDE96E
:103900000133039304AC8DF80F2000F12005A64687
:10391000DCF80000DCF80410DCF80820DCF80C30DF
:103920000CF1100CAC45AEE80F0004F11004EED120
:10393000DCF80820DCF80000DCF80410AEE8070032
:10394000BCF80C30AEF80030164B9CF80E201B78FB
:103950008EF8022013B3144B1968EFF3108272B67D
:10396000D1E8CFCF0120BCF1000FF9D1C1E84C0F55
:10397000BCF1000FF4D1BFF35F8F0C4918685A6097
:1039800009780023C0E88F3F82F3108804A803F071
:103990008BFF01A8FEF7CEFF11B030BD034B1978A5
:1039A000F4E700BF10E10020A49C002013E10020F8
:1039B0002DE9F04182B00E46054604F077F8C1B219
:1039C00000295BD1334B1B78002B57D00191FEF7B8
:1039D00023FF0446002851D02F4B1B68002B4DDAE3
:1039E0002E4B2F481B684FF4C772002B0CBF4FF4AF
:1039F000CC7300230199184498460CBF0127002777
:103A00005CF07EFC012E034632463CDD29465CF02C
:103A10006BFC0346234D03F10D0CAE460CF1100C6C
:103A2000BEE80F004CF8043C1F4B10359E454CF887
:103A3000100C4CF80C1C4CF8082CEED14FF4CC7246
:103A40002B46174902FB071E07CBCCF80000CCF829
:103A50000410CCF808201A889B78ACF80C208CF85D
:103A60000E300D4BCEF890611F604FF036038EF88C
:103A70008E314FF001038EF8943100E0002420468F
:103A800002B0BDE8F081C5D12A78054901F80820C7
:103A9000C0E700BF10E100200C2D0020102D0020F9
:103AA000B49C0020E49F002014A000202DE9F041E8
:103AB0002A4B0446197896B069B958225CF020FC6C
:103AC000FF2320462649274A84F83830C4E90412E7
:103AD00016B0BDE8F081244B1A68EFF3108572B67A
:103AE000D2E8CF0F01210028FAD1C2E8401F0028F8
:103AF000F6D1BFF35F8F582268461C495D605CF0C9
:103B00005BFC1B4A1949D2E90067174B4A7A00202F
:103B100090461B68C3E88F0F85F3108822B156EAE0
:103B200007030CD14FF000085822694620468DF853
:103B300009805CF041FC204616B0BDE8F08105F03C
:103B4000D7F84FF47A7200235CF02AFC801B61EBFB
:103B50000701FB2871F10001E4D2E5E710E1002044
:103B60000180808080000008A49C0020182D002087
:103B7000C034002000000000042800D07047002A54
:103B8000FCD02DE9F0431178164633299FB000F0A0
:103B900031873AD80339CAB2132A33D8132931D816
:103BA000DFE811F0BA013000B001DE021D02300082
:103BB0003000300030003000300030003000300085
:103BC00030003000300030003000F5010121002AC3
:103BD00000F0A887AA4B1B78002B1CBF00210022F5
:103BE00000234FF6FF74DFF8FCC2A6488CF80010E3
:103BF000A549A64D0A70A649A64A2B700C80036001
:103C0000838013701FB0BDE8F083DD2900F01A87B0
:103C1000044600F2EC82602900F09B80DC29F1D19F
:103C20009D4B1B78002BEDD09C4B1B78002BE9D1D2
:103C3000137C002B41F04181737E002B00F0BE8786
:103C4000B07E082840F2BA8706F11B04234606F12D
:103C5000130C844413F8012B02F12001C9B2A2F124
:103C6000410EBEF1190F98BF0A46642A40F07A87C8
:103C70001A7802F12001C9B2A2F1410EBEF1190F6A
:103C800098BF0A46752A40F06D875A7802F12001E4
:103C9000C9B2A2F1410EBEF1190F98BF0A46612ABE
:103CA00040F060879A7802F12001C9B2A2F1410E7A
:103CB000BEF1190F98BF0A466C2A40F05387DA7894
:103CC00002F12001C9B2A2F1410EBEF1190F98BF55
:103CD0000A46732A40F046871A7902F12001C9B2D8
:103CE000A2F1410EBEF1190F98BF0A46652A40F0B5
:103CF00039875A7902F12001C9B2A2F1410EBEF111
:103D0000190F98BF0A466E2A40F02C879A7902F163
:103D10002001C9B2A2F1410EBEF1190F98BF0A46A7
:103D2000732A40F01F87DA7902F12001C9B2A2F1AB
:103D3000410EBEF1190F98BF0A46652A40F012875E
:103D4000B01C062208A90FF0CFFF08A8FFF7C4F99E
:103D500058E79178022900F0AB8700297FF452AF31
:103D60009FED457B474B4FF6FF7019609980494B9B
:103D70004B4A1970454B117019704A4B4E221980ED
:103D8000494B01911970494B1970494B83ED007BE8
:103D9000484B83ED007B484B83ED007B474B83ED25
:103DA000007B474BC3E90011C3F80710454B83ED77
:103DB000007B454B83ED007B444B83ED007B444B04
:103DC0001970444B1970444B1970444B83ED007BC0
:103DD000314B1970314B1970414B1980414B19709F
:103DE0002B4B188040485CF08BFA9FED237B3F4AB9
:103DF0003F4B01993F4811709A7980ED007B6AB181
:103E0000DA795AB91A7A4AB993E80300089008A8EF
:103E10000193ADF8241011F02DFB019B00241A4AE8
:103E2000C3E900441C721470FEF7A8FC324B334AFD
:103E3000C3E9004410689C60EFF3108172B6D0E8CB
:103E4000CFCF0123BCF1000FF9D1C0E84C3FBCF14A
:103E5000000FF4D1BFF35F8F294B10685160C3F896
:103E60000140A3F805401C811C70C0E88F4F81F30E
:103E70001088C7E6AFF300800000000000000000DB
:103E800011E10020AC9C00201CE1002021E1002079
:103E9000142D002016E1002017E1002018E1002079
:103EA0000FE10020D4E000201FE1002020E10020ED
:103EB0000835002010350020C8340020E0340020F0
:103EC0003CA00020D8340020F83400200035002029
:103ED0001BE100201AE1002012E10020F034002054
:103EE000D6E0002022E1002054A800201DE100209F
:103EF000A4A8002018350020989C0020A49C002035
:103F0000182D00208A4B8B4A1B881278002B7FF4D7
:103F10005DAE894B19785AE6B378002B40F00586E0
:103F20000321304601930FF095FE731D0646184697
:103F3000019B08A9089306228B800D460FF0D4FE42
:103F40004FF0010C7D4A7E497E487F4C80F800C0CE
:103F50000E80D5E90001106091802268019B002A43
:103F600000F05986794903E02268934280F0538635
:103F70002846CDE901130FF063FE029B019901333E
:103F800006310028F0D10122714B1A703AE6714CCB
:103F9000062208A9B01C0FF0A7FED4E90032134393
:103FA00008AD40F0D085684C2368002B00F06F8688
:103FB0000023664903E02268934280F06886284621
:103FC000CDE901130FF03CFE029B0199013306314C
:103FD0000028F0D12846604916F06AFA12E65F4CD4
:103FE000A27A002A3FF40EAE08A9F01C0622019323
:103FF0000FF07AFE214608A80FF022FE00287FF479
:1040000001AEB278002A40F03586019B092B40F2C0
:10401000318606F10801093B11F8010F002800F074
:10402000FB8701329A42F7D1082B40F2238606F132
:104030000902174606F1010C9C4412F8011B01F11C
:10404000200E5FFA8EFEA1F14100192898BF71463B
:10405000642940F0E385117801F1200E5FFA8EFEAD
:10406000A1F14100192898BF7146752940F0D68505
:10407000517801F1200E5FFA8EFEA1F1410019285E
:1040800098BF7146612940F0C985917801F1200EF1
:104090005FFA8EFEA1F14100192898BF71466C2984
:1040A00040F0BC85D17801F1200E5FFA8EFEA1F1BF
:1040B0004100192898BF7146732940F0AF851179E6
:1040C00001F1200E5FFA8EFEA1F14100192898BF80
:1040D0007146652940F0A285517901F1200E5FFA01
:1040E0008EFEA1F14100192898BF71466E2940F05B
:1040F0009585917901F1200E5FFA8EFEA1F14100C4
:10410000192898BF7146732940F08885D17901F14B
:10411000200E5FFA8EFEA1F14100192898BF71466A
:10412000652940F07B850D48FEF7D6FF6AE500BFA4
:10413000D6E000200FE1002018E10020AC9C002018
:10414000142D002016E1002048A0002024A000200B
:1041500021E10020F03400203C080610989C00204B
:10416000B3780321304699460FF074FD4FF6FF7285
:10417000584B1B8893423FF445AD98427FF442ADC3
:10418000B9F1000F3FF43EAD534B1B783BB1534B9D
:104190001A7A22B952490978002940F07187DFF86C
:1041A0005881504C0121504AD8F800301170EFF37B
:1041B000108272B6D3E8CF0F01210028FAD1C3E8EC
:1041C000401F0028F6D1BFF35F8F0420236DD8F87D
:1041D000001001332365C8F80420002384F84990B7
:1041E00084F84800C1E88F3F82F310880AE5EF2980
:1041F0007FF408AD9278531E0C2B0ED8DFE813F035
:104200008D028D0163020D000D000D000D003A01BD
:104210000D000D0017017E002000083A052A3FF628
:10422000F1AC01A353F822F089440010053C0010C2
:10423000053C00104344001011430010554200108B
:10424000032130460FF006FD284B1B8813B198421E
:104250003FF4D8AC7279002A40F0B886DFF8988035
:10426000204CD8F80010EFF3108372B6D1E8CFCF0E
:104270000120BCF1000FF9D1C1E84C0FBCF1000FD7
:10428000F4D1BFF35F8FB2FA82FC4FEA5C1C0021CD
:10429000D8F80000C8F8043084F805C0C0E88F1FC3
:1042A00083F31088002A7FF4ADAC114B597A0029B2
:1042B00040F0658701215A601A729A72197004F0F1
:1042C00017FD4FF47A7200235CF06AF8094CC4E9D8
:1042D000000197E4142D002021E10020A4A8002073
:1042E00016E10020182D00201EE10020D4E000205F
:1042F0003CA00020D8340020A49C0020032130469C
:104300000FF0A8FCA64B1B8813B198423FF47AAC7F
:10431000052130460FF09EFC00283FF473ACF27983
:10432000A12A00F02F870023012A00F0C287312A3A
:104330007FF468AC4E3398427FF464AC0246F11DC2
:1043400008A803F09FF90899002941F01F80954BB8
:104350009A79154622B11A7A002A01F0B7800D46E3
:10436000914CD4E90032134341F05580DFF8748258
:104370008E4CD8F80030EFF3108172B6D3E8CF0F2F
:1043800001220028FAD1C3E8402F0028F6D1BFF35C
:104390005F8F089AC8F80410002A41F01C800120A1
:1043A000834B19785872022902D006211A721970AB
:1043B0009FED797B7F4B83ED007B04F099FC4FF4FC
:1043C0007A7200235BF0ECFF7B4B9FED737BC3E9BC
:1043D000000101230021A37123720323774ADFF830
:1043E00008E20DF1240C11702370BCE80F00AEE858
:1043F0000F00BCE80F00AEE80F009CE80F00AEE82D
:1044000007002EF8023B1B0C8EF80030236C0133A2
:1044100023646B4B83ED007B0023D8F80020C2E8B7
:104420008F3FD8F8043083F31088FFF7EBBB0321EC
:1044300030460FF00FFC5A4B1B8813B198423FF4E3
:10444000E1AB00205F4A7379107023B15E4A118896
:10445000002940F0E78504F04BFC4FF47A7200230A
:104460005BF09EFF594C193041F10001C4E9000195
:10447000FFF7C8BB032130460FF0ECFB484B1B880D
:1044800013B198423FF4BEAB032130460FF0E2FB7C
:104490004D4B1B8883427FF4B5AB454B1A78022AFB
:1044A00017467FF4AFAB717900200D460021484AD2
:1044B000012DC2E9000193F8088040F09187597AF4
:1044C000444A19B91078032841F276803046062113
:1044D000CDE901320FF0BEFBDDE901322F463E4946
:1044E0000F7000211878022840F05A87187A40454A
:1044F00040F08E874FF0000C587A83F808C00028EF
:1045000001F01A80062182F800C0197000200021F5
:10451000284BC3E90001FFF775BB032130460FF0BC
:1045200099FB1F4B74791A8812B1904200F04F82A8
:10453000002C40F0D48404F0DBFB4FF47A720023AB
:104540005BF02EFF1D4B08AD1C701B4BC3E9000137
:10455000032130460FF07EFB062201461A4BB018AD
:10456000198008942946AC800FF0BEFB0D4B9A7958
:10457000002A40F09386D5E900010022186001204E
:10458000164C99802168A3F807209871002900F043
:10459000468513492EE000BF000000000000000027
:1045A000D4E00020A4A80020F0340020182D002022
:1045B0003CA0002000350020B834002011E100208C
:1045C000C83400201DE10020D6E00020D8340020AF
:1045D000F83400201BE100201AE1002048A0002050
:1045E00024A00020A49C0020282D002020688242C6
:1045F00080F015852846CDE9022301910FF020FBBC
:10460000029A0199039B013206310028EED1012262
:10461000DA7104F06DFB4FF47A7200235BF0C0FE98
:1046200042F210720023684D80182B70674C684D61
:1046300041F10001A846C4E900012A68EFF31080A7
:1046400072B6D2E8CF4F0121002CFAD1C2E8441F44
:10465000002CF6D1BFF35F8F5E495F4CD1E900219A
:104660000A436860237140F0CE8500210122A370C7
:10467000A4F80510D8F800302270C3E88F1F80F32B
:104680001088FEF77BF800219FED4D7B534B544A79
:1046900019605960C3F80710524B82ED007B5248F5
:1046A000524A1970524B80ED007B82ED007B5148DD
:1046B0004E2219705BF024FE9FED417B4E4B83ED43
:1046C000007BFFF79FBA032130460FF0C3FA4B4B34
:1046D0001A8812B1904200F07D81032130460FF01C
:1046E000B9FA474B1B8813B198427FF48BAA08A8EC
:1046F000FFF7DCF9434B99461B784BB99DF8243002
:10470000002B40F092859DF82030012B00F08D8524
:104710001FB0BDE8F043FEF7ABB9032130460FF000
:1047200099FA364B1B8813B198423FF46BAA0321C8
:1047300030460FF08FFA737B0746002B7FF462AA96
:1047400008A9314C0893701D8B80062201930D46F9
:104750000FF0CAFA23681E46002B00F0D886019B92
:104760002A4903E02268934280F031852846CDE94A
:1047700001130FF065FA029B0199013306310028FD
:10478000F0D1144A9046D2E90032134340F0BD867E
:1047900001261F4B9A79002A40F0ED850121002265
:1047A0009971D5E9000199802168A3F80720186064
:1047B000002900F0D785154930E000BFAFF3008035
:1047C000000000000000000018E10020C8340020B4
:1047D000A49C0020F0340020182D00203CA00020D4
:1047E000D83400201BE10020F834002000350020E0
:1047F0001AE1002054A8002018350020D4E0002041
:10480000D6E000201EE1002048A0002024A00020C7
:10481000A4A800202068824280F0A4852846CDE923
:10482000022301910FF00CFA029A0199039B0132C5
:1048300006310028EED10122DA7104F059FA4FF462
:104840007A7200235BF0ACFD4FF0000C9A4B9B4A50
:104850009B4C83F800C01378C4E90001002B40F0A2
:1048600084859848054680460368EFF3108172B648
:10487000D3E8CF4F0120002CFAD1C3E8440F002C1D
:10488000F6D1BFF35F8F00238F4C137069602A68E5
:10489000E370C2E88F3F81F310888C4A1370914611
:1048A0002B68EFF3108272B6D3E8CF0F01210028F6
:1048B000FAD1C3E8401F0028F6D1BFF35F8FE36C45
:1048C0006A600133E36416B1636D013363650023ED
:1048D000D8F80010C1E88F3F82F310887C4A3E462A
:1048E000C2E90033C2F807307A4A9FED717B178026
:1048F0004FF00107784A19461770784A78481370C4
:10490000784A1370784B4E2283ED007B774B83ED12
:10491000007B774B83ED007B5BF0F2FC9FED647BCB
:104920000023744AD8F8000082ED007B724A1370AD
:10493000EFF3108172B6D0E8CFCF5FF0010EBCF17B
:10494000000FF8D1C0E84CEFBCF1000FF3D1BFF37A
:104950005F8FD8F80000C8F804102771C0E88F3FB7
:1049600081F31088012130461BF03EFE00230646ED
:10497000002840F0CD84604A177004F0B9F94FF474
:104980007A7200235BF00CFD42F21073C0185B4B8F
:1049900041F10001D8F8002018605960EFF310834E
:1049A00072B6D2E8CF0F01210028FAD1C2E8401F29
:1049B0000028F6D1BFF35F8FD8F80020C8F8043084
:1049C0002770C2E88F6F83F31088FFF71BB9002CA4
:1049D00000F0DF830022002000211A80484B494C60
:1049E000C3E90001484D494B2A702270C3E9000118
:1049F000FFF708B9464C062208A9B01C0FF074F95D
:104A0000D4E90032134308AD40F0F780414C2368ED
:104A1000002B00F0378100233F4903E022689342D6
:104A200080F030812846CDE901130FF009F9029B8F
:104A30000199013306310028F0D1284615F07EFD9A
:104A4000FFF7E0B81F4A1368EFF3108172B6D3E89E
:104A5000CF4F0120002CFAD1C3E8440F002CF6D12F
:104A6000BFF35F8F0023154C174851602370126805
:104A7000C370C2E88F3F81F31088284B1B78002B4E
:104A80003FF4C0A8144B1B78002B7FF4BBA8244C28
:104A9000A37A1BB1E37A002B00F002820023C4E961
:104AA0000033A3601FB0BDE8F043FEF7F5B800BFC8
:104AB000000000000000000011E1002012E10020D1
:104AC000B8340020A49C0020182D00201EE10020F6
:104AD0003CA00020D6E0002018E100201BE10020CF
:104AE00054A800201AE10020D8340020F834002017
:104AF00000350020183500201DE10020C8340020BA
:104B0000083500201FE1002020E1002010350020A2
:104B1000F034002048A0002024A0002017E100204D
:104B2000989C00201146FFF75BB800234FF6FF74F6
:104B3000594A5A485A495B4D04802B701360938040
:104B40000B70FFF75FB804F0D3F84FF47A720023CC
:104B50005BF026FCD4E9002390429941FFF43AAA85
:104B6000FFF721BA9C457FF475A8122826D906F1D3
:104B70002D0E25184C48AEF1130402E0A6453FF473
:104B8000DFA814F8013F027803F12001A3F1410CE2
:104B9000C9B2BCF1190F98BF0B4602F12001A2F176
:104BA000410CC9B2BCF1190F98BF0A469A4200F1F4
:104BB0000100E3D00EF1010E7545DBD13B4CA37A29
:104BC000002B7FF41FA8092130460FF049F800F4AC
:104BD000F853B3F5A06F7FF415A806222146B01C48
:104BE0000FF082F8337A0C213046A3710FF032F8BF
:104BF000012320816381FFF705B804F079F84FF4B1
:104C00007A7200235BF0CCFBD4E9002390429941F7
:104C1000FFF413AFFAE60022FFF7B6B994457FF42C
:104C20000CAA122B26D906F11B05FE181E4AA5F167
:104C3000130C02E0AC453FF476AA1CF8013F117852
:104C400003F12000A3F1410EC0B2BEF1190F98BFCD
:104C5000034601F12000A1F1410EC0B2BEF1190FCF
:104C600098BF0146994202F10102E3D06B1C9E42BB
:104C70001D46DBD10023C4E90033A360FEF70CF826
:104C8000FEF7C0BF284615F073FCFEF7BBBF2846F1
:104C900015F03AFCFEF7B6BFAC9C0020142D0020A6
:104CA00016E1002021E1002044080610989C002015
:104CB0004FF00001A04A9FED9E7B117000224FF043
:104CC00001059E4B9E491A605A60C3F807209D4B10
:104CD0000D7083ED007B9C4B00211A709B4B9C4810
:104CE00083ED007B9B4B83ED007B9B4B83ED007B37
:104CF0009A4B83ED007B9A4B83ED007B994B1A70A6
:104D0000994B1A704E225BF0FBFA9FED897B974A14
:104D10004FF6FF7182ED007B0022954B1A609A805E
:104D2000944B1A70944B1A70944B1A70944B1980D0
:104D3000944B1A70944B1A7003F0DAFF4FF47A72A6
:104D400000235BF02DFB0022904B9FED797BC3E9A4
:104D500000018F4B1221C3E900221A7200228D4BF1
:104D60000846C3E900229A608B4B1A808B4B1A705D
:104D70008B4B1A708B4B83ED007B8B4B83ED007B51
:104D800015F062FC012015F06FFC012015F0FEF813
:104D9000864B00201D7015F0BFF8854815F0C6FA47
:104DA00042F2085014F08EFF052014F099FF002005
:104DB00015F0F8FB032011F033FA002011F038FA57
:104DC0007C4B1968EFF3108272B6D1E8CFCF012087
:104DD000BCF1000FF9D1C1E84C0FBCF1000FF4D1C8
:104DE000BFF35F8F012019685A60734BC3F801004D
:104DF0001C700023C1E88F3F82F310886F4A704C0B
:104E000005A81D46C2E90033C2E90233C2E90433F2
:104E10002360059310F068FB00282ED04FF00003AC
:104E2000CDE9095508950695ADF81230ADF81C305E
:104E30000B952368032B1DD80DF1120308AA06A9B0
:104E400005A810F05DFBA8B123687BB100235B4986
:104E500006A8CDE901130EF0F3FE029B0199013380
:104E600006310028E5D022689342F1D306A8FDF769
:104E700023FDDEE705A810F057FB2368002B7EF426
:104E8000C1AE504B1B78002B3EF4BCAE2C4B1B78B4
:104E9000002B3EF4B7AE1FB0BDE8F043FDF7A4BF52
:104EA000012322892046A17942F40042E37215F0E1
:104EB000DDFA00283EF4A6AEF0E5132110460EF010
:104EC000C9FE1521044630460EF0C4FE01462046B8
:104ED00002F04EFA00283EF4AFAEFEF731BF0120DB
:104EE0003949344A08701368EFF3108172B6D3E879
:104EF000CFCF0120BCF1000FF9D1C3E84C0FBCF1BA
:104F0000000FF4D1BFF35F8F4FF0040C2A4B1068F1
:104F100051601A6D83F8494001321A6583F848C020
:104F20000022C0E88F2F81F31088FFF7F1BB00BF8C
:104F3000000000000000000012E100203CA0002062
:104F40000FE10020F034002017E10020C8340020D9
:104F500054A80020E0340020D8340020F834002089
:104F6000003500201BE100201AE100201835002048
:104F7000AC9C00201DE1002011E1002022E1002076
:104F8000142D002016E1002021E10020B83400207B
:104F9000A4A80020989C0020D4E000201FE100205D
:104FA00020E1002008350020103500201CE1002001
:104FB00028080610A49C0020182D002024A0002002
:104FC00048A0002010E100201EE100200120A84D93
:104FD000A849A8462B680870EFF3108172B6D3E891
:104FE000CF4F0120002CFAD1C3E8440F002CF6D19A
:104FF000BFF35F8F0620A04C6960236D2D680133DD
:10500000236584F84920002384F84800C5E88F3FD1
:1050100081F31088FFF725B91346FFF705B8002282
:10502000FFF7F6BA4FF0010E924C914984F800E078
:10503000D1F800C0EFF3108472B6DCE8CF5F5FF008
:10504000010E002DF9D1CCE845EF002DF5D1BFF3CD
:105050005F8F4FF0050ED1F800C04C60864981F893
:1050600049300B6D81F848E001330B65CCE88F0FB8
:1050700084F3108810881FB0BDE8F0431BF096BB86
:10508000CDE901237D497E4C03C9089008A8ADF8FD
:10509000241010F0EFF92168029B002900F0318202
:1050A000784A019E114608A8CDE9022301910EF02D
:1050B000C7FDDDE90112D4F800C0039B06F1010E23
:1050C000002840F06681E64527D2062707FB0EFE42
:1050D00007FB06F1B01C354652F80E60B846565034
:1050E00002EB0E06B788114460458F8015D2474603
:1050F00007FB00F0E91C1558614542F80E5002EB21
:10510000000EBEF80450B58007D207FB01F15558D8
:10511000114415508988AEF8041006200CF1FF31B7
:10512000216000FB01F10020514D02EB010C5050B9
:10513000A846ACF804002A68EFF3108172B6D2E8F2
:10514000CFEF5FF0010CBEF1000FF8D1C2E84ECFF7
:10515000BEF1000FF3D1BFF35F8F2268464C121AE5
:1051600018BF01226960E2712A68C2E88F0F81F3DB
:1051700010880022C3E900221A72FFF713B8062133
:10518000FFF79CB801283EF43DAD0123327AFFF7CA
:10519000CBB803F0ADFD4FF47A7200235BF000F959
:1051A0004FF0010E42F21073374A1B1882F800E0EC
:1051B000364ADFF8E4C01360354BCCF8041041F1F7
:1051C0000001CCF8000051601C70FEF71BBD314A95
:1051D0009046D2E90032134310D0002603F088FD38
:1051E0004FF47A7200235BF0DBF8D8E90023904299
:1051F0009941FFF4CEAA002E7FF4CAAA38461BF0CC
:1052000019FAFEF7FFBC03F073FD4FF47A72002326
:105210005BF0C6F81F4A1368984253686868994162
:1052200034BF01230023FFF720BA0122104989F877
:1052300000200B68EFF3108072B6D3E8CF4F012245
:10524000002CFAD1C3E8442F002CF6D1BFF35F8FB6
:105250000824094B48601A6D096801321A65A3F8E1
:1052600048400022C1E88F2F80F31088FFF750BA22
:10527000A49C00201EE10020182D0020AC9C0020E2
:1052800048A0002024A000201FE1002010350020AD
:1052900020E10020F034002008350020194628467F
:1052A00001930EF0CDFC019B00287FF464A9FFF769
:1052B000B0B90A3398427EF4A5AC03F019FD4FF45F
:1052C0007A7200235BF06CF80024A14DA14AC5E975
:1052D0000001A14913680C70EFF3108172B6D3E896
:1052E000CFCF0120BCF1000FF9D1C3E84C0FBCF1C6
:1052F000000FF4D1BFF35F8F98485160436C126880
:1053000001334364C2E88F4F81F31088FEF77ABC03
:105310004FF00101D8F8002089F80010EFF3108158
:1053200072B6D2E8CFCF0120BCF1000FF9D1C2E8AC
:105330004C0FBCF1000FF4D1BFF35F8F226DD8F892
:10534000000001322265032284F84960C8F8041085
:1053500084F84820C0E88F3F81F31088FDF788FB70
:10536000FEF750BC0022FFF767BA019215F040F833
:10537000019AFFF776BA1946284601930EF060FCB1
:10538000019B00287FF40AAAFFF757BA0025FEF711
:10539000E7BFE64501F1060180F0B380764682E67C
:1053A0000023062813703FF4B1A800293FF453A846
:1053B00000226B4B6B4C1A7003F09AFC4FF47A721C
:1053C00000235AF0EDFF10F5FA7041F10001C4E935
:1053D0000001FEF717BC636C01336364FFF71CB870
:1053E0000621304601930EF035FC019B002D40F064
:1053F000E080B8F1050F00F0DA80B8F1090F00F095
:10540000D480B8F1200F00F0C180574AFFF767B889
:1054100000231370C9E703F06BFC4FF47A7200238A
:105420005AF0BEFFD4E9002390429941BEF49EAFEA
:10543000002D3EF49BAF00239FED437B4B494C4A2C
:105440004C48C1E900338B6003704B49137884EDFD
:10545000007B81ED007B002B40F0B2803D4DA846E3
:105460002968EFF3108372B6D1E8CF4F0120002CEA
:10547000FAD1C1E8440F002CF6D1BFF35F8F0020B2
:10548000364C29686B601070E070C1E88F0F83F3B1
:10549000108814F041FD2A68EFF3108372B6D2E849
:1054A000CFCF0121BCF1000FF9D1C2E84C1FBCF1F4
:1054B000000FF4D1BFF35F8F00202A686B60A070EB
:1054C000C2E88F0F83F31088FEF753BF2B492C4C93
:1054D0000BE02C48CDE9022301910EF0B1FB0199BC
:1054E000039B063148B1029A013220688242F0D310
:1054F00024480193FDF7E0F9019B01221A72FEF79F
:105500002FBFDFF85080154C33E6012666E61E4AB1
:10551000D2E9003213433FF471AE03F0E9FB4FF4DC
:105520007A7200235AF03CFF174BD3E900239042D4
:105530009941FFF42EA961E6002946D00321987213
:105540001070197034E700BF000000000000000078
:10555000B8340020A49C002011E10020182D002068
:105560001AE10020003500201BE10020989C00205B
:1055700012E1002017E10020E034002024A00020E8
:1055800048A00020A4A80020F03400203A46144986
:1055900051F8222082427FF438AF327A42457FF4BC
:1055A00034AF01210F4AFEF79DBF0122EFE72A46E3
:1055B000EDE70C4AFEF792BF19721D70FEF74BBF64
:1055C000019214F015FF019A48E7586811700130F4
:1055D000022898BF012458601C70FEF73CBF00BF32
:1055E000085206101BE100202DE9F04F444CADB0ED
:1055F000237813B92DB0BDE8F08F424D2B781BB145
:10560000414B1B88002B47D1404D414A2B781088D5
:10561000002B00F0F9813F4A137843BB3E4BDFF883
:1056200004813B4A98F8000011881A78002900F09C
:105630000B82002A00F01285002840F05782374B79
:105640001B78002B7CD103F053FB00234FF47A72BC
:105650005AF0A6FE324D0F462B788146013B032BB4
:105660006ED8DFE813F0F1029A02CE0248022A4B0C
:10567000197800295ED02B4988460978002940F026
:105680003282002840F0C6830093FDF7F1F9002133
:10569000204A009B1170C4E703F02AFB224B1B78C1
:1056A000272B1F4629D84FF47A7200235AF078FE30
:1056B0001E4BD3E90023904271EB03031DD21C4A19
:1056C000D2E90063B04271EB03039DD310F1FA03FA
:1056D0000D4E1548136007F101030370308841F146
:1056E0000001009051601BF061F8338800988342FC
:1056F0008AD10D4B1B78272B86D900232B7083E78B
:1057000010E100201FE10020D4E000201CE1002077
:10571000D6E0002022E100200FE100201DE1002062
:105720003CA0002011E1002020E1002010350020E5
:1057300008350020DFF8CC82002840F0DA8128709C
:105740002378002B00F034819D4B1968EFF3108211
:1057500072B6D1E8CF5F0120002DFAD1C1E8450F24
:10576000002DF6D1BFF35F8F19685A60954B1E78F4
:105770000023C1E88F3F82F3108898F80050002D75
:105780007FF438AF26B1904B1B88002B40F09A82F3
:105790008E4DD5E90032134319D003F0A9FA4FF426
:1057A0007A7200235AF0FCFDD5E90023904299411A
:1057B00080F0AD8003F09CFA4FF47A7200235AF027
:1057C000EFFDD5E9002390429941C0F09880804DCB
:1057D000D5E90032134340F01D817E4B1B782BB17D
:1057E0007D4DD5E90032134340F059817B4D2B6844
:1057F000002BFFF6FFAE2378002B3FF4FBAEFDF746
:105800000BF800283FF4F6AE754C2368002B0DDB37
:1058100003F06EFA4FF47A7200235AF0C1FD714B17
:10582000D3E9002390429941FFF4E4AE664A2B6825
:1058300010884FF4CC7202FB03F21E466A4B991893
:1058400001321A44D1F8903191F88E11013B9BB28C
:105850001BF0E6FD022800F0E28200287FF4CAAEC9
:105860002368834206DB4FF4CC715F4A01FB0323BC
:1058700083F894014FF0FF3326602B6003F038FA71
:105880004FF47A7200235AF08BFD4FF4CC73564AD2
:10589000043003FB062494F88E31524D41F100018F
:1058A000362B286069607FF4A5AE454C2368EFF382
:1058B000108272B6D3E8CF0F01210028FAD1C3E8D5
:1058C000401F0028F6D1BFF35F8F40F20111474B14
:1058D0006260DA6819810132DA6003F009FA4FF484
:1058E0007A7200235AF05CFD414D0023C5E90001A6
:1058F0002268C2E88F3F636883F310887AE63D4BE5
:105900001B78002B7FF463AFFDF7C6F95FE7002338
:105910009FED297B384A39493948C2E90033037081
:1059200093600B7885ED007B002B40F0C581244D02
:105930002B68EFF3108272B6D3E8CFCF0120BCF111
:10594000000FF9D1C3E84C0FBCF1000FF4D1BFF345
:105950005F8F0020254B08706A602968D870C1E805
:105960008F0F82F3108814F0D7FA2968EFF31082B2
:1059700072B6D1E8CFEF5FF0010CBEF1000FF8D1A5
:10598000C1E84ECFBEF1000FF3D1BFF35F8F174BCD
:10599000002019789870022908BF04216A6008BFA6
:1059A000197000232968C1E88F3F82F310880EE741
:1059B000044B1E78E1E600BF00000000000000007C
:1059C000A49C002015E10020D6E00020F034002047
:1059D000C834002019E10020D03400200C2D002014
:1059E000102D0020E8340020B49C0020182D002049
:1059F000C034002018E10020989C002012E1002013
:105A000017E1002011E10020DFF8188300287FF45F
:105A100016AE95E603F06CF94FF47A7200235AF053
:105A2000BFFCD5E9002390429941FFF4D6AE16A8F9
:105A3000FEF73CF89DF85E30002B00F075810022E7
:105A40000023C5E90023C8E6002A00F039810028B8
:105A500040F03081A44A1278002A7FF471AE1221FE
:105A600008462A700092019314F0EEFD012014F014
:105A7000FBFD9E4D009814F089FA012014F086FA7F
:105A8000D5E900210A43019B40F0A881002014F0D1
:105A900043FA974B188800287FF4D1AD50E603F005
:105AA00027F94FF47A7200235AF07AFCD5E90023E3
:105AB00090429941FFF49AAE3A2200210DF159002B
:105AC0005AF01EFC012316A88DF85830FCF732FF5F
:105AD00000283FF48BAE0023864A13700022002377
