:020000041000EA
:10000000002008205B0100101B0100101D010010E2
:100010001101001011010010110100101101001058
:100020001901001019010010190100101F01001022
:10003000110100101901001021010010230100100E
:100040001101001011010010110100101101001028
:100050001101001011010010110100101101001018
:100060001101001011010010110100101101001008
:1000700011010010110100101101001011010010F8
:1000800011010010110100101101001011010010E8
:1000900011010010110100101101001011010010D8
:1000A00011010010110100101101001011010010C8
:1000B00011010010110100101101001011010010B8
:1000C00011010010110100101101001011010010A8
:1000D0001101001011010010110100101101001098
:1000E0001101001011010010110100101101001088
:1000F0001101001011010010110100101101001078
:100100001101001011010010110100101101001067
:10011000EFF30580103800BE00BE00BE00BE00BE7A
:1001200000BE00BEF2EB887158B5061078B5061017
:100130009C01001090A31AE7D3DEFFFF42012110BB
:10014000FF01000080E30600793512AB00201E4954
:10015000086006C881F3088810474FF050400068D7
:1001600008B10020F3E70DA40ECC002902D000F066
:1001700012F8F9E71549164A002000E001C1914242
:10018000FCD114498847144988471449884700BE60
:10019000FDE701C901C29A42FBD3704778B506104A
:1001A0002001002060300020B8E406100000082084
:1001B00000000820B8E406100010082000100820F5
:1001C000000000007047000008ED00E060300020F3
:1001D000307F0020C9AF00100D170010C1AF001014
:1001E000704700BF00B5042183B0019009F006FB01
:1001F000019803B000BD00BF10B504464FF4805114
:1002000000682AF099FAD4E90001BDE810404FF4E3
:1002100080722AF055BA00BF70B50D460646C2B0CE
:1002200002AC4FF48072FF2120462AF069FAD5E92A
:1002300000122046521A2AF02BFA06F2FB331B0357
:100240004FF47A72694605480093019409F00AF860
:10025000B0FA80F0400942B070BD00BFF901001053
:100260000129084604D8D2E900135B1A402B01D0BB
:10027000002070471146FFF7CFBF00BF10B51948E7
:10028000194C01F091FE174802F098FEA07C01F095
:1002900041FD207D01F04AFD144A237F1178003B87
:1002A00018BF0123FF29E07E05D0884216D04FF009
:1002B000000444EC44100E4CFF28107023700CD046
:1002C00007F0B2FD094A4FF00101137841EC4430C8
:1002D000FF2B02D0227842EC403010BD044C10704D
:1002E0002370EDE7203600201C36002098280020DF
:1002F000FB7E002070B58AB00C4642F00102ADF8DA
:100300001600D3E9001000238DF815200122CDE955
:1003100006331F4D8DF818401E4C8DF81420421ADC
:10032000CDE908339DF8386023702B7021D105A9E1
:1003300002A8089205F06CFF02A90EC9521A402AC1
:1003400008D089B9079818B10999091A09F056FA1D
:100350000AB070BD1048CDE900132AF0B5F9DDE907
:10036000001301222E7022700846591A09F046FA2D
:10037000E8E710460191009209F03CFADDE900211E
:100380002AF086F9009A079002440992CFE700BF4D
:10039000FD7E0020F57E0020983300200000000044
:1003A0002DE9F041804686B0104616460F4629F0EA
:1003B00079FC0446E8B1302828BF3024204609F0F3
:1003C00019FA3146224606190546029004962AF08B
:1003D0005FF90023394640460093022202AB0396A0
:1003E000FFF788FF2146284606B0BDE8F04109F036
:1003F00005BA9FED077B394640460222009402ABC6
:100400008DED027B0494FFF775FF06B0BDE8F08127
:1004100000000000000000002DE9F04FD1E900537A
:100420008B46DBF808909D42A9EB050383B018BF0B
:100430004D603F2BDFF8448174D8DBF80060AC1BC3
:1004400004F1004340333F2B40F29080402C2CBFFE
:10045000271904F140076FF000439F4228BF1F4651
:10046000384609F0C7F9AE4282467DD0621E052AA1
:1004700033466FD9811B0139022902466AD924F01B
:10048000030C4FEA940E06EB0C0053F8041B834256
:1004900042F8041BF9D1644510D01A4612F8011B2A
:1004A000D44495420AF82E1008D05A788CF80120CE
:1004B0009A1C95421CBF9B788CF80230544423460A
:1004C000C6469C4608F14004019375460CF1100C99
:1004D0000FCDA5420EF1100E4CF8100C4CF80C1C70
:1004E0004CF8082C4CF8043CEFD1019B03F140057B
:1004F00026B13046A9EB060109F080F9CBE900A549
:100500005744CBF808701B4B984503D1012003B02A
:10051000BDE8F08FDBF80890DFF85880A9EB050301
:100520003F2B8AD9464608F14007344610350FCC98
:10053000BC4206F1100645F8100C45F80C1C45F8B5
:10054000082C45F8043CF0D1DBF804504035CBF8DA
:100550000450D8E753465444721E12F8011F03F8A2
:10056000011B9C42F9D1AAE70346A9E702481FF004
:100570008DFC00BF00C03F10B8A7021000B03F10B4
:100580002DE9F0470446B8B0402009F033F923467E
:10059000024600F1400425460894069003F1400409
:1005A0001968D3F804E0D3F808C0D8681033A34220
:1005B0001160C2F804E0C2F808C0D06002F1100275
:1005C000EED106A90CA8079505F008FF0C9BBDF815
:1005D00036409DF83810BBB94B1E112B00F27487C2
:1005E000DFE813F03000480063008C001401BE0106
:1005F000FF0120022D031E03DE03A303B4038503C2
:100600009403CC03EF0425002046744AFFF7C8FE8C
:100610000F9818B11199091A09F0F0F8069818B155
:100620000899091A09F0EAF838B0BDE8F087DDE961
:100630000F239A4200F0588512212046684AFFF79E
:10064000AFFEE5E7042009F0D5F800220546654B2A
:1006500005F1040C18680121286021AB20460092A6
:10066000CDE922CC2195FFF745FE0421284609F06B
:10067000C5F8CDE70C2009F0BDF85B4B054607CB6C
:10068000002328606960AA6020461A4605F10C0C18
:100690000093022121ABCDE922CC2195FFF72AFE60
:1006A0000C21284609F0AAF8B2E7504921A806F023
:1006B00033F9182009F09EF84FF0000E05460DF1B1
:1006C000840C00F11803CDE91A331990BCE80F002F
:1006D00028606960AA60BCE80300EB60286169617A
:1006E00020469DF838107246CDF800E019ABFFF7B0
:1006F00001FE1821284609F081F889E7DFF808E1B2
:100700000DF1480CBEE80F00ACE80F009EE80700B2
:100710008CE8070012AA0FA919A806F049F99DF85C
:100720006430002B00F0D785314912AA21A806F0C9
:1007300031FC9DF88430002B00F070862D4D2E4E3C
:100740002B68029308F0DCFB029B4FF47A7203EBF8
:1007500043031F0106EB03130293002329F0DCFF80
:1007600014227B1DF0519819029E0021327128221B
:1007700029F0C6FF2149327929F08AFF204800225A
:100780000168204B01310C2928BF0C210160296828
:1007900020460131A3FB0143DB0803EB4303A1EB3C
:1007A0008301009209AB29609DF83810CDE9092238
:1007B0000B92FFF79FFD229824AB984203D0249917
:1007C000013109F01BF81A981CAB98423FF420AF96
:1007D0001C99013109F012F81AE700BFD0A70210E6
:1007E000B4A90210A0F3021094F3021020360020E6
:1007F0001C36002094330020DC330020E0A70210D8
:10080000D8330020ABAAAAAABCF30210DFF810E28A
:100810000DF1840CBEE80F00ACE80F009EE8070065
:100820008CE80700AEF1140006F0D8FB002800F0B9
:100830006685FFF723FD01216F4D704A2B6811700B
:10084000029308F05DFB029B6D4E03EB43031F0117
:1008500006EB03134FF47A720293002329F05CFF36
:1008600017227B1DF0519819029E00213271282217
:1008700029F046FF6349327929F00AFF6249634B48
:100880000A6801320C2A28BF0C220A602A68013249
:10089000A3FB0213DB089DF8921003EB4303A2EBCA
:1008A00083035B4A0129927C2B6000F0B285012A08
:1008B00006D0574A9DF89410127D914200F0F885B9
:1008C000029308F01DFB029B4D4D03EB430305EB28
:1008D00003171E014FF47A72002329F01DFF28220E
:1008E000731DA851002158193A7129F009FF49498F
:1008F0003A7929F0CDFE4FF0010C43483E4D016896
:100900002A6861440C2928BF0C21404B62440160D5
:10091000A3FB0213DB0803EB4303A2EB83022A6071
:1009200001239DF83810022002918DF849C08DF8FE
:10093000483008F05FFF0022054600F1020C204617
:10094000BDF8484002992C8019AB0092CDE91ACC31
:100950001995FFF7CFFC0221284608F04FFF57E614
:10096000254D2B4806F04EFC2B68254E029308F0CF
:10097000C7FA029B4FF47A7203EB43031F0106EBA5
:1009800003130293002329F0C7FE1A227B1DF051A6
:100990009819029E00213271282229F0B1FE327985
:1009A0001D4929F075FE184800220168174B0131D6
:1009B0000C2928BF0C210160296820460131A3FBC6
:1009C0000143DB0803EB4303A1EB8301009221AB5E
:1009D00029609DF83810CDE921222392FFF78AFC87
:1009E00016E6DDE90F239A4200F03E8307212046F8
:1009F0000A4AFFF7D5FC0BE694330020F77E00206F
:100A0000DC33002014A80210D8330020ABAAAAAA15
:100A10001C3600202CA8021060A8021008AA0210A0
:100A20002036002021A802F0B7FE19A801F0BEFA76
:100A3000CC4B1D780BF030F99DF884209DF8881080
:100A4000A2F10302B2FA82F29DF887300291BDF85A
:100A50008910804652090A209DF885609DF88670AD
:100A600005920393049108F0C5FE039A0346427170
:100A7000059A0299C271042281710499457080F827
:100A80000280C670077119811A701420319D02937B
:100A900008F0B0FE0246029B857218680A211060B9
:100AA000586802925060188926461081184608F04E
:100AB000A5FE029A9DF864102B0A91749DF88D1082
:100AC000D372D174329B290C1173290E5173190AF8
:100AD0009373D173190C1B0E1174537428201B9D32
:100AE00008F088FE0346029A057510681421186004
:100AF00050680293586090689860D068D860106918
:100B00001861104608F07AFE0022029B9DF8CCC0C6
:100B10009A7783F81CC09DF8CDC0DA7783F81DC0A2
:100B20001C9A4FEA154C290A83F816C04FEA156C37
:100B3000597583F817C034994FEA122C1A7683F846
:100B400019C04FEA124C120EDDF8D4E0DA760A0A28
:100B500083F821200A0C83F822204FEA1E2283F812
:100B600025204FEA1E4283F8201083F82620090E24
:100B70004FEA1E6283F8231083F8272083F824E0CD
:100B800083F81AC05020369D08F034FE029B0146BF
:100B900007461A46984680F8285003F12004136847
:100BA0005068D2F808E0D2F80CC01032A2420B60B4
:100BB0004860C1F808E0C1F80CC001F11001EED1A5
:100BC000D2F800C053684046C1F800C04B602821ED
:100BD00008F014FE002208219DF8DC40FA6287F834
:100BE0002C409DF8DD4025FA01F387F82D402C0CB0
:100BF00087F82A402C0E87F82B4007F1300487F83D
:100C000029303046229421AB009207F150042197FD
:100C10002394FFF76FFB5021384608F0EFFDF7E40F
:100C2000DDE90F239B1A042B03D11378522B00F01C
:100C300087830A2120464C4AFFF7B2FBE8E4DDE94E
:100C40000F32D11A012900F362839A420CBF0023AC
:100C50001B7803201E46029308F0CCFD4FF00005E0
:100C6000024601214148029B00685370B042117056
:100C7000957000F2A8820620029208F0BBFD0346A0
:100C8000029A03211088DD70188090780293987082
:100C9000104608F0B3FD4FF00002029B0C209A8032
:100CA00008F0A8FD4FF000060546029BAE711A68D9
:100CB00080462A6018469B880621AB8008F09EFD7E
:100CC00005F10C09EE7105F108030022CDE912834C
:100CD0002046092112AB0092CDF85090FFF70AFB95
:100CE000A9EB08073946404608F088FD90E4DDE9A5
:100CF0000F031B1A052B03D10378012B00F09683F9
:100D00000E2120461A4AFFF74BFB81E4DDE90F0371
:100D10001B1A052B03D10378012B00F098830F21B8
:100D20002046144AFFF73CFB72E402F0BFF99DF83D
:100D30003810002800F0D7820022204621AB009214
:100D4000CDE921222392FFF7D5FA61E4DDE90F23F3
:100D50009A4200F04D810D212046074AFFF720FB03
:100D600056E400BFF77E002064AA0210D8330020AA
:100D70009CA80210DCA802107CA80210DDE90F2359
:100D80009B1A022B06D11378012B03D1507801282E
:100D900040F27D8310212046B14AFFF701FB37E482
:100DA00021A802F0F9FC302008F024FD2F2200F1E8
:100DB0003003054600211990804601301B930293B1
:100DC00029F09EFC02219DF88420029B032A1A939D
:100DD000297000F08E8204204FF0060C0A46002392
:100DE0009DF8891019B16046134688F801209DF8D6
:100DF0008A2012B1034688F801009DF8851019B1C8
:100E000043F0080388F801309DF8861019B143F0CB
:100E1000100388F801309DF8871019B143F02003C2
:100E200088F801309DF8881019B143F0400388F824
:100E300001309DF88B1019B163F07F0388F8013001
:100E4000002A00F0CE80DDE92523BDF89C10C8F80B
:100E50000220C8F80630BDF8BC209DF8BE30A8F8C6
:100E60000A10A8F81020002B00F05882012203215C
:100E7000134688F812209DF8BF2012B10B4688F85F
:100E800012109DF8C0201AB143F0040388F8123004
:100E90009DF8C1201AB143F0080388F812309DF87C
:100EA000B0201AB143F0100388F812309DF8B62034
:100EB0001AB143F0200388F812302046002422465D
:100EC000A646A44623462146BDF9A250BDF9A0601E
:100ED0000295BDF9AA50BDF9A6700395BDF8B450AE
:100EE00004959DF89E5065F3070466F30F24C6F33E
:100EF000072666F31744029E66F31F64C8F8134082
:100F0000C6F3072464F30702BDF9A4402B9E64F3E3
:100F10000F22C4F3072464F3174267F31F62C8F873
:100F20001720C7F3072262F3070EBDF9A820BDF80A
:100F3000B24062F30F2EC2F3072262F3174E039AF8
:100F400062F31F6EC8F81BE04FEA166E6EF3070CD3
:100F5000C2F3072264F30F2C240A62F3070364F33D
:100F6000174C2B9A049C62F30F2364F31F6CBDF89B
:100F7000B820240A64F3070162F30F21120A62F316
:100F80001741BDF8BA20C8F823C062F31F61120AE6
:100F900088F82B20320A62F31743320C62F31F6386
:100FA000C8F81F300023C8F827101A4600930B21F9
:100FB00019ABFFF79FF93021404608F01FFCFFF7FF
:100FC00027BBDDE90F031B1A302B03D10378012B5C
:100FD00000F04E8211212046224AFFF7E1F9FFF787
:100FE00017BB0B212046009219ABFFF783F9E2E70C
:100FF00021A802F0D1FB9DF894200820029208F06D
:10100000F9FB029A0546A2F1310200210120B2FA51
:1010100082F205F10803CDE91A339DF88A30C5F84C
:1010200001105209696019952870002B40F0E98180
:10103000AA70002240F6B83C9DF88C10204643EA86
:1010400041132B71A5F806C00D2119AB0092FFF7D3
:1010500051F90821284608F0D1FBFFF7D9BA00BFA3
:101060001CA9021064A90210AD4DAE4E2B6802936C
:1010700007F046FF029B4FF47A7203EB43031F0114
:1010800006EB03130293002329F046FB26227B1D67
:10109000F0519819029E00213271282229F030FB6C
:1010A0003279A14929F0F4FAA048A14B0168002245
:1010B00001310C2928BF0C2101602968204601312B
:1010C000A3FB01430124DB0803EB4303A1EB8301F2
:1010D000296021AB9DF838100094CDE9212223929C
:1010E000FFF708F9FFF794BA19A800F05FFF21A8ED
:1010F00002F052FB01238DF848309DF88D309DF8A9
:1011000064208DF84A309DF88C3004208DF84B30E7
:101110008DF8492008F06EFB054612991B9A29604C
:1011200008200391029208F065FB03460399029A96
:10113000016028461A710421CDE9023208F05EFBF5
:101140001020039A029B110A597122FA00F1120E23
:10115000DA711C9A99710393029208F04BFB0546D1
:10116000039B029A08210272186828605868686018
:10117000184608F043FB4FF0000E029A2046249CCC
:101180004FEA124C85F80AC0130A4FEA126C220A81
:101190002C736A73220C240E6B72AA73EC7385F89D
:1011A0000BC01221724619ABCDF800E005F1100416
:1011B000CDE91A441995FFF79DF81021284608F04B
:1011C0001DFBFFF725BA564B91701968584B0B3130
:1011D000A3FB01EC4FEADC0C0CEB4C0CA1EB8C01FB
:1011E0000C31891BA3FB01C3DB0803EB4303A1EB19
:1011F00083034C4F03EB4303049206201A0107EBD1
:101200000313BD58CDE9022308F0F4FA0346049A0B
:10121000C570108803211880907804939870104648
:1012200008F0ECFA049B2A0A1A712A0C5A710C2055
:1012300008F0E0FA2A0E0546049B82711A6882467D
:1012400002609A8806218280184608F0D7FA039B2C
:1012500005F10C091A7905F10803EA71002A00F07A
:1012600025810299042A01F10501394440F22481C3
:10127000082A104638BF08206FF00043029200F1A0
:1012800008029A4228BF1A4610461746039108F0F2
:10129000B1FADAF8003005460360DAF80430039951
:1012A000029A43608046083029F0F2F9029A0C2134
:1012B00083185046029308F0A1FA00231A460093BF
:1012C000029B09211393EB191493204612AB12953C
:1012D000FFF710F806E520461A9A9DF83810FFF738
:1012E0005FF8FFF770BA2046124AFFF759F8FFF788
:1012F0008FB9012305204FF0070C6B7070E5204675
:101300000D4A9DF83810FFF74BF8FFF781B9092116
:1013100020460A4AFFF744F8FFF77AB90221AAE506
:1013200094330020DC33002028AA0210D833002098
:10133000ABAAAAAAD4A90210F8A70210ECA902101D
:1013400053780132432B7FF474AC12F8013F562BD3
:101350007FF46FAC5378312B7FF46BAC5D4D2B6811
:10136000029307F0CDFD029B5B4A03EB43031F0191
:1013700002EB0313164602934FF47A72002329F00E
:10138000CBF912227B1DF0519819029E0021327177
:10139000282229F0B5F93279504929F079F901214B
:1013A0004F48504B02680A440C2A28BF0C220260A6
:1013B0002A680A44A3FB0203DB0803EB4303A2EB06
:1013C0008302494B2A60197007F09AFD4FF47A7234
:1013D000002329F0A1F910F1FA0320464FF0000490
:1013E000424A41F100010094C2E9003122469DF8D1
:1013F000381021ABCDE921442394FEF77BFFFFF7A2
:1014000007B99DF8BE306870E870AA7043F0DE033B
:101410000FE6012A7FF454AAFFF74BBA2046229A1E
:101420009DF83810FEF7BCFFFFF7C5B98178B0F81A
:101430000320407801F048FE9DF8381000287FF422
:101440007BAC20462A4AFEF7ABFFFFF7E1B8817874
:101450000379C278407801F0A9FE9DF83810002881
:101460007FF46AAC2046234AFEF79AFFFFF7D0B814
:101470002F21013002F02CF99DF8381000287FF45C
:101480005BAC20461C4AFEF78BFFFFF7C1B800F0AB
:10149000010001F0DBFF9DF8381000287FF44CAC10
:1014A0002046164AFEF77CFFFFF7B2B8A8460CE4C8
:1014B0004FF0000CFFF734BA1846029229F0E8F812
:1014C000029AA846831800E420460D4AFEF768FFFA
:1014D000FFF79EB894330020DC33002050AA02109E
:1014E000D8330020ABAAAAAAF67E002070300020D4
:1014F000B8A80210F8A802108CA902103CA902108A
:101500008CAA0210F0B583B0BDF820E0002870D19D
:10151000002B6ED0012A6FD0032A68D1712940F0C8
:1015200092804E4A1278002A00F09580BEF13F0F5B
:101530005DD99C464A4CA6460CF1100CBEE80F0043
:101540004CF8043C474B10349E454CF8100C4CF8BA
:101550000C1C4CF8082CEED14FF00001424B1A78CD
:101560001970002A42D0414C414D2368019307F085
:10157000C7FC019B4FF47A7203EB43031E0105EB9A
:101580000317002329F0C8F81722731D0021A85162
:101590003A715819282229F0B3F836493A7929F0D6
:1015A00077F84FF0010C3448344B026802EB0C0121
:1015B0000C2928BF0C21324A016082F800C0226841
:1015C0006244A3FB02C3DB0803EB4303A2EB8302E9
:1015D000226007F095FC00234FF47A7229F09CF802
:1015E000284BFA3041F10001C3E90001402003B06B
:1015F000F0BD002003B0F0BD0129F8D1BEF13E0FCF
:10160000F5D9214A02F130011468D2F804E0D2F889
:1016100008C0D06810328A421C60C3F804E0C3F8E6
:1016200008C0D86003F11003EED150689168D2F879
:1016300000C05860C3F800C099609189927B3F2038
:1016400099819A73D3E772460846194600F074FBF5
:1016500080B203B0F0BD1046C9E700BFF57E0020A0
:1016600098330020D8330020FD7E002094330020E2
:10167000DC330020BCAA0210D8330020ABAAAAAAEF
:10168000F97E0020803000206536002010B58CB037
:10169000BDF838E020B9022A9C4612D0032A01D0B6
:1016A0000CB010BD7029FBD143B3BEF1410F1FD068
:1016B000BEF1400F14D160460CB0BDE81040FEF7FB
:1016C0005FBF73466246684605F0F6FE9DF800303F
:1016D000002BE5D02F210DF1010001F0F9FFDFE72C
:1016E00001210020074A0CB0BDE81040FEF758BEAB
:1016F0001B78702BF4D10CF1010CDCE70121024ABC
:10170000F1E700BFE8AA0210D4AA02102DE9804830
:10171000B9B00BF047FC00F043FC9A4805F062FBBF
:10172000994C2070FEF7AAFD2378002B00F027814A
:10173000964F974EDFF89882346807F0E1FB4FF43C
:101740007A72002328F0E8FF142204EB44042501F8
:101750006B1D08EB041448F80500227103EB080028
:10176000282200218B4D28F0CBFF2279394628F022
:101770008FFF296830684C1C0C2C28BF0C24864B2A
:1017800001302C60A3FB0043DB0803EB4303A0EB19
:1017900083032C22002122A8336028F0B1FF80218E
:1017A0000822FF237D4C7E48246821908DF8881004
:1017B00004A821A927948DF88B208DF8AC3005F072
:1017C000E5FE784E04AC3546E36820686168A2689F
:1017D00010340FC514AB9C4206F11006F3D101245E
:1017E000714BDFF8F0911C700BF0FEFB18B989F813
:1017F000004001F0B5FB4AF60123002014A9ADF822
:1018000050300BF06BFADFF87CB1DFF8CCA100218F
:101810004FF0FF300AF0F8FA99F800300BB10BF0F6
:10182000D9FB00F0BFFB02F01BF821A801F0B4FFC8
:101830009DF8864024B99DF887400CB99DF88840F2
:1018400007F05EFB9DF884309BF81360032B99F83A
:10185000005000F03881002E40F03A81002C00F05A
:10186000C0810023514A28F057FFC30740F19A81F5
:10187000002D40F0318128460BF096FB4C4B1B7835
:10188000FF2B04D04B4A1278544044EC403021A83E
:1018900001F082FF07F034FBCDE900019DF88A10CA
:1018A000002940F09B80444F3B78002B40F09E8104
:1018B0003D4B1B787BBB414AD2E9003253EA020020
:1018C00040F076812C22002116A828F019FF8023F1
:1018D0008DF85830324B04A8159308238DF85B30EF
:1018E000FF238DF87C302D4B15A91B682D4E1B93C3
:1018F00005F04CFE04AC3546E36820686168A268D8
:1019000010340FC514AB9C4206F11006F3D14FF012
:101910000102254B1A709BF81030002B00F0C0809C
:10192000012B00F0E0800AF0B7F9002840F0ED80CC
:1019300007F0E6FA00234FF47A7228F0EDFE204B10
:101940001B7833B1DAE90023904271EB030380F096
:10195000CC811C4B1A78002A3FF459AF1A4AD2E9BD
:101960000042A0429141FFF452AF00221A700AF0E7
:10197000C1F9322007F098F90AF0C6F947E7134F8A
:10198000D7E600BF1C360020F77E00201CAB0210FB
:1019900094330020D8330020ABAAAAAAAC3600208A
:1019A0000180808064360020FA7E002090D0030001
:1019B00098280020FB7E0020F87E00207830002050
:1019C000F67E0020F97E00208030002004AB02105B
:1019D000DC330020F47E002070300020DFF8D88255
:1019E000319AD8F800309A4200F0A780DFF8CCE2B4
:1019F000A74F9EF800203B7815AC25AD02920393CB
:101A00000FCD0FC40FCD0FC495E80F0084E80F0071
:101A1000029ADDF8ACC0002A40F015814FF00103B6
:101A20008EF800309B4B1A609B4B15A904A8CDF88B
:101A30006CC0C3F800C005F0A9FD984E04AC354653
:101A4000E36820686168A26810340FC514AB9C423B
:101A500006F11006F3D10AF027F9914D04462B78D0
:101A6000002B40F0FF804FF001038E4C2B7025AD12
:101A70000FCD0FC40FCD0FC495E80F0007C424F895
:101A8000023B1B0C23704FF00102874B3A701A7017
:101A9000319BC8F800309BF81030002B7FF440AF2A
:101AA000824A4FF47A61D2E9003253EA020022D02E
:101AB0000098C31A019860EB02028B4272F1000297
:101AC000FFF436AF17E0002E6CD02DB93446D2E6C5
:101AD000002D3FF4D0AE25460024214600200BF017
:101AE0006BFA2C46CAE6714A4FF4FA61D2E9003229
:101AF00053EA0200DCD16C4B1B78002B3FF418AF8B
:101B00000AF0CAF800283FF413AF00200AF0E6FEFE
:101B100000283FF40DAF3F2301210020644A0AF062
:101B2000F9FE00283FF404AF00235F4A13705F4BB7
:101B3000009A1A60019A5A60FAE65B4B1B78002BF8
:101B40007FF4E9AE594AD2E9003253EA02002FD1BC
:101B500015AC25AD0FCD0FC40FCD0FC495E80F0008
:101B6000DFF858C184E80F009CF80070002F71D096
:101B7000484B1B682B9A15A91344474A04A81B938A
:101B8000136005F003FD454E04AC3546E36820685C
:101B90006168A26810340FC514AB9C4206F11006B0
:101BA000F3D1B4E6002D40F09B8001252C4662E67F
:101BB0000098C41A019860EB0200B4F57A5F70F1E6
:101BC00000000AD29BF81010002900F08B80012938
:101BD0007FF4AEAE4FF4FA616AE700293FF472AECB
:101BE000B6E7002D3FF447AE254676E72C2216A82F
:101BF00028F086FD80238DF858302E4B04A81593CD
:101C000008238DF85B30FF238DF87C30224B15A91B
:101C10001B68224E1B9305F0B9FC04AC3546E36803
:101C200020686168A26810340FC514AB9C4206F1AD
:101C30001006F3D14FF001021B4B1A700023184A13
:101C40003B70137067E6039B002B39D0114B1B6868
:101C50009C44E9E64FF001030E4A8CF8003017600F
:101C60003B4687E70F4825A905F022FD80B39BF886
:101C700018306BB3002C3FF4F6AE0AF01DF82B7849
:101C8000002B3FF4F0AE00287FF4EDAEFBE600BF82
:101C9000F87E0020A4360020AC36002064360020F8
:101CA000FC7E00209C280020FA7E00207830002056
:101CB0006536002001808080A8360020FE7E00204E
:101CC0000D4B1B68A3EB0C029C460C4B1A60ABE659
:101CD0002B78002B3FF4C7AE002C7FF4D4AEC2E6C5
:101CE0002C46FAE64FF47A61E2E60021044B0846FE
:101CF000197007F043FA00BFAC360020A43600206C
:101D0000F67E00200149024805F05AB8CC28002090
:101D10001C36002040F6E64340F6F251012808BF89
:101D20000B46014A13807047E2280020014B1870CF
:101D3000704700BFFF7E002070B509288CB023D00B
:101D400020281AD005281BD12824C9B1944217D8BD
:101D500001900D4608462246002128F0D1FC019B47
:101D6000052B26D0092B11D02046354A354BC5F816
:101D70001720C5F81B300CB070BD3F240029E5D1F9
:101D8000002420460CB070BD1324DEE72E4B1B78D8
:101D9000002B37D12D4B1A784AB3062228462C49FE
:101DA00028F092FC6B7923F0030343F002036B717C
:101DB000E7E702A805F0C6FBAE4602AEB4460EF158
:101DC000100EBCE80F004EF8043C0AAB9C4506F12F
:101DD00010064EF8100C4EF80C1C4EF8082CEDD1E5
:101DE000BCE80300CEF80000CEF80410C9E709F003
:101DF000BDFC0122154B1A70154B0A0A18601971A7
:101E00005A71CAE7002302A8CDE9023309F00EFB9C
:101E10000298104BDDF80A1043404B409DF80C200F
:101E20009DF80E102B604A409DF80F309DF80D1064
:101E300082F04C024B4083F06B032A716B71B1E767
:101E400001004C4D0035004DFF7E0020007F00203A
:101E5000B03600204D697261054B064A1B78064872
:101E6000002B0CBF002303231288037442817047A8
:101E7000FF7E0020E2280020D028002008B9024878
:101E800070470020704700BF18F4021000487047E8
:101E9000ECF3021058B940F209434FF44171DFF8F6
:101EA000E8C03948ACF80230ACF80010704730B5E3
:101EB00002288BB025D003283ED004283AD8334BD3
:101EC00053F82040B4B3204627F0ECFE3F280346E9
:101ED00028BF3F23591C49001D46DFF8ACC041F420
:101EE000407148B16046621E931C1B1B12F801EF43
:101EF0009D4220F802EFF7D82348ACF800100BB051
:101F000030BD40F6F253224A12889A4235D04FF43F
:101F10004F714FF01D0E1F48DFF86CC00EF1FF3EF1
:101F20006246431E864413F8010F9E4522F8020FB5
:101F3000F9D1E1E70020E2E7174B1B78002BF9D03D
:101F400021220021684628F0DBFB2121684609F0A8
:101F500075FA684627F0A6FEDFF82CC040B16B4644
:101F600062461C1813F8011BA34222F8021FF9D184
:101F7000411C490041F44071BEE740F246314FF048
:101F8000220E0648C8E700BF08330020D8F302102D
:101F9000E228002058AB0210FF7E002034AB021074
:101FA000704700BF704700BF704700BF08B52022D0
:101FB000002128F0A5FB08BD4FF0010C10B5134A15
:101FC000134C136884F800C0EFF3108C72B6D3E89A
:101FD000CFEF0124BEF1000FF9D1C3E84E4FBEF19F
:101FE000000FF4D1BFF35F8F0A4BC2F804C083F82F
:101FF0004800186D83F849100130186512680023F5
:10200000C2E88F3F8CF3108810BD00BFC43600209B
:10201000117F0020F028002008B54FF4CC62002189
:10202000234828F06DFB4FF0FF3300219FED1E7B0E
:10203000204A2148C2E90033C2E9023303601F4B42
:102040001F4A19601F4B11601F4A83ED007B1F4B15
:1020500011601F4A83ED007B1E4B11701E483F220A
:1020600083ED007B28F04CFB1C4B1868EFF31082CB
:1020700072B6D0E8CFEF5FF0010CBEF1000FF8D1DF
:10208000C0E84ECFBEF1000FF3D1BFF35F8F002148
:1020900013485A6001811B68C160C3E88F1F82F337
:1020A000108808BDAFF300800000000000000000B1
:1020B000E4360020D4360020E8280020AC3D002083
:1020C000A83D0020C0300020B03D0020A8300020F6
:1020D0000C7F002098300020443D0020C4360020B2
:1020E000F028002010B5214C2368EFF3108272B65F
:1020F000D3E8CF0F01210028FAD1C3E8401F002800
:10210000F6D1BFF35F8F1A4B6260188830B1194B5C
:10211000587918B11B78032B07D0002000232168C1
:10212000C1E88F3F82F3108810BD134B1B78002B42
:10213000F3D112490978062901D01846EEE7104973
:10214000D1E900310B43E9D006F0DAFE4FF47A72A0
:10215000002328F0E1FA0A4A13689842536862683B
:1021600099412CBF01200020D8E700BFC4360020D1
:10217000D27E0020F0280020107F00209C3D00200F
:10218000F03000201A4A1368032B24D90268194B37
:10219000C3F812208288DA82174B1968EFF3108295
:1021A00072B6D1E8CFCF0120BCF1000FF9D1C1E860
:1021B0004C0FBCF1000FF4D1BFF35F8F4FF0010C57
:1021C0000E485A6000211B6880F807C0C3E88F1FC3
:1021D00082F31088704703EB430C01330549136009
:1021E000036841F81C30838801EB4C018B80D3E7F6
:1021F000B43D0020843D0020C4360020F02800209B
:1022000000234FF6FF7C9FED1A7B1B4A1B4913608E
:1022100093801B4A1B4813701B4A097813701B4A92
:10222000A0F800C013701A4A82ED007BE9B1194A88
:1022300000B51068EFF3108172B6D0E8CFEF5FF011
:10224000010CBEF1000FF8D1C0E84ECFBEF1000F77
:10225000F3D1BFF35F8F10485160A0F85830126877
:10226000C2E88F3F81F3108800BD7047AFF3008054
:102270000000000000000000CC360020027F00209B
:10228000087F0020EC280020167F0020097F002016
:1022900090300020C4360020F02800202DE9F041C5
:1022A000DFF8C080064698F806306BBB0024012199
:1022B000C8E90044A8F808403068254FC8F8000075
:1022C000B2883B6888F80610A8F80420D3B1214DE5
:1022D00002E03B689C4215D22946304610F0F4F8E3
:1022E000013406350028F4D101221B4B88F8072061
:1022F0001B7813B1194B1B786BB9002388F8083091
:10230000BDE8F0810022F0E7414610F0DDF800283A
:10231000CCD1BDE8F0813046114910F0D5F8002845
:10232000EBD101223B6888F8082063B10446094DCF
:102330002946304610F0C8F8013406350028DFD0B1
:102340003B689C42F4D33046BDE8F041FFF71ABF2A
:10235000B43D0020843D0020097F0020087F00203C
:10236000CC36002010460020F0B54E4D85B0AA793D
:1023700012B1EA79002A64D00026002700244A4BD3
:102380004A4AC3E900674A4B54601460C2F80740E8
:10239000484A1C70484BC2E9006748494848494AC6
:1023A0001C70494BC0E90067C2E900670C704E22FF
:1023B00021464648C3E90067C5E900442C8128F05E
:1023C0009FF9434B21468E224248C3E9006728F01B
:1023D00097F9414B4149C3E90067414A414B424E9D
:1023E0001C700C701470FFF717FE3368EFF3108247
:1023F00072B6D3E8CF0F01210028FAD1C3E8401FFD
:102400000028F6D1BFF35F8F384B394D394F1C8010
:102410007260D5E900321343BC80BC7120D1BC701E
:1024200004233B7032680023C2E88F3F726882F356
:102430001088314A3149C2E9003393600B7005B00E
:10244000F0BD2A7A002A97D16A7A002A94D195E8B9
:102450000300029002A8ADF80C1011F04FFC8BE7BE
:1024600006F04EFD2C6800234FF47A72019428F098
:1024700053F9019A6C689042A14134BF01230023B3
:102480001443BB70CCD006F03BFD4FF47A720023AE
:1024900028F042F9D5E9002390429941C0D20223A5
:1024A000BFE700BF10460020D03000209C3D002038
:1024B0000E7F0020B03000200D7F00200B7F002019
:1024C000A0300020D830002090300020C0450020EF
:1024D000F03000201C460020F8300020127F002041
:1024E000137F0020107F0020C4360020D27E002001
:1024F000C8300020F0280020B8360020117F0020CE
:102500002DE9F041864B94B01B78FBB1854D2B68CB
:10251000EFF3108272B6D3E8CF4F0121002CFAD12D
:10252000C3E8441F002CF6D1BFF35F8F7E4B6A6077
:102530001B8883B17D4B5C799CB11B78032B16D033
:1025400000232968C1E88F3F82F3108800242046C9
:1025500014B0BDE8F0812968C1E88F3F82F310888C
:10256000F4E72B68C3E88F4F82F31088EEE7704BD7
:102570001B789846002BE3D16E4B1B78062B05D0B9
:102580002B68C3E88F8F82F31088DFE76A4907461C
:10259000D1E900310B4340F0A9802B68C3E88F8F4D
:1025A00082F31088654B68461A78511C197002F046
:1025B0000F02394605F0BAF9614B1D68032DC5D8E5
:1025C000604B614A196892F89431002B68D1002958
:1025D0006FD192F82C33002B67D101231E464FF4A4
:1025E000CC7101FB03204FF4C772002128F088F85A
:1025F0004E22694628F04CF84E22C0F89021504AED
:10260000013515603122012180F88E214F4A80F872
:10261000941113684E494F4D41F82360013303F084
:102620000303136006F06CFC4FF47A72002328F069
:1026300073F80022484BC5E900011A70FB7A3BB1E0
:102640002F22012A07F10C014BDD444828F03CF809
:102650003B783BB9FB782BB9FB791BB97B7A002B14
:102660003FF475AFDFF8F4C00DF10305E646EB6803
:1026700028686968AA681035AEE80F000DF13303C9
:102680009D420CF1100CF1D1AA6828686968ACE889
:102690000700AA89AB7BACF800208CF8023056E723
:1026A00092F82C333BB9012997D192F8C4343BB945
:1026B00002231E4693E792F8C4344BB90229F7D19E
:1026C00092F85C36002B7FF441AF03231E4686E769
:1026D00092F85C36002B7FF439AF03293FF436AF14
:1026E000F3E7B5D11D4B3A7B1A70B1E706F008FC51
:1026F000D5E900654FF47A72002328F00DF80E4BEF
:10270000D3E900239042994104D2C6E88F8F85F324
:1027100010881BE7C6E88F8F85F3108842E700BF5B
:10272000027F0020C4360020D27E0020F028002046
:10273000107F00209C3D0020F0300020067F00200C
:10274000B03D0020E8280020E4360020AC3D002009
:10275000D436002088300020037F0020443D002034
:102760002B4AF8B5137863B3002400260027294BC1
:10277000294AC3E90044C3F80740284B1588C3E938
:102780000067274B274AC3E90067274B21461C7087
:10279000264BC2E9006726484E221C7027F0B0FF86
:1027A000244B8E2221462448C3E9006727F0A8FF66
:1027B000224B234A1C70234B1470C3E900670DBBE6
:1027C000F8BD0125204C15702668EFF3108572B610
:1027D000D6E8CF7F0122002FFAD1C6E8472F002F7D
:1027E000F6D1BFF35F8F194A656082F84910116D09
:1027F0002468013182F848001165C4E88F3F85F3F1
:102800001088B1E72846BDE8F8401CF059BC00BF6D
:10281000117F00209C3D0020D27E0020D03000207F
:10282000D8300020B03000200E7F00200D7F002027
:10283000C0450020F03000201C460020127F002000
:10284000137F0020F8300020C4360020F02800203C
:1028500038B5494CD4E90032134300D138BD474B59
:102860001D7806F04DFB4FF47A72002327F054FFD9
:10287000D4E9002390429941F0D2002DEED0404C93
:102880002378002BEAD13F4B1B78002BE6D13E4B3F
:102890001B88002BE2D13D4AD2E9003213430CD011
:1028A00006F02EFB4FF47A72002327F035FF374BEA
:1028B000D3E9002390429941D0D3082016F004FABE
:1028C000334B1A6800BB9FED2A7B304981ED007BBA
:1028D000EFF3108172B6D2E8CFEF5FF0010CBEF1DA
:1028E000000FF8D1C2E84ECFBEF1000FF3D1BFF315
:1028F0005F8F0122274D5960EA701B682270C3E880
:102900008F0F81F3108838BD012423490C70EFF339
:10291000108172B6D2E8CFEF5FF0010CBEF1000F6C
:10292000F8D1C2E84ECFBEF1000FF3D1BFF35F8FF5
:10293000D3F800C05960174B1A6D83F84840224401
:1029400083F849001A650023CCE88F3F81F3108893
:1029500006F0D6FA00234FF47A7227F0DDFE0B4B17
:1029600010F57A7041F10001C3E9000138BD00BFE4
:102970000000000000000000C8300020017F00209F
:10298000047F00200B7F0020D27E0020B830002082
:10299000C4360020F0280020117F00200000000035
:1029A0002DE9F043B1B006F0ABFA4FF47A72002390
:1029B00027F0B2FE00259E4B9E4C1D70C4E900011D
:1029C00006F09EFA4FF47A72002327F0A5FE034624
:1029D00001249948994E1B18994F41F100017160EB
:1029E00033603C7000260027964A974B2046C3E987
:1029F0000067C2E90055956015F024FF204615F0E8
:102A0000E7FE924B1978002938D15C2202A827F002
:102A100077FE8F4C8F4E904F388838B19DF8083034
:102A2000032B03D09DF80E50002D5FD02268EFF3EA
:102A3000108372B6D2E8CF0F01210028FAD1C2E884
:102A4000401F0028F6D1BFF35F8F32780121032A9F
:102A500018BF0222B17018BF327021680022636073
:102A6000C1E88F2F83F310883B881BB97B4B1B7801
:102A7000002B35D0012031B0BDE8F083744C2268C2
:102A8000EFF3108372B6D2E8CF0F01210028FAD1FC
:102A9000C2E8401F0028F6D1BFF35F8F6D4E5C2265
:102AA000314619A86360019327F0F2FD6C4A777AEA
:102AB00011685068884681462268C2E88F5F019B92
:102AC00083F3108827B151EA000340F09980002772
:102AD0005C2219A902A88DF86D7027F0D9FD9AE73C
:102AE000FFF7B6FE012031B0BDE8F0835D4B1880E2
:102AF0001CF0E6FA5B4B1B88002B00F0DB8006F035
:102B0000FFF94FF47A72002327F006FE42F21072AA
:102B10000125821841F100084FF0000EDFF890C146
:102B2000514BCCE900015149C1E90028504A1570C8
:102B3000504A82F800E09A7972B1DA7962B91A7A69
:102B400052B95A7A42B993E80300199019A8ADF81E
:102B5000681011F0D3F8444B00259FED337BC3E997
:102B600000551D81444B454A83ED007B444B156065
:102B70005560C2F80750434A83ED007B424B157005
:102B80003648424A83ED007B414B2946057015705B
:102B900040484E2283ED007B3D8027F0B1FD9FED44
:102BA000227B3D4B8E2229463C4883ED007B27F05B
:102BB000A7FD9FED1D7B3A4B1D703A4B1D703A4BA4
:102BC00083ED007B394B1D70FFF726FA2268EFF387
:102BD000108372B6D2E8CF1F01200029FAD1C2E8D3
:102BE000410F0029F6D1BFF35F8F0222636032707C
:102BF000B5802268B571C2E88F5F83F3108815E74E
:102C000006F07EF94FF47A72002327F085FDB0EBD1
:102C1000080061EB0901FB2871F10001BFF457AF17
:102C200056E700BFAFF30080000000000000000086
:102C3000037F002088300020E0930400C83000208B
:102C40000A7F0020B8360020B8300020027F002024
:102C5000C4360020F0280020D27E00200B7F002008
:102C600098300020D07E002010460020E830002060
:102C7000147F0020157F0020A03000209C3D002004
:102C8000B03000200E7F0020D03000200D7F0020CB
:102C9000D8300020C0450020F03000201C46002025
:102CA000127F0020137F0020F8300020107F0020CA
:102CB000E0300020284629462A46A8462CE700BFD7
:102CC0008D4B1B7803B17047F0B58C4C85B0D4E9BF
:102CD0000032134301D105B0F0BD894B06461D7883
:102CE000074606F00DF94FF47A72002327F014FD21
:102CF000D4E9002390429941EDD2002DEBD0814BD5
:102D00001B78002BE7D1804B1B88002BE3D130468A
:102D1000FFF7C4FA7D4A1378002B40F0E2807C4D27
:102D20002968EFF3108372B6D1E8CF4F0120002C51
:102D3000FAD1C1E8440F002CF6D1BFF35F8F002415
:102D4000744E14706B602A68F470C2E88F4F83F37E
:102D500010889FED677BBB886F4A3868ADF80430F8
:102D60006E4F6F4B14706F4AC3E9004487ED007BD0
:102D7000C3F807406C4F6D4B2146009014706C48AF
:102D80004E2287ED007B83ED007B27F0B9FC9FEDA1
:102D9000587B684B8E222146674883ED007B27F0E5
:102DA000AFFC9FED537B584B2A681C80634B1C7013
:102DB000634B1C70634B83ED007B634B1C70634B58
:102DC0001C70EFF3108172B6D2E8CFCF0120BCF1B6
:102DD000000FF9D1C2E84C0FBCF1000FF4D1BFF3E2
:102DE0005F8FF26C69600132F2642A68C2E88F4F2B
:102DF00081F3108801216846434A1CF0DFF8534BE9
:102E0000064600282CD106F07BF84FF47A72002396
:102E100027F082FC42F21073C0184FF001034C4CB3
:102E20003B4D384A41F10001616020602968137010
:102E3000EFF3108272B6D1E8CF4F0120002CFAD107
:102E4000C1E8440F002CF6D1BFF35F8F31496A60AF
:102E50000B710B702B68C3E88F6F82F310883AE711
:102E600001221A702B68EFF3108272B6D3E8CF0FED
:102E700001210028FAD1C3E8401F0028F6D1BFF392
:102E80005F8F24482968036D80F84960013303652A
:102E900002236A6080F84830C1E88F4F82F31088BF
:102EA0002C4CA3796BB1E3795BB9237A4BB9637A84
:102EB0003BB994E80300029002A8ADF80C1010F0A2
:102EC0001DFF00232449254A0978C4E90033C2E9DB
:102ED00000332381936000293FF4FDAEFFF7B8FC77
:102EE000F9E615F00FFF094A19E700BFAFF30080BC
:102EF0000000000000000000037F0020C830002018
:102F0000017F00200B7F0020D27E0020047F002064
:102F1000C4360020F02800200E7F0020B0300020B2
:102F20009C3D00200D7F0020D0300020D8300020B4
:102F3000C0450020F03000201C460020127F0020F9
:102F4000137F0020F8300020107F0020117F002028
:102F5000A0300020104600200A7F0020B836002054
:102F600008B5104B1A7802B108BD0F4805F05AFB9E
:102F700001220C4B0D491A700A8017F06FF84FF4BC
:102F800000610B481BF094FF0A481BF0B1FF0A4890
:102F9000084B436011F0E0F9BDE80840012015F04E
:102FA00009BB00BF027F0020C4360020F0280020AB
:102FB000C03D002041450010B83D0020D0ED017A11
:102FC000B0EE677ABEEECC7A38B52F4BC27A19785C
:102FD00017EE103AB3F5807FB8BF4FF48073B3F5A6
:102FE000007FA8BF4FF40073002943D0002A29D0E6
:102FF0004FF0000E254AD2F800C0EFF3108172B6F0
:10300000DCE8CF5F0124002DFAD1CCE8454F002D3C
:10301000F6D1BFF35F8FDFF890C05160ACF800309D
:1030200090F815C01A4BC07A83F800C0194B12688B
:1030300018700023C2E88F3F81F31088BEF1000FA3
:1030400004D138BD144A92F800E0D3E74FF00005F0
:10305000114C257005F054FF4FF47A72002327F0CD
:103060005BFB0E4B25701A780D4B1A700D4BC3E9A4
:10307000000138BDDFF830C00549407DACF80030B4
:10308000044B08701A7038BD027F0020C43600203F
:10309000057F0020077F0020037F0020017F0020A4
:1030A0000F7F002088300020E4280020044B1B788C
:1030B00013B1044B1B780BB918467047FFF770BC6F
:1030C000027F0020017F002070B540F6B734531E08
:1030D0009BB2A34292B003D90024204612B070BD27
:1030E0002D4B1B78002B54D02C4B1C68EFF3108C0D
:1030F00072B6D4E8CF5F5FF0010E002DF9D1C4E8BD
:1031000045EF002DF5D1BFF35F8FD3F800E0C3F892
:1031100004C0234B1C880023CEE88F3F8CF310881B
:10312000054601911646002138220DF10F0027F0C7
:10313000E7FA019B04FB05F204FB03F102F18003B3
:103140001B0A8031090AFF2B28BFFF23FF2928BF54
:10315000FF214FF0010503A88DF80C508DF80D30BC
:103160008DF80E10FFF7CCF904460028B4D00D4BB3
:103170001D7005F0C5FE4FF47A72002327F0CCFADB
:10318000094B801941F10001C3E90001204612B04A
:1031900070BD034B1C88C3E7027F0020C4360020AB
:1031A000E42800200C7F0020A8300020F0B5A7B054
:1031B00006460D46144600213B2203A8019327F042
:1031C0009FFA019B914A03F01F038DF814300123ED
:1031D00012788DF810608DF811508DF812408DF82E
:1031E0000F308DF81330FAB1894D2B68EFF3108250
:1031F00072B6D3E8CF0F01210028FAD1C3E8401FEF
:103200000028F6D1BFF35F8F824B6A601B887BB1C9
:10321000814B5C7994B11B78032B15D0002329686E
:10322000C1E88F3F82F310880024204627B0F0BD0C
:103230002968C1E88F3F82F31088F5E72B68C3E85F
:103240008F4F82F31088EFE7744B1B781F46002BDB
:10325000E4D1734B1B78062B05D02B68C3E88F7F16
:1032600082F31088E0E76F49D1E900310B4340F069
:10327000B3802B68C3E88F7F82F310886A4B03A961
:103280001A78501C187002F00F0212A804F04EFBBE
:10329000664B1D68032DC7D8654B664A196892F8BE
:1032A0009431002B77D100297ED192F82C33002B5A
:1032B00076D101231E464FF4CC7101FB03204FF45D
:1032C000C772002127F01CFA4E2212A927F0E0F95C
:1032D0004E220346C0F890210120544A0135156062
:1032E00031255549DFF860C10A6883F88E514CF8E2
:1032F0002260024402F003020A6083F8940105F0A0
:10330000FFFD4FF47A72002327F006FA00224B4BA0
:103310004B4D1A709DF81730C5E900017BB1494D3E
:103320000DF1180CBCE80F000FC5BCE80F000FC56D
:103330009CE80F0007C51A0C25F8023B2A709DF87F
:103340000C3053B99DF80F303BB99DF8133023B9B9
:103350009DF81530002B3FF468AFDFF8E8C00DF1A1
:103360004B05E646EB6828686968AA681035AEE840
:103370000F000DF17B039D420CF1100CF1D1AA68F6
:1033800028686968ACE80700AA89AB7BACF8002024
:103390008CF8023049E792F82C333BB9012988D1E7
:1033A00092F8C4343BB902231E4684E792F8C43431
:1033B0004BB90229F7D192F85C36002B7FF434AF79
:1033C00003231E4677E792F85C36002B7FF42CAF80
:1033D00003293FF429AFF3E705F092FDD5E9005644
:1033E0004FF47A72002327F097F90E4BD3E90023AC
:1033F0009042994104D2C5E88F7F86F3108813E785
:10340000C5E88F7F86F3108838E700BF027F002071
:10341000C4360020D27E0020F0280020107F00203B
:103420009C3D0020F0300020067F0020B03D0020B1
:10343000E8280020E4360020AC3D0020037F002077
:1034400088300020443D0020D4360020F0B5A5B0DF
:1034500004463B22002101A827F052F901228C4B9F
:103460008DF80E401B788DF80D20FBB1894D2B682F
:10347000EFF3108272B6D3E8CF0F01210028FAD102
:10348000C3E8401F0028F6D1BFF35F8F824B6A600C
:103490001B887BB1814B5C7994B11B78032B15D0D1
:1034A00000232968C1E88F3F82F31088002420465A
:1034B00025B0F0BD2968C1E88F3F82F31088F5E799
:1034C0002B68C3E88F4F82F31088EFE7744B1B78AB
:1034D0001F46002BE4D1734B1B78062B05D02B68BD
:1034E000C3E88F7F82F31088E0E76F49D1E90031AC
:1034F0000B4340F0B3802B68C3E88F7F82F31088C2
:103500006A4B01A91A78501C187002F00F0210A81B
:1035100004F00CFA664B1D68032DC7D8654B664A4C
:10352000196892F89431002B77D100297ED192F856
:103530002C33002B76D101231E464FF4CC7101FBB6
:1035400003204FF4C772002127F0DAF84E2210A9A9
:1035500027F09EF84E220346C0F890210120544ADD
:103560000135156031255549DFF860C10A6883F8D7
:103570008E514CF82260024402F003020A6083F884
:10358000940105F0BDFC4FF47A72002327F0C4F8D3
:1035900000224B4B4B4D1A709DF80F30C5E90001CE
:1035A0007BB1494D0DF1100CBCE80F000FC5BCE814
:1035B0000F000FC59CE80F0007C51A0C25F8023B49
:1035C0002A709DF8043053B99DF807303BB99DF837
:1035D0000B3023B99DF80D30002B3FF468AFDFF8B6
:1035E000E8C00DF14305E646EB6828686968AA68FB
:1035F0001035AEE80F000DF173039D420CF1100C75
:10360000F1D1AA6828686968ACE80700AA89AB7B91
:10361000ACF800208CF8023049E792F82C333BB923
:10362000012988D192F8C4343BB902231E4684E7AD
:1036300092F8C4344BB90229F7D192F85C36002BCA
:103640007FF434AF03231E4677E792F85C36002BF5
:103650007FF42CAF03293FF429AFF3E705F050FCCA
:10366000D5E900564FF47A72002327F055F80E4B37
:10367000D3E900239042994104D2C5E88F7F86F3B5
:10368000108813E7C5E88F7F86F3108838E700BFFE
:10369000027F0020C4360020D27E0020F0280020C7
:1036A000107F00209C3D0020F0300020067F00208D
:1036B000B03D0020E8280020E4360020AC3D00208A
:1036C000037F002088300020443D0020D4360020B5
:1036D00018B12F2902D00020704770470023012223
:1036E000844630B591B0CDE90133039304AC8DF835
:1036F0000F2000F12005A646DCF80000DCF80410DD
:10370000DCF80820DCF80C300CF1100CAC45AEE80D
:103710000F0004F11004EED1DCF80820DCF8000002
:10372000DCF80410AEE80700BCF80C30AEF800304E
:10373000164B9CF80E201B788EF8022013B3144B06
:103740001968EFF3108272B6D1E8CFCF0120BCF137
:10375000000FF9D1C1E84C0FBCF1000FF4D1BFF359
:103760005F8F0C4918685A6009780023C0E88F3FC2
:1037700082F3108804A804F0C9F901A8FEF7C0FE7E
:1037800011B030BD034B1978F4E700BF027F002071
:10379000C4360020057F00202DE9F0412A4B044665
:1037A000197898B069B95C2226F0AAFFFF23204659
:1037B0002649274A84F83830C4E9041218B0BDE815
:1037C000F081244B1A68EFF3108572B6D2E8CF0F60
:1037D00001210028FAD1C2E8401F0028F6D1BFF32A
:1037E0005F8F5C221C4901A85D6026F051FF1B4AD7
:1037F0001949D2E90067174B4A7A002090461B68A6
:10380000C3E88F0F85F3108822B156EA07030CD165
:103810004FF000085C22204601A98DF80D8026F0AB
:1038200037FF204618B0BDE8F08105F069FB4FF482
:103830007A72002326F070FF801B61EB0701FB28E2
:1038400071F10001E4D2E5E7027F00200180808071
:1038500080000008C4360020F028002098300020A6
:103860002DE9F04F784CB1B0237813B931B0BDE8F1
:10387000F08F764D2B7823B1754B1B88002B40F0D1
:10388000AC80744B744D1A782978002A00F0988225
:10389000724A1078002840F08A80DFF8E481DFF86F
:1038A000E491B8F80020297899F80000002A00F087
:1038B000AC82002900F00183002840F0D382684BDD
:1038C0001B78002B00F076824FF6FF73654D2A8837
:1038D0009A4200F06F8205F013FB4FF47A720023D6
:1038E00026F01AFF604AD2E90063B04271EB03038D
:1038F00008D310F57A70106041F1000128885160FA
:1039000015F090F9594DB8F800302A78002A2FD0D8
:10391000002B00F0DF80564B1F78002F40F0DA803C
:10392000544A1178924606292CD84A22CA40D20716
:1039300022D5514B1968EFF3108272B6D1E8CFCF80
:103940000120BCF1000FF9D1C1E84C0FBCF1000F10
:10395000F4D1BFF35F8F5A601968484B5B79C1E8B7
:103960008F7F82F31088002B40F0CA83B8F80030B4
:10397000002B00F0AF803E4B1B78002B40F0AA805C
:10398000DFF8F0A005F0BCFA00234FF47A7226F0BD
:10399000C3FE9AF800308B46013B0090032B00F2E7
:1039A0009980DFE813F08C0274034C03E902344879
:1039B00080460088002900F0F6813249894609785E
:1039C000002940F07682002840F03F84FEF7CCFCCE
:1039D0000021224A1F4B117063E705F091FA2A4B30
:1039E0001B78272B1F462CD84FF47A72002326F021
:1039F00093FE264BD3E90023904271EB030320D2C0
:103A0000234AD2E90063B04271EB0303FFF439AFFC
:103A100010F1FA030E4E1C48136007F10103037006
:103A2000308841F10001009051601BF049FB338860
:103A3000009883427FF425AF134B1B78272B7FF62A
:103A400020AF00232B701CE7027F0020147F002092
:103A5000D07E00200F7F0020017F0020177F0020F4
:103A6000097F0020EC28002090300020127F0020E9
:103A7000107F00209C3D0020C4360020F02800204C
:103A8000D27E0020037F0020157F0020E830002038
:103A9000E03000209AF80030042B05D101238AF889
:103AA0000A3003238AF800300023019A009813702B
:103AB000834A10F57A734BF100011360814B51601A
:103AC000021D1A604BF100025A6000220023029985
:103AD000C1E900232378002B00F07A817A4B196822
:103AE000EFF3108272B6D1E8CF5F0120002DFAD13A
:103AF000C1E8450F002DF6D1BFF35F8F19685A60FA
:103B0000724B1E780023C1E88F3F82F3108899F82A
:103B10000050002D7FF4AAAE26B1B8F80030002B7B
:103B200040F00C836A4DD5E90032134319D005F0FB
:103B3000E7F94FF47A72002326F0EEFDD5E9002371
:103B40009042994180F0DE8005F0DAF94FF47A7204
:103B5000002326F0E1FDD5E9002390429941C0F011
:103B6000A7805C4DD5E90032134340F034815A4BB5
:103B70001B782BB1594DD5E90032134340F07581C4
:103B8000574D2B68002B3FF471AE2378002B3FF488
:103B90006DAEFEF7A7FA00283FF468AE514C2368DB
:103BA000002B0DDB05F0ACF94FF47A72002326F000
:103BB000B3FD4D4BD3E9002390429941FFF456AE3B
:103BC0004A4B4B4A1B68B8F8000052F823304FF4B8
:103BD000CC7202FB03F21E46464B991801321A447E
:103BE000D1F8903191F88E11013B9BB21CF0A2F8F4
:103BF000022800F0788300287FF438AE23688342DF
:103C000006DB4FF4CC713B4A01FB032383F894019C
:103C10004FF0FF32354936480B68266040F82320C4
:103C2000013303F003030B602B6813442B6005F092
:103C300067F94FF47A72002326F06EFD4FF4CC73CF
:103C40002C4A043003FB062494F88E31264D41F1B2
:103C50000001362B286069607FF408AE1A4C236897
:103C6000EFF3108272B6D3E8CF0F01210028FAD10A
:103C7000C3E8401F0028F6D1BFF35F8F40F2011167
:103C80001D4B6260DA6819810132DA6005F038F99B
:103C90004FF47A72002326F03FFD184D0023C5E94A
:103CA00000012268C2E88F3F636883F31088DDE576
:103CB000134B1B78002B7FF454AFFEF7C9FD50E780
:103CC000D8300020F0300020C4360020077F0020CC
:103CD000C8300020A03000200C7F0020A830002039
:103CE000B03D0020E8280020C0300020A83D002082
:103CF000D4360020E4360020F02800209830002040
:103D00000B7F002000239FED8A7B8B4A8B498C48D8
:103D1000C2E90033037093600B7885ED007B002BC4
:103D200040F00882874D2B68EFF3108272B6D3E81B
:103D3000CFCF0120BCF1000FF9D1C3E84C0FBCF18B
:103D4000000FF4D1BFF35F8F00207F4B08706A60D3
:103D50002968D870C1E88F0F82F3108814F038FDFD
:103D60002968EFF3108272B6D1E8CFEF5FF0010C53
:103D7000BEF1000FF8D1C1E84ECFBEF1000FF3D174
:103D8000BFF35F8F704B002019789870022908BF2D
:103D900004216A6008BF197000232968C1E88F3FB9
:103DA00082F31088DDE6DFF8C891002840F08580B6
:103DB00000221A7000200021644BC3E90001A1E534
:103DC000DFF8B081DFF8A89100297FF478ADF1E742
:103DD0005F4B1E789BE605F093F84FF47A72002350
:103DE00026F09AFCD5E9002390429941FFF4BFAE3A
:103DF00019A8FFF7D1FC9DF86A30002B00F0AC81C8
:103E000000220023C5E90023B1E60029D0D050BB31
:103E1000504A1278002A7FF452AD122108461A70D7
:103E2000009215F09BF8012015F0A8F8009814F006
:103E300009FD012014F006FD474A2978D2E9003235
:103E400013430E4640F0E881002900F0B98199F84B
:103E5000000080F0010014F0BBFC297800297FF4F9
:103E60002EADA7E700221A7029E505F049F84FF4B6
:103E70007A72002326F050FCD5E900239042994144
:103E8000FFF47EAE3A2200210DF1650026F038FCE9
:103E9000012319A88DF86430FEF732FB00283FF4A7
:103EA0006FAE00232D4A137000220023C5E90023C2
:103EB00066E60028D6D1187001E519707AE7284B1C
:103EC0000293D3E90023904271EB0303FFF402AEA7
:103ED000DAF80430022B3FF6FDAD224DEA5C002AF1
:103EE0003FF4F8AD2049B8F800000B780191013398
:103EF0000B70032103921BF0F1FE039A002800F0DF
:103F0000B7821A4B0228187000F0EE82009B13F162
:103F1000190C4BF1000E0C2840F09682019B1B7887
:103F2000032B00F29182029BC3E900CED2E500BFD1
:103F30000000000000000000B8360020047F0020D0
:103F40000A7F0020C4360020F02800209030002096
:103F5000077F00200B7F0020C83000200C7F00204E
:103F6000B0300020E4F402100E7F00200D7F00200E
:103F7000037F0020D27E0020B94B0293D3E90023B7
:103F8000904271EB0303FFF4A5ADB64B1978019392
:103F9000002900F0CF81019B01311970B24A4D23F5
:103FA0003121B8F800001BF0C5FE00283FF472ADC7
:103FB000AE4B0228187000F021820C2800F0D0814E
:103FC0009AF80020AA49042A04BF05228AF8002092
:103FD0000A78002A00F0D28100219FED9F7B029F8A
:103FE000019A87ED007B1970A24FA34B1170A34873
:103FF0004E2283ED007BCAE9001187ED007BCAF8F1
:104000000710B8F8006026F07BFB9FED937B9C4B7C
:1040100000218E229B4883ED007B26F071FB00215E
:104020009FED8D7B984B29701970984B83ED007B29
:10403000002E3FF44FAD30461BF042F84AE58E4A61
:10404000D2E9001351EA03053FF444AD88427BEB0B
:104050000303FFF43FAD9FED807B9AF80A3082EDB9
:10406000007B002B40F0B881DAF804208AF8083091
:104070000132022ACAF804208CBF042201228AF8E5
:104080000020774AC2E9000B764A137022E5794D89
:10409000D5E9002352EA03013FF41CAD90427BEBCB
:1040A0000303FFF417ADB8F800009AF808701BF08E
:1040B00079FE002840F0D48108229FED677B6B4B8E
:1040C00085ED007B1A709AF80030022B0DD19AF81A
:1040D0000830BB4209D19AF809308AF80800002B51
:1040E00000F00A8206238AF80030002200985C4B18
:1040F00019304BF10001C3E900015A4B1A70E9E491
:1041000004F0FEFE4FF47A72002326F005FB0E4603
:104110005E4B8246D3E90012884276EB0202B8F881
:104120000030FFF425AC584A1278022A40F2BC80D5
:104130002F701DE414F0E6FD5549F3E519A8FFF7CB
:104140002BFB9DF86430032B3CD099F80030002BFA
:104150003FF4E8ACFFF78ABBB8F80020002A3FF430
:1041600006AD00200021C5E9000101254048494A6B
:1041700005701168EFF3108072B6D1E8CFCF01253A
:10418000BCF1000FF9D1C1E84C5FBCF1000FF4D1D4
:10419000BFF35F8F0721156850603F4AA2F84810AF
:1041A000116D01311165C5E88F3F80F31088B8F8B3
:1041B00000001AF085FFDAE42B78002B7FF447AE7D
:1041C000002048E69DF86A30002BBED0334AD2E981
:1041D00000321343B9D004F093FE4FF47A720023F7
:1041E00026F09AFA4EF66023A6FB03322B4E376870
:1041F000D6F804C0C01B61EB0C0198429141A4D3D6
:104200000123274AB8F80000157089F8003031B052
:10421000BDE8F04F1AF054BF04F072FE4FF47A720A
:10422000002326F079FA1F4BD3E9002390429941ED
:10423000C2D2002EC0D0012014F0CAFAFEF708FB4B
:10424000297800297FF43BABB4E51BF0CFFDFFF7E5
:10425000BDBB00BFAFF30080000000000000000005
:10426000B03000200E7F0020C14500200D7F0020CF
:10427000117F0020D0300020D8300020C045002021
:10428000F03000201C460020137F0020F830002072
:10429000047F0020C4360020F02800208830002051
:1042A0000C7F0020C8300020994901320A7018465E
:1042B00032218D23974A1BF03DFD002800F08780B6
:1042C000022800F0FC80924B1B78022B00F29080B9
:1042D000914A1AF11903136046F100035360B8F8CC
:1042E0000030FFF745BB01208C498D4A08701368E8
:1042F000EFF3108072B6D3E8CF4F0121002CFAD132
:10430000C3E8441F002CF6D1BFF35F8F40F20525B0
:10431000844B5060196D0024013112681965A3F8AF
:104320004850C2E88F4F80F3108831B0BDE8F04F9D
:10433000FEF71AB83B2219A826F0E2F97A4B04A836
:104340001A78511C197002F00F0219A903F0EEFA45
:1043500004A94E22754826F09BF9019B19781AE6AC
:10436000019A1278032A3FF62BAE009B029A19336A
:1043700013604BF100035360FFF7ACBB4FF0010C2F
:1043800081F800C06649D1F800E0EFF3108C72B6F6
:10439000DEE8CF7F0126002FFAD1CEE8476F002F4D
:1043A000F6D1BFF35F8F0E68C1F804C00521DFF8B6
:1043B00074E18EF84810DEF850108EF84900013193
:1043C000CEF85010C6E88F2F8CF3108804E6B8F8AA
:1043D00000302870FFF7CCBA05200022544B8AF831
:1043E00000001978534B1A70FEF7BAF9FFF772BB49
:1043F0000022B8F800302A70FFF7BABA0120474906
:10440000474B08701A68EFF3108172B6D2E8CF5F9D
:104410000120002DFAD1C2E8450F002DF6D1BFF3DF
:104420005F8F40F20522186859603E4BA3F8482080
:104430001A6D01321A650023C0E88F3F81F310889E
:10444000FDF792FFFFF746BB9AF80030012B23D00F
:10445000029B019AC3E900CE00231370FFF73ABB19
:104460000228CBD039460720FEF77AF9FFF732BB96
:104470009AF80030012B2AD040F2DC53009AD3186E
:104480002D4A4BF10001C2E90031002200230299BC
:10449000C1E90023FFF71EBBDAF804100229D7D8C0
:1044A000685C9042D4D10131032908BF04238AF803
:1044B00000300023CAF804108AF80830C8E7022147
:1044C0000520FDF779FDFDF74FFFFFF74FBADAF84A
:1044D0000430022BD0D8EB5C9342CDD18AF808305F
:1044E00002238AF80030C7E701460520FDF764FD86
:1044F000FDF73AFFFFF7EEBADAF804300133022B8A
:10450000CAF804308CBF042301238AF80030ECE59C
:10451000137F00201D460020F8300020117F00206E
:10452000C4360020F0280020067F0020C04500206F
:104530000D7F00200E7F0020D03000200000000002
:10454000042800D07047002AFCD02DE9F0471178EC
:1045500016463329C4B000F0798721D96029044672
:1045600000F0D88601F12403DBB2132B5BD8DC39D1
:10457000132958D8DFE811F04E02D9010E02570076
:104580005700570057005700570057005700570073
:104590005700570057005700570057005700C501F4
:1045A0000339CAB2132A3ED813293CD8DFE811F0E8
:1045B00070013B002901E2003E003B003B003B0054
:1045C0003B003B003B003B003B003B003B003B0013
:1045D0003B003B003B0014009C4C06222DA9B01C64
:1045E0000DF0C6FFD4E9003213432DAF41F04F80E8
:1045F000974C2368002B01F0A3800023954903E02A
:104600002268934281F09C803846CDE901130DF079
:104610005BFF029B0199013306310028F0D1384637
:104620008D4914F0CFFB44B0BDE8F0878B4CA27AE3
:10463000002AF8D02DA9F01C062201930DF098FF56
:1046400021462DA80DF040FF0028ECD1B1780029BB
:1046500041F06E80019B092B41F26A8006F108024D
:10466000093B12F8010F10B101319942F9D1082923
:1046700041F25E8006F109031F4606F1010C8C44ED
:1046800013F8012B02F1200E5FFA8EFEA2F1410019
:10469000192898BF7246642A41F01E801A7802F1E8
:1046A000200E5FFA8EFEA2F14100192898BF7246D3
:1046B000752A41F011805A7802F1200E5FFA8EFEC1
:1046C000A2F14100192898BF7246612A41F0048086
:1046D0009A7802F1200E5FFA8EFEA2F141001928AD
:1046E00098BF72466C2A40F0F787DA7802F1200E04
:1046F0005FFA8EFEA2F14100192898BF7246732A14
:1047000040F0EA871A7902F1200E5FFA8EFEA2F1DC
:104710004100192898BF7246652A40F0DD875A7912
:1047200002F1200E5FFA8EFEA2F14100192898BF17
:1047300072466E2A40F0D0879A7902F1200E5FFA15
:104740008EFEA2F14100192898BF7246732A40F0EC
:10475000C387DA7902F1200E5FFA8EFEA2F14100E2
:10476000192898BF7246652A40F0B6873B48FEF785
:10477000A7FA58E7B3780321304698460DF0AEFE0D
:104780004FF6FF72364B1B8893423FF44CAF984272
:104790007FF449AFB8F1000F00F08887314B1B78E8
:1047A0003BB1314B5A7A22B930490978002941F09E
:1047B0003982DFF8D8902E4C01212E4AD9F80030EA
:1047C0001170EFF3108272B6D3E8CF0F01210028E9
:1047D000FAD1C3E8401F0028F6D1BFF35F8F042051
:1047E000236DD9F8001001332365C9F80420002394
:1047F00084F8498084F84800C1E88F3F82F310882C
:1048000011E71D4C032130460DF068FE144B228841
:104810001B88002A00F041864FF6FF72934240F059
:104820004786164B98461B782BB1154B1D461B78B7
:10483000002B01F0A98000231A4612481249037088
:104840000A7044B0BDE8F047FDF7DABCC83000207C
:10485000B43D0020843D0020C4AB0210B8360020D7
:10486000EC280020167F002010460020087F002042
:10487000F0280020117F0020D27E0020017F002040
:10488000037F0020177F00200F7F0020C436002008
:10489000B378002B00F01E86534A1278002AD0D03D
:1048A00001245248524904700A68EFF3108072B62E
:1048B000D2E8CFCF0124BCF1000FF9D1C2E84C4FB0
:1048C000BCF1000FF4D1BFF35F8F0424494A486064
:1048D00082F84930136D09680133136582F8484046
:1048E0000023C1E88F3F80F31088FDF73DFD424B68
:1048F000424A1B78117883F00103414A0B40137040
:104900009FE7B278531E0C2B00F21F81DFE813F0F3
:1049100030010A0457021D011D011D011D019A03EA
:104920001D011D0177030703BA02314A1368EFF333
:10493000108172B6D3E8CF4F0120002CFAD1C3E822
:10494000440F002CF6D1BFF35F8F00232D4C294874
:10495000516023701268C370C2E88F3F81F31088E2
:10496000294B1B78002B3FF45EAE1F4B1B78002BAE
:104970007FF459AE254CA37A1BB1E37A002B01F0EA
:1049800021800023C4E90033A36044B0BDE8F047B0
:10499000FDF75EBF022130460DF0A0FD1C4B1B88C9
:1049A00083427FF440AE124B1968EFF3108272B667
:1049B000D1E8CF4F0120002CFAD1C1E8440F002CE0
:1049C000F6D1BFF35F8F01245A600A4996F804C0FC
:1049D000186881F859C0002381F85840C0E88F3F1B
:1049E00082F310881FE600BF0B7F0020117F00209C
:1049F000C4360020F0280020037F0020017F002023
:104A00000F7F0020047F00200A7F0020B83600209E
:104A1000EC280020684B1B78002B3FF404AE674B5A
:104A20001B78002B7FF4FFAD337C002B40F0D88740
:104A3000737E002B00F00C86B07E082840F20886BA
:104A400006F11B04234606F1130C844413F8012BD2
:104A500002F12001C9B2A2F1410EBEF1190F98BFB7
:104A60000A46642A40F073851A7802F12001C9B21F
:104A7000A2F1410EBEF1190F98BF0A46752A40F007
:104A800066855A7802F12001C9B2A2F1410EBEF149
:104A9000190F98BF0A46612A40F059859A7802F1A9
:104AA0002001C9B2A2F1410EBEF1190F98BF0A460A
:104AB0006C2A40F04C85DA7802F12001C9B2A2F1EB
:104AC000410EBEF1190F98BF0A46732A40F03F8588
:104AD0001A7902F12001C9B2A2F1410EBEF1190FFB
:104AE00098BF0A46652A40F032855A7902F12001C2
:104AF000C9B2A2F1410EBEF1190F98BF0A466E2A43
:104B000040F025859A7902F12001C9B2A2F1410E47
:104B1000BEF1190F98BF0A46732A40F01885DA795A
:104B200002F12001C9B2A2F1410EBEF1190F98BFE6
:104B30000A46652A40F00B85B01C06222DA90DF00F
:104B400017FD2DA8FEF7BCF86DE5083A052A3FF6DB
:104B50006AAD01A353F822F0595000102746001007
:104B60002746001013500010334F0010994E0010CC
:104B7000032130460DF0B2FC114B1B8813B1984253
:104B80003FF451AD032130460DF0A8FC737B824603
:104B9000002B7FF448AD2DA90A4C06222D93701DE1
:104BA0008B800F4601930DF0E3FC2268002A01F090
:104BB0008781019B04490DE00A7F00200B7F0020C4
:104BC000D07E0020B43D0020843D00202268934226
:104BD00081F004813846CDE901130DF075FC029B8C
:104BE0000199013306310028F0D101268C4CD4E91B
:104BF0000032134341F020818A4B1B78002E01F0D4
:104C000066813846FDF74AFB04F07AF94FF47A7270
:104C1000002325F081FD0B4602464FF0000C824C2C
:104C20008249C4E9002382480B7880F800C0002B39
:104C300041F040817F48054681460368EFF31082CA
:104C400072B6D3E8CFCF0120BCF1000FF9D1C3E891
:104C50004C0FBCF1000FF4D1BFF35F8F0023764CF3
:104C60000B706A602968E370C1E88F3F82F3108897
:104C7000724A137090462B68EFF3108272B6D3E835
:104C8000CF0F01210028FAD1C3E8401F0028F6D138
:104C9000BFF35F8FE36C6A600133E36416B1636D49
:104CA000013363650023D9F80010C1E88F3F82F318
:104CB00010884FF001079FED587B614A1946C2E901
:104CC0000033C2F807305F4A5F48A2F800A05F4A8D
:104CD00017705F4A13705F4A13705F4B4E2283ED6B
:104CE000007B5E4B83ED007B5D4B83ED007B25F00D
:104CF00007FD9FED497B5B4A002182ED007B5A480E
:104D00008E2225F0FDFC00239FED437B574AD9F806
:104D100000001370564A1370564A82ED007B564AC3
:104D20001370EFF3108172B6D0E8CFCF5FF0010EB1
:104D3000BCF1000FF8D1C0E84CEFBCF1000FF3D18B
:104D4000BFF35F8FD9F80000C9F804102771C0E8DD
:104D50008F3F81F31088012150461AF0CFF80023CD
:104D60000646002841F03D80434A177004F0C8F819
:104D70004FF47A72002325F0CFFC42F21073C01872
:104D80003E4B41F10001D9F8002018605960EFF363
:104D9000108372B6D2E8CF0F01210028FAD1C2E801
:104DA000401F0028F6D1BFF35F8FD9F80020C9F863
:104DB00004302770C2E88F6F83F3108833E4032137
:104DC00030460DF08BFB2E4B1A8812B1904200F04A
:104DD0005882032130460DF081FB1A4B1B8813B11A
:104DE00098427FF420AC2DA8FEF7D6FC134B9846D2
:104DF0001B784BB99DF8B830002B40F0CC879DF85C
:104E0000B430012B00F0C78744B0BDE8F047FDF790
:104E1000ABBA00BFAFF3008000000000000000004C
:104E2000C8300020087F002088300020047F002048
:104E3000037F0020C4360020F0280020117F0020CE
:104E40009C3D0020D27E0020C04500200B7F00202A
:104E50000E7F00200D7F0020B0300020D0300020D9
:104E6000D8300020F03000201C460020127F0020A7
:104E7000137F0020F8300020107F0020A030002099
:104E8000D07E0020032130460DF028FB964B1B8876
:104E900013B198423FF4C7AB96F805C0BCF1000FC0
:104EA00040F05186DFF87892904CD9F80020EFF36B
:104EB000108372B6D2E8CF0F01210028FAD1C2E8E0
:104EC000401F0028F6D1BFF35F8FBCFA8CF0400979
:104ED0000022D9F80010C9F804306071C1E88F2FA2
:104EE00083F31088BCF1000F7FF49DAB804B5A7A9E
:104EF000002A40F03B870122C3F804C083F808C0B1
:104F000083F80AC01A7003F0FBFF4FF47A72002393
:104F100025F002FC774CC4E90001FFF784BB0321B4
:104F200030460DF0DBFA704B1B8813B198423FF40A
:104F30007AAB052130460DF0D1FA00283FF473AB6F
:104F4000F279A12A00F0F2860023012A00F083877B
:104F5000312A7FF468AB4E3398427FF464AB02464B
:104F6000F11D2DA802F062FC2D99002940F0B587B3
:104F7000614B9A79154622B15A7A002A01F0CC8009
:104F80000D465E4CD4E90032134341F03F80DFF818
:104F90009091564CD9F80030EFF3108272B6D3E8F6
:104FA000CF0F01210028FAD1C3E8401F0028F6D115
:104FB000BFF35F8F2D9BC9F804201E46002B00F025
:104FC000D7870025636C013363640024D9F800306F
:104FD000C3E88F4FD9F8043083F31088002D3FF4D5
:104FE00022AB03F08DFF00234FF47A7225F094FB7F
:104FF000434B1C70434BC3E90001FFF714BB032173
:1050000030460DF06BFA384B1B8813B198423FF4D1
:105010000AAB00233C4972790B7022B13B490888E6
:10502000002840F0B68503F06BFF4FF47A7200233E
:1050300025F072FB2F4C193041F10001C4E9000149
:10504000FFF7F1BA032130460DF048FA264B1B88D2
:1050500013B198423FF4E7AA032130460DF03EFA1F
:105060002A4B1B8883427FF4DEAA214B1A78022A3E
:1050700017467FF4D8AA9FED1A7B72792449012A3A
:1050800081ED007B93F8088040F03387597A00293E
:1050900000F064871F4D30460621CDE901230DF055
:1050A0001DFADDE9012317461B4A17700022197803
:1050B000022940F03887197A414541F001800020EB
:1050C000597A1872002900F0FE87062228701A709B
:1050D00000200021114BC3E90001FFF7A4BA00BF73
:1050E0000000000000000000D07E0020F02800201A
:1050F0009C3D0020B030002010460020C830002029
:10510000037F002088300020107F0020D27E002006
:10511000D03000200E7F00200D7F0020D8300020EE
:10512000C4360020032130460DF0D8F9604B717968
:105130001A880D4612B1904200F0A080002D40F078
:10514000B18403F0DDFE4FF47A72002325F0E4FA17
:10515000584C594BC4E90001032130461D700DF035
:10516000BDF90622554B2DA91880B0182D95ADF824
:10517000B8500DF0FDF92DA8FDF790F803F0C0FE32
:105180004FF47A72002325F0C7FA42F210734C4EA6
:10519000C0184C4C4C4A41F10001B146C4E9000131
:1051A00033681570EFF3108272B6D3E8CF0F012188
:1051B0000028FAD1C3E8401F0028F6D1BFF35F8F63
:1051C0004249434CD1E900310B437260257140F0F4
:1051D000D0852B4600214FF00107A370A4F80510DD
:1051E0002770D9F800300C46C3E88F1F82F310886F
:1051F000FCF712FF9FED2C7B4FF00006354B364A33
:10520000C3E90044C3F80740344B82ED007B83EDD3
:10521000007B334B214683ED007B324B4E221E70C8
:10522000314B32481E7025F06BFA9FED1F7B304BDF
:1052300021468E222F4883ED007B25F061FA9FEDF9
:105240001A7B2D4B2D4C2E4D04A884ED007B1E7037
:105250002E7002F0FDFB8E2204A9264825F018FAD4
:10526000254B2F701E7003F04BFE4FF47A72002313
:1052700025F052FAC4E90001FFF7D5B9002900F082
:10528000B6840022002000211A801E4B1E4CC3E968
:1052900000011E4D1E4B2A702270C3E90001FFF76A
:1052A000C2B900BFAFF300800000000000000000A2
:1052B000D07E002088300020037F0020D27E002096
:1052C000C4360020A03000200B7F0020C830002012
:1052D000F02800209C3D0020B0300020D03000207D
:1052E000D83000200E7F00200D7F0020C045002018
:1052F000F03000201C460020137F0020F8300020F2
:10530000127F0020E0300020147F0020157F002055
:10531000E83000209178022900F0288200297FF4EB
:1053200082A99FED917B924A924B1170924A19701B
:105330001170924A924B1170924A83ED007B11805A
:10534000914A01911170FCF75BFF9FED877B0199FA
:105350008E4B8F4A19605960C3F807108D4B11802E
:1053600083ED007B8C4B8D4A19708D4B82ED007B59
:1053700019708C4B8C4819708C4B8D4A83ED007BD7
:105380008C4B82ED007B83ED007B8B4B017083EDBA
:10539000007B8A4B4E228A4883ED007B25F0B0F9D2
:1053A0009FED717B874B8E220199874883ED007BAF
:1053B00025F0A6F99FED6C7B0199844A8448117011
:1053C000844B854A017082ED007B84489A79017094
:1053D0007AB1DA796AB91A7A5AB95A7A4AB993E833
:1053E00003002D902DA80193ADF8B8100EF086FCA7
:1053F000019B00247A4AC3E900441C811470FCF725
:105400000BFE784B784AC3E9004410689C60EFF3C8
:10541000108172B6D0E8CFCF0123BCF1000FF9D1D3
:10542000C0E84C3FBCF1000FF4D1BFF35F8F6F4B6E
:1054300010685160C3F80140A3F805401C811C703E
:10544000C0E88F4F81F31088FFF7EDB84C4C06226F
:105450002DA9B01C0DF08CF8D4E9003213432DAF08
:105460002BD1634C2368002B00F06F81002361492E
:1054700003E02268934280F068813846CDE9011349
:105480000DF022F8029B0199013306310028F0D17A
:10549000384613F0DDFCFFF7C6B84FF6FF729342B3
:1054A00006D1364B1B78002B3FF4BDA8FFF7B9B9E6
:1054B00098427FF4B8A8FFF7B4B903F021FD4FF488
:1054C0007A72002325F028F9D4E90023904299410B
:1054D000DED3C6E70321304601930CF0FFFF731DB6
:1054E00006461846019B2DA92D9306228B800D465A
:1054F0000F460DF03DF84FF0010C3F4A3F49404840
:105500003B4C80F800C00E80D5E90001106091800E
:105510002268019B002A00F03582364903E02268A8
:10552000934280F02F823846CDE901130CF0CCFF76
:10553000029B0199013306310028F0D10122314B41
:10554000314631481A700FF0D7FAFFF76CB89C4516
:105550007FF47CAA12287BD906F12D0E25182B4842
:10556000AEF1130457E000BF00000000000000008F
:10557000017F0020047F00200A7F00200B7F002095
:10558000C8300020D27E0020177F00209C3D0020E4
:10559000D07E0020D03000200E7F0020B0300020D0
:1055A0000D7F0020157F0020147F0020E0300020B8
:1055B000D8300020E8300020A0300020B830002093
:1055C000C0450020F03000201C460020127F002043
:1055D000137F002010460020F8300020107F0020AC
:1055E0000F7F0020B8360020C4360020F0280020AD
:1055F000B43D0020843D0020CC360020EC28002063
:10560000087F0020167F0020F8A30610CCAB021004
:10561000A6453FF491AA14F8013F027803F1200156
:10562000A3F1410CC9B2BCF1190F98BF0B4602F1AE
:105630002001A2F1410CC9B2BCF1190F98BF0A4672
:105640009A4200F10100E3D00EF1010E754586D1BA
:10565000404CA37A002B7EF4E6AF092130460CF0D3
:1056600043FF00F4F853B3F5A06F7EF4DCAF0622DD
:105670002146B01C0CF07CFF337A0C213046A3711C
:105680000CF02CFF012320816381FEF7CCBF03F0D7
:1056900037FC4FF47A72002325F03EF8D4E900235A
:1056A00090429941FEF4BBAFFEF7A2BF2A4A12789E
:1056B000002A3EF4B8AF4FF00104284A28489179F7
:1056C0000470002940F0168201221946254844B092
:1056D000BDE8F0470FF010BA9C457EF4D1AF122917
:1056E00026D906F11B057E181F4AA5F1130C02E00E
:1056F000AC453FF43BA81CF8013F117803F12000B2
:10570000A3F1410EC0B2BEF1190F98BF034601F1DB
:105710002000A1F1410EC0B2BEF1190F98BF0146A1
:10572000994202F10102E3D06B1C9E421D46DBD17F
:105730000023C4E90033A360FDF78AF8FEF773BFC6
:10574000384613F06BFBFEF76EBF384613F09AFB3A
:10575000FEF769BFB8360020087F00201046002001
:10576000097F0020F0A30610CCAB02104FF0000020
:10577000A74A9FEDA57B107000224FF00106A54BB4
:10578000A5491A605A60C3F80720A44B054683ED6B
:10579000007BA34B0E701870A24B884683ED007BF4
:1057A000A14B4E2283ED007BA04B002183ED007BBB
:1057B0009F4B83ED007B9F4B83ED007B9E4B1870CE
:1057C0009E4B18709E4824F09BFF9FED8F7B9D4B56
:1057D0008E2200219C4883ED007B24F091FF9FEDF9
:1057E0008A7B9A4B1D709A4B1D709A4B83ED007B00
:1057F000994B1D70994B1D70994B1D70FCF700FD66
:1058000003F07EFB4FF47A72002324F085FF002220
:10581000944B9FED7D7BC3E90001934B1046C3E998
:1058200000221A8100221221904BC3E900229A60C3
:105830008F4B18808F4B08461D708F4B1D708F4B00
:1058400083ED007B8E4B83ED007B13F087FB012003
:1058500013F094FB012012F0F5FF01200FF024F962
:1058600001200FF041F9012013F07AF820460FF0E3
:105870002BF9844B00201E7012F0AAFF824813F00F
:10588000BBF942F2085012F079FE052012F084FEB6
:10589000002013F011FB03200FF00EF900200FF091
:1058A0001BF97A4B1968EFF3108272B6D1E8CFCFAB
:1058B0000120BCF1000FF9D1C1E84C0FBCF1000F81
:1058C000F4D1BFF35F8F012019685A60704BC3F8A1
:1058D00001001C700023C1E88F3F82F310886D4ADD
:1058E0006D4C2AA81D46C2E90033C2E90233C2E961
:1058F000043323602A930EF03BFA00282FD04FF098
:105900000003CDE92E552D952B95ADF8A630ADF8B9
:10591000B03030952DAF2368032B1DD83A460DF1DA
:10592000A6032BA92AA80EF02FFAA8B123687BB1F1
:10593000002358492BA8CDE901130CF0C5FD029BAB
:105940000199013306310028E5D022689342F1D352
:105950002BA8FCF717FCDEE72AA80EF029FA23682B
:10596000002B7EF460AE4D4B1B78002B3EF45BAEFB
:1059700098F80030002B3EF456AE44B0BDE8F04736
:10598000FDF70EB80022DAE51221084613F0E6FA18
:10599000012013F0F3FA012012F054FF012012F05D
:1059A00017FF238898F800204BB10123002A3EF40A
:1059B00042AF297800293EF440AFFEF73CBF384B98
:1059C0001B78F3E7012322892046A17942F40042A3
:1059D000E37213F0D5F900283EF425AEFEF7D1BFEF
:1059E000132130460CF07AFD1521044630460CF0A8
:1059F00075FD0146204601F04DFD00283FF418A832
:105A0000FFF79AB8AFF3008000000000000000002C
:105A1000047F00209C3D0020017F0020C830002032
:105A20000A7F0020A0300020B8300020B0300020D5
:105A3000D0300020D83000200E7F00200D7F0020C5
:105A4000C0450020F03000201C460020127F0020BE
:105A5000137F0020F8300020107F0020037F0020FB
:105A6000177F00208830002010460020B836002024
:105A7000D07E0020147F0020157F0020E030002021
:105A8000E83000200F7F0020B0AB0210C4360020A9
:105A9000F0280020843D0020B43D0020027F00203B
:105AA0000B7F00200120A549A54A08701368EFF379
:105AB000108172B6D3E8CFCF0120BCF1000FF9D12D
:105AC000C3E84C0FBCF1000FF4D1BFF35F8F4FF070
:105AD000040C9C4B106851601A6D83F849500132D8
