:020000041000EA
:10000000002008205B0100101B0100101D010010E2
:100010001101001011010010110100101101001058
:100020001901001019010010190100101F01001022
:10003000110100101901001021010010230100100E
:100040001101001011010010110100101101001028
:100050001101001011010010110100101101001018
:100060001101001011010010110100101101001008
:1000700011010010110100101101001011010010F8
:1000800011010010110100101101001011010010E8
:1000900011010010110100101101001011010010D8
:1000A00011010010110100101101001011010010C8
:1000B00011010010110100101101001011010010B8
:1000C00011010010110100101101001011010010A8
:1000D0001101001011010010110100101101001098
:1000E0001101001011010010110100101101001088
:1000F0001101001011010010110100101101001078
:100100001101001011010010110100101101001067
:10011000EFF30580103800BE00BE00BE00BE00BE7A
:1001200000BE00BEF2EB887118B8061038B8061091
:100130009C01001090A31AE7D3DEFFFF42012110BB
:10014000FF01000040E60600793512AB00201E4991
:10015000086006C881F3088810474FF050400068D7
:1001600008B10020F3E70DA40ECC002902D000F066
:1001700012F8F9E71549164A002000E001C1914242
:10018000FCD114498847144988471449884700BE60
:10019000FDE701C901C29A42FBD3704738B8061087
:1001A000200100206030002078E7061000000820C1
:1001B0000000082078E70610001008200010082032
:1001C000000000007047000008ED00E060300020F3
:1001D000307F002089B200100D17001081B200108E
:1001E000704700BF00B5042183B0019009F066FCA0
:1001F000019803B000BD00BF10B504464FF4805114
:1002000000682AF0C5FBD4E90001BDE810404FF4B6
:1002100080722AF09DBB00BF70B50D460646C2B085
:1002200002AC4FF48072FF2120462AF0F5FBD5E99D
:1002300000122046521A2AF0B7FB06F2FB331B03CA
:100240004FF47A72694605480093019409F06AF9FF
:10025000B0FA80F0400942B070BD00BFF901001053
:100260000129084604D8D2E900135B1A402B01D0BB
:10027000002070471146FFF7CFBF00BF10B51948E7
:10028000194C01F091FE174802F0E8FEA07C01F045
:1002900041FD207D01F04AFD144A237F1178003B87
:1002A00018BF0123FF29E07E05D0884216D04FF009
:1002B000000444EC44100E4CFF28107023700CD046
:1002C00007F012FF094A4FF00101137841EC443066
:1002D000FF2B02D0227842EC403010BD044C10704D
:1002E0002370EDE7203600201C36002098280020DF
:1002F000FB7E002070B58AB00C4642F00102ADF8DA
:100300001600D3E9001000238DF815200122CDE955
:1003100006331F4D8DF818401E4C8DF81420421ADC
:10032000CDE908339DF8386023702B7021D105A9E1
:1003300002A8089206F0CCF802A90EC9521A402A67
:1003400008D089B9079818B10999091A09F0B6FBBC
:100350000AB070BD1048CDE900132AF015FBDDE9A5
:10036000001301222E7022700846591A09F0A6FBCC
:10037000E8E710460191009209F09CFBDDE90021BD
:100380002AF012FB009A079002440992CFE700BFBF
:10039000FD7E0020F57E0020983300200000000044
:1003A0002DE9F041804686B0104616460F4629F0EA
:1003B000D9FD0446E8B1302828BF3024204609F092
:1003C00079FB3146224606190546029004962AF02A
:1003D000EBFA0023394640460093022202AB039613
:1003E000FFF788FF2146284606B0BDE8F04109F036
:1003F00065BB9FED077B394640460222009402AB65
:100400008DED027B0494FFF775FF06B0BDE8F08127
:1004100000000000000000002DE9F04FD1E900537A
:100420008B46DBF808909D42A9EB050383B018BF0B
:100430004D603F2BDFF8448174D8DBF80060AC1BC3
:1004400004F1004340333F2B40F29080402C2CBFFE
:10045000271904F140076FF000439F4228BF1F4651
:10046000384609F027FBAE4282467DD0621E052A3F
:1004700033466FD9811B0139022902466AD924F01B
:10048000030C4FEA940E06EB0C0053F8041B834256
:1004900042F8041BF9D1644510D01A4612F8011B2A
:1004A000D44495420AF82E1008D05A788CF80120CE
:1004B0009A1C95421CBF9B788CF80230544423460A
:1004C000C6469C4608F14004019375460CF1100C99
:1004D0000FCDA5420EF1100E4CF8100C4CF80C1C70
:1004E0004CF8082C4CF8043CEFD1019B03F140057B
:1004F00026B13046A9EB060109F0E0FACBE900A5E8
:100500005744CBF808701B4B984503D1012003B02A
:10051000BDE8F08FDBF80890DFF85880A9EB050301
:100520003F2B8AD9464608F14007344610350FCC98
:10053000BC4206F1100645F8100C45F80C1C45F8B5
:10054000082C45F8043CF0D1DBF804504035CBF8DA
:100550000450D8E753465444721E12F8011F03F8A2
:10056000011B9C42F9D1AAE70346A9E702481FF004
:10057000EDFD00BF00C03F1078AA021000B03F1090
:100580002DE9F0470446B8B0402009F093FA23461D
:10059000024600F1400425460894069003F1400409
:1005A0001968D3F804E0D3F808C0D8681033A34220
:1005B0001160C2F804E0C2F808C0D06002F1100275
:1005C000EED106A90CA8079506F068F80C9BBDF8BB
:1005D00036409DF83810BBB94B1E112B00F27487C2
:1005E000DFE813F03000480063008C001401BE0106
:1005F000FF0120022D031E03DE03A303B4038503C2
:100600009403CC03EF0425002046744AFFF7C8FE8C
:100610000F9818B11199091A09F050FA069818B1F3
:100620000899091A09F04AFA38B0BDE8F087DDE9FF
:100630000F239A4200F0588512212046684AFFF79E
:10064000AFFEE5E7042009F035FA00220546654BC8
:1006500005F1040C18680121286021AB20460092A6
:10066000CDE922CC2195FFF745FE0421284609F06B
:1006700025FACDE70C2009F01DFA5B4B054607CBA8
:10068000002328606960AA6020461A4605F10C0C18
:100690000093022121ABCDE922CC2195FFF72AFE60
:1006A0000C21284609F00AFAB2E7504921A806F0C1
:1006B00093FA182009F0FEF94FF0000E05460DF1EF
:1006C000840C00F11803CDE91A331990BCE80F002F
:1006D00028606960AA60BCE80300EB60286169617A
:1006E00020469DF838107246CDF800E019ABFFF7B0
:1006F00001FE1821284609F0E1F989E7DFF808E151
:100700000DF1480CBEE80F00ACE80F009EE80700B2
:100710008CE8070012AA0FA919A806F0A9FA9DF8FB
:100720006430002B00F0D785314912AA21A806F0C9
:1007300091FD9DF88430002B00F070862D4D2E4EDB
:100740002B68029308F03CFD029B4FF47A7203EB96
:1007500043031F0106EB0313029300232AF02CF935
:1007600014227B1DF0519819029E0021327128221B
:100770002AF052F9214932792AF016F9204800224C
:100780000168204B01310C2928BF0C210160296828
:1007900020460131A3FB0143DB0803EB4303A1EB3C
:1007A0008301009209AB29609DF83810CDE9092238
:1007B0000B92FFF79FFD229824AB984203D0249917
:1007C000013109F07BF91A981CAB98423FF420AF35
:1007D0001C99013109F072F91AE700BF90AA0210C2
:1007E00074AC021060F6021054F60210203600209D
:1007F0001C36002094330020DC330020A0AA021015
:10080000D8330020ABAAAAAA7CF60210DFF810E2C7
:100810000DF1840CBEE80F00ACE80F009EE8070065
:100820008CE80700AEF1140006F038FD002800F057
:100830006685FFF723FD01216F4D704A2B6811700B
:10084000029308F0BDFC029B6D4E03EB43031F01B6
:1008500006EB03134FF47A72029300232AF0ACF8EC
:1008600017227B1DF0519819029E00213271282217
:100870002AF0D2F8634932792AF096F86249634B3C
:100880000A6801320C2A28BF0C220A602A68013249
:10089000A3FB0213DB089DF8921003EB4303A2EBCA
:1008A00083035B4A0129927C2B6000F0B285012A08
:1008B00006D0574A9DF89410127D914200F0F885B9
:1008C000029308F07DFC029B4D4D03EB430305EBC7
:1008D00003171E014FF47A7200232AF06DF82822C4
:1008E000731DA851002158193A712AF095F8494909
:1008F0003A792AF059F84FF0010C43483E4D01680F
:100900002A6861440C2928BF0C21404B62440160D5
:10091000A3FB0213DB0803EB4303A2EB83022A6071
:1009200001239DF83810022002918DF849C08DF8FE
:10093000483009F0BFF80022054600F1020C2046BD
:10094000BDF8484002992C8019AB0092CDE91ACC31
:100950001995FFF7CFFC0221284609F0AFF857E6BA
:10096000254D2B4806F0AEFD2B68254E029308F06E
:1009700027FC029B4FF47A7203EB43031F0106EB43
:100980000313029300232AF017F81A227B1DF0515B
:100990009819029E0021327128222AF03DF83279FE
:1009A0001D492AF001F8184800220168174B01314F
:1009B0000C2928BF0C210160296820460131A3FBC6
:1009C0000143DB0803EB4303A1EB8301009221AB5E
:1009D00029609DF83810CDE921222392FFF78AFC87
:1009E00016E6DDE90F239A4200F03E8307212046F8
:1009F0000A4AFFF7D5FC0BE694330020F77E00206F
:100A0000DC330020D4AA0210D8330020ABAAAAAA53
:100A10001C360020ECAA021020AB0210C8AC021059
:100A20002036002021A802F007FF19A801F0BEFA25
:100A3000CC4B1D780BF090FA9DF884209DF888101F
:100A4000A2F10302B2FA82F29DF887300291BDF85A
:100A50008910804652090A209DF885609DF88670AD
:100A600005920393049109F025F8039A0346427115
:100A7000059A0299C271042281710499457080F827
:100A80000280C670077119811A701420319D02937B
:100A900009F010F80246029B857218680A2110605E
:100AA000586802925060188926461081184609F04D
:100AB00005F8029A9DF864102B0A91749DF88D1028
:100AC000D372D174329B290C1173290E5173190AF8
:100AD0009373D173190C1B0E1174537428201B9D32
:100AE00008F0E8FF0346029A0575106814211860A3
:100AF00050680293586090689860D068D860106918
:100B00001861104608F0DAFF0022029B9DF8CCC065
:100B10009A7783F81CC09DF8CDC0DA7783F81DC0A2
:100B20001C9A4FEA154C290A83F816C04FEA156C37
:100B3000597583F817C034994FEA122C1A7683F846
:100B400019C04FEA124C120EDDF8D4E0DA760A0A28
:100B500083F821200A0C83F822204FEA1E2283F812
:100B600025204FEA1E4283F8201083F82620090E24
:100B70004FEA1E6283F8231083F8272083F824E0CD
:100B800083F81AC05020369D08F094FF029B01465E
:100B900007461A46984680F8285003F12004136847
:100BA0005068D2F808E0D2F80CC01032A2420B60B4
:100BB0004860C1F808E0C1F80CC001F11001EED1A5
:100BC000D2F800C053684046C1F800C04B602821ED
:100BD00008F074FF002208219DF8DC40FA6287F8D3
:100BE0002C409DF8DD4025FA01F387F82D402C0CB0
:100BF00087F82A402C0E87F82B4007F1300487F83D
:100C000029303046229421AB009207F150042197FD
:100C10002394FFF76FFB5021384608F04FFFF7E4AD
:100C2000DDE90F239B1A042B03D11378522B00F01C
:100C300087830A2120464C4AFFF7B2FBE8E4DDE94E
:100C40000F32D11A012900F362839A420CBF0023AC
:100C50001B7803201E46029308F02CFF4FF000057E
:100C6000024601214148029B00685370B042117056
:100C7000957000F2A8820620029208F01BFF03463E
:100C8000029A03211088DD70188090780293987082
:100C9000104608F013FF4FF00002029B0C209A80D0
:100CA00008F008FF4FF000060546029BAE711A6877
:100CB00080462A6018469B880621AB8008F0FEFE1D
:100CC00005F10C09EE7105F108030022CDE912834C
:100CD0002046092112AB0092CDF85090FFF70AFB95
:100CE000A9EB08073946404608F0E8FE90E4DDE944
:100CF0000F031B1A052B03D10378012B00F09683F9
:100D00000E2120461A4AFFF74BFB81E4DDE90F0371
:100D10001B1A052B03D10378012B00F098830F21B8
:100D20002046144AFFF73CFB72E402F00FFA9DF8EC
:100D30003810002800F0D7820022204621AB009214
:100D4000CDE921222392FFF7D5FA61E4DDE90F23F3
:100D50009A4200F04D810D212046074AFFF720FB03
:100D600056E400BFF77E002024AD0210D8330020E7
:100D70005CAB02109CAB02103CAB0210DDE90F2310
:100D80009B1A022B06D11378012B03D1507801282E
:100D900040F27D8310212046B14AFFF701FB37E482
:100DA00021A802F049FD302008F084FE2F2200F136
:100DB0003003054600211990804601301B930293B1
:100DC00029F02AFE02219DF88420029B032A1A930F
:100DD000297000F08E8204204FF0060C0A46002392
:100DE0009DF8891019B16046134688F801209DF8D6
:100DF0008A2012B1034688F801009DF8851019B1C8
:100E000043F0080388F801309DF8861019B143F0CB
:100E1000100388F801309DF8871019B143F02003C2
:100E200088F801309DF8881019B143F0400388F824
:100E300001309DF88B1019B163F07F0388F8013001
:100E4000002A00F0CE80DDE92523BDF89C10C8F80B
:100E50000220C8F80630BDF8BC209DF8BE30A8F8C6
:100E60000A10A8F81020002B00F05882012203215C
:100E7000134688F812209DF8BF2012B10B4688F85F
:100E800012109DF8C0201AB143F0040388F8123004
:100E90009DF8C1201AB143F0080388F812309DF87C
:100EA000B0201AB143F0100388F812309DF8B62034
:100EB0001AB143F0200388F812302046002422465D
:100EC000A646A44623462146BDF9A250BDF9A0601E
:100ED0000295BDF9AA50BDF9A6700395BDF8B450AE
:100EE00004959DF89E5065F3070466F30F24C6F33E
:100EF000072666F31744029E66F31F64C8F8134082
:100F0000C6F3072464F30702BDF9A4402B9E64F3E3
:100F10000F22C4F3072464F3174267F31F62C8F873
:100F20001720C7F3072262F3070EBDF9A820BDF80A
:100F3000B24062F30F2EC2F3072262F3174E039AF8
:100F400062F31F6EC8F81BE04FEA166E6EF3070CD3
:100F5000C2F3072264F30F2C240A62F3070364F33D
:100F6000174C2B9A049C62F30F2364F31F6CBDF89B
:100F7000B820240A64F3070162F30F21120A62F316
:100F80001741BDF8BA20C8F823C062F31F61120AE6
:100F900088F82B20320A62F31743320C62F31F6386
:100FA000C8F81F300023C8F827101A4600930B21F9
:100FB00019ABFFF79FF93021404608F07FFDFFF79E
:100FC00027BBDDE90F031B1A302B03D10378012B5C
:100FD00000F04E8211212046224AFFF7E1F9FFF787
:100FE00017BB0B212046009219ABFFF783F9E2E70C
:100FF00021A802F021FC9DF894200820029208F01C
:1010000059FD029A0546A2F1310200210120B2FAEF
:1010100082F205F10803CDE91A339DF88A30C5F84C
:1010200001105209696019952870002B40F0E98180
:10103000AA70002240F6B83C9DF88C10204643EA86
:1010400041132B71A5F806C00D2119AB0092FFF7D3
:1010500051F90821284608F031FDFFF7D9BA00BF41
:10106000DCAB021024AC0210AD4DAE4E2B680293E7
:1010700008F0A6F8029B4FF47A7203EB43031F01BA
:1010800006EB03130293002329F096FC26227B1D16
:10109000F0519819029E00213271282229F0BCFCDF
:1010A0003279A14929F080FCA048A14B01680022B7
:1010B00001310C2928BF0C2101602968204601312B
:1010C000A3FB01430124DB0803EB4303A1EB8301F2
:1010D000296021AB9DF838100094CDE9212223929C
:1010E000FFF708F9FFF794BA19A800F05FFF21A8ED
:1010F00002F0A2FB01238DF848309DF88D309DF859
:1011000064208DF84A309DF88C3004208DF84B30E7
:101110008DF8492008F0CEFC054612991B9A2960EB
:1011200008200391029208F0C5FC03460399029A35
:10113000016028461A710421CDE9023208F0BEFC94
:101140001020039A029B110A597122FA00F1120E23
:10115000DA711C9A99710393029208F0ABFC054670
:10116000039B029A08210272186828605868686018
:10117000184608F0A3FC4FF0000E029A2046249C6B
:101180004FEA124C85F80AC0130A4FEA126C220A81
:101190002C736A73220C240E6B72AA73EC7385F89D
:1011A0000BC01221724619ABCDF800E005F1100416
:1011B000CDE91A441995FFF79DF81021284608F04B
:1011C0007DFCFFF725BA564B91701968584B0B31CF
:1011D000A3FB01EC4FEADC0C0CEB4C0CA1EB8C01FB
:1011E0000C31891BA3FB01C3DB0803EB4303A1EB19
:1011F00083034C4F03EB4303049206201A0107EBD1
:101200000313BD58CDE9022308F054FC0346049AA9
:10121000C570108803211880907804939870104648
:1012200008F04CFC049B2A0A1A712A0C5A710C20F3
:1012300008F040FC2A0E0546049B82711A6882461B
:1012400002609A8806218280184608F037FC039BCA
:1012500005F10C091A7905F10803EA71002A00F07A
:1012600025810299042A01F10501394440F22481C3
:10127000082A104638BF08206FF00043029200F1A0
:1012800008029A4228BF1A4610461746039108F0F2
:1012900011FCDAF8003005460360DAF804300399EF
:1012A000029A43608046083029F07EFB029A0C21A6
:1012B00083185046029308F001FC00231A4600935D
:1012C000029B09211393EB191493204612AB12953C
:1012D000FFF710F806E520461A9A9DF83810FFF738
:1012E0005FF8FFF770BA2046124AFFF759F8FFF788
:1012F0008FB9012305204FF0070C6B7070E5204675
:101300000D4A9DF83810FFF74BF8FFF781B9092116
:1013100020460A4AFFF744F8FFF77AB90221AAE506
:1013200094330020DC330020E8AC0210D8330020D6
:10133000ABAAAAAA94AC0210B8AA0210ACAC0210D4
:1013400053780132432B7FF474AC12F8013F562BD3
:101350007FF46FAC5378312B7FF46BAC5D4D2B6811
:10136000029307F02DFF029B5B4A03EB43031F012F
:1013700002EB0313164602934FF47A72002329F00E
:101380001BFB12227B1DF0519819029E0021327125
:10139000282229F041FB3279504929F005FB01212F
:1013A0004F48504B02680A440C2A28BF0C220260A6
:1013B0002A680A44A3FB0203DB0803EB4303A2EB06
:1013C0008302494B2A60197007F0FAFE4FF47A72D3
:1013D000002329F0F1FA10F1FA0320464FF000043F
:1013E000424A41F100010094C2E9003122469DF8D1
:1013F000381021ABCDE921442394FEF77BFFFFF7A2
:1014000007B99DF8BE306870E870AA7043F0DE033B
:101410000FE6012A7FF454AAFFF74BBA2046229A1E
:101420009DF83810FEF7BCFFFFF7C5B98178B0F81A
:101430000320407801F098FE9DF8381000287FF4D2
:101440007BAC20462A4AFEF7ABFFFFF7E1B8817874
:101450000379C278407801F0F9FE9DF83810002831
:101460007FF46AAC2046234AFEF79AFFFFF7D0B814
:101470002F21013002F07CF99DF8381000287FF40C
:101480005BAC20461C4AFEF78BFFFFF7C1B800F0AB
:10149000010002F02BF89DF8381000287FF44CACC6
:1014A0002046164AFEF77CFFFFF7B2B8A8460CE4C8
:1014B0004FF0000CFFF734BA1846029229F074FA84
:1014C000029AA846831800E420460D4AFEF768FFFA
:1014D000FFF79EB894330020DC33002010AD0210DB
:1014E000D8330020ABAAAAAAF67E002070300020D4
:1014F00078AB0210B8AB02104CAC0210FCAB02107F
:101500004CAD0210F0B583B0BDF820E0002870D1DA
:10151000002B6ED0012A6FD0032A68D1712940F0C8
:1015200092804E4A1278002A00F09580BEF13F0F5B
:101530005DD99C464A4CA6460CF1100CBEE80F0043
:101540004CF8043C474B10349E454CF8100C4CF8BA
:101550000C1C4CF8082CEED14FF00001424B1A78CD
:101560001970002A42D0414C414D2368019307F085
:1015700027FE019B4FF47A7203EB43031E0105EB38
:101580000317002329F018FA1722731D0021A85110
:101590003A715819282229F03FFA36493A7929F048
:1015A00003FA4FF0010C3448344B026802EB0C0193
:1015B0000C2928BF0C21324A016082F800C0226841
:1015C0006244A3FB02C3DB0803EB4303A2EB8302E9
:1015D000226007F0F5FD00234FF47A7229F0ECF950
:1015E000284BFA3041F10001C3E90001402003B06B
:1015F000F0BD002003B0F0BD0129F8D1BEF13E0FCF
:10160000F5D9214A02F130011468D2F804E0D2F889
:1016100008C0D06810328A421C60C3F804E0C3F8E6
:1016200008C0D86003F11003EED150689168D2F879
:1016300000C05860C3F800C099609189927B3F2038
:1016400099819A73D3E772460846194600F074FBF5
:1016500080B203B0F0BD1046C9E700BFF57E0020A0
:1016600098330020D8330020FD7E002094330020E2
:10167000DC3300207CAD0210D8330020ABAAAAAA2C
:10168000F97E0020803000206536002010B58CB037
:10169000BDF838E020B9022A9C4612D0032A01D0B6
:1016A0000CB010BD7029FBD143B3BEF1410F1FD068
:1016B000BEF1400F14D160460CB0BDE81040FEF7FB
:1016C0005FBF73466246684606F056F89DF80030E4
:1016D000002BE5D02F210DF1010002F049F8DFE7E2
:1016E00001210020074A0CB0BDE81040FEF758BEAB
:1016F0001B78702BF4D10CF1010CDCE70121024ABC
:10170000F1E700BFA8AD021094AD02102DE98048AA
:10171000B9B00BF0A7FD00F043FC9A4805F0C2FCFD
:10172000994C2070FEF7AAFD2378002B00F027814A
:10173000964F974EDFF89882346807F041FD4FF4DA
:101740007A72002329F038F9142204EB44042501AD
:101750006B1D08EB041448F80500227103EB080028
:10176000282200218B4D29F057F92279394629F09A
:101770001BF9296830684C1C0C2C28BF0C24864BA4
:1017800001302C60A3FB0043DB0803EB4303A0EB19
:1017900083032C22002122A8336029F03DF9802107
:1017A0000822FF237D4C7E48246821908DF8881004
:1017B00004A821A927948DF88B208DF8AC3006F071
:1017C00045F8784E04AC3546E36820686168A26845
:1017D00010340FC514AB9C4206F11006F3D101245E
:1017E000714BDFF8F0911C700BF05EFD18B989F8B1
:1017F000004001F005FC4AF60123002014A9ADF8D1
:1018000050300BF0CBFBDFF87CB1DFF8CCA100212E
:101810004FF0FF300AF058FC99F800300BB10BF094
:1018200039FD00F0BFFB02F06BF821A802F004F8CC
:101830009DF8864024B99DF887400CB99DF88840F2
:1018400007F0BEFC9DF884309BF81360032B99F8D9
:10185000005000F03881002E40F03A81002C00F05A
:10186000C0810023514A29F0A7F8C30740F19A81AB
:10187000002D40F0318128460BF0F6FC4C4B1B78D4
:10188000FF2B04D04B4A1278544044EC403021A83E
:1018900001F0D2FF07F094FCCDE900019DF88A1019
:1018A000002940F09B80444F3B78002B40F09E8104
:1018B0003D4B1B787BBB414AD2E9003253EA020020
:1018C00040F076812C22002116A829F0A5F880236B
:1018D0008DF85830324B04A8159308238DF85B30EF
:1018E000FF238DF87C302D4B15A91B682D4E1B93C3
:1018F00005F0ACFF04AC3546E36820686168A26877
:1019000010340FC514AB9C4206F11006F3D14FF012
:101910000102254B1A709BF81030002B00F0C0809C
:10192000012B00F0E0800AF017FB002840F0ED806A
:1019300007F046FC00234FF47A7229F03DF8204B63
:101940001B7833B1DAE90023904271EB030380F096
:10195000CC811C4B1A78002A3FF459AF1A4AD2E9BD
:101960000042A0429141FFF452AF00221A700AF0E7
:1019700021FB322007F0F8FA0AF026FB47E7134F65
:10198000D7E600BF1C360020F77E0020DCAD021039
:1019900094330020D8330020ABAAAAAAAC3600208A
:1019A0000180808064360020FA7E002090D0030001
:1019B00098280020FB7E0020F87E00207830002050
:1019C000F67E0020F97E002080300020C4AD021099
:1019D000DC330020F47E002070300020DFF8D88255
:1019E000319AD8F800309A4200F0A780DFF8CCE2B4
:1019F000A74F9EF800203B7815AC25AD02920393CB
:101A00000FCD0FC40FCD0FC495E80F0084E80F0071
:101A1000029ADDF8ACC0002A40F015814FF00103B6
:101A20008EF800309B4B1A609B4B15A904A8CDF88B
:101A30006CC0C3F800C005F009FF984E04AC3546F1
:101A4000E36820686168A26810340FC514AB9C423B
:101A500006F11006F3D10AF087FA914D04462B786F
:101A6000002B40F0FF804FF001038E4C2B7025AD12
:101A70000FCD0FC40FCD0FC495E80F0007C424F895
:101A8000023B1B0C23704FF00102874B3A701A7017
:101A9000319BC8F800309BF81030002B7FF440AF2A
:101AA000824A4FF47A61D2E9003253EA020022D02E
:101AB0000098C31A019860EB02028B4272F1000297
:101AC000FFF436AF17E0002E6CD02DB93446D2E6C5
:101AD000002D3FF4D0AE25460024214600200BF017
:101AE000CBFB2C46CAE6714A4FF4FA61D2E90032C8
:101AF00053EA0200DCD16C4B1B78002B3FF418AF8B
:101B00000AF02AFA00283FF413AF00200BF046F841
:101B100000283FF40DAF3F2301210020644A0BF061
:101B200059F800283FF404AF00235F4A13705F4B5D
:101B3000009A1A60019A5A60FAE65B4B1B78002BF8
:101B40007FF4E9AE594AD2E9003253EA02002FD1BC
:101B500015AC25AD0FCD0FC40FCD0FC495E80F0008
:101B6000DFF858C184E80F009CF80070002F71D096
:101B7000484B1B682B9A15A91344474A04A81B938A
:101B8000136005F063FE454E04AC3546E3682068FB
:101B90006168A26810340FC514AB9C4206F11006B0
:101BA000F3D1B4E6002D40F09B8001252C4662E67F
:101BB0000098C41A019860EB0200B4F57A5F70F1E6
:101BC00000000AD29BF81010002900F08B80012938
:101BD0007FF4AEAE4FF4FA616AE700293FF472AECB
:101BE000B6E7002D3FF447AE254676E72C2216A82F
:101BF00028F012FF80238DF858302E4B04A815933F
:101C000008238DF85B30FF238DF87C30224B15A91B
:101C10001B68224E1B9305F019FE04AC3546E368A1
:101C200020686168A26810340FC514AB9C4206F1AD
:101C30001006F3D14FF001021B4B1A700023184A13
:101C40003B70137067E6039B002B39D0114B1B6868
:101C50009C44E9E64FF001030E4A8CF8003017600F
:101C60003B4687E70F4825A905F082FE80B39BF825
:101C700018306BB3002C3FF4F6AE0AF07DF92B78E8
:101C8000002B3FF4F0AE00287FF4EDAEFBE600BF82
:101C9000F87E0020A4360020AC36002064360020F8
:101CA000FC7E00209C280020FA7E00207830002056
:101CB0006536002001808080A8360020FE7E00204E
:101CC0000D4B1B68A3EB0C029C460C4B1A60ABE659
:101CD0002B78002B3FF4C7AE002C7FF4D4AEC2E6C5
:101CE0002C46FAE64FF47A61E2E60021044B0846FE
:101CF000197007F0A3FB00BFAC360020A43600200B
:101D0000F67E00200149024805F0BAB9CC2800202F
:101D10001C36002040F6E64340F6F251012808BF89
:101D20000B46014A13807047E2280020014B1870CF
:101D3000704700BFFF7E002070B509288CB023D00B
:101D400020281AD005281BD12824C9B1944217D8BD
:101D500001900D4608462246002128F05DFE019BB9
:101D6000052B26D0092B11D02046354A354BC5F816
:101D70001720C5F81B300CB070BD3F240029E5D1F9
:101D8000002420460CB070BD1324DEE72E4B1B78D8
:101D9000002B37D12D4B1A784AB3062228462C49FE
:101DA00028F0F2FD6B7923F0030343F002036B711B
:101DB000E7E702A805F026FDAE4602AEB4460EF1F6
:101DC000100EBCE80F004EF8043C0AAB9C4506F12F
:101DD00010064EF8100C4EF80C1C4EF8082CEDD1E5
:101DE000BCE80300CEF80000CEF80410C9E709F003
:101DF0001DFE0122154B1A70154B0A0A1860197145
:101E00005A71CAE7002302A8CDE9023309F06EFC3B
:101E10000298104BDDF80A1043404B409DF80C200F
:101E20009DF80E102B604A409DF80F309DF80D1064
:101E300082F04C024B4083F06B032A716B71B1E767
:101E400001004C4D0038004DFF7E0020007F002037
:101E5000B03600204D697261054B064A1B78064872
:101E6000002B0CBF002303231288037442817047A8
:101E7000FF7E0020E2280020D028002008B9024878
:101E800070470020704700BFD8F602100048704726
:101E9000ACF6021058B940F209434FF44171DFF833
:101EA000E8C03948ACF80230ACF80010704730B5E3
:101EB00002288BB025D003283ED004283AD8334BD3
:101EC00053F82040B4B3204628F04CF83F2803468E
:101ED00028BF3F23591C49001D46DFF8ACC041F420
:101EE000407148B16046621E931C1B1B12F801EF43
:101EF0009D4220F802EFF7D82348ACF800100BB051
:101F000030BD40F6F253224A12889A4235D04FF43F
:101F10004F714FF01D0E1F48DFF86CC00EF1FF3EF1
:101F20006246431E864413F8010F9E4522F8020FB5
:101F3000F9D1E1E70020E2E7174B1B78002BF9D03D
:101F400021220021684628F067FD2121684609F01A
:101F5000D5FB684628F006F8DFF82CC040B16B4688
:101F600062461C1813F8011BA34222F8021FF9D184
:101F7000411C490041F44071BEE740F246314FF048
:101F8000220E0648C8E700BF0833002098F602106A
:101F9000E228002018AE0210FF7E0020F4AD0210EF
:101FA000704700BF704700BF704700BF08B52022D0
:101FB000002128F031FD08BD4FF0010C10B5134A87
:101FC000134C136884F800C0EFF3108C72B6D3E89A
:101FD000CFEF0124BEF1000FF9D1C3E84E4FBEF19F
:101FE000000FF4D1BFF35F8F0A4BC2F804C083F82F
:101FF0004800186D83F849100130186512680023F5
:10200000C2E88F3F8CF3108810BD00BFC43600209B
:10201000127F0020F028002008B54FF4CC62002188
:10202000234828F0F9FC4FF0FF3300219FED1E7B81
:10203000204A2148C2E90033C2E9023303601F4B42
:102040001F4A19601F4B11601F4A83ED007B1F4B15
:1020500011601F4A83ED007B1E4B11701E483F220A
:1020600083ED007B28F0D8FC1C4B1868EFF310823E
:1020700072B6D0E8CFEF5FF0010CBEF1000FF8D1DF
:10208000C0E84ECFBEF1000FF3D1BFF35F8F002148
:1020900013485A6001811B68C160C3E88F1F82F337
:1020A000108808BDAFF300800000000000000000B1
:1020B000E4360020D4360020E8280020AC3D002083
:1020C000A83D0020C0300020B03D0020A8300020F6
:1020D0000D7F002098300020443D0020C4360020B1
:1020E000F028002010B5224C2368EFF3108272B65E
:1020F000D3E8CF0F01210028FAD1C3E8401F002800
:10210000F6D1BFF35F8F1B4B6260188848B11A4B42
:10211000187830B1194B587918B11B78032B07D0B8
:10212000002000232168C1E88F3F82F3108810BD92
:10213000134B1B78002BF3D112490978062901D0E3
:102140001846EEE71049D1E900310B43E9D007F01A
:1021500037F84FF47A72002328F02EFC0A4A1368ED
:1021600098425368626899412CBF01200020D8E74B
:10217000C4360020D27E0020037F0020F0280020FB
:10218000117F00209C3D0020F03000201A4A136887
:10219000032B24D90268194BC3F812208288DA82F3
:1021A000174B1968EFF3108272B6D1E8CFCF012038
:1021B000BCF1000FF9D1C1E84C0FBCF1000FF4D114
:1021C000BFF35F8F4FF0010C0E485A6000211B686F
:1021D00080F807C0C3E88F1F82F31088704703EBB5
:1021E000430C013305491360036841F81C308388B0
:1021F00001EB4C018B80D3E7B43D0020843D0020EF
:10220000C4360020F0280020F8B50C4F06463B6885
:1022100073B100250A4C02E03B689D4208D221467A
:10222000304610F0B1FA013506340028F4D1F8BD7B
:102230003046BDE8F840FFF7A9BF00BFB43D00201D
:10224000843D00200000000000234FF6FF7C9FED3E
:102250001A7B1B4A1B49136093801B4A1B4813704F
:102260001B4A097813701B4AA0F800C013701A4A61
:1022700013701A4A82ED007BE9B1194A00B5106863
:10228000EFF3108172B6D0E8CFEF5FF0010CBEF132
:10229000000FF8D1C0E84ECFBEF1000FF3D1BFF36D
:1022A0005F8F10485160A0F858301268C2E88F3F25
:1022B00081F3108800BD704700000000000000009E
:1022C000CC360020027F0020097F0020EC2800206F
:1022D000177F00200A7F0020037F0020903000201D
:1022E000C4360020F02800202DE9F041DFF8C0803E
:1022F000064698F806306BBB00240121C8E900446B
:10230000A8F808403068254FC8F80000B2883B683C
:1023100088F80610A8F80420D3B1214D02E03B68EC
:102320009C4215D22946304610F02EFA013406356B
:102330000028F4D101221B4B88F807201B7813B129
:10234000194B1B786BB9002388F80830BDE8F08181
:102350000022F0E7414610F017FA0028CCD1BDE882
:10236000F0813046114910F00FFA0028EBD101221C
:102370003B6888F8082063B10446094D2946304679
:1023800010F002FA013406350028DFD03B689C4289
:10239000F4D33046BDE8F041FFF7F8BEB43D00206D
:1023A000843D00200A7F0020097F0020CC360020D9
:1023B00010460020F0B54E4D85B0AA7912B1EA79E9
:1023C000002A64D00026002700244A4B4A4AC3E969
:1023D00000674A4B54601460C2F80740484A1C70BA
:1023E000484BC2E9006748494848494A1C70494B74
:1023F000C0E90067C2E900670C704E2221464648DA
:10240000C3E90067C5E900442C8128F005FB434B74
:1024100021468E224248C3E9006728F0FDFA414B6D
:102420004149C3E90067414A414B424E1C700C7060
:102430001470FFF7F1FD3368EFF3108272B6D3E842
:10244000CF0F01210028FAD1C3E8401F0028F6D1A0
:10245000BFF35F8F384B394D394F1C807260D5E91F
:1024600000321343BC80BC7120D1BC7004233B708C
:1024700032680023C2E88F3F726882F31088314AC5
:102480003149C2E9003393600B7005B0F0BD2A7A80
:10249000002A97D16A7A002A94D195E80300029025
:1024A00002A8ADF80C1011F089FD8BE706F088FE4C
:1024B0002C6800234FF47A72019428F07DFA019A77
:1024C0006C689042A14134BF012300231443BB70C8
:1024D000CCD006F075FE4FF47A72002328F06CFA27
:1024E000D5E9002390429941C0D20223BFE700BF43
:1024F00010460020D03000209C3D00200F7F00209F
:10250000B03000200E7F00200C7F0020A030002083
:10251000D830002090300020C0450020F03000204E
:102520001C460020F8300020137F0020147F00207C
:10253000117F0020C4360020D27E0020C830002049
:10254000F0280020B8360020127F00202DE9F0414D
:10255000854B94B01B78C3B1844C2368EFF3108291
:1025600072B6D3E8CF5F0121002DFAD1C3E8451F31
:10257000002DF6D1BFF35F8F7D4B62601B884BB996
:102580002168C1E88F3F82F310880025284614B0E7
:10259000BDE8F081774B1B78002BF1D0764B5D794D
:1025A0002DB92368C3E88F5F82F31088EDE71B78AD
:1025B000032B01D00023E3E7704B1B789846002BD8
:1025C000F8D16F4B1B78062B05D02368C3E88F8F9B
:1025D00082F31088D9E76B490746D1E900310B43F4
:1025E00040F0A9802368C3E88F8F82F31088664B80
:1025F00068461A78511C197002F00F02394605F02E
:10260000F5FA624B1C68032CBFD8614B614A19680C
:1026100092F89431002B68D100296FD192F82C33B5
:10262000002B67D101231E464FF4CC7101FB032020
:102630004FF4C772002128F0EFF94E22694628F0C6
:10264000B3F94E22C0F89021504A0134146031226F
:10265000012180F88E21504A80F8941113684F4967
:102660004F4C41F82360013303F00303136006F07D
:10267000A7FD4FF47A72002328F09EF90022494BFF
:10268000C4E900011A70FB7A3BB12F22012A07F13D
:102690000C014BDD444828F077F93B783BB9FB78D7
:1026A0002BB9FB791BB97B7A002B3FF46FAFDFF8B6
:1026B000F8C00DF10304E646E36820686168A2688B
:1026C0001034AEE80F000DF133039C420CF1100CF6
:1026D000F1D1A26820686168ACE80700A289A37BF9
:1026E000ACF800208CF8023050E792F82C333BB95C
:1026F000012997D192F8C4343BB902231E4693E7CF
:1027000092F8C4344BB90229F7D192F85C36002B09
:102710007FF43BAF03231E4686E792F85C36002B1E
:102720007FF433AF03293FF430AFF3E7B5D11E4B4D
:102730003A7B1A70B1E706F043FDD4E900644FF428
:102740007A72002328F038F90E4BD3E90023904227
:10275000994104D2C6E88F8F84F3108815E7C6E844
:102760008F8F84F3108842E7027F0020C436002058
:10277000D27E0020037F0020F0280020117F00205F
:102780009C3D0020F0300020077F0020B03D00205D
:10279000E8280020E4360020AC3D0020D43600209C
:1027A00088300020047F0020443D00202B4AF8B5EB
:1027B000137863B3002400260027294B294AC3E974
:1027C0000044C3F80740284B1588C3E90067274B2E
:1027D000274AC3E90067274B21461C70264BC2E9F4
:1027E000006726484E221C7028F016F9244B8E22D2
:1027F00021462448C3E9006728F00EF9224B234AFA
:102800001C70234B1470C3E900670DBBF8BD012594
:10281000204C15702668EFF3108572B6D6E8CF7F8E
:102820000122002FFAD1C6E8472F002FF6D1BFF3BF
:102830005F8F194A656082F84910116D2468013173
:1028400082F848001165C4E88F3F85F31088B1E72E
:102850002846BDE8F8401CF093BD00BF127F002061
:102860009C3D0020D27E0020D0300020D8300020B7
:10287000B03000200F7F00200E7F0020C0450020D8
:10288000F03000201C460020137F0020147F002021
:10289000F8300020C4360020F0280020000000009E
:1028A00038B5494CD4E90032134300D138BD474B09
:1028B0001D7806F085FC4FF47A72002328F07CF82E
:1028C000D4E9002390429941F0D2002DEED0404C43
:1028D0002378002BEAD13F4B1B78002BE6D13E4BEF
:1028E0001B88002BE2D13D4AD2E9003213430CD0C1
:1028F00006F066FC4FF47A72002328F05DF8374B3F
:10290000D3E9002390429941D0D3082016F03CFB34
:10291000334B1A6800BB9FED2A7B304981ED007B69
:10292000EFF3108172B6D2E8CFEF5FF0010CBEF189
:10293000000FF8D1C2E84ECFBEF1000FF3D1BFF3C4
:102940005F8F0122274D5960EA701B682270C3E82F
:102950008F0F81F3108838BD012423490C70EFF3E9
:10296000108172B6D2E8CFEF5FF0010CBEF1000F1C
:10297000F8D1C2E84ECFBEF1000FF3D1BFF35F8FA5
:10298000D3F800C05960174B1A6D83F848402244B1
:1029900083F849001A650023CCE88F3F81F3108843
:1029A00006F00EFC00234FF47A7228F005F80B4B6A
:1029B00010F57A7041F10001C3E9000138BD00BF94
:1029C0000000000000000000C8300020017F00204F
:1029D000057F00200C7F0020D27E0020B830002030
:1029E000C4360020F0280020127F002000000000E4
:1029F0002DE9F041B0B006F0E3FB4FF47A7200230A
:102A000027F0DAFF00245C4B5C4D1C70C5E9000127
:102A100006F0D6FB4FF47A72002327F0CDFF012594
:102A2000574A584E8018584F41F10001306071608C
:102A30003D7000260027554A554BC2E900672846DD
:102A4000544FC3E900449C6016F05CF8284616F029
:102A50001FF83B88002B70D14F4B1978002939D1D2
:102A60005C2202A827F0D8FF4C4C4D4D4D4E3088CB
:102A700040B19DF80830032B04D09DF80E30002B98
:102A800000F09E802268EFF3108372B6D2E8CF0F79
:102A900001210028FAD1C2E8401F0028F6D1BFF377
:102AA0005F8F2A780121032A18BF0222A97018BF5C
:102AB0002A70216800226360C1E88F2F83F3108899
:102AC00033881BB9384B1B78002B4ED0012030B017
:102AD000BDE8F081314C2268EFF3108372B6D2E882
:102AE000CF0F01210028FAD1C2E8401F0028F6D1FB
:102AF000BFF35F8F2A4D5C22294619A863600093BB
:102B000027F052FF294A00211068536880466E7AE8
:102B100022680193C2E88F1F009B83F3108826B1BF
:102B2000019B034340F0D68000265C2219A902A82D
:102B30008DF86D6027F038FF98E706F041FB4FF401
:102B40007A72002327F038FF42F21073DFF86CC06E
:102B50001B18174ACCE9000141F10001C2E900311C
:102B6000144E154B35701C7076E7FFF799FE012067
:102B700030B0BDE8F08100BF047F00208830002025
:102B8000E0930400C83000200B7F0020B830002004
:102B9000B8360020D07E0020027F0020C4360020FE
:102BA000F0280020D27E00200C7F002098300020EA
:102BB000E8300020157F0020167F0020E030002044
:102BC000009338801CF0DCFB3A88009B002A00F060
:102BD000938006F0F5FA00234FF47A7227F0ECFEAA
:102BE00042F210770123C71941F100084FF0000E9F
:102BF000DFF868C1464ACCE900014649C1E90078DE
:102C000045490B70454B83F800E0937973B1D37954
:102C100063B9137A53B9537A43B992E80300199010
:102C200019A8ADF8681011F0C9F9394A00279FEDCD
:102C3000367B3B4BC2E900775F601F60C3F80770CB
:102C4000384B178183ED007B374B384A83ED007B8F
:102C5000374B17703749384A83ED007B374B0F707D
:102C6000177039464E22364883ED007B378027F0B7
:102C7000D3FE9FED257B334B8E223946324883EDC0
:102C8000007B27F0C9FE9FED207B304B1F70304B3F
:102C90001F70304B83ED007B2F4B1F70FFF7BCF98B
:102CA0002268EFF3108372B6D2E8CF0F012100281B
:102CB000FAD1C2E8401F0028F6D1BFF35F8F02228D
:102CC00063602A70AF802268AF71C2E88F7F83F3A0
:102CD0001088D7E606F074FA00234FF47A7227F0D2
:102CE0006BFE019BB0EB080061EB0301FB2871F167
:102CF0000001BFF419AF18E7184619461F46984659
:102D000074E700BFAFF30080000000000000000087
:102D100010460020E8300020157F0020167F00209C
:102D20009C3D0020A0300020B03000200F7F00200C
:102D3000D03000200C7F00200E7F0020D8300020F3
:102D4000C0450020F03000201C460020137F0020EA
:102D5000147F0020F8300020117F0020E030002098
:102D60008D4B1B7803B17047F0B58C4C85B0D4E91E
:102D70000032134301D105B0F0BD894B06461D78E2
:102D8000074606F01DFA4FF47A72002327F014FE6E
:102D9000D4E9002390429941EDD2002DEBD0814B34
:102DA0001B78002BE7D1804B1B88002BE3D13046EA
:102DB000FFF79AFA7D4A1378002B40F0E2807C4DB1
:102DC0002968EFF3108372B6D1E8CF4F0120002CB1
:102DD000FAD1C1E8440F002CF6D1BFF35F8F002475
:102DE000744E14706B602A68F470C2E88F4F83F3DE
:102DF00010889FED677BBB886F4A3868ADF8043058
:102E00006E4F6F4B14706F4AC3E9004487ED007B2F
:102E1000C3F807406C4F6D4B2146009014706C480E
:102E20004E2287ED007B83ED007B27F0F5FD9FEDC3
:102E3000587B684B8E222146674883ED007B27F044
:102E4000EBFD9FED537B584B2A681C80634B1C7035
:102E5000634B1C70634B83ED007B634B1C70634BB7
:102E60001C70EFF3108172B6D2E8CFCF0120BCF115
:102E7000000FF9D1C2E84C0FBCF1000FF4D1BFF341
:102E80005F8FF26C69600132F2642A68C2E88F4F8A
:102E900081F3108801216846434A1CF0EFF9534B37
:102EA000064600282CD106F08BF94FF47A720023E5
:102EB00027F082FD42F21073C0184FF001034C4C12
:102EC0003B4D384A41F10001616020602968137070
:102ED000EFF3108272B6D1E8CF4F0120002CFAD167
:102EE000C1E8440F002CF6D1BFF35F8F31496A600F
:102EF0000B710B702B68C3E88F6F82F310883AE771
:102F000001221A702B68EFF3108272B6D3E8CF0F4C
:102F100001210028FAD1C3E8401F0028F6D1BFF3F1
:102F20005F8F24482968036D80F849600133036589
:102F300002236A6080F84830C1E88F4F82F310881E
:102F40002C4CA3796BB1E3795BB9237A4BB9637AE3
:102F50003BB994E80300029002A8ADF80C1011F000
:102F60002DF800232449254A0978C4E90033C2E931
:102F700000332381936000293FF4FDAEFFF790FCFE
:102F8000F9E616F01FF8094A19E700BFAFF3008011
:102F90000000000000000000047F0020C830002076
:102FA000017F00200C7F0020D27E0020057F0020C2
:102FB000C4360020F02800200F7F0020B030002011
:102FC0009C3D00200E7F0020D0300020D830002013
:102FD000C0450020F03000201C460020137F002058
:102FE000147F0020F8300020117F0020127F002085
:102FF000A0300020104600200B7F0020B8360020B3
:1030000008B5104B1A7802B108BD0F4805F06AFCEC
:1030100001220C4B0D491A700A8017F07FF94FF40A
:1030200000610B481CF0A4F80A481CF0C1F80A48DB
:10303000084B436011F0F0FABDE80840012015F09C
:1030400019BC00BF027F0020C4360020F0280020F9
:10305000C03D0020E1450010B83D0020D0ED017AD0
:10306000B0EE677ABEEECC7A38B52F4BC27A1978BB
:1030700017EE103AB3F5807FB8BF4FF48073B3F505
:10308000007FA8BF4FF40073002943D0002A29D045
:103090004FF0000E254AD2F800C0EFF3108172B64F
:1030A000DCE8CF5F0124002DFAD1CCE8454F002D9C
:1030B000F6D1BFF35F8FDFF890C05160ACF80030FD
:1030C00090F815C01A4BC07A83F800C0194B1268EB
:1030D00018700023C2E88F3F81F31088BEF1000F03
:1030E00004D138BD144A92F800E0D3E74FF0000550
:1030F000114C257006F064F84FF47A72002327F023
:103100005BFC0E4B25701A780D4B1A700D4BC3E902
:10311000000138BDDFF830C00549407DACF8003013
:10312000044B08701A7038BD027F0020C43600209E
:10313000067F0020087F0020047F0020017F002000
:10314000107F002088300020E4280020044B1B78EA
:1031500013B1044B1B780BB918467047FFF748BCF6
:10316000027F0020017F002070B540F6B734531E67
:103170009BB2A34292B003D90024204612B070BD86
:103180002D4B1B78002B54D02C4B1C68EFF3108C6C
:1031900072B6D4E8CF5F5FF0010E002DF9D1C4E81C
:1031A00045EF002DF5D1BFF35F8FD3F800E0C3F8F2
:1031B00004C0234B1C880023CEE88F3F8CF310887B
:1031C000054601911646002138220DF10F0027F027
:1031D00023FC019B04FB05F204FB03F102F18003D5
:1031E0001B0A8031090AFF2B28BFFF23FF2928BFB4
:1031F000FF214FF0010503A88DF80C508DF80D301C
:103200008DF80E10FFF7A2F904460028B4D00D4B3C
:103210001D7005F0D5FF4FF47A72002327F0CCFB28
:10322000094B801941F10001C3E90001204612B0A9
:1032300070BD034B1C88C3E7027F0020C43600200A
:10324000E42800200D7F0020A8300020F0B5A7B0B2
:1032500006460D46144600213B2203A8019327F0A1
:10326000DBFB019B904A03F01F038DF81430012310
:1032700012788DF810608DF811508DF812408DF88D
:103280000F308DF81330C2B1884C2368EFF31082F1
:1032900072B6D3E8CF0F01210028FAD1C3E8401F4E
:1032A0000028F6D1BFF35F8F814B62601B8843B962
:1032B0002168C1E88F3F82F310880025284627B097
:1032C000F0BD7C4B1B78002BF2D07B4B5D792DB988
:1032D0002368C3E88F5F82F31088EEE71B78032B27
:1032E00001D00023E4E7754B1B781F46002BF8D173
:1032F000734B1B78062B05D02368C3E88F7F82F3BE
:103300001088DAE76F49D1E900310B4340F0B38010
:103310002368C3E88F7F82F310886B4B03A91A7868
:10332000501C187002F00F0212A804F05FFC674BEB
:103330001C68032CC1D8664B664A196892F8943110
:10334000002B77D100297ED192F82C33002B76D137
:1033500001231E464FF4CC7101FB03204FF4C772CA
:10336000002127F059FB4E2212A927F01DFB4E2207
:103370000346C0F890210120544A013414603124DE
:103380005549DFF864C10A6883F88E414CF8226021
:10339000024402F003020A6083F8940105F010FF72
:1033A0004FF47A72002327F007FB00224B4B4C4C62
:1033B0001A709DF81730C4E900017BB1494C0DF13A
:1033C000180CBCE80F000FC4BCE80F000FC49CE849
:1033D0000F0007C41A0C24F8023B22709DF80C3031
:1033E00053B99DF80F303BB99DF8133023B99DF8C0
:1033F0001530002B3FF462AFDFF8E8C00DF14B044D
:10340000E646E36820686168A2681034AEE80F0001
:103410000DF17B039C420CF1100CF1D1A2682068E5
:103420006168ACE80700A289A37BACF800208CF8A7
:10343000023043E792F82C333BB9012988D192F846
:10344000C4343BB902231E4684E792F8C4344BB916
:103450000229F7D192F85C36002B7FF42EAF0323BC
:103460001E4677E792F85C36002B7FF426AF0329DF
:103470003FF423AFF3E705F0A3FED4E900644FF473
:103480007A72002327F098FA0E4BD3E9002390427A
:10349000994104D2C6E88F7F84F310880DE7C6E80F
:1034A0008F7F84F3108838E7027F0020C436002025
:1034B000D27E0020037F0020F0280020117F002012
:1034C0009C3D0020F0300020077F0020B03D002010
:1034D000E8280020E4360020AC3D0020047F0020D6
:1034E00088300020443D0020D4360020F0B5A5B03F
:1034F00004463B22002101A827F08EFA01228B4BC3
:103500008DF80E401B788DF80D20C3B1884C2368D0
:10351000EFF3108272B6D3E8CF0F01210028FAD161
:10352000C3E8401F0028F6D1BFF35F8F814B626074
:103530001B8843B92168C1E88F3F82F310880025BA
:10354000284625B0F0BD7C4B1B78002BF2D07B4B7E
:103550005D792DB92368C3E88F5F82F31088EEE7A9
:103560001B78032B01D00023E4E7754B1B781F4623
:10357000002BF8D1734B1B78062B05D02368C3E8CA
:103580008F7F82F31088DAE76F49D1E900310B436E
:1035900040F0B3802368C3E88F7F82F310886B4BC1
:1035A00001A91A78501C187002F00F0210A804F03C
:1035B0001DFB674B1C68032CC1D8664B664A196813
:1035C00092F89431002B77D100297ED192F82C33D8
:1035D000002B76D101231E464FF4CC7101FB032052
:1035E0004FF4C772002127F017FA4E2210A927F0D6
:1035F000DBF94E220346C0F890210120544A0134E1
:10360000146031245549DFF864C10A6883F88E419B
:103610004CF82260024402F003020A6083F894012D
:1036200005F0CEFD4FF47A72002327F0C5F9002291
:103630004B4B4C4C1A709DF80F30C4E900017BB124
:10364000494C0DF1100CBCE80F000FC4BCE80F0092
:103650000FC49CE80F0007C41A0C24F8023B227028
:103660009DF8043053B99DF807303BB99DF80B30F5
:1036700023B99DF80D30002B3FF462AFDFF8E8C0AE
:103680000DF14304E646E36820686168A2681034DF
:10369000AEE80F000DF173039C420CF1100CF1D158
:1036A000A26820686168ACE80700A289A37BACF837
:1036B00000208CF8023043E792F82C333BB9012903
:1036C00088D192F8C4343BB902231E4684E792F8AD
:1036D000C4344BB90229F7D192F85C36002B7FF441
:1036E0002EAF03231E4677E792F85C36002B7FF45B
:1036F00026AF03293FF423AFF3E705F061FDD4E9DA
:1037000000644FF47A72002327F056F90E4BD3E988
:1037100000239042994104D2C6E88F7F84F3108839
:103720000DE7C6E88F7F84F3108838E7027F00201A
:10373000C4360020D27E0020037F0020F028002025
:10374000117F00209C3D0020F0300020077F0020EA
:10375000B03D0020E8280020E4360020AC3D0020E9
:10376000047F002088300020443D0020D436002013
:1037700018B12F2902D00020704770470023012282
:10378000844630B591B0CDE90133039304AC8DF894
:103790000F2000F12005A646DCF80000DCF804103C
:1037A000DCF80820DCF80C300CF1100CAC45AEE86D
:1037B0000F0004F11004EED1DCF80820DCF8000062
:1037C000DCF80410AEE80700BCF80C30AEF80030AE
:1037D000164B9CF80E201B788EF8022013B3144B66
:1037E0001968EFF3108272B6D1E8CFCF0120BCF197
:1037F000000FF9D1C1E84C0FBCF1000FF4D1BFF3B9
:103800005F8F0C4918685A6009780023C0E88F3F21
:1038100082F3108804A804F0D9FA01A8FEF796FEF6
:1038200011B030BD034B1978F4E700BF027F0020D0
:10383000C4360020067F00202DE9F0412A4B0446C3
:10384000197898B069B95C2227F0E6F8FF23204682
:103850002649274A84F83830C4E9041218B0BDE874
:10386000F081244B1A68EFF3108572B6D2E8CF0FBF
:1038700001210028FAD1C2E8401F0028F6D1BFF389
:103880005F8F5C221C4901A85D6027F08DF81B4A00
:103890001949D2E90067174B4A7A002090461B6805
:1038A000C3E88F0F85F3108822B156EA07030CD1C5
:1038B0004FF000085C22204601A98DF80D8027F00A
:1038C00073F8204618B0BDE8F08105F079FC4FF49C
:1038D0007A72002327F070F8801B61EB0701FB2848
:1038E00071F10001E4D2E5E7027F002001808080D1
:1038F00080000008C4360020F02800209830002006
:103900002DE9F04F874CB1B0237813B931B0BDE841
:10391000F08F854D2B7823B1844B1B88002B40F012
:10392000C980834B834D1A782978002A00F0BF8222
:10393000814A1078002840F0A780DFF82C82DFF859
:103940002C92B8F80020297899F80000002A00F09D
:10395000D082002900F02183002840F0F782774BC5
:103960001B78002B00F09A824FF6FF73744D2A8863
:103970009A4200F0938205F023FC4FF47A72002300
:1039800027F01AF86F4AD2E90063B04271EB0303E3
:1039900008D310F57A70106041F100012888516059
:1039A00015F0A0FA684DB8F800302A78002A49D0FE
:1039B000002B00F00181654B1A78002A00F0FC8092
:1039C000634A1778002F40F0F780624A1178062981
:1039D0003CD84A22CA40D20738D55F4B1968EFF36A
:1039E000108272B6D1E8CFCF0120BCF1000FF9D11F
:1039F000C1E84C0FBCF1000FF4D1BFF35F8F5A60E8
:103A00001968564B5B79C1E88F7F82F31088002BD1
:103A100000F0FB8305F0D4FB4FF47A72002326F00C
:103A2000CBFF0E464E4B8246D3E90012884276EB1E
:103A30000202B8F8003005D34A4A1278022A40F24E
:103A4000B8842F70002B00F0B780404B1B78002B00
:103A500000F0B2803E4B1B78002B40F0AD8005F0AB
:103A6000AFFB00234FF47A7226F0A6FF394B8A464B
:103A70001B788346013B032B00F29E80DFE813F0A6
:103A8000930279035503F2023748804600880029E3
:103A900000F0FD81354989460978002940F07F8290
:103AA000002840F02E84FEF785FC0021224A204B9E
:103AB000117046E705F084FB2D4B1B78272B1F4622
:103AC0002CD84FF47A72002326F076FF294BD3E9E5
:103AD0000023904271EB030320D2274AD2E900630E
:103AE000B04271EB0303FFF41CAF10F1FA030F4E69
:103AF0001F48136007F101030370308841F1000192
:103B0000019051601BF03CFC3388019883427FF4A4
:103B100008AF174B1B78272B7FF603AF00232B70C2
:103B2000FFE600BF027F0020157F0020D07E00202E
:103B3000107F0020017F0020187F00200A7F0020D6
:103B4000EC28002090300020137F0020037F00200D
:103B5000117F00209C3D0020C4360020F02800206A
:103B6000F8300020147F0020D27E0020047F002047
:103B7000167F0020E8300020E0300020894A1378CA
:103B8000042B03D101239372032313700023019AA2
:103B90001370854A1BF57A734AF100011360834B59
:103BA00051601BF104021A604AF100025A600022BF
:103BB00000230299C1E900232378002B00F07481CF
:103BC0007B4B1968EFF3108272B6D1E8CF5F01200A
:103BD000002DFAD1C1E8450F002DF6D1BFF35F8F5C
:103BE00019685A60734B1E780023C1E88F3F82F337
:103BF000108899F80050002D7FF488AE26B1B8F8EF
:103C00000030002B40F0ED826B4DD5E900321343BC
:103C100019D005F0D5FA4FF47A72002326F0CCFEC5
:103C2000D5E900239042994180F0E08005F0C8FA80
:103C30004FF47A72002326F0BFFED5E900239042AC
:103C40009941C0F0A7805D4DD5E90032134340F0A3
:103C500036815B4B1B782BB15A4DD5E900321343AB
:103C600040F07781584D2B68002B3FF44FAE2378FE
:103C7000002B3FF44BAEFEF735FA00283FF446AE7A
:103C8000524C2368002B0DDB05F09AFA4FF47A7240
:103C9000002326F091FE4E4BD3E900239042994138
:103CA000FFF434AE4B4B4C4A1B68B8F8000052F896
:103CB00023304FF4CC7202FB03F21E46474B991897
:103CC00001321A44D1F8903191F88E11013B9BB228
:103CD0001CF090F9022800F0458300287FF416AE0E
:103CE0002368834206DB4FF4CC713C4A01FB03237B
:103CF00083F894014FF0FF32364937480B6826604D
:103D000040F82320013303F003030B602B681344B6
:103D10002B6005F055FA4FF47A72002326F04CFE22
:103D20004FF4CC732D4A043003FB062494F88E31F3
:103D3000274D41F10001362B286069607FF4E6AD24
:103D40001B4C2368EFF3108272B6D3E8CF0F01212A
:103D50000028FAD1C3E8401F0028F6D1BFF35F8FD7
:103D600040F201111E4B6260DA6819810132DA609B
:103D700005F026FA4FF47A72002326F01DFE194D45
:103D80000023C5E900012268C2E88F3F636883F31E
:103D90001088BBE5144B1B78002B7FF454AFFEF763
:103DA0007FFD50E79C3D0020D8300020F0300020FF
:103DB000C4360020087F0020C8300020A03000203A
:103DC0000D7F0020A8300020B03D0020E828002012
:103DD000C0300020A83D0020D4360020E43600206A
:103DE000F0280020983000200C7F002000239FED59
:103DF0008A7B8B4A8B498C48C2E9003303709360FD
:103E00000B7885ED007B002B40F0E781874D2B6818
:103E1000EFF3108272B6D3E8CFCF0120BCF1000FD0
:103E2000F9D1C3E84C0FBCF1000FF4D1BFF35F8FA1
:103E300000207F4B08706A602968D870C1E88F0F36
:103E400082F3108814F024FE2968EFF3108272B612
:103E5000D1E8CFEF5FF0010CBEF1000FF8D1C1E85F
:103E60004ECFBEF1000FF3D1BFF35F8F704B002038
:103E700019789870022908BF04216A6008BF197078
:103E800000232968C1E88F3F82F31088DBE6DFF862
:103E9000CC91002840F0818000221A70002000217F
:103EA000644BC3E900017DE5634B1E78A1E6DFF8B2
:103EB000B081DFF8A89100297FF451ADEEE705F05D
:103EC0007FF94FF47A72002326F076FDD5E90023BE
:103ED00090429941FFF4BDAE19A8FFF7ADFC9DF8E3
:103EE0006A30002B00F0948100220023C5E90023F2
:103EF000AFE60029D0D050BB504A1278002A7FF498
:103F00002EAD122108461A70019215F087F9012092
:103F100015F094F9019814F0F5FD012014F0F2FD6C
:103F2000474A2978D2E9003213430E4640F0D08147
:103F3000002900F0A18199F8000080F0010014F040
:103F4000A7FD297800297FF40AADA7E700221A709F
:103F500005E505F035F94FF47A72002326F02CFDC3
:103F6000D5E9002390429941FFF47CAE3A2200212A
:103F70000DF1650026F050FD012319A88DF864307D
:103F8000FEF7E4FA00283FF46DAE00232D4A1370CB
:103F900000220023C5E9002364E619707EE70028AB
:103FA000D4D11870DBE4284B0293D3E9002390426C
:103FB00071EB0303FFF400AE244B5B68022B3FF66A
:103FC000FBAD234DEA5C002A3FF4F6AD2149B8F879
:103FD00000000B78019101330B70032103921BF059
:103FE000DDFF039A002800F09F821B4B0228187007
:103FF00000F0C9821BF1190C4AF1000E0C2840F0A8
:104000007F82019B1B78032B00F27A82029BC3E91B
:1040100000CED1E5AFF300800000000000000000FA
:10402000B8360020057F00200B7F0020C43600201A
:10403000F028002090300020087F00200C7F002016
:10404000C83000200D7F0020B03000209C3D0020B3
:10405000A4F702100F7F00200E7F0020047F0020B5
:10406000D27E0020AC4B0293D3E90023904271EB47
:104070000303FFF4A1ADA94B19780193002900F0C7
:10408000B581019B01311970A54A4D233121B8F842
:1040900000001BF0AFFF00283FF470ADA14B0228D9
:1040A000187000F007820C2800F0B6819E490A784B
:1040B000042A04BF05220A709C490A78002A00F0ED
:1040C000B98100219FED927B1970029F964B019A56
:1040D000C3E9001187ED007BC3F80710944F954B9F
:1040E000117095484E2283ED007B87ED007BB8F878
:1040F000006026F091FC9FED867B904B00218E2284
:104100008F4883ED007B26F087FC00219FED807BAC
:104110008C4B297019708C4B83ED007B002E3FF483
:104120004BAD30461BF02CF946E5824AD2E900132C
:1041300051EA03053FF440AD88427AEB0303FFF4F4
:104140003BAD9FED737B784982ED007B8B7A002B32
:1041500040F09E814A680B720132022A4A608CBF8D
:10416000042201220A706C4AC2E9000A6B4A1370E9
:1041700022E56F4DD5E9002352EA03013FF41CAD5F
:1041800090427AEB0303FFF417AD674EB8F80000D6
:10419000377A1BF067FF002840F0BE8108229FEDB0
:1041A0005C7B604B85ED007B1A703378022B09D164
:1041B000337ABB4206D1737A3072002B00F0EB8168
:1041C000062333700022544B1BF119004AF1000101
:1041D000C3E90001514B1A70EEE414F0F3FE5B49A1
:1041E00014E619A8FFF728FB9DF86430032B45D08F
:1041F00099F80030002B3FF407ADFFF787BB01466D
:104200000520FDF7D9FEFEF7D5F8B8F8003019E41F
:10421000B8F80020002A3FF41CAD00200021C5E9B9
:104220000001012541484A4A05701168EFF31080EA
:1042300072B6D1E8CFCF0125BCF1000FF9D1C1E8AA
:104240004C5FBCF1000FF4D1BFF35F8F07211568FD
:104250005060404AA2F84810116D01311165C5E85F
:104260008F3F80F31088B8F800001BF089F8F0E465
:104270002B78002B7FF45FAE002060E69DF86A305B
:10428000002BB5D0344AD2E900321343B0D004F049
:1042900097FF4FF47A72002326F08EFB4EF66023D0
:1042A000A6FB03322C4E3768D6F804C0C01B61EB66
:1042B0000C01984291419BD30123284AB8F8000091
:1042C000157089F8003031B0BDE8F04F1BF058B8D8
:1042D00004F076FF4FF47A72002326F06DFB204B3A
:1042E000D3E9002390429941C2D2002EC0D00120D0
:1042F00014F0CEFBFEF7D4FA297800297FF42FAB17
:10430000CCE51BF0D3FEFFF7CEBB00BFAFF30080C0
:104310000000000000000000B03000200F7F0020EF
:10432000C14500200E7F00209C3D0020127F002010
:10433000D0300020D8300020C0450020F0300020D0
:104340001C460020147F0020F8300020057F00204C
:10435000C4360020F0280020883000200D7F002087
:10436000C830002001209149914A08701368EFF38A
:10437000108072B6D3E8CF4F0121002CFAD1C3E8E8
:10438000441F002CF6D1BFF35F8F40F20525894B07
:104390005060196D0024013112681965A3F8485066
:1043A000C2E88F4F80F3108831B0BDE8F04FFEF7C0
:1043B00001B8814901320A70184632218D237F4AA3
:1043C0001BF018FE00285ED002283FF418AF7A4B8D
:1043D0001B78022B68D87A4A1AF11903136046F148
:1043E00000035360B8F80030FFF72CBB3B2219A83C
:1043F00026F012FB734B04A81A78511C197002F0B6
:104400000F0219A903F0F2FB04A94E226E4826F010
:10441000CBFA019B197834E6019A1278032A3FF609
:1044200045AE029A1BF1190313604AF10003536071
:10443000FFF7C2BB4FF0010C81F800C05C49D1F816
:1044400000E0EFF3108C72B6DEE8CF7F0126002F7C
:10445000FAD1CEE8476F002FF6D1BFF35F8F0E6819
:10446000C1F804C00521DFF84CE18EF84810DEF8F1
:1044700050108EF849000131CEF85010C6E88F2F49
:104480008CF310881DE6B8F800302870FFF7DABA10
:10449000002205204D4B19784D4B1A704D4B18706A
:1044A000FEF784F9FFF788BB0022B8F800302A70C5
:1044B000FFF7C8BA01203D493D4B08701A68EFF379
:1044C000108172B6D2E8CF5F0120002DFAD1C2E888
:1044D000450F002DF6D1BFF35F8F40F2052218681B
:1044E0005960344BA3F848201A6D01321A65002335
:1044F000C0E88F3F81F31088FDF75CFFFFF75CBBDE
:10450000344B1978012923D0029B019AC3E900CECC
:1045100000231370FFF750BB0228CBD03946072089
:10452000FEF744F9FFF748BB2A4B1B78012B1FD03D
:1045300040F2DC53284A1BEB03034AF10001C2E9B5
:104540000031002200230299C1E90023FFF734BBA8
:104550001E465B68022BD7D8E85C9042D4D1013369
:10456000032B08BF04217360002331703372CBE743
:1045700018494B68022BDBD8EB5C9342D8D10B7205
:1045800002230B70D4E701460520FDF715FDFDF76A
:1045900011FFFFF711BB0F4A53680133022B536021
:1045A0008CBF0423012313700CE600BF127F002090
:1045B000C4360020F0280020147F00201D46002073
:1045C000F8300020077F0020C04500200E7F00202B
:1045D0000F7F00209C3D0020D03000200000000014
:1045E000042800D07047002AFCD02DE9F04711784C
:1045F00016463329C4B061D802295CD90339302961
:1046000059D8DFE811F0C901D7010F02490293021E
:1046100039035800580058005800580058005800F6
:1046200058005800580058005800580031005800F1
:1046300058005800580058005800580058005800BA
:1046400058005800580058005800580058005800AA
:10465000580058005800580058005800580058009A
:104660005800580058007103694C06222DA9B01C4F
:104670000EF0DEF8D4E9003213432DAF40F0E187AD
:10468000644C2368002B01F06B810023624903E036
:104690002268934281F064813846CDE901130EF01F
:1046A00073F8029B0199013306310028F0D1384696
:1046B0005A4914F0E7FC44B0BDE8F087602904468D
:1046C00000F0108701F12403DBB2132BF3D8DC399F
:1046D0001329F0D801A353F821F000BF3D48001082
:1046E000A547001055470010B7460010B746001008
:1046F000B7460010B7460010B7460010B746001086
:10470000B7460010B7460010B7460010B746001075
:10471000B7460010B7460010B7460010B746001065
:10472000B7460010B74600102D470010B278531E50
:104730000C2B00F21E81DFE813F04104E1057E0539
:104740001C011C011C011C01EE031C011C01CB03FC
:104750005B031F03022130460EF020F8304B1B880C
:104760008342A8D12F4B1968EFF3108272B6D1E8BB
:10477000CF4F0120002CFAD1C1E8440F002CF6D114
:10478000BFF35F8F01245A60274996F804C0186868
:1047900081F859C0002381F85840C0E88F3F82F368
:1047A000108888E71F4A1368EFF3108172B6D3E8C8
:1047B000CF4F0120002CFAD1C3E8440F002CF6D1D2
:1047C000BFF35F8F0023194C1748516023701268A4
:1047D000C370C2E88F3F81F31088154B1B78002B04
:1047E0003FF469AF134B1B78002B7FF464AF124C7E
:1047F000A37A1BB1E37A002B01F0D6820023C4E92F
:104800000033A36044B0BDE8F047FEF749B800BFED
:10481000C8300020B43D0020843D002084AE02104A
:10482000EC280020C4360020F0280020057F00205E
:104830000B7F00200C7F0020B83600208A4B1B78AD
:10484000002B3FF438AF894B1B78002B7FF433AF3C
:10485000337C002B41F0B682737E002B01F0188070
:10486000B07E082841F2148006F11B04224606F1AE
:10487000130C844412F8013B03F12001C9B2A3F1E7
:10488000410EBEF1190F98BF0B46642B40F0D48740
:10489000137803F12001C9B2A3F1410EBEF1190F43
:1048A00098BF0B46752B40F0C787537803F1200162
:1048B000C9B2A3F1410EBEF1190F98BF0B46612B8F
:1048C00040F0BA87937803F12001C9B2A3F1410EF9
:1048D000BEF1190F98BF0B466C2B40F0AD87D37813
:1048E00003F12001C9B2A3F1410EBEF1190F98BF27
:1048F0000B46732B40F0A087137903F12001C9B256
:10490000A3F1410EBEF1190F98BF0B46652B40F085
:104910009387537903F12001C9B2A3F1410EBEF18F
:10492000190F98BF0B466E2B40F08687937903F1E1
:104930002001C9B2A3F1410EBEF1190F98BF0B4679
:10494000732B40F07987D37903F12001C9B2A3F129
:10495000410EBEF1190F98BF0B46652B40F06C87D6
:10496000B01C06222DA90DF063FF2DA8FEF7F8F963
:10497000A1E6083A052A3FF69EAE01A353F822F0BD
:104980002B4F0010B7460010B7460010E54E001040
:10499000054E00108D4D0010B378002B00F060869E
:1049A000324A1278002A40F0E08744B0BDE8F04770
:1049B000FDF74ABC00232DA906222D93B01C8B8045
:1049C0000F460DF035FF082130460DF0EDFE284C66
:1049D00005462268002A00F085860023254903E069
:1049E0002268934280F025863846CDE901130DF008
:1049F000CBFE029B0199013306310028F0D101263C
:104A00001D4CD4E90032134340F0738605F4706303
:104A1000B3F5A06F01F00A810E223946174810F055
:104A2000CBF948E6164C032130460DF0B7FE154B86
:104A300022881B88002A00F0F1854FF6FF7293420E
:104A400040F0FA85104B98461B782BB10F4B1D4652
:104A50001B78002B01F0828100231A460C480D4977
:104A600003700A70A1E700BF0B7F00200C7F0020BD
:104A7000B43D0020843D0020C8300020E0A6061090
:104A8000D27E0020EC280020017F0020047F00203F
:104A9000187F0020107F0020B3780321304699460C
:104AA0000DF07CFE4FF6FF73A34A14889C423FF43E
:104AB00002AEA0427FF4FFADB9F1000F00F03B87DA
:104AC0009E4B1B7843B19E4B5A7A154622B99D4A9C
:104AD0001278002A41F01A82DFF898829A4F00205B
:104AE00001219A4B9A4A18701170D8F80030EFF3F0
:104AF000108272B6D3E8CF4F0121002CFAD1C3E85F
:104B0000441F002CF6D1BFF35F8F3B6DD8F8001027
:104B100001333B65042387F84990C8F8042087F8DF
:104B20004830C1E88F0F82F31088C4E5894CA27A1F
:104B3000002A3FF4C0AD2DA9F01C062201930DF010
:104B400077FE21462DA80DF01FFE00287FF4B3AD9F
:104B5000B178002940F0E786019B092B40F2E386FB
:104B600006F10802093B12F8010F10B10131994218
:104B7000F9D1082940F2D78606F109031F4606F14C
:104B8000010C8C4413F8012B02F1200E5FFA8EFE0B
:104B9000A2F14100192898BF7246642A40F0978616
:104BA0001A7802F1200E5FFA8EFEA2F14100192858
:104BB00098BF7246752A40F08A865A7802F1200E14
:104BC0005FFA8EFEA2F14100192898BF7246612A51
:104BD00040F07D869A7802F1200E5FFA8EFEA2F1F7
:104BE0004100192898BF72466C2A40F07086DA7826
:104BF00002F1200E5FFA8EFEA2F14100192898BF43
:104C00007246732A40F063861A7902F1200E5FFA29
:104C10008EFEA2F14100192898BF7246652A40F025
:104C200056865A7902F1200E5FFA8EFEA2F14100FB
:104C3000192898BF72466E2A40F049869A7902F187
:104C4000200E5FFA8EFEA2F14100192898BF72462D
:104C5000732A40F03C86DA7902F1200E5FFA8EFE6C
:104C6000A2F14100192898BF7246652A40F02F86AC
:104C70003848FEF775F81EE503213046B4780DF08C
:104C80008DFD4FF6FF722C4B1B8893423FF413AD02
:104C900098427FF410AD002C40F0CD877379002B43
:104CA00000F0C98701212C4B284A1B881170002B6A
:104CB0003FF401AD294B1B78002B7FF4FCAC04F0D2
:104CC0007FFA4FF47A72002325F076FE244CC4E973
:104CD000000104F075FA4FF47A72002325F06CFE9F
:104CE000204CC4E90001E6E41F4C06222DA9B01CAB
:104CF0000DF09EFDD4E9003213432DAF40F0348512
:104D00001A4C2368002B00F062860023184903E048
:104D10002268934280F05B863846CDE901130DF09E
:104D200033FD029B0199013306310028F0D138464A
:104D300014F0EEF9BFE400BFEC280020177F00203C
:104D400010460020097F0020F0280020037F00206B
:104D5000127F0020B8360020D27E0020117F002074
:104D6000F8300020B0300020C8300020B43D0020D2
:104D7000843D0020C4360020032130460DF00EFD96
:104D8000A04B1B8813B198423FF495AC7279002A6E
:104D900041F06080DFF8AC829B4FD8F80010EFF351
:104DA000108372B6D1E8CF4F0120002CFAD1C1E8B0
:104DB000440F002CF6D1BFF35F8FB2FA82F464097E
:104DC0000021D8F80000C8F804307C71C0E88F1FBB
:104DD00083F31088002A7FF46EAC8C4B597A00293B
:104DE00041F0808101215A601A729A72197070E73D
:104DF000032130460DF0D2FC824B1B8813B1984240
:104E00003FF459AC052130460DF0C8FC00283FF4B2
:104E100052ACF279A12A01F072800023012A01F03C
:104E20008D81312A7FF447AC4E3398427FF443ACF6
:104E30000246F11D2DA802F059FE2D9B002B41F0DA
:104E4000E7817348847924B1427A002A01F0D48240
:104E50001C46704AD2E90032134341F04782DFF822
:104E6000E481694FD8F80030EFF3108272B6D3E8CE
:104E7000CF0F01210028FAD1C3E8401F0028F6D146
:104E8000BFF35F8F2D9CC8F80420002C01F0DE8159
:104E90004FF0000E7B6C01337B640024D8F80030A7
:104EA000C3E88F4FD8F8043083F31088BEF1000FA9
:104EB0003FF401AC04F084F900234FF47A7225F03A
:104EC0007BFD554B1C70554BC3E90001FFF7F3BB4D
:104ED000032130460DF062FC4A4B1B8813B1984207
:104EE0003FF4E9AB00204E4A7379107023B14D4A6C
:104EF0001188002940F0D58704F062F94FF47A72E6
:104F0000002325F059FD484C193041F10001C4E956
:104F10000001FFF7D0BB032130460DF03FFC394BB9
:104F20001B8813B198423FF4C6AB032130460DF005
:104F300035FC3C4B1B8883427FF4BDAB334B1A7866
:104F4000022A17467FF4B7AB717900200D46002185
:104F5000364A012DC2E9000193F8088041F04081F2
:104F6000597A334A19B91078032841F22B82304616
:104F70000621CDE901320DF011FCDDE901322F46A9
:104F80002C490F7000211878022841F04481187ACA
:104F9000404541F006824FF0000C587A83F808C073
:104FA000002801F00182062182F800C0197000205B
:104FB0000021214BC3E90001FFF77DBB03213046EF
:104FC0000DF0ECFB0F4B1B8813B198423FF473AB11
:104FD000032130460DF0E2FB737B8146002B7FF40A
:104FE0006AAB2DA9154C06222D93701D8B800F46A0
:104FF00001930DF01DFC2268002A01F0D280019B74
:105000000F4925E0D07E0020F02800209C3D0020A4
:1050100010460020C8300020047F00208830002087
:10502000117F0020D27E0020B0300020D030002040
:105030000F7F00200E7F0020D8300020B43D0020DC
:10504000843D0020C43600202268934281F03580E0
:105050003846CDE901130DF097FB029B019901330E
:1050600006310028F0D101268B4CD4E900321343DD
:1050700041F0A580894B1B78002E01F099803846BD
:10508000FDF732F904F09CF84FF47A72002325F012
:1050900093FC0022824B834C1A70834BC3E90001BE
:1050A0002378002B41F079808048054680460368CC
:1050B000EFF3108272B6D3E8CF0F01210028FAD1A6
:1050C000C3E8401F0028F6D1BFF35F8F00236A605A
:1050D000774DD8F800102F462370EB70C1E88F3F52
:1050E00082F31088734A13709246D8F80030EFF3B9
:1050F000108272B6D3E8CF0F01210028FAD1C3E89D
:10510000401F0028F6D1BFF35F8FEB6CC8F8042076
:105110000133EB6416B16B6D01336B650023D8F876
:105120000010C1E88F3F82F3108801249FED587B67
:10513000614A1946C2E90033C2F807305F4A604845
:10514000A2F800905F4A14705F4A13705F4A1370B0
:105150005F4B4E2283ED007B5E4B83ED007B5E4B0D
:1051600083ED007B25F058FC9FED497B5B4A0021D5
:1051700082ED007B5A488E2225F04EFC00239FEDE5
:10518000447B584AD8F800001370574A1370574AA6
:1051900082ED007B564A1370EFF3108172B6D0E8AF
:1051A000CFCF5FF0010EBCF1000FF8D1C0E84CEF9B
:1051B000BCF1000FF3D1BFF35F8FD8F80000C8F83F
:1051C00004103C71C0E88F3F81F3108848462146A7
:1051D00019F0F4FF00230646002840F08787444A70
:1051E000147003F0EDFF4FF47A72002325F0E4FB16
:1051F00042F21073C0183F4B41F10001D8F8002073
:1052000018605960EFF3108372B6D2E8CF0F012116
:105210000028FAD1C2E8401F0028F6D1BFF35F8F03
:10522000D8F80020C8F804303C70C2E88F6F83F3D0
:105230001088FFF740BA032130460DF0AFFA2E4B2D
:105240001A8812B1904200F00681032130460DF019
:10525000A5FA1A4B1B8813B198427FF42CAA2DA8EB
:10526000FEF7EAFA134B9A461B784BB99DF8B83013
:10527000002B40F0FF869DF8B430012B00F0FA8639
:1052800044B0BDE8F047FDF795B800BFAFF300802C
:105290000000000000000000C8300020097F00204E
:1052A000047F0020057F002088300020C4360020C5
:1052B000F0280020127F00209C3D0020D27E00209C
:1052C000C04500200C7F00200F7F00200E7F0020B3
:1052D000B0300020D0300020D8300020F030002046
:1052E0001C460020137F0020147F0020F83000208F
:1052F000117F0020A0300020D07E00200321304606
:105300000DF04CFA5E4B74791A8812B1904200F09D
:105310009F80002C40F0688503F052FF4FF47A72B2
:10532000002325F049FB574B574D1C70574BA8469F
:10533000C3E90001032130460DF030FA0622544B38
:105340002DA91880B0182D94ADF8B8400DF070FA62
:105350002DA8FCF7C9FF03F033FF4FF47A72002346
:1053600025F02AFB42F210734A4AC0184A4B41F119
:105370000001C3E9000114702B68EFF3108272B6CC
:10538000D3E8CF0F01210028FAD1C3E8401F00283D
:10539000F6D1BFF35F8F414B41491F461C71D1E9E4
:1053A00000310B436A6040F08B8623460024394667
:1053B000BB70A7F805404FF00107D8F800300F7018
:1053C000C3E88F4F82F31088FCF726FE9FED2A7BFF
:1053D000344B354AC3E90044C3F80740334B82EDF0
:1053E000007B83ED007B324B4E2283ED007B314B03
:1053F00021461C70304B31481C7025F00DFB9FED91
:105400001E7B2F4B8E2221462E4883ED007B25F0FC
:1054100003FB9FED197B2C4B2C4D2D4E04A885EDE5
:10542000007B1C70347002F073FC8E2204A92548A6
:1054300025F0BAFA244B37701C7003F0C1FE4FF40C
:105440007A72002325F0B8FAC5E90001FFF733B9F5
:10545000002C00F0F1850022002000211A801D4B55
:105460001D4CC3E900011D4D1D4B2A702270C3E97C
:105470000001FFF720B900BF00000000000000009D
:10548000D07E0020047F0020C43600208830002019
:10549000D27E00200C7F0020A0300020F0280020C9
:1054A000C83000209C3D0020B0300020D0300020CB
:1054B000D83000200F7F00200E7F0020C045002044
:1054C000F03000201C460020147F0020F83000201F
:1054D000137F0020E0300020157F0020167F002081
:1054E000E83000209178022900F08E8200297FF4B4
:1054F000E2A89FEDA57BA64AA64B1170A64A19709B
:105500001170A64AA64B1170A64A83ED007B11804C
:10551000A54A01911170FCF797FE9FED9B7B0199C5
:10552000A24BA34A19605960C3F80710A14B118020
:1055300083ED007BA04BA14A1970A14B82ED007B4B
:105540001970A04BA0481970A04BA14A83ED007BB5
:10555000A04B82ED007B83ED007B9F4B017083EDC0
:10556000007B9E4B4E229E4883ED007B25F054FA33
:105570009FED857B9B4B8E2201999B4883ED007BA1
:1055800025F04AFA9FED807B0199984A984811705E
:10559000984B994A017082ED007B98489A79017086
:1055A0007AB1DA796AB91A7A5AB95A7A4AB993E861
:1055B00003002D902DA80193ADF8B8100EF0FEFC5D
:1055C000019B00248E4AC3E900441C811470FCF73F
:1055D00023FD8C4B8C4AC3E9004410689C60EFF3B8
:1055E000108172B6D0E8CFCF0123BCF1000FF9D102
:1055F000C0E84C3FBCF1000FF4D1BFF35F8F834B89
:1056000010685160C3F80140A3F805401C811C706C
:10561000C0E88F4F81F31088FFF74DB84FF6FF7247
:10562000934209D15D4B1B78002B3FF444A8FFF750
:1056300009BA0026FFF7E4B998427FF43CA8FFF7C7
:1056400001BA03F0BDFD4FF47A72002325F0B4F9DE
:10565000D4E9002390429941FFF429A8FFF710B83C
:105660000321304601930DF099F8731D0646184644
:10567000019B2DA92D9306228B800D460F460DF020
:10568000D7F84FF0010C624A62496348634C80F8D6
:1056900000C00E80D5E90001106091802268019B56
:1056A000002A00F0BD825E4903E02268934280F048
:1056B000B7823846CDE901130DF066F8029B0199D7
:1056C000013306310028F0D101200023554A564C01
:1056D0001070564A31465648237013700FF06CFB19
:1056E000FEF7E9BF2E4CD4E900310B433FF494A9F7
:1056F000164603F065FD4FF47A72002325F05CF93D
:10570000D4E900239042994105F4706580F08A82C3
:10571000B5F5A06F7FF480A91E4C2378002B40F0D4
:10572000C782394A1368EFF3108172B6D3E8CFCF3E
:105730000120BCF1000FF9D1C3E84C0FBCF1000F00
:10574000F4D1BFF35F8F002330485160C3701268FB
:105750002370C2E88F3F81F3108801223946354813
:105760000FF02AFBFEF7A7BF03F02AFD4FF47A7271
:10577000002325F021F9D4E9002390429941FFF458
:10578000D6AAFFF7BDBA00BF00000000000000006D
:10579000017F0020057F00200B7F00200C7F002070
:1057A000C8300020D27E0020187F00209C3D0020C1
:1057B000D07E0020D03000200F7F0020B0300020AD
:1057C0000E7F0020167F0020157F0020E030002093
:1057D000D8300020E8300020A0300020B830002071
:1057E000C0450020F03000201C460020137F002020
:1057F000147F002010460020F8300020117F002088
:10580000107F0020B8360020C4360020F028002089
:10581000CC360020EC280020097F0020B43D002079
:10582000843D0020177F00200A7F0020037F002096
:10583000B8A60610E8A6061094457FF41BA8122807
:1058400026D906F12D0E25186348AEF1130402E0A7
:10585000A6453FF485A814F8013F027803F1200122
:10586000A3F1410CC9B2BCF1190F98BF0B4602F16C
:105870002001A2F1410CC9B2BCF1190F98BF0A4630
:105880009A4200F10100E3D00EF1010E7545DBD123
:10589000524CA37A002B7EF40EAF092130460CF057
:1058A00083FF00F4F853B3F5A06F7EF404AF062233
:1058B0002146B01C0CF0BCFF337A0C213046A3719A
:1058C0000CF06CFF012320816381FEF7F4BE9C4540
:1058D0007FF458A9122926D906F11B057E183E4AE5
:1058E000A5F1130C02E0AC453FF4C2A91CF8013F3E
:1058F000117803F12000A3F1410EC0B2BEF1190FDF
:1059000098BF034601F12000A1F1410EC0B2BEF1E3
:10591000190F98BF0146994202F10102E3D06B1CB6
:105920009E421D46DBD10023C4E90033A360FCF78F
:10593000B7FFFEF7C0BE2A4B1B78002B3EF4BBAE70
:105940000122284B284899790270002940F074827E
:1059500001222146254844B0BDE8F0470FF02CBA9B
:10596000384613F0BBFBFEF7A6BE012420482149B0
:1059700004700A68EFF3108072B6D2E8CFCF01242A
:10598000BCF1000FF9D1C2E84C4FBCF1000FF4D1CB
:10599000BFF35F8F0424184A486082F84930136DC2
:1059A00009680133136582F848400023C1E88F3F3E
:1059B00080F31088FCF7FEFC104B114A1B7811781D
:1059C00083F001030F4A0B401370FEF7EEBF384619
:1059D00013F0B8FBFEF76FBE8CAE0210B836002095
:1059E000097F0020104600200A7F0020B0A6061084
:1059F000127F0020C4360020F0280020047F002001
:105A0000017F0020107F00204FF00000AC4A9FED86
:105A1000AA7B107000224FF00106AA4BAA491A6017
:105A20005A60C3F80720A94B054683ED007BA84BBD
:105A30000E701870A74B884683ED007BA64B4E2254
:105A400083ED007BA54B002183ED007BA44B83ED10
:105A5000007BA44B83ED007BA34B1870A34B187005
:105A6000A34824F0D9FF9FED947BA24B8E22002106
:105A7000A14883ED007B24F0CFFF9FED8F7B9F4BF0
:105A80001D709F4B1D709F4B83ED007B9E4B1D70C7
:105A90009E4B1D709E4B1D70FCF7D6FB03F090FBD8
:105AA0004FF47A72002324F087FF0022994B9FED78
:105AB000827BC3E90001984B1046C3E900221A819A
:105AC00000221221954BC3E900229A60944B188062
:105AD000944B08461D70944B1D70944B83ED007BD6
