:020000041000EA
:10000000002008205B0100101B0100101D010010E2
:100010001101001011010010110100101101001058
:100020001901001019010010190100101F01001022
:10003000110100101901001021010010230100100E
:100040001101001011010010110100101101001028
:100050001101001011010010110100101101001018
:100060001101001011010010110100101101001008
:1000700011010010110100101101001011010010F8
:1000800011010010110100101101001011010010E8
:1000900011010010110100101101001011010010D8
:1000A00011010010110100101101001011010010C8
:1000B00011010010110100101101001011010010B8
:1000C00011010010110100101101001011010010A8
:1000D0001101001011010010110100101101001098
:1000E0001101001011010010110100101101001088
:1000F0001101001011010010110100101101001078
:100100001101001011010010110100101101001067
:10011000EFF30580103800BE00BE00BE00BE00BE7A
:1001200000BE00BEF2EB8871086406102864061059
:100130009C01001090A31AE7D3DEFFFF42012110BB
:10014000FF01000020930600793512AB00201E4904
:10015000086006C881F3088810474FF050400068D7
:1001600008B10020F3E70DA40ECC002902D000F066
:1001700012F8F9E71549164A002000E001C1914242
:10018000FCD114498847144988471449884700BE60
:10019000FDE701C901C29A42FBD3704728640610EB
:1001A0001001002040310020589406100000082063
:1001B00000000820589406100010082000100820A5
:1001C000000000007047000008ED00E04031002012
:1001D000BC6D0020B96600106D0F0010B1660010F4
:1001E000704700BF00B5042183B0019004F080FE89
:1001F000019803B000BD00BF2DE9F04F0446B7B031
:100200001020019104F070FE002301250199C0F82F
:100210000930C0F80130C0F80530C3600B7800F138
:100220001002032BC4E901222060057000F0FA805F
:10023000682348224FF0280ACDE905325823CDE93A
:10024000033A782302930823442201936423CDE9DF
:10025000153254232422CDE9133234237422CDE9FC
:1002600011324C231422CDE90F322C236C22CDE91C
:100270000D325C237C2208933C23CDE90A321C23F7
:1002800007930C23099304230C9342233493622392
:100290001B93222352222D937223CDE92E32122357
:1002A0003222CDE932326A234A22CDE930322A2382
:1002B00035935A231C937A233A221A931A23CDE9B1
:1002C00025230A224623CDE9272366222623CDE9CA
:1002D000292356227623CDE92B2336231622199380
:1002E0004E23CDE91D236E222E23CDE91F235E224E
:1002F0007E23CDE921231E233E22CDE9173206239A
:100300000E224026CDE923234FF0600820275025F8
:100310004FF0700E4FF0300C4FF010094FF0380BCB
:100320004FF0180A02234A79002A36D0DDE92EE57B
:10033000DDE9329CDDE925BA4370319B349E06939A
:10034000309BDDF86C800593359B2D9F04931C9B9F
:1003500003931A9B0293279B0193289B1693299B37
:1003600015932A9B14932B9B13932C9B1293199BED
:1003700011931D9B10931E9B0F931F9B0E93209B0D
:100380000D93219B0893229B0B93189B0A93179B19
:100390000793239B0993249B0C938B79C3B1DDE9CD
:1003A0001586DDE91357DDE911CE0C9ADDF828B08A
:1003B0004270DDE90F2906920E9ADDF81CA0059225
:1003C0000D9A0492089A03920B9A0292099A01924A
:1003D0004A784AB1DDE90586DDE90357DC46D146B6
:1003E000019ADDF808E042708A7822B12E46F04684
:1003F000674680F80190CA780AB1464647700A7984
:1004000002B1467053B1D1F80B20D1F80750B1F8C2
:100410000F30C0F80250C0F806204381204637B0A4
:10042000BDE8F08F69224FF0490A4FF0290BCDE962
:10043000052A5922CDE9032B792202920922019241
:100440004522169265221592252214925522139266
:100450007522129235221192152210924D220F927E
:100460006D220E922D220D925D2208927D220B921A
:100470003D220A921D2207920D22099205220C921A
:100480004322349263221B9223222D9253222F92D5
:1004900073222E9233223392132232924B223192C4
:1004A0006B2230922B22457035925B221C927B226C
:1004B0001A923B2225921B2226920B222792472238
:1004C00028926722299227222A9257222B9277225A
:1004D0002C923722199217221D924F221E926F22C0
:1004E0001F922F2220925F2221927F2222923F226E
:1004F00018921F2217920F222392072241264FF0B3
:100500006108212751254FF0710E4FF0310C4FF04B
:1005100011094FF0390B4FF0190A249203E700BF7D
:10052000012904D8D2E900031B1A402B01D0002076
:10053000704710B50C46C2B00192FF214FF4807293
:1005400002A825F0BDF9019B02A8D3E90012521AB6
:1005500025F0F2F904F2FB3000034FF480510190D2
:1005600025F0F2F901984FF4807202A925F004FAFF
:10057000012042B010BD00BF2DE9F0411F4D0746DC
:100580002E6804F05BF899B34FF47A72002325F0DB
:10059000BFF9DFF8788006EB4606340148F804001E
:1005A000384624F087FC2822904228BF1046631D5D
:1005B00008EB06160021307103EB080025F080F9E6
:1005C0003946327925F0B8F90D480E4B0268511CB6
:1005D0000C2928BF0C212A6801600132A3FB0243C9
:1005E000DB0803EB4303A2EB83022A60BDE8F08142
:1005F000054BA3FB00308009CBE700BFE0330020B0
:1006000024340020ABAAAAAAD34D621028340020BB
:100610009C46002300B58BB08E46CDE90633CDE96C
:100620000833012342F00102ADF816008DF81520C1
:10063000DCE90010421A8DF818E08DF8143022D150
:1006400005A902A8089201F009FEDDE90212521A7A
:10065000402A049B08D089B9079818B10999091A4A
:1006600004F046FC0BB000BD0E48CDE9001325F0A8
:100670000BF9DDE9001301200B4A10700846591AE6
:1006800004F036FCE8E710460191009204F02CFCDF
:10069000DDE9002125F050F9009A07900244099203
:1006A000CEE700BFE4330020966D0020000000007C
:1006B0002DE9F041804684B0104616460F4624F0DE
:1006C000F9FB0446D8B1302828BF3024204604F076
:1006D0000BFC05463146224606190090029625F08D
:1006E0002BF93946404602226B460196FFF790FFF0
:1006F0002146284604B0BDE8F04104F0F9BB9FED67
:10070000087B3946404602226B468DED007B029401
:10071000FFF77EFF04B0BDE8F08100BFAFF30080BB
:1007200000000000000000002DE9F04FD1E9005367
:100730008B46DBF808909D42A9EB050383B018BFF8
:100740004D603F2BDFF8448174D8DBF80060AC1BB0
:1007500004F1004340333F2B40F29080402C2CBFEB
:10076000271904F140076FF000439F4228BF1F463E
:10077000384604F0B9FBAE4282467DD0621E052A9F
:1007800033466FD9811B0139022902466AD924F008
:10079000030C4FEA940E06EB0C0053F8041B834243
:1007A00042F8041BF9D1644510D01A4612F8011B17
:1007B000D44495420AF82E1008D05A788CF80120BB
:1007C0009A1C95421CBF9B788CF8023054442346F7
:1007D000C6469C4608F14004019375460CF1100C86
:1007E0000FCDA5420EF1100E4CF8100C4CF80C1C5D
:1007F0004CF8082C4CF8043CEFD1019B03F1400568
:1008000026B13046A9EB060104F072FBCBE900A546
:100810005744CBF808701B4B984503D1012003B017
:10082000BDE8F08FDBF80890DFF85880A9EB0503EE
:100830003F2B8AD9464608F14007344610350FCC85
:10084000BC4206F1100645F8100C45F80C1C45F8A2
:10085000082C45F8043CF0D1DBF804504035CBF8C7
:100860000450D8E753465444721E12F8011F03F88F
:10087000011B9C42F9D1AAE70346A9E702481AF0F6
:100880000DFC00BF00C03F10E059021000B03F1047
:100890002DE9F0410446A6B0402004F025FB234694
:1008A000024600F1400C0590CDF81CC004F1400157
:1008B0001D685C68D3F808E0D86810338B42156077
:1008C0005460C2F808E0D06002F11002F0D105A92E
:1008D0000BA8CDF818C001F0A7FD0B9BBDF8324066
:1008E0009DF834108BB94B1E0B2B00F2D182DFE840
:1008F00013F0C501AC01870136012E011D01120163
:10090000A700530044002F001F002046B24AFFF703
:10091000CFFE0E9818B11099091A04F0E9FA05985B
:1009200018B10799091A04F0E3FA26B0BDE8F0817E
:1009300001F0DEFA9DF83410002800F0E581002275
:1009400020461FABCDE91F222192FFF761FEE0E7B1
:100950001FA801F017FC1FA918A8FFF74DFC20469F
:1009600000220B2118ABFFF753FE18980028D0D0B7
:100970001A99091A04F0BCFACBE7DDE90E239B1A99
:10098000042B03D11378522B00F048820A21204611
:10099000924AFFF78DFEBCE7DDE90E32D11A01293C
:1009A00000F3B7819A4218BF1D784FF003000ABFC9
:1009B00000252E46002604F097FA012345704FF0DB
:1009C00000058749037009688570B14200F2A7816C
:1009D0000090062004F088FA0346009A032110884C
:1009E000DD701880907800939870104604F080FABB
:1009F0004FF00002009B0C209A8004F075FA4FF033
:100A000000060546009BAE711A6818462A609B884E
:100A10000621AB8004F06CFA05F10C07EE7105F1CC
:100A2000080600222046092118AB1A97CDE918566E
:100A3000FFF7EEFD7F1B3946284604F059FA68E7B8
:100A40001FA801F09FFB674B1E7806F011FB9DF875
:100A50007F109DF87E30BDF8812001919DF88010B7
:100A600080460A209DF87D709DF87C50009303918C
:100A7000029204F039FAA5F10305B5FA85F50346AB
:100A8000009A019902714171029A03996D094670A9
:100A900080F80280C7708171C5711A81022214200A
:100AA0001A70249E009304F01FFA009B05461A68F2
:100AB000867202605A680A2142601A8902811846C9
:100AC00004F016FA082120464FEA164C259C85F8BA
:100AD0000CC04FEA166C85F80DC024FA01FCAC730B
:100AE00085F80FC04FEA144C240E26FA01F36C74FB
:100AF00005F11204EB72209400221FAB85F810C0A0
:100B000005F114041F952194FFF782FD1421284656
:100B100004F0EEF9FDE6DDE90E239A4200F0C5800F
:100B200007212046304AFFF7C3FDF2E62F4802F0C6
:100B3000CBFA2F48FFF720FD002220469DF8341005
:100B40001FABCDE91F222192FFF762FDE1E62748A6
:100B500002F0A6F9002800F0C9802648EAE7DFF88D
:100B60009CC011ADBCE80F000FC59CE8070085E8EC
:100B7000070011AA0EA918A801F014FF9DF8603013
:100B8000002B00F0BA80194911AA1FA802F064F9DD
:100B90009DF87C30002B00F065811748FFF7ECFCD6
:100BA000002220469DF8341008ABCDE908220A92B5
:100BB000FFF72EFD209822AB984203D022990131F5
:100BC00004F096F919981BAB98423FF4A2AE1B991A
:100BD000013104F08DF99CE6F8590210F05A021028
:100BE00024340020986D0020A45A0210683600209A
:100BF000545A02103C5A0210085A0210D0A2021095
:100C0000A6491FA801F082FE182004F06DF90546E0
:100C10000DF17C0C00F11803CDE919331890BCE8F4
:100C20000F0028606960AA60BCE80300EB602861DF
:100C3000696120469DF83410002218ABFFF7E8FCEC
:100C40001821284604F054F963E60C2004F04CF90E
:100C50000546934B05F10C0C07CB1FAB2860696070
:100C60002046AA6002210022CDE920CC1F95FFF783
:100C7000CFFC0C21284604F03BF94AE6042004F09E
:100C800033F90546874B05F1040C186800222860EB
:100C9000012120461FABCDE920CC1F95FFF7B8FC02
:100CA0000421284604F024F933E67F48FFF764FC6A
:100CB00001227E4B1A7003F0C1FC002900F0CD80A8
:100CC0004FF47A72002324F023FE0022784DFA308C
:100CD0002860204642F10004CDE91F229DF834101F
:100CE00021921FAB6C60FFF793FC12E62046714A1D
:100CF0009DF83410FFF7DCFC0BE62046199A9DF8AE
:100D00003410FFF7D5FC5DE720466B4AFFF7D0FCB7
:100D1000FFE509212046694AFFF7CAFCF9E583701F
:100D2000674B684A1968684B0B31A3FB01C5ED0896
:100D300005EB4505A1EB85010C31891BA3FB015394
:100D4000DB0803EB4303A1EB830303EB430319012C
:100D5000029002EB031306205758CDE9001304F06C
:100D6000C3F80546029AC77010880321288090783E
:100D7000A870104604F0BCF83A0A2A713A0C6A715D
:100D80000C2004F0B1F806463A0E82712A688046BB
:100D90000260AA8806218280284604F0A9F8019BF7
:100DA00006F108001A7906F10C07F2710646002ACE
:100DB00064D0009D434B0535042A1D4460D9082AA0
:100DC000114638BF08216FF00043009201F108027C
:100DD0009A4228BF1A461046174604F085F8D8F8FC
:100DE000003029460360D8F804300546009A436075
:100DF000083024F0A1FD009A0C218318404600938E
:100E000004F076F8009B09211993EB191A9300223C
:100E1000204618AB1895FFF7FBFB0CE65378013220
:100E2000432B7FF4B3AD12F8013F562B7FF4AEADE8
:100E30005378312B7FF4AAAD2448FFF79DFB0122A4
:100E4000234B1A7003F0FAFB99B14FF47A72002326
:100E500024F05EFD00221F4D39E71F4BA3FB00303D
:100E6000800932E72046209A9DF83410FFF720FCD5
:100E7000A0E6194BA3FB00308009EBE74546D0E51F
:100E80002946009224F058FD009A45461644C8E5CC
:100E90002046124AFFF70CFC3BE500BF6C360020F1
:100EA000A8A20210B4A20210C45A02109A6D002027
:100EB00058310020205A0210705A0210885A02102D
:100EC000E033002028340020ABAAAAAADC5A021082
:100ED000976D002050310020D34D6210185B021036
:100EE00010B5032ABDF808C001D1022901D00020A5
:100EF00010BD0F4A10780028FAD0BCF13F0FF6D988
:100F00009C460C4CA6460CF1100CBEE80F004CF8A9
:100F1000043C094B10349E454CF8100C4CF80C1C4A
:100F20004CF8082CEED10023014A4020137010BD6C
:100F3000966D0020E43300202434002000B5032AFD
:100F4000BDF804E001D1012900D000BDBEF1400F81
:100F500005D00020044A5DF804EBFFF7A9BB184652
:100F60005DF804EBFFF794BC485B021080B590B0CD
:100F700007F0E6F9734801F097FE734B18700028EC
:100F800000F0D6807148FFF7F7FA07F0E7F900287C
:100F900000F0D0804AF6012300206946ADF8003009
:100FA000002407F069F86A4D6A4E6B4FDFF8D08174
:100FB000DFF8D0A100214FF0FF3006F0F3F801F088
:100FC0003BF809A801F0DEF82B782BB10E9AD8F87F
:100FD00000309A4200F0818006F04AF838B30020D1
:100FE00006F04AFE18B30B234FF0010909A901A826
:100FF000CDE90493FFF700F9DDE90123CDE90623EC
:10100000039B01A804A9089301F028F9DDE9012355
:101010009B1A402B30D022B103991046891A03F055
:1010200067FF069818B10899091A03F061FF03F0E9
:1010300005FB00294DD04FF47A72002324F068FCA0
:1010400033782BB1D7E90023904274EB030374D2B9
:10105000424B1A78002AADD0414AD2E900128842A8
:1010600074EB0202A6D31C7006F012F8322003F0D3
:10107000B9F906F017F89DE70321002006F018FEE5
:10108000019A0028C7D00E9B36489DF82AC0C8F8A0
:10109000003080F800C0344B9DF829C0334883F8F5
:1010A00000C09DF825C0324B80F800C09DF826C0D6
:1010B000304883F800C09DF827C02F4B80F800C04F
:1010C0009DF82800039985F800901870002AA4D193
:1010D000A7E7AAFB00308009B2E7224B9DF82A203F
:1010E0001B789A427FF478AF1F4B9DF829201B781C
:1010F0009A427FF471AF1D4B9DF825201B789A42D0
:101100007FF46AAF1A4B9DF826201B789A427FF431
:1011100063AF184B9DF827201B789A427FF45CAF91
:10112000154B9DF828201B789A427FF455AF7EE737
:10113000124828E700F0AEFE2CE700210846347084
:1011400003F0BAFB68360020986D00207C5B02102B
:10115000996D0020976D0020503100209A6D00207D
:10116000583100209C6D0020A06D00209E6D002055
:101170009F6D00209B6D00209D6D0020645B021020
:10118000B0360020D34D62100149024801F07ABD0B
:10119000082A0020683600200048704720A302106B
:1011A0000048704734A3021000487047FCA20210A8
:1011B00030B58DB058B940F209434FF4417E264D09
:1011C0006B802549A5F800E008460DB030BD032826
:1011D00022D03FD8214B53F820100029F4D00846E4
:1011E000019123F067FE2028044628BF202404F143
:1011F000010E4FEA4E0E0199174D4EF4407E002825
:10120000DFD028464A1E931C5B1A12F801CF9C427D
:1012100020F802CFF7D8D4E72122002102A824F039
:101220004FFB212102A805F081FC02A823F042FE19
:10123000094D40B12A4602AB1C1813F8011B9C4211
:1012400022F8021FF9D100F1010E4FEA4E0E4EF4C2
:10125000407EB6E70021B7E790330020ECA20210F1
:101260001B4B1B7893B11B4B1B787BB11A4B1A7825
:1012700062B91A4A12784AB9194A128832B9082052
:1012800010B512F033FF144B08B110BD7047154A6A
:10129000D2F800C0EFF3108172B6DCE8CF4F5FF0F8
:1012A000010E002CF9D1CCE844EF002CF5D1BFF3AE
:1012B0005F8F4FF0010C0C4C516084F803C0126832
:1012C00083F800C0C2E88F0F81F3108810BD00BF03
:1012D000A46D0020A16D0020A36D0020A56D00204D
:1012E000746D0020C03600200C2A0020334B1B7880
:1012F00013B1334B1B7803B1704710B53149034626
:101300000A7884B0002A4AD12F4C2068EFF310826B
:1013100072B6D0E8CFEF5FF0010CBEF1000FF8D14C
:10132000C0E84ECFBEF1000FF3D1BFF35F8F4FF097
:101330000000087025496260C87000202168C1E87B
:101340008F0F82F3108818689B8802900121204A31
:1013500002A8ADF80C3018F097FA002825D1012327
:10136000174A21681370EFF3108272B6D1E8CFEFFD
:101370005FF0010CBEF1000FF8D1C1E84ECFBEF115
:10138000000FF3D1BFF35F8F104962600B710B70D8
:101390002368C3E88F0F82F3108804B010BD01905A
:1013A00012F0C2FE019B0749AEE70022094BC3E9D8
:1013B00000229A60FFF754FFEFE700BFA46D002002
:1013C000A56D0020A36D0020C03600200C2A00204F
:1013D000746D0020B436002000232DE9F041454D06
:1013E000454C2B702268EFF3108172B6D2E8CF6FB4
:1013F0000120002EFAD1C2E8460F002EF6D1BFF32D
:101400005F8FDFF810813D4F3D4E6160D8E90021CC
:101410000A433380BB80BB7122D1BB7004233B7075
:1014200022680023C2E88F3F626882F31088354A41
:101430001178354AC2E90033936079B1334B1B7898
:1014400063B1DFF8D48098F800303BB92B782BB922
:1014500033881BB9082012F049FE80B3BDE8F08143
:1014600003F0ECF801BB2A4BA3FB003080090021FC
:10147000D8F80030D8F804209842914134BF0121B7
:1014800000211343B970C9D003F0D8F891B14FF4DB
:101490007A72002324F03CFAD8E900120023884233
:1014A0009341BBD20223BAE74FF47A72002324F0AF
:1014B0002FFADCE7164BA3FB00308009ECE722682B
:1014C000EFF3108372B6D2E8CF5F0121002DFAD17D
:1014D000C2E8451F002DF6D1BFF35F8F01222168BE
:1014E000636088F80020FA70C1E88F0F83F31088DA
:1014F000B4E700BFA56D0020C03600200C2A0020F4
:10150000746D0020A46D0020B4360020A16D002071
:10151000D34D621060310020A36D00200000000058
:10152000042800D07047002AFCD070B51C46134632
:10153000127886B0602A00F0B4800FD8162A00F026
:101540005081332A00F03E81072A05D1AC4A154666
:10155000927A002A40F07A8106B070BDDD2A00F050
:10156000F980EF2A00F0D480DC2AF5D1A54A127860
:10157000002AF1D0A44A1278002AEDD11A7C002A60
:1015800040F0BA835A7E002A00F04F83987E0828E4
:10159000044640F24A8303F11B02164603F113018D
:1015A00001EB000E12F8011B01F12000C0B2A1F105
:1015B000410CBCF1190F98BF0146642940F0F2823A
:1015C000117801F12000C0B2A1F1410CBCF1190F5A
:1015D00098BF0146752940F0E582517801F120005D
:1015E000C0B2A1F1410CBCF1190F98BF01466129AD
:1015F00040F0D882917801F12000C0B2A1F1410CF5
:10160000BCF1190F98BF01466C2940F0CB82D1780C
:1016100001F12000C0B2A1F1410CBCF1190F98BF3B
:101620000146732940F0BE82117901F12000C0B259
:10163000A1F1410CBCF1190F98BF0146652940F09A
:10164000B182517901F12000C0B2A1F1410CBCF18D
:10165000190F98BF01466E2940F0A482917901F1DB
:101660002000C0B2A1F1410CBCF1190F98BF014696
:10167000732940F09782D17901F12000C0B2A1F125
:10168000410CBCF1190F98BF0146652940F08A82D0
:10169000981C062202A90CF04BFA02A8FFF726FEBE
:1016A0005AE79B78022B00F08081002B7FF454AF27
:1016B0009FED517B5549524A0B7052485449136073
:1016C00081ED007B0370C2E901334F48514A524912
:1016D00003700B801068EFF3108172B6D0E8CFEF83
:1016E0005FF0010CBEF1000FF8D1C0E84ECFBEF1A3
:1016F000000FF3D1BFF35F8F4848D2F800C05160AC
:10170000C0F801300370CCE88F3F81F3108823E7E5
:101710009A78013A0C2A3FF61FAF01A151F822F046
:101720002F1B0010C11A00102F1A0010591500109D
:1017300059150010591500105915001059150010B1
:10174000591500105915001059150010391A0010BC
:101750005F1B00102F4A1368EFF3108172B6D3E8B5
:10176000CFCF0120BCF1000FF9D1C3E84C0FBCF181
:10177000000FF4D1BFF35F8F00232848284C51603D
:1017800023701268C370C2E88F3F81F310881D4B2D
:101790001B78002B3FF4E0AE1B4B1B78002B7FF433
:1017A000DBAE174A937A15461BB1D37A002B00F0B3
:1017B00096820023C5E90033AB6006B0BDE87040F7
:1017C000FFF74EBD0622981C02A90CF0B1F9104A91
:1017D0001546D2E90032134324D102A812F038FD95
:1017E000BAE6981C062202A90CF0A2F902A812F08F
:1017F000FBFCB1E6AFF30080000000000000000039
:10180000B4360020A46D0020A56D0020A16D00203D
:1018100060310020C0360020746D00200C2A0020AA
:10182000A36D002002F00AFF002900F053824FF45C
:101830007A72002324F06CF8D5E900120023884264
:101840009341CAD202A812F0E9FC85E602A9D81C8D
:10185000062200930CF06CF9294602A80CF014F94A
:1018600000287FF479AE009B9A78002A40F02B8202
:10187000092C40F2288203F10801A4F1090011F8B3
:1018800001CFBCF1000F00F0688201328242F6D134
:10189000082840F2188203F10902164603F1010EEE
:1018A0000EEB000412F8011B01F1200C5FFA8CFC16
:1018B000A1F1410EBEF1190F98BF6146642940F0B5
:1018C000D681117801F1200C5FFA8CFCA1F1410E58
:1018D000BEF1190F98BF6146752940F0C881517853
:1018E00001F1200C5FFA8CFCA1F1410EBEF1190F41
:1018F00098BF6146612940F0BA81917801F1200CCE
:101900005FFA8CFCA1F1410EBEF1190F98BF614640
:101910006C2940F0AC81D17801F1200C5FFA8CFC8D
:10192000A1F1410EBEF1190F98BF6146732940F035
:101930009E81117901F1200C5FFA8CFCA1F1410E1E
:10194000BEF1190F98BF6146652940F09081517929
:1019500001F1200C5FFA8CFCA1F1410EBEF1190FD0
:1019600098BF61466E2940F08281917901F1200C87
:101970005FFA8CFCA1F1410EBEF1190F98BF6146D0
:10198000732940F07481D17901F1200C5FFA8CFC4D
:10199000A1F1410EBEF1190F98BF6146652940F0D3
:1019A00066818948FFF7A2FCD6E5012200239FED5E
:1019B000847B0090854802708348C0E900338360CF
:1019C0008348844B80ED007B10464FF000021A7074
:1019D00012F08EF9052012F035F8002012F052FCBA
:1019E00003200EF0DDFA00200EF0E2FA7A48D0F87B
:1019F00000E0EFF3108C72B6DEE8CF2F0123002A4F
:101A0000FAD1CEE8423F002AF6D1BFF35F8F012220
:101A1000D0F800E0C0F804C0009970480023C0F876
:101A200001200170CEE88F3F8CF3108894E506B05A
:101A3000BDE87040FFF7D0BC0521184600930CF0BC
:101A40002DF800283FF488AD009BDA79A12A00F038
:101A50006981312A7FF480AD0246D91D02A801F0C8
:101A6000DBFB5D4804460368EFF3108C72B6D3E8E5
:101A7000CF1F01220029FAD1C3E8412F0029F6D156
:101A8000BFF35F8F029BC0F804C0002B40F0E281DF
:101A900001210320514B03AA997159691870013132
:101AA000596103CA1288C3F80700C3F80B10A3F8E2
:101AB0000F2000232268C2E88F3F8CF310884BE58B
:101AC0005A79002AB3D10321184600920BF0E6FFA1
:101AD000414C434BDFF80CC1009A21688CF8002080
:101AE0001880EFF3108372B6D1E8CFCF0120BCF19C
:101AF000000FF9D1C1E84C0FBCF1000FF4D1BFF3D6
:101B00005F8F3648636002713148D0E900100143AD
:101B100040F00D812068314C0021A2700122A4F810
:101B200005102270C0E88F1F83F3108814E5184653
:101B3000032100930BF0B2FF009B06465B7B002B5A
:101B40007FF40AAD224A1546D2E90032134340F031
:101B50001181304606B0BDE8704017F05BBE1E4AEA
:101B60001068EFF3108172B6D0E8CFEF5FF0010C90
:101B7000BEF1000FF8D1C0E84ECFBEF1000FF3D197
:101B8000BFF35F8F51605B79DFF850C0B3FA83F326
:101B90005B09002012688CF80530C2E88F0F81F3D2
:101BA0001088D9E496457FF4FDAC122C3DD903F1A1
:101BB0002D052644DFF830C0A5F1130E19E000BF53
:101BC0000000000000000000B4360020A16D0020DD
:101BD00060310020A46D0020C03600200C2A0020B7
:101BE000746D0020A56D0020B85B021075453FF4B0
:101BF0004FAD1EF8012F9CF8001002F12000A2F159
:101C00004104C0B2192C98BF024601F12000A1F195
:101C10004104C0B2192C98BF014691420CF1010C4D
:101C2000E4D06A1C96421546C4D1914A927A002AA1
:101C30007FF492AC1846092100930BF035FF00F4B5
:101C4000F852B2F5A06F009B7FF486AC981C062278
:101C500087490BF06DFF009B854C1A7A18460C21C2
:101C6000A2710BF01BFF01232081638174E4944275
:101C70007FF418AE122826D903F11B0406447D4BCD
:101C8000A4F1130E02E074453FF48BAE1EF8011F61
:101C9000187801F1200CA1F141025FFA8CFC192A9D
:101CA00098BF614600F1200CA0F141025FFA8CFC64
:101CB000192A98BF6046884203F10103E3D0631CF0
:101CC0009E421C46DBD10023C5E90033AB60FFF721
:101CD000C7FA41E4684BA3FB00308009ACE501235F
:101CE00012892846A97942F40042EB7212F05AFA9E
:101CF00000283FF431AC5CE51846132100930BF04B
:101D0000CDFE1521019000980BF0C8FE40F24C5119
:101D1000019A009B8A4222D0024392B2002A3FF4E9
:101D200031AC82E701283FF417AC1A7A91E602F051
:101D300085FC4FF47A72002900F09180002323F093
:101D4000E7FD034600224D4801688B424168636805
:101D50008A4134BF01220022DCE6104698E540F6B5
:101D6000E64290423FF494AC40F6F25290427FF447
:101D70005CAF8DE402F062FC4FF47A72002974D0FB
:101D8000002323F0C5FD0346D5E90001002283426C
:101D90008A41BFF4DEAE3A4B1B78002B62D1394B3F
:101DA0001A68EFF3108172B6D2E8CFCF0120BCF1F0
:101DB000000FF9D1C2E84C0FBCF1000FF4D1BFF312
:101DC0005F8F00222E4C186822702F4C5960E270F1
:101DD000C0E88F2F81F310882C492D480E800121F7
:101DE0003546D3F800C00170EFF3108072B6DCE81E
:101DF000CF6F5FF0010E002EF9D1CCE846EF002E38
:101E0000F5D1BFF35F8F1E6858602171C6E88F2F30
:101E100080F31088284617F0D7FC1A4BD3F800C07F
:101E2000EFF3108072B6DCE8CF2F5FF0010E002ACE
:101E3000F9D1CCE842EF002AF5D1BFF35F8F012141
:101E4000586000221B682170C3E88F2F80F3108830
:101E5000FFF782BB0C4A93690133936129E6B0FB1B
:101E6000F2F36FE712F060F999E7B0FBF2F38BE75A
:101E7000B4360020B85B0210D34D621060310020F0
:101E8000A36D0020C03600200C2A0020746D0020B5
:101E9000A56D002008B5104B1A7802B108BD0F4897
:101EA00001F0EAFE01220C4B0D491A700A8013F072
:101EB0009DFA4FF400710B4817F060FC0A4817F0C8
:101EC0007DFC0A48084B43600DF0C2FCBDE80840A9
:101ED000012011F0C5BD00BFA26D0020C03600205A
:101EE0000C2A0020D036002021150010C836002012
:101EF000444B70B51C7814B1434B1C780CB9204688
:101F000070BD02F09BFB002976D1404BA3FB003053
:101F100080093F4ADFF818C180184FF00003CCF861
:101F200000004FF001003B4A3B49C2E90033936097
:101F300043F10003CCF80430087011F0D9FE012001
:101F400011F09CFE354B1A68EFF3108C72B6D2E894
:101F5000CF1F5FF0010E0029F9D1C2E841EF00293F
:101F6000F5D1BFF35F8F01202D4A2B499070107877
:101F70001D68032818BF0220C3F804C018BF1070E2
:101F80000020C5E88F0F8CF3108809780029B6D09F
:101F90001D4909780029B2D0224908780028AED11D
:101FA000214800780028AAD1204800880028A6D11E
:101FB000082012F09BF81B49184B194A00289ED1A3
:101FC000D3F800E0EFF3108C72B6DEE8CF6F012596
:101FD000002EFAD1CEE8465F002EF6D1BFF35F8F18
:101FE000D3F800E0C3F804C001230B70D370CEE82F
:101FF0008F0F8CF3108882E74FF47A72002323F05E
:1020000087FC86E7A26D0020A16D0020D34D6210F1
:10201000E0930400B4360020A46D0020C0360020F8
:102020000C2A0020A36D0020A56D0020746D0020F7
:102030006031002000000000494B1B78002B63D06A
:1020400010B5484CD4E9003213435CD002F0F6FAE4
:10205000002975D04FF47A72002323F059FCD4E99B
:1020600000120023884273EB02024ED39FED3A7BAD
:102070003D4A3E493E48C2E90033037093600B7805
:1020800084ED007B002B60D13A4C2368EFF3108283
:1020900072B6D3E8CFCF0120BCF1000FF9D1C3E86D
:1020A0004C0FBCF1000FF4D1BFF35F8F0020324B17
:1020B0006260D87008702368C3E88F0F82F31088BD
:1020C00011F0DCFD2168EFF3108272B6D1E8CFEF9A
:1020D0005FF0010CBEF1000FF8D1C1E84ECFBEF1A8
:1020E000000FF3D1BFF35F8F0020234B626019789C
:1020F0009870022901D10421197000232168C1E8D8
:102100008F3F82F3108810BD704702F097FA91B1AB
:102110004FF47A72002323F0FBFBD4E90012002372
:1021200088429341EFD2154B1B78002BEBD1BDE8D1
:102130001040FFF795B8124BA3FB00308009ECE785
:102140000F4BA3FB0030800989E711F0EDFF074931
:102150009AE700BFAFF3008000000000000000001D
:10216000A26D002060310020B4360020A36D002055
:10217000A46D0020C03600200C2A0020A56D002090
:10218000D34D6210124BF0B51A680446EFF3108578
:1021900072B6D2E8CF0F01210028FAD1C2E8401F61
:1021A0000028F6D1BFF35F8FA446DFF828E01F6850
:1021B0005D60BEE80F00ACE80F009EE80700002657
:1021C0008CE80700C7E88F6F85F310882046F0BDC4
:1021D000C03600200C2A0020D0E90010884239D0F7
:1021E0004FF0FF3300B51C4A1944184411F801EFB1
:1021F0008EEA030E4EF300034EF3400C134083EAC5
:102200005E030CEA020C8CEA530C43F340034CF3DC
:10221000400E134083EA5C030EEA020E8EEA530E70
:1022200043F340034EF3400C134083EA5E030CEA91
:10223000020C8CEA530C43F3400313404CF3400E62
:1022400083EA5C0381420EEA020C8CEA5303CDD18F
:10225000D84300BD002070472083B8ED2DE9F0433E
:10226000D1E90232D61A302E054683B007DD0023AD
:10227000C0E900338360284603B0BDE8F083402006
:102280000F46019302F030FE3E2204460021023048
:1022900023F016FB44F64D4222803A68019BC4F8B5
:1022A00002203A79E671A271002E46D0721E052AEC
:1022B00040F2A780C3F108022244022A40F2A18022
:1022C0001A68C4F80920B208012A00F0A5805968EC
:1022D000022AC4F80D1000F082809968032AC4F81D
:1022E00011107CD0D968042AC4F8151077D0196968
:1022F000052AC4F8191072D05969062AC4F81D10AD
:102300006DD09969072AC4F8211068D0D969082AC4
:10231000C4F8251063D0196A092AC4F829105ED0C0
:10232000596A0A2AC4F82D1059D0996A0C2AC4F89F
:10233000311054D1DB6AC4F8353006F1090738464C
:1023400002F0D2FD214606463A46814623F0F4FAD1
:102350004FF0FF3306EB070C32499C44F01810F89D
:10236000016F5E4046F3000E0EEA010E46F3400395
:102370008EEA560E0B4083EA5E034EF3400E0EEAE1
:10238000010E8EEA530E43F340030B4083EA5E03D3
:102390004EF3400E0EEA010E8EEA530E43F3400355
:1023A0000B4083EA5E034EF3400E0EEA010E8EEA06
:1023B000530E43F340030B40604583EA5E03CED1E6
:1023C000DB434846E351394602F092FD284604F1CA
:1023D0004003C5E901332C6003B0BDE8F083B107C9
:1023E00026F00302A9D0985CA1184872501C8642BE
:1023F000A3D9185C0232964288729ED99B5CCB723C
:102400009BE7013B04F10802F01813F8011F834217
:1024100002F8011FF9D190E71A79052062730422AE
:10242000A118E6E72083B8ED0346002201202DE93C
:10243000F04182B0C3E90122C3E903221A605A6164
:102440001871D1E90042121B3F2A187204DC18608F
:10245000184602B0BDE8F081402A05D00522184692
:102460001A6002B0BDE8F08122784D2A05D0022220
:1024700018461A6002B0BDE8F08162784C2AF6D1A5
:10248000A278012A02D003221A60E1E7B4F80720FB
:10249000302A174602D904221A60D9E7A118887A8F
:1024A0004A7A009342EA0022C87A097B42EA004253
:1024B00007F1090042EA016802F016FD07F109027E
:1024C0000646214623F038FA4FF0FF3207F10903A0
:1024D00006EB030E3248009B964406EB020C1CF8F8
:1024E000011F514041F30002024082EA510241F3D0
:1024F0004001014081EA520142F34002024082EA77
:10250000510241F34001014081EA520142F340028D
:10251000024082EA510241F34001014081EA520146
:1025200042F34002024082EA510241F3400101407D
:10253000F44581EA5202D2D1304607F10901CDE9D2
:10254000002302F0D5FC009A019BD243904502D0B3
:1025500006221A607CE704F10C0139440A4611F89E
:10256000010F00287FF47AAF3E3AA242F6D1E2781A
:102570005A71A288DA80A2791A72002F3FF468AFEC
:102580003846009302F0B0FC06463A4604F10901D1
:1025900023F0D2F9009BF219C3E903625A6157E7AD
:1025A0002083B8ED10B50446A446DFF818E0BEE875
:1025B0000F00ACE80F009EE807008CE807002046FB
:1025C00010BD00BF78A3021070B50B780446012B34
:1025D0003ED1D1ED017A9FEDC07AF0EEE76AF4EEDC
:1025E000476AF1EE10FA0DD8B7EE007AF4EEC77A2A
:1025F000F1EE10FA06D4B0EE007AF4EEC77AF1EEFE
:1026000010FA2FDD00222120227002F06DFC202321
:102610008646DFF8D8C200228EF82020C4E90233B3
:10262000BCE80F00C4F804E0CEF80000CEF80410B7
:10263000CEF80820CEF80C30BCE80F00CEF8100021
:10264000CEF81410CEF81820CEF81C30204670BDFD
:1026500000222120227002F047FC20238646DFF86A
:1026600090C2D8E791F90830002B26DB91F90930A8
:10267000002B22DB8B7A072B3ED8CB7A3C2B5CD805
:102680000B7B022B7ED84B7B103B6F2B00F2A18083
:102690008B7B022B00F2C5804B7D0A2B00F2E6807B
:1026A0000B7E012B00F20D8103460121002203F86D
:1026B0000C1BC0E901320273C8E700221920227006
:1026C00002F012FC182386460022DFF828C20276A8
:1026D000C4E902336060BCE80F00CEF80000CEF819
:1026E0000410CEF80820BCE80300CEF80C30CEF879
:1026F0001000CEF81410A9E700221D20227002F06D
:10270000F3FB1C2386460022DFF8ECC10277C4E904
:1027100002336060BCE80F00CEF80000CEF8041071
:10272000CEF80820CEF80C30BCE80700CEF8100038
:10273000CEF81410CEF8182088E70023222023704A
:1027400002F0D2FB212306468646644D6060E360BA
:10275000AC460EF1100EBCE80F004EF8043C604B86
:1027600010359C454EF8100C4EF80C1C4EF8082CF9
:10277000EED12B7821228EF800300023A26086F85B
:10278000213063E700221C20227002F0ADFB1B23E6
:1027900086460022DFF864C1C276C4E90233606075
:1027A000BCE80F00CEF80000CEF80410CEF80C30D4
:1027B000BCE80300BCF80030CEF80820AEF81830B2
:1027C0009CF80230CEF81000CEF814108EF81A30B3
:1027D0003CE700232720237002F086FB26230646D1
:1027E0008646404D6060E360AC460EF1100EBCE8DA
:1027F0000F004EF8043C3C4B10359C454EF8100C35
:102800004EF80C1C4EF8082CEED1AB882622AEF800
:10281000043000232868CEF80000A26086F8263035
:1028200014E700221F20227002F05EFB1E23864662
:102830000022DFF8CCC08277C4E902336060BCE8D4
:102840000F00CEF80000CEF80410CEF80820CEF825
:102850000C30BCE80700BCF80030CEF81000CEF811
:102860001410CEF81820AEF81C30EFE6002220201D
:10287000227002F039FB1F238646DFF888C0002251
:102880008EF81F20C4E90233BCE80F00C4F804E04E
:10289000CEF80000CEF80410CEF80820CEF80C30A8
:1028A000BCE80700BCF80030CEF81000AEF81C30D1
:1028B0009CF80230CEF81410CEF818208EF81E3096
:1028C000C4E600222020227002F00EFB1F23864661
:1028D000DFF834C0D3E700BFFFFF7F7F505C0210FA
:1028E000705C0210905C0210B05C0210F05B021091
:1028F000CC5B0210145C0210305C0210745C02109D
:10290000B85C0210D85C0210F85C02109FED247ACB
:10291000D1ED017A67EE877A0023FCFEE77A91F821
:1029200010C04A7C4FEA4C0C4CEA820CCA7B00B5C2
:1029300042EA0C0291F800C0C0F80B30C0F80F302A
:10294000C0F81330C3756CF3070391F812C091F807
:1029500016E042EACC0291F813C042EA0C1291F858
:1029600014C042EA4C1242EA8E128272D1F8092057
:1029700091F808C04260B1F80D2002814A7D0273CF
:10298000CA7D42730A7E827317EE902A62F30F2388
:10299000C2F3072262F317436CF31F63036000BDA9
:1029A0000000C8422DE9F041D1E900E3A3EB0E039A
:1029B0000E2B074688B026DC002323203B7002F054
:1029C00093FA2223844605464D4E786006F1200E88
:1029D000FB60344610350FCC744506F1100645F8FF
:1029E000100C45F80C1C45F8082C45F8043CF0D1B7
:1029F000338822222B8038460023BA608CF822309C
:102A000008B0BDE8F08101AD94462C463D4EDFEDA7
:102A10003E6A0FCE0FC596E8070085E807000FCC89
:102A2000CCF80000CCF80410CCF80C3003CC2378A0
:102A3000CCF80820CCF81000CCF814108CF8183022
:102A40009EF800304FF000088CF80030BEF80130DE
:102A5000384607EE903AF8EEE77A87EEA67A8CEDE4
:102A6000017A9EF8033061468CF808309EF80430F5
:102A70008CF809309EF805308CF80A309EF8063044
:102A80008CF80B309EF807308CF80C309EF808302C
:102A90008CF80D309EF809308CF80E30BEF80A30F4
:102AA00003F0010262F30708C3F3400262F30F2848
:102AB000C3F3800262F31748C3F3C00262F31F68D6
:102AC000C3F300128CF81320C3F34012C3F3801336
:102AD000CCF80F808CF814208CF816309EF80C304F
:102AE0008CF815309EF80D308CF817309EF80E30AB
:102AF0008CF81830FFF768FD384608B0BDE8F08163
:102B0000185D021078A302100000C842F0B5D0E9A9
:102B10000034A4EB030CBCF13F0F91B068DD93F8D7
:102B200000C0BCF14D0F63D193F801C0BCF14C0F54
:102B30005ED193F802C0BCF1430F59D193F803C0A2
:102B4000BCF1460F54D104460646202015460F46D8
:102B5000019302F0C9F9CDE90200019B00F12002C6
:102B60000492D3F800E0D3F804C099680392DA68BD
:102B7000C0F800E0C0F804C08160C2609969DA69F9
:102B8000D3F810E0D3F814C0C0F810E0C0F814C0B7
:102B90008161C26193F8222093F82110120442EA65
:102BA000012293F8201093F823300A4342EA03638A
:102BB00002A80193FFF710FB019B83420BD0002377
:102BC000029828B104990193091A02F091F9019B26
:102BD000184611B0F0BD216801F1230301F13F0255
:102BE00001E0934208D013F8010F0028F9D0E6E77E
:102BF0000023184611B0F0BD1820019102F074F9BD
:102C0000019900F1180ECDF820E00690D1F808C027
:102C1000CB680C69CDF81CE0D1F814E0C0F800C016
:102C200043608460C0F80CE0CB69D1F818C02A4634
:102C30004361C0F810C006A909A8FFF7B3FE9DF8CC
:102C400024305BB131684A798879120242EA004245
:102C50000879C979024342EA01623A600A980CAAEB
:102C6000904205D00C990193013102F041F9019B8A
:102C700006980028A4D008990193091A02F038F99F
:102C8000019B9DE710B5044640F8041BFFF78AFC42
:102C900004F12000FFF786FC0023C4E9103320462E
:102CA00084F83C3010BD00BF2DE9F04300250446F8
:102CB000006899B00368CDE904559B6804A906959E
:102CC000984720B1DDE904239B1A7F2B2DDC11A846
:102CD000FFF768FC00230DF1440C84F83C30BCE89D
:102CE0000F006060A16061682361A3682162E260F7
:102CF000BCE803009CF8002063626061A1610026CB
:102D0000E36820696169A362A36921632277E062B5
:102D1000636384F83820049818B10699091A02F000
:102D2000E7F8304619B0BDE8F0830AA8FFF73AFC8F
:102D3000A9462E46049B402003EB8513009302F026
:102D4000D3F807460246009B00F140010790099125
:102D500003F1400818681033009053F80C0C10323F
:102D60000190009853F808EC53F804CC42F8100C8A
:102D70000198434542F80C0C42F808EC42F804CCA8
:102D8000E8D10023DFF8CCE00DF1440C0891039367
:102D9000BEE80F00ACE80F009EE807008CE80700D3
:102DA00011AA03A907A8FFF7B1FE28BB38464021A6
:102DB00002F09EF86B1C022B4FF00105BAD196B3BE
:102DC00000230AAD2F4684F83C300FCD6060A1602F
:102DD000236103CD2B78E2606061A161237784F8E1
:102DE0003830C4F844900FCF20626162A26203CFF2
:102DF000E362206361638EE7039B8EB90DF1280CBB
:102E00000DF1440E99460646BEE80F00ACE80F00EF
:102E10009EE80700ACE8030025648CF80020C5E7B5
:102E20004B45C3D9EAE711A811ADFFF7BBFB0FCDA6
:102E30006060A16023616168A3682162E26003CDE4
:102E4000C4E910662A7884F83C6063626061A1611D
:102E500055E700BF94A3021030B50C4683B011466D
:102E600000900192FFF7B0FB00980378ABB14FF0F0
:102E7000010C019A116853689568D2F80CE0216240
:102E80006362A562C4F82CE053691169636321632E
:102E9000137E84F83CC084F8383003B030BD00BFE6
:102EA0002DE9F04390F83C30A9B023B90124204625
:102EB00029B0BDE8F08300F12001054600F12007AC
:102EC0000AA8FFF781FB9DF82840002C00F0E7805E
:102ED0006B6C2022002120A85C1C22F0F1FC784BB6
:102EE00005F1200111A8CDE91834FFF70FFD1AAC48
:102EF0000DF1440CBCE80F000FC49CE8030084E80B
:102F00000300202001F0F0FF844600F1200318ACFC
:102F1000CDE9083307900FCCCCF80000CCF80410B2
:102F2000CCF80820CCF80C300FCCCCF81000CCF842
:102F30001410CCF81820CCF81C3007A8FFF74CF977
:102F40002090079818B10999091A01F0D1FF2B6C4C
:102F50004020013303F0010801F0C6FF00F14003F7
:102F600084461E46019003930DF1600E74460CF1E9
:102F7000100C0FCC4CF8043C28AB9C420EF1100E08
:102F80004CF8100C4CF80C1C4CF8082CEED12868AE
:102F9000414603680296DB6801AA98470446002868
:102FA00077D00022286804A903689B68CDE9042231
:102FB00006929847049B0446002864D00599C91AD4
:102FC0007F2979DD402003EB881401F08DFF234633
:102FD00000F14001814602460790099104F140004A
:102FE0001C68D3F804E02646D3F808C0DC68103328
:102FF00083421660C2F804E0C2F808C0D46002F14F
:103000001002EDD10023DFF8BCC011AC0891009391
:10301000BCE80F000FC49CE8070084E8070069467D
:1030200007A811AAFFF772FD044638B36B6C5E1C4B
:10303000009B9E4242D10DF1440CE646BCE80F00D5
:103040006860A960BCE803009CF800C0EA602B61DE
:103050006861A96185F81CC0BEE80F002862FB60AA
:103060004FF000037960BA6087F818C0BEE803002B
:1030700038617961C5E9108685F83C3040214846C1
:1030800001F036FF049B23B106991846C91A01F0D6
:103090002FFF019818B10399091A01F029FF0B9825
:1030A0000DAB98423FF403AF0D99013101F020FFC1
:1030B000204629B0BDE8F0830024E4E70024DDE7E2
:1030C0004D4C434694A3021010B588B0044601A8A5
:1030D000FFF768FA01230DF1040C84F83C30BCE8DA
:1030E0000F0020626162A262BCE803009CF800202D
:1030F000E3622063616384F8382008B010BD00BF2C
:1031000070B584468E461C46194B15460FCB9DF86C
:1031100010608CE80F00BEF1000F03D004F109032A
:10312000AB4204D903236046CCF8003070BD0EEBEF
:1031300004035A7899781EF804008CF80620DA788F
:103140008CF805008CF80710187959798CF808204C
:103150009A79B3F807308CF809008CF804608CF881
:103160000A108CF80B20ACF80C30604670BD00BF24
:10317000B0A3021090F800C0ACF1A10CBCFA8CFC1A
:103180004FEA5C1C0CF14E0399423ED110F80C3012
:10319000312B3AD100B5411E1D4B49301D4A6144C7
:1031A000604411F801CF8CEA030C4CF300034CF39C
:1031B000400E134083EA5C030EEA020E8EEA530EC1
:1031C00043F340034EF3400C134083EA5E030CEAE2
:1031D000020C8CEA530C43F340034CF3400E1340B3
:1031E00083EA5C030EEA020E8EEA530E43F34003B9
:1031F00013404EF3400C83EA5E030CEA020C884253
:103200008CEA5303CDD1D84300BD0020704700BFE6
:103210000C832C8C2083B8EDF0B50D4689B02A4B79
:103220000DF1100E0446944616460FCB8EE80F00A3
:1032300015B1BCF1000F08D10123049304AB0FCBEF
:1032400084E80F00204609B0F0BD2B78A3F1A1035C
:10325000B3FA83F35B0903F14E02944508D00223CD
:10326000049304AB0FCB84E80F00204609B0F0BDF7
:10327000EA5C312A1746F2D1E91891F84C2091F80E
:103280004B00120442EA002291F84A0091F84D10D6
:10329000024342EA01622846614603930292FFF725
:1032A00069FF029A039B824206D00423049304AB75
:1032B0000FCB84E80F00C5E7324629462046009729
:1032C0000233FFF71DFFBDE7B0A302104FF4807C6F
:1032D0000C4B00B553F8202003EB8003C00082F0B4
:1032E000400200F1804003F5805E02F0C00200F56C
:1032F000203003F54053CEF800204160C3F800C0F1
:1033000000BD00BF04800340DFF81CC0C90041EAD3
:1033100082015CF820200CEB8003514003F58053C0
:1033200001F00C011960704704800340064B022233
:1033300003EB800319B103F500531A60704703F5DE
:1033400040531A60704700BF048003404FF0504C58
:10335000C308DCF800C000F0070000B58000DFF80B
:103360002CE081400CEBCC0C03F18C009B004EF860
:10337000201003EBCC0312B1024AD15000BD024A27
:10338000D15000BD48A2024048B202400080024035
:1033900008B54FF05043DFF824C0D3F800E05CF8E4
:1033A0002E30034207D103434CF82E301520BDE8E0
:1033B000084000F0ADB901F0FFFA00BFF06C00204A
:1033C00010B50446152000F085FA4FF05043044A2A
:1033D000196852F8213023EA040342F8213010BD65
:1033E000F06C00204FF0000300B543EC440043ECC8
:1033F00040004FF0050E4FF4807C0C4BC20053F898
:10340000201003EB800081F0400102F1804303F5BE
:10341000203301F0C00200F5805100F540500A60F1
:10342000C3F804E0C0F800C000BD00BF0480034042
:103430000FB400B5084883B003F0CEFA049B3BB14B
:1034400005A91846019103F0CBF8044803F0C4FA2B
:10345000012003F0DDF800BF3C5D0210A0910210D6
:10346000EFF3108072B6064BD3E8CF1F012200297C
:10347000FAD1C3E8412F0029F6D1BFF35F8F70471F
:10348000973B00200023034AC2E88F3F80F3108857
:10349000704700BF973B002070B51646EFF31084CD
:1034A00072B6DFF848E0DEE8CF2F0123002AFAD118
:1034B000CEE8423F002AF6D1BFF35F8F012301F02F
:1034C000070CCA0803FA0CF310F802C01CEA030543
:1034D00008D14CEA030C00F802C0CEE88F5F84F3F9
:1034E000108870BD3046FFF7A3FF00BF973B002058
:1034F000F8B50F461946EFF3108672B61C4DD5E8A5
:10350000CF4F0123002CFAD1C5E8443F002CF6D15F
:10351000BFF35F8F8A421BD8012402E0013291423F
:1035200022D3D30810F803E002F0070C04FA0CFCD5
:103530001EEA0C0FF2D14EEA0C0E00F803E0104622
:103540000023C5E88F3F86F31088984207DBF8BD5B
:103550000023C5E88F3F86F310884FF0FF30002F1F
:10356000F5D00698FFF764FF4FF0FF30E8E700BFA3
:10357000973B002000B5EFF3108E72B6104BD3E8E6
:10358000CFCF0122BCF1000FF9D1C3E84C2FBCF121
:10359000000FF4D1BFF35F8F01224FEAD10C01F08D
:1035A000070102FA01F110F80C2022EA010200F8EA
:1035B0000C200022C3E88F2F8EF3108800BD00BFBF
:1035C000973B0020044A1078431CDBB2182B28BF1D
:1035D00010231370704700BF282A002000B5DFF8C1
:1035E0001CC083B001461F231822CDF800C002483A
:1035F000FFF77EFF03B000BD903E00204C5D02103F
:103600004FF0E022936843F000539360704700BF8F
:103610000021044B03F12002C3E88F1F01339342C2
:10362000FAD170478C3B00204FF0E0234FF08032FE
:10363000C3F80024C3F80424C3F80824C3F80C24F6
:10364000C3F81024C3F81424C3F81824C3F81C24A6
:10365000C3F82024C3F82424C3F82824C3F82C2456
:10366000C3F8302462B67047012300F01F02934074
:10367000400941B1800000F1604000F56140C0F8B0
:10368000803103607047024A203042F82030704792
:1036900000E100E001224309034900F01F008240DD
:1036A000403341F82320704700E100E008B5EFF314
:1036B000108E72B6134BD3E8CFCF0122BCF1000FAE
:1036C000F9D1C3E84C2FBCF1000FF4D1BFF35F8FE9
:1036D0000D4A10309268DFF834C052F8202062455D
:1036E00001D091420BD1084A926842F82010BFF3F2
:1036F0005F8F0022C3E88F2F8EF3108808BD01F082
:103700005BF900BF953B002000ED00E011010010C7
:103710002DE9F84F8B461146EFF3108872B6664FCD
:10372000D7E8CF2F0123002AFAD1C7E8423F002A69
:10373000F6D1BFF35F8F614B93F90040002CC0F2CC
:10374000B88000F110055E4804EB440900EB8902E3
:1037500096794FEA89091E705A4B9B6853F8256089
:10376000331A2F2B35D826F0010E9EF807308B42E6
:1037700009D86FE00CEB4C0300EB830393F807A030
:103780008A4551D99E469EF906C0BCF1000FF1DA78
:103790004BF601590EF1040A131FA3EB0A03C3F3FE
:1037A0004A036FEAC3436FEAD3438EF80640DFF85B
:1037B00020A104EB440400EB8402AEF8043040F88E
:1037C00024A0A2F8049082F806C0D171C2F808B013
:1037D0001DE03D4B9E426CD13C4BD17109F1020181
:1037E0000144043B5B1AC3F34A036FEAC3434FF43B
:1037F00021416FEAD34320F809105380FF214BF693
:103800000153C2F808B09171938042F001062D4B2C
:103810009B6843F82560BFF35F8F0023C7E88F3FA5
:1038200088F31088BDE8F88FF2466FF00703A3EB2A
:1038300009033AF8049F1B1A49F30A0909F102091E
:103840000AEB49099944C9F34A096FEAC9496FEA81
:10385000D949A1E76FF00703D1711C4909F10204AE
:1038600004440439091BA3EB0903C1F34A011B1AE1
:103870006FEAC1417344C3F34A036FEAC3436FEA7B
:10388000D1414FF421466FEAD3435180104920F8CB
:10389000096093804AF6AA2473461B1A5B415C4375
:1038A000240DC2F808B0947142F00106CEF8001061
:1038B000ADE701F081F800BF953B0020AD6D002021
:1038C0002C2A002000ED00E0110100105C2A0020ED
:1038D000014880472DE9F04782B0EFF3108572B6BA
:1038E000DFF8A8C1DCE8CF2F0123002AFAD1CCE809
:1038F000423F002AF6D1BFF35F8F5E4B00F1100408
:103900009B6853F824205C4B9A423DD08A4249D0B0
:10391000DFF87CE1A2EB0E032F2B35D801274309FA
:103920009B0000F01F0003F1604303F561438740F3
:103930001E689A46B946C3F88070BFF35F8FEFF3F5
:103940000583DBB21F467BBB0123834022F00100CD
:1039500003EA06088668B14208D181E003EB43031D
:103960000EEB83039E68B14225D0184690F90630CD
:10397000002BF3DAB1424ED05346B8F1000F17D006
:10398000C3F88091C3F800903A4B9B6843F8242019
:10399000BFF35F8F0023CCE88F3F85F3108802B020
:1039A000BDE8F0871A46EFE79C42CDD001F004F85D
:1039B000C3F88090E8E793F90660002E2CDB06EB55
:1039C00046000EEB800180000190C8798F68D871A5
:1039D00091F906009F60002898714FEA46072EDB98
:1039E0008988019841F30A0100EB41016FF007005B
:1039F00008317144C01A0144C1F34A016FEAC14160
:103A00006FEAD14199801D49BB1908780EEB8303F9
:103A10000E709871B0E703469FB9FF2181714BF694
:103A200001518180154E184637784AF6AA219F71B8
:103A30007346C01A40414143090D31709CE710495B
:103A4000E0E71049104EC91A0839C1F30A306FEA8D
:103A500000506FEA105046EA5101D98098808BE7F8
:103A600090F906600346002EA9DA002FE9D1024A38
:103A7000D8E700BF00ED00E011010010AD6D00209F
:103A800001BDFFFF662A002000F8FFFF953B0020E4
:103A90002C2A00204FF0FF0C20F0030303F16043B9
:103AA00003F5644300F003001A68C0000CFA00FC40
:103AB00022EA0C0281400A431A6070472DE9F04166
:103AC000EFF30583DBB29E46EFF3108572B629490A
:103AD000D1E8CF2F0123002AFAD1C1E8423F002AC2
:103AE000F6D1BFF35F8FDFF89C8040F00106D8F875
:103AF00008704AF6AA2357F82E7004461E4AA41AE4
:103B0000644163431B0DB7425BB21ED092F906407D
:103B10009C4220D092F912409C4227D092F91E403C
:103B20009C4225D092F92A409C4208BF032413D01E
:103B3000124A002492F800C0137080F806C0C1E851
:103B40008F4F85F31088BDE8F081D8F808200C4C21
:103B500042F82E40ECE7002404EB440402EB84021C
:103B6000FF2494714BF601549480E1E70124F3E7BC
:103B70000224F1E7953B00202C2A0020AD6D0020A7
:103B80001101001000ED00E0C0F133010148FFF722
:103B9000F1BC00BFB96D002000B5DFF824C083B0D0
:103BA000014605230022CDF800C00448FFF7A0FC21
:103BB0000028A8BFC0F1330003B000BDB96D0020DC
:103BC000685D021030B583B004460D460192FFF7E0
:103BD000F9FC0146204600F007F8019AA580E28032
:103BE000BFF35F8F03B030BD014B0B4403607047E0
:103BF0008C3B002070B5104C104DAC420ED2FF260D
:103C0000236863B1FFF7DEFC01462046FFF7ECFFB7
:103C1000A680BFF35F8F0834AC42F1D370BDFFF7CD
:103C2000D1FC01462046FFF7DFFF2671BFF35F8F0F
:103C30000834AC42E4D370BD38310020403100205C
:103C400010B50446FFF7BEFC01462046FFF7CCFF47
:103C5000FF232371BFF35F8F10BD00BF10B5044673
:103C6000FFF7B0FC01462046FFF7BEFFFF23A3800D
:103C7000BFF35F8F10BD00BF10B504460120FFF7F2
:103C8000ADFC034B03442360BFF35F8F10BD00BF47
:103C90008C3B002010490B68EFF3108072B6D3E81C
:103CA000CFCF0122BCF1000FF9D1C3E84C2FBCF1FA
:103CB000000FF4D1BFF35F8F084A4FF0000C137868
:103CC000096801331370C1E88FCF80F3108840BFBB
:103CD00000200021704700BF586D0020B16D00200A
:103CE0002DE9F04F2DED028B85B0EFF30583DBB2AC
:103CF000103B9A0818BF01224FF0010103F0030B9B
:103D000018BFA94CA94B08BFA94C0BEB820253F872
:103D1000225001FA0BF204F541539FEDA18B029260
:103D20005A602FE0AB88190440F19480AB79002BE6
:103D300040F0DE80B5F90860002EC0F21C816B698E
:103D400006EB460603EBC603D3E90267B7F1FF3F74
:103D500008BFB6F1FF3F0ED004EB8B01A36A0A69DE
:103D6000D21AF31A934205D30123226A03FA0BF302
:103D7000134200D10E61204600F058FCB042B94118
:103D8000C0F2F980B5F90860029B002EE363C9DB3D
:103D9000D5F8149006EB460A09EBCA07BB68204623
:103DA000D7F80C80019300F041FC019B984271EB25
:103DB0000801B7DBB8F1000FC0F2C080D7E90431C9
:103DC0007C4A934200F0F8807A88B5F9080092B2F4
:103DD00042EA0040984702460B4652EA030100F0CF
:103DE000AD80002B80F2CD800199B1EB020E68EB23
:103DF000030839F93A30C7E902E8002B92DB686919
:103E000003EB430200EBC202D2E90271BE4578EB3C
:103E1000010C4FEA430285DBAC462CF8083F06E074
:103E200003EB430100EBC1015A00D1E90271BE4529
:103E300078EB01011A4405DB30F9323000EBC20C9B
:103E4000002BEDDA29F83A30ACF80060AB881904A1
:103E50003FF56CAF2B69EFF3108272B6D3E8CF0F4A
:103E600001210028FAD1C3E8401F0028F6D1BFF392
:103E70005F8F4FF6FF76A8880023296900B2AE80D5
:103E8000C1E88F3F82F310889842FFF64FAF074694
:103E9000A1466E6905F10808B5F9083007EB470E31
:103EA000002BC44606EBCE0215DBD2E90240AA463F
:103EB000019704E036F935309446002B09DB03EB1B
:103EC000430506EBC502D2E90271BC4270EB010169
:103ED000F0DA5546019FACF8007036F93E7026F8CE
:103EE0003E30002FD8DAAB794C46002B3FF422AF9E
:103EF0000023AB71B5F90860721C33463BD068698A
:103F000005F1080E03E08E465A1C3FF415AF03EB93
:103F1000430200EBC2014F889C463F0430F9323027
:103F2000F1D5664581ED028BEED0AEF800302989DF
:103F3000664620F83210A5F808C0E5E739F83A30AF
:103F40002B812B69EFF3108272B6D3E8CF0F0121DA
:103F50000028FAD1C3E8401F0028F6D1BFF35F8FD5
:103F60006B88296929F83A3000236E80C1E88F3FB9
:103F700082F31088D6E640BF05B0BDEC028BBDE8E9
:103F8000F08F20460393019200F050FB019A039BAF
:103F900010EB020E43EB01082BE700BFAFF30080EC
:103FA000FFFFFFFFFFFFFFFF00800B40CC6C0020F6
:103FB00000000B40E13C001008460B690391984754
:103FC0000028BBD00399D1E9002306E738B5384B68
:103FD0001C692CB1BDE838400A213648FFF704BE01
:103FE0000321354800F010FB334D314BDD60FFF706
:103FF000E9FA324A4FF0504E024403202C4B4FF066
:104000000F0C18701A61DEF800204FF6FF715A701D
:104010005A69A3F802C014834FF00204A2F8484082
:104020004FF00404A2F878404FF00504A2F8904045
:104030004FF00604A2F8A8404FF00704A2F8C040D1
:104040004FF00904A2F8F0404FF00A04A2F808412A
:104050004FF00B04A2F820414FF00C04A2F83841B5
:104060004FF0010414864FF00804A2F8D840144C15
:104070004FF00D0E4FF00E0C9C6008249980A2F8B2
:1040800050E1A2F868C1A2F8600011800D4A2C62CC
:104090000D49D360FFF70AFB01210320FFF7E4FA83
:1040A0000A4B0A211C640348BDE83840FFF79CBD59
:1040B000802A0020586D002000000B408C3B00201F
:1040C000FFFF1000CC6C0020E13C001000200B40F2
:1040D00000487047802A0020F0B583B09DF8284042
:1040E0001D46034654B9CDE9000200F0A7FA019A33
:1040F000009B824265EB0101A1425BDB1969EFF392
:10410000108072B6D1E8CF6F0124002EFAD1C1E839
:10411000464F002EF6D1BFF35F8FB3F902401F69FF
:10412000002C3EDBD3F814C004EB440E3CF83E10E8
:10413000002659800CEBCE01C7E88F6F80F3108802
:104140004888C1E902250130C0F30E00012838BFBC
:104150000120089A48800A61099A40EA04404A61AD
:104160001A69EFF3108172B6D2E8CF7F0125002FD4
:10417000FAD1C2E8475F002FF6D1BFF35F8F9A886C
:104180002CF83E201A699C80C2E88F6F81F310885A
:1041900001211C78DA68A14002F50153596003B08F
:1041A000F0BD0023C7E88F3F80F310884FF0FF3049
:1041B00003B0F0BD204603B0F0BD00BFF0B5164619
:1041C0001F4602690346EFF3108072B6D2E8CF4F64
:1041D0000121002CFAD1C2E8441F002CF6D1BFF314
:1041E0005F8FB3F902101D69002945DBD3F814E095
:1041F00001EB41023EF832400EEBC20C5C80002421
:10420000C5E88F4F80F3108805983546CCF810002C
:1042100006983E46CCF81400BCF80200CCE90256E1
:104220000130C0F30E00012838BF0120ACF80200B5
:1042300040EA0140D3F810C0EFF3108572B6DCE815
:10424000CF7F0126002FFAD1CCE8476F002FF6D19F
:10425000BFF35F8FB3F804C02EF832C099801A699B
:10426000C2E88F4F85F3108801211C78DA68A140DD
:1042700002F501535960F0BD0023C5E88F3F80F37C
:1042800010884FF0FF30F0BD03464089B0EB214F5E
:104290003ADD58690A1402EB420210B5D3F810C097
:1042A00000EBC200EFF3108E72B6DCE8CF4F0122B4
:1042B000002CFAD1CCE8442F002CF6D1BFF35F8F4D
:1042C000428889B292B28A4207D000221B69C3E8B1
:1042D0008F2F8EF31088002010BD6FEA42426FEAE4
:1042E000524242800121002218699971C0E88F2F43
:1042F0008EF3108893F800C0DA68084602F501537F
:1043000001FA0CF1596010BD002070472DE9F0430F
:10431000841F61F10006A04271EB060338BF002440
:1043200083B038BF264605460F4600F087F9201AAD
:1043300066EB0101012871F1000106DA28463946D1
:1043400003B0BDE8F04300F0B3B900F077F9844260
:1043500066EB010100290ADB00211D4B2246009378
:104360001C4833460191FFF729FF0130E6D04FF09A
:10437000000E194ADFF868C01849536A9E4204D8F3
:10438000906AA042DAD29E42D8D1DCF80030EFF336
:10439000108072B6D3E8CF9F5FF00108B9F1000F2B
:1043A000F8D1C3E8498FB9F1000FF3D1BFF35F8FA4
:1043B0000B785FFA83F8DCF80030C3E88FEF80F306
:1043C00010880878404500D120BF20BFD5E700BF46
:1043D000953C0010802A002000000B40B16D0020A9
:1043E000586D00202DE9F04383B0064600F026F911
:1043F0004FF47A7304464FF0FF306FF00042E6FB53
:104400000341A04272EB01033ABF044615460D4634
:10441000A61F45F1FF37B44275EB07033CBF0026EA
:10442000374600F00BF9301A67EB0101012871F1F2
:10443000000106DA2046294603B0BDE8F04300F04B
:1044400037B900F0FBF8864267EB010100290ADB6F
:1044500000211D4B324600931C483B460191FFF75B
:10446000ADFE0130E6D04FF0000E194ADFF868C00B
:104470001849536A9F4204D8906AB042DAD29F42E8
:10448000D8D1DCF80030EFF3108072B6D3E8CF9FBC
:104490005FF00108B9F1000FF8D1C3E8498FB9F115
:1044A000000FF3D1BFF35F8F0B785FFA83F8DCF86E
:1044B0000030C3E88FEF80F310880878804500D182
:1044C00020BF20BFD5E700BF953C0010802A002008
:1044D00000000B40B16D0020586D0020F0B5024681
:1044E00085B0EFF30585EDB2002D61D10B46424C4E
:1044F000D4E90001994208BF90424AD0CDE9022395
:104500003E4BDF681E78384600F090F806F1040C48
:1045100057F82CC0029A039BACEB000C101A63EB0B
:104520000101604571F1000133DACDE9022300F0A9
:1045300085F8029A039B824263EB0101002949DB63
:104540002F492E4800910195CDE90232FFF736FE42
:10455000DDE90232011E3DDD2A48C4E90023446A38
:104560009C4246D3806A904241D32448CDE902322E
:10457000FFF78AFE2349029B486A98421CD314BF66
:10458000012000208B6A039A934228BF40F001006B
:104590000CE020BF1B49486A98420DD314BF01208C
:1045A00000208B6A934228BF40F0010005B0F0BDA7
:1045B0001448436A8B4202D2002005B0F0BD14BFFC
:1045C00001230023816A914234BF184643F0010061
:1045D00005B0F0BD0B49486A9842EDD3C01A18BF28
:1045E00001208B6A934228BF40F00100DEE79C4225
:1045F000BBD120BFB9E700BF782A0020802A002065
:10460000953C001000000B4010B4054B054C064AC9
:10461000A04214BF1846581C10BCFEF73DBF00BF97
:10462000943E002000800B40845D02100346416AE6
:104630000A46986A596A8A42FAD17047034B596A06
:104640000A46986A596A9142FAD1704700000B40B5
:1046500000B58E46154A536A9C46916A536A634573
:10466000FAD1401853EB0E034FF0000228BF01228D
:10467000BAB10E4B5A6A531C08BF104608D04FF00F
:10468000FF33184609494A6A9A42FCD39A4207D135
:10469000064B02E0596A914202D1996A8142F9D3EC
:1046A00000BD024A526A9342ECD8EFE700000B408B
:1046B000074A536A9942FCD8994207D1044B02E059
:1046C0005A6A914202D19A6A9042F9D8704700BF63
:1046D00000000B4000EB400C4FEA8C0C0CF1804CBE
:1046E0000CF5803C70B51E46DCF80430041FB3F5B1
:1046F000803F38BF4FF48033E4B238BFCCF8043089
:10470000012C2ED94FF40065284B0CF5405ECEF8F5
:10471000005053F820E0BEF1000F17D1DCF800E0A4
:10472000012C8EEA421202F0E0020CF5805ECEF817
:1047300000202BD94FF4006143F820604FF4803300
:104740000CF500521160CCF8043070BD5D69B5FB0A
:10475000FEFE0EF1010E0EEB4E0EBEF1030EFCD26C
:10476000DCE70129CED103240CF540531C60DCF8B2
:104770000830DB07FBD5DCF800300CF5805E83EAFF
:10478000421303F0E003CEF80030084B0122DCF8BE
:1047900000404C4004F00304CEF8004002FA01F15E
:1047A000DCF808200A42FBD0C4E700BF9C3E002092
:1047B000014B53F8200070479C3E002010B5029C2E
:1047C0008E464FEA043C4CEA034C1C4BB3FBF1F31E
:1047D0000168B2FBF3F4002920DB194A194B90421F
:1047E00014BF4FF480424FF4004217491A6003F59A
:1047F00080531A608B6832EA0303FBD1212200F553
:1048000040530433C0F800E084601A600268002A54
:10481000FCDA0822C0F80CC01A6010BD036803F06F
:104820003F037345D9D18368C3F30B03A342D4D1AB
:10483000C36803F4EE236345CFD110BD001BB7005E
:10484000008005400020024000000240012300EBF0
:104850004000800000F1804000F58410416003605A
:10486000704700BF4FF0000C30B5134683B00446CC
:104870000D46BCF81620002141E800F101934B02DF
:1048800054BF1021042144F25220904786462A4604
:104890000A212046F446019B03B0BDE83040604742
:1048A0000023DB8A002242E800F2520201D41021E8
:1048B00018470421184700BF024608B568B190FAAE
:1048C000A0F2B2FA82F241F020010023DB7C022B3D
:1048D00006D04FF48170FFF7C5FF8B06F9D5F4E7DA
:1048E0004FF49170FFF7BEFF034AD2F82838002B2F
:1048F000FBD0BFF35F8F704700000E400021044BD8
:10490000044ABFF35F8F43F8041B9342F9D1704709
:104910000C080E402C080E40012070474FF0504309
:104920001A68EFF3108172B6024B002043F8221090
:10493000704700BF246900204FF05042034B1268BB
:1049400053F8223083F31088002070472469002038
:1049500000487047982A00202DE9F04107460E468E
:104960001546FFF7F5FF58B10446436828469847B7
:1049700040B93046B8472846A368BDE8F04118471B
:104980006FF00300BDE8F0814FF42A6C4FF48D7096
:10499000054A064B0649C2F800C0D060196053684A
:1049A000002BFCDA704700BF0080044000A00440E8
:1049B00000B0FA00704700BF08B50148FEF738FDA7
:1049C000A85D021038B5054C054DAC4204D254F830
:1049D000043B9847AC42FAD338BD00BF905902104F
:1049E000D05902100648DFF828C0064B064A07498E
:1049F000C0F800C01A608B6832EA0303FBD170472D
:104A00000020024000300240F6FFF30300000240A5
:104A10007F3BEFEF044BDB6CB3F5004F03D14FF45A
:104A20008022024BDA6470470000115000201150C0
:104A30004FF0E022044BD2F8881D0B43C2F8883DAA
:104A400010EE3004704700BF030330006FF0604188
:104A5000044B054A19609368DB4333F06043FAD195
:104A6000704700BF003002400000024010B545F220
:104A70005320FFF715FFBDE81040034604201847F8
:104A800010B545F25320FFF70BFFBDE81040034679
:104A900001201847FEF7BCBD1349144B70B55C1AD2
:104AA000A508442D2A4628BF4422114E92003046C4
:104AB00020F042FF432D13D80E4A0FD0C5F1440019
:104AC0003319410803EBC101C3E9002208338B42CB
:104AD000FAD1C30704D520F00100054446F825208B
:104AE000054B9E6070BD00BF00000010100100105B
:104AF000000000201101001000ED00E0002370B55F
:104B00002B4C82B0C4F88430FFF73EFF0122294BC2
:104B1000DA63636C012BFCD10321264A244B116319
:104B20009C6B012CFCD10226052521460523224A37
:104B300022480096FFF742FE21462B46204A214894
:104B40000095FFF73BFE0022042031461E4BFFF785
:104B5000C1FD2146284600221C4BFFF7BBFD002269
:104B6000082011461A4BFFF7B5FD00220920114617
:104B7000174BFFF7AFFD002206201146134BFFF73E
:104B8000A9FD0022114B07201146FFF7A3FD0420C9
:104B9000FFF70EFE00240F4BA3FB0035AD0CE0B277
:104BA00029460134FFF752FE062CF8D102B070BD41
:104BB0000000014000300140002F6859000005400E
:104BC000008C864700800540001BB70080D1F008AC
:104BD000006CDC0283DE1B4386B003B451FC080486
:104BE000CDE9020151FC0904CDE9040151EC0A04AC
:104BF000CDE9060103BCF047BDE800504EEC00C40F
:104C0000BDE800504EEC01C4BDE800504EEC02C4BB
:104C100000BD000000B5FFF7DFFF02E010FE30F43A
:104C2000F8D441EC100443EC112400EE010410EE22
:104C3000010480EE200451EC1004704700B5FFF72A
:104C4000CBFF02E010FE30F4F8D441EC100443EC4A
:104C5000112400EE010410EE210480EE200451EC3A
:104C60003004704700B5FFF7B7FF02E010FE30F4E4
:104C7000F8D410B541EC100443EC112451EC0404B9
:104C800053EC0524A0FB024C5FF0000EE0FB03CECA
:104C9000E1FB02CE4CEC20440024E1FB03E444ECB5
:104CA00030E480EE200451EC500410BD00B5FFF755
:104CB00093FF02E010FE30F4F8D441EC100443EC12
:104CC000112451EC2104A0FB01126FEA820252FB75
:104CD000100052FB12F252FB1000A0EBD07C53EC00
:104CE00004245CFB13F153EC1524A1FB022001FB0F
:104CF000030053EC4424A2EB000050FB1CF24FEAEB
:104D0000111312EB017043EBE27140EA515020EABB
:104D1000915020F0070053EC7524A0FB023C53ECAB
:104D2000752400FB03CC01FB02CC53EC0424ACEB58
:104D3000824C40EA5C70A0F1010041EC400480EE3E
:104D4000200451EC7004704700B5FFF745FF02E006
:104D500010FE30F4F8D440EC700400EE010410EEC4
:104D6000210480EE200451EC3004704700B5FFF7B9
:104D700033FF02E010FE30F4F8D440EC600400EEA3
:104D8000010410EE210480EE200451EC3004704741
:104D900000B5FFF721FF02E010FE30F4F8D441EC3B
:104DA000800400EE010410EE010480EE400410EED9
:104DB0001304704700B5FFF70FFF02E010FE30F458
:104DC000F8D441EC800400EE010410EE010480EE02
:104DD000400410EE3304704700B5FFF7FDFE02E01B
:104DE00010FE30F4F8D441EC100443EC112400EE32
:104DF000010410EE3004C0F30070704700B5FFF7F7
:104E0000EBFE02E010FE30F4F8D443EC102441EC49
:104E1000110400EE010410EE30F48CBF01200020DC
:104E2000704700BF00B5FFF7D7FE02E010FE30F478
:104E3000F8D443EC102441EC110400EE010410EE10
:104E400030F42CBF01200020704700BF00B5FFF7F1
:104E5000C3FE02E010FE30F4F8D441EC100443EC41
:104E6000112400EE010410EE30F42CBF01200020CC
:104E7000704700BF00B5FFF7AFFE02E010FE30F450
:104E8000F8D441EC100443EC112400EE010410EEC0
:104E900030F48CBF01200020704700BF10B50446DD
:104EA0001EF026FD20B1044A0319934200D810BD1C
:104EB0000248FEF7BDFA00BF00000820B45D0210F2
:104EC00010B50C461FF004F820B1044A03199342B0
:104ED00000D810BD0248FEF7ABFA00BF0000082062
:104EE000B45D02101EF00CBDFFF7D8BFFFF7FABF8C
:104EF000FFF7F8BF9A4238BF88547047704700BF29
:104F00002DE9F04F83B00F461146DDE90EB292074E
:104F10009846DDE90C93064629D00D469BB109EB76
:104F2000030405EB040A01950D460D93AAEB040258
:104F300014F8010D43463946B047A145F6D129463C
:104F40000D9B019D1D440F9B9B070CD56C1AA3451F
:104F500009D92A464346394620200134B0475C45EA
:104F600005F10105F5D3284603B0BDE8F08F5B4598
:104F700015D28A461C468946ABEB03050D445246C2
:104F80004346394620200AF1010AB047AA45F6D126
:104F900049462346DDF83090002CC0D1E3E70D46AA
:104FA000002BBCD1DFE700BF2DE9F04F0F460F9972
:104FB00006469DF82C008D079046DDE90CA2994627
:104FC0008346099CDDF828C00E9B49D4002B42D1B2
:104FD000944545D201F0010504F1FF3E3020E6443E
:104FE00005E00CF1010C62450EF8010F02D9BCF18D
:104FF000200FF6D1002D00F08780634530D9601E68
:105000004FF0300E604405E00CF1010C9C4500F8B7
:1050100001EF25D0BCF1200FF6D1CD060ED5480505
:1050200051D4624564D0634562D0BAF1100F4DD0BF
:10503000BAF1020F55D0BCF1200F2DD12022CDE9BD
:105040000B310A924B464246394630460994BDE838
:10505000F04FFFF755BF11F001052ED19445BBD39A
:10506000CD061ED54805E0D4BCF1000FD9D1BAF168
:10507000100F5FD0BAF1020F74D030224FF0010C44
:105080002270BBF1000F12D1480742D52B2204F841
:105090000C200CF10102D2E762460CF1010C302029
:1050A000A054BCF1200FC9D0BBF1000FECD02D22D1
:1050B00004F80C200CF10102C1E798B3944503F108
:1050C000FF3389D399E7BAF1100FB7D18D063DD5DB
:1050D000BCF1200FB2D0582204F80C200CF1010CC6
:1050E000A9E7BCF1200FA9D062460CF1010C08E041
:1050F000BCF10102BBD0BAF1100F35D0BAF1020FEA
:10510000CDD16220A05496E7CD06CAD5480588D5F2
:105110008BE70A0749BF2022624604F80C200CF1F5
:1051200001028CE711F00C0F00D0013B9445FFF415
:1051300053AF62E78A0613D47822227030224FF0F0
:10514000020C6270BBF1000F9ED0B0E7BCF1200FE3
:105150003FF474AF782204F80C200CF1010C6AE7DC
:105160005822EAE76222E8E78D06ACF1020004D596
:105170004FF0580E04F800E091E74FF0780E04F875
:1051800000E08CE700B9704701F0E4BB10B1D1E951
:1051900000311847704700BF2DE9F04F97B09DEDE3
:1051A000207BDDE9225B8046894651EC170B9A464D
:1051B000249B0C92079302460B468DED047BFFF770
:1051C0000FFE002840F0E381DDE904014FF0FF32DB
:1051D0006FF48013FFF716FE002840F0CB80DDE966
:1051E00004014FF0FF32B24BFFF748FE002840F0B9
:1051F0009F80DDE90467AAA3D3E90023304639463E
:10520000FFF73CFE002840F08280A7A3D3E90023EB
:1052100030463946FFF7F6FD002878D1304639464A
:1052200000220023FFF7EEFD002840F098800D904B
:10523000079B302113F4806F08BF06250EAA2B466A
:10524000A5F1200605E0013BB34202F8011B00F086
:105250006581092BF7D81E46ED1ADDE90401FFF739
:105260009BFD944B044603EBC60393ED007B8DED51
:10527000087BFFF76DFD02460B46DDE90401FFF7F1
:10528000E1FCDDE90823FFF7F1FCCDE90A01FFF7B6
:1052900095FD0746FFF76EFD02460B46DDE90A0164
:1052A000FFF7D0FC0022844BCDE90A01FFF7E6FDB1
:1052B000002800F0888001373846FFF75BFD024682
:1052C0000B46DDE90801FFF7B1FD08B10027013405
:1052D000002E00F088800DF13703DFF8F0C1581977
:1052E0000DE0ACFB0721C90801EB8102A7EB4202EC
:1052F0003032092F00F8012F40F2FB800F46202D9D
:1053000006F1FF3605F10105EBD1202586E0079B6C
:105310009DED047BCDE923B34946534640460C9AA4
:105320008DED207B229517B0BDE8F04F00F080B9DD
:10533000079B494658074CBF04230323404621934B
:105340005346079A48BF5D4CCDE922B258BF5C4C2A
:105350000C9A209417B0BDE8F04FFFF7D1BD3B4643
:10536000324600200021FFF76DFC0123CDE9040146
:105370000D935DE7079B03F002029C07049200F087
:10538000F4800C9F3D464F4E341D14F8010D2A4603
:1053900053464946C047A64205F10105F5D1049B95
:1053A0003C1D63B10C9D631B9B4508D922465346A7
:1053B000494620200134C047631B9B45F6D8204650
:1053C00017B0BDE8F08F0022DDE90A013A4BFFF784
:1053D00019FD00287FF47CAF002F40F0C280013718
:1053E000002E7FF478AF2046FFF7B2FC02460B4652
:1053F000DDE90401FFF726FC00222F4B06460F468D
:10540000FFF700FD40B93046394600222A4BFFF72E
:1054100035FD002800F0A1800DF137032A48591905
:105420000EE080FB0476C2EBA60202EB8206A4EB40
:10543000460630361446013501F8016F002A47D080
:10544000202D4FEAE472ECD1079A02F00302012A00
:1054500014D1BBF1000F11D00D9A002A60D00BF1CE
:10546000FF3BBBF1200F09D930222B4404E001356A
:105470005D4503F8012F31D2202DF8D1079B0EACEA
:10548000CDE902B300945346494640460C9A019533
:10549000FFF736FD0446204617B0BDE8F08F00BF89
:1054A0000000000065CDCD410000000065CDCDC1FC
:1054B000FFFFEF7F38A402100000E03F005E021003
:1054C000085E0210105E021067666666CDCCCCCC1A
:1054D000079A02F00302012A00F09680202DCDD019
:1054E0000D9B3BB32D220DEB050383F838200135CE
:1054F000C4E7202D3FF409AF30212E445A1905E0AE
:105500000135202D02F8011F3FF4FFAEAE42F7D166
:105510002E226E44013586F838207FE720259CE650
:10552000079A12F00C0F5AD00BF1FF3BAB459BD8FA
:10553000202DA3D0079B5A0706D52B220DEB050380
:1055400083F83820013599E71B0797D520220DEB0A
:10555000050383F83820013590E7013424F0010475
:105560005AE7F9077FF5B4AE39E7BBF1040F7FF6D0
:1055700008AF0C9B1D46043B03EB0B072A46534622
:10558000494620200135C047AF42F7D1FAE6079BD4
:1055900003F002029D07049225D00C9F3D46224E47
:1055A000F41C14F8010D2A4653464946C047A6424A
:1055B00005F10105F5D1049BFC1C002B3FF4FFAE67
:1055C0000C9D631B9B457FF6FAAE22465346494627
:1055D00020200134C047631B9B45F6D8EFE6AB455E
:1055E0003FF642AF4AE7BBF1030FD6D90C9B1D46ED
:1055F000033B03EB0B072A4653464946202001355F
:10560000C047BD42F7D1C9E7BBF1000F3FF466AF19
:105610000D9A002A84D00BF1FF3B5D45FFF424AFC7
:10562000202D7FF45FAF29E70C5E02100000000020
:105630002DE9F04F9FB01E46DDE928ABDDE92B9840
:105640002A9B04460D460B920A9352465B465046EF
:105650005946FFF7C5FB002840F0C6805046594622
:105660004FF0FF327B4BFFF709FC002840F0BC8075
:10567000504659464FF0FF326FF48013FFF7C2FBDC
:10568000002840F0B1805046594600220023FFF721
:10569000B9FB002840F0DD81CDE908ABDDE9081257
:1056A00018F480600B460F4608F400610C921491C8
:1056B000159040F0A880134340F0D080002940F0BE
:1056C000EC8106230A9318F00202109240F0DD816B
:1056D0004B46042B38BF04230E920422043B129243
:1056E00014935046594600220023FFF78BFB0028F5
:1056F00040F02A829DED087B149B0B9A03930A9B32
:105700008DED007B029328F4006304932946334611
:105710002046FFF741FD024618F0200F3346294688
:105720000CBF6520452002F10108A047129B0DF136
:10573000580A03F1FF3B0E9B002283EAE37C5046AC
:10574000DFF814E10B9FACEBE37CD90FCDF82080A0
:1057500002E0202AC44610D0AEFB0C384FEAD8082D
:1057600008EB8803ACEB430301303033BCF1090F85
:1057700002F1010200F8013CEBD805234FF0000CC8
:1057800006930A23DDF82080CDE90121CDE9033C11
:10579000CDF800A03346424629462046CDF814B045
:1057A000FFF702FC109B8246D3B1A0EB0708C1456E
:1057B00016D907EB080233462946202008F10108D4
:1057C000A047C145F5D87B1E4B44C7F10102A3EBAE
:1057D0000A035244914538BF00230AF1010A9A4452
:1057E00050461FB0BDE8F08F334629462046CDE92C
:1057F00028AB0A9CCDE92B980B9A2A941FB0BDE8E0
:10580000F04FFFF7C9BC57EA020329D100293FF442
:105810005AAF00230E930A9B0E9A934200F3BA816B
:1058200000275046594600220023FFF7EBFA0028D4
:1058300040F015819DED087B28F4006343F48063FC
:105840002C938DED287B334629462046CDE92A79D5
:105850000B9AD3E7FFFFEF7FCDCCCCCC06230A9386
:105860000C9BC3F30A50A0F2FF30FFF771FAB2A30A
:10587000D3E90023FFF7FAF9B1A3D3E90023FFF737
:10588000CDF90C9BCDE90E01C3F3130343F07F5117
:1058900038460022A24B41F44011FFF7D3F994A3FC
:1058A000D3E90023FFF7E2F902460B46DDE90E01DA
:1058B000FFF7B4F9FFF770FA0E90FFF749FA8EA3DD
:1058C000D3E90023CDE90C01FFF7D0F90022954B75
:1058D000FFF7A4F9FFF760FA89A3D3E9002307468D
:1058E000DDE90C01FFF7C2F9CDE90C013846FFF7FD
:1058F0002FFA85A3D3E90023FFF7B8F902460B4638
:10590000DDE90C01FFF79EF902460B46CDE90C23B9
:10591000FFF7ACF9CDE91001DDE90C0102460B46B9
:10592000FFF77CF90022CDE91201DDE910017E4B81
:10593000FFF7C0F900227D4BFFF770F902460B46D6
:10594000DDE91001FFF7B6F90022794BFFF766F9A0
:1059500002460B46DDE91001FFF7ACF9CDE9100175
:10596000DDE90C2300204FF08041FFF76BF9024680
:105970000B46DDE91001FFF751F902460B46DDE960
:105980001201FFF797F900226A4BFFF747F907F278
:10599000FF3C00224FEA0C53FFF768F902460B4622
:1059A000DDE90801CDE90C23FFF72CFA50B1DDE960
:1059B0000C010E9B0022013B0E935C4BFFF77AF922
:1059C000CDE90C01DDE90C010E9B02466333C62BC9
:1059D00008F002031093149B2DD8002B5FD00423F2
:1059E00012930A433FF417AFDDE9080148A3D3E956
:1059F0000023FFF72FFA48B1DDE9080146A3D3E9F8
:105A00000023FFF7FFF900287FF405AF0A9B002B66
:105A100051D0159A002A00F0AC80013B0A93129BEA
:105A2000994505D9109B002B00F0AF8002231093FD
:105A30000023149344E02BBBB9F1050F4FD908F0B4
:105A40000203002B49D105231293A9F105031493F6
:105A50003AE00BF10043CDF820A009931EE628F4AC
:105A6000006343F480632046CDE92A792C933346C2
:105A7000DDE908673446294607F10045CDE92845A8
:105A80000B9ABBE605231293ABE702220023109288
:105A90000422149312920E9323E60527C1E6B9F16E
:105AA000040F1FD9109B002B77D104231293A9F167
:105AB0000403149304E0129B99455FD80A9B149346
:105AC0000E9B002B3FF40DAEDDE90801DDE90C2350
:105AD000FFF7F0F8CDE9080103E602231093052350
